{
  "address": "0x0ae31C4Fe4634061d97B591e8EaE23d691774c3c",
  "abi": [
    {
      "inputs": [
        {
          "internalType": "address",
          "name": "_defaultResolver",
          "type": "address"
        }
      ],
      "stateMutability": "nonpayable",
      "type": "constructor"
    },
    {
      "anonymous": false,
      "inputs": [
        {
          "indexed": true,
          "internalType": "address",
          "name": "owner",
          "type": "address"
        },
        {
          "indexed": true,
          "internalType": "address",
          "name": "approved",
          "type": "address"
        },
        {
          "indexed": true,
          "internalType": "uint256",
          "name": "tokenId",
          "type": "uint256"
        }
      ],
      "name": "Approval",
      "type": "event"
    },
    {
      "anonymous": false,
      "inputs": [
        {
          "indexed": true,
          "internalType": "address",
          "name": "owner",
          "type": "address"
        },
        {
          "indexed": true,
          "internalType": "address",
          "name": "operator",
          "type": "address"
        },
        {
          "indexed": false,
          "internalType": "bool",
          "name": "approved",
          "type": "bool"
        }
      ],
      "name": "ApprovalForAll",
      "type": "event"
    },
    {
      "anonymous": false,
      "inputs": [
        {
          "indexed": false,
          "internalType": "uint160",
          "name": "tokenId",
          "type": "uint160"
        },
        {
          "indexed": false,
          "internalType": "address",
          "name": "account",
          "type": "address"
        },
        {
          "indexed": false,
          "internalType": "uint96",
          "name": "eth",
          "type": "uint96"
        }
      ],
      "name": "DelegateCommit",
      "type": "event"
    },
    {
      "anonymous": false,
      "inputs": [
        {
          "indexed": false,
          "internalType": "uint160",
          "name": "sellingTokenId",
          "type": "uint160"
        },
        {
          "indexed": false,
          "internalType": "uint16",
          "name": "itemId",
          "type": "uint16"
        },
        {
          "indexed": false,
          "internalType": "uint160",
          "name": "buyingTokenId",
          "type": "uint160"
        },
        {
          "indexed": false,
          "internalType": "uint96",
          "name": "eth",
          "type": "uint96"
        }
      ],
      "name": "DelegateCommitItem",
      "type": "event"
    },
    {
      "anonymous": false,
      "inputs": [
        {
          "indexed": false,
          "internalType": "uint256",
          "name": "epoch",
          "type": "uint256"
        },
        {
          "indexed": false,
          "internalType": "address",
          "name": "account",
          "type": "address"
        },
        {
          "indexed": false,
          "internalType": "uint96",
          "name": "eth",
          "type": "uint96"
        }
      ],
      "name": "DelegateMint",
      "type": "event"
    },
    {
      "anonymous": false,
      "inputs": [
        {
          "indexed": false,
          "internalType": "uint160",
          "name": "tokenId",
          "type": "uint160"
        },
        {
          "indexed": false,
          "internalType": "address",
          "name": "account",
          "type": "address"
        },
        {
          "indexed": false,
          "internalType": "uint96",
          "name": "eth",
          "type": "uint96"
        }
      ],
      "name": "DelegateOffer",
      "type": "event"
    },
    {
      "anonymous": false,
      "inputs": [
        {
          "indexed": false,
          "internalType": "uint160",
          "name": "sellingTokenId",
          "type": "uint160"
        },
        {
          "indexed": false,
          "internalType": "uint16",
          "name": "itemId",
          "type": "uint16"
        },
        {
          "indexed": false,
          "internalType": "uint160",
          "name": "buyingTokenId",
          "type": "uint160"
        },
        {
          "indexed": false,
          "internalType": "uint96",
          "name": "eth",
          "type": "uint96"
        }
      ],
      "name": "DelegateOfferItem",
      "type": "event"
    },
    {
      "anonymous": false,
      "inputs": [],
      "name": "Genesis",
      "type": "event"
    },
    {
      "anonymous": false,
      "inputs": [
        {
          "indexed": false,
          "internalType": "address",
          "name": "v2",
          "type": "address"
        },
        {
          "indexed": false,
          "internalType": "uint160",
          "name": "tokenId",
          "type": "uint160"
        },
        {
          "indexed": false,
          "internalType": "uint256",
          "name": "proof",
          "type": "uint256"
        },
        {
          "indexed": false,
          "internalType": "address",
          "name": "owner",
          "type": "address"
        },
        {
          "indexed": false,
          "internalType": "uint96",
          "name": "eth",
          "type": "uint96"
        }
      ],
      "name": "MigrateV1Sent",
      "type": "event"
    },
    {
      "anonymous": false,
      "inputs": [
        {
          "indexed": false,
          "internalType": "address",
          "name": "migrator",
          "type": "address"
        }
      ],
      "name": "MigratorV1Updated",
      "type": "event"
    },
    {
      "anonymous": false,
      "inputs": [
        {
          "indexed": false,
          "internalType": "uint160",
          "name": "tokenId",
          "type": "uint160"
        },
        {
          "indexed": false,
          "internalType": "address",
          "name": "account",
          "type": "address"
        },
        {
          "indexed": false,
          "internalType": "uint96",
          "name": "payoffAmount",
          "type": "uint96"
        }
      ],
      "name": "Payoff",
      "type": "event"
    },
    {
      "anonymous": false,
      "inputs": [
        {
          "indexed": false,
          "internalType": "uint160",
          "name": "tokenId",
          "type": "uint160"
        },
        {
          "indexed": false,
          "internalType": "uint256",
          "name": "proof",
          "type": "uint256"
        },
        {
          "indexed": false,
          "internalType": "uint16",
          "name": "itemId",
          "type": "uint16"
        }
      ],
      "name": "PopItem",
      "type": "event"
    },
    {
      "anonymous": false,
      "inputs": [
        {
          "indexed": false,
          "internalType": "uint96",
          "name": "eth",
          "type": "uint96"
        }
      ],
      "name": "ProtocolEthExtracted",
      "type": "event"
    },
    {
      "anonymous": false,
      "inputs": [
        {
          "indexed": false,
          "internalType": "uint160",
          "name": "tokenId",
          "type": "uint160"
        },
        {
          "indexed": false,
          "internalType": "uint256",
          "name": "proof",
          "type": "uint256"
        },
        {
          "indexed": false,
          "internalType": "uint16",
          "name": "itemId",
          "type": "uint16"
        }
      ],
      "name": "PushItem",
      "type": "event"
    },
    {
      "anonymous": false,
      "inputs": [
        {
          "indexed": false,
          "internalType": "uint160",
          "name": "tokenId",
          "type": "uint160"
        },
        {
          "indexed": false,
          "internalType": "uint96",
          "name": "fee",
          "type": "uint96"
        },
        {
          "indexed": false,
          "internalType": "uint96",
          "name": "earned",
          "type": "uint96"
        }
      ],
      "name": "Rebalance",
      "type": "event"
    },
    {
      "anonymous": false,
      "inputs": [
        {
          "indexed": false,
          "internalType": "uint160",
          "name": "tokenId",
          "type": "uint160"
        },
        {
          "indexed": false,
          "internalType": "uint256",
          "name": "proof",
          "type": "uint256"
        },
        {
          "indexed": false,
          "internalType": "uint8",
          "name": "feature",
          "type": "uint8"
        }
      ],
      "name": "RotateItem",
      "type": "event"
    },
    {
      "anonymous": false,
      "inputs": [
        {
          "indexed": false,
          "internalType": "uint160",
          "name": "tokenId",
          "type": "uint160"
        },
        {
          "indexed": false,
          "internalType": "uint256",
          "name": "proof",
          "type": "uint256"
        },
        {
          "indexed": false,
          "internalType": "uint8[]",
          "name": "xs",
          "type": "uint8[]"
        },
        {
          "indexed": false,
          "internalType": "uint8[]",
          "name": "ys",
          "type": "uint8[]"
        }
      ],
      "name": "SetAnchorOverrides",
      "type": "event"
    },
    {
      "anonymous": false,
      "inputs": [
        {
          "indexed": false,
          "internalType": "uint160",
          "name": "tokenId",
          "type": "uint160"
        },
        {
          "indexed": false,
          "internalType": "uint256",
          "name": "proof",
          "type": "uint256"
        },
        {
          "indexed": false,
          "internalType": "uint8[]",
          "name": "items",
          "type": "uint8[]"
        }
      ],
      "name": "SetProof",
      "type": "event"
    },
    {
      "anonymous": false,
      "inputs": [
        {
          "indexed": false,
          "internalType": "uint96",
          "name": "stake",
          "type": "uint96"
        },
        {
          "indexed": false,
          "internalType": "uint96",
          "name": "protocol",
          "type": "uint96"
        }
      ],
      "name": "StakeEth",
      "type": "event"
    },
    {
      "anonymous": false,
      "inputs": [
        {
          "indexed": false,
          "internalType": "uint160",
          "name": "tokenId",
          "type": "uint160"
        },
        {
          "indexed": false,
          "internalType": "address",
          "name": "account",
          "type": "address"
        },
        {
          "indexed": false,
          "internalType": "uint32",
          "name": "epoch",
          "type": "uint32"
        }
      ],
      "name": "SwapClaim",
      "type": "event"
    },
    {
      "anonymous": false,
      "inputs": [
        {
          "indexed": false,
          "internalType": "uint160",
          "name": "sellingTokenId",
          "type": "uint160"
        },
        {
          "indexed": false,
          "internalType": "uint16",
          "name": "itemId",
          "type": "uint16"
        },
        {
          "indexed": false,
          "internalType": "uint160",
          "name": "buyingTokenId",
          "type": "uint160"
        },
        {
          "indexed": false,
          "internalType": "uint32",
          "name": "epoch",
          "type": "uint32"
        }
      ],
      "name": "SwapClaimItem",
      "type": "event"
    },
    {
      "anonymous": false,
      "inputs": [
        {
          "indexed": false,
          "internalType": "uint160",
          "name": "sellingTokenId",
          "type": "uint160"
        },
        {
          "indexed": false,
          "internalType": "uint16",
          "name": "itemId",
          "type": "uint16"
        },
        {
          "indexed": false,
          "internalType": "uint96",
          "name": "eth",
          "type": "uint96"
        }
      ],
      "name": "SwapItemStart",
      "type": "event"
    },
    {
      "anonymous": false,
      "inputs": [
        {
          "indexed": false,
          "internalType": "uint160",
          "name": "tokenId",
          "type": "uint160"
        },
        {
          "indexed": false,
          "internalType": "address",
          "name": "account",
          "type": "address"
        },
        {
          "indexed": false,
          "internalType": "uint96",
          "name": "eth",
          "type": "uint96"
        }
      ],
      "name": "SwapStart",
      "type": "event"
    },
    {
      "anonymous": false,
      "inputs": [
        {
          "indexed": false,
          "internalType": "uint160",
          "name": "tokenId",
          "type": "uint160"
        },
        {
          "indexed": false,
          "internalType": "uint96",
          "name": "principal",
          "type": "uint96"
        }
      ],
      "name": "TakeLoan",
      "type": "event"
    },
    {
      "anonymous": false,
      "inputs": [
        {
          "indexed": true,
          "internalType": "address",
          "name": "from",
          "type": "address"
        },
        {
          "indexed": true,
          "internalType": "address",
          "name": "to",
          "type": "address"
        },
        {
          "indexed": true,
          "internalType": "uint256",
          "name": "tokenId",
          "type": "uint256"
        }
      ],
      "name": "Transfer",
      "type": "event"
    },
    {
      "anonymous": false,
      "inputs": [
        {
          "indexed": true,
          "internalType": "address",
          "name": "user",
          "type": "address"
        }
      ],
      "name": "TrustUpdated",
      "type": "event"
    },
    {
      "anonymous": false,
      "inputs": [
        {
          "indexed": true,
          "internalType": "address",
          "name": "to",
          "type": "address"
        },
        {
          "indexed": false,
          "internalType": "uint160",
          "name": "tokenId",
          "type": "uint160"
        }
      ],
      "name": "TrustedMint",
      "type": "event"
    },
    {
      "anonymous": false,
      "inputs": [
        {
          "indexed": false,
          "internalType": "uint96",
          "name": "stake",
          "type": "uint96"
        },
        {
          "indexed": false,
          "internalType": "address",
          "name": "to",
          "type": "address"
        }
      ],
      "name": "UnStakeEth",
      "type": "event"
    },
    {
      "anonymous": false,
      "inputs": [
        {
          "indexed": true,
          "internalType": "address",
          "name": "by",
          "type": "address"
        },
        {
          "indexed": false,
          "internalType": "uint160",
          "name": "tokenId",
          "type": "uint160"
        }
      ],
      "name": "UntrustedMint",
      "type": "event"
    },
    {
      "inputs": [],
      "name": "activeEthPerShare",
      "outputs": [
        {
          "internalType": "uint96",
          "name": "res",
          "type": "uint96"
        }
      ],
      "stateMutability": "view",
      "type": "function"
    },
    {
      "inputs": [
        {
          "internalType": "address",
          "name": "to",
          "type": "address"
        },
        {
          "internalType": "uint256",
          "name": "tokenId",
          "type": "uint256"
        }
      ],
      "name": "approve",
      "outputs": [],
      "stateMutability": "nonpayable",
      "type": "function"
    },
    {
      "inputs": [
        {
          "internalType": "address",
          "name": "owner",
          "type": "address"
        }
      ],
      "name": "balanceOf",
      "outputs": [
        {
          "internalType": "uint256",
          "name": "",
          "type": "uint256"
        }
      ],
      "stateMutability": "view",
      "type": "function"
    },
    {
      "inputs": [
        {
          "internalType": "uint160",
          "name": "tokenId",
          "type": "uint160"
        }
      ],
      "name": "claim",
      "outputs": [],
      "stateMutability": "nonpayable",
      "type": "function"
    },
    {
      "inputs": [
        {
          "internalType": "uint160",
          "name": "sellingTokenId",
          "type": "uint160"
        },
        {
          "internalType": "uint16",
          "name": "itemid",
          "type": "uint16"
        },
        {
          "internalType": "uint160",
          "name": "buyingTokenId",
          "type": "uint160"
        }
      ],
      "name": "claimItem",
      "outputs": [],
      "stateMutability": "nonpayable",
      "type": "function"
    },
    {
      "inputs": [],
      "name": "defaultWidth",
      "outputs": [
        {
          "internalType": "uint8",
          "name": "",
          "type": "uint8"
        }
      ],
      "stateMutability": "view",
      "type": "function"
    },
    {
      "inputs": [],
      "name": "defaultZoom",
      "outputs": [
        {
          "internalType": "uint8",
          "name": "",
          "type": "uint8"
        }
      ],
      "stateMutability": "view",
      "type": "function"
    },
    {
      "inputs": [
        {
          "internalType": "uint160",
          "name": "tokenId",
          "type": "uint160"
        }
      ],
      "name": "delegate",
      "outputs": [],
      "stateMutability": "payable",
      "type": "function"
    },
    {
      "inputs": [
        {
          "internalType": "uint160",
          "name": "sellingTokenId",
          "type": "uint160"
        },
        {
          "internalType": "uint16",
          "name": "itemid",
          "type": "uint16"
        },
        {
          "internalType": "uint160",
          "name": "buyingTokenId",
          "type": "uint160"
        }
      ],
      "name": "delegateItem",
      "outputs": [],
      "stateMutability": "payable",
      "type": "function"
    },
    {
      "inputs": [],
      "name": "dotnuggV1Processor",
      "outputs": [
        {
          "internalType": "address",
          "name": "",
          "type": "address"
        }
      ],
      "stateMutability": "view",
      "type": "function"
    },
    {
      "inputs": [],
      "name": "epoch",
      "outputs": [
        {
          "internalType": "uint32",
          "name": "",
          "type": "uint32"
        }
      ],
      "stateMutability": "view",
      "type": "function"
    },
    {
      "inputs": [],
      "name": "extractProtocolEth",
      "outputs": [],
      "stateMutability": "nonpayable",
      "type": "function"
    },
    {
      "inputs": [
        {
          "internalType": "uint160",
          "name": "tokenId",
          "type": "uint160"
        }
      ],
      "name": "getActiveSwap",
      "outputs": [
        {
          "internalType": "address",
          "name": "leader",
          "type": "address"
        },
        {
          "internalType": "uint96",
          "name": "amount",
          "type": "uint96"
        },
        {
          "internalType": "uint32",
          "name": "_epoch",
          "type": "uint32"
        },
        {
          "internalType": "bool",
          "name": "isOwner",
          "type": "bool"
        }
      ],
      "stateMutability": "view",
      "type": "function"
    },
    {
      "inputs": [
        {
          "internalType": "uint256",
          "name": "tokenId",
          "type": "uint256"
        }
      ],
      "name": "getApproved",
      "outputs": [
        {
          "internalType": "address",
          "name": "",
          "type": "address"
        }
      ],
      "stateMutability": "view",
      "type": "function"
    },
    {
      "inputs": [
        {
          "internalType": "uint160",
          "name": "tokenId",
          "type": "uint160"
        },
        {
          "internalType": "address",
          "name": "account",
          "type": "address"
        }
      ],
      "name": "getOfferByAccount",
      "outputs": [
        {
          "internalType": "uint96",
          "name": "amount",
          "type": "uint96"
        }
      ],
      "stateMutability": "view",
      "type": "function"
    },
    {
      "inputs": [
        {
          "internalType": "address",
          "name": "owner",
          "type": "address"
        },
        {
          "internalType": "address",
          "name": "operator",
          "type": "address"
        }
      ],
      "name": "isApprovedForAll",
      "outputs": [
        {
          "internalType": "bool",
          "name": "",
          "type": "bool"
        }
      ],
      "stateMutability": "view",
      "type": "function"
    },
    {
      "inputs": [
        {
          "internalType": "uint160",
          "name": "tokenId",
          "type": "uint160"
        }
      ],
      "name": "loan",
      "outputs": [],
      "stateMutability": "nonpayable",
      "type": "function"
    },
    {
      "inputs": [
        {
          "internalType": "uint160",
          "name": "tokenId",
          "type": "uint160"
        }
      ],
      "name": "migrateStake",
      "outputs": [],
      "stateMutability": "nonpayable",
      "type": "function"
    },
    {
      "inputs": [
        {
          "internalType": "uint160",
          "name": "tokenId",
          "type": "uint160"
        }
      ],
      "name": "mint",
      "outputs": [],
      "stateMutability": "nonpayable",
      "type": "function"
    },
    {
      "inputs": [],
      "name": "name",
      "outputs": [
        {
          "internalType": "string",
          "name": "",
          "type": "string"
        }
      ],
      "stateMutability": "pure",
      "type": "function"
    },
    {
      "inputs": [
        {
          "internalType": "uint256",
          "name": "tokenId",
          "type": "uint256"
        }
      ],
      "name": "ownerOf",
      "outputs": [
        {
          "internalType": "address",
          "name": "",
          "type": "address"
        }
      ],
      "stateMutability": "view",
      "type": "function"
    },
    {
      "inputs": [
        {
          "internalType": "uint160",
          "name": "tokenId",
          "type": "uint160"
        }
      ],
      "name": "parsedProofOf",
      "outputs": [
        {
          "internalType": "uint256",
          "name": "proof",
          "type": "uint256"
        },
        {
          "internalType": "uint8[]",
          "name": "defaultIds",
          "type": "uint8[]"
        },
        {
          "internalType": "uint8[]",
          "name": "extraIds",
          "type": "uint8[]"
        },
        {
          "internalType": "uint8[]",
          "name": "overxs",
          "type": "uint8[]"
        },
        {
          "internalType": "uint8[]",
          "name": "overys",
          "type": "uint8[]"
        }
      ],
      "stateMutability": "view",
      "type": "function"
    },
    {
      "inputs": [
        {
          "internalType": "uint160",
          "name": "tokenId",
          "type": "uint160"
        }
      ],
      "name": "payoff",
      "outputs": [],
      "stateMutability": "payable",
      "type": "function"
    },
    {
      "inputs": [
        {
          "internalType": "uint256",
          "name": "tokenId",
          "type": "uint256"
        }
      ],
      "name": "prepareFiles",
      "outputs": [
        {
          "internalType": "uint256[][]",
          "name": "input",
          "type": "uint256[][]"
        },
        {
          "components": [
            {
              "internalType": "uint256",
              "name": "version",
              "type": "uint256"
            },
            {
              "internalType": "uint256",
              "name": "renderedAt",
              "type": "uint256"
            },
            {
              "internalType": "string",
              "name": "name",
              "type": "string"
            },
            {
              "internalType": "string",
              "name": "desc",
              "type": "string"
            },
            {
              "internalType": "address",
              "name": "owner",
              "type": "address"
            },
            {
              "internalType": "uint256",
              "name": "tokenId",
              "type": "uint256"
            },
            {
              "internalType": "uint256",
              "name": "proof",
              "type": "uint256"
            },
            {
              "internalType": "uint8[]",
              "name": "ids",
              "type": "uint8[]"
            },
            {
              "internalType": "uint8[]",
              "name": "extras",
              "type": "uint8[]"
            },
            {
              "internalType": "uint8[]",
              "name": "xovers",
              "type": "uint8[]"
            },
            {
              "internalType": "uint8[]",
              "name": "yovers",
              "type": "uint8[]"
            }
          ],
          "internalType": "struct IdotnuggV1Data.Data",
          "name": "data",
          "type": "tuple"
        }
      ],
      "stateMutability": "view",
      "type": "function"
    },
    {
      "inputs": [
        {
          "internalType": "uint160",
          "name": "tokenId",
          "type": "uint160"
        }
      ],
      "name": "proofOf",
      "outputs": [
        {
          "internalType": "uint256",
          "name": "",
          "type": "uint256"
        }
      ],
      "stateMutability": "view",
      "type": "function"
    },
    {
      "inputs": [
        {
          "internalType": "uint160",
          "name": "tokenId",
          "type": "uint160"
        }
      ],
      "name": "rebalance",
      "outputs": [],
      "stateMutability": "payable",
      "type": "function"
    },
    {
      "inputs": [
        {
          "internalType": "uint256",
          "name": "tokenId",
          "type": "uint256"
        }
      ],
      "name": "resolverOf",
      "outputs": [
        {
          "internalType": "address",
          "name": "",
          "type": "address"
        }
      ],
      "stateMutability": "view",
      "type": "function"
    },
    {
      "inputs": [
        {
          "internalType": "uint160",
          "name": "tokenId",
          "type": "uint160"
        },
        {
          "internalType": "uint8",
          "name": "feature",
          "type": "uint8"
        }
      ],
      "name": "rotateFeature",
      "outputs": [],
      "stateMutability": "nonpayable",
      "type": "function"
    },
    {
      "inputs": [
        {
          "internalType": "address",
          "name": "",
          "type": "address"
        },
        {
          "internalType": "address",
          "name": "",
          "type": "address"
        },
        {
          "internalType": "uint256",
          "name": "",
          "type": "uint256"
        }
      ],
      "name": "safeTransferFrom",
      "outputs": [],
      "stateMutability": "pure",
      "type": "function"
    },
    {
      "inputs": [
        {
          "internalType": "address",
          "name": "",
          "type": "address"
        },
        {
          "internalType": "address",
          "name": "",
          "type": "address"
        },
        {
          "internalType": "uint256",
          "name": "",
          "type": "uint256"
        },
        {
          "internalType": "bytes",
          "name": "",
          "type": "bytes"
        }
      ],
      "name": "safeTransferFrom",
      "outputs": [],
      "stateMutability": "pure",
      "type": "function"
    },
    {
      "inputs": [
        {
          "internalType": "address",
          "name": "operator",
          "type": "address"
        },
        {
          "internalType": "bool",
          "name": "approved",
          "type": "bool"
        }
      ],
      "name": "setApprovalForAll",
      "outputs": [],
      "stateMutability": "nonpayable",
      "type": "function"
    },
    {
      "inputs": [
        {
          "internalType": "address",
          "name": "user",
          "type": "address"
        }
      ],
      "name": "setIsTrusted",
      "outputs": [],
      "stateMutability": "nonpayable",
      "type": "function"
    },
    {
      "inputs": [
        {
          "internalType": "address",
          "name": "addr",
          "type": "address"
        }
      ],
      "name": "setMigrator",
      "outputs": [],
      "stateMutability": "nonpayable",
      "type": "function"
    },
    {
      "inputs": [
        {
          "internalType": "uint160",
          "name": "tokenId",
          "type": "uint160"
        },
        {
          "internalType": "uint8[]",
          "name": "xs",
          "type": "uint8[]"
        },
        {
          "internalType": "uint8[]",
          "name": "ys",
          "type": "uint8[]"
        }
      ],
      "name": "setOverrides",
      "outputs": [],
      "stateMutability": "nonpayable",
      "type": "function"
    },
    {
      "inputs": [
        {
          "internalType": "uint256",
          "name": "tokenId",
          "type": "uint256"
        },
        {
          "internalType": "address",
          "name": "to",
          "type": "address"
        }
      ],
      "name": "setResolver",
      "outputs": [],
      "stateMutability": "nonpayable",
      "type": "function"
    },
    {
      "inputs": [
        {
          "internalType": "uint256[][]",
          "name": "data",
          "type": "uint256[][]"
        },
        {
          "internalType": "uint8",
          "name": "feature",
          "type": "uint8"
        }
      ],
      "name": "storeFiles",
      "outputs": [],
      "stateMutability": "nonpayable",
      "type": "function"
    },
    {
      "inputs": [
        {
          "internalType": "bytes4",
          "name": "interfaceId",
          "type": "bytes4"
        }
      ],
      "name": "supportsInterface",
      "outputs": [
        {
          "internalType": "bool",
          "name": "",
          "type": "bool"
        }
      ],
      "stateMutability": "view",
      "type": "function"
    },
    {
      "inputs": [
        {
          "internalType": "uint160",
          "name": "tokenId",
          "type": "uint160"
        },
        {
          "internalType": "uint96",
          "name": "floor",
          "type": "uint96"
        }
      ],
      "name": "swap",
      "outputs": [],
      "stateMutability": "nonpayable",
      "type": "function"
    },
    {
      "inputs": [
        {
          "internalType": "uint160",
          "name": "sellingTokenId",
          "type": "uint160"
        },
        {
          "internalType": "uint16",
          "name": "itemid",
          "type": "uint16"
        },
        {
          "internalType": "uint96",
          "name": "floor",
          "type": "uint96"
        }
      ],
      "name": "swapItem",
      "outputs": [],
      "stateMutability": "nonpayable",
      "type": "function"
    },
    {
      "inputs": [],
      "name": "symbol",
      "outputs": [
        {
          "internalType": "string",
          "name": "",
          "type": "string"
        }
      ],
      "stateMutability": "pure",
      "type": "function"
    },
    {
      "inputs": [
        {
          "internalType": "uint256",
          "name": "tokenId",
          "type": "uint256"
        }
      ],
      "name": "tokenURI",
      "outputs": [
        {
          "internalType": "string",
          "name": "",
          "type": "string"
        }
      ],
      "stateMutability": "view",
      "type": "function"
    },
    {
      "inputs": [],
      "name": "totalLengths",
      "outputs": [
        {
          "internalType": "uint8[]",
          "name": "res",
          "type": "uint8[]"
        }
      ],
      "stateMutability": "view",
      "type": "function"
    },
    {
      "inputs": [],
      "name": "totalProtocolEth",
      "outputs": [
        {
          "internalType": "uint96",
          "name": "res",
          "type": "uint96"
        }
      ],
      "stateMutability": "view",
      "type": "function"
    },
    {
      "inputs": [],
      "name": "totalStakedEth",
      "outputs": [
        {
          "internalType": "uint96",
          "name": "res",
          "type": "uint96"
        }
      ],
      "stateMutability": "view",
      "type": "function"
    },
    {
      "inputs": [],
      "name": "totalStakedShares",
      "outputs": [
        {
          "internalType": "uint64",
          "name": "res",
          "type": "uint64"
        }
      ],
      "stateMutability": "view",
      "type": "function"
    },
    {
      "inputs": [],
      "name": "totalSupply",
      "outputs": [
        {
          "internalType": "uint256",
          "name": "res",
          "type": "uint256"
        }
      ],
      "stateMutability": "view",
      "type": "function"
    },
    {
      "inputs": [
        {
          "internalType": "address",
          "name": "",
          "type": "address"
        },
        {
          "internalType": "address",
          "name": "",
          "type": "address"
        },
        {
          "internalType": "uint256",
          "name": "",
          "type": "uint256"
        }
      ],
      "name": "transferFrom",
      "outputs": [],
      "stateMutability": "pure",
      "type": "function"
    },
    {
      "inputs": [],
      "name": "trusted",
      "outputs": [
        {
          "internalType": "address",
          "name": "",
          "type": "address"
        }
      ],
      "stateMutability": "view",
      "type": "function"
    },
    {
      "inputs": [
        {
          "internalType": "uint160",
          "name": "tokenId",
          "type": "uint160"
        },
        {
          "internalType": "address",
          "name": "to",
          "type": "address"
        }
      ],
      "name": "trustedMint",
      "outputs": [],
      "stateMutability": "nonpayable",
      "type": "function"
    },
    {
      "inputs": [
        {
          "internalType": "uint160",
          "name": "tokenId",
          "type": "uint160"
        }
      ],
      "name": "withdrawStake",
      "outputs": [],
      "stateMutability": "nonpayable",
      "type": "function"
    }
  ],
  "transactionHash": "0xe6c762ccd6704c064f99715a9b9489245edc7eb21bb1fe059895ef932bcf1db0",
  "args": [
    "0x488b62261D2D5ba4d2dcB446aCc355979405953D"
  ],
  "solcInputHash": "f0036cb8afb1ebe4cd0dacc16b49169c",
  "bytecode": "0x60806040526002805461ffff60a01b1916610a2d60a01b1790553480156200002657600080fd5b506040516200613338038062006133833981016040819052620000499162000119565b600080546001600160a01b03191633908117825560405183927f57860cff71823f3deabfecdd98d8536e7358fdeff8b092fd59e9f71c5078f32291a26200009a620000fe60201b62000f4b1760201c565b6001600160a01b038116620000ae57600080fd5b600280546001600160a01b0319166001600160a01b03929092169190911790556040517f6bf6eaff5e9af8fbccb949f4c38cc016936f8775363ccf4224db160365785d5290600090a1506200014b565b640100042069805463ffffffff19164363ffffffff16179055565b6000602082840312156200012c57600080fd5b81516001600160a01b03811681146200014457600080fd5b9392505050565b615fd8806200015b6000396000f3fe6080604052600436106103295760003560e01c806395d89b41116101a5578063c06c822f116100ec578063e63bedde11610095578063fa7329921161006f578063fa73299214610977578063fca840ae1461098a578063fe7e997e146109aa578063ffcf6d3a146109ca57600080fd5b8063e63bedde14610908578063e747738314610936578063e985e9c51461095757600080fd5b8063d276db98116100c6578063d276db98146108a6578063d7be245c146108c6578063e5cbd48e146108e857600080fd5b8063c06c822f14610853578063c5c8beeb14610866578063c87b56dd1461088657600080fd5b8063b3f9e4cb1161014e578063bc7b6d6211610128578063bc7b6d62146107e5578063be2cfdff14610805578063beace31f1461083357600080fd5b8063b3f9e4cb1461078a578063b88d4fde146107aa578063b88ea014146107c557600080fd5b8063a19ce9d61161017f578063a19ce9d61461072a578063a22cb4651461074a578063b3b9f3a71461076a57600080fd5b806395d89b41146106bb5780639a74cb64146106ea5780639caec8861461070a57600080fd5b806342842e0e11610274578063665557c81161021d5780637e2a6db8116101f75780637e2a6db81461063357806388fb73e614610651578063900cf0cf146106715780639066fdf81461069b57600080fd5b8063665557c8146105d357806370a08231146105f3578063750656f61461061357600080fd5b80635917c58f1161024e5780635917c58f1461056b5780636352211e1461059e5780636571595e146105be57600080fd5b806342842e0e146104ee578063504cdacf14610541578063570f67ad1461055657600080fd5b8063099afa17116102d657806323b872dd116102b057806323b872dd146104ee57806323cf31181461050e5780632e7a7f5e1461052e57600080fd5b8063099afa1714610459578063127913e21461046c57806318160ddd146104cb57600080fd5b806306fdde031161030757806306fdde03146103b2578063081812fc14610401578063095ea7b31461043957600080fd5b806301ffc9a71461032e5780630251f62c1461036357806303bfe17e14610385575b600080fd5b34801561033a57600080fd5b5061034e610349366004615182565b6109fb565b60405190151581526020015b60405180910390f35b34801561036f57600080fd5b5061038361037e3660046151b4565b610a4d565b005b34801561039157600080fd5b5061039a610a59565b6040516001600160601b03909116815260200161035a565b3480156103be57600080fd5b5060408051808201909152601681527f4e7567672046756e6769626c6520546f6b656e2056310000000000000000000060208201525b60405161035a919061522d565b34801561040d57600080fd5b5061042161041c366004615240565b610a68565b6040516001600160a01b03909116815260200161035a565b34801561044557600080fd5b50610383610454366004615259565b610a7b565b6103836104673660046151b4565b610a91565b34801561047857600080fd5b5061048c6104873660046151b4565b610a9a565b604080516001600160a01b0390951685526001600160601b03909316602085015263ffffffff909116918301919091521515606082015260800161035a565b3480156104d757600080fd5b506104e0610ab8565b60405190815260200161035a565b3480156104fa57600080fd5b50610383610509366004615285565b610ad1565b34801561051a57600080fd5b506103836105293660046151b4565b610b04565b61038361053c3660046152d8565b610b6d565b34801561054d57600080fd5b5061039a610b7d565b34801561056257600080fd5b50610383610b87565b34801561057757600080fd5b5060025461058c90600160a01b900460ff1681565b60405160ff909116815260200161035a565b3480156105aa57600080fd5b506104216105b9366004615240565b610bee565b3480156105ca57600080fd5b5061039a610c01565b3480156105df57600080fd5b506103836105ee3660046151b4565b610c0b565b3480156105ff57600080fd5b506104e061060e3660046151b4565b610c14565b34801561061f57600080fd5b5061038361062e3660046151b4565b610c1f565b34801561063f57600080fd5b506000546001600160a01b0316610421565b34801561065d57600080fd5b5061038361066c3660046151b4565b610c28565b34801561067d57600080fd5b50610686610ccc565b60405163ffffffff909116815260200161035a565b3480156106a757600080fd5b506103836106b6366004615332565b610cd6565b3480156106c757600080fd5b50604080518082019091526006815265139551d1d19560d21b60208201526103f4565b3480156106f657600080fd5b5061038361070536600461535e565b610ce0565b34801561071657600080fd5b506103836107253660046152d8565b610d4d565b34801561073657600080fd5b5061039a6107453660046153e2565b610d58565b34801561075657600080fd5b5061038361076536600461541b565b610d6b565b34801561077657600080fd5b506103836107853660046151b4565b610d75565b34801561079657600080fd5b506104216107a5366004615240565b610d7e565b3480156107b657600080fd5b506103836105093660046154bd565b3480156107d157600080fd5b506104e06107e03660046151b4565b610d91565b3480156107f157600080fd5b5061038361080036600461556c565b610d9c565b34801561081157600080fd5b5061081a610dae565b60405167ffffffffffffffff909116815260200161035a565b34801561083f57600080fd5b5061038361084e3660046153e2565b610db8565b6103836108613660046151b4565b610e23565b34801561087257600080fd5b506103836108813660046155a8565b610e2c565b34801561089257600080fd5b506103f46108a1366004615240565b610e36565b3480156108b257600080fd5b506103836108c13660046151b4565b610e41565b3480156108d257600080fd5b506108db610e4a565b60405161035a9190615612565b3480156108f457600080fd5b50600254610421906001600160a01b031681565b34801561091457600080fd5b50610928610923366004615240565b610e54565b60405161035a929190615705565b34801561094257600080fd5b5060025461058c90600160a81b900460ff1681565b34801561096357600080fd5b5061034e6109723660046153e2565b610ed7565b6103836109853660046151b4565b610f09565b34801561099657600080fd5b506103836109a536600461579a565b610f12565b3480156109b657600080fd5b506103836109c5366004615867565b610f1d565b3480156109d657600080fd5b506109ea6109e53660046151b4565b610f28565b60405161035a9594939291906158dd565b60006001600160e01b031982166380ac58cd60e01b1480610a2c57506001600160e01b03198216635b5e139f60e01b145b80610a4757506001600160e01b031982166301ffc9a760e01b145b92915050565b610a5681610f66565b50565b6000610a63611065565b905090565b6000610a47610a768361107a565b611094565b610a8d82610a888361107a565b611110565b5050565b610a5681611236565b600080600080610aa985611425565b93509350935093509193509193565b6000610ac26114b5565b67ffffffffffffffff16905090565b60405162461bcd60e51b81526020600482015260036024820152621ddd5d60ea1b60448201526064015b60405180910390fd5b6000546001600160a01b03163314610b4a5760405162461bcd60e51b8152602060048201526009602482015268155395149554d5115160ba1b6044820152606401610afb565b6001805460ff191681178155610b6090826114cb565b506001805460ff19169055565b610b7883838361155b565b505050565b6000610a63611713565b6000546001600160a01b03163314610bcd5760405162461bcd60e51b8152602060048201526009602482015268155395149554d5115160ba1b6044820152606401610afb565b6001805460ff191681178155610be290611729565b6001805460ff19169055565b6000610a47610bfc8361107a565b6117d7565b6000610a6361182c565b610a568161183f565b6000610a4782611960565b610a56816119bc565b6000546001600160a01b03163314610c6e5760405162461bcd60e51b8152602060048201526009602482015268155395149554d5115160ba1b6044820152606401610afb565b6001805460ff191681179055600080546001600160a01b0319166001600160a01b038316908117825560405190917f57860cff71823f3deabfecdd98d8536e7358fdeff8b092fd59e9f71c5078f32291a2506001805460ff19169055565b6000610a63611ac7565b610a8d8282611ad2565b6000546001600160a01b03163314610d265760405162461bcd60e51b8152602060048201526009602482015268155395149554d5115160ba1b6044820152606401610afb565b6001805460ff191681178155610d3e90828585611b9e565b50506001805460ff1916905550565b610b78838383611d0c565b6000610d648383611e70565b9392505050565b610a8d8282611ed4565b610a5681611f95565b6000610a47610d8c8361107a565b611fb5565b6000610a4782611fc0565b610a8d610da88361107a565b82612054565b6000610a636114b5565b6000546001600160a01b03163314610dfe5760405162461bcd60e51b8152602060048201526009602482015268155395149554d5115160ba1b6044820152606401610afb565b6001805460ff191681178155610e159082846120c0565b50506001805460ff19169055565b610a56816121f3565b610a8d8282612473565b6060610a478261255f565b610a5681612658565b6060610a6361275e565b6060610ebc6040518061016001604052806000815260200160008152602001606081526020016060815260200160006001600160a01b031681526020016000815260200160008152602001606081526020016060815260200160608152602001606081525090565b610ecd610ec88461107a565b61276e565b9094909350915050565b6001600160a01b0380831660009081526204206c6020908152604080832093851683529290529081205460ff16610d64565b610a56816128a8565b610b78828285612b8a565b610b78838383612caa565b6000606080606080610f3986612da6565b939a9299509097509550909350915050565b640100042069805463ffffffff19164363ffffffff16179055565b33610f70826117d7565b6001600160a01b031614610fb15760405162461bcd60e51b815260206004820152600860248201526704c4f414e3a4c3a360c41b6044820152606401610afb565b610fba81612dc2565b6000610fc4611065565b90506000610fd0611ac7565b90506000610fe18233856000612f1f565b506001600160a01b03851660009081526204207460205260409020819055905061101433846001600160601b0316612f71565b604080516001600160a01b03861681526001600160601b03851660208201527fdf65fae456ee5bcd916efcb9b5ad07667d7fc396aff61536c465f280393fbd3e91015b60405180910390a150505050565b6000610a636110756204206e5490565b612fcc565b60006001600160a01b0382111561109057600080fd5b5090565b6001600160a01b0380821660009081526204206960205260408120549091166110e55760405162461bcd60e51b8152602060048201526003602482015262543a3960e81b6044820152606401610afb565b620420695b6001600160a01b0392831660009081526002919091016020526040902054909116919050565b600061111b826117d7565b9050806001600160a01b0316836001600160a01b031614156111655760405162461bcd60e51b8152602060048201526003602482015262543a3360e81b6044820152606401610afb565b336001600160a01b03821614806111a157506001600160a01b03811660009081526204206c6020908152604080832033845290915290205460ff165b6111d35760405162461bcd60e51b8152602060048201526003602482015262543a3160e81b6044820152606401610afb565b6001600160a01b0382811660008181526204206b602052604080822080546001600160a01b031916888616908117909155905192939092908516917f8c5be1e5ebec7d5bd14f71427d1e84f3dd0314c0f7b2291e5b200ac8c7c3b92591a4505050565b600080611243833361301c565b91509150826001600160a01b0316816040015163ffffffff1614801561126857508051155b156112db57611277828261306a565b7fb05be3e18f19a4aac09f77432c65062f81615fefa61e76300a99fb2d08c0191383336112a3346130f5565b604080516001600160a01b0394851681529390921660208401526001600160601b0316908201526060015b60405180910390a1505050565b602081015160ff1c6001141561131e5760405162461bcd60e51b81526020600482015260086024820152670534c3a48534f3a360c41b6044820152606401610afb565b80516113555760405162461bcd60e51b815260206004820152600660248201526504e533a303a360d41b6044820152606401610afb565b602081015115801561136b5750805160ff1c6001145b156113ef57611378611065565b6001600160601b03163410156113b95760405162461bcd60e51b81526020600482015260066024820152650534c3a533a360d41b6044820152606401610afb565b6113c3828261310b565b7f8e9681d7ef6204b5eb1f7e898910b723018e455d09ba77c2c9e43346968c887f83336112a3346130f5565b6113f982826131c9565b7f695e0d4736a959eec71a66de118059220f6144b53eb2ed3e6ca8508ce8cd1f0a83336112a3346130f5565b600080600080600061143886600061301c565b8051909250151590506114775760405162461bcd60e51b815260206004820152600760248201526604e533a47533a360cc1b6044820152606401610afb565b8051611482906132c4565b945061149181600001516132d8565b93506114a081600001516132fa565b815190935060ff1c6001149150509193509193565b6000610a636114c56204206e5490565b60c01c90565b815460ff166115025760405162461bcd60e51b8152602060048201526003602482015262543a3160e81b6044820152606401610afb565b806204206d80546001600160a01b0319166001600160a01b0392831617905560405190821681527fc97e86a927b4a897832650767255fd568e377e7fbe9586c81d26b77a2c3ffc8b906020015b60405180910390a15050565b33611565826117d7565b6001600160a01b0316146115a65760405162461bcd60e51b81526020600482015260086024820152674155433a54543a3360c01b6044820152606401610afb565b6000806115b4858585613314565b6020810151919350915060ff1c600114156115fc5760405162461bcd60e51b81526020600482015260086024820152670534c3a48534f3a360c41b6044820152606401610afb565b60208101511580156116125750805160ff1c6001145b1561169357611621828261310b565b7fdcd75b8c1f9c84e8b7d26df979d7ddbc4139b72f6c8e0e7123bb63d63ba1c32585858561164e346130f5565b604080516001600160a01b03958616815261ffff94909416602085015291909316908201526001600160601b03909116606082015260800160405180910390a161170c565b61169d82826131c9565b7f3bbfe02e9ee64811b7404130d1c8a263edbb6ab73af1dc502dd56d43a3ddd1a38585856116ca346130f5565b604080516001600160a01b03958616815261ffff94909416602085015291909316908201526001600160601b0390911660608201526080015b60405180910390a15b5050505050565b6000610a636117236204206e5490565b60601c90565b805460ff166117605760405162461bcd60e51b81526020600482015260036024820152620543a360ec1b6044820152606401610afb565b600061176d6204206e5490565b905080611783336001600160601b038316612f71565b61179e6bffffffffffffffffffffffff1983165b6204206e55565b6040516001600160601b03821681527f8e4dbe2f73d3458c68bca94210eabefac52a4d20c038a8e50197ac9db654291b906020016112ce565b6001600160a01b03818116600090815262042069602052604090205416806118275760405162461bcd60e51b8152602060048201526003602482015262543a4160e81b6044820152606401610afb565b919050565b6000610a6361183c6204206e5490565b90565b600061184b823361301c565b6001600160a01b03841660009081526204207560209081526040808320338452600101909152812055915061187d9050565b61188681613372565b156118e5576118ab826001600160a01b03166000908152620420756020526040812055565b80516118b6906132fa565b63ffffffff16826001600160a01b031614156118db576118d63383613439565b611904565b6118d6338361350b565b611904336118f683602001516132d8565b6001600160601b0316612f71565b7f10c1106c1b3c266f6cf55047c56a839a002c11736bbf9c4acdec566e80677e9b823361193484600001516132fa565b604080516001600160a01b03948516815293909216602084015263ffffffff169082015260600161154f565b60006001600160a01b03821661199e5760405162461bcd60e51b81526020600482015260036024820152622a1d2160e91b6044820152606401610afb565b506001600160a01b031660009081526204206a602052604090205490565b6119ca6101f46109c4615952565b63ffffffff16816001600160a01b03161080156119f157506101f46001600160a01b038216115b611a235760405162461bcd60e51b8152602060048201526003602482015262543a3160e81b6044820152606401610afb565b6001600160a01b0380821660009081526204206960205260409020541615611a735760405162461bcd60e51b81526020600482015260036024820152622a1d1960e91b6044820152606401610afb565b611a7c81613604565b611a863382613439565b6040516001600160a01b038216815233907f6717cdc2f702204391319559ab130cf2bdd1a3f69aa0c4078efc85c629dc86af9060200160405180910390a250565b6000610a6343613740565b33611adc836117d7565b6001600160a01b031614611b1b5760405162461bcd60e51b8152600401610afb9060208082526004908201526328219d1960e11b604082015260600190565b6000611b2683613781565b9050611b3281836137d6565b9050611b3e81836138aa565b6001600160a01b03841660008181526204207260209081526040918290208490558151928352820183905260ff8516908201529091507fe0b01689336e903dba5ec8bc01d79a4ec6aa4f944cd16d45d32700fb594b74ae906060016112ce565b835460ff16611bd55760405162461bcd60e51b81526020600482015260036024820152620543a360ec1b6044820152606401610afb565b6000611be082613939565b905060008160ff1611611c1e5760405162461bcd60e51b8152600401610afb90602080825260049082015263056433a360e41b604082015260600190565b60405160ff60a01b60a083901b1690600090611c5890611c4490879087906020016159c9565b604051602081830303815290604052613949565b60ff8716600090815262042070602090815260408220805460018101825590835290822001805474ffffffffffffffffffffffffffffffffffffffffff19166001600160a01b0384166001600160a81b038716171790556204206f54919250611cc0826139fd565b905084818960ff1681518110611cd857611cd8615a67565b60200260200101818151611cec9190615a7d565b60ff16905250611cfc8282613a0a565b6204206f55505050505050505050565b33611d16826117d7565b6001600160a01b031614611d575760405162461bcd60e51b81526020600482015260086024820152674155433a54543a3360c01b6044820152606401610afb565b6000611d64848484613314565b6001600160a01b038087166000908152620420756020908152604080832061ffff8a1684526002018252808320938816835260019093019052908120559150611daa9050565b611db381613372565b15611df4576001600160a01b0384166000908152620420756020908152604080832061ffff87168452600201909152812055611def8284613a18565b611e05565b611e05336118f683602001516132d8565b7f95e8db1d2cc4bd26402c98c45fdb7ff875bb955206591a210b51aa82b4ba5acb848484611e3685600001516132fa565b604080516001600160a01b03958616815261ffff949094166020850152919093169082015263ffffffff9091166060820152608001611057565b600080611e7d848461301c565b915050806020015160001415611ebf5760405162461bcd60e51b815260206004820152600760248201526604e533a47533a360cc1b6044820152606401610afb565b611ecc81602001516132d8565b949350505050565b336001600160a01b03831614801590611ef557506001600160a01b03821630145b611f275760405162461bcd60e51b81526020600482015260036024820152620543a360ec1b6044820152606401610afb565b3360008181526204206c602090815260408083206001600160a01b03871680855290835292819020805460ff191686151590811790915590519081529192917f17307eab39ab6107e8899845ad3d59bd9653f200f220920489ca2b5937696c31910160405180910390a35050565b6000611fa082613b4b565b9050610a8d33826001600160601b0316612f71565b60006204206f6110ea565b600080600080611fce613d08565b50925092509250846001600160a01b031682148015611fec57508215155b15611ff957949350505050565b6001600160a01b038516600090815262042072602052604090205493508361204c5760405162461bcd60e51b8152600401610afb90602080825260049082015263504f3a3160e01b604082015260600190565b505050919050565b61205e3383613d38565b6120905760405162461bcd60e51b81526020600482015260036024820152620543a360ec1b6044820152606401610afb565b6001600160a01b039182166000908152620420716020526040902080546001600160a01b03191691909216179055565b825460ff166120f75760405162461bcd60e51b81526020600482015260036024820152620543a360ec1b6044820152606401610afb565b6101f46001600160a01b03821610801561211957506001600160a01b03811615155b61214b5760405162461bcd60e51b8152602060048201526003602482015262543a3160e81b6044820152606401610afb565b6001600160a01b038082166000908152620420696020526040902054161561219b5760405162461bcd60e51b81526020600482015260036024820152622a1d1960e91b6044820152606401610afb565b6121a481613604565b6121ae8282613439565b6040516001600160a01b0382811682528316907ff720aad51e634650c6c404c3527f059ca40ad43d391f5ac5758f49bae2ff62609060200160405180910390a2505050565b6121fc816117d7565b6001600160a01b0316306001600160a01b0316146122475760405162461bcd60e51b815260206004820152600860248201526704c4f414e3a503a360c41b6044820152606401610afb565b6001600160a01b03811660009081526204207460205260409020548015801590612281575033612276826132c4565b6001600160a01b0316145b6122b85760405162461bcd60e51b81526020600482015260086024820152672627a0a71d281d1960c11b6044820152606401610afb565b60006122c3826132d8565b905060006127106122d5606484615aa2565b6122df9190615ae7565b905034816001600160601b031611156123265760405162461bcd60e51b815260206004820152600960248201526804c4f414e3a52453a360bc1b6044820152606401610afb565b6000612330611065565b905061233b82613db5565b6000612345611065565b905060008061236c6103e8612359896132fa565b6123639190615952565b33856000612f1f565b6001600160a01b038a1660009081526204207460205260408120839055919350915085612398346130f5565b6123a29190615b0d565b905060006123b08789615b35565b90506000866001600160601b0316826001600160601b031610156123dd576123d88288615b0d565b6123e0565b60005b90506000846123ef8584615b35565b6123f99190615b35565b905061240e33826001600160601b0316612f71565b604080516001600160a01b038e1681526001600160601b03808c1660208301528416918101919091527f55ab9f648a42ab2ae7eed81f0683a7bae5d54989d8125f397a88f72bec826917906060015b60405180910390a1505050505050505050505050565b61247b611065565b6001600160601b0316816001600160601b031610156124c55760405162461bcd60e51b81526020600482015260066024820152650534c3a533a360d41b6044820152606401610afb565b6124ce82612dc2565b6000806124db843361301c565b80519193509150156124ef576124ef615b57565b6000612507600033612500346130f5565b6001612f1f565b50808455604080516001600160a01b03881681523360208201526001600160601b038716918101919091529091507f3d175b4f67d380f8c4185f649f2cfeda5da34c1156302187ac843b620f9c9cd390606001611703565b6060600061256c8361107a565b6001600160a01b03808216600090815262042071602052604081205492935091166125a2576002546001600160a01b03166125ab565b6125ab82611fb5565b6002546040516303235b5f60e31b8152306004820152602481018790526001600160a01b03838116604483015260ff600160a01b840481166064840152600160a81b840416608483015292935091169063191adaf89060a40160006040518083038186803b15801561261c57600080fd5b505afa158015612630573d6000803e3d6000fd5b505050506040513d6000823e601f3d908101601f19168201604052611ecc9190810190615b6d565b6204206d546001600160a01b03168061267057600080fd5b600061267b83613781565b9050600061268884613b4b565b6040516380011aa760e01b81526001600160a01b03868116600483015260248201859052336044830152919250908416906380011aa7906001600160601b038416906064016000604051808303818588803b1580156126e657600080fd5b505af11580156126fa573d6000803e3d6000fd5b5050604080516001600160a01b038089168252891660208201529081018690523360608201526001600160601b03851660808201527f58ca548c1fd63f641dfb02f79df36d4f29bd995f0733d2ed3595b6cfde7db4e1935060a00191506110579050565b6060610a636204206f5b546139fd565b60606127d66040518061016001604052806000815260200160008152602001606081526020016060815260200160006001600160a01b031681526020016000815260200160008152602001606081526020016060815260200160608152602001606081525090565b60008060008060006127e788612da6565b945094509450945094506127fa84613ea2565b965060405180610160016040528060018152602001428152602001604051806040016040528060098152602001684e756767465420563160b81b8152508152602001604051806060016040528060228152602001615f816022913981526020016128638a6117d7565b6001600160a01b03168152602001896001600160a01b031681526020018681526020018581526020018481526020018381526020018281525095505050505050915091565b6128b1816117d7565b6001600160a01b0316306001600160a01b0316146128fc5760405162461bcd60e51b815260206004820152600860248201526704c4f414e3a503a360c41b6044820152606401610afb565b6001600160a01b0381166000908152620420746020526040812080549190556000612925611ac7565b90508063ffffffff166103e861293a846132fa565b6129449190615952565b63ffffffff161061299a5733612959836132c4565b6001600160a01b03161461299a5760405162461bcd60e51b81526020600482015260086024820152674c4f414e3a503a3160c01b6044820152606401610afb565b816129d25760405162461bcd60e51b81526020600482015260086024820152672627a0a71d281d1960c11b6044820152606401610afb565b60006129dd836132d8565b905060006127106129ef606484615aa2565b6129f99190615ae7565b90506000612a078383615b35565b905034816001600160601b03161115612a4e5760405162461bcd60e51b815260206004820152600960248201526804c4f414e3a52453a360bc1b6044820152606401610afb565b6000612a59346130f5565b90506000612a678483615b0d565b90506000612a758587615b35565b90506000612a81611065565b90506000816001600160601b0316836001600160601b03161015612aae57612aa98383615b0d565b612ab1565b60005b90506000612abf8583615b35565b9050612aca88613db5565b612add33826001600160601b0316612f71565b612ae7338d61350b565b604080516001600160a01b038e1681526001600160601b038a8116602083015284168183015290517f55ab9f648a42ab2ae7eed81f0683a7bae5d54989d8125f397a88f72bec8269179181900360600190a1604080516001600160a01b038e1681523360208201526001600160601b038916918101919091527f563fb66b43e6ac55166c353532257057a2fe86a1566c988840baecf6bca1025a9060600161245d565b33612b94826117d7565b6001600160a01b031614612bd55760405162461bcd60e51b81526020600482015260086024820152674155433a54543a3360c01b6044820152606401610afb565b612bdf8184613fc0565b600080612bed838685613314565b8051919350915015612c2b5760405162461bcd60e51b8152602060048201526007602482015266053433a53493a360cc1b6044820152606401610afb565b6000612c3b600085876001612f1f565b5080845590507f77cfc3b2aafc5344a53b50b3c7938afac3d04e0f564e929aa8d1f398e67f1ccc8487612c6d846132d8565b604080516001600160a01b03909416845261ffff90921660208401526001600160601b0316908201526060015b60405180910390a1505050505050565b33612cb4846117d7565b6001600160a01b031614612cf35760405162461bcd60e51b8152600401610afb9060208082526004908201526328219d1960e11b604082015260600190565b81516008148015612d05575080516008145b612d3a5760405162461bcd60e51b8152600401610afb9060208082526004908201526350433a3360e01b604082015260600190565b6000612d4584613781565b9050612d528184846140b2565b6001600160a01b0385166000908152620420726020526040902081905590507f73904d03f919661d854e7b284dd6f818c038e7cce6237422aca32cc599a08267848285856040516110579493929190615bdb565b6000606080606080612db786611fc0565b9450610f39856140ce565b612dcb816117d7565b6001600160a01b0316336001600160a01b0316148015612dfb575030612df082611094565b6001600160a01b0316145b612e2d5760405162461bcd60e51b8152602060048201526003602482015262150e8d60ea1b6044820152606401610afb565b3360009081526204206a60205260408120805460019290612e4f908490615c20565b90915550503060009081526204206a60205260408120805460019290612e76908490615c37565b90915550506001600160a01b038116600081815262042069602090815260408083208054306001600160a01b031991821681179092556204206b9093528184208054909316909255517f8c5be1e5ebec7d5bd14f71427d1e84f3dd0314c0f7b2291e5b200ac8c7c3b925908390a46040516001600160a01b03821690309033907fddf252ad1be2c89b69c2b068fc378daa952ba7f163c4a11628f55a4df523b3ef90600090a450565b600080612f2c8287614111565b9150612f388286614132565b91508215612f4e57612f4b82600161414f565b91505b612f588285614186565b9092509050612f66826141e0565b915094509492505050565b600080600080600085875af1905080610b785760405162461bcd60e51b815260206004820152601360248201527f4554485f5452414e534645525f4641494c4544000000000000000000000000006044820152606401610afb565b6000612fd88260c01c90565b67ffffffffffffffff161561301457612ff18260c01c90565b67ffffffffffffffff166130058360601c90565b61300f9190615ae7565b610a47565b600092915050565b6040805160808101825260008082526020808301829052828401829052606083018290526001600160a01b038616825262042075905291822091506130618284614210565b90509250929050565b805115801561307b57506020810151155b6130b05760405162461bcd60e51b81526020600482015260066024820152651394ce934e9160d21b6044820152606401610afb565b60006130cb8260400151336130c4346130f5565b6000612f1f565b5080845590506130e26130dd346130f5565b6142b0565b610b78826040015163ffffffff16613604565b60006001600160601b0382111561109057600080fd5b602081015115801561311d5750805115155b61312957613129615b57565b805160ff1c60011461313d5761313d615b57565b600080600061316e84600001518560400151600161315b9190615952565b8660600151613169346130f5565b6143d9565b82885586519295506001600160601b039182169450169150600186016000613195836132c4565b6001600160a01b0316815260208101919091526040016000205561170c6131c46131bf8385615c37565b6130f5565b613db5565b80516131d4906132fa565b63ffffffff16816040015163ffffffff16111561321e5760405162461bcd60e51b8152602060048201526008602482015267534c3a4f42503a3360c01b6044820152606401610afb565b80606001516001600160a01b031661323982600001516132c4565b6001600160a01b031614613273578051600183016000613258836132c4565b6001600160a01b031681526020810191909152604001600020555b60008060006132aa8460000151856060015161328e346130f5565b61329b88602001516132d8565b6132a59190615b35565b614439565b8288559194509250905061170c6131c46131bf8385615c37565b6000610a476001600160a01b03831661107a565b6000610a476131bf60a084901c66ffffffffffffff166509184e72a000615c4f565b6000610a4763ffffffff60d884901c1661446c565b61446c565b6040805160808101825260008082526020808301829052828401829052606083018290526001600160a01b038716825262042075815283822061ffff87168352600201905291822091506133688284614210565b9050935093915050565b60008160200151600014156133b35760405162461bcd60e51b8152602060048201526007602482015266534c3a43433a3160c81b6044820152606401610afb565b60006133c283600001516132fa565b63ffffffff16836040015163ffffffff1611905060006133e584600001516132c4565b6001600160a01b03166133fb85602001516132c4565b6001600160a01b0316149050600061341d8560000151600160ff9190911c1490565b9050808061343057508180156134305750825b95945050505050565b61344c82826001600160a01b031661447f565b61347e5760405162461bcd60e51b8152602060048201526003602482015262543a3560e81b6044820152606401610afb565b6001600160a01b03821660009081526204206a602052604081208054600192906134a9908490615c37565b90915550506001600160a01b03818116600081815262042069602052604080822080546001600160a01b0319169487169485179055519192917fddf252ad1be2c89b69c2b068fc378daa952ba7f163c4a11628f55a4df523b3ef908290a45050565b61351e82826001600160a01b031661447f565b6135505760405162461bcd60e51b81526020600482015260036024820152622a1d1960e91b6044820152606401610afb565b3060009081526204206a60205260408120805460019290613572908490615c20565b90915550506001600160a01b03821660009081526204206a602052604081208054600192906135a2908490615c37565b90915550506001600160a01b03818116600081815262042069602052604080822080546001600160a01b03191694871694851790555191929130917fddf252ad1be2c89b69c2b068fc378daa952ba7f163c4a11628f55a4df523b3ef91a45050565b6001600160a01b0381166000908152620420726020526040902054156136525760405162461bcd60e51b81526020600482015260036024820152620503a360ec1b6044820152606401610afb565b600081613660600143615c20565b6040516204206960ec1b602082015260609290921b6bffffffffffffffffffffffff1916602383015240603782015260570160408051601f1981840301815291905280516020909101209050806136df5760405162461bcd60e51b8152602060048201526003602482015262503a3160e81b6044820152606401610afb565b6000806136eb836145ef565b6001600160a01b0386166000908152620420726020526040902082905590925090507f3c2693eb3bc9fd62db9b727df67972a7372cca5a21f9b4a5c05d48363273c24784838360405161105793929190615c6e565b6000610a47610bb860ff61375d6401000420695463ffffffff1690565b61376d9063ffffffff1686615c20565b6137779190615c96565b61330f9190615c37565b6001600160a01b0381166000908152620420726020526040902054806118275760405162461bcd60e51b815260206004820152600a602482015269050524f4f463a504f3a360b41b6044820152606401610afb565b6000806137e48460006149e7565b905060006137f38560406149e7565b90506000818560ff168151811061380c5761380c615a67565b60200260200101519050828560ff168151811061382b5761382b615a67565b6020026020010151828660ff168151811061384857613848615a67565b602002602001019060ff16908160ff168152505080838660ff168151811061387257613872615a67565b602002602001019060ff16908160ff168152505061389286600085614a67565b93506138a084604084614a67565b9695505050505050565b6000806138b88460806149e7565b905060006138c78560c06149e7565b90506000818560ff16815181106138e0576138e0615a67565b602002602001019060ff16908160ff16815250506000828560ff168151811061390b5761390b615a67565b602002602001019060ff16908160ff168152505061392b85608084614a67565b92506134308360c083614a67565b600060ff82111561109057600080fd5b6000808260405160200161395d9190615caa565b60405160208183030381529060405290506000815182604051602001613984929190615cd0565b60405160208183030381529060405290508051602082016000f092506001600160a01b0383166139f65760405162461bcd60e51b815260206004820152601160248201527f4445504c4f594d454e545f4641494c45440000000000000000000000000000006044820152606401610afb565b5050919050565b6060610a478260006149e7565b6000610d6483600084614a67565b33613a22836117d7565b6001600160a01b031614613a615760405162461bcd60e51b8152600401610afb90602080825260049082015263050433a360e41b604082015260600190565b6000613a6c83613781565b61ffff83166000908152620420736020526040902054909150613aba5760405162461bcd60e51b8152600401610afb9060208082526004908201526352433a3360e01b604082015260600190565b61ffff821660009081526204207360205260408120805491613adb83615d21565b9190505550613aea8183614ae3565b6001600160a01b03841660008181526204207260209081526040918290208490558151928352820183905261ffff8516908201529091507f1e3ac88633ac111203e2a7614365c5e3df507302c9fb545dd85d8fcef753afce906060016112ce565b600033613b57836117d7565b6001600160a01b031614613b965760405162461bcd60e51b8152600401610afb9060208082526004908201526353433a3960e01b604082015260600190565b6000613ba36204206e5490565b9050613bae83614b8f565b600080613bba83614d18565b5091509150613bc883612fcc565b935060018267ffffffffffffffff161015613c0d5760405162461bcd60e51b8152602060048201526005602482015264053433a31360dc1b6044820152606401610afb565b836001600160601b0316816001600160601b03161015613c575760405162461bcd60e51b815260206004820152600560248201526453433a313160d81b6044820152606401610afb565b613cc0611797613c678684615b0d565b613c93613c75600187615d38565b6001600160c01b03881660c09190911b6001600160c01b0319161790565b6bffffffffffffffffffffffff60601b191660609190911b6bffffffffffffffffffffffff60601b161790565b604080516001600160601b03861681523360208201527e96b8566d099a5618a665405b3df20d5a7f2293fce2fc9405d36a2ee3deab3f910160405180910390a1505050919050565b60008060006060613d17614d3d565b90945063ffffffff169250613d2b846145ef565b9495939490939092509050565b600080613d44836117d7565b9050806001600160a01b0316846001600160a01b03161480613d7f5750836001600160a01b0316613d7484611094565b6001600160a01b0316145b80611ecc57506001600160a01b0380821660009081526204206c602090815260408083209388168352929052205460ff16611ecc565b6000613dc26204206e5490565b90506000612710613dd56103e885615aa2565b613ddf9190615ae7565b9050613deb8184615b0d565b9250613e62611797613dfd8385615b35565b613e4386613e0b8760601c90565b613e159190615b35565b6bffffffffffffffffffffffff60601b19871660609190911b6bffffffffffffffffffffffff60601b161790565b6bffffffffffffffffffffffff19166001600160601b03919091161790565b604080516001600160601b038086168252831660208201527fcc7b20c8500e3dfc952e445cc296459e4e7148bead08f530844981e1c1236e4e91016112ce565b6060815167ffffffffffffffff811115613ebe57613ebe61544e565b604051908082528060200260200182016040528015613ef157816020015b6060815260200190600190039081613edc5790505b50905060005b82518160ff161015613fba57828160ff1681518110613f1857613f18615a67565b602002602001015160ff1660001415613f61576040805160008152602081019091528251839060ff8416908110613f5157613f51615a67565b6020026020010181905250613fa8565b613f8781848360ff1681518110613f7a57613f7a615a67565b6020026020010151614df4565b828260ff1681518110613f9c57613f9c615a67565b60200260200101819052505b80613fb281615d59565b915050613ef7565b50919050565b33613fca836117d7565b6001600160a01b0316146140095760405162461bcd60e51b8152600401610afb9060208082526004908201526350433a3160e01b604082015260600190565b600061401483613781565b90506140208183615040565b6001600160a01b03841660009081526204207260205260409020819055905061ffff82166000908152620420736020526040812080549161406083615d79565b9091555050604080516001600160a01b03851681526020810183905261ffff8416918101919091527f399c4ec95d9ea42a0f3dda50055e3a2901f9640121b0b29865e688c08188596b906060016112ce565b60006140c084608085614a67565b9050611ecc8160c084614a67565b8060608080806140df8560006149e7565b93506140ec8560406149e7565b92506140f98560806149e7565b91506141068560c06149e7565b905091939590929450565b600063ffffffff60d81b19831663ffffffff60d81b60d884901b1617610d64565b60006001600160a01b031983166001600160a01b03831617610d64565b6000610d6483600160ff85614165576000614168565b60015b60ff16811b600190921b6000190160ff919091161b19919091161790565b6000806141996509184e72a00084615d94565b90506141d784603860a06141b36509184e72a00088615ae7565b6001600160601b0316811b600190921b6000190160ff919091161b19919091161790565b91509250929050565b60007fbfffffffffffffffffffffffffffffffffffffffffffffffffffffffffffffff8216600160fe1b17610a47565b604080516080810182526000602082018190529181018290526060810191909152825480825261423e611ac7565b63ffffffff1660408301526001600160a01b0383166060830152614261816132c4565b6001600160a01b0316836001600160a01b0316141561428657602082018190526142a9565b6001600160a01b0383166000908152600185016020908152604090912054908301525b5092915050565b60006142bd6204206e5490565b905060008060006142cd84614d18565b9194509250905060006127106142e56103e888615aa2565b6142ef9190615ae7565b90506142fb8187615b0d565b955061430685612fcc565b6001600160601b0316866001600160601b031610156143505760405162461bcd60e51b81526020600482015260066024820152650534c3a4d3a360d41b6044820152606401610afb565b6143996117976143608385615b35565b613e4361436d8a88615b35565b613c9361437b8a6001615dba565b6001600160c01b038c1660c09190911b6001600160c01b0319161790565b604080516001600160601b038089168252831660208201527fcc7b20c8500e3dfc952e445cc296459e4e7148bead08f530844981e1c1236e4e9101612c9a565b6000806000806143e8886132d8565b9050846001600160601b0316614406826001600160601b03166150cd565b1061441057600080fd5b61441d8787876000612f1f565b909450915061442c8186615b0d565b9250509450945094915050565b60008060006144528661444b886132fa565b87876143d9565b91986001600160601b039182169850911695509350505050565b600063ffffffff82111561109057600080fd5b60006001600160a01b0383163b156145e757604051630a85bd0160e11b81523360048201523060248201526044810183905260806064820152600060848201526001600160a01b0384169063150b7a029060a401602060405180830381600087803b1580156144ed57600080fd5b505af192505050801561451d575060408051601f3d908101601f1916820190925261451a91810190615ddd565b60015b6145cd573d80801561454b576040519150601f19603f3d011682016040523d82523d6000602084013e614550565b606091505b5080516145c55760405162461bcd60e51b815260206004820152603260248201527f4552433732313a207472616e7366657220746f206e6f6e20455243373231526560448201527f63656976657220696d706c656d656e74657200000000000000000000000000006064820152608401610afb565b805181602001fd5b6001600160e01b031916630a85bd0160e11b149050610a47565b506001610a47565b60006060826146265760405162461bcd60e51b8152602060048201526003602482015262281d1b60e91b6044820152606401610afb565b600061463061275e565b6040805160088082526101208201909252919250602082016101008036833701905050915060006146628560006149e7565b90508160008151811061467757614677615a67565b60200260200101518160008151811061469257614692615a67565b60200260200101516146a49190615dfa565b6146af906001615a7d565b836000815181106146c2576146c2615a67565b602002602001019060ff16908160ff1681525050816001815181106146e9576146e9615a67565b60200260200101518160018151811061470457614704615a67565b60200260200101516147169190615dfa565b614721906001615a7d565b8360018151811061473457614734615a67565b602002602001019060ff16908160ff16815250508160028151811061475b5761475b615a67565b60200260200101518160028151811061477657614776615a67565b60200260200101516147889190615dfa565b614793906001615a7d565b836002815181106147a6576147a6615a67565b602002602001019060ff16908160ff16815250506060816003815181106147cf576147cf615a67565b602002602001015160ff16101561485757816003815181106147f3576147f3615a67565b60200260200101518160048151811061480e5761480e615a67565b60200260200101516148209190615dfa565b61482b906001615a7d565b8360038151811061483e5761483e615a67565b602002602001019060ff16908160ff16815250506149d2565b60c08160038151811061486c5761486c615a67565b602002602001015160ff1610156148db578160048151811061489057614890615a67565b6020026020010151816004815181106148ab576148ab615a67565b60200260200101516148bd9190615dfa565b6148c8906001615a7d565b8360048151811061483e5761483e615a67565b60fa816003815181106148f0576148f0615a67565b602002602001015160ff16101561495f578160058151811061491457614914615a67565b60200260200101518160048151811061492f5761492f615a67565b60200260200101516149419190615dfa565b61494c906001615a7d565b8360058151811061483e5761483e615a67565b8160068151811061497257614972615a67565b60200260200101518160048151811061498d5761498d615a67565b602002602001015161499f9190615dfa565b6149aa906001615a7d565b836006815181106149bd576149bd615a67565b602002602001019060ff16908160ff16815250505b6149de84600085614a67565b93505050915091565b604080516008808252610120820190925292821c67ffffffffffffffff1692606091602082016101008036833701905050905060005b60088110156142a9578360ff16828281518110614a3c57614a3c615a67565b60ff9092166020928302919091019091015260089390931c9280614a5f81615d79565b915050614a1d565b600060085b8015614ac857614a7d600182615c20565b614a88906008615c4f565b83614a94600184615c20565b81518110614aa457614aa4615a67565b602002602001015160ff16901b821791508080614ac090615d21565b915050614a6c565b5067ffffffffffffffff60ff84161b19841681841b17611ecc565b600080614af18460406149e7565b805190915060ff600885901c81169190851690839083908110614b1657614b16615a67565b602002602001015160ff16600014614b595760405162461bcd60e51b8152600401610afb90602080825260049082015263050503a360e41b604082015260600190565b80838360ff1681518110614b6f57614b6f615a67565b602002602001019060ff16908160ff16815250506138a086604085614a67565b30614b9982611094565b6001600160a01b031614614bd55760405162461bcd60e51b81526020600482015260036024820152622a1d1b60e91b6044820152606401610afb565b33614bdf826117d7565b6001600160a01b031614614c1b5760405162461bcd60e51b8152602060048201526003602482015262543a3760e81b6044820152606401610afb565b6001600160a01b0381166000818152620420696020908152604080832080546001600160a01b03199081169091556204206b83528184208054821690556204207583528184208490556204207483528184208490556204207283528184208490556204207190925280832080549092169091555133907f8c5be1e5ebec7d5bd14f71427d1e84f3dd0314c0f7b2291e5b200ac8c7c3b925908390a43360009081526204206a60205260408120805460019290614cd8908490615c20565b90915550506040516001600160a01b0382169060009033907fddf252ad1be2c89b69c2b068fc378daa952ba7f163c4a11628f55a4df523b3ef908390a450565b6000806000614d278460c01c90565b9250614d338460601c90565b9294929392915050565b600080614d48611ac7565b90506000614d55826150e8565b90506000614d64600183615c20565b40905080614d9e5760405162461bcd60e51b8152602060048201526007602482015266115410ce94d09360ca1b6044820152606401610afb565b6040805160208082019390935260e085901b6001600160e01b031916818301523060601b6bffffffffffffffffffffffff1916604482015281516038818303018152605890910190915280519101209391925050565b606060ff8216614e2f5760405162461bcd60e51b8152600401610afb906020808252600490820152632b219d1960e11b604082015260600190565b81614e3981615e1c565b9250506000614e4b6127686204206f90565b8460ff1681518110614e5f57614e5f615a67565b602002602001015190508060ff168360ff1610614ea75760405162461bcd60e51b8152600401610afb9060208082526004908201526356433a3160e01b604082015260600190565b60ff84166000908152620420706020908152604080832080548251818502810185019093528083529192909190830182828015614f0d57602002820191906000526020600020905b81546001600160a81b03168152600190910190602001808311614eef575b50505050509050600080600080600090505b8451811015614fbb57600060a0868381518110614f3e57614f3e615a67565b60200260200101516001600160a81b0316901c90508860ff168184614f639190615a7d565b60ff161115614f9c57858281518110614f7e57614f7e615a67565b602002602001015194508289614f949190615e39565b935050614fbb565b614fa68184615a7d565b92505080614fb381615d79565b915050614f1f565b506001600160a01b038316614ffb5760405162461bcd60e51b8152600401610afb906020808252600490820152632b219d1960e11b604082015260600190565b6150048361512b565b8060200190518101906150179190615e5c565b8260ff168151811061502b5761502b615a67565b60200260200101519550505050505092915050565b60008061504e8460406149e7565b805190915060ff600885901c81169190851690819084908490811061507557615075615a67565b602002602001015160ff16146150b65760405162461bcd60e51b8152600401610afb9060208082526004908201526350503a3160e01b604082015260600190565b6000838360ff1681518110614b6f57614b6f615a67565b60006127106150de83612774615c4f565b610a479190615c96565b60006150fd6401000420695463ffffffff1690565b63ffffffff1660ff615111610bb885615f63565b63ffffffff166151219190615c4f565b610a479190615c37565b6060610a47826001615147816001600160a01b0384163b615c20565b60408051603f83850101601f19168101909152818152818360208301863c9392505050565b6001600160e01b031981168114610a5657600080fd5b60006020828403121561519457600080fd5b8135610d648161516c565b6001600160a01b0381168114610a5657600080fd5b6000602082840312156151c657600080fd5b8135610d648161519f565b60005b838110156151ec5781810151838201526020016151d4565b838111156151fb576000848401525b50505050565b600081518084526152198160208601602086016151d1565b601f01601f19169290920160200192915050565b602081526000610d646020830184615201565b60006020828403121561525257600080fd5b5035919050565b6000806040838503121561526c57600080fd5b82356152778161519f565b946020939093013593505050565b60008060006060848603121561529a57600080fd5b83356152a58161519f565b925060208401356152b58161519f565b929592945050506040919091013590565b803561ffff8116811461182757600080fd5b6000806000606084860312156152ed57600080fd5b83356152f88161519f565b9250615306602085016152c6565b915060408401356153168161519f565b809150509250925092565b803560ff8116811461182757600080fd5b6000806040838503121561534557600080fd5b82356153508161519f565b915061306160208401615321565b60008060006040848603121561537357600080fd5b833567ffffffffffffffff8082111561538b57600080fd5b818601915086601f83011261539f57600080fd5b8135818111156153ae57600080fd5b8760208260051b85010111156153c357600080fd5b6020928301955093506153d99186019050615321565b90509250925092565b600080604083850312156153f557600080fd5b82356154008161519f565b915060208301356154108161519f565b809150509250929050565b6000806040838503121561542e57600080fd5b82356154398161519f565b91506020830135801515811461541057600080fd5b634e487b7160e01b600052604160045260246000fd5b604051601f8201601f1916810167ffffffffffffffff8111828210171561548d5761548d61544e565b604052919050565b600067ffffffffffffffff8211156154af576154af61544e565b50601f01601f191660200190565b600080600080608085870312156154d357600080fd5b84356154de8161519f565b935060208501356154ee8161519f565b925060408501359150606085013567ffffffffffffffff81111561551157600080fd5b8501601f8101871361552257600080fd5b803561553561553082615495565b615464565b81815288602083850101111561554a57600080fd5b8160208401602083013760006020838301015280935050505092959194509250565b6000806040838503121561557f57600080fd5b8235915060208301356154108161519f565b80356001600160601b038116811461182757600080fd5b600080604083850312156155bb57600080fd5b82356155c68161519f565b915061306160208401615591565b600081518084526020808501945080840160005b8381101561560757815160ff16875295820195908201906001016155e8565b509495945050505050565b602081526000610d6460208301846155d4565b60006101608251845260208301516020850152604083015181604086015261564f82860182615201565b915050606083015184820360608601526156698282615201565b915050608083015161568660808601826001600160a01b03169052565b5060a083015160a085015260c083015160c085015260e083015184820360e08601526156b282826155d4565b91505061010080840151858303828701526156cd83826155d4565b9250505061012080840151858303828701526156e983826155d4565b9250505061014080840151858303828701526138a083826155d4565b6000604082016040835280855180835260608501915060608160051b860101925060208088016000805b8481101561578357888703605f19018652825180518089529085019085890190845b8181101561576d57835183529287019291870191600101615751565b509098505050948301949183019160010161572f565b505050858403818701525050506134308185615625565b6000806000606084860312156157af57600080fd5b83356157ba8161519f565b92506157c8602085016152c6565b91506153d960408501615591565b600067ffffffffffffffff8211156157f0576157f061544e565b5060051b60200190565b600082601f83011261580b57600080fd5b8135602061581b615530836157d6565b82815260059290921b8401810191818101908684111561583a57600080fd5b8286015b8481101561585c5761584f81615321565b835291830191830161583e565b509695505050505050565b60008060006060848603121561587c57600080fd5b83356158878161519f565b9250602084013567ffffffffffffffff808211156158a457600080fd5b6158b0878388016157fa565b935060408601359150808211156158c657600080fd5b506158d3868287016157fa565b9150509250925092565b85815260a0602082015260006158f660a08301876155d4565b828103604084015261590881876155d4565b9050828103606084015261591c81866155d4565b9050828103608084015261593081856155d4565b98975050505050505050565b634e487b7160e01b600052601160045260246000fd5b600063ffffffff8083168185168083038211156159715761597161593c565b01949350505050565b81835260007f07ffffffffffffffffffffffffffffffffffffffffffffffffffffffffffffff8311156159ac57600080fd5b8260051b8083602087013760009401602001938452509192915050565b6020808252818101839052600090600560408085019086831b86010187855b88811015615a5957878303603f190184528135368b9003601e19018112615a0e57600080fd5b8a01803567ffffffffffffffff811115615a2757600080fd5b80871b36038c1315615a3857600080fd5b615a4585828a850161597a565b9588019594505050908501906001016159e8565b509098975050505050505050565b634e487b7160e01b600052603260045260246000fd5b600060ff821660ff84168060ff03821115615a9a57615a9a61593c565b019392505050565b60006001600160601b0380831681851681830481118215151615615ac857615ac861593c565b02949350505050565b634e487b7160e01b600052601260045260246000fd5b60006001600160601b0380841680615b0157615b01615ad1565b92169190910492915050565b60006001600160601b0383811690831681811015615b2d57615b2d61593c565b039392505050565b60006001600160601b038083168185168083038211156159715761597161593c565b634e487b7160e01b600052600160045260246000fd5b600060208284031215615b7f57600080fd5b815167ffffffffffffffff811115615b9657600080fd5b8201601f81018413615ba757600080fd5b8051615bb561553082615495565b818152856020838501011115615bca57600080fd5b6134308260208301602086016151d1565b6001600160a01b0385168152836020820152608060408201526000615c0360808301856155d4565b8281036060840152615c1581856155d4565b979650505050505050565b600082821015615c3257615c3261593c565b500390565b60008219821115615c4a57615c4a61593c565b500190565b6000816000190483118215151615615c6957615c6961593c565b500290565b6001600160a01b038416815282602082015260606040820152600061343060608301846155d4565b600082615ca557615ca5615ad1565b500490565b6000815260008251615cc38160018501602087016151d1565b9190910160010192915050565b606360f81b815260e083901b6001600160e01b03191660018201526880600e6000396000f360b81b60058201528151600090615d1381600e8501602087016151d1565b91909101600e019392505050565b600081615d3057615d3061593c565b506000190190565b600067ffffffffffffffff83811690831681811015615b2d57615b2d61593c565b600060ff821660ff811415615d7057615d7061593c565b60010192915050565b6000600019821415615d8d57615d8d61593c565b5060010190565b60006001600160601b0380841680615dae57615dae615ad1565b92169190910692915050565b600067ffffffffffffffff8083168185168083038211156159715761597161593c565b600060208284031215615def57600080fd5b8151610d648161516c565b600060ff831680615e0d57615e0d615ad1565b8060ff84160691505092915050565b600060ff821680615e2f57615e2f61593c565b6000190192915050565b600060ff821660ff841680821015615e5357615e5361593c565b90039392505050565b60006020808385031215615e6f57600080fd5b825167ffffffffffffffff80821115615e8757600080fd5b818501915085601f830112615e9b57600080fd5b8151615ea9615530826157d6565b818152600591821b8401850191858201919089841115615ec857600080fd5b8686015b84811015615f5457805186811115615ee45760008081fd5b8701603f81018c13615ef65760008081fd5b888101516040615f08615530836157d6565b82815291851b83018101918b8101908f841115615f255760008081fd5b938201935b83851015615f435784518252938c0193908c0190615f2a565b885250505093880193508701615ecc565b50909998505050505050505050565b600063ffffffff83811690831681811015615b2d57615b2d61593c56fe4e7567672046756e6769626c6520546f6b656e205631206279206e7567672e78797aa2646970667358221220843bbff8fdb351bb41555b408cb573ba868a4b34c0ce50844466d2060bb2c76764736f6c63430008090033",
  "devdoc": {
    "kind": "dev",
    "methods": {
      "approve(address,uint256)": {
        "details": "Gives permission to `to` to transfer `tokenId` token to another account. The approval is cleared when the token is transferred. Only a single account can be approved at a time, so approving the zero address clears previous approvals. Requirements: - The caller must own the token or be an approved operator. - `tokenId` must exist. Emits an {Approval} event."
      },
      "balanceOf(address)": {
        "details": "Returns the number of tokens in ``owner``'s account."
      },
      "getApproved(uint256)": {
        "details": "Returns the account approved for `tokenId` token. Requirements: - `tokenId` must exist."
      },
      "isApprovedForAll(address,address)": {
        "details": "Returns if the `operator` is allowed to manage all of the assets of `owner`. See {setApprovalForAll}"
      },
      "name()": {
        "details": "Returns the token collection name."
      },
      "ownerOf(uint256)": {
        "details": "Returns the owner of the `tokenId` token. Requirements: - `tokenId` must exist."
      },
      "supportsInterface(bytes4)": {
        "details": "Returns true if this contract implements the interface defined by `interfaceId`. See the corresponding https://eips.ethereum.org/EIPS/eip-165#how-interfaces-are-identified[EIP section] to learn more about how these ids are created. This function call must use less than 30 000 gas."
      },
      "symbol()": {
        "details": "Returns the token collection symbol."
      }
    },
    "version": 1
  },
  "userdoc": {
    "kind": "user",
    "methods": {},
    "version": 1
  },
  "storageLayout": {
    "storage": [
      {
        "astId": 11217,
        "contract": "src/NuggFT.sol:NuggFT",
        "label": "_trusted",
        "offset": 0,
        "slot": "0",
        "type": "t_address"
      },
      {
        "astId": 11220,
        "contract": "src/NuggFT.sol:NuggFT",
        "label": "_trust",
        "offset": 0,
        "slot": "1",
        "type": "t_struct(Storage)11358_storage"
      },
      {
        "astId": 3897,
        "contract": "src/NuggFT.sol:NuggFT",
        "label": "dotnuggV1Processor",
        "offset": 0,
        "slot": "2",
        "type": "t_address"
      },
      {
        "astId": 3900,
        "contract": "src/NuggFT.sol:NuggFT",
        "label": "defaultWidth",
        "offset": 20,
        "slot": "2",
        "type": "t_uint8"
      },
      {
        "astId": 3903,
        "contract": "src/NuggFT.sol:NuggFT",
        "label": "defaultZoom",
        "offset": 21,
        "slot": "2",
        "type": "t_uint8"
      }
    ],
    "types": {
      "t_address": {
        "encoding": "inplace",
        "label": "address",
        "numberOfBytes": "20"
      },
      "t_bool": {
        "encoding": "inplace",
        "label": "bool",
        "numberOfBytes": "1"
      },
      "t_struct(Storage)11358_storage": {
        "encoding": "inplace",
        "label": "struct Trust.Storage",
        "members": [
          {
            "astId": 11357,
            "contract": "src/NuggFT.sol:NuggFT",
            "label": "_isTrusted",
            "offset": 0,
            "slot": "0",
            "type": "t_bool"
          }
        ],
        "numberOfBytes": "32"
      },
      "t_uint8": {
        "encoding": "inplace",
        "label": "uint8",
        "numberOfBytes": "1"
      }
    }
  }
}