{
  "address": "0xc3b5821CAd004d6eC7d8Fb8F794f5d11AA86e481",
  "abi": [
    {
      "inputs": [
        {
          "internalType": "address",
          "name": "_defaultResolver",
          "type": "address"
        }
      ],
      "stateMutability": "nonpayable",
      "type": "constructor"
    },
    {
      "anonymous": false,
      "inputs": [
        {
          "indexed": true,
          "internalType": "address",
          "name": "owner",
          "type": "address"
        },
        {
          "indexed": true,
          "internalType": "address",
          "name": "approved",
          "type": "address"
        },
        {
          "indexed": true,
          "internalType": "uint256",
          "name": "tokenId",
          "type": "uint256"
        }
      ],
      "name": "Approval",
      "type": "event"
    },
    {
      "anonymous": false,
      "inputs": [
        {
          "indexed": true,
          "internalType": "address",
          "name": "owner",
          "type": "address"
        },
        {
          "indexed": true,
          "internalType": "address",
          "name": "operator",
          "type": "address"
        },
        {
          "indexed": false,
          "internalType": "bool",
          "name": "approved",
          "type": "bool"
        }
      ],
      "name": "ApprovalForAll",
      "type": "event"
    },
    {
      "anonymous": false,
      "inputs": [
        {
          "indexed": false,
          "internalType": "uint160",
          "name": "tokenId",
          "type": "uint160"
        },
        {
          "indexed": false,
          "internalType": "address",
          "name": "account",
          "type": "address"
        },
        {
          "indexed": false,
          "internalType": "uint96",
          "name": "eth",
          "type": "uint96"
        }
      ],
      "name": "DelegateCommit",
      "type": "event"
    },
    {
      "anonymous": false,
      "inputs": [
        {
          "indexed": false,
          "internalType": "uint160",
          "name": "sellingTokenId",
          "type": "uint160"
        },
        {
          "indexed": false,
          "internalType": "uint16",
          "name": "itemId",
          "type": "uint16"
        },
        {
          "indexed": false,
          "internalType": "uint160",
          "name": "buyingTokenId",
          "type": "uint160"
        },
        {
          "indexed": false,
          "internalType": "uint96",
          "name": "eth",
          "type": "uint96"
        }
      ],
      "name": "DelegateCommitItem",
      "type": "event"
    },
    {
      "anonymous": false,
      "inputs": [
        {
          "indexed": false,
          "internalType": "uint256",
          "name": "epoch",
          "type": "uint256"
        },
        {
          "indexed": false,
          "internalType": "address",
          "name": "account",
          "type": "address"
        },
        {
          "indexed": false,
          "internalType": "uint96",
          "name": "eth",
          "type": "uint96"
        }
      ],
      "name": "DelegateMint",
      "type": "event"
    },
    {
      "anonymous": false,
      "inputs": [
        {
          "indexed": false,
          "internalType": "uint160",
          "name": "tokenId",
          "type": "uint160"
        },
        {
          "indexed": false,
          "internalType": "address",
          "name": "account",
          "type": "address"
        },
        {
          "indexed": false,
          "internalType": "uint96",
          "name": "eth",
          "type": "uint96"
        }
      ],
      "name": "DelegateOffer",
      "type": "event"
    },
    {
      "anonymous": false,
      "inputs": [
        {
          "indexed": false,
          "internalType": "uint160",
          "name": "sellingTokenId",
          "type": "uint160"
        },
        {
          "indexed": false,
          "internalType": "uint16",
          "name": "itemId",
          "type": "uint16"
        },
        {
          "indexed": false,
          "internalType": "uint160",
          "name": "buyingTokenId",
          "type": "uint160"
        },
        {
          "indexed": false,
          "internalType": "uint96",
          "name": "eth",
          "type": "uint96"
        }
      ],
      "name": "DelegateOfferItem",
      "type": "event"
    },
    {
      "anonymous": false,
      "inputs": [],
      "name": "Genesis",
      "type": "event"
    },
    {
      "anonymous": false,
      "inputs": [
        {
          "indexed": false,
          "internalType": "address",
          "name": "v2",
          "type": "address"
        },
        {
          "indexed": false,
          "internalType": "uint160",
          "name": "tokenId",
          "type": "uint160"
        },
        {
          "indexed": false,
          "internalType": "uint256",
          "name": "proof",
          "type": "uint256"
        },
        {
          "indexed": false,
          "internalType": "address",
          "name": "owner",
          "type": "address"
        },
        {
          "indexed": false,
          "internalType": "uint96",
          "name": "eth",
          "type": "uint96"
        }
      ],
      "name": "MigrateV1Sent",
      "type": "event"
    },
    {
      "anonymous": false,
      "inputs": [
        {
          "indexed": false,
          "internalType": "address",
          "name": "migrator",
          "type": "address"
        }
      ],
      "name": "MigratorV1Updated",
      "type": "event"
    },
    {
      "anonymous": false,
      "inputs": [
        {
          "indexed": false,
          "internalType": "uint160",
          "name": "tokenId",
          "type": "uint160"
        },
        {
          "indexed": false,
          "internalType": "address",
          "name": "account",
          "type": "address"
        },
        {
          "indexed": false,
          "internalType": "uint96",
          "name": "payoffAmount",
          "type": "uint96"
        }
      ],
      "name": "Payoff",
      "type": "event"
    },
    {
      "anonymous": false,
      "inputs": [
        {
          "indexed": false,
          "internalType": "uint160",
          "name": "tokenId",
          "type": "uint160"
        },
        {
          "indexed": false,
          "internalType": "uint256",
          "name": "proof",
          "type": "uint256"
        },
        {
          "indexed": false,
          "internalType": "uint16",
          "name": "itemId",
          "type": "uint16"
        }
      ],
      "name": "PopItem",
      "type": "event"
    },
    {
      "anonymous": false,
      "inputs": [
        {
          "indexed": false,
          "internalType": "uint96",
          "name": "eth",
          "type": "uint96"
        }
      ],
      "name": "ProtocolEthExtracted",
      "type": "event"
    },
    {
      "anonymous": false,
      "inputs": [
        {
          "indexed": false,
          "internalType": "uint160",
          "name": "tokenId",
          "type": "uint160"
        },
        {
          "indexed": false,
          "internalType": "uint256",
          "name": "proof",
          "type": "uint256"
        },
        {
          "indexed": false,
          "internalType": "uint16",
          "name": "itemId",
          "type": "uint16"
        }
      ],
      "name": "PushItem",
      "type": "event"
    },
    {
      "anonymous": false,
      "inputs": [
        {
          "indexed": false,
          "internalType": "uint160",
          "name": "tokenId",
          "type": "uint160"
        },
        {
          "indexed": false,
          "internalType": "uint96",
          "name": "fee",
          "type": "uint96"
        },
        {
          "indexed": false,
          "internalType": "uint96",
          "name": "earned",
          "type": "uint96"
        }
      ],
      "name": "Rebalance",
      "type": "event"
    },
    {
      "anonymous": false,
      "inputs": [
        {
          "indexed": false,
          "internalType": "uint160",
          "name": "tokenId",
          "type": "uint160"
        },
        {
          "indexed": false,
          "internalType": "uint256",
          "name": "proof",
          "type": "uint256"
        },
        {
          "indexed": false,
          "internalType": "uint8",
          "name": "feature",
          "type": "uint8"
        }
      ],
      "name": "RotateItem",
      "type": "event"
    },
    {
      "anonymous": false,
      "inputs": [
        {
          "indexed": false,
          "internalType": "uint160",
          "name": "tokenId",
          "type": "uint160"
        },
        {
          "indexed": false,
          "internalType": "uint256",
          "name": "proof",
          "type": "uint256"
        },
        {
          "indexed": false,
          "internalType": "uint8[]",
          "name": "xs",
          "type": "uint8[]"
        },
        {
          "indexed": false,
          "internalType": "uint8[]",
          "name": "ys",
          "type": "uint8[]"
        }
      ],
      "name": "SetAnchorOverrides",
      "type": "event"
    },
    {
      "anonymous": false,
      "inputs": [
        {
          "indexed": false,
          "internalType": "uint160",
          "name": "tokenId",
          "type": "uint160"
        },
        {
          "indexed": false,
          "internalType": "uint256",
          "name": "proof",
          "type": "uint256"
        },
        {
          "indexed": false,
          "internalType": "uint8[]",
          "name": "items",
          "type": "uint8[]"
        }
      ],
      "name": "SetProof",
      "type": "event"
    },
    {
      "anonymous": false,
      "inputs": [
        {
          "indexed": false,
          "internalType": "uint96",
          "name": "stake",
          "type": "uint96"
        },
        {
          "indexed": false,
          "internalType": "uint96",
          "name": "protocol",
          "type": "uint96"
        }
      ],
      "name": "StakeEth",
      "type": "event"
    },
    {
      "anonymous": false,
      "inputs": [
        {
          "indexed": false,
          "internalType": "uint160",
          "name": "tokenId",
          "type": "uint160"
        },
        {
          "indexed": false,
          "internalType": "address",
          "name": "account",
          "type": "address"
        },
        {
          "indexed": false,
          "internalType": "uint32",
          "name": "epoch",
          "type": "uint32"
        }
      ],
      "name": "SwapClaim",
      "type": "event"
    },
    {
      "anonymous": false,
      "inputs": [
        {
          "indexed": false,
          "internalType": "uint160",
          "name": "sellingTokenId",
          "type": "uint160"
        },
        {
          "indexed": false,
          "internalType": "uint16",
          "name": "itemId",
          "type": "uint16"
        },
        {
          "indexed": false,
          "internalType": "uint160",
          "name": "buyingTokenId",
          "type": "uint160"
        },
        {
          "indexed": false,
          "internalType": "uint32",
          "name": "epoch",
          "type": "uint32"
        }
      ],
      "name": "SwapClaimItem",
      "type": "event"
    },
    {
      "anonymous": false,
      "inputs": [
        {
          "indexed": false,
          "internalType": "uint160",
          "name": "sellingTokenId",
          "type": "uint160"
        },
        {
          "indexed": false,
          "internalType": "uint16",
          "name": "itemId",
          "type": "uint16"
        },
        {
          "indexed": false,
          "internalType": "uint96",
          "name": "eth",
          "type": "uint96"
        }
      ],
      "name": "SwapItemStart",
      "type": "event"
    },
    {
      "anonymous": false,
      "inputs": [
        {
          "indexed": false,
          "internalType": "uint160",
          "name": "tokenId",
          "type": "uint160"
        },
        {
          "indexed": false,
          "internalType": "address",
          "name": "account",
          "type": "address"
        },
        {
          "indexed": false,
          "internalType": "uint96",
          "name": "eth",
          "type": "uint96"
        }
      ],
      "name": "SwapStart",
      "type": "event"
    },
    {
      "anonymous": false,
      "inputs": [
        {
          "indexed": false,
          "internalType": "uint160",
          "name": "tokenId",
          "type": "uint160"
        },
        {
          "indexed": false,
          "internalType": "uint96",
          "name": "principal",
          "type": "uint96"
        }
      ],
      "name": "TakeLoan",
      "type": "event"
    },
    {
      "anonymous": false,
      "inputs": [
        {
          "indexed": true,
          "internalType": "address",
          "name": "from",
          "type": "address"
        },
        {
          "indexed": true,
          "internalType": "address",
          "name": "to",
          "type": "address"
        },
        {
          "indexed": true,
          "internalType": "uint256",
          "name": "tokenId",
          "type": "uint256"
        }
      ],
      "name": "Transfer",
      "type": "event"
    },
    {
      "anonymous": false,
      "inputs": [
        {
          "indexed": true,
          "internalType": "address",
          "name": "user",
          "type": "address"
        },
        {
          "indexed": false,
          "internalType": "bool",
          "name": "trust",
          "type": "bool"
        }
      ],
      "name": "TrustUpdated",
      "type": "event"
    },
    {
      "anonymous": false,
      "inputs": [
        {
          "indexed": true,
          "internalType": "address",
          "name": "to",
          "type": "address"
        },
        {
          "indexed": false,
          "internalType": "uint160",
          "name": "tokenId",
          "type": "uint160"
        }
      ],
      "name": "TrustedMint",
      "type": "event"
    },
    {
      "anonymous": false,
      "inputs": [
        {
          "indexed": false,
          "internalType": "uint96",
          "name": "stake",
          "type": "uint96"
        },
        {
          "indexed": false,
          "internalType": "address",
          "name": "to",
          "type": "address"
        }
      ],
      "name": "UnStakeEth",
      "type": "event"
    },
    {
      "anonymous": false,
      "inputs": [
        {
          "indexed": true,
          "internalType": "address",
          "name": "by",
          "type": "address"
        },
        {
          "indexed": false,
          "internalType": "uint160",
          "name": "tokenId",
          "type": "uint160"
        }
      ],
      "name": "UntrustedMint",
      "type": "event"
    },
    {
      "inputs": [],
      "name": "activeEthPerShare",
      "outputs": [
        {
          "internalType": "uint96",
          "name": "res",
          "type": "uint96"
        }
      ],
      "stateMutability": "view",
      "type": "function"
    },
    {
      "inputs": [
        {
          "internalType": "address",
          "name": "to",
          "type": "address"
        },
        {
          "internalType": "uint256",
          "name": "tokenId",
          "type": "uint256"
        }
      ],
      "name": "approve",
      "outputs": [],
      "stateMutability": "nonpayable",
      "type": "function"
    },
    {
      "inputs": [
        {
          "internalType": "address",
          "name": "",
          "type": "address"
        }
      ],
      "name": "balanceOf",
      "outputs": [
        {
          "internalType": "uint256",
          "name": "",
          "type": "uint256"
        }
      ],
      "stateMutability": "pure",
      "type": "function"
    },
    {
      "inputs": [
        {
          "internalType": "uint160",
          "name": "tokenId",
          "type": "uint160"
        }
      ],
      "name": "claim",
      "outputs": [],
      "stateMutability": "nonpayable",
      "type": "function"
    },
    {
      "inputs": [
        {
          "internalType": "uint160",
          "name": "sellingTokenId",
          "type": "uint160"
        },
        {
          "internalType": "uint16",
          "name": "itemId",
          "type": "uint16"
        },
        {
          "internalType": "uint160",
          "name": "buyingTokenId",
          "type": "uint160"
        }
      ],
      "name": "claimItem",
      "outputs": [],
      "stateMutability": "nonpayable",
      "type": "function"
    },
    {
      "inputs": [],
      "name": "defaultWidth",
      "outputs": [
        {
          "internalType": "uint8",
          "name": "",
          "type": "uint8"
        }
      ],
      "stateMutability": "view",
      "type": "function"
    },
    {
      "inputs": [],
      "name": "defaultZoom",
      "outputs": [
        {
          "internalType": "uint8",
          "name": "",
          "type": "uint8"
        }
      ],
      "stateMutability": "view",
      "type": "function"
    },
    {
      "inputs": [
        {
          "internalType": "uint160",
          "name": "tokenId",
          "type": "uint160"
        }
      ],
      "name": "delegate",
      "outputs": [],
      "stateMutability": "payable",
      "type": "function"
    },
    {
      "inputs": [
        {
          "internalType": "uint160",
          "name": "sellingTokenId",
          "type": "uint160"
        },
        {
          "internalType": "uint16",
          "name": "itemId",
          "type": "uint16"
        },
        {
          "internalType": "uint160",
          "name": "buyingTokenId",
          "type": "uint160"
        }
      ],
      "name": "delegateItem",
      "outputs": [],
      "stateMutability": "payable",
      "type": "function"
    },
    {
      "inputs": [],
      "name": "dotnuggV1Processor",
      "outputs": [
        {
          "internalType": "address",
          "name": "",
          "type": "address"
        }
      ],
      "stateMutability": "view",
      "type": "function"
    },
    {
      "inputs": [],
      "name": "epoch",
      "outputs": [
        {
          "internalType": "uint32",
          "name": "",
          "type": "uint32"
        }
      ],
      "stateMutability": "view",
      "type": "function"
    },
    {
      "inputs": [],
      "name": "extractProtocolEth",
      "outputs": [],
      "stateMutability": "nonpayable",
      "type": "function"
    },
    {
      "inputs": [
        {
          "internalType": "uint256",
          "name": "tokenId",
          "type": "uint256"
        }
      ],
      "name": "getApproved",
      "outputs": [
        {
          "internalType": "address",
          "name": "",
          "type": "address"
        }
      ],
      "stateMutability": "view",
      "type": "function"
    },
    {
      "inputs": [
        {
          "internalType": "address",
          "name": "owner",
          "type": "address"
        },
        {
          "internalType": "address",
          "name": "operator",
          "type": "address"
        }
      ],
      "name": "isApprovedForAll",
      "outputs": [
        {
          "internalType": "bool",
          "name": "",
          "type": "bool"
        }
      ],
      "stateMutability": "view",
      "type": "function"
    },
    {
      "inputs": [
        {
          "internalType": "uint160",
          "name": "tokenId",
          "type": "uint160"
        }
      ],
      "name": "loan",
      "outputs": [],
      "stateMutability": "nonpayable",
      "type": "function"
    },
    {
      "inputs": [
        {
          "internalType": "uint160",
          "name": "tokenId",
          "type": "uint160"
        }
      ],
      "name": "loanInfo",
      "outputs": [
        {
          "internalType": "uint96",
          "name": "toPayoff",
          "type": "uint96"
        },
        {
          "internalType": "uint96",
          "name": "toRebalance",
          "type": "uint96"
        },
        {
          "internalType": "uint96",
          "name": "earned",
          "type": "uint96"
        },
        {
          "internalType": "uint32",
          "name": "epochDue",
          "type": "uint32"
        },
        {
          "internalType": "address",
          "name": "loaner",
          "type": "address"
        }
      ],
      "stateMutability": "view",
      "type": "function"
    },
    {
      "inputs": [
        {
          "internalType": "uint160",
          "name": "tokenId",
          "type": "uint160"
        }
      ],
      "name": "migrateStake",
      "outputs": [],
      "stateMutability": "nonpayable",
      "type": "function"
    },
    {
      "inputs": [],
      "name": "minSharePrice",
      "outputs": [
        {
          "internalType": "uint96",
          "name": "res",
          "type": "uint96"
        }
      ],
      "stateMutability": "view",
      "type": "function"
    },
    {
      "inputs": [
        {
          "internalType": "uint160",
          "name": "tokenId",
          "type": "uint160"
        }
      ],
      "name": "mint",
      "outputs": [],
      "stateMutability": "payable",
      "type": "function"
    },
    {
      "inputs": [],
      "name": "name",
      "outputs": [
        {
          "internalType": "string",
          "name": "",
          "type": "string"
        }
      ],
      "stateMutability": "pure",
      "type": "function"
    },
    {
      "inputs": [
        {
          "internalType": "uint256",
          "name": "tokenId",
          "type": "uint256"
        }
      ],
      "name": "ownerOf",
      "outputs": [
        {
          "internalType": "address",
          "name": "",
          "type": "address"
        }
      ],
      "stateMutability": "view",
      "type": "function"
    },
    {
      "inputs": [
        {
          "internalType": "uint160",
          "name": "tokenId",
          "type": "uint160"
        }
      ],
      "name": "parsedProofOf",
      "outputs": [
        {
          "internalType": "uint256",
          "name": "proof",
          "type": "uint256"
        },
        {
          "internalType": "uint8[]",
          "name": "defaultIds",
          "type": "uint8[]"
        },
        {
          "internalType": "uint8[]",
          "name": "extraIds",
          "type": "uint8[]"
        },
        {
          "internalType": "uint8[]",
          "name": "overxs",
          "type": "uint8[]"
        },
        {
          "internalType": "uint8[]",
          "name": "overys",
          "type": "uint8[]"
        }
      ],
      "stateMutability": "view",
      "type": "function"
    },
    {
      "inputs": [
        {
          "internalType": "uint160",
          "name": "tokenId",
          "type": "uint160"
        }
      ],
      "name": "payoff",
      "outputs": [],
      "stateMutability": "payable",
      "type": "function"
    },
    {
      "inputs": [
        {
          "internalType": "uint256",
          "name": "tokenId",
          "type": "uint256"
        }
      ],
      "name": "prepareFiles",
      "outputs": [
        {
          "internalType": "uint256[][]",
          "name": "input",
          "type": "uint256[][]"
        },
        {
          "components": [
            {
              "internalType": "uint256",
              "name": "version",
              "type": "uint256"
            },
            {
              "internalType": "uint256",
              "name": "renderedAt",
              "type": "uint256"
            },
            {
              "internalType": "string",
              "name": "name",
              "type": "string"
            },
            {
              "internalType": "string",
              "name": "desc",
              "type": "string"
            },
            {
              "internalType": "address",
              "name": "owner",
              "type": "address"
            },
            {
              "internalType": "uint256",
              "name": "tokenId",
              "type": "uint256"
            },
            {
              "internalType": "uint256",
              "name": "proof",
              "type": "uint256"
            },
            {
              "internalType": "uint8[]",
              "name": "ids",
              "type": "uint8[]"
            },
            {
              "internalType": "uint8[]",
              "name": "extras",
              "type": "uint8[]"
            },
            {
              "internalType": "uint8[]",
              "name": "xovers",
              "type": "uint8[]"
            },
            {
              "internalType": "uint8[]",
              "name": "yovers",
              "type": "uint8[]"
            }
          ],
          "internalType": "struct IdotnuggV1Data.Data",
          "name": "data",
          "type": "tuple"
        }
      ],
      "stateMutability": "view",
      "type": "function"
    },
    {
      "inputs": [
        {
          "internalType": "uint160",
          "name": "tokenId",
          "type": "uint160"
        }
      ],
      "name": "proofOf",
      "outputs": [
        {
          "internalType": "uint256",
          "name": "",
          "type": "uint256"
        }
      ],
      "stateMutability": "view",
      "type": "function"
    },
    {
      "inputs": [
        {
          "internalType": "uint160",
          "name": "tokenId",
          "type": "uint160"
        }
      ],
      "name": "rebalance",
      "outputs": [],
      "stateMutability": "payable",
      "type": "function"
    },
    {
      "inputs": [
        {
          "internalType": "uint256",
          "name": "tokenId",
          "type": "uint256"
        }
      ],
      "name": "resolverOf",
      "outputs": [
        {
          "internalType": "address",
          "name": "",
          "type": "address"
        }
      ],
      "stateMutability": "view",
      "type": "function"
    },
    {
      "inputs": [
        {
          "internalType": "uint160",
          "name": "tokenId",
          "type": "uint160"
        },
        {
          "internalType": "uint8",
          "name": "feature",
          "type": "uint8"
        }
      ],
      "name": "rotateFeature",
      "outputs": [],
      "stateMutability": "nonpayable",
      "type": "function"
    },
    {
      "inputs": [
        {
          "internalType": "address",
          "name": "",
          "type": "address"
        },
        {
          "internalType": "address",
          "name": "",
          "type": "address"
        },
        {
          "internalType": "uint256",
          "name": "",
          "type": "uint256"
        }
      ],
      "name": "safeTransferFrom",
      "outputs": [],
      "stateMutability": "pure",
      "type": "function"
    },
    {
      "inputs": [
        {
          "internalType": "address",
          "name": "",
          "type": "address"
        },
        {
          "internalType": "address",
          "name": "",
          "type": "address"
        },
        {
          "internalType": "uint256",
          "name": "",
          "type": "uint256"
        },
        {
          "internalType": "bytes",
          "name": "",
          "type": "bytes"
        }
      ],
      "name": "safeTransferFrom",
      "outputs": [],
      "stateMutability": "pure",
      "type": "function"
    },
    {
      "inputs": [
        {
          "internalType": "address",
          "name": "operator",
          "type": "address"
        },
        {
          "internalType": "bool",
          "name": "approved",
          "type": "bool"
        }
      ],
      "name": "setApprovalForAll",
      "outputs": [],
      "stateMutability": "nonpayable",
      "type": "function"
    },
    {
      "inputs": [
        {
          "internalType": "address",
          "name": "user",
          "type": "address"
        },
        {
          "internalType": "bool",
          "name": "trust",
          "type": "bool"
        }
      ],
      "name": "setIsTrusted",
      "outputs": [],
      "stateMutability": "nonpayable",
      "type": "function"
    },
    {
      "inputs": [
        {
          "internalType": "address",
          "name": "migrator",
          "type": "address"
        }
      ],
      "name": "setMigrator",
      "outputs": [],
      "stateMutability": "nonpayable",
      "type": "function"
    },
    {
      "inputs": [
        {
          "internalType": "uint160",
          "name": "tokenId",
          "type": "uint160"
        },
        {
          "internalType": "uint8[]",
          "name": "xs",
          "type": "uint8[]"
        },
        {
          "internalType": "uint8[]",
          "name": "ys",
          "type": "uint8[]"
        }
      ],
      "name": "setOverrides",
      "outputs": [],
      "stateMutability": "nonpayable",
      "type": "function"
    },
    {
      "inputs": [
        {
          "internalType": "uint256",
          "name": "tokenId",
          "type": "uint256"
        },
        {
          "internalType": "address",
          "name": "to",
          "type": "address"
        }
      ],
      "name": "setResolver",
      "outputs": [],
      "stateMutability": "nonpayable",
      "type": "function"
    },
    {
      "inputs": [
        {
          "internalType": "uint256[][]",
          "name": "data",
          "type": "uint256[][]"
        },
        {
          "internalType": "uint8",
          "name": "feature",
          "type": "uint8"
        }
      ],
      "name": "storeFiles",
      "outputs": [],
      "stateMutability": "nonpayable",
      "type": "function"
    },
    {
      "inputs": [
        {
          "internalType": "bytes4",
          "name": "interfaceId",
          "type": "bytes4"
        }
      ],
      "name": "supportsInterface",
      "outputs": [
        {
          "internalType": "bool",
          "name": "",
          "type": "bool"
        }
      ],
      "stateMutability": "view",
      "type": "function"
    },
    {
      "inputs": [
        {
          "internalType": "uint160",
          "name": "tokenId",
          "type": "uint160"
        },
        {
          "internalType": "uint96",
          "name": "floor",
          "type": "uint96"
        }
      ],
      "name": "swap",
      "outputs": [],
      "stateMutability": "nonpayable",
      "type": "function"
    },
    {
      "inputs": [
        {
          "internalType": "uint160",
          "name": "sellingTokenId",
          "type": "uint160"
        },
        {
          "internalType": "uint16",
          "name": "itemId",
          "type": "uint16"
        },
        {
          "internalType": "uint96",
          "name": "floor",
          "type": "uint96"
        }
      ],
      "name": "swapItem",
      "outputs": [],
      "stateMutability": "nonpayable",
      "type": "function"
    },
    {
      "inputs": [],
      "name": "symbol",
      "outputs": [
        {
          "internalType": "string",
          "name": "",
          "type": "string"
        }
      ],
      "stateMutability": "pure",
      "type": "function"
    },
    {
      "inputs": [
        {
          "internalType": "uint256",
          "name": "tokenId",
          "type": "uint256"
        }
      ],
      "name": "tokenURI",
      "outputs": [
        {
          "internalType": "string",
          "name": "",
          "type": "string"
        }
      ],
      "stateMutability": "view",
      "type": "function"
    },
    {
      "inputs": [],
      "name": "totalLengths",
      "outputs": [
        {
          "internalType": "uint8[]",
          "name": "res",
          "type": "uint8[]"
        }
      ],
      "stateMutability": "view",
      "type": "function"
    },
    {
      "inputs": [],
      "name": "totalProtocolEth",
      "outputs": [
        {
          "internalType": "uint96",
          "name": "res",
          "type": "uint96"
        }
      ],
      "stateMutability": "view",
      "type": "function"
    },
    {
      "inputs": [],
      "name": "totalStakedEth",
      "outputs": [
        {
          "internalType": "uint96",
          "name": "res",
          "type": "uint96"
        }
      ],
      "stateMutability": "view",
      "type": "function"
    },
    {
      "inputs": [],
      "name": "totalStakedShares",
      "outputs": [
        {
          "internalType": "uint64",
          "name": "res",
          "type": "uint64"
        }
      ],
      "stateMutability": "view",
      "type": "function"
    },
    {
      "inputs": [],
      "name": "totalSupply",
      "outputs": [
        {
          "internalType": "uint256",
          "name": "res",
          "type": "uint256"
        }
      ],
      "stateMutability": "view",
      "type": "function"
    },
    {
      "inputs": [
        {
          "internalType": "address",
          "name": "",
          "type": "address"
        },
        {
          "internalType": "address",
          "name": "",
          "type": "address"
        },
        {
          "internalType": "uint256",
          "name": "",
          "type": "uint256"
        }
      ],
      "name": "transferFrom",
      "outputs": [],
      "stateMutability": "pure",
      "type": "function"
    },
    {
      "inputs": [
        {
          "internalType": "address",
          "name": "user",
          "type": "address"
        }
      ],
      "name": "trusted",
      "outputs": [
        {
          "internalType": "bool",
          "name": "",
          "type": "bool"
        }
      ],
      "stateMutability": "view",
      "type": "function"
    },
    {
      "inputs": [
        {
          "internalType": "uint160",
          "name": "tokenId",
          "type": "uint160"
        },
        {
          "internalType": "address",
          "name": "to",
          "type": "address"
        }
      ],
      "name": "trustedMint",
      "outputs": [],
      "stateMutability": "payable",
      "type": "function"
    },
    {
      "inputs": [
        {
          "internalType": "uint160",
          "name": "tokenId",
          "type": "uint160"
        },
        {
          "internalType": "address",
          "name": "user",
          "type": "address"
        }
      ],
      "name": "valueForDelegate",
      "outputs": [
        {
          "internalType": "bool",
          "name": "canDelegate",
          "type": "bool"
        },
        {
          "internalType": "uint96",
          "name": "nextSwapAmount",
          "type": "uint96"
        },
        {
          "internalType": "uint96",
          "name": "userCurrentOffer",
          "type": "uint96"
        }
      ],
      "stateMutability": "view",
      "type": "function"
    },
    {
      "inputs": [
        {
          "internalType": "uint160",
          "name": "tokenId",
          "type": "uint160"
        }
      ],
      "name": "valueForPayoff",
      "outputs": [
        {
          "internalType": "uint96",
          "name": "res",
          "type": "uint96"
        }
      ],
      "stateMutability": "view",
      "type": "function"
    },
    {
      "inputs": [
        {
          "internalType": "uint160",
          "name": "tokenId",
          "type": "uint160"
        }
      ],
      "name": "valueForRebalance",
      "outputs": [
        {
          "internalType": "uint96",
          "name": "res",
          "type": "uint96"
        }
      ],
      "stateMutability": "view",
      "type": "function"
    },
    {
      "inputs": [
        {
          "internalType": "uint160",
          "name": "tokenId",
          "type": "uint160"
        }
      ],
      "name": "withdrawStake",
      "outputs": [],
      "stateMutability": "nonpayable",
      "type": "function"
    }
  ],
  "transactionHash": "0x13eb2a26dc41f0da6d84d01c0aa9c805ce4728ec014322886f20bd7256f17ac6",
  "args": [
    "0x488b62261D2D5ba4d2dcB446aCc355979405953D"
  ],
  "solcInputHash": "6d7494c6088e7dd12a33c887aaac744e",
  "bytecode": "0x60806040526000805461ffff60a01b1916610a2d60a01b1790553480156200002657600080fd5b5060405162005e5b38038062005e5b833981016040819052620000499162000136565b33600081815263200024676020818152604092839020805460ff191660019081179091559251928352849391927f01370ae6c2f4315d0915b457ec604f483d0ff6f34a7fdd5c3401ae39fda86aa9910160405180910390a250620000b76200011b60201b620025081760201c565b6040517f6bf6eaff5e9af8fbccb949f4c38cc016936f8775363ccf4224db160365785d5290600090a16001600160a01b038116620000f457600080fd5b600080546001600160a01b0319166001600160a01b03929092169190911790555062000168565b640100042069805463ffffffff19164363ffffffff16179055565b6000602082840312156200014957600080fd5b81516001600160a01b03811681146200016157600080fd5b9392505050565b615ce380620001786000396000f3fe60806040526004361061034a5760003560e01c80639531b94d116101bb578063c5c8beeb116100f7578063e747738311610095578063fa7329921161006f578063fa73299214610a21578063fca840ae14610a34578063fe7e997e14610a54578063ffcf6d3a14610a7457600080fd5b8063e7477383146109c0578063e985e9c5146109e1578063ecc1113f14610a0157600080fd5b8063d7be245c116100d1578063d7be245c146108e9578063d7dc68191461090b578063e5cbd48e14610972578063e63bedde1461099257600080fd5b8063c5c8beeb14610889578063c87b56dd146108a9578063d276db98146108c957600080fd5b8063b3f9e4cb11610164578063bc7b6d621161013e578063bc7b6d6214610815578063be2cfdff14610835578063beace31f14610863578063c06c822f1461087657600080fd5b8063b3f9e4cb146107ba578063b88d4fde146107da578063b88ea014146107f557600080fd5b80639caec886116101955780639caec8861461075a578063a22cb4651461077a578063b3b9f3a71461079a57600080fd5b80639531b94d146106f657806395d89b411461070b5780639a74cb641461073a57600080fd5b8063504cdacf1161028a578063665557c81161023357806370a082311161020d57806370a0823114610678578063750656f614610699578063900cf0cf146106ac5780639066fdf8146106d657600080fd5b8063665557c8146105d55780636ba755d1146105f55780636e9821c21461063c57600080fd5b8063608cceb011610264578063608cceb0146105805780636352211e146105a05780636571595e146105c057600080fd5b8063504cdacf14610523578063570f67ad146105385780635917c58f1461054d57600080fd5b8063099afa17116102f757806323b872dd116102d157806323b872dd146104d057806323cf3118146104f05780632e7a7f5e1461051057806342842e0e146104d057600080fd5b8063099afa171461047a5780631393916a1461048d57806318160ddd146104ad57600080fd5b806306fdde031161032857806306fdde03146103d3578063081812fc14610422578063095ea7b31461045a57600080fd5b806301ffc9a71461034f5780630251f62c1461038457806303bfe17e146103a6575b600080fd5b34801561035b57600080fd5b5061036f61036a366004614eb2565b610aa5565b60405190151581526020015b60405180910390f35b34801561039057600080fd5b506103a461039f366004614ef1565b610af7565b005b3480156103b257600080fd5b506103bb610bf5565b6040516001600160601b03909116815260200161037b565b3480156103df57600080fd5b5060408051808201909152601681527f4e7567672046756e6769626c6520546f6b656e2056310000000000000000000060208201525b60405161037b9190614f66565b34801561042e57600080fd5b5061044261043d366004614f79565b610c04565b6040516001600160a01b03909116815260200161037b565b34801561046657600080fd5b506103a4610475366004614f92565b610c17565b6103a4610488366004614ef1565b610c2d565b34801561049957600080fd5b506103a46104a8366004614fbe565b610eb0565b3480156104b957600080fd5b506104c2610f1e565b60405190815260200161037b565b3480156104dc57600080fd5b506103a46104eb366004614ffc565b610f37565b3480156104fc57600080fd5b506103a461050b366004614ef1565b610f65565b6103a461051e36600461504f565b610fc4565b34801561052f57600080fd5b506103bb61118c565b34801561054457600080fd5b506103a4611196565b34801561055957600080fd5b5060005461056e90600160a01b900460ff1681565b60405160ff909116815260200161037b565b34801561058c57600080fd5b506103bb61059b366004614ef1565b61121d565b3480156105ac57600080fd5b506104426105bb366004614f79565b611233565b3480156105cc57600080fd5b506103bb611246565b3480156105e157600080fd5b506103a46105f0366004614ef1565b611250565b34801561060157600080fd5b50610615610610366004615098565b611346565b6040805193151584526001600160601b03928316602085015291169082015260600161037b565b34801561064857600080fd5b5061036f610657366004614ef1565b6001600160a01b031660009081526320002467602052604090205460ff1690565b34801561068457600080fd5b506104c2610693366004614ef1565b50600090565b6103a46106a7366004614ef1565b611483565b3480156106b857600080fd5b506106c161159f565b60405163ffffffff909116815260200161037b565b3480156106e257600080fd5b506103a46106f13660046150d7565b6115a9565b34801561070257600080fd5b506103bb611675565b34801561071757600080fd5b50604080518082019091526006815265139551d1d19560d21b6020820152610415565b34801561074657600080fd5b506103a4610755366004615103565b61167f565b34801561076657600080fd5b506103a461077536600461504f565b611692565b34801561078657600080fd5b506103a4610795366004614fbe565b6117f1565b3480156107a657600080fd5b506103a46107b5366004614ef1565b6117fb565b3480156107c657600080fd5b506104426107d5366004614f79565b61181b565b3480156107e657600080fd5b506103a46104eb3660046151f6565b34801561080157600080fd5b506104c2610810366004614ef1565b61182e565b34801561082157600080fd5b506103a46108303660046152a5565b611839565b34801561084157600080fd5b5061084a6118ad565b60405167ffffffffffffffff909116815260200161037b565b6103a4610871366004615098565b6118b7565b6103a4610884366004614ef1565b6119c6565b34801561089557600080fd5b506103a46108a43660046152e1565b611b9c565b3480156108b557600080fd5b506104156108c4366004614f79565b611c7d565b3480156108d557600080fd5b506103a46108e4366004614ef1565b611c88565b3480156108f557600080fd5b506108fe611db7565b60405161037b919061534b565b34801561091757600080fd5b5061092b610926366004614ef1565b611dc1565b604080516001600160601b0396871681529486166020860152929094169183019190915263ffffffff1660608201526001600160a01b03909116608082015260a00161037b565b34801561097e57600080fd5b50600054610442906001600160a01b031681565b34801561099e57600080fd5b506109b26109ad366004614f79565b611ebc565b60405161037b92919061543e565b3480156109cc57600080fd5b5060005461056e90600160a81b900460ff1681565b3480156109ed57600080fd5b5061036f6109fc366004615098565b612062565b348015610a0d57600080fd5b506103bb610a1c366004614ef1565b612097565b6103a4610a2f366004614ef1565b6120ad565b348015610a4057600080fd5b506103a4610a4f3660046154d3565b6122cf565b348015610a6057600080fd5b506103a4610a6f3660046155a0565b6123e9565b348015610a8057600080fd5b50610a94610a8f366004614ef1565b6124e5565b60405161037b959493929190615616565b60006001600160e01b031982166380ac58cd60e01b1480610ad657506001600160e01b03198216635b5e139f60e01b145b80610af157506001600160e01b031982166301ffc9a760e01b145b92915050565b33610b0182612523565b6001600160a01b031614610b425760405162461bcd60e51b8152602060048201526003602482015262261d1960e91b60448201526064015b60405180910390fd5b6000610b4c612578565b90506000610b5861258d565b90506000610b698233856000612598565b506001600160a01b038516600090815262042074602052604090208190559050604080516001600160a01b03861681526001600160601b03851660208201527fdf65fae456ee5bcd916efcb9b5ad07667d7fc396aff61536c465f280393fbd3e910160405180910390a1610bdc846125ea565b610bef33846001600160601b03166126c4565b50505050565b6000610bff612578565b905090565b6000610af1610c128361271f565b612739565b610c2982610c248361271f565b6127b5565b5050565b600080610c3a83336128db565b91509150826001600160a01b0316816040015163ffffffff16148015610c5f57508051155b15610d42578051158015610c7557506020810151155b610ca75760405162461bcd60e51b8152602060048201526003602482015262533a3360e81b6044820152606401610b39565b6000610cc2826040015133610cbb34612929565b6000612598565b508084556040830151909150610cdd9063ffffffff1661293f565b7fb05be3e18f19a4aac09f77432c65062f81615fefa61e76300a99fb2d08c019138433610d0934612929565b604080516001600160a01b0394851681529390921660208401526001600160601b0316908201526060015b60405180910390a150505050565b602081015160ff1c60011415610d805760405162461bcd60e51b81526020600482015260036024820152620533a360ec1b6044820152606401610b39565b8051610db45760405162461bcd60e51b8152602060048201526003602482015262533a3160e81b6044820152606401610b39565b805160ff1c60011415610e7557610dc9612578565b6001600160601b0316341015610e075760405162461bcd60e51b8152602060048201526003602482015262299d1960e91b6044820152606401610b39565b610e11828261298f565b7f8e9681d7ef6204b5eb1f7e898910b723018e455d09ba77c2c9e43346968c887f8333610e3d34612929565b604080516001600160a01b0394851681529390921660208401526001600160601b0316908201526060015b60405180910390a1505050565b610e7f8282612a66565b7f695e0d4736a959eec71a66de118059220f6144b53eb2ed3e6ca8508ce8cd1f0a8333610e3d34612929565b505050565b610eb8612b76565b6001600160a01b038216600081815263200024676020818152604092839020805460ff191686151590811790915592519283529092917f01370ae6c2f4315d0915b457ec604f483d0ff6f34a7fdd5c3401ae39fda86aa9910160405180910390a2505050565b6000610f28612bc4565b67ffffffffffffffff16905090565b60405162461bcd60e51b81526020600482015260036024820152621ddd5d60ea1b6044820152606401610b39565b610f6d612b76565b806204206d80546001600160a01b0319166001600160a01b0392831617905560405190821681527fc97e86a927b4a897832650767255fd568e377e7fbe9586c81d26b77a2c3ffc8b9060200160405180910390a150565b33610fce82612523565b6001600160a01b03161461100a5760405162461bcd60e51b8152602060048201526003602482015262533a3560e81b6044820152606401610b39565b600080611018858585612bda565b6020810151919350915060ff1c600114156110755760405162461bcd60e51b815260206004820152600860248201527f534c3a48534f3a300000000000000000000000000000000000000000000000006044820152606401610b39565b602081015115801561108b5750805160ff1c6001145b1561110c5761109a828261298f565b7fdcd75b8c1f9c84e8b7d26df979d7ddbc4139b72f6c8e0e7123bb63d63ba1c3258585856110c734612929565b604080516001600160a01b03958616815261ffff94909416602085015291909316908201526001600160601b03909116606082015260800160405180910390a1611185565b6111168282612a66565b7f3bbfe02e9ee64811b7404130d1c8a263edbb6ab73af1dc502dd56d43a3ddd1a385858561114334612929565b604080516001600160a01b03958616815261ffff94909416602085015291909316908201526001600160601b0390911660608201526080015b60405180910390a15b5050505050565b6000610bff612c38565b61119e612b76565b60006111ab6204206e5490565b9050806111c1336001600160601b0383166126c4565b6111dc6bffffffffffffffffffffffff1983165b6204206e55565b6040516001600160601b03821681527f8e4dbe2f73d3458c68bca94210eabefac52a4d20c038a8e50197ac9db654291b906020015b60405180910390a15050565b600061122882611dc1565b509195945050505050565b6000610af16112418361271f565b612523565b6000610bff612c4e565b600061125c82336128db565b6001600160a01b03841660009081526204207560209081526040808320338452600101909152812055915061128e9050565b61129781612c61565b156112cb576112bc826001600160a01b03166000908152620420756020526040812055565b6112c63383612d24565b6112ea565b6112ea336112dc8360200151612d81565b6001600160601b03166126c4565b7f10c1106c1b3c266f6cf55047c56a839a002c11736bbf9c4acdec566e80677e9b823361131a8460200151612da3565b604080516001600160a01b03948516815293909216602084015263ffffffff1690820152606001611211565b60008060008061135686866128db565b915050856001600160a01b0316816040015163ffffffff1614801561137a57508051155b1561139b576000611389612dbd565b6001955093506000925061147c915050565b80516113b25760008060009350935093505061147c565b60006113da6113d56113c78460000151612d81565b6001600160601b0316612ddb565b612929565b90506113e4612578565b6001600160601b0316816001600160601b0316101561140e5761140b6113d56113c7612578565b90505b602082015160ff1c6001141561142e5760009450925083915061147c9050565b815161143990612df6565b6001600160a01b0316866001600160a01b03161415611463576001945092506000915061147c9050565b6001816114738460200151612d81565b94509450945050505b9250925092565b6114916101f46109c461568b565b63ffffffff16816001600160a01b03161080156114b857506101f46001600160a01b038216115b6114ea5760405162461bcd60e51b8152602060048201526003602482015262543a3160e81b6044820152606401610b39565b6001600160a01b038082166000908152620420696020526040902054161561153a5760405162461bcd60e51b81526020600482015260036024820152622a1d1960e91b6044820152606401610b39565b61154b61154634612929565b612e0a565b61155481613013565b61155e3382613150565b6040516001600160a01b038216815233907f6717cdc2f702204391319559ab130cf2bdd1a3f69aa0c4078efc85c629dc86af9060200160405180910390a250565b6000610bff61258d565b336115b383612523565b6001600160a01b0316146115f25760405162461bcd60e51b8152600401610b399060208082526004908201526328219d1960e11b604082015260600190565b60006115fd836131ad565b905061160981836131fb565b905061161581836132cf565b6001600160a01b03841660008181526204207260209081526040918290208490558151928352820183905260ff8516908201529091507fe0b01689336e903dba5ec8bc01d79a4ec6aa4f944cd16d45d32700fb594b74ae90606001610e68565b6000610bff612dbd565b611687612b76565b610eab81848461335e565b3361169c82612523565b6001600160a01b0316146116d85760405162461bcd60e51b8152602060048201526003602482015262299d1b60e91b6044820152606401610b39565b60006116e5848484612bda565b6001600160a01b038087166000908152620420756020908152604080832061ffff8a168452600201825280832093881683526001909301905290812055915061172b9050565b61173481612c61565b15611775576001600160a01b0384166000908152620420756020908152604080832061ffff8716845260020190915281205561177082846134bd565b611786565b611786336112dc8360200151612d81565b7f95e8db1d2cc4bd26402c98c45fdb7ff875bb955206591a210b51aa82b4ba5acb8484846117b78560000151612da3565b604080516001600160a01b03958616815261ffff949094166020850152919093169082015263ffffffff9091166060820152608001610d34565b610c2982826135f0565b6000611806826136b1565b9050610c2933826001600160601b03166126c4565b6000610af16118298361271f565b61385c565b6000610af182613867565b61184b336118468461271f565b6138f8565b61187d5760405162461bcd60e51b81526020600482015260036024820152620543a360ec1b6044820152606401610b39565b600091825262042071602052604090912080546001600160a01b0319166001600160a01b03909216919091179055565b6000610bff612bc4565b6118bf612b76565b6101f46001600160a01b0383161080156118e157506001600160a01b03821615155b6119135760405162461bcd60e51b8152602060048201526003602482015262543a3160e81b6044820152606401610b39565b6001600160a01b03808316600090815262042069602052604090205416156119635760405162461bcd60e51b81526020600482015260036024820152622a1d1960e91b6044820152606401610b39565b61196f61154634612929565b61197882613013565b6119828183613150565b6040516001600160a01b0383811682528216907ff720aad51e634650c6c404c3527f059ca40ad43d391f5ac5758f49bae2ff62609060200160405180910390a25050565b6119cf81612523565b6001600160a01b0316306001600160a01b031614611a155760405162461bcd60e51b81526020600482015260036024820152624c3a3360e81b6044820152606401610b39565b600080600080611a2485611dc1565b945094509450945050336001600160a01b0316816001600160a01b031614611a745760405162461bcd60e51b8152602060048201526003602482015262130e8d60ea1b6044820152606401610b39565b34846001600160601b03161115611ab35760405162461bcd60e51b81526020600482015260036024820152624c3a3560e81b6044820152606401610b39565b611abc84613979565b6000611ac6612578565b9050600080611ad88533856000612598565b6001600160a01b038a1660009081526204207460205260408120839055919350915087611b0434612929565b611b0e91906156b3565b9050600082611b1d838a6156db565b611b2791906156db565b604080516001600160a01b038d1681526001600160601b038c811660208301528b168183015290519192507f55ab9f648a42ab2ae7eed81f0683a7bae5d54989d8125f397a88f72bec826917919081900360600190a1611b9033826001600160601b03166126c4565b50505050505050505050565b611ba4612578565b6001600160601b0316816001600160601b03161015611beb5760405162461bcd60e51b815260206004820152600360248201526214ce8d60ea1b6044820152606401610b39565b611bf4826125ea565b600080611c0184336128db565b8051919350915015611c1557611c156156fd565b6000611c25600033866001612598565b50808455604080516001600160a01b03881681523360208201526001600160601b038716918101919091529091507f3d175b4f67d380f8c4185f649f2cfeda5da34c1156302187ac843b620f9c9cd39060600161117c565b6060610af182613a8f565b6204206d546001600160a01b031680611cc95760405162461bcd60e51b8152602060048201526003602482015262543a3360e81b6044820152606401610b39565b6000611cd4836131ad565b90506000611ce1846136b1565b6040516380011aa760e01b81526001600160a01b03868116600483015260248201859052336044830152919250908416906380011aa7906001600160601b038416906064016000604051808303818588803b158015611d3f57600080fd5b505af1158015611d53573d6000803e3d6000fd5b5050604080516001600160a01b038089168252891660208201529081018690523360608201526001600160601b03851660808201527f58ca548c1fd63f641dfb02f79df36d4f29bd995f0733d2ed3595b6cfde7db4e1935060a0019150610d349050565b6060610bff613b88565b600080600080600080611deb876001600160a01b0316600090815262042074602052604090205490565b905080611e205760405162461bcd60e51b81526020600482015260036024820152624c3a3160e81b6044820152606401610b39565b6000611e2b82612d81565b90506000611e37612578565b9050612710611e47606484615713565b611e519190615758565b9650611e5d87836156db565b9750806001600160601b0316886001600160601b03161015611e8857611e8388826156b3565b611e8b565b60005b95506103e8611e9984612da3565b611ea3919061568b565b9450611eae83612df6565b935050505091939590929450565b6060611f246040518061016001604052806000815260200160008152602001606081526020016060815260200160006001600160a01b031681526020016000815260200160008152602001606081526020016060815260200160608152602001606081525090565b6000806000806000611f3d611f388961271f565b613b98565b94509450945094509450611f5084613bb4565b9650604051806101600160405280600181526020014281526020016040518060400160405280600981526020017f4e7567674654205631000000000000000000000000000000000000000000000081525081526020016040518060400160405280601681526020017f4e7567672046756e6769626c6520546f6b656e20563100000000000000000000815250815260200161200f611fed8b61271f565b6001600160a01b03908116600090815262042069602052604090205416151590565b61201a576000612026565b6120266112418b61271f565b6001600160a01b031681526020018981526020018681526020018581526020018481526020018381526020018281525095505050505050915091565b6001600160a01b0380831660009081526204206c6020908152604080832093851683529290529081205460ff165b9392505050565b60006120a282611dc1565b509295945050505050565b6120b681612523565b6001600160a01b0316306001600160a01b0316146120fc5760405162461bcd60e51b8152602060048201526003602482015262261d1b60e91b6044820152606401610b39565b600080600080600061210d86611dc1565b945063ffffffff16945094509450945061213d866001600160a01b03166000908152620420746020526040812055565b600061214761258d565b90508063ffffffff16836001600160601b03161061219d576001600160a01b038216331461219d5760405162461bcd60e51b81526020600482015260036024820152624c3a3760e81b6044820152606401610b39565b34866001600160601b031611156121dc5760405162461bcd60e51b815260206004820152600360248201526209874760eb1b6044820152606401610b39565b60006121e734612929565b905060006121f587836156b3565b9050600061220382886156db565b604080516001600160a01b038d1681526001600160601b038b811660208301528a168183015290519192507f55ab9f648a42ab2ae7eed81f0683a7bae5d54989d8125f397a88f72bec826917919081900360600190a1604080516001600160a01b038c1681523360208201526001600160601b038b168183015290517f563fb66b43e6ac55166c353532257057a2fe86a1566c988840baecf6bca1025a9181900360600190a16122b288613979565b6122c533826001600160601b03166126c4565b611b90338b612d24565b336122d984612523565b6001600160a01b0316146123155760405162461bcd60e51b8152602060048201526003602482015262533a3760e81b6044820152606401610b39565b61231f8383613cd2565b60008061232d858587612bda565b805191935091501561236b5760405162461bcd60e51b8152602060048201526007602482015266053433a53493a360cc1b6044820152606401610b39565b600061237b600087866001612598565b5080845590507f77cfc3b2aafc5344a53b50b3c7938afac3d04e0f564e929aa8d1f398e67f1ccc86866123ad84612d81565b604080516001600160a01b03909416845261ffff90921660208401526001600160601b03169082015260600160405180910390a1505050505050565b336123f384612523565b6001600160a01b0316146124325760405162461bcd60e51b8152600401610b399060208082526004908201526328219d1960e11b604082015260600190565b81516008148015612444575080516008145b6124795760405162461bcd60e51b8152600401610b399060208082526004908201526350433a3360e01b604082015260600190565b6000612484846131ad565b9050612491818484613dc4565b6001600160a01b0385166000908152620420726020526040902081905590507f73904d03f919661d854e7b284dd6f818c038e7cce6237422aca32cc599a0826784828585604051610d34949392919061577e565b60006060806060806124f686613b98565b939a9299509097509550909350915050565b640100042069805463ffffffff19164363ffffffff16179055565b6001600160a01b03818116600090815262042069602052604090205416806125735760405162461bcd60e51b8152602060048201526003602482015262543a4160e81b6044820152606401610b39565b919050565b6000610bff6125886204206e5490565b613de0565b6000610bff43613e30565b6000806125a58287613e71565b91506125b18286613eaa565b915082156125c7576125c4826001613ec7565b91505b6125d18285613efe565b90925090506125df82613f58565b915094509492505050565b6125f381612523565b6001600160a01b0316336001600160a01b031614801561262357503061261882612739565b6001600160a01b0316145b6126555760405162461bcd60e51b8152602060048201526003602482015262150e8d60ea1b6044820152606401610b39565b6001600160a01b038116600081815262042069602090815260408083208054306001600160a01b031991821681179092556204206b909352818420805490931690925551909133917fddf252ad1be2c89b69c2b068fc378daa952ba7f163c4a11628f55a4df523b3ef9190a450565b600080600080600085875af1905080610eab5760405162461bcd60e51b815260206004820152601360248201527f4554485f5452414e534645525f4641494c4544000000000000000000000000006044820152606401610b39565b60006001600160a01b0382111561273557600080fd5b5090565b6001600160a01b03808216600090815262042069602052604081205490911661278a5760405162461bcd60e51b8152602060048201526003602482015262543a3960e81b6044820152606401610b39565b620420695b6001600160a01b0392831660009081526002919091016020526040902054909116919050565b60006127c082612523565b9050806001600160a01b0316836001600160a01b0316141561280a5760405162461bcd60e51b8152602060048201526003602482015262543a3360e81b6044820152606401610b39565b336001600160a01b038216148061284657506001600160a01b03811660009081526204206c6020908152604080832033845290915290205460ff165b6128785760405162461bcd60e51b8152602060048201526003602482015262543a3160e81b6044820152606401610b39565b6001600160a01b0382811660008181526204206b602052604080822080546001600160a01b031916888616908117909155905192939092908516917f8c5be1e5ebec7d5bd14f71427d1e84f3dd0314c0f7b2291e5b200ac8c7c3b92591a4505050565b6040805160808101825260008082526020808301829052828401829052606083018290526001600160a01b038616825262042075905291822091506129208284613f88565b90509250929050565b60006001600160601b0382111561273557600080fd5b61294b61154634612929565b61295481614028565b6040516001600160a01b0382169030906000907fddf252ad1be2c89b69c2b068fc378daa952ba7f163c4a11628f55a4df523b3ef908290a450565b60208101511580156129a15750805115155b6129ad576129ad6156fd565b805160ff1c6001146129c1576129c16156fd565b60008060006129f28460000151856040015160016129df919061568b565b86606001516129ed34612929565b6140ea565b82885560408701519295506001600160601b039182169450169150612a2490612a1c90600161568b565b855190613e71565b856001016000612a378760000151612df6565b6001600160a01b03168152602081019190915260400160002055611185612a616113d583856157c3565b613979565b8051612a7190612da3565b63ffffffff16816040015163ffffffff161115612ad05760405162461bcd60e51b815260206004820152600860248201527f534c3a4f42503a330000000000000000000000000000000000000000000000006044820152606401610b39565b80606001516001600160a01b0316612aeb8260000151612df6565b6001600160a01b031614612b25578051600183016000612b0a83612df6565b6001600160a01b031681526020810191909152604001600020555b6000806000612b5c84600001518560600151612b4034612929565b612b4d8860200151612d81565b612b5791906156db565b614174565b82885591945092509050611185612a616113d583856157c3565b3360009081526320002467602081905260409091205460ff16612bc15760405162461bcd60e51b8152602060048201526003602482015262543a3160e81b6044820152606401610b39565b50565b6000610bff612bd46204206e5490565b60c01c90565b6040805160808101825260008082526020808301829052828401829052606083018290526001600160a01b038716825262042075815283822061ffff8716835260020190529182209150612c2e8284613f88565b9050935093915050565b6000610bff612c486204206e5490565b60601c90565b6000610bff612c5e6204206e5490565b90565b6000816020015160001415612c9e5760405162461bcd60e51b81526020600482015260036024820152620a674760eb1b6044820152606401610b39565b6000612cad8360000151612da3565b63ffffffff16836040015163ffffffff161190506000612cd08460000151612df6565b6001600160a01b0316612ce68560200151612df6565b6001600160a01b03161490506000612d088560000151600160ff9190911c1490565b90508080612d1b5750818015612d1b5750825b95945050505050565b6001600160a01b03818116600081815262042069602052604080822080546001600160a01b03191694871694851790555191929130917fddf252ad1be2c89b69c2b068fc378daa952ba7f163c4a11628f55a4df523b3ef91a45050565b6000610af16113d560a084901c66ffffffffffffff166509184e72a0006157db565b6000610af163ffffffff60d884901c166141a7565b6141a7565b6000612dd2612dcd6204206e5490565b6141ba565b50919392505050565b6000612710612dec836127d86157db565b610af191906157fa565b6000610af16001600160a01b03831661271f565b806001600160601b0316341015612e495760405162461bcd60e51b8152602060048201526003602482015262543a3560e81b6044820152606401610b39565b6000612e566204206e5490565b90506000806000612e6684614221565b925092509250600080612e78866141ba565b509250509150816001600160601b0316876001600160601b03161015612ec65760405162461bcd60e51b81526020600482015260036024820152622a1d1960e91b6044820152606401610b39565b6000612ed283896156b3565b9050612edd81614246565b612ee790836156db565b9150612fbc6111d5612ef984876156db565b612f9d612f06868d6156b3565b612f10908a6156db565b612f5e612f1e8c600161580e565b77ffffffffffffffffffffffffffffffffffffffffffffffff8e1660c09190911b77ffffffffffffffffffffffffffffffffffffffffffffffff19161790565b77ffffffffffffffffffffffff000000000000000000000000191660609190911b77ffffffffffffffffffffffff000000000000000000000000161790565b6bffffffffffffffffffffffff19166001600160601b03919091161790565b7fcc7b20c8500e3dfc952e445cc296459e4e7148bead08f530844981e1c1236e4e612fe7838a6156b3565b604080516001600160601b03928316815291851660208301520160405180910390a15050505050505050565b6001600160a01b0381166000908152620420726020526040902054156130615760405162461bcd60e51b81526020600482015260036024820152620503a360ec1b6044820152606401610b39565b60008161306f600143615831565b6040516204206960ec1b602082015260609290921b6bffffffffffffffffffffffff1916602383015240603782015260570160408051601f1981840301815291905280516020909101209050806130ee5760405162461bcd60e51b8152602060048201526003602482015262503a3160e81b6044820152606401610b39565b6000806130fa83614261565b6001600160a01b0386166000908152620420726020526040902082905590925090505b7f3c2693eb3bc9fd62db9b727df67972a7372cca5a21f9b4a5c05d48363273c247848383604051610d3493929190615848565b6001600160a01b03818116600081815262042069602052604080822080546001600160a01b0319169487169485179055519192917fddf252ad1be2c89b69c2b068fc378daa952ba7f163c4a11628f55a4df523b3ef908290a45050565b6001600160a01b0381166000908152620420726020526040902054806125735760405162461bcd60e51b81526020600482015260036024820152620503a360ec1b6044820152606401610b39565b600080613209846000614659565b90506000613218856040614659565b90506000818560ff168151811061323157613231615870565b60200260200101519050828560ff168151811061325057613250615870565b6020026020010151828660ff168151811061326d5761326d615870565b602002602001019060ff16908160ff168152505080838660ff168151811061329757613297615870565b602002602001019060ff16908160ff16815250506132b7866000856146d9565b93506132c5846040846146d9565b9695505050505050565b6000806132dd846080614659565b905060006132ec8560c0614659565b90506000818560ff168151811061330557613305615870565b602002602001019060ff16908160ff16815250506000828560ff168151811061333057613330615870565b602002602001019060ff16908160ff1681525050613350856080846146d9565b9250612d1b8360c0836146d9565b600061336982614755565b905060008160ff16116133a75760405162461bcd60e51b8152600401610b3990602080825260049082015263056433a360e41b604082015260600190565b60405174ff000000000000000000000000000000000000000060a083901b16906000906133f2906133de90879087906020016158d5565b604051602081830303815290604052614765565b60ff871660009081526204207060209081526040822080546001810182559083529082200180547fffffffffffffffffffffff000000000000000000000000000000000000000000166001600160a01b03841674ffffffffffffffffffffffffffffffffffffffffff8716171790556204206f5491925061347282614819565b905084818960ff168151811061348a5761348a615870565b6020026020010181815161349e9190615973565b60ff169052506134ae8282614826565b6204206f555050505050505050565b336134c783612523565b6001600160a01b0316146135065760405162461bcd60e51b8152600401610b3990602080825260049082015263050433a360e41b604082015260600190565b6000613511836131ad565b61ffff8316600090815262042073602052604090205490915061355f5760405162461bcd60e51b8152600401610b399060208082526004908201526352433a3360e01b604082015260600190565b61ffff82166000908152620420736020526040812080549161358083615998565b919050555061358f8183614834565b6001600160a01b03841660008181526204207260209081526040918290208490558151928352820183905261ffff8516908201529091507f1e3ac88633ac111203e2a7614365c5e3df507302c9fb545dd85d8fcef753afce90606001610e68565b336001600160a01b0383161480159061361157506001600160a01b03821630145b6136435760405162461bcd60e51b81526020600482015260036024820152620543a360ec1b6044820152606401610b39565b3360008181526204206c602090815260408083206001600160a01b03871680855290835292819020805460ff191686151590811790915590519081529192917f17307eab39ab6107e8899845ad3d59bd9653f200f220920489ca2b5937696c31910160405180910390a35050565b6000336136bd83612523565b6001600160a01b0316146136f95760405162461bcd60e51b8152602060048201526003602482015262150e8d60ea1b6044820152606401610b39565b60006137066204206e5490565b9050613711836148e0565b60008061371d83614221565b509150915061372b83613de0565b935060018267ffffffffffffffff16101561376e5760405162461bcd60e51b8152602060048201526003602482015262543a3560e81b6044820152606401610b39565b836001600160601b0316816001600160601b031610156137b65760405162461bcd60e51b81526020600482015260036024820152622a1d1b60e91b6044820152606401610b39565b6138146111d56137c686846156b3565b612f5e6137d46001876159af565b77ffffffffffffffffffffffffffffffffffffffffffffffff881660c09190911b77ffffffffffffffffffffffffffffffffffffffffffffffff19161790565b604080516001600160601b03861681523360208201527e96b8566d099a5618a665405b3df20d5a7f2293fce2fc9405d36a2ee3deab3f910160405180910390a1505050919050565b60006204206f61278f565b600080600080613875614a0a565b50925092509250846001600160a01b03168214801561389357508215155b156138a057949350505050565b6001600160a01b03851660009081526204207260205260409020549350836138f05760405162461bcd60e51b8152602060048201526003602482015262503a3160e81b6044820152606401610b39565b505050919050565b60008061390483612523565b9050806001600160a01b0316846001600160a01b0316148061393f5750836001600160a01b031661393484612739565b6001600160a01b0316145b8061397157506001600160a01b0380821660009081526204206c602090815260408083209388168352929052205460ff165b949350505050565b806001600160601b03163410156139b85760405162461bcd60e51b8152602060048201526003602482015262543a3760e81b6044820152606401610b39565b60006139c56204206e5490565b905060006139d283614246565b9050613a456111d56139e483856156db565b612f9d6139f185886156b3565b6139fb8760601c90565b613a0591906156db565b77ffffffffffffffffffffffff00000000000000000000000019871660609190911b77ffffffffffffffffffffffff000000000000000000000000161790565b7fcc7b20c8500e3dfc952e445cc296459e4e7148bead08f530844981e1c1236e4e613a7082856156b3565b604080516001600160601b039283168152918416602083015201610e68565b60606000613a9c8361271f565b6001600160a01b0380821660009081526204207160205260408120549293509116613ad2576000546001600160a01b0316613adb565b613adb8261385c565b6000546040516303235b5f60e31b8152306004820152602481018790526001600160a01b03838116604483015260ff600160a01b840481166064840152600160a81b840416608483015292935091169063191adaf89060a40160006040518083038186803b158015613b4c57600080fd5b505afa158015613b60573d6000803e3d6000fd5b505050506040513d6000823e601f3d908101601f1916820160405261397191908101906159d0565b6060610bff6204206f5b54614819565b6000606080606080613ba986613867565b94506124f685614a3a565b6060815167ffffffffffffffff811115613bd057613bd0615187565b604051908082528060200260200182016040528015613c0357816020015b6060815260200190600190039081613bee5790505b50905060005b82518160ff161015613ccc57828160ff1681518110613c2a57613c2a615870565b602002602001015160ff1660001415613c73576040805160008152602081019091528251839060ff8416908110613c6357613c63615870565b6020026020010181905250613cba565b613c9981848360ff1681518110613c8c57613c8c615870565b6020026020010151614a7d565b828260ff1681518110613cae57613cae615870565b60200260200101819052505b80613cc481615a3e565b915050613c09565b50919050565b33613cdc83612523565b6001600160a01b031614613d1b5760405162461bcd60e51b8152600401610b399060208082526004908201526350433a3160e01b604082015260600190565b6000613d26836131ad565b9050613d328183614ce5565b6001600160a01b03841660009081526204207260205260409020819055905061ffff821660009081526204207360205260408120805491613d7283615a5e565b9091555050604080516001600160a01b03851681526020810183905261ffff8416918101919091527f399c4ec95d9ea42a0f3dda50055e3a2901f9640121b0b29865e688c08188596b90606001610e68565b6000613dd2846080856146d9565b90506139718160c0846146d9565b6000613dec8260c01c90565b67ffffffffffffffff1615613e2857613e058260c01c90565b67ffffffffffffffff16613e198360601c90565b613e239190615758565b610af1565b600092915050565b6000610af1610bb86045613e4d6401000420695463ffffffff1690565b613e5d9063ffffffff1686615831565b613e6791906157fa565b612db891906157c3565b60007fff00000000ffffffffffffffffffffffffffffffffffffffffffffffffffffff831663ffffffff60d81b60d884901b1617612090565b60006001600160a01b031983166001600160a01b03831617612090565b600061209083600160ff85613edd576000613ee0565b60015b60ff16811b600190921b6000190160ff919091161b19919091161790565b600080613f116509184e72a00084615a79565b9050613f4f84603860a0613f2b6509184e72a00088615758565b6001600160601b0316811b600190921b6000190160ff919091161b19919091161790565b91509250929050565b60007fbfffffffffffffffffffffffffffffffffffffffffffffffffffffffffffffff8216600160fe1b17610af1565b6040805160808101825260006020820181905291810182905260608101919091528254808252613fb661258d565b63ffffffff1660408301526001600160a01b0383166060830152613fd981612df6565b6001600160a01b0316836001600160a01b03161415613ffe5760208201819052614021565b6001600160a01b0383166000908152600185016020908152604090912054908301525b5092915050565b6001600160a01b0381166000908152620420726020526040902054156140765760405162461bcd60e51b8152602060048201526003602482015262281d1960e91b6044820152606401610b39565b6000806000614083614a0a565b93509350935050836001600160a01b031683146140c85760405162461bcd60e51b8152602060048201526003602482015262140e8d60ea1b6044820152606401610b39565b6001600160a01b0384166000908152620420726020526040902082905561311d565b6000806000806140f988612d81565b9050846001600160601b0316614117826001600160601b0316612ddb565b111561414b5760405162461bcd60e51b8152602060048201526003602482015262453a3160e81b6044820152606401610b39565b6141588787876000612598565b909450915061416781866156b3565b9250509450945094915050565b600080600061418d8661418688612da3565b87876140ea565b91986001600160601b039182169850911695509350505050565b600063ffffffff82111561273557600080fd5b6000806000806141c985613de0565b92506141d483614246565b91506127106141e38660c01c90565b6141f79067ffffffffffffffff1685615713565b6142019190615758565b90508061420e83856156db565b61421891906156db565b93509193509193565b60008060006142308460c01c90565b925061423c8460601c90565b9294929392915050565b60006127106142576103e884615713565b610af19190615758565b60006060826142985760405162461bcd60e51b8152602060048201526003602482015262281d1b60e91b6044820152606401610b39565b60006142a2613b88565b6040805160088082526101208201909252919250602082016101008036833701905050915060006142d4856000614659565b9050816000815181106142e9576142e9615870565b60200260200101518160008151811061430457614304615870565b60200260200101516143169190615a9f565b614321906001615973565b8360008151811061433457614334615870565b602002602001019060ff16908160ff16815250508160018151811061435b5761435b615870565b60200260200101518160018151811061437657614376615870565b60200260200101516143889190615a9f565b614393906001615973565b836001815181106143a6576143a6615870565b602002602001019060ff16908160ff1681525050816002815181106143cd576143cd615870565b6020026020010151816002815181106143e8576143e8615870565b60200260200101516143fa9190615a9f565b614405906001615973565b8360028151811061441857614418615870565b602002602001019060ff16908160ff168152505060608160038151811061444157614441615870565b602002602001015160ff1610156144c9578160038151811061446557614465615870565b60200260200101518160048151811061448057614480615870565b60200260200101516144929190615a9f565b61449d906001615973565b836003815181106144b0576144b0615870565b602002602001019060ff16908160ff1681525050614644565b60c0816003815181106144de576144de615870565b602002602001015160ff16101561454d578160048151811061450257614502615870565b60200260200101518160048151811061451d5761451d615870565b602002602001015161452f9190615a9f565b61453a906001615973565b836004815181106144b0576144b0615870565b60fa8160038151811061456257614562615870565b602002602001015160ff1610156145d1578160058151811061458657614586615870565b6020026020010151816004815181106145a1576145a1615870565b60200260200101516145b39190615a9f565b6145be906001615973565b836005815181106144b0576144b0615870565b816006815181106145e4576145e4615870565b6020026020010151816004815181106145ff576145ff615870565b60200260200101516146119190615a9f565b61461c906001615973565b8360068151811061462f5761462f615870565b602002602001019060ff16908160ff16815250505b614650846000856146d9565b93505050915091565b604080516008808252610120820190925292821c67ffffffffffffffff1692606091602082016101008036833701905050905060005b6008811015614021578360ff168282815181106146ae576146ae615870565b60ff9092166020928302919091019091015260089390931c92806146d181615a5e565b91505061468f565b600060085b801561473a576146ef600182615831565b6146fa9060086157db565b83614706600184615831565b8151811061471657614716615870565b602002602001015160ff16901b82179150808061473290615998565b9150506146de565b5067ffffffffffffffff60ff84161b19841681841b17613971565b600060ff82111561273557600080fd5b600080826040516020016147799190615ac1565b604051602081830303815290604052905060008151826040516020016147a0929190615ae7565b60405160208183030381529060405290508051602082016000f092506001600160a01b0383166148125760405162461bcd60e51b815260206004820152601160248201527f4445504c4f594d454e545f4641494c45440000000000000000000000000000006044820152606401610b39565b5050919050565b6060610af1826000614659565b6000612090836000846146d9565b600080614842846040614659565b805190915060ff600885901c8116919085169083908390811061486757614867615870565b602002602001015160ff166000146148aa5760405162461bcd60e51b8152600401610b3990602080825260049082015263050503a360e41b604082015260600190565b80838360ff16815181106148c0576148c0615870565b602002602001019060ff16908160ff16815250506132c5866040856146d9565b306148ea82612739565b6001600160a01b0316146149265760405162461bcd60e51b81526020600482015260036024820152622a1d1b60e91b6044820152606401610b39565b3361493082612523565b6001600160a01b03161461496c5760405162461bcd60e51b8152602060048201526003602482015262543a3760e81b6044820152606401610b39565b6001600160a01b0381166000818152620420696020908152604080832080546001600160a01b03199081169091556204206b83528184208054821690556204207583528184208490556204207483528184208490556204207283528184208490556204207190925280832080549092169091555133907fddf252ad1be2c89b69c2b068fc378daa952ba7f163c4a11628f55a4df523b3ef908390a450565b60008060006060614a19614d72565b90945063ffffffff169250614a2d84614261565b9495939490939092509050565b806060808080614a4b856000614659565b9350614a58866040614659565b9250614a65866080614659565b9150614a728660c0614659565b905091939590929450565b606060ff8216614ab85760405162461bcd60e51b8152600401610b39906020808252600490820152632b219d1960e11b604082015260600190565b81614ac281615b49565b9250506000614ad4613b926204206f90565b8460ff1681518110614ae857614ae8615870565b602002602001015190508060ff168360ff1610614b305760405162461bcd60e51b8152600401610b399060208082526004908201526356433a3160e01b604082015260600190565b60ff84166000908152620420706020908152604080832080548251818502810185019093528083529192909190830182828015614ba457602002820191906000526020600020905b815474ffffffffffffffffffffffffffffffffffffffffff168152600190910190602001808311614b78575b50505050509050600080600080600090505b8451811015614c6057600060a0868381518110614bd557614bd5615870565b602002602001015174ffffffffffffffffffffffffffffffffffffffffff16901c90508860ff168184614c089190615973565b60ff161115614c4157858281518110614c2357614c23615870565b602002602001015194508289614c399190615b66565b935050614c60565b614c4b8184615973565b92505080614c5881615a5e565b915050614bb6565b506001600160a01b038316614ca05760405162461bcd60e51b8152600401610b39906020808252600490820152632b219d1960e11b604082015260600190565b614ca983614e29565b806020019051810190614cbc9190615b89565b8260ff1681518110614cd057614cd0615870565b60200260200101519550505050505092915050565b600080614cf3846040614659565b805190915060ff600885901c811691908516908190849084908110614d1a57614d1a615870565b602002602001015160ff1614614d5b5760405162461bcd60e51b8152600401610b399060208082526004908201526350503a3160e01b604082015260600190565b6000838360ff16815181106148c0576148c0615870565b600080614d7d61258d565b90506000614d8a82614e4a565b90506000614d99600183615831565b40905080614dd35760405162461bcd60e51b8152602060048201526007602482015266115410ce94d09360ca1b6044820152606401610b39565b6040805160208082019390935260e085901b6001600160e01b031916818301523060601b6bffffffffffffffffffffffff1916604482015281516038818303018152605890910190915280519101209391925050565b6060610af1826001614e45816001600160a01b0384163b615831565b614e8d565b6000614e5f6401000420695463ffffffff1690565b63ffffffff166045614e73610bb885615c90565b63ffffffff16614e8391906157db565b610af191906157c3565b60408051603f83850101601f19168101909152818152818360208301863c9392505050565b600060208284031215614ec457600080fd5b81356001600160e01b03198116811461209057600080fd5b6001600160a01b0381168114612bc157600080fd5b600060208284031215614f0357600080fd5b813561209081614edc565b60005b83811015614f29578181015183820152602001614f11565b83811115610bef5750506000910152565b60008151808452614f52816020860160208601614f0e565b601f01601f19169290920160200192915050565b6020815260006120906020830184614f3a565b600060208284031215614f8b57600080fd5b5035919050565b60008060408385031215614fa557600080fd5b8235614fb081614edc565b946020939093013593505050565b60008060408385031215614fd157600080fd5b8235614fdc81614edc565b915060208301358015158114614ff157600080fd5b809150509250929050565b60008060006060848603121561501157600080fd5b833561501c81614edc565b9250602084013561502c81614edc565b929592945050506040919091013590565b803561ffff8116811461257357600080fd5b60008060006060848603121561506457600080fd5b833561506f81614edc565b925061507d6020850161503d565b9150604084013561508d81614edc565b809150509250925092565b600080604083850312156150ab57600080fd5b82356150b681614edc565b91506020830135614ff181614edc565b803560ff8116811461257357600080fd5b600080604083850312156150ea57600080fd5b82356150f581614edc565b9150612920602084016150c6565b60008060006040848603121561511857600080fd5b833567ffffffffffffffff8082111561513057600080fd5b818601915086601f83011261514457600080fd5b81358181111561515357600080fd5b8760208260051b850101111561516857600080fd5b60209283019550935061517e91860190506150c6565b90509250925092565b634e487b7160e01b600052604160045260246000fd5b604051601f8201601f1916810167ffffffffffffffff811182821017156151c6576151c6615187565b604052919050565b600067ffffffffffffffff8211156151e8576151e8615187565b50601f01601f191660200190565b6000806000806080858703121561520c57600080fd5b843561521781614edc565b9350602085013561522781614edc565b925060408501359150606085013567ffffffffffffffff81111561524a57600080fd5b8501601f8101871361525b57600080fd5b803561526e615269826151ce565b61519d565b81815288602083850101111561528357600080fd5b8160208401602083013760006020838301015280935050505092959194509250565b600080604083850312156152b857600080fd5b823591506020830135614ff181614edc565b80356001600160601b038116811461257357600080fd5b600080604083850312156152f457600080fd5b82356152ff81614edc565b9150612920602084016152ca565b600081518084526020808501945080840160005b8381101561534057815160ff1687529582019590820190600101615321565b509495945050505050565b602081526000612090602083018461530d565b60006101608251845260208301516020850152604083015181604086015261538882860182614f3a565b915050606083015184820360608601526153a28282614f3a565b91505060808301516153bf60808601826001600160a01b03169052565b5060a083015160a085015260c083015160c085015260e083015184820360e08601526153eb828261530d565b9150506101008084015185830382870152615406838261530d565b925050506101208084015185830382870152615422838261530d565b9250505061014080840151858303828701526132c5838261530d565b6000604082016040835280855180835260608501915060608160051b860101925060208088016000805b848110156154bc57888703605f19018652825180518089529085019085890190845b818110156154a65783518352928701929187019160010161548a565b5090985050509483019491830191600101615468565b50505085840381870152505050612d1b818561535e565b6000806000606084860312156154e857600080fd5b83356154f381614edc565b92506155016020850161503d565b915061517e604085016152ca565b600067ffffffffffffffff82111561552957615529615187565b5060051b60200190565b600082601f83011261554457600080fd5b813560206155546152698361550f565b82815260059290921b8401810191818101908684111561557357600080fd5b8286015b8481101561559557615588816150c6565b8352918301918301615577565b509695505050505050565b6000806000606084860312156155b557600080fd5b83356155c081614edc565b9250602084013567ffffffffffffffff808211156155dd57600080fd5b6155e987838801615533565b935060408601359150808211156155ff57600080fd5b5061560c86828701615533565b9150509250925092565b85815260a06020820152600061562f60a083018761530d565b8281036040840152615641818761530d565b90508281036060840152615655818661530d565b90508281036080840152615669818561530d565b98975050505050505050565b634e487b7160e01b600052601160045260246000fd5b600063ffffffff8083168185168083038211156156aa576156aa615675565b01949350505050565b60006001600160601b03838116908316818110156156d3576156d3615675565b039392505050565b60006001600160601b038083168185168083038211156156aa576156aa615675565b634e487b7160e01b600052600160045260246000fd5b60006001600160601b038083168185168183048111821515161561573957615739615675565b02949350505050565b634e487b7160e01b600052601260045260246000fd5b60006001600160601b038084168061577257615772615742565b92169190910492915050565b6001600160a01b03851681528360208201526080604082015260006157a6608083018561530d565b82810360608401526157b8818561530d565b979650505050505050565b600082198211156157d6576157d6615675565b500190565b60008160001904831182151516156157f5576157f5615675565b500290565b60008261580957615809615742565b500490565b600067ffffffffffffffff8083168185168083038211156156aa576156aa615675565b60008282101561584357615843615675565b500390565b6001600160a01b0384168152826020820152606060408201526000612d1b606083018461530d565b634e487b7160e01b600052603260045260246000fd5b81835260007f07ffffffffffffffffffffffffffffffffffffffffffffffffffffffffffffff8311156158b857600080fd5b8260051b8083602087013760009401602001938452509192915050565b6020808252818101839052600090600560408085019086831b86010187855b8881101561596557878303603f190184528135368b9003601e1901811261591a57600080fd5b8a01803567ffffffffffffffff81111561593357600080fd5b80871b36038c131561594457600080fd5b61595185828a8501615886565b9588019594505050908501906001016158f4565b509098975050505050505050565b600060ff821660ff84168060ff0382111561599057615990615675565b019392505050565b6000816159a7576159a7615675565b506000190190565b600067ffffffffffffffff838116908316818110156156d3576156d3615675565b6000602082840312156159e257600080fd5b815167ffffffffffffffff8111156159f957600080fd5b8201601f81018413615a0a57600080fd5b8051615a18615269826151ce565b818152856020838501011115615a2d57600080fd5b612d1b826020830160208601614f0e565b600060ff821660ff811415615a5557615a55615675565b60010192915050565b6000600019821415615a7257615a72615675565b5060010190565b60006001600160601b0380841680615a9357615a93615742565b92169190910692915050565b600060ff831680615ab257615ab2615742565b8060ff84160691505092915050565b6000815260008251615ada816001850160208701614f0e565b9190910160010192915050565b606360f81b815263ffffffff60e01b8360e01b1660018201527f80600e6000396000f30000000000000000000000000000000000000000000000600582015260008251615b3b81600e850160208701614f0e565b91909101600e019392505050565b600060ff821680615b5c57615b5c615675565b6000190192915050565b600060ff821660ff841680821015615b8057615b80615675565b90039392505050565b60006020808385031215615b9c57600080fd5b825167ffffffffffffffff80821115615bb457600080fd5b818501915085601f830112615bc857600080fd5b8151615bd66152698261550f565b818152600591821b8401850191858201919089841115615bf557600080fd5b8686015b84811015615c8157805186811115615c115760008081fd5b8701603f81018c13615c235760008081fd5b888101516040615c356152698361550f565b82815291851b83018101918b8101908f841115615c525760008081fd5b938201935b83851015615c705784518252938c0193908c0190615c57565b885250505093880193508701615bf9565b50909998505050505050505050565b600063ffffffff838116908316818110156156d3576156d361567556fea2646970667358221220c8e8a3fada1f72949b84f9fc9585d2557edd28dfb26d29b832fb7dd340a85bc164736f6c63430008090033",
  "devdoc": {
    "kind": "dev",
    "methods": {
      "approve(address,uint256)": {
        "details": "Gives permission to `to` to transfer `tokenId` token to another account. The approval is cleared when the token is transferred. Only a single account can be approved at a time, so approving the zero address clears previous approvals. Requirements: - The caller must own the token or be an approved operator. - `tokenId` must exist. Emits an {Approval} event."
      },
      "extractProtocolEth()": {
        "details": "caller must be a trusted user"
      },
      "getApproved(uint256)": {
        "details": "Returns the account approved for `tokenId` token. Requirements: - `tokenId` must exist."
      },
      "isApprovedForAll(address,address)": {
        "details": "Returns if the `operator` is allowed to manage all of the assets of `owner`. See {setApprovalForAll}"
      },
      "loanInfo(uint160)": {
        "details": "contract ->frontend -> used to set the amount of eth for user",
        "params": {
          "tokenId": "the token who's current loan to check"
        },
        "returns": {
          "earned": "-> the amount of eth the minSharePrice has increased since loan was last rebalanced",
          "epochDue": "-> the final epoch a user is safe from liquidation (inclusive)",
          "loaner": "-> the user responsable for the loan",
          "toPayoff": "->  the current amount loaned out, plus the final rebalance fee",
          "toRebalance": "->  the fee a user must pay to rebalance (and extend) the loan on their nugg"
        }
      },
      "name()": {
        "details": "Returns the token collection name."
      },
      "ownerOf(uint256)": {
        "details": "Returns the owner of the `tokenId` token. Requirements: - `tokenId` must exist."
      },
      "setApprovalForAll(address,bool)": {
        "details": "Approve or remove `operator` as an operator for the caller. Operators can call {transferFrom} or {safeTransferFrom} for any token owned by the caller. Requirements: - The `operator` cannot be the caller. Emits an {ApprovalForAll} event."
      },
      "setMigrator(address)": {
        "details": "caller must be a trusted user",
        "params": {
          "migrator": "the address to set as the migrator contract"
        }
      },
      "supportsInterface(bytes4)": {
        "details": "Returns true if this contract implements the interface defined by `interfaceId`. See the corresponding https://eips.ethereum.org/EIPS/eip-165#how-interfaces-are-identified[EIP section] to learn more about how these ids are created. This function call must use less than 30 000 gas."
      },
      "symbol()": {
        "details": "Returns the token collection symbol."
      },
      "valueForDelegate(uint160,address)": {
        "details": "returns 0 if no delegate can be made for this oken",
        "params": {
          "tokenId": "-> the token to be delegated to",
          "user": "-> the address of the user who will be delegating"
        },
        "returns": {
          "canDelegate": "-> instead of reverting this function will return false",
          "nextSwapAmount": "-> the minimum value that must be sent with a delegate call",
          "userCurrentOffer": "->"
        }
      },
      "valueForPayoff(uint160)": {
        "details": "should be used to tell user how much eth to send for payoff"
      },
      "valueForRebalance(uint160)": {
        "details": "should be used to tell user how much eth to send for rebalance"
      },
      "withdrawStake(uint160)": {
        "details": "should only be called directly",
        "params": {
          "tokenId": "the id of the nugg being burned"
        }
      }
    },
    "version": 1
  },
  "userdoc": {
    "kind": "user",
    "methods": {
      "extractProtocolEth()": {
        "notice": "sends the current protocolEth to the user and resets the value to zero"
      },
      "loanInfo(uint160)": {
        "notice": "for a nugg's active loan: calculates the current min eth a user must send to payoff or rebalance"
      },
      "setMigrator(address)": {
        "notice": "sets the migrator contract"
      },
      "valueForDelegate(uint160,address)": {
        "notice": "calculates the minimum eth that must be sent with a delegate call"
      },
      "valueForPayoff(uint160)": {
        "notice": "\"toPayoff\" value from \"loanInfo\""
      },
      "valueForRebalance(uint160)": {
        "notice": "\"toRebalance\" value from \"loanInfo\""
      },
      "withdrawStake(uint160)": {
        "notice": "burns a nugg from existance, dealing the eth worth of that share to the user"
      }
    },
    "notice": "deviations from ERC721 standard: 1. no verificaiton the receiver is a ERC721Reciever - on top of this being a gross waste of gas, the way the swapping logic works makes this only worth calling when a user places an offer - and we did not want to call \"onERC721Recieved\" when no token was being sent. 2.",
    "version": 1
  },
  "storageLayout": {
    "storage": [
      {
        "astId": 3847,
        "contract": "src/NuggFT.sol:NuggFT",
        "label": "dotnuggV1Processor",
        "offset": 0,
        "slot": "0",
        "type": "t_address"
      },
      {
        "astId": 3852,
        "contract": "src/NuggFT.sol:NuggFT",
        "label": "defaultWidth",
        "offset": 20,
        "slot": "0",
        "type": "t_uint8"
      },
      {
        "astId": 3856,
        "contract": "src/NuggFT.sol:NuggFT",
        "label": "defaultZoom",
        "offset": 21,
        "slot": "0",
        "type": "t_uint8"
      }
    ],
    "types": {
      "t_address": {
        "encoding": "inplace",
        "label": "address",
        "numberOfBytes": "20"
      },
      "t_uint8": {
        "encoding": "inplace",
        "label": "uint8",
        "numberOfBytes": "1"
      }
    }
  }
}