{
  "address": "0x42069a24CD53DaB160d8D35ca9dB57937A457F8B",
  "abi": [
    {
      "inputs": [],
      "stateMutability": "nonpayable",
      "type": "constructor"
    },
    {
      "anonymous": false,
      "inputs": [
        {
          "indexed": true,
          "internalType": "address",
          "name": "owner",
          "type": "address"
        },
        {
          "indexed": true,
          "internalType": "address",
          "name": "approved",
          "type": "address"
        },
        {
          "indexed": true,
          "internalType": "uint256",
          "name": "tokenId",
          "type": "uint256"
        }
      ],
      "name": "Approval",
      "type": "event"
    },
    {
      "anonymous": false,
      "inputs": [
        {
          "indexed": true,
          "internalType": "address",
          "name": "owner",
          "type": "address"
        },
        {
          "indexed": true,
          "internalType": "address",
          "name": "operator",
          "type": "address"
        },
        {
          "indexed": false,
          "internalType": "bool",
          "name": "approved",
          "type": "bool"
        }
      ],
      "name": "ApprovalForAll",
      "type": "event"
    },
    {
      "anonymous": false,
      "inputs": [
        {
          "indexed": true,
          "internalType": "address",
          "name": "deployer",
          "type": "address"
        }
      ],
      "name": "Launched",
      "type": "event"
    },
    {
      "anonymous": false,
      "inputs": [
        {
          "indexed": true,
          "internalType": "address",
          "name": "from",
          "type": "address"
        },
        {
          "indexed": true,
          "internalType": "address",
          "name": "to",
          "type": "address"
        },
        {
          "indexed": true,
          "internalType": "uint256",
          "name": "tokenId",
          "type": "uint256"
        }
      ],
      "name": "Transfer",
      "type": "event"
    },
    {
      "inputs": [
        {
          "internalType": "address",
          "name": "to",
          "type": "address"
        },
        {
          "internalType": "uint256",
          "name": "tokenId",
          "type": "uint256"
        }
      ],
      "name": "approve",
      "outputs": [],
      "stateMutability": "nonpayable",
      "type": "function"
    },
    {
      "inputs": [
        {
          "internalType": "address",
          "name": "owner",
          "type": "address"
        }
      ],
      "name": "balanceOf",
      "outputs": [
        {
          "internalType": "uint256",
          "name": "",
          "type": "uint256"
        }
      ],
      "stateMutability": "view",
      "type": "function"
    },
    {
      "inputs": [],
      "name": "deployer",
      "outputs": [
        {
          "internalType": "address",
          "name": "",
          "type": "address"
        }
      ],
      "stateMutability": "view",
      "type": "function"
    },
    {
      "inputs": [
        {
          "internalType": "uint256",
          "name": "tokenId",
          "type": "uint256"
        }
      ],
      "name": "getApproved",
      "outputs": [
        {
          "internalType": "address",
          "name": "",
          "type": "address"
        }
      ],
      "stateMutability": "view",
      "type": "function"
    },
    {
      "inputs": [
        {
          "internalType": "address",
          "name": "owner",
          "type": "address"
        },
        {
          "internalType": "address",
          "name": "operator",
          "type": "address"
        }
      ],
      "name": "isApprovedForAll",
      "outputs": [
        {
          "internalType": "bool",
          "name": "",
          "type": "bool"
        }
      ],
      "stateMutability": "view",
      "type": "function"
    },
    {
      "inputs": [
        {
          "internalType": "bytes",
          "name": "data",
          "type": "bytes"
        }
      ],
      "name": "launch",
      "outputs": [],
      "stateMutability": "nonpayable",
      "type": "function"
    },
    {
      "inputs": [],
      "name": "launched",
      "outputs": [
        {
          "internalType": "bool",
          "name": "",
          "type": "bool"
        }
      ],
      "stateMutability": "view",
      "type": "function"
    },
    {
      "inputs": [],
      "name": "name",
      "outputs": [
        {
          "internalType": "string",
          "name": "",
          "type": "string"
        }
      ],
      "stateMutability": "view",
      "type": "function"
    },
    {
      "inputs": [],
      "name": "nuggGet",
      "outputs": [],
      "stateMutability": "nonpayable",
      "type": "function"
    },
    {
      "inputs": [],
      "name": "nuggSet",
      "outputs": [],
      "stateMutability": "nonpayable",
      "type": "function"
    },
    {
      "inputs": [
        {
          "internalType": "address",
          "name": "buyer",
          "type": "address"
        },
        {
          "internalType": "uint256",
          "name": "tokenId",
          "type": "uint256"
        }
      ],
      "name": "onBuyerClaim",
      "outputs": [],
      "stateMutability": "nonpayable",
      "type": "function"
    },
    {
      "inputs": [
        {
          "internalType": "address",
          "name": "minter",
          "type": "address"
        },
        {
          "internalType": "uint256",
          "name": "tokenId",
          "type": "uint256"
        }
      ],
      "name": "onMinterClaim",
      "outputs": [],
      "stateMutability": "nonpayable",
      "type": "function"
    },
    {
      "inputs": [
        {
          "internalType": "uint256",
          "name": "tokenId",
          "type": "uint256"
        }
      ],
      "name": "ownerOf",
      "outputs": [
        {
          "internalType": "address",
          "name": "",
          "type": "address"
        }
      ],
      "stateMutability": "view",
      "type": "function"
    },
    {
      "inputs": [],
      "name": "pendingTokenURI",
      "outputs": [
        {
          "internalType": "string",
          "name": "res",
          "type": "string"
        }
      ],
      "stateMutability": "view",
      "type": "function"
    },
    {
      "inputs": [
        {
          "internalType": "address",
          "name": "from",
          "type": "address"
        },
        {
          "internalType": "address",
          "name": "to",
          "type": "address"
        },
        {
          "internalType": "uint256",
          "name": "tokenId",
          "type": "uint256"
        }
      ],
      "name": "safeTransferFrom",
      "outputs": [],
      "stateMutability": "nonpayable",
      "type": "function"
    },
    {
      "inputs": [
        {
          "internalType": "address",
          "name": "from",
          "type": "address"
        },
        {
          "internalType": "address",
          "name": "to",
          "type": "address"
        },
        {
          "internalType": "uint256",
          "name": "tokenId",
          "type": "uint256"
        },
        {
          "internalType": "bytes",
          "name": "_data",
          "type": "bytes"
        }
      ],
      "name": "safeTransferFrom",
      "outputs": [],
      "stateMutability": "nonpayable",
      "type": "function"
    },
    {
      "inputs": [
        {
          "internalType": "address",
          "name": "operator",
          "type": "address"
        },
        {
          "internalType": "bool",
          "name": "approved",
          "type": "bool"
        }
      ],
      "name": "setApprovalForAll",
      "outputs": [],
      "stateMutability": "nonpayable",
      "type": "function"
    },
    {
      "inputs": [
        {
          "internalType": "bytes4",
          "name": "interfaceId",
          "type": "bytes4"
        }
      ],
      "name": "supportsInterface",
      "outputs": [
        {
          "internalType": "bool",
          "name": "",
          "type": "bool"
        }
      ],
      "stateMutability": "view",
      "type": "function"
    },
    {
      "inputs": [],
      "name": "symbol",
      "outputs": [
        {
          "internalType": "string",
          "name": "",
          "type": "string"
        }
      ],
      "stateMutability": "view",
      "type": "function"
    },
    {
      "inputs": [
        {
          "internalType": "uint256",
          "name": "tokenId",
          "type": "uint256"
        }
      ],
      "name": "tokenURI",
      "outputs": [
        {
          "internalType": "string",
          "name": "res",
          "type": "string"
        }
      ],
      "stateMutability": "view",
      "type": "function"
    },
    {
      "inputs": [
        {
          "internalType": "address",
          "name": "from",
          "type": "address"
        },
        {
          "internalType": "address",
          "name": "to",
          "type": "address"
        },
        {
          "internalType": "uint256",
          "name": "tokenId",
          "type": "uint256"
        }
      ],
      "name": "transferFrom",
      "outputs": [],
      "stateMutability": "nonpayable",
      "type": "function"
    }
  ],
  "transactionHash": "0xbeeb334e27ae9a715046e26ebe500c66e6404149c8cb9b0f5732fcc5e0913e5c",
  "args": [],
  "solcInputHash": "24ac09d9bc97ff10fe4e0604109f49d6",
  "bytecode": "0x60806040526000805460ff191690556008805460ff60a01b191690553480156200002857600080fd5b506040518060400160405280601381526020017f4e7567672046756e6761626c6520546f6b656e0000000000000000000000000081525060405180604001604052806006815260200165139d59d9d19560d21b8152506200008e6200053060201b60201c565b600114620000a4576000805460ff191660011790555b8151620000b990600190602085019062000534565b508051620000cf90600290602084019062000534565b5050600780546001600160a01b031990811632179091556008805490911633179055506040805180820190915260138082527f6e756767000607000301020202030204030502000000000000000000000000006020909201918252620001389160099162000534565b50600a805460018101825560009182526040805161022081019091526101f58082527fc65a7bb8d6351c1cf70c95a316cc6a92839c986682d98bc35f958f4883f9d2a8909201929162003bf8602083013980516200019e93925060209091019062000534565b50600b805460018101825560009182526040805160a0810190915260648082526000805160206200402783398151915290920192916200407f60208301398051620001f193925060209091019062000534565b50600b805460018101825560009182526040805160a08101909152606a808252600080516020620040278339815191529092019291620041a1602083013980516200024493925060209091019062000534565b50600b805460018101825560009182526040805160a08101909152607480825260008051602062004027833981519152909201929162003f8f602083013980516200029793925060209091019062000534565b50600b805460018101825560009182526040805160e0810190915260be808252600080516020620040278339815191529092019291620040e360208301398051620002ea93925060209091019062000534565b50600b805460018101825560009182526040805160808101909152605880825260008051602062004027833981519152909201929162003f37602083013980516200033d93925060209091019062000534565b50600b80546001810182556000918252604080516060810182528181526000805160206200402783398151915290920192919062003ded602083013980516200038e93925060209091019062000534565b50600b80546001810182556000918252604080516060810190915260388082526000805160206200402783398151915290920192916200404760208301398051620003e193925060209091019062000534565b50600b805460018101825560009182526040805160a08101909152607680825260008051602062004027833981519152909201929162003e2d602083013980516200043493925060209091019062000534565b50600b805460018101825560009182526040805160608101909152602480825260008051602062004027833981519152909201929162004003602083013980516200048793925060209091019062000534565b50600b805460018101825560009182526040805160c08101909152609480825260008051602062004027833981519152909201929162003ea360208301398051620004da93925060209091019062000534565b50604080516020808201835260009182905282518082018452600190819052600c805460ff1990811683179091558451808401865293909352835191820190935282905260128054909116909117905562000617565b4690565b8280546200054290620005da565b90600052602060002090601f016020900481019282620005665760008555620005b1565b82601f106200058157805160ff1916838001178555620005b1565b82800160010185558215620005b1579182015b82811115620005b157825182559160200191906001019062000594565b50620005bf929150620005c3565b5090565b5b80821115620005bf5760008155600101620005c4565b600181811c90821680620005ef57607f821691505b602082108114156200061157634e487b7160e01b600052602260045260246000fd5b50919050565b6135d180620006276000396000f3fe608060405234801561001057600080fd5b50600436106101175760003560e01c806370a08231116100a857806370a08231146101ea578063779fbab91461020b5780638091f3bf1461021e57806395d89b4114610230578063a22cb46514610238578063b51adf1b1461024b578063b88d4fde1461025e578063c415f75914610271578063c87b56dd14610284578063d5f3948814610297578063e985e9c5146102a857600080fd5b806301ffc9a71461011c57806306fdde0314610144578063081812fc14610159578063095ea7b3146101845780631527e5d61461019957806323b872dd146101a15780633beba2ee146101b457806342842e0e146101bc57806354761214146101cf5780636352211e146101d7575b600080fd5b61012f61012a3660046127c3565b6102bb565b60405190151581526020015b60405180910390f35b61014c61030d565b60405161013b9190612fa8565b61016c610167366004612b88565b61039f565b6040516001600160a01b03909116815260200161013b565b610197610192366004612764565b61042c565b005b61014c61053d565b6101976101af36600461268e565b61078e565b6101976107bf565b6101976101ca36600461268e565b6107f6565b610197610811565b61016c6101e5366004612b88565b610839565b6101fd6101f83660046125d5565b6108b0565b60405190815260200161013b565b610197610219366004612764565b610937565b600854600160a01b900460ff1661012f565b61014c6109d7565b610197610246366004612737565b6109e6565b610197610259366004612764565b610aa7565b61019761026c3660046126ce565b610b57565b61019761027f3660046127fb565b610b8f565b61014c610292366004612b88565b610d20565b6007546001600160a01b031661016c565b61012f6102b6366004612656565b610e8a565b60006001600160e01b031982166380ac58cd60e01b14806102ec57506001600160e01b03198216635b5e139f60e01b145b8061030757506301ffc9a760e01b6001600160e01b03198316145b92915050565b60606001805461031c90613453565b80601f016020809104026020016040519081016040528092919081815260200182805461034890613453565b80156103955780601f1061036a57610100808354040283529160200191610395565b820191906000526020600020905b81548152906001019060200180831161037857829003601f168201915b5050505050905090565b60006103aa82610eb8565b6104105760405162461bcd60e51b815260206004820152602c60248201527f4552433732313a20617070726f76656420717565727920666f72206e6f6e657860448201526b34b9ba32b73a103a37b5b2b760a11b60648201526084015b60405180910390fd5b506000908152600560205260409020546001600160a01b031690565b600061043782610839565b9050806001600160a01b0316836001600160a01b031614156104a55760405162461bcd60e51b815260206004820152602160248201527f4552433732313a20617070726f76616c20746f2063757272656e74206f776e656044820152603960f91b6064820152608401610407565b336001600160a01b03821614806104c157506104c18133610e8a565b61052e5760405162461bcd60e51b815260206004820152603860248201527f4552433732313a20617070726f76652063616c6c6572206973206e6f74206f776044820152771b995c881b9bdc88185c1c1c9bdd995908199bdc88185b1b60421b6064820152608401610407565b6105388383610ed5565b505050565b600854606090600160a01b900460ff166105695760405162461bcd60e51b81526004016104079061305e565b6010546040805163eacdc5ff60e01b815290516000926001600160a01b03169163eacdc5ff916004808301926020929190829003018186803b1580156105ae57600080fd5b505afa1580156105c2573d6000803e3d6000fd5b505050506040513d601f19601f820116820180604052508101906105e691906127ab565b60105460405163428a031960e01b8152600481018390529192506000916001600160a01b039091169063428a03199060240160206040518083038186803b15801561063057600080fd5b505afa158015610644573d6000803e3d6000fd5b505050506040513d601f19601f82011682018060405250810190610668919061278f565b6106f757601060009054906101000a90046001600160a01b03166001600160a01b031663c7608b226040518163ffffffff1660e01b815260040160206040518083038186803b1580156106ba57600080fd5b505afa1580156106ce573d6000803e3d6000fd5b505050506040513d601f19601f820116820180604052508101906106f291906127ab565b610773565b60105460405163e0d4ea3760e01b8152600481018490526001600160a01b039091169063e0d4ea379060240160206040518083038186803b15801561073b57600080fd5b505afa15801561074f573d6000803e3d6000fd5b505050506040513d601f19601f8201168201806040525081019061077391906127ab565b90506107878261078283610f43565b610f76565b9250505090565b610798338261114b565b6107b45760405162461bcd60e51b815260040161040790613080565b610538838383611215565b60005460ff1680156107e157506000546001600160a01b036101009091041633145b6107ea57600080fd5b6107f433476113c0565b565b61053883838360405180602001604052806000815250610b57565b60005460ff1661082057600080fd5b60008054610100600160a81b0319163361010002179055565b6000818152600360205260408120546001600160a01b0316806103075760405162461bcd60e51b815260206004820152602960248201527f4552433732313a206f776e657220717565727920666f72206e6f6e657869737460448201526832b73a103a37b5b2b760b91b6064820152608401610407565b60006001600160a01b03821661091b5760405162461bcd60e51b815260206004820152602a60248201527f4552433732313a2062616c616e636520717565727920666f7220746865207a65604482015269726f206164647265737360b01b6064820152608401610407565b506001600160a01b031660009081526004602052604090205490565b6012805460ff166002141561095e5760405162461bcd60e51b81526004016104079061300d565b805460ff191660021781556010546001600160a01b031661097c3390565b6001600160a01b0316146109be5760405162461bcd60e51b815260206004820152600960248201526804e46543a4f4d433a360bc1b6044820152606401610407565b6109c883836113d7565b805460ff191660011790555050565b60606002805461031c90613453565b6001600160a01b038216331415610a3b5760405162461bcd60e51b815260206004820152601960248201527822a9219b99189d1030b8383937bb32903a379031b0b63632b960391b6044820152606401610407565b3360008181526006602090815260408083206001600160a01b03871680855290835292819020805460ff191686151590811790915590519081529192917f17307eab39ab6107e8899845ad3d59bd9653f200f220920489ca2b5937696c31910160405180910390a35050565b6012805460ff1660021415610ace5760405162461bcd60e51b81526004016104079061300d565b805460ff191660021781556011546001600160a01b0316610aec3390565b6001600160a01b031614610b2e5760405162461bcd60e51b815260206004820152600960248201526804e46543a4f42433a360bc1b6044820152606401610407565b6011546040805160208101909152600081526109c8916001600160a01b031690859085906113f1565b610b61338361114b565b610b7d5760405162461bcd60e51b815260040161040790613080565b610b89848484846113f1565b50505050565b610b9881611424565b60008060008084806020019051810190610bb291906125f8565b600f80546001600160a01b038087166001600160a01b031992831617909255600e805483871690831681179091556010805484871690841617905560118054938516939092169290921790559397509195509350915060009063b4e1f09e610c18600990565b6040518263ffffffff1660e01b8152600401610c349190612f02565b60006040518083038186803b158015610c4c57600080fd5b505afa158015610c60573d6000803e3d6000fd5b505050506040513d6000823e601f3d908101601f19168201604052610c889190810190612ac2565b905060005b81515160ff82161015610d1757600d82600001518260ff1681518110610cc357634e487b7160e01b600052603260045260246000fd5b602090810291909101810151518254600181018455600093845292829020918304909101805460ff928316601f9094166101000a938402929093021990921617905580610d0f816134a9565b915050610c8d565b50505050505050565b600854606090600160a01b900460ff16610d4c5760405162461bcd60e51b81526004016104079061305e565b60105460405163428a031960e01b8152600481018490526001600160a01b039091169063428a03199060240160206040518083038186803b158015610d9057600080fd5b505afa158015610da4573d6000803e3d6000fd5b505050506040513d601f19601f82011682018060405250810190610dc8919061278f565b610e015760405162461bcd60e51b815260206004820152600a60248201526904e55473a545552493a360b41b6044820152606401610407565b60105460405163e0d4ea3760e01b815260048101849052610307918491610782916001600160a01b03169063e0d4ea379060240160206040518083038186803b158015610e4d57600080fd5b505afa158015610e61573d6000803e3d6000fd5b505050506040513d601f19601f82011682018060405250810190610e8591906127ab565b610f43565b6001600160a01b03918216600090815260066020908152604080832093909416825291909152205460ff1690565b6000908152600360205260409020546001600160a01b0316151590565b600081815260056020526040902080546001600160a01b0319166001600160a01b0384169081179091558190610f0a82610839565b6001600160a01b03167f8c5be1e5ebec7d5bd14f71427d1e84f3dd0314c0f7b2291e5b200ac8c7c3b92560405160405180910390a45050565b600081604051602001610f5891815260200190565b60408051601f19818403018152919052805160209091012092915050565b60606000610f8384611513565b604051602001610f939190612e95565b60408051601f1981840301815282820190915260038252622a222160e91b602083015291506000610fc38561162c565b90506000610fd0866116cf565b600e5460405163dc9efae760e01b81529192506000916001600160a01b039091169063dc9efae79061100890869086906004016130d1565b60006040518083038186803b15801561102057600080fd5b505afa158015611034573d6000803e3d6000fd5b505050506040513d6000823e601f3d908101601f1916820160405261105c9190810190612b56565b600e5460405163bd16de3160e01b81529192506000916110f0916001600160a01b03169063bd16de3190611097908690600a90600401613279565b60006040518083038186803b1580156110af57600080fd5b505afa1580156110c3573d6000803e3d6000fd5b505050506040513d6000823e601f3d908101601f191682016040526110eb919081019061282d565b611993565b905061111e86868360405160200161110a93929190612df5565b6040516020818303038152906040526119f8565b60405160200161112e9190612daa565b604051602081830303815290604052965050505050505092915050565b600061115682610eb8565b6111b75760405162461bcd60e51b815260206004820152602c60248201527f4552433732313a206f70657261746f7220717565727920666f72206e6f6e657860448201526b34b9ba32b73a103a37b5b2b760a11b6064820152608401610407565b60006111c283610839565b9050806001600160a01b0316846001600160a01b031614806111fd5750836001600160a01b03166111f28461039f565b6001600160a01b0316145b8061120d575061120d8185610e8a565b949350505050565b826001600160a01b031661122882610839565b6001600160a01b0316146112905760405162461bcd60e51b815260206004820152602960248201527f4552433732313a207472616e73666572206f6620746f6b656e2074686174206960448201526839903737ba1037bbb760b91b6064820152608401610407565b6001600160a01b0382166112f25760405162461bcd60e51b8152602060048201526024808201527f4552433732313a207472616e7366657220746f20746865207a65726f206164646044820152637265737360e01b6064820152608401610407565b6112fd838383611a39565b611308600082610ed5565b6001600160a01b0383166000908152600460205260408120805460019290611331908490613410565b90915550506001600160a01b038216600090815260046020526040812080546001929061135f9084906133c5565b909155505060008181526003602052604080822080546001600160a01b0319166001600160a01b0386811691821790925591518493918716917fddf252ad1be2c89b69c2b068fc378daa952ba7f163c4a11628f55a4df523b3ef91a4505050565b6113d36001600160a01b03831682611aa6565b5050565b6113d3828260405180602001604052806000815250611bbc565b6113fc848484611215565b61140884848484611bef565b610b895760405162461bcd60e51b815260040161040790612fbb565b6007546001600160a01b031633148061144757506008546001600160a01b031633145b61147f5760405162461bcd60e51b815260206004820152600960248201526804c41553a4c41553a360bc1b6044820152606401610407565b600854600160a01b900460ff16156114c55760405162461bcd60e51b81526020600482015260096024820152684c41553a4c41553a3160b81b6044820152606401610407565b6008805460ff60a01b1916600160a01b1790556007546040516001600160a01b03909116907fb900795bb40f8a7bc484866009ca19ebf7b277001a839428e1b8e1a21d8e216c90600090a250565b6060816115375750506040805180820190915260018152600360fc1b602082015290565b8160005b8115611561578061154b8161348e565b915061155a9050600a836133dd565b915061153b565b6000816001600160401b0381111561158957634e487b7160e01b600052604160045260246000fd5b6040519080825280601f01601f1916602001820160405280156115b3576020820181803683370190505b5090505b841561120d576115c8600183613410565b91506115d5600a866134c9565b6115e09060306133c5565b60f81b81838151811061160357634e487b7160e01b600052603260045260246000fd5b60200101906001600160f81b031916908160001a905350611625600a866133dd565b94506115b7565b61163461204b565b600e54600a546001600160a01b039091169063cde5539f9061165f9061165a90866134c9565b611cfc565b6040518263ffffffff1660e01b815260040161167b9190612f02565b60006040518083038186803b15801561169357600080fd5b505afa1580156116a7573d6000803e3d6000fd5b505050506040513d6000823e601f3d908101601f1916820160405261030791908101906129d4565b60408051601e8082526103e0820190925260609160009190602082016103c08036833701905050905060005b601e8160ff16101561176257600b5461171a9060ff831686901c6134c9565b828260ff168151811061173d57634e487b7160e01b600052603260045260246000fd5b61ffff909216602092830291909101909101528061175a816134a9565b9150506116fb565b50600d546000906001600160401b0381111561178e57634e487b7160e01b600052604160045260246000fd5b6040519080825280602002602001820160405280156117b7578160200160208202803683370190505b5060408051600380825260808201909252919250816020015b6117d861206a565b8152602001906001900390816117d05790505092506000805b83518160ff16101561198a57600e5484516000916001600160a01b0316906381e8c61f9061184d90889060ff871690811061183c57634e487b7160e01b600052603260045260246000fd5b602002602001015161ffff16611d52565b6040518263ffffffff1660e01b81526004016118699190612f02565b60006040518083038186803b15801561188157600080fd5b505afa158015611895573d6000803e3d6000fd5b505050506040513d6000823e601f3d908101601f191682016040526118bd919081019061289f565b90508381606001516000015160ff16815181106118ea57634e487b7160e01b600052603260045260246000fd5b602002602001015160ff166000141561196557808684611909816134a9565b955060ff168151811061192c57634e487b7160e01b600052603260045260246000fd5b60200260200101819052508381606001516000015160ff168151811061196257634e487b7160e01b600052603260045260246000fd5b50505b60ff831660031415611977575061198a565b5080611982816134a9565b9150506117f1565b50505050919050565b60606040518060400160405280601a81526020017919185d184e9a5b5859d94bdcdd99cade1b5b0ed8985cd94d8d0b60321b8152506119d183611d97565b6040516020016119e2929190612dc6565b6040516020818303038152906040529050919050565b60606040518060400160405280601d81526020017f646174613a6170706c69636174696f6e2f6a736f6e3b6261736536342c0000008152506119d183611d97565b6010546001600160a01b0316336001600160a01b03161480611a6e57506011546001600160a01b0316336001600160a01b0316145b6105385760405162461bcd60e51b815260206004820152600960248201526804e46543a4254543a360bc1b6044820152606401610407565b80471015611af65760405162461bcd60e51b815260206004820152601d60248201527f416464726573733a20696e73756666696369656e742062616c616e63650000006044820152606401610407565b6000826001600160a01b03168260405160006040518083038185875af1925050503d8060008114611b43576040519150601f19603f3d011682016040523d82523d6000602084013e611b48565b606091505b50509050806105385760405162461bcd60e51b815260206004820152603a60248201527f416464726573733a20756e61626c6520746f2073656e642076616c75652c20726044820152791958da5c1a595b9d081b585e481a185d99481c995d995c9d195960321b6064820152608401610407565b611bc68383611f0c565b611bd36000848484611bef565b6105385760405162461bcd60e51b815260040161040790612fbb565b60006001600160a01b0384163b15611cf157604051630a85bd0160e11b81526001600160a01b0385169063150b7a0290611c33903390899088908890600401612ec5565b602060405180830381600087803b158015611c4d57600080fd5b505af1925050508015611c7d575060408051601f3d908101601f19168201909252611c7a918101906127df565b60015b611cd7573d808015611cab576040519150601f19603f3d011682016040523d82523d6000602084013e611cb0565b606091505b508051611ccf5760405162461bcd60e51b815260040161040790612fbb565b805181602001fd5b6001600160e01b031916630a85bd0160e11b14905061120d565b506001949350505050565b600a546000908210611d205760405162461bcd60e51b815260040161040790613035565b600a8281548110611d4157634e487b7160e01b600052603260045260246000fd5b906000526020600020019050919050565b600b546000908210611d765760405162461bcd60e51b815260040161040790613035565b600b8281548110611d4157634e487b7160e01b600052603260045260246000fd5b6060815160001415611db757505060408051602081019091526000815290565b600060405180606001604052806040815260200161355c6040913990506000600384516002611de691906133c5565b611df091906133dd565b611dfb9060046133f1565b90506000611e0a8260206133c5565b6001600160401b03811115611e2f57634e487b7160e01b600052604160045260246000fd5b6040519080825280601f01601f191660200182016040528015611e59576020820181803683370190505b509050818152600183018586518101602084015b81831015611ec75760039283018051603f601282901c811687015160f890811b8552600c83901c8216880151811b6001860152600683901c8216880151811b60028601529116860151901b93820193909352600401611e6d565b600389510660018114611ee15760028114611ef257611efe565b613d3d60f01b600119830152611efe565b603d60f81b6000198301525b509398975050505050505050565b6001600160a01b038216611f625760405162461bcd60e51b815260206004820181905260248201527f4552433732313a206d696e7420746f20746865207a65726f20616464726573736044820152606401610407565b611f6b81610eb8565b15611fb85760405162461bcd60e51b815260206004820152601c60248201527f4552433732313a20746f6b656e20616c7265616479206d696e746564000000006044820152606401610407565b611fc460008383611a39565b6001600160a01b0382166000908152600460205260408120805460019290611fed9084906133c5565b909155505060008181526003602052604080822080546001600160a01b0319166001600160a01b03861690811790915590518392907fddf252ad1be2c89b69c2b068fc378daa952ba7f163c4a11628f55a4df523b3ef908290a45050565b6040518060400160405280606081526020016120656120de565b905290565b6040518060a0016040528061207d6120de565b815260200161209c604080518082019091526000808252602082015290565b81526020016120a9612110565b81526020016120d16040518060400160405280600060ff168152602001600060ff1681525090565b815260200161206561218f565b6040805160a0810190915260006060820181815260808301919091528190815260200160608152602001606081525090565b6040805160c0810190915260006080820181815260a08301919091528190815260200161214d604080518082019091526000808252602082015290565b81526040805160c08101825260008082526020828101829052928201819052606082018190526080820181905260a08201529101908152600060209091015290565b6040518060c001604052806121a26121df565b81526020016121af6121df565b81526020016121bc6121df565b81526020016121c96121df565b81526020016121d66121df565b81526020016120655b604080516060810182526000808252602082018190529181019190915290565b600061221261220d8461337b565b61334b565b9050808382526020808301915083868660061b8601111561223257600080fd5b60005b8681101561225c57612247888361239b565b84529282019260409190910190600101612235565b505050509392505050565b805161227281613537565b919050565b600082601f830112612287578081fd5b813561229561220d8261339e565b8181528460208386010111156122a9578283fd5b816020850160208301379081016020019190915292915050565b60008183036101608112156122d6578182fd5b6122de61329b565b91506122ea848461239b565b82526122f9846040850161239b565b602083015260c0607f198201121561231057600080fd5b506123196132c3565b612325608084016125c4565b815261233360a084016125c4565b602082015261234460c084016125c4565b604082015261235560e084016125c4565b606082015261236761010084016125c4565b608082015261237961012084016125c4565b60a082015260408201526123906101408301612267565b606082015292915050565b6000604082840312156123ac578081fd5b6123b46132e5565b90506123bf826125c4565b81526123cd602083016125c4565b602082015292915050565b600060808083850312156123ea578182fd5b6123f2613307565b91506123fe848461239b565b82526040808401516001600160401b038082111561241b57600080fd5b818601915086601f83011261242f57600080fd5b8151602061244089838387016121ff565b81880152606093508388015191508282111561245b57600080fd5b818801925088601f84011261246f57600080fd5b8251915061247f61220d8361337b565b8281528181019084830160e0808602870185018d101561249e57600080fd5b600096505b8587101561255f57818d03818112156124bb57600080fd5b6124c361329b565b6124cc846125c4565b81528b601f19830112156124df57600080fd5b6124e761329b565b91506124f48785016125c4565b82526125018b85016125c4565b878301526125108a85016125c4565b8b83015261251f8c85016125c4565b8a830152818782015261253460a085016125c4565b8b82015261254460c08501612267565b818b01528552506001969096019592840192908101906124a3565b505080878a0152505050505050505092915050565b600060608284031215612585578081fd5b61258d613307565b9050815161259a81613537565b81526125a8602083016125c4565b60208201526125b9604083016125c4565b604082015292915050565b805160ff8116811461227257600080fd5b6000602082840312156125e6578081fd5b81356125f18161351f565b9392505050565b6000806000806080858703121561260d578283fd5b84516126188161351f565b60208601519094506126298161351f565b604086015190935061263a8161351f565b606086015190925061264b8161351f565b939692955090935050565b60008060408385031215612668578182fd5b82356126738161351f565b915060208301356126838161351f565b809150509250929050565b6000806000606084860312156126a2578081fd5b83356126ad8161351f565b925060208401356126bd8161351f565b929592945050506040919091013590565b600080600080608085870312156126e3578182fd5b84356126ee8161351f565b935060208501356126fe8161351f565b92506040850135915060608501356001600160401b0381111561271f578182fd5b61272b87828801612277565b91505092959194509250565b60008060408385031215612749578182fd5b82356127548161351f565b9150602083013561268381613537565b60008060408385031215612776578182fd5b82356127818161351f565b946020939093013593505050565b6000602082840312156127a0578081fd5b81516125f181613537565b6000602082840312156127bc578081fd5b5051919050565b6000602082840312156127d4578081fd5b81356125f181613545565b6000602082840312156127f0578081fd5b81516125f181613545565b60006020828403121561280c578081fd5b81356001600160401b03811115612821578182fd5b61120d84828501612277565b60006020828403121561283e578081fd5b81516001600160401b03811115612853578182fd5b8201601f81018413612863578182fd5b805161287161220d8261339e565b818152856020838501011115612885578384fd5b612896826020830160208601613427565b95945050505050565b6000602082840312156128b0578081fd5b81516001600160401b03808211156128c6578283fd5b908301908185036104408112156128db578384fd5b6128e3613329565b8351838111156128f1578586fd5b6128fd888287016123d8565b82525061290d876020860161239b565b602082015261291f87606086016122c3565b6040820152612932876101c0860161239b565b60608201526102406101ff198301121561294a578485fd5b6129526132c3565b9250612962876102008601612574565b8352612972876102608601612574565b6020840152612985876102c08601612574565b6040840152612998876103208601612574565b60608401526129ab876103808601612574565b60808401526129be876103e08601612574565b60a0840152608081019290925250949350505050565b600060208083850312156129e6578182fd5b82516001600160401b03808211156129fc578384fd5b9084019060408287031215612a0f578384fd5b612a176132e5565b825182811115612a25578586fd5b8301601f81018813612a35578586fd5b8051612a4361220d8261337b565b8181528681019083880161016080850286018a018d1015612a62578a8bfd5b8a95505b84861015612a8e57612a788d836122c3565b8452600195909501949289019290810190612a66565b505084525050508284015182811115612aa5578586fd5b612ab1888286016123d8565b948201949094529695505050505050565b600060208284031215612ad3578081fd5b81516001600160401b0380821115612ae9578283fd5b9083019060208286031215612afc578283fd5b604051602081018181108382111715612b1757612b17613509565b604052825182811115612b28578485fd5b80840193505085601f840112612b3c578384fd5b612b4b868451602086016121ff565b815295945050505050565b600060208284031215612b67578081fd5b81516001600160401b03811115612b7c578182fd5b61120d848285016123d8565b600060208284031215612b99578081fd5b5035919050565b60008151808452612bb8816020860160208601613427565b601f01601f19169290920160200192915050565b612be7828251805160ff908116835260209182015116910152565b6020810151612c096040840182805160ff908116835260209182015116910152565b50604081015160ff8082511660808501528060208301511660a08501528060408301511660c08501528060608301511660e0850152806080830151166101008501528060a0830151166101208501525050606081015161053861014084018215159052565b60006080808401612c90858551805160ff908116835260209182015116910152565b602084810151604087810185905281519384905260a0939183019184890190875b81811015612ce457612cd4838651805160ff908116835260209182015116910152565b9385019391830191600101612cb1565b50508188015192506060898203818b0152818451808452868401915086860195508993505b80841015612d77578551805160ff908116845288820151805182168a860152808a015182168886015287810151821686860152850151168a84015285810151612d568a85018260ff169052565b50830151151560c0830152948601946001939093019260e090910190612d09565b509a9950505050505050505050565b80511515825260ff602082015116602083015260ff60408201511660408301525050565b60008251612dbc818460208701613427565b9190910192915050565b60008351612dd8818460208801613427565b835190830190612dec818360208801613427565b01949350505050565b683d913730b6b2911d1160b91b81528351600090612e1a816009850160208901613427565b701116113232b9b1b934b83a34b7b7111d1160791b6009918401918201528451612e4b81601a840160208901613427565b6c1116101134b6b0b3b2911d101160991b601a92909101918201528351612e79816027840160208801613427565b61227d60f01b6027929091019182015260290195945050505050565b674e7567674654202360c01b815260008251612eb8816008850160208701613427565b9190910160080192915050565b6001600160a01b0385811682528416602082015260408101839052608060608201819052600090612ef890830184612ba0565b9695505050505050565b6000602080835281845483600182811c915080831680612f2357607f831692505b858310811415612f4157634e487b7160e01b87526022600452602487fd5b878601838152602001818015612f5e5760018114612f6f57612f99565b60ff19861682528782019650612f99565b60008b815260209020895b86811015612f9357815484820152908501908901612f7a565b83019750505b50949998505050505050505050565b6020815260006125f16020830184612ba0565b60208082526032908201527f4552433732313a207472616e7366657220746f206e6f6e20455243373231526560408201527131b2b4bb32b91034b6b83632b6b2b73a32b960711b606082015260800190565b6020808252600e908201526d04d555445583a4c4f434b45443a360941b604082015260600190565b6020808252600f908201526e1a5b9d985b1a59081c995c5d595cdd608a1b604082015260600190565b60208082526008908201526704c41553a494c3a360c41b604082015260600190565b60208082526031908201527f4552433732313a207472616e736665722063616c6c6572206973206e6f74206f6040820152701ddb995c881b9bdc88185c1c1c9bdd9959607a1b606082015260800190565b6000604080835260808084018651838487015281815180845260a09350838801915060208084019350875b828110156131235761310f848651612bcc565b9381019361016093909301926001016130fc565b50808b0151935060609150603f1989840301828a01526131438385612c6e565b898103828b01528a518082529094508185019350600581901b850182018b83018a5b8381101561326657601f198884030187528151610440815181865261318c82870182612c6e565b915050868201516131af88870182805160ff908116835260209182015116910152565b508c8201516131c089870182612bcc565b5081880151805160ff9081166101c08801526020820151166101e0870152508b82015191506131f461020086018351612d86565b86820151613206610260870182612d86565b508c8201516132196102c0870182612d86565b508782015161322c610320870182612d86565b508b82015161323f610380870182612d86565b50908a0151906132536103e0860183612d86565b9786019793505090840190600101613165565b50909d9c50505050505050505050505050565b60408152600061328c6040830185612c6e565b90508260208301529392505050565b604051608081016001600160401b03811182821017156132bd576132bd613509565b60405290565b60405160c081016001600160401b03811182821017156132bd576132bd613509565b604080519081016001600160401b03811182821017156132bd576132bd613509565b604051606081016001600160401b03811182821017156132bd576132bd613509565b60405160a081016001600160401b03811182821017156132bd576132bd613509565b604051601f8201601f191681016001600160401b038111828210171561337357613373613509565b604052919050565b60006001600160401b0382111561339457613394613509565b5060051b60200190565b60006001600160401b038211156133b7576133b7613509565b50601f01601f191660200190565b600082198211156133d8576133d86134dd565b500190565b6000826133ec576133ec6134f3565b500490565b600081600019048311821515161561340b5761340b6134dd565b500290565b600082821015613422576134226134dd565b500390565b60005b8381101561344257818101518382015260200161342a565b83811115610b895750506000910152565b600181811c9082168061346757607f821691505b6020821081141561348857634e487b7160e01b600052602260045260246000fd5b50919050565b60006000198214156134a2576134a26134dd565b5060010190565b600060ff821660ff8114156134c0576134c06134dd565b60010192915050565b6000826134d8576134d86134f3565b500690565b634e487b7160e01b600052601160045260246000fd5b634e487b7160e01b600052601260045260246000fd5b634e487b7160e01b600052604160045260246000fd5b6001600160a01b038116811461353457600080fd5b50565b801515811461353457600080fd5b6001600160e01b03198116811461353457600080fdfe4142434445464748494a4b4c4d4e4f505152535455565758595a6162636465666768696a6b6c6d6e6f707172737475767778797a303132333435363738392b2fa2646970667358221220e29cf6d194fe3755a3e5e483be4c1df63e337d58641d9225b88a2b6beb62eea664736f6c634300080400336e75676701080d063dc17320200001ffffffff0101a84b1eff0201c96619ff0301f9b042ff0401f49f35ff0501f19325ff0601eb8a12ff0701000000ff000f07050502020001010b0b000400000001020f1101010000000103080a000000000001040f0b020200000001050f050404010100012e202e202e202e202e202e0a010c2e0a2e080102030104040303060301022e092e080101030104070302060301012e092e080101030204060303060201012e092e080101030204060304060201012e082e07010203010003040405010003030201012e082e070101030200010701000104040301000107010001030201012e082e0701010302000304050003030201012e082e07010103050405030501012e082e0701010302050203010406030401012e082e070101030504060501030301012e082e070101030604050502030201012e082e070101030507050402030301012e082e07010103050409030101012e082e0701010306040901012e082e08010103030502040901012e082e08010103050501040701022e082e080101030505020402060401012e092e0801010201030404010501060601012e092e08010102010601030304030604020101012e092e08010102020601030204030604020101012e092e0801030601030204020603020201012e0a2e0a010b2e0b2e202e202e202e206e756767020210001c121c0b040501020002855114440102000000ff2e0200072e0200012e010001010500012e01000100032e0200012e0200032e0500012e056e756767020210041c29240e050702040003000000ff0103855114444c0052006c2e722e2e0100056c012e01720100052e010001010300016c012e0172010001010300010002010300014c01000152010001010300012e010001010300016c012e0172010001010300012e0100056c012e01720100056e756767020310022237260d070403010002fb1a06ff0102f85c0fff0202ffdb3cff5201722e2e0400012e0172012e0100012e042e0400012e0172012e0100012e042e0300010101000172010001010100012e030001010302010101520101010201010300012e0300010101000172010001010100012e032e0400012e0172012e0100012e042e0400012e0172012e0100012e046e75676702011004161d1e08050400050002000000ff722e4c0052006c2e2e0100024c0100015201000200034c0100015201000200022e016c012e0172012e0200022e016c012e0172012e0200012e026c012e0172012e026e75676702011004162b1e08070402050002000000ff722e4c0052006c2e2e0200016c010001720100012e012e0200016c010001720100012e012e0100024c0100015201000200034c0100015201000200022e016c012e0172012e0200022e016c012e0172012e0200012e026c012e0172012e026e7567670201100216051a05010200020002f87303ff4c00520000014c010001520100010175b7a638427703f0dbe7bb9bbf987a2551717b34e79f33b5b1008d1fa01db96e756767020210001c0e1c07060301020002855114440102000000ff000700010105000100072e0100052e012e0200032e022e0300012e036e756767020210021c22200e050503000003b261dc550103444444ff52014c012e0201024c010101520101022e052e0101034c0101015201000101022e0401044c01010152010101000101012e0401044c010101520101062e0101044c010101520101076e756767020210041c4d240b0b0705050002000000ff0102000000ff4c0052006c2e722e2e02010100034c012e01720100012e012e010001010200024c010001520100022e010001010100034c0100015201010100012e01000401014c010001520101012e0100064c0100015201000200064c01000152010002000201010001010100014c010001520100012e0100066c012e0172012e022e0100056c012e0172012e022e0100056c012e0172012e022e0400012e016c012e0172012e026e756767020210041c232413050903000003555555ff0103b261dc5552006c0172014c002e0600024c010001520100022e062e05000201016c0101017201010100022e0500022e0300034c010101520100032e03000200084c0101015201000800084c01000152010008",
  "devdoc": {
    "author": "Nugg Labs - @danny7even & @dub6ix - 2021",
    "details": "this is art Note: epochs correlate directly to tokenIDs Note: no images are stored in their final form - they are generated by view/pure functions at query time completly onchain Note: the block hash corresponding to the start of an epoch is used as the \"random\" seed Note: epochs are 256 blocks long as block hashes only exist for 256 blocks",
    "kind": "dev",
    "methods": {
      "approve(address,uint256)": {
        "details": "See {IERC721-approve}."
      },
      "balanceOf(address)": {
        "details": "See {IERC721-balanceOf}."
      },
      "deployer()": {
        "details": "#TODO"
      },
      "getApproved(uint256)": {
        "details": "See {IERC721-getApproved}."
      },
      "isApprovedForAll(address,address)": {
        "details": "See {IERC721-isApprovedForAll}."
      },
      "launch(bytes)": {
        "details": "#TODO"
      },
      "launched()": {
        "details": "#TODO"
      },
      "name()": {
        "details": "See {IERC721Metadata-name}."
      },
      "ownerOf(uint256)": {
        "details": "See {IERC721-ownerOf}."
      },
      "safeTransferFrom(address,address,uint256)": {
        "details": "See {IERC721-safeTransferFrom}."
      },
      "safeTransferFrom(address,address,uint256,bytes)": {
        "details": "See {IERC721-safeTransferFrom}."
      },
      "setApprovalForAll(address,bool)": {
        "details": "See {IERC721-setApprovalForAll}."
      },
      "supportsInterface(bytes4)": {
        "details": "See {IERC165-supportsInterface}."
      },
      "symbol()": {
        "details": "See {IERC721Metadata-symbol}."
      },
      "tokenURI(uint256)": {
        "details": "See {IERC721Metadata-tokenURI}. MODIFICATION 0"
      },
      "transferFrom(address,address,uint256)": {
        "details": "See {IERC721-transferFrom}."
      }
    },
    "title": "Nugg Labs NFT Collection 0 - \"NuggFT\"",
    "version": 1
  },
  "userdoc": {
    "kind": "user",
    "methods": {
      "launch(bytes)": {
        "notice": "inializes contract outside of constructor"
      },
      "pendingTokenURI()": {
        "notice": "equivilent of tokenURI function, but for only for active epoch as real uri does not exist yet"
      }
    },
    "notice": "entrily onchain generative NFT and stakable auction contract",
    "version": 1
  },
  "storageLayout": {
    "storage": [
      {
        "astId": 5341,
        "contract": "contracts/NuggFT.sol:NuggFT",
        "label": "inTesting",
        "offset": 0,
        "slot": "0",
        "type": "t_bool"
      },
      {
        "astId": 5356,
        "contract": "contracts/NuggFT.sol:NuggFT",
        "label": "pw",
        "offset": 1,
        "slot": "0",
        "type": "t_address"
      },
      {
        "astId": 12324,
        "contract": "contracts/NuggFT.sol:NuggFT",
        "label": "_name",
        "offset": 0,
        "slot": "1",
        "type": "t_string_storage"
      },
      {
        "astId": 12326,
        "contract": "contracts/NuggFT.sol:NuggFT",
        "label": "_symbol",
        "offset": 0,
        "slot": "2",
        "type": "t_string_storage"
      },
      {
        "astId": 12330,
        "contract": "contracts/NuggFT.sol:NuggFT",
        "label": "_owners",
        "offset": 0,
        "slot": "3",
        "type": "t_mapping(t_uint256,t_address)"
      },
      {
        "astId": 12334,
        "contract": "contracts/NuggFT.sol:NuggFT",
        "label": "_balances",
        "offset": 0,
        "slot": "4",
        "type": "t_mapping(t_address,t_uint256)"
      },
      {
        "astId": 12338,
        "contract": "contracts/NuggFT.sol:NuggFT",
        "label": "_tokenApprovals",
        "offset": 0,
        "slot": "5",
        "type": "t_mapping(t_uint256,t_address)"
      },
      {
        "astId": 12344,
        "contract": "contracts/NuggFT.sol:NuggFT",
        "label": "_operatorApprovals",
        "offset": 0,
        "slot": "6",
        "type": "t_mapping(t_address,t_mapping(t_address,t_bool))"
      },
      {
        "astId": 4664,
        "contract": "contracts/NuggFT.sol:NuggFT",
        "label": "_deployer",
        "offset": 0,
        "slot": "7",
        "type": "t_address"
      },
      {
        "astId": 4666,
        "contract": "contracts/NuggFT.sol:NuggFT",
        "label": "_deployerContract",
        "offset": 0,
        "slot": "8",
        "type": "t_address"
      },
      {
        "astId": 4669,
        "contract": "contracts/NuggFT.sol:NuggFT",
        "label": "_launched",
        "offset": 20,
        "slot": "8",
        "type": "t_bool"
      },
      {
        "astId": 13678,
        "contract": "contracts/NuggFT.sol:NuggFT",
        "label": "collection_",
        "offset": 0,
        "slot": "9",
        "type": "t_bytes_storage"
      },
      {
        "astId": 13681,
        "contract": "contracts/NuggFT.sol:NuggFT",
        "label": "bases_",
        "offset": 0,
        "slot": "10",
        "type": "t_array(t_bytes_storage)dyn_storage"
      },
      {
        "astId": 13684,
        "contract": "contracts/NuggFT.sol:NuggFT",
        "label": "attributes_",
        "offset": 0,
        "slot": "11",
        "type": "t_array(t_bytes_storage)dyn_storage"
      },
      {
        "astId": 4767,
        "contract": "contracts/NuggFT.sol:NuggFT",
        "label": "global",
        "offset": 0,
        "slot": "12",
        "type": "t_struct(Mutex)4758_storage"
      },
      {
        "astId": 1985,
        "contract": "contracts/NuggFT.sol:NuggFT",
        "label": "_featureIDs",
        "offset": 0,
        "slot": "13",
        "type": "t_array(t_uint8)dyn_storage"
      },
      {
        "astId": 1988,
        "contract": "contracts/NuggFT.sol:NuggFT",
        "label": "_DOTNUGG",
        "offset": 0,
        "slot": "14",
        "type": "t_contract(IDotNugg)10166"
      },
      {
        "astId": 1991,
        "contract": "contracts/NuggFT.sol:NuggFT",
        "label": "_NUGGETH",
        "offset": 0,
        "slot": "15",
        "type": "t_contract(INuggETH)17387"
      },
      {
        "astId": 1994,
        "contract": "contracts/NuggFT.sol:NuggFT",
        "label": "_MINTER",
        "offset": 0,
        "slot": "16",
        "type": "t_contract(INuggMinter)4038"
      },
      {
        "astId": 1997,
        "contract": "contracts/NuggFT.sol:NuggFT",
        "label": "_SELLER",
        "offset": 0,
        "slot": "17",
        "type": "t_contract(INuggSeller)4083"
      },
      {
        "astId": 2000,
        "contract": "contracts/NuggFT.sol:NuggFT",
        "label": "transfer",
        "offset": 0,
        "slot": "18",
        "type": "t_struct(Mutex)4758_storage"
      }
    ],
    "types": {
      "t_address": {
        "encoding": "inplace",
        "label": "address",
        "numberOfBytes": "20"
      },
      "t_array(t_bytes_storage)dyn_storage": {
        "base": "t_bytes_storage",
        "encoding": "dynamic_array",
        "label": "bytes[]",
        "numberOfBytes": "32"
      },
      "t_array(t_uint8)dyn_storage": {
        "base": "t_uint8",
        "encoding": "dynamic_array",
        "label": "uint8[]",
        "numberOfBytes": "32"
      },
      "t_bool": {
        "encoding": "inplace",
        "label": "bool",
        "numberOfBytes": "1"
      },
      "t_bytes_storage": {
        "encoding": "bytes",
        "label": "bytes",
        "numberOfBytes": "32"
      },
      "t_contract(IDotNugg)10166": {
        "encoding": "inplace",
        "label": "contract IDotNugg",
        "numberOfBytes": "20"
      },
      "t_contract(INuggETH)17387": {
        "encoding": "inplace",
        "label": "contract INuggETH",
        "numberOfBytes": "20"
      },
      "t_contract(INuggMinter)4038": {
        "encoding": "inplace",
        "label": "contract INuggMinter",
        "numberOfBytes": "20"
      },
      "t_contract(INuggSeller)4083": {
        "encoding": "inplace",
        "label": "contract INuggSeller",
        "numberOfBytes": "20"
      },
      "t_mapping(t_address,t_bool)": {
        "encoding": "mapping",
        "key": "t_address",
        "label": "mapping(address => bool)",
        "numberOfBytes": "32",
        "value": "t_bool"
      },
      "t_mapping(t_address,t_mapping(t_address,t_bool))": {
        "encoding": "mapping",
        "key": "t_address",
        "label": "mapping(address => mapping(address => bool))",
        "numberOfBytes": "32",
        "value": "t_mapping(t_address,t_bool)"
      },
      "t_mapping(t_address,t_uint256)": {
        "encoding": "mapping",
        "key": "t_address",
        "label": "mapping(address => uint256)",
        "numberOfBytes": "32",
        "value": "t_uint256"
      },
      "t_mapping(t_uint256,t_address)": {
        "encoding": "mapping",
        "key": "t_uint256",
        "label": "mapping(uint256 => address)",
        "numberOfBytes": "32",
        "value": "t_address"
      },
      "t_string_storage": {
        "encoding": "bytes",
        "label": "string",
        "numberOfBytes": "32"
      },
      "t_struct(Mutex)4758_storage": {
        "encoding": "inplace",
        "label": "struct Mutexable.Mutex",
        "members": [
          {
            "astId": 4757,
            "contract": "contracts/NuggFT.sol:NuggFT",
            "label": "status",
            "offset": 0,
            "slot": "0",
            "type": "t_uint8"
          }
        ],
        "numberOfBytes": "32"
      },
      "t_uint256": {
        "encoding": "inplace",
        "label": "uint256",
        "numberOfBytes": "32"
      },
      "t_uint8": {
        "encoding": "inplace",
        "label": "uint8",
        "numberOfBytes": "1"
      }
    }
  }
}