{
  "address": "0xb19ae2d44f25cbbbae625310f367ab9fb49cde92",
  "abi": [
    {
      "inputs": [
        {
          "internalType": "address",
          "name": "_defaultResolver",
          "type": "address"
        }
      ],
      "stateMutability": "nonpayable",
      "type": "constructor"
    },
    {
      "anonymous": false,
      "inputs": [
        {
          "indexed": true,
          "internalType": "address",
          "name": "_owner",
          "type": "address"
        },
        {
          "indexed": true,
          "internalType": "address",
          "name": "_approved",
          "type": "address"
        },
        {
          "indexed": true,
          "internalType": "uint256",
          "name": "_tokenId",
          "type": "uint256"
        }
      ],
      "name": "Approval",
      "type": "event"
    },
    {
      "anonymous": false,
      "inputs": [
        {
          "indexed": true,
          "internalType": "address",
          "name": "_owner",
          "type": "address"
        },
        {
          "indexed": true,
          "internalType": "address",
          "name": "_operator",
          "type": "address"
        },
        {
          "indexed": false,
          "internalType": "bool",
          "name": "_approved",
          "type": "bool"
        }
      ],
      "name": "ApprovalForAll",
      "type": "event"
    },
    {
      "anonymous": false,
      "inputs": [
        {
          "indexed": false,
          "internalType": "uint160",
          "name": "tokenId",
          "type": "uint160"
        },
        {
          "indexed": false,
          "internalType": "address",
          "name": "owner",
          "type": "address"
        },
        {
          "indexed": false,
          "internalType": "uint96",
          "name": "ethOwed",
          "type": "uint96"
        }
      ],
      "name": "Burn",
      "type": "event"
    },
    {
      "anonymous": false,
      "inputs": [
        {
          "indexed": false,
          "internalType": "uint160",
          "name": "tokenId",
          "type": "uint160"
        },
        {
          "indexed": false,
          "internalType": "address",
          "name": "account",
          "type": "address"
        },
        {
          "indexed": false,
          "internalType": "uint96",
          "name": "eth",
          "type": "uint96"
        }
      ],
      "name": "DelegateCommit",
      "type": "event"
    },
    {
      "anonymous": false,
      "inputs": [
        {
          "indexed": false,
          "internalType": "uint160",
          "name": "sellerTokenId",
          "type": "uint160"
        },
        {
          "indexed": false,
          "internalType": "uint16",
          "name": "itemId",
          "type": "uint16"
        },
        {
          "indexed": false,
          "internalType": "uint160",
          "name": "buyerTokenId",
          "type": "uint160"
        },
        {
          "indexed": false,
          "internalType": "uint96",
          "name": "eth",
          "type": "uint96"
        }
      ],
      "name": "DelegateCommitItem",
      "type": "event"
    },
    {
      "anonymous": false,
      "inputs": [
        {
          "indexed": false,
          "internalType": "uint256",
          "name": "epoch",
          "type": "uint256"
        },
        {
          "indexed": false,
          "internalType": "address",
          "name": "account",
          "type": "address"
        },
        {
          "indexed": false,
          "internalType": "uint96",
          "name": "eth",
          "type": "uint96"
        }
      ],
      "name": "DelegateMint",
      "type": "event"
    },
    {
      "anonymous": false,
      "inputs": [
        {
          "indexed": false,
          "internalType": "uint160",
          "name": "tokenId",
          "type": "uint160"
        },
        {
          "indexed": false,
          "internalType": "address",
          "name": "account",
          "type": "address"
        },
        {
          "indexed": false,
          "internalType": "uint96",
          "name": "eth",
          "type": "uint96"
        }
      ],
      "name": "DelegateOffer",
      "type": "event"
    },
    {
      "anonymous": false,
      "inputs": [
        {
          "indexed": false,
          "internalType": "uint160",
          "name": "sellerTokenId",
          "type": "uint160"
        },
        {
          "indexed": false,
          "internalType": "uint16",
          "name": "itemId",
          "type": "uint16"
        },
        {
          "indexed": false,
          "internalType": "uint160",
          "name": "buyerTokenId",
          "type": "uint160"
        },
        {
          "indexed": false,
          "internalType": "uint96",
          "name": "eth",
          "type": "uint96"
        }
      ],
      "name": "DelegateOfferItem",
      "type": "event"
    },
    {
      "anonymous": false,
      "inputs": [
        {
          "indexed": false,
          "internalType": "uint256",
          "name": "tokenId",
          "type": "uint256"
        },
        {
          "indexed": false,
          "internalType": "address",
          "name": "to",
          "type": "address"
        }
      ],
      "name": "DotnuggV1ResolverUpdated",
      "type": "event"
    },
    {
      "anonymous": false,
      "inputs": [
        {
          "indexed": false,
          "internalType": "uint256",
          "name": "blocknum",
          "type": "uint256"
        },
        {
          "indexed": false,
          "internalType": "uint32",
          "name": "interval",
          "type": "uint32"
        },
        {
          "indexed": false,
          "internalType": "uint32",
          "name": "offset",
          "type": "uint32"
        }
      ],
      "name": "Genesis",
      "type": "event"
    },
    {
      "anonymous": false,
      "inputs": [
        {
          "indexed": false,
          "internalType": "address",
          "name": "v2",
          "type": "address"
        },
        {
          "indexed": false,
          "internalType": "uint160",
          "name": "tokenId",
          "type": "uint160"
        },
        {
          "indexed": false,
          "internalType": "uint256",
          "name": "proof",
          "type": "uint256"
        },
        {
          "indexed": false,
          "internalType": "address",
          "name": "owner",
          "type": "address"
        },
        {
          "indexed": false,
          "internalType": "uint96",
          "name": "eth",
          "type": "uint96"
        }
      ],
      "name": "MigrateV1Sent",
      "type": "event"
    },
    {
      "anonymous": false,
      "inputs": [
        {
          "indexed": false,
          "internalType": "address",
          "name": "migrator",
          "type": "address"
        }
      ],
      "name": "MigratorV1Updated",
      "type": "event"
    },
    {
      "anonymous": false,
      "inputs": [
        {
          "indexed": false,
          "internalType": "uint160",
          "name": "tokenId",
          "type": "uint160"
        },
        {
          "indexed": false,
          "internalType": "address",
          "name": "account",
          "type": "address"
        },
        {
          "indexed": false,
          "internalType": "uint96",
          "name": "payoffAmount",
          "type": "uint96"
        }
      ],
      "name": "Payoff",
      "type": "event"
    },
    {
      "anonymous": false,
      "inputs": [
        {
          "indexed": false,
          "internalType": "uint160",
          "name": "tokenId",
          "type": "uint160"
        },
        {
          "indexed": false,
          "internalType": "uint256",
          "name": "proof",
          "type": "uint256"
        },
        {
          "indexed": false,
          "internalType": "uint16",
          "name": "itemId",
          "type": "uint16"
        }
      ],
      "name": "PopItem",
      "type": "event"
    },
    {
      "anonymous": false,
      "inputs": [
        {
          "indexed": false,
          "internalType": "uint96",
          "name": "eth",
          "type": "uint96"
        }
      ],
      "name": "ProtocolEthExtracted",
      "type": "event"
    },
    {
      "anonymous": false,
      "inputs": [
        {
          "indexed": false,
          "internalType": "uint160",
          "name": "tokenId",
          "type": "uint160"
        },
        {
          "indexed": false,
          "internalType": "uint256",
          "name": "proof",
          "type": "uint256"
        },
        {
          "indexed": false,
          "internalType": "uint16",
          "name": "itemId",
          "type": "uint16"
        }
      ],
      "name": "PushItem",
      "type": "event"
    },
    {
      "anonymous": false,
      "inputs": [
        {
          "indexed": false,
          "internalType": "uint160",
          "name": "tokenId",
          "type": "uint160"
        },
        {
          "indexed": false,
          "internalType": "uint96",
          "name": "fee",
          "type": "uint96"
        },
        {
          "indexed": false,
          "internalType": "uint96",
          "name": "earned",
          "type": "uint96"
        }
      ],
      "name": "Rebalance",
      "type": "event"
    },
    {
      "anonymous": false,
      "inputs": [
        {
          "indexed": false,
          "internalType": "uint160",
          "name": "tokenId",
          "type": "uint160"
        },
        {
          "indexed": false,
          "internalType": "uint256",
          "name": "proof",
          "type": "uint256"
        },
        {
          "indexed": false,
          "internalType": "uint8",
          "name": "feature",
          "type": "uint8"
        }
      ],
      "name": "RotateItem",
      "type": "event"
    },
    {
      "anonymous": false,
      "inputs": [
        {
          "indexed": false,
          "internalType": "uint160",
          "name": "tokenId",
          "type": "uint160"
        },
        {
          "indexed": false,
          "internalType": "uint256",
          "name": "proof",
          "type": "uint256"
        },
        {
          "indexed": false,
          "internalType": "uint8[]",
          "name": "xs",
          "type": "uint8[]"
        },
        {
          "indexed": false,
          "internalType": "uint8[]",
          "name": "ys",
          "type": "uint8[]"
        }
      ],
      "name": "SetAnchorOverrides",
      "type": "event"
    },
    {
      "anonymous": false,
      "inputs": [
        {
          "indexed": false,
          "internalType": "uint160",
          "name": "tokenId",
          "type": "uint160"
        },
        {
          "indexed": false,
          "internalType": "uint256",
          "name": "proof",
          "type": "uint256"
        },
        {
          "indexed": false,
          "internalType": "uint8[]",
          "name": "items",
          "type": "uint8[]"
        }
      ],
      "name": "SetProof",
      "type": "event"
    },
    {
      "anonymous": false,
      "inputs": [
        {
          "indexed": false,
          "internalType": "uint96",
          "name": "stake",
          "type": "uint96"
        },
        {
          "indexed": false,
          "internalType": "uint96",
          "name": "protocol",
          "type": "uint96"
        }
      ],
      "name": "StakeEth",
      "type": "event"
    },
    {
      "anonymous": false,
      "inputs": [
        {
          "indexed": false,
          "internalType": "uint160",
          "name": "tokenId",
          "type": "uint160"
        },
        {
          "indexed": false,
          "internalType": "address",
          "name": "account",
          "type": "address"
        },
        {
          "indexed": false,
          "internalType": "uint32",
          "name": "epoch",
          "type": "uint32"
        }
      ],
      "name": "SwapClaim",
      "type": "event"
    },
    {
      "anonymous": false,
      "inputs": [
        {
          "indexed": false,
          "internalType": "uint160",
          "name": "sellerTokenId",
          "type": "uint160"
        },
        {
          "indexed": false,
          "internalType": "uint16",
          "name": "itemId",
          "type": "uint16"
        },
        {
          "indexed": false,
          "internalType": "uint160",
          "name": "buyerTokenId",
          "type": "uint160"
        },
        {
          "indexed": false,
          "internalType": "uint32",
          "name": "epoch",
          "type": "uint32"
        }
      ],
      "name": "SwapClaimItem",
      "type": "event"
    },
    {
      "anonymous": false,
      "inputs": [
        {
          "indexed": false,
          "internalType": "uint160",
          "name": "sellerTokenId",
          "type": "uint160"
        },
        {
          "indexed": false,
          "internalType": "uint16",
          "name": "itemId",
          "type": "uint16"
        },
        {
          "indexed": false,
          "internalType": "uint96",
          "name": "eth",
          "type": "uint96"
        }
      ],
      "name": "SwapItemStart",
      "type": "event"
    },
    {
      "anonymous": false,
      "inputs": [
        {
          "indexed": false,
          "internalType": "uint160",
          "name": "tokenId",
          "type": "uint160"
        },
        {
          "indexed": false,
          "internalType": "address",
          "name": "account",
          "type": "address"
        },
        {
          "indexed": false,
          "internalType": "uint96",
          "name": "eth",
          "type": "uint96"
        }
      ],
      "name": "SwapStart",
      "type": "event"
    },
    {
      "anonymous": false,
      "inputs": [
        {
          "indexed": false,
          "internalType": "uint160",
          "name": "tokenId",
          "type": "uint160"
        },
        {
          "indexed": false,
          "internalType": "uint96",
          "name": "principal",
          "type": "uint96"
        }
      ],
      "name": "TakeLoan",
      "type": "event"
    },
    {
      "anonymous": false,
      "inputs": [
        {
          "indexed": true,
          "internalType": "address",
          "name": "_from",
          "type": "address"
        },
        {
          "indexed": true,
          "internalType": "address",
          "name": "_to",
          "type": "address"
        },
        {
          "indexed": true,
          "internalType": "uint256",
          "name": "_tokenId",
          "type": "uint256"
        }
      ],
      "name": "Transfer",
      "type": "event"
    },
    {
      "anonymous": false,
      "inputs": [
        {
          "indexed": true,
          "internalType": "address",
          "name": "user",
          "type": "address"
        },
        {
          "indexed": false,
          "internalType": "bool",
          "name": "trust",
          "type": "bool"
        }
      ],
      "name": "TrustUpdated",
      "type": "event"
    },
    {
      "anonymous": false,
      "inputs": [
        {
          "indexed": false,
          "internalType": "uint96",
          "name": "stake",
          "type": "uint96"
        },
        {
          "indexed": false,
          "internalType": "address",
          "name": "to",
          "type": "address"
        }
      ],
      "name": "UnstakeEth",
      "type": "event"
    },
    {
      "anonymous": false,
      "inputs": [
        {
          "indexed": true,
          "internalType": "address",
          "name": "user",
          "type": "address"
        },
        {
          "indexed": false,
          "internalType": "bool",
          "name": "trusted",
          "type": "bool"
        }
      ],
      "name": "UserTrustUpdated",
      "type": "event"
    },
    {
      "inputs": [],
      "name": "MIN_OFFER",
      "outputs": [
        {
          "internalType": "uint96",
          "name": "",
          "type": "uint96"
        }
      ],
      "stateMutability": "view",
      "type": "function"
    },
    {
      "inputs": [
        {
          "internalType": "address",
          "name": "to",
          "type": "address"
        },
        {
          "internalType": "uint256",
          "name": "tokenId",
          "type": "uint256"
        }
      ],
      "name": "approve",
      "outputs": [],
      "stateMutability": "payable",
      "type": "function"
    },
    {
      "inputs": [
        {
          "internalType": "address",
          "name": "",
          "type": "address"
        }
      ],
      "name": "balanceOf",
      "outputs": [
        {
          "internalType": "uint256",
          "name": "",
          "type": "uint256"
        }
      ],
      "stateMutability": "pure",
      "type": "function"
    },
    {
      "inputs": [
        {
          "internalType": "uint160",
          "name": "tokenId",
          "type": "uint160"
        }
      ],
      "name": "burn",
      "outputs": [],
      "stateMutability": "nonpayable",
      "type": "function"
    },
    {
      "inputs": [
        {
          "internalType": "address",
          "name": "sender",
          "type": "address"
        },
        {
          "internalType": "uint160",
          "name": "tokenId",
          "type": "uint160"
        }
      ],
      "name": "claim",
      "outputs": [],
      "stateMutability": "nonpayable",
      "type": "function"
    },
    {
      "inputs": [
        {
          "internalType": "uint160",
          "name": "buyerTokenId",
          "type": "uint160"
        },
        {
          "internalType": "uint160",
          "name": "sellerTokenId",
          "type": "uint160"
        },
        {
          "internalType": "uint16",
          "name": "itemId",
          "type": "uint16"
        }
      ],
      "name": "claimItem",
      "outputs": [],
      "stateMutability": "nonpayable",
      "type": "function"
    },
    {
      "inputs": [
        {
          "internalType": "address",
          "name": "sender",
          "type": "address"
        },
        {
          "internalType": "uint160",
          "name": "tokenId",
          "type": "uint160"
        }
      ],
      "name": "delegate",
      "outputs": [],
      "stateMutability": "payable",
      "type": "function"
    },
    {
      "inputs": [
        {
          "internalType": "uint160",
          "name": "buyerTokenId",
          "type": "uint160"
        },
        {
          "internalType": "uint160",
          "name": "sellerTokenId",
          "type": "uint160"
        },
        {
          "internalType": "uint16",
          "name": "itemId",
          "type": "uint16"
        }
      ],
      "name": "delegateItem",
      "outputs": [],
      "stateMutability": "payable",
      "type": "function"
    },
    {
      "inputs": [
        {
          "internalType": "uint256",
          "name": "tokenId",
          "type": "uint256"
        }
      ],
      "name": "dotnuggV1Callback",
      "outputs": [
        {
          "components": [
            {
              "internalType": "uint256",
              "name": "version",
              "type": "uint256"
            },
            {
              "internalType": "uint256",
              "name": "renderedAt",
              "type": "uint256"
            },
            {
              "internalType": "string",
              "name": "name",
              "type": "string"
            },
            {
              "internalType": "string",
              "name": "desc",
              "type": "string"
            },
            {
              "internalType": "address",
              "name": "owner",
              "type": "address"
            },
            {
              "internalType": "uint256",
              "name": "tokenId",
              "type": "uint256"
            },
            {
              "internalType": "uint256",
              "name": "proof",
              "type": "uint256"
            },
            {
              "internalType": "uint8[]",
              "name": "ids",
              "type": "uint8[]"
            },
            {
              "internalType": "uint8[]",
              "name": "extras",
              "type": "uint8[]"
            },
            {
              "internalType": "uint8[]",
              "name": "xovers",
              "type": "uint8[]"
            },
            {
              "internalType": "uint8[]",
              "name": "yovers",
              "type": "uint8[]"
            }
          ],
          "internalType": "struct IDotnuggV1Data.Data",
          "name": "data",
          "type": "tuple"
        }
      ],
      "stateMutability": "view",
      "type": "function"
    },
    {
      "inputs": [],
      "name": "dotnuggV1DefaultWidth",
      "outputs": [
        {
          "internalType": "uint8",
          "name": "",
          "type": "uint8"
        }
      ],
      "stateMutability": "view",
      "type": "function"
    },
    {
      "inputs": [],
      "name": "dotnuggV1DefaultZoom",
      "outputs": [
        {
          "internalType": "uint8",
          "name": "",
          "type": "uint8"
        }
      ],
      "stateMutability": "view",
      "type": "function"
    },
    {
      "inputs": [],
      "name": "dotnuggV1Processor",
      "outputs": [
        {
          "internalType": "address",
          "name": "",
          "type": "address"
        }
      ],
      "stateMutability": "view",
      "type": "function"
    },
    {
      "inputs": [
        {
          "internalType": "uint256",
          "name": "tokenId",
          "type": "uint256"
        }
      ],
      "name": "dotnuggV1ResolverOf",
      "outputs": [
        {
          "internalType": "address",
          "name": "",
          "type": "address"
        }
      ],
      "stateMutability": "view",
      "type": "function"
    },
    {
      "inputs": [
        {
          "internalType": "uint256[][]",
          "name": "data",
          "type": "uint256[][]"
        },
        {
          "internalType": "uint8",
          "name": "feature",
          "type": "uint8"
        }
      ],
      "name": "dotnuggV1StoreFiles",
      "outputs": [],
      "stateMutability": "nonpayable",
      "type": "function"
    },
    {
      "inputs": [],
      "name": "epoch",
      "outputs": [
        {
          "internalType": "uint32",
          "name": "res",
          "type": "uint32"
        }
      ],
      "stateMutability": "view",
      "type": "function"
    },
    {
      "inputs": [],
      "name": "ethPerShare",
      "outputs": [
        {
          "internalType": "uint96",
          "name": "res",
          "type": "uint96"
        }
      ],
      "stateMutability": "view",
      "type": "function"
    },
    {
      "inputs": [],
      "name": "extractProtocolEth",
      "outputs": [],
      "stateMutability": "nonpayable",
      "type": "function"
    },
    {
      "inputs": [],
      "name": "genesis",
      "outputs": [
        {
          "internalType": "uint256",
          "name": "",
          "type": "uint256"
        }
      ],
      "stateMutability": "view",
      "type": "function"
    },
    {
      "inputs": [
        {
          "internalType": "uint256",
          "name": "tokenId",
          "type": "uint256"
        }
      ],
      "name": "getApproved",
      "outputs": [
        {
          "internalType": "address",
          "name": "",
          "type": "address"
        }
      ],
      "stateMutability": "view",
      "type": "function"
    },
    {
      "inputs": [
        {
          "internalType": "address",
          "name": "owner",
          "type": "address"
        },
        {
          "internalType": "address",
          "name": "operator",
          "type": "address"
        }
      ],
      "name": "isApprovedForAll",
      "outputs": [
        {
          "internalType": "bool",
          "name": "",
          "type": "bool"
        }
      ],
      "stateMutability": "view",
      "type": "function"
    },
    {
      "inputs": [
        {
          "internalType": "address",
          "name": "",
          "type": "address"
        }
      ],
      "name": "isTrusted",
      "outputs": [
        {
          "internalType": "bool",
          "name": "",
          "type": "bool"
        }
      ],
      "stateMutability": "view",
      "type": "function"
    },
    {
      "inputs": [
        {
          "internalType": "uint160",
          "name": "tokenId",
          "type": "uint160"
        }
      ],
      "name": "loan",
      "outputs": [],
      "stateMutability": "nonpayable",
      "type": "function"
    },
    {
      "inputs": [
        {
          "internalType": "uint160",
          "name": "tokenId",
          "type": "uint160"
        }
      ],
      "name": "loanInfo",
      "outputs": [
        {
          "internalType": "uint96",
          "name": "toPayoff",
          "type": "uint96"
        },
        {
          "internalType": "uint96",
          "name": "toRebalance",
          "type": "uint96"
        },
        {
          "internalType": "uint96",
          "name": "earned",
          "type": "uint96"
        },
        {
          "internalType": "uint32",
          "name": "epochDue",
          "type": "uint32"
        },
        {
          "internalType": "address",
          "name": "loaner",
          "type": "address"
        }
      ],
      "stateMutability": "view",
      "type": "function"
    },
    {
      "inputs": [
        {
          "internalType": "uint160",
          "name": "tokenId",
          "type": "uint160"
        }
      ],
      "name": "migrate",
      "outputs": [],
      "stateMutability": "nonpayable",
      "type": "function"
    },
    {
      "inputs": [],
      "name": "migrator",
      "outputs": [
        {
          "internalType": "address",
          "name": "",
          "type": "address"
        }
      ],
      "stateMutability": "view",
      "type": "function"
    },
    {
      "inputs": [],
      "name": "minSharePrice",
      "outputs": [
        {
          "internalType": "uint96",
          "name": "res",
          "type": "uint96"
        }
      ],
      "stateMutability": "view",
      "type": "function"
    },
    {
      "inputs": [
        {
          "internalType": "uint160",
          "name": "tokenId",
          "type": "uint160"
        }
      ],
      "name": "mint",
      "outputs": [],
      "stateMutability": "payable",
      "type": "function"
    },
    {
      "inputs": [],
      "name": "name",
      "outputs": [
        {
          "internalType": "string",
          "name": "",
          "type": "string"
        }
      ],
      "stateMutability": "pure",
      "type": "function"
    },
    {
      "inputs": [
        {
          "internalType": "uint256",
          "name": "tokenId",
          "type": "uint256"
        }
      ],
      "name": "ownerOf",
      "outputs": [
        {
          "internalType": "address",
          "name": "",
          "type": "address"
        }
      ],
      "stateMutability": "view",
      "type": "function"
    },
    {
      "inputs": [
        {
          "internalType": "uint160",
          "name": "tokenId",
          "type": "uint160"
        }
      ],
      "name": "parsedProofOf",
      "outputs": [
        {
          "internalType": "uint256",
          "name": "proof",
          "type": "uint256"
        },
        {
          "internalType": "uint8[]",
          "name": "defaultIds",
          "type": "uint8[]"
        },
        {
          "internalType": "uint8[]",
          "name": "extraIds",
          "type": "uint8[]"
        },
        {
          "internalType": "uint8[]",
          "name": "overxs",
          "type": "uint8[]"
        },
        {
          "internalType": "uint8[]",
          "name": "overys",
          "type": "uint8[]"
        }
      ],
      "stateMutability": "view",
      "type": "function"
    },
    {
      "inputs": [
        {
          "internalType": "uint160",
          "name": "tokenId",
          "type": "uint160"
        }
      ],
      "name": "payoff",
      "outputs": [],
      "stateMutability": "payable",
      "type": "function"
    },
    {
      "inputs": [
        {
          "internalType": "uint160",
          "name": "tokenId",
          "type": "uint160"
        }
      ],
      "name": "proofOf",
      "outputs": [
        {
          "internalType": "uint256",
          "name": "",
          "type": "uint256"
        }
      ],
      "stateMutability": "view",
      "type": "function"
    },
    {
      "inputs": [],
      "name": "protocolEth",
      "outputs": [
        {
          "internalType": "uint96",
          "name": "res",
          "type": "uint96"
        }
      ],
      "stateMutability": "view",
      "type": "function"
    },
    {
      "inputs": [
        {
          "internalType": "uint160",
          "name": "tokenId",
          "type": "uint160"
        }
      ],
      "name": "rebalance",
      "outputs": [],
      "stateMutability": "payable",
      "type": "function"
    },
    {
      "inputs": [
        {
          "internalType": "uint160",
          "name": "tokenId",
          "type": "uint160"
        },
        {
          "internalType": "uint8",
          "name": "feature",
          "type": "uint8"
        }
      ],
      "name": "rotateFeature",
      "outputs": [],
      "stateMutability": "nonpayable",
      "type": "function"
    },
    {
      "inputs": [
        {
          "internalType": "address",
          "name": "",
          "type": "address"
        },
        {
          "internalType": "address",
          "name": "",
          "type": "address"
        },
        {
          "internalType": "uint256",
          "name": "",
          "type": "uint256"
        }
      ],
      "name": "safeTransferFrom",
      "outputs": [],
      "stateMutability": "payable",
      "type": "function"
    },
    {
      "inputs": [
        {
          "internalType": "address",
          "name": "",
          "type": "address"
        },
        {
          "internalType": "address",
          "name": "",
          "type": "address"
        },
        {
          "internalType": "uint256",
          "name": "",
          "type": "uint256"
        },
        {
          "internalType": "bytes",
          "name": "",
          "type": "bytes"
        }
      ],
      "name": "safeTransferFrom",
      "outputs": [],
      "stateMutability": "payable",
      "type": "function"
    },
    {
      "inputs": [
        {
          "internalType": "address",
          "name": "operator",
          "type": "address"
        },
        {
          "internalType": "bool",
          "name": "approved",
          "type": "bool"
        }
      ],
      "name": "setApprovalForAll",
      "outputs": [],
      "stateMutability": "nonpayable",
      "type": "function"
    },
    {
      "inputs": [
        {
          "internalType": "uint256",
          "name": "tokenId",
          "type": "uint256"
        },
        {
          "internalType": "address",
          "name": "to",
          "type": "address"
        }
      ],
      "name": "setDotnuggV1Resolver",
      "outputs": [],
      "stateMutability": "nonpayable",
      "type": "function"
    },
    {
      "inputs": [
        {
          "internalType": "address",
          "name": "user",
          "type": "address"
        },
        {
          "internalType": "bool",
          "name": "trusted",
          "type": "bool"
        }
      ],
      "name": "setIsTrusted",
      "outputs": [],
      "stateMutability": "nonpayable",
      "type": "function"
    },
    {
      "inputs": [
        {
          "internalType": "address",
          "name": "_migrator",
          "type": "address"
        }
      ],
      "name": "setMigrator",
      "outputs": [],
      "stateMutability": "nonpayable",
      "type": "function"
    },
    {
      "inputs": [
        {
          "internalType": "uint160",
          "name": "tokenId",
          "type": "uint160"
        },
        {
          "internalType": "uint8[]",
          "name": "xs",
          "type": "uint8[]"
        },
        {
          "internalType": "uint8[]",
          "name": "ys",
          "type": "uint8[]"
        }
      ],
      "name": "setOverrides",
      "outputs": [],
      "stateMutability": "nonpayable",
      "type": "function"
    },
    {
      "inputs": [],
      "name": "stakedEth",
      "outputs": [
        {
          "internalType": "uint96",
          "name": "res",
          "type": "uint96"
        }
      ],
      "stateMutability": "view",
      "type": "function"
    },
    {
      "inputs": [],
      "name": "stakedShares",
      "outputs": [
        {
          "internalType": "uint64",
          "name": "res",
          "type": "uint64"
        }
      ],
      "stateMutability": "view",
      "type": "function"
    },
    {
      "inputs": [
        {
          "internalType": "bytes4",
          "name": "interfaceId",
          "type": "bytes4"
        }
      ],
      "name": "supportsInterface",
      "outputs": [
        {
          "internalType": "bool",
          "name": "",
          "type": "bool"
        }
      ],
      "stateMutability": "view",
      "type": "function"
    },
    {
      "inputs": [
        {
          "internalType": "uint160",
          "name": "tokenId",
          "type": "uint160"
        },
        {
          "internalType": "uint96",
          "name": "floor",
          "type": "uint96"
        }
      ],
      "name": "swap",
      "outputs": [],
      "stateMutability": "nonpayable",
      "type": "function"
    },
    {
      "inputs": [
        {
          "internalType": "uint160",
          "name": "sellerTokenId",
          "type": "uint160"
        },
        {
          "internalType": "uint16",
          "name": "itemId",
          "type": "uint16"
        },
        {
          "internalType": "uint96",
          "name": "floor",
          "type": "uint96"
        }
      ],
      "name": "swapItem",
      "outputs": [],
      "stateMutability": "nonpayable",
      "type": "function"
    },
    {
      "inputs": [],
      "name": "symbol",
      "outputs": [
        {
          "internalType": "string",
          "name": "",
          "type": "string"
        }
      ],
      "stateMutability": "pure",
      "type": "function"
    },
    {
      "inputs": [
        {
          "internalType": "uint256",
          "name": "tokenId",
          "type": "uint256"
        }
      ],
      "name": "tokenURI",
      "outputs": [
        {
          "internalType": "string",
          "name": "res",
          "type": "string"
        }
      ],
      "stateMutability": "view",
      "type": "function"
    },
    {
      "inputs": [],
      "name": "totalSupply",
      "outputs": [
        {
          "internalType": "uint256",
          "name": "res",
          "type": "uint256"
        }
      ],
      "stateMutability": "view",
      "type": "function"
    },
    {
      "inputs": [
        {
          "internalType": "address",
          "name": "",
          "type": "address"
        },
        {
          "internalType": "address",
          "name": "",
          "type": "address"
        },
        {
          "internalType": "uint256",
          "name": "",
          "type": "uint256"
        }
      ],
      "name": "transferFrom",
      "outputs": [],
      "stateMutability": "payable",
      "type": "function"
    },
    {
      "inputs": [
        {
          "internalType": "uint160",
          "name": "tokenId",
          "type": "uint160"
        },
        {
          "internalType": "address",
          "name": "to",
          "type": "address"
        }
      ],
      "name": "trustedMint",
      "outputs": [],
      "stateMutability": "payable",
      "type": "function"
    },
    {
      "inputs": [
        {
          "internalType": "address",
          "name": "sender",
          "type": "address"
        },
        {
          "internalType": "uint160",
          "name": "tokenId",
          "type": "uint160"
        }
      ],
      "name": "valueForDelegate",
      "outputs": [
        {
          "internalType": "bool",
          "name": "canDelegate",
          "type": "bool"
        },
        {
          "internalType": "uint96",
          "name": "nextSwapAmount",
          "type": "uint96"
        },
        {
          "internalType": "uint96",
          "name": "senderCurrentOffer",
          "type": "uint96"
        }
      ],
      "stateMutability": "view",
      "type": "function"
    },
    {
      "inputs": [
        {
          "internalType": "uint160",
          "name": "tokenId",
          "type": "uint160"
        }
      ],
      "name": "valueForPayoff",
      "outputs": [
        {
          "internalType": "uint96",
          "name": "res",
          "type": "uint96"
        }
      ],
      "stateMutability": "view",
      "type": "function"
    },
    {
      "inputs": [
        {
          "internalType": "uint160",
          "name": "tokenId",
          "type": "uint160"
        }
      ],
      "name": "valueForRebalance",
      "outputs": [
        {
          "internalType": "uint96",
          "name": "res",
          "type": "uint96"
        }
      ],
      "stateMutability": "view",
      "type": "function"
    }
  ],
  "transactionHash": "0xaf41b2d6d520a1553fde21457e36fe9a377f39876d09583ba93baa47703901db",
  "args": [
    "0xed544dcDA2d612FcEC0Ca4c15569e3dC0b05626E"
  ],
  "solcInputHash": "b66322a77796441696ca0c16100d8202",
  "bytecode": "0x60a06040526004805461ffff60a01b1916610a2d60a01b1790553480156200002657600080fd5b506040516200603e3803806200603e833981016040819052620000499162000156565b4360808190526040805191825260456020830152610bb88282015251829133917f183ba372104e811ca56ea566d43048a8c560dbb9cce5c8d5e9987c710b38d9469181900360600190a16001600160a01b038116600081815260036020908152604091829020805460ff1916600190811790915591519182527fe95aec380cae16330d146d5499ef7db6f3657e477104a733e771bc09e500d986910160405180910390a2506001600160a01b0381166200012f5760405162461bcd60e51b8152602060048201526003602482015262118e8d60ea1b604482015260640160405180910390fd5b600480546001600160a01b0319166001600160a01b03929092169190911790555062000188565b6000602082840312156200016957600080fd5b81516001600160a01b03811681146200018157600080fd5b9392505050565b608051615e8c620001b26000396000818161089301528181613af601526151440152615e8c6000f3fe6080604052600436106103605760003560e01c8063939f4130116101c6578063c87b56dd116100f7578063f71d090411610095578063fb774eb81161006f578063fb774eb814610a87578063fca840ae14610aa7578063fe7e997e14610ac7578063ffcf6d3a14610ae757600080fd5b8063f71d090414610a3f578063fa73299214610a54578063fb306b0f14610a6757600080fd5b8063e985e9c5116100d1578063e985e9c5146109d5578063ecc1113f146109f5578063ee0ca98914610a15578063f666b9a614610a2a57600080fd5b8063c87b56dd14610929578063d7dc681914610949578063e5cbd48e146109b557600080fd5b8063a2c7172711610164578063b88ea0141161013e578063b88ea014146108c3578063beace31f146108e3578063c06c822f146108f6578063c5c8beeb1461090957600080fd5b8063a2c717271461086e578063a7f0b3de14610881578063b88d4fde146108b557600080fd5b806395d89b41116101a057806395d89b411461078c57806396d64879146107d257806399081a2614610802578063a22cb4651461084e57600080fd5b8063939f4130146107245780639531b94d14610744578063957c9e281461075957600080fd5b806351d4d67e116102a0578063750656f61161023e5780638307fa5b116102185780638307fa5b1461068c578063900cf0cf146106ac5780639066fdf8146106d657806390a577ef146106f657600080fd5b8063750656f6146106395780637cd07e471461064c57806381dcebcf1461066c57600080fd5b80635e983d4f1161027a5780635e983d4f146105ab578063608cceb0146105d85780636352211e146105f857806370a082311461061857600080fd5b806351d4d67e146105565780635558e4e214610576578063570f67ad1461059657600080fd5b80631393916a1161030d57806323cf3118116102e757806323cf3118146104ba5780633853d8a1146104da57806342842e0e146104ac57806348a7dec01461051257600080fd5b80631393916a1461046957806318160ddd1461048957806323b872dd146104ac57600080fd5b8063081812fc1161033e578063081812fc1461040b578063095ea7b3146104435780631056b9d51461045657600080fd5b806301ffc9a7146103655780630251f62c1461039a57806306fdde03146103bc575b600080fd5b34801561037157600080fd5b5061038561038036600461518b565b610b18565b60405190151581526020015b60405180910390f35b3480156103a657600080fd5b506103ba6103b53660046151e2565b610c95565b005b3480156103c857600080fd5b5060408051808201909152601681527f4e7567672046756e6769626c6520546f6b656e2056310000000000000000000060208201525b6040516103919190615257565b34801561041757600080fd5b5061042b61042636600461526a565b610dc0565b6040516001600160a01b039091168152602001610391565b6103ba610451366004615283565b610dd3565b6103ba6104643660046152c1565b610ea7565b34801561047557600080fd5b506103ba610484366004615308565b61113a565b34801561049557600080fd5b5061049e6111bf565b604051908152602001610391565b6103ba610360366004615346565b3480156104c657600080fd5b506103ba6104d53660046151e2565b6111d8565b3480156104e657600080fd5b506104f56601c6bf5263400081565b6040516bffffffffffffffffffffffff9091168152602001610391565b34801561051e57600080fd5b506004546105449074010000000000000000000000000000000000000000900460ff1681565b60405160ff9091168152602001610391565b34801561056257600080fd5b506103ba610571366004615387565b611241565b34801561058257600080fd5b5061042b61059136600461526a565b61135c565b3480156105a257600080fd5b506103ba61138e565b3480156105b757600080fd5b506105cb6105c636600461526a565b6113f9565b60405161039191906153f3565b3480156105e457600080fd5b506104f56105f33660046151e2565b611546565b34801561060457600080fd5b5061042b61061336600461526a565b61155c565b34801561062457600080fd5b5061049e6106333660046151e2565b50600090565b6103ba6106473660046151e2565b61156a565b34801561065857600080fd5b5060095461042b906001600160a01b031681565b34801561067857600080fd5b506103ba6106873660046151e2565b611609565b34801561069857600080fd5b506103ba6106a73660046154ed565b611784565b3480156106b857600080fd5b506106c1611856565b60405163ffffffff9091168152602001610391565b3480156106e257600080fd5b506103ba6106f1366004615521565b611866565b34801561070257600080fd5b5061070b61193d565b60405167ffffffffffffffff9091168152602001610391565b34801561073057600080fd5b506103ba61073f3660046151e2565b61194b565b34801561075057600080fd5b506104f56119c6565b34801561076557600080fd5b50600454610544907501000000000000000000000000000000000000000000900460ff1681565b34801561079857600080fd5b5060408051808201909152600681527f4e5547474654000000000000000000000000000000000000000000000000000060208201526103fe565b3480156107de57600080fd5b506103856107ed3660046151e2565b60036020526000908152604090205460ff1681565b34801561080e57600080fd5b5061082261081d366004615387565b6119dc565b6040805193151584526bffffffffffffffffffffffff9283166020850152911690820152606001610391565b34801561085a57600080fd5b506103ba610869366004615308565b611adc565b6103ba61087c366004615387565b611b66565b34801561088d57600080fd5b5061049e7f000000000000000000000000000000000000000000000000000000000000000081565b6103ba6103603660046155d7565b3480156108cf57600080fd5b5061049e6108de3660046151e2565b611f6b565b6103ba6108f1366004615387565b611fe8565b6103ba6109043660046151e2565b61207d565b34801561091557600080fd5b506103ba6109243660046156a2565b612249565b34801561093557600080fd5b506103fe61094436600461526a565b612410565b34801561095557600080fd5b506109696109643660046151e2565b61255a565b604080516bffffffffffffffffffffffff96871681529486166020860152929094169183019190915263ffffffff1660608201526001600160a01b03909116608082015260a001610391565b3480156109c157600080fd5b5060045461042b906001600160a01b031681565b3480156109e157600080fd5b506103856109f0366004615387565b6125aa565b348015610a0157600080fd5b506104f5610a103660046151e2565b6125bd565b348015610a2157600080fd5b506104f56125d3565b348015610a3657600080fd5b506104f56125de565b348015610a4b57600080fd5b506104f56125ec565b6103ba610a623660046151e2565b6125f9565b348015610a7357600080fd5b506103ba610a823660046156ce565b612854565b348015610a9357600080fd5b506103ba610aa23660046152c1565b612958565b348015610ab357600080fd5b506103ba610ac2366004615754565b612b03565b348015610ad357600080fd5b506103ba610ae2366004615819565b612c65565b348015610af357600080fd5b50610b07610b023660046151e2565b612d85565b60405161039195949392919061588f565b60007fffffffff0000000000000000000000000000000000000000000000000000000082167fa5a85640000000000000000000000000000000000000000000000000000000001480610bab57507fffffffff0000000000000000000000000000000000000000000000000000000082167fee4f8adf00000000000000000000000000000000000000000000000000000000145b80610bf757507fffffffff0000000000000000000000000000000000000000000000000000000082167f80ac58cd00000000000000000000000000000000000000000000000000000000145b80610c4357507fffffffff0000000000000000000000000000000000000000000000000000000082167f5b5e139f00000000000000000000000000000000000000000000000000000000145b80610c8f57507fffffffff0000000000000000000000000000000000000000000000000000000082167f01ffc9a700000000000000000000000000000000000000000000000000000000145b92915050565b6000610ca082612e18565b9050610cac3382612e9c565b610cfd5760405162461bcd60e51b815260206004820152600360248201527f4c3a30000000000000000000000000000000000000000000000000000000000060448201526064015b60405180910390fd5b6000610d1a610d0a611856565b83610d136125ec565b6000612ee9565b506001600160a01b0384166000908152600d6020526040902081905590507fdf65fae456ee5bcd916efcb9b5ad07667d7fc396aff61536c465f280393fbd3e83610d6383612f3b565b604080516001600160a01b0390931683526bffffffffffffffffffffffff90911660208301520160405180910390a1610d9b83612f62565b610dbb82610da883612f3b565b6bffffffffffffffffffffffff16613025565b505050565b6000610c8f610dce83613080565b61309a565b6000610de6610de183613080565b612e18565b9050610df23382612e9c565b610e3e5760405162461bcd60e51b815260206004820152600360248201527f473a3100000000000000000000000000000000000000000000000000000000006044820152606401610cf4565b600082815260016020526040808220805473ffffffffffffffffffffffffffffffffffffffff19166001600160a01b0387811691821790925591518593918516917f8c5be1e5ebec7d5bd14f71427d1e84f3dd0314c0f7b2291e5b200ac8c7c3b92591a4505050565b610eb13384613110565b610efd5760405162461bcd60e51b815260206004820152600360248201527f533a3600000000000000000000000000000000000000000000000000000000006044820152606401610cf4565b600080610f0b848487613124565b80519193509150610f5e5760405162461bcd60e51b815260206004820152600360248201527f533a5300000000000000000000000000000000000000000000000000000000006044820152606401610cf4565b60208101511561102e57806040015163ffffffff16610f808260200151613180565b63ffffffff161015610fd45760405162461bcd60e51b815260206004820152600360248201527f533a3700000000000000000000000000000000000000000000000000000000006044820152606401610cf4565b602081015160ff1c6001141561102e5760405162461bcd60e51b8152600401610cf49060208082526004908201527f4e4f504500000000000000000000000000000000000000000000000000000000604082015260600190565b60208101511580156110445750805160ff1c6001145b156110c05760006110558383613195565b604080516001600160a01b03888116825261ffff881660208301528916818301526bffffffffffffffffffffffff8316606082015290519192507fdcd75b8c1f9c84e8b7d26df979d7ddbc4139b72f6c8e0e7123bb63d63ba1c325919081900360800190a150611133565b60006110cc83836132f9565b604080516001600160a01b03888116825261ffff881660208301528916818301526bffffffffffffffffffffffff8316606082015290519192507f3bbfe02e9ee64811b7404130d1c8a263edbb6ab73af1dc502dd56d43a3ddd1a3919081900360800190a1505b5050505050565b611142613400565b6001600160a01b03821660008181526003602090815260409182902080547fffffffffffffffffffffffffffffffffffffffffffffffffffffffffffffff001685151590811790915591519182527fe95aec380cae16330d146d5499ef7db6f3657e477104a733e771bc09e500d986910160405180910390a25050565b60006111c961193d565b67ffffffffffffffff16905090565b6111e0613400565b6009805473ffffffffffffffffffffffffffffffffffffffff19166001600160a01b0383169081179091556040519081527fc97e86a927b4a897832650767255fd568e377e7fbe9586c81d26b77a2c3ffc8b9060200160405180910390a150565b61124b3383612e9c565b6112975760405162461bcd60e51b815260206004820152600360248201527f533a3800000000000000000000000000000000000000000000000000000000006044820152606401610cf4565b6000806112a48385613461565b6001600160a01b038616600090815260018301602052604081205590925090506112cd816134ad565b156112e557600082556112e0848461359b565b6112f6565b6112f684610da88360200151612f3b565b7f10c1106c1b3c266f6cf55047c56a839a002c11736bbf9c4acdec566e80677e9b83856113268460200151613180565b604080516001600160a01b03948516815293909216602084015263ffffffff16908201526060015b60405180910390a150505050565b60006006600061136b84613080565b6001600160a01b0390811682526020820192909252604001600020541692915050565b611396613400565b600a547f8e4dbe2f73d3458c68bca94210eabefac52a4d20c038a8e50197ac9db654291b816040516bffffffffffffffffffffffff909116815260200160405180910390a16113e53382610da8565b6bffffffffffffffffffffffff1916600a55565b61145f6040518061016001604052806000815260200160008152602001606081526020016060815260200160006001600160a01b031681526020016000815260200160008152602001606081526020016060815260200160608152602001606081525090565b6000806000806000611473610b0288613080565b6040805161016081018252600181524260208083019190915282518084018452600981527f4e75676746542056310000000000000000000000000000000000000000000000818301528284015282518084018452601681527f4e7567672046756e6769626c6520546f6b656e2056310000000000000000000081830152606083015260008f81529081905291909120546001600160a01b0316608082015260a081019c909c5260c08c019490945260e08b01929092526101008a0152610120890152610140880152509495945050505050565b60006115518261255a565b509195945050505050565b6000610c8f610de183613080565b6115786101f461271061591d565b63ffffffff16816001600160a01b031610801561159f57506101f46001600160a01b038216115b6115eb5760405162461bcd60e51b815260206004820152600360248201527f473a3100000000000000000000000000000000000000000000000000000000006044820152606401610cf4565b6115f3613641565b6115fc81613776565b61160633826138b1565b50565b6009546001600160a01b03166116615760405162461bcd60e51b815260206004820152600360248201527f543a3400000000000000000000000000000000000000000000000000000000006044820152606401610cf4565b600061166c82611f6b565b9050600061167983613919565b6009546040517f80011aa70000000000000000000000000000000000000000000000000000000081526001600160a01b038681166004830152602482018690523360448301529293509116906380011aa7906bffffffffffffffffffffffff8416906064016000604051808303818588803b1580156116f757600080fd5b505af115801561170b573d6000803e3d6000fd5b5050600954604080516001600160a01b039283168152918816602083015281018690523360608201526bffffffffffffffffffffffff851660808201527f58ca548c1fd63f641dfb02f79df36d4f29bd995f0733d2ed3595b6cfde7db4e1935060a00191506117779050565b60405180910390a1505050565b6117963361179184613080565b613110565b6117e25760405162461bcd60e51b815260206004820152600360248201527f463a3500000000000000000000000000000000000000000000000000000000006044820152606401610cf4565b600082815260066020908152604091829020805473ffffffffffffffffffffffffffffffffffffffff19166001600160a01b0385169081179091558251858152918201527f7656ff24c75404c1fac4fa475e193f5ac3f455ada5e60a315bf6b8eaa8bd5e9b91015b60405180910390a15050565b600061186143613aea565b905090565b6118703383613110565b6118bc5760405162461bcd60e51b815260206004820152600360248201527f503a4100000000000000000000000000000000000000000000000000000000006044820152606401610cf4565b60006118c783611f6b565b90506118d38183613b2f565b90506118df8183613c4a565b6001600160a01b0384166000818152600860209081526040918290208490558151928352820183905260ff8516908201529091507fe0b01689336e903dba5ec8bc01d79a4ec6aa4f944cd16d45d32700fb594b74ae90606001611777565b6000611861600a5460c01c90565b600061195682613919565b905061197033826bffffffffffffffffffffffff16613025565b604080516001600160a01b03841681523360208201526bffffffffffffffffffffffff8316918101919091527f6866bab9e57b1b8d6e867bb41dc78ec6f8fcbdca05d8f065e3353df689741ff29060600161184a565b60006119d3600a54613cd9565b50919392505050565b6001600080806119ec8587613461565b805190925015159050611a3c57846001600160a01b0316816040015163ffffffff161415611a2b57611a24611a1f6119c6565b613d40565b9250611aa5565b600080600093509350935050611ad5565b602081015160ff1c60011415611a5157600093505b611a5e8160200151612f3b565b9150611a6d8160000151612f3b565b9250611a776125ec565b6bffffffffffffffffffffffff16836bffffffffffffffffffffffff161015611aa557611aa26125ec565b92505b6bffffffffffffffffffffffff8316611ac7576601c6bf526340009250611ad3565b611ad083613d96565b92505b505b9250925092565b3360008181526002602090815260408083206001600160a01b0387168085529083529281902080547fffffffffffffffffffffffffffffffffffffffffffffffffffffffffffffff001686151590811790915590519081529192917f17307eab39ab6107e8899845ad3d59bd9653f200f220920489ca2b5937696c31910160405180910390a35050565b611b703383612e9c565b611bbc5760405162461bcd60e51b815260206004820152600360248201527f533a3000000000000000000000000000000000000000000000000000000000006044820152606401610cf4565b600080611bc98385613461565b91509150826001600160a01b0316816040015163ffffffff16148015611bee57508051155b15611d05576601c6bf52634000341015611c4a5760405162461bcd60e51b815260206004820152600360248201527f533a3100000000000000000000000000000000000000000000000000000000006044820152606401610cf4565b602081015115611c5c57611c5c615945565b6000611c7482604001518360600151610d1334613db4565b508084559050611c82613641565b611c8b84613dcf565b611c9760003086613ef0565b7fb05be3e18f19a4aac09f77432c65062f81615fefa61e76300a99fb2d08c01913848360600151611cc734613db4565b604080516001600160a01b0394851681529390921660208401526bffffffffffffffffffffffff16908201526060015b60405180910390a150611f65565b8051611d535760405162461bcd60e51b815260206004820152600360248201527f533a3400000000000000000000000000000000000000000000000000000000006044820152606401610cf4565b602081015115611e2357806040015163ffffffff16611d758260200151613180565b63ffffffff161015611dc95760405162461bcd60e51b815260206004820152600360248201527f533a5200000000000000000000000000000000000000000000000000000000006044820152606401610cf4565b602081015160ff1c60011415611e235760405162461bcd60e51b8152600401610cf49060208082526004908201527f4e4f504500000000000000000000000000000000000000000000000000000000604082015260600190565b805160ff1c60011415611efa57611e386125ec565b6bffffffffffffffffffffffff16341015611e955760405162461bcd60e51b815260206004820152600360248201527f533a3500000000000000000000000000000000000000000000000000000000006044820152606401610cf4565b6000611ea18383613195565b604080516001600160a01b03871681523360208201526bffffffffffffffffffffffff8316918101919091529091507f8e9681d7ef6204b5eb1f7e898910b723018e455d09ba77c2c9e43346968c887f90606001611cf7565b6000611f0683836132f9565b604080516001600160a01b03871681523360208201526bffffffffffffffffffffffff8316918101919091529091507f695e0d4736a959eec71a66de118059220f6144b53eb2ed3e6ca8508ce8cd1f0a906060015b60405180910390a1505b50505050565b6001600160a01b03811660009081526008602052604081205415611fa557506001600160a01b031660009081526008602052604090205490565b6000806000611fb2613f3f565b50925092509250846001600160a01b031682148015611fd057508215155b15611fdd57949350505050565b506000949350505050565b611ff0613400565b6101f46001600160a01b03831610801561201257506001600160a01b03821615155b61205e5760405162461bcd60e51b815260206004820152600360248201527f473a3100000000000000000000000000000000000000000000000000000000006044820152606401610cf4565b612066613641565b61206f82613776565b61207981836138b1565b5050565b6001600160a01b0381166000908152600d602052604081205461209f90613f6f565b905060008060006120af84613fff565b94505093509350506120c085612e18565b6001600160a01b0316306001600160a01b0316146120e0576120e0615945565b34836bffffffffffffffffffffffff16111561213e5760405162461bcd60e51b815260206004820152600360248201527f4c3a3300000000000000000000000000000000000000000000000000000000006044820152606401610cf4565b612147836140ff565b61214f611856565b63ffffffff1660208501526121626125ec565b6bffffffffffffffffffffffff16845260008061217e8661425a565b6001600160a01b0389166000908152600d602052604081208390559193509150856121a834613db4565b6121b29190615974565b90506000826121c183886159a1565b6121cb91906159a1565b604080516001600160a01b038c1681526bffffffffffffffffffffffff8a8116602083015289168183015290519192507f55ab9f648a42ab2ae7eed81f0683a7bae5d54989d8125f397a88f72bec826917919081900360600190a161223e85826bffffffffffffffffffffffff16613025565b505050505050505050565b600061225483612e18565b90506122603382612e9c565b6122ac5760405162461bcd60e51b815260206004820152600360248201527f533a4100000000000000000000000000000000000000000000000000000000006044820152606401610cf4565b6122b46125ec565b6bffffffffffffffffffffffff16826bffffffffffffffffffffffff16101561231f5760405162461bcd60e51b815260206004820152600360248201527f533a4200000000000000000000000000000000000000000000000000000000006044820152606401610cf4565b61232883612f62565b6000806123358584613461565b80519193509150156123895760405162461bcd60e51b815260206004820152600560248201527f4e4f5045320000000000000000000000000000000000000000000000000000006044820152606401610cf4565b60008061239a600086886001612ee9565b81865590925090507f3d175b4f67d380f8c4185f649f2cfeda5da34c1156302187ac843b620f9c9cd387866123cf848a615974565b604080516001600160a01b0394851681529390921660208401526bffffffffffffffffffffffff16908201526060015b60405180910390a150505050505050565b6060600061241d83613080565b6001600160a01b038082166000908152600660205260408120549293509116612451576004546001600160a01b0316612463565b612463826001600160a01b031661135c565b600480546040517f084050f50000000000000000000000000000000000000000000000000000000081523092810192909252602482018790526001600160a01b03838116604484015260ff7401000000000000000000000000000000000000000083048116606485015275010000000000000000000000000000000000000000008304166084840152929350919091169063084050f59060a40160006040518083038186803b15801561251557600080fd5b505afa158015612529573d6000803e3d6000fd5b505050506040513d6000823e601f3d908101601f1916820160405261255191908101906159c8565b95945050505050565b6000806000806000612598612593600d6000896001600160a01b03166001600160a01b0316815260200190815260200160002054613f6f565b613fff565b939a9299509097509550909350915050565b60006125b68284612e9c565b9392505050565b60006125c88261255a565b509295945050505050565b6000611861600a5490565b6000611861600a5460601c90565b6000611861600a54614283565b600080600080600061260a8661255a565b945063ffffffff16945094509450945061262386612e18565b6001600160a01b0316306001600160a01b03161461264357612643615945565b6001600160a01b0386166000908152600d602052604081205533612665611856565b63ffffffff16836bffffffffffffffffffffffff16106126d8576126893383612e9c565b6126d55760405162461bcd60e51b815260206004820152600360248201527f4c3a3100000000000000000000000000000000000000000000000000000000006044820152606401610cf4565b50805b60006126e334613db4565b9050806bffffffffffffffffffffffff16876bffffffffffffffffffffffff1611156127515760405162461bcd60e51b815260206004820152600360248201527f4c3a3200000000000000000000000000000000000000000000000000000000006044820152606401610cf4565b600061275d8783615974565b9050600061276b82886159a1565b604080516001600160a01b038d1681526bffffffffffffffffffffffff8b811660208301528a168183015290519192507f55ab9f648a42ab2ae7eed81f0683a7bae5d54989d8125f397a88f72bec826917919081900360600190a1604080516001600160a01b038c81168252861660208201526bffffffffffffffffffffffff8b168183015290517f563fb66b43e6ac55166c353532257057a2fe86a1566c988840baecf6bca1025a9181900360600190a1612826886140ff565b61283e84826bffffffffffffffffffffffff16613025565b612848848b61359b565b50505050505050505050565b61285c613400565b600480546040517ff72e5c740000000000000000000000000000000000000000000000000000000081526000926001600160a01b039092169163f72e5c74916128ab9186918991899101615aa4565b602060405180830381600087803b1580156128c557600080fd5b505af11580156128d9573d6000803e3d6000fd5b505050506040513d601f19601f820116820180604052508101906128fd9190615b8d565b600754909150600061290f82826142d3565b905082818560ff168151811061292757612927615baa565b6020026020010181815161293b9190615bd9565b60ff1690525061294d8260008361435a565b600755505050505050565b6129623384613110565b6129ae5760405162461bcd60e51b815260206004820152600360248201527f533a3900000000000000000000000000000000000000000000000000000000006044820152606401610cf4565b6000806129bc848487613124565b6001600160a01b038716600090815260018301602052604081205590925090506129e5816134ad565b15612a7f57600080835561ffff84168152600b6020526040902054612a4c5760405162461bcd60e51b815260206004820152600360248201527f503a3300000000000000000000000000000000000000000000000000000000006044820152606401610cf4565b612a5685846143da565b61ffff83166000908152600b60205260408120805491612a7583615bfe565b9190505550612a98565b612a98612a8b86612e18565b610da88360200151612f3b565b7f95e8db1d2cc4bd26402c98c45fdb7ff875bb955206591a210b51aa82b4ba5acb848487612ac98560000151613180565b604080516001600160a01b03958616815261ffff949094166020850152919093169082015263ffffffff9091166060820152608001611f5b565b612b0d3384613110565b612b595760405162461bcd60e51b815260206004820152600360248201527f533a4300000000000000000000000000000000000000000000000000000000006044820152606401610cf4565b612b6383836144a6565b61ffff82166000908152600b60205260408120805491612b8283615c15565b9190505550600080612b95858587613124565b8051919350915015612be95760405162461bcd60e51b815260206004820152600360248201527f533a4400000000000000000000000000000000000000000000000000000000006044820152606401610cf4565b600080612bfa600088876001612ee9565b81865590925090507f77cfc3b2aafc5344a53b50b3c7938afac3d04e0f564e929aa8d1f398e67f1ccc8787612c2f8489615974565b604080516001600160a01b03909416845261ffff90921660208401526bffffffffffffffffffffffff16908201526060016123ff565b612c6f3384613110565b612cbb5760405162461bcd60e51b815260206004820152600360248201527f503a4200000000000000000000000000000000000000000000000000000000006044820152606401610cf4565b81516008148015612ccd575080516008145b612d195760405162461bcd60e51b815260206004820152600360248201527f503a4300000000000000000000000000000000000000000000000000000000006044820152606401610cf4565b6000612d2484611f6b565b9050612d31818484614572565b6001600160a01b03851660009081526008602052604090819020829055519091507f73904d03f919661d854e7b284dd6f818c038e7cce6237422aca32cc599a082679061134e908690849087908790615c30565b6000606080606080612d9686611f6b565b945084612e0f57612dbf612dba612db5886001600160a01b031661458e565b6145a1565b6145ac565b50945084612e0f5760405162461bcd60e51b815260206004820152600360248201527f503a4c00000000000000000000000000000000000000000000000000000000006044820152606401610cf4565b612598856149c1565b6000612e2382614a04565b612e6f5760405162461bcd60e51b815260206004820152600560248201527f543a393a320000000000000000000000000000000000000000000000000000006044820152606401610cf4565b506001600160a01b038082166000908152602081905260409020541680612e97575030919050565b919050565b6000826001600160a01b0316826001600160a01b031614806125b65750506001600160a01b0390811660009081526002602090815260408083209490931682529290925290205460ff1690565b600080612ef68287614a17565b9150612f028286614a68565b91508215612f1857612f15826001614a92565b91505b612f228285614ac9565b9092509050612f3082614b28565b915094509492505050565b6000610c8f612f5d6509184e72a00060a085901c66ffffffffffffff16615c6a565b613db4565b612f6c3382613110565b8015612f88575030612f7d8261309a565b6001600160a01b0316145b612fd45760405162461bcd60e51b815260206004820152600360248201527f4e3a3100000000000000000000000000000000000000000000000000000000006044820152606401610cf4565b6001600160a01b038116600090815260208181526040808320805473ffffffffffffffffffffffffffffffffffffffff19908116909155600190925290912080549091169055611606333083613ef0565b600080600080600085875af1905080610dbb5760405162461bcd60e51b815260206004820152600360248201527f5a3a3000000000000000000000000000000000000000000000000000000000006044820152606401610cf4565b60006001600160a01b0382111561309657600080fd5b5090565b60006130a582614a04565b6130f15760405162461bcd60e51b815260206004820152600560248201527f543a393a310000000000000000000000000000000000000000000000000000006044820152606401610cf4565b506001600160a01b039081166000908152600160205260409020541690565b60006125b68361311f84612e18565b612e9c565b6040805160808101825260008082526020808301829052828401829052606083018290526001600160a01b0387168252600c815283822061ffff87168352600201905291909120906131768284614b74565b9050935093915050565b6000610c8f63ffffffff60d884901c1661458e565b6000816020015160001480156131ab5750815115155b6131f75760405162461bcd60e51b815260206004820152600560248201527f4e4f5045330000000000000000000000000000000000000000000000000000006044820152606401610cf4565b815160ff1c60011461324b5760405162461bcd60e51b815260206004820152600560248201527f4e4f5045340000000000000000000000000000000000000000000000000000006044820152606401610cf4565b6000806000613275856000015186604001516001613269919061591d565b87606001516000614c13565b828955604088015192955090935091506132a79061329490600161591d565b86516132a1906000614a92565b90614a17565b8660010160006132ba8860000151614cd6565b6001600160a01b031681526020810191909152604001600020556132e66132e182846159a1565b6140ff565b6132ef83612f3b565b9695505050505050565b60006133088260000151613180565b63ffffffff16826040015163ffffffff1611156133675760405162461bcd60e51b815260206004820152600360248201527f533a4600000000000000000000000000000000000000000000000000000000006044820152606401610cf4565b81606001516001600160a01b03166133828360000151614cd6565b6001600160a01b0316146133bc5781516001840160006133a183614cd6565b6001600160a01b031681526020810191909152604001600020555b8151600090819081906133e9906133d281613180565b87606001516133e48960200151612f3b565b614c13565b828955919450925090506132e66132e182846159a1565b3360009081526003602052604090205460ff1661345f5760405162461bcd60e51b815260206004820152600960248201527f554e5452555354454400000000000000000000000000000000000000000000006044820152606401610cf4565b565b6040805160808101825260008082526020808301829052828401829052606083018290526001600160a01b0386168252600c905291909120906134a48284614b74565b90509250929050565b60008160200151600014156135045760405162461bcd60e51b815260206004820152600360248201527f533a4500000000000000000000000000000000000000000000000000000000006044820152606401610cf4565b60006135138360000151613180565b63ffffffff16836040015163ffffffff1611905060006135368460000151614cd6565b6001600160a01b031661354c8560200151614cd6565b6001600160a01b0316149050600061356e8560000151600160ff9190911c1490565b80156135815750602085015160ff1c6001145b905081801561255157508080612551575091949350505050565b306135a582612e18565b6001600160a01b0316146135fb5760405162461bcd60e51b815260206004820152600360248201527f4e3a3000000000000000000000000000000000000000000000000000000000006044820152606401610cf4565b6001600160a01b038181166000908152602081905260409020805473ffffffffffffffffffffffffffffffffffffffff1916918416919091179055612079308383613ef0565b600061364c34613db4565b600a5490915060008061365e83613cd9565b509250509150816bffffffffffffffffffffffff16846bffffffffffffffffffffffff1610156136d05760405162461bcd60e51b815260206004820152600360248201527f543a3100000000000000000000000000000000000000000000000000000000006044820152606401610cf4565b60006136dc8386615974565b90506136e781614cea565b6136f190836159a1565b91506136fe846001614d05565b935061371461370d8387615974565b8590614d65565b93506137208483614dc5565b600a81905593507fcc7b20c8500e3dfc952e445cc296459e4e7148bead08f530844981e1c1236e4e6137528387615974565b604080516bffffffffffffffffffffffff9283168152918516602083015201611f5b565b6001600160a01b038116600090815260086020526040902054156137dc5760405162461bcd60e51b815260206004820152600360248201527f503a3500000000000000000000000000000000000000000000000000000000006044820152606401610cf4565b6000816137ea600143615c89565b6040517f4206900000000000000000000000000000000000000000000000000000000000602082015260609290921b6bffffffffffffffffffffffff191660238301524060378201526057016040516020818303038152906040528051906020012060001c905060008061385d836145ac565b6001600160a01b038616600090815260086020526040908190208390555191935091507f3c2693eb3bc9fd62db9b727df67972a7372cca5a21f9b4a5c05d48363273c2479061134e90869085908590615ca0565b6001600160a01b03818116600081815260208190526040808220805473ffffffffffffffffffffffffffffffffffffffff19169487169485179055519192917fddf252ad1be2c89b69c2b068fc378daa952ba7f163c4a11628f55a4df523b3ef908290a45050565b60008061392583612e18565b9050306139318461309a565b6001600160a01b031614801561394f57506001600160a01b03811633145b61399b5760405162461bcd60e51b815260206004820152600360248201527f543a3300000000000000000000000000000000000000000000000000000000006044820152606401610cf4565b600a546001600160a01b038416600090815260208181526040808320805473ffffffffffffffffffffffffffffffffffffffff1990811690915560018352818420805482169055600c8352818420849055600d8352818420849055600883528184208490556006909252822080549091169055613a1a90839086613ef0565b613a2381614283565b92506001613a318260c01c90565b67ffffffffffffffff161015613a4957613a49615945565b826bffffffffffffffffffffffff16613a628260601c90565b6bffffffffffffffffffffffff161015613a7e57613a7e615945565b613a89816001614df8565b9050613a958184614e0f565b600a819055604080516bffffffffffffffffffffffff861681523360208201529192507f8ebfc955aa97c416e4c061b1a0fa227225220abc04070eb0112065225053d791910160405180910390a15050919050565b6000610bb86045613b1b7f000000000000000000000000000000000000000000000000000000000000000085615c89565b613b259190615cf7565b610c8f919061591d565b600060ff8216613b815760405162461bcd60e51b815260206004820152600360248201527f503a4600000000000000000000000000000000000000000000000000000000006044820152606401610cf4565b6000613b8e8460006142d3565b90506000613b9d8560406142d3565b90506000818560ff1681518110613bb657613bb6615baa565b60200260200101519050828560ff1681518110613bd557613bd5615baa565b6020026020010151828660ff1681518110613bf257613bf2615baa565b602002602001019060ff16908160ff168152505080838660ff1681518110613c1c57613c1c615baa565b602002602001019060ff16908160ff1681525050613c3c8660008561435a565b93506132ef8460408461435a565b600080613c588460806142d3565b90506000613c678560c06142d3565b90506000818560ff1681518110613c8057613c80615baa565b602002602001019060ff16908160ff16815250506000828560ff1681518110613cab57613cab615baa565b602002602001019060ff16908160ff1681525050613ccb8560808461435a565b92506125518360c08361435a565b600080600080613ce885614283565b9250613cf383614cea565b9150612710613d028660c01c90565b613d169067ffffffffffffffff1685615d1a565b613d209190615d4e565b905080613d2d83856159a1565b613d3791906159a1565b93509193509193565b600080613d536509184e72a00084615d6d565b6bffffffffffffffffffffffff161115613d8d576509184e72a000613d788184615d4e565b613d839060016159a1565b610c8f9190615d1a565b610c8f82614e26565b6000610c8f612710613daa846127d8615d1a565b611a1f9190615d4e565b60006bffffffffffffffffffffffff82111561309657600080fd5b6001600160a01b03811660009081526008602052604090205415613e355760405162461bcd60e51b815260206004820152600360248201527f503a3600000000000000000000000000000000000000000000000000000000006044820152606401610cf4565b6000806000613e42613f3f565b93509350935050836001600160a01b03168314613ea15760405162461bcd60e51b815260206004820152600360248201527f503a3700000000000000000000000000000000000000000000000000000000006044820152606401610cf4565b6001600160a01b03841660009081526008602052604090819020839055517f3c2693eb3bc9fd62db9b727df67972a7372cca5a21f9b4a5c05d48363273c2479061134e90869085908590615ca0565b806001600160a01b0316826001600160a01b0316846001600160a01b03167fddf252ad1be2c89b69c2b068fc378daa952ba7f163c4a11628f55a4df523b3ef60405160405180910390a4505050565b60008060006060613f4e614e39565b90945063ffffffff169250613f62846145ac565b9495939490939092509050565b6040805160a0810182526000808252602082018190529181018290526060810182905260808101919091528115612e975760016080820152613fb082613180565b63ffffffff166020820152613fc482614cd6565b6001600160a01b03166040820152613fdb82612f3b565b6bffffffffffffffffffffffff16815260ff82901c60011415156060820152919050565b6000806000806000806001600160a01b031686604001516001600160a01b0316141561406d5760405162461bcd60e51b815260206004820152600360248201527f4c3a3400000000000000000000000000000000000000000000000000000000006044820152606401610cf4565b855160006140796125ec565b9050612710614089606484615d1a565b6140939190615d4e565b955061409f86836159a1565b9650806bffffffffffffffffffffffff16876bffffffffffffffffffffffff1610156140d4576140cf8782615974565b6140d7565b60005b94506103e888602001516140eb919061591d565b935087604001519250505091939590929450565b806bffffffffffffffffffffffff1634101561415d5760405162461bcd60e51b815260206004820152600360248201527f543a3200000000000000000000000000000000000000000000000000000000006044820152606401610cf4565b600a54600061416b83614cea565b905061420861417a82846159a1565b6141e483866141898760601c90565b61419391906159a1565b61419d9190615974565b7fffffffffffffffff000000000000000000000000ffffffffffffffffffffffff861660609190911b77ffffffffffffffffffffffff000000000000000000000000161790565b6bffffffffffffffffffffffff19166bffffffffffffffffffffffff919091161790565b600a557fcc7b20c8500e3dfc952e445cc296459e4e7148bead08f530844981e1c1236e4e6142368285615974565b604080516bffffffffffffffffffffffff9283168152918416602083015201611777565b6000806142798360200151846040015185600001518660600151612ee9565b9094909350915050565b600061428f8260c01c90565b67ffffffffffffffff16156142cb576142a88260c01c90565b67ffffffffffffffff166142bc8360601c90565b6142c69190615d4e565b610c8f565b600092915050565b604080516008808252610120820190925292821c67ffffffffffffffff1692606091602082016101008036833701905050905060005b6008811015614353578360ff1682828151811061432857614328615baa565b60ff9092166020928302919091019091015260089390931c928061434b81615c15565b915050614309565b5092915050565b600060085b80156143bb57614370600182615c89565b61437b906008615c6a565b83614387600184615c89565b8151811061439757614397615baa565b602002602001015160ff16901b8217915080806143b390615bfe565b91505061435f565b5067ffffffffffffffff60ff84161b19841681841b175b949350505050565b6143e43383613110565b6144305760405162461bcd60e51b815260206004820152600360248201527f503a3200000000000000000000000000000000000000000000000000000000006044820152606401610cf4565b600061443b83611f6b565b90506144478183614e55565b6001600160a01b0384166000818152600860209081526040918290208490558151928352820183905261ffff8516908201529091507f1e3ac88633ac111203e2a7614365c5e3df507302c9fb545dd85d8fcef753afce90606001611777565b6144b03383613110565b6144fc5760405162461bcd60e51b815260206004820152600360248201527f503a3400000000000000000000000000000000000000000000000000000000006044820152606401610cf4565b600061450783611f6b565b90506145138183614f18565b6001600160a01b0384166000818152600860209081526040918290208490558151928352820183905261ffff8516908201529091507f399c4ec95d9ea42a0f3dda50055e3a2901f9640121b0b29865e688c08188596b90606001611777565b60006145808460808561435a565b90506143d28160c08461435a565b600063ffffffff82111561309657600080fd5b6000610c8f82615009565b60006060826145fd5760405162461bcd60e51b815260206004820152600360248201527f503a3800000000000000000000000000000000000000000000000000000000006044820152606401610cf4565b600061460c60075460006142d3565b60408051600880825261012082019092529192506020820161010080368337019050509150600061463e8560006142d3565b905061467e8160008151811061465657614656615baa565b60200260200101518360008151811061467157614671615baa565b60200260200101516150e4565b614689906001615bd9565b8360008151811061469c5761469c615baa565b602002602001019060ff16908160ff16815250506146e1816001815181106146c6576146c6615baa565b60200260200101518360018151811061467157614671615baa565b6146ec906001615bd9565b836001815181106146ff576146ff615baa565b602002602001019060ff16908160ff16815250506147448160028151811061472957614729615baa565b60200260200101518360028151811061467157614671615baa565b61474f906001615bd9565b8360028151811061476257614762615baa565b602002602001019060ff16908160ff1681525050603c8160038151811061478b5761478b615baa565b602002602001015160ff161015614804576147cd816004815181106147b2576147b2615baa565b60200260200101518360038151811061467157614671615baa565b6147d8906001615bd9565b836003815181106147eb576147eb615baa565b602002602001019060ff16908160ff16815250506149ac565b60788160038151811061481957614819615baa565b602002602001015160ff1610156148795761485b8160048151811061484057614840615baa565b60200260200101518360048151811061467157614671615baa565b614866906001615bd9565b836004815181106147eb576147eb615baa565b60b48160038151811061488e5761488e615baa565b602002602001015160ff1610156148ee576148d0816004815181106148b5576148b5615baa565b60200260200101518360058151811061467157614671615baa565b6148db906001615bd9565b836005815181106147eb576147eb615baa565b60f08160038151811061490357614903615baa565b602002602001015160ff161015614963576149458160048151811061492a5761492a615baa565b60200260200101518360068151811061467157614671615baa565b614950906001615bd9565b836006815181106147eb576147eb615baa565b6149798160048151811061492a5761492a615baa565b614984906001615bd9565b8360068151811061499757614997615baa565b602002602001019060ff16908160ff16815250505b6149b88460008561435a565b93505050915091565b8060608080806149d28560006142d3565b93506149df8660406142d3565b92506149ec8660806142d3565b91506149f98660c06142d3565b905091939590929450565b6000614a0f82611f6b565b151592915050565b60007fff00000000ffffffffffffffffffffffffffffffffffffffffffffffffffffff83167effffffff00000000000000000000000000000000000000000000000000000060d884901b16176125b6565b600073ffffffffffffffffffffffffffffffffffffffff1983166001600160a01b038316176125b6565b60006125b683600160ff85614aa8576000614aab565b60015b60ff16811b600190921b6000190160ff919091161b19919091161790565b600080614adc6509184e72a00084615d6d565b9050614b1f84603860a0614af66509184e72a00088615d4e565b6bffffffffffffffffffffffff16811b600190921b6000190160ff919091161b19919091161790565b91509250929050565b60007fbfffffffffffffffffffffffffffffffffffffffffffffffffffffffffffffff82167f400000000000000000000000000000000000000000000000000000000000000017610c8f565b6040805160808101825260006020820181905291810182905260608101919091528254808252614ba2611856565b63ffffffff1660408301526001600160a01b0383166060830152614bc581614cd6565b6001600160a01b0316836001600160a01b03161415614bea5760208201819052614353565b6001600160a01b0383166000908152600185016020908152604090912054908301525092915050565b600080600080614c2288612f3b565b9050614c2d34613db4565b614c3790866159a1565b9450846bffffffffffffffffffffffff16614c5182613d96565b6bffffffffffffffffffffffff161115614cad5760405162461bcd60e51b815260206004820152600360248201527f533a4700000000000000000000000000000000000000000000000000000000006044820152606401610cf4565b614cba8787876000612ee9565b9094509150614cc98186615974565b9250509450945094915050565b6000610c8f6001600160a01b038316613080565b6000612710614cfb6103e884615d1a565b610c8f9190615d4e565b6000614d118360c01c90565b614d1b9083615d98565b915077ffffffffffffffffffffffffffffffffffffffffffffffff831660c083901b7fffffffffffffffff00000000000000000000000000000000000000000000000016176125b6565b6000614d718360601c90565b614d7b90836159a1565b91507fffffffffffffffff000000000000000000000000ffffffffffffffffffffffff8316606083901b77ffffffffffffffffffffffff00000000000000000000000016176125b6565b6000614dd183836159a1565b91506bffffffffffffffffffffffff82166bffffffffffffffffffffffff198416176125b6565b600081614e058460c01c90565b614d1b9190615dbb565b600081614e1c8460601c90565b614d7b9190615974565b60006509184e72a000613d838184615d4e565b600080614e44611856565b9050614e4f81615009565b91509091565b600080614e638460406142d3565b805190915060ff600885901c81169190851690839083908110614e8857614e88615baa565b602002602001015160ff16600014614ee25760405162461bcd60e51b815260206004820152600360248201527f503a4400000000000000000000000000000000000000000000000000000000006044820152606401610cf4565b80838360ff1681518110614ef857614ef8615baa565b602002602001019060ff16908160ff16815250506132ef8660408561435a565b600080614f268460406142d3565b905060ff600884901c811690841681614f815760405162461bcd60e51b815260206004820152600360248201527f503a4600000000000000000000000000000000000000000000000000000000006044820152606401610cf4565b8060ff16838360ff1681518110614f9a57614f9a615baa565b602002602001015160ff1614614ff25760405162461bcd60e51b815260206004820152600360248201527f503a4500000000000000000000000000000000000000000000000000000000006044820152606401610cf4565b6000838360ff1681518110614ef857614ef8615baa565b60008061501583615140565b90506000615024600283615c89565b409050806150745760405162461bcd60e51b815260206004820152600360248201527f453a3000000000000000000000000000000000000000000000000000000000006044820152606401610cf4565b6040805160208082019390935260e09590951b7fffffffff0000000000000000000000000000000000000000000000000000000016858201523060601b6bffffffffffffffffffffffff191660448601528051603881870301815260589095019052835193019290922092915050565b600060ff82166151365760405162461bcd60e51b815260206004820152600360248201527f503a3900000000000000000000000000000000000000000000000000000000006044820152606401610cf4565b6125b68284615ddc565b60007f00000000000000000000000000000000000000000000000000000000000000006045615171610bb885615dfe565b61517b9190615e1b565b63ffffffff16610c8f9190615e3e565b60006020828403121561519d57600080fd5b81357fffffffff00000000000000000000000000000000000000000000000000000000811681146125b657600080fd5b6001600160a01b038116811461160657600080fd5b6000602082840312156151f457600080fd5b81356125b6816151cd565b60005b8381101561521a578181015183820152602001615202565b83811115611f655750506000910152565b600081518084526152438160208601602086016151ff565b601f01601f19169290920160200192915050565b6020815260006125b6602083018461522b565b60006020828403121561527c57600080fd5b5035919050565b6000806040838503121561529657600080fd5b82356152a1816151cd565b946020939093013593505050565b803561ffff81168114612e9757600080fd5b6000806000606084860312156152d657600080fd5b83356152e1816151cd565b925060208401356152f1816151cd565b91506152ff604085016152af565b90509250925092565b6000806040838503121561531b57600080fd5b8235615326816151cd565b91506020830135801515811461533b57600080fd5b809150509250929050565b60008060006060848603121561535b57600080fd5b8335615366816151cd565b92506020840135615376816151cd565b929592945050506040919091013590565b6000806040838503121561539a57600080fd5b82356153a5816151cd565b9150602083013561533b816151cd565b600081518084526020808501945080840160005b838110156153e857815160ff16875295820195908201906001016153c9565b509495945050505050565b6020815281516020820152602082015160408201526000604083015161016080606085015261542661018085018361522b565b91506060850151601f1980868503016080870152615444848361522b565b93506080870151915061546260a08701836001600160a01b03169052565b60a087015160c087015260c087015160e087015260e0870151915061010081878603018188015261549385846153b5565b9450808801519250506101208187860301818801526154b285846153b5565b9450808801519250506101408187860301818801526154d185846153b5565b9088015187820390920184880152935090506132ef83826153b5565b6000806040838503121561550057600080fd5b82359150602083013561533b816151cd565b60ff8116811461160657600080fd5b6000806040838503121561553457600080fd5b823561553f816151cd565b9150602083013561533b81615512565b7f4e487b7100000000000000000000000000000000000000000000000000000000600052604160045260246000fd5b604051601f8201601f1916810167ffffffffffffffff811182821017156155a7576155a761554f565b604052919050565b600067ffffffffffffffff8211156155c9576155c961554f565b50601f01601f191660200190565b600080600080608085870312156155ed57600080fd5b84356155f8816151cd565b93506020850135615608816151cd565b925060408501359150606085013567ffffffffffffffff81111561562b57600080fd5b8501601f8101871361563c57600080fd5b803561564f61564a826155af565b61557e565b81815288602083850101111561566457600080fd5b8160208401602083013760006020838301015280935050505092959194509250565b80356bffffffffffffffffffffffff81168114612e9757600080fd5b600080604083850312156156b557600080fd5b82356156c0816151cd565b91506134a460208401615686565b6000806000604084860312156156e357600080fd5b833567ffffffffffffffff808211156156fb57600080fd5b818601915086601f83011261570f57600080fd5b81358181111561571e57600080fd5b8760208260051b850101111561573357600080fd5b6020928301955093505084013561574981615512565b809150509250925092565b60008060006060848603121561576957600080fd5b8335615774816151cd565b9250615782602085016152af565b91506152ff60408501615686565b600082601f8301126157a157600080fd5b8135602067ffffffffffffffff8211156157bd576157bd61554f565b8160051b6157cc82820161557e565b92835284810182019282810190878511156157e657600080fd5b83870192505b8483101561580e5782356157ff81615512565b825291830191908301906157ec565b979650505050505050565b60008060006060848603121561582e57600080fd5b8335615839816151cd565b9250602084013567ffffffffffffffff8082111561585657600080fd5b61586287838801615790565b9350604086013591508082111561587857600080fd5b5061588586828701615790565b9150509250925092565b85815260a0602082015260006158a860a08301876153b5565b82810360408401526158ba81876153b5565b905082810360608401526158ce81866153b5565b905082810360808401526158e281856153b5565b98975050505050505050565b7f4e487b7100000000000000000000000000000000000000000000000000000000600052601160045260246000fd5b600063ffffffff80831681851680830382111561593c5761593c6158ee565b01949350505050565b7f4e487b7100000000000000000000000000000000000000000000000000000000600052600160045260246000fd5b60006bffffffffffffffffffffffff83811690831681811015615999576159996158ee565b039392505050565b60006bffffffffffffffffffffffff80831681851680830382111561593c5761593c6158ee565b600080604083850312156159db57600080fd5b82516159e6816151cd565b602084015190925067ffffffffffffffff811115615a0357600080fd5b8301601f81018513615a1457600080fd5b8051615a2261564a826155af565b818152866020838501011115615a3757600080fd5b615a488260208301602086016151ff565b8093505050509250929050565b81835260007f07ffffffffffffffffffffffffffffffffffffffffffffffffffffffffffffff831115615a8757600080fd5b8260051b8083602087013760009401602001938452509192915050565b60006040820160ff8616835260206040818501528185835260608501905060059250606086841b8601018760005b88811015615b7e577fffffffffffffffffffffffffffffffffffffffffffffffffffffffffffffffa088840301845281357fffffffffffffffffffffffffffffffffffffffffffffffffffffffffffffffe18b3603018112615b3357600080fd5b8a01803567ffffffffffffffff811115615b4c57600080fd5b80881b36038c1315615b5d57600080fd5b615b6a8582898501615a55565b958701959450505090840190600101615ad2565b50909998505050505050505050565b600060208284031215615b9f57600080fd5b81516125b681615512565b7f4e487b7100000000000000000000000000000000000000000000000000000000600052603260045260246000fd5b600060ff821660ff84168060ff03821115615bf657615bf66158ee565b019392505050565b600081615c0d57615c0d6158ee565b506000190190565b6000600019821415615c2957615c296158ee565b5060010190565b6001600160a01b0385168152836020820152608060408201526000615c5860808301856153b5565b828103606084015261580e81856153b5565b6000816000190483118215151615615c8457615c846158ee565b500290565b600082821015615c9b57615c9b6158ee565b500390565b6001600160a01b038416815282602082015260606040820152600061255160608301846153b5565b7f4e487b7100000000000000000000000000000000000000000000000000000000600052601260045260246000fd5b600063ffffffff80841680615d0e57615d0e615cc8565b92169190910492915050565b60006bffffffffffffffffffffffff80831681851681830481118215151615615d4557615d456158ee565b02949350505050565b60006bffffffffffffffffffffffff80841680615d0e57615d0e615cc8565b60006bffffffffffffffffffffffff80841680615d8c57615d8c615cc8565b92169190910692915050565b600067ffffffffffffffff80831681851680830382111561593c5761593c6158ee565b600067ffffffffffffffff83811690831681811015615999576159996158ee565b600060ff831680615def57615def615cc8565b8060ff84160691505092915050565b600063ffffffff83811690831681811015615999576159996158ee565b600063ffffffff80831681851681830481118215151615615d4557615d456158ee565b60008219821115615e5157615e516158ee565b50019056fea26469706673582212203d9e838d3e2ef3c4f4be103c5bcc1286d66811e0faacb3da8988d49cc21888c964736f6c63430008090033",
  "devdoc": {
    "kind": "dev",
    "methods": {
      "approve(address,uint256)": {
        "details": "The zero address indicates there is no approved address.  Throws unless `msg.sender` is the current NFT owner, or an authorized  operator of the current owner.",
        "params": {
          "_approved": "The new approved NFT controller",
          "_tokenId": "The NFT to approve"
        }
      },
      "burn(uint160)": {
        "details": "should only be called directly",
        "params": {
          "tokenId": "the id of the nugg being burned"
        }
      },
      "ethPerShare()": {
        "details": "this value not always equivilent to the \"floor\" price which can consist of perceived value. can be looked at as an \"intrinsic floor\"this is the value that users will receive when their either burn or loan out nuggs",
        "returns": {
          "res": "-> [current staked eth] / [current staked shares]"
        }
      },
      "extractProtocolEth()": {
        "details": "caller must be a trusted user"
      },
      "getApproved(uint256)": {
        "details": "Throws if `_tokenId` is not a valid NFT.",
        "params": {
          "_tokenId": "The NFT to find the approved address for"
        },
        "returns": {
          "_0": "The approved address for this NFT, or the zero address if there is none"
        }
      },
      "isApprovedForAll(address,address)": {
        "params": {
          "_operator": "The address that acts on behalf of the owner",
          "_owner": "The address that owns the NFTs"
        },
        "returns": {
          "_0": "True if `_operator` is an approved operator for `_owner`, false otherwise"
        }
      },
      "loanInfo(uint160)": {
        "details": "contract ->frontend -> used to set the amount of eth for user",
        "params": {
          "tokenId": "the token who's current loan to check"
        },
        "returns": {
          "earned": "-> the amount of eth the minSharePrice has increased since loan was last rebalanced",
          "epochDue": "-> the final epoch a user is safe from liquidation (inclusive)",
          "loaner": "-> the user responsable for the loan",
          "toPayoff": "->  the current amount loaned out, plus the final rebalance fee",
          "toRebalance": "->  the fee a user must pay to rebalance (and extend) the loan on their nugg"
        }
      },
      "minSharePrice()": {
        "details": "premium here is used to push against dillution of supply through ensuring the price always increasesused by the front end",
        "returns": {
          "res": "-> premium + protcolFee + ethPerShare"
        }
      },
      "ownerOf(uint256)": {
        "details": "NFTs assigned to zero address are considered invalid, and queries  about them do throw.",
        "params": {
          "_tokenId": "The identifier for an NFT"
        },
        "returns": {
          "_0": "The address of the owner of the NFT"
        }
      },
      "protocolEth()": {
        "details": "this will be",
        "returns": {
          "res": "-> (PROTOCOL_FEE_BPS * [all eth staked] / 10000) - [all previously extracted eth]"
        }
      },
      "setApprovalForAll(address,bool)": {
        "details": "Emits the ApprovalForAll event. The contract MUST allow  multiple operators per owner.",
        "params": {
          "_approved": "True if the operator is approved, false to revoke approval",
          "_operator": "Address to add to the set of authorized operators"
        }
      },
      "setMigrator(address)": {
        "details": "caller must be a trusted user",
        "params": {
          "migrator": "the address to set as the migrator contract"
        }
      },
      "stakedEth()": {
        "details": "can be used as the market-cap or tvl of all nuggft v1not equivilent to the balance of eth the contract holds, which also hs protocolEth and unclaimed eth from unsuccessful swaps"
      },
      "stakedShares()": {
        "details": "this is equivilent to the amount of nuggs in existance"
      },
      "supportsInterface(bytes4)": {
        "details": "Interface identification is specified in ERC-165. This function  uses less than 30,000 gas.",
        "params": {
          "interfaceID": "The interface identifier, as specified in ERC-165"
        },
        "returns": {
          "_0": "`true` if the contract implements `interfaceID` and  `interfaceID` is not 0xffffffff, `false` otherwise"
        }
      },
      "tokenURI(uint256)": {
        "details": "Throws if `_tokenId` is not a valid NFT. URIs are defined in RFC  3986. The URI may point to a JSON file that conforms to the \"ERC721  Metadata JSON Schema\"."
      },
      "valueForDelegate(address,uint160)": {
        "details": "returns 0 if no delegate can be made for this oken",
        "params": {
          "sender": "-> the address of the user who will be delegating",
          "tokenId": "-> the token to be delegated to"
        },
        "returns": {
          "canDelegate": "-> instead of reverting this function will return false",
          "nextSwapAmount": "-> the minimum value that must be sent with a delegate call",
          "senderCurrentOffer": "->"
        }
      },
      "valueForPayoff(uint160)": {
        "details": "should be used to tell user how much eth to send for payoff"
      },
      "valueForRebalance(uint160)": {
        "details": "should be used to tell user how much eth to send for rebalance"
      }
    },
    "version": 1
  },
  "userdoc": {
    "events": {
      "Genesis(uint256,uint32,uint32)": {
        "notice": "Explain to an end user what this does"
      }
    },
    "kind": "user",
    "methods": {
      "approve(address,uint256)": {
        "notice": "Change or reaffirm the approved address for an NFT"
      },
      "burn(uint160)": {
        "notice": "burns a nugg from existance, dealing the eth worth of that share to the user"
      },
      "ethPerShare()": {
        "notice": "returns the total \"ethPerShare\" held by the contract"
      },
      "extractProtocolEth()": {
        "notice": "sends the current protocolEth to the user and resets the value to zero"
      },
      "getApproved(uint256)": {
        "notice": "Get the approved address for a single NFT"
      },
      "isApprovedForAll(address,address)": {
        "notice": "Query if an address is an authorized operator for another address"
      },
      "loanInfo(uint160)": {
        "notice": "for a nugg's active loan: calculates the current min eth a user must send to payoff or rebalance"
      },
      "minSharePrice()": {
        "notice": "returns the minimum eth that must be added to create a new share"
      },
      "name()": {
        "notice": "A descriptive name for a collection of NFTs in this contract"
      },
      "ownerOf(uint256)": {
        "notice": "Find the owner of an NFT"
      },
      "protocolEth()": {
        "notice": "returns the amount of eth extractable by protocol"
      },
      "setApprovalForAll(address,bool)": {
        "notice": "Enable or disable approval for a third party (\"operator\") to manage  all of `msg.sender`'s assets"
      },
      "setMigrator(address)": {
        "notice": "sets the migrator contract"
      },
      "stakedEth()": {
        "notice": "returns the total amount of staked eth held by the contract"
      },
      "stakedShares()": {
        "notice": "returns the total number of staked shares held by the contract"
      },
      "supportsInterface(bytes4)": {
        "notice": "Query if a contract implements an interface"
      },
      "symbol()": {
        "notice": "An abbreviated name for NFTs in this contract"
      },
      "tokenURI(uint256)": {
        "notice": "A distinct Uniform Resource Identifier (URI) for a given asset."
      },
      "valueForDelegate(address,uint160)": {
        "notice": "calculates the minimum eth that must be sent with a delegate call"
      },
      "valueForPayoff(uint160)": {
        "notice": "\"toPayoff\" value from \"loanInfo\""
      },
      "valueForRebalance(uint160)": {
        "notice": "\"toRebalance\" value from \"loanInfo\""
      }
    },
    "notice": "deviations from ERC721 standard: 1. no verificaiton the receiver is a ERC721Reciever - on top of this being a gross waste of gas, the way the swapping logic works makes this only worth calling when a user places an offer - and we did not want to call \"onERC721Recieved\" when no token was being sent. 2.",
    "version": 1
  },
  "storageLayout": {
    "storage": [
      {
        "astId": 11425,
        "contract": "src/NuggftV1.sol:NuggftV1",
        "label": "owners",
        "offset": 0,
        "slot": "0",
        "type": "t_mapping(t_uint256,t_address)"
      },
      {
        "astId": 11429,
        "contract": "src/NuggftV1.sol:NuggftV1",
        "label": "approvals",
        "offset": 0,
        "slot": "1",
        "type": "t_mapping(t_uint256,t_address)"
      },
      {
        "astId": 11435,
        "contract": "src/NuggftV1.sol:NuggftV1",
        "label": "operatorApprovals",
        "offset": 0,
        "slot": "2",
        "type": "t_mapping(t_address,t_mapping(t_address,t_bool))"
      },
      {
        "astId": 11869,
        "contract": "src/NuggftV1.sol:NuggftV1",
        "label": "isTrusted",
        "offset": 0,
        "slot": "3",
        "type": "t_mapping(t_address,t_bool)"
      },
      {
        "astId": 8312,
        "contract": "src/NuggftV1.sol:NuggftV1",
        "label": "dotnuggV1Processor",
        "offset": 0,
        "slot": "4",
        "type": "t_address"
      },
      {
        "astId": 8317,
        "contract": "src/NuggftV1.sol:NuggftV1",
        "label": "dotnuggV1DefaultWidth",
        "offset": 20,
        "slot": "4",
        "type": "t_uint8"
      },
      {
        "astId": 8322,
        "contract": "src/NuggftV1.sol:NuggftV1",
        "label": "dotnuggV1DefaultZoom",
        "offset": 21,
        "slot": "4",
        "type": "t_uint8"
      },
      {
        "astId": 8327,
        "contract": "src/NuggftV1.sol:NuggftV1",
        "label": "sstore2Pointers",
        "offset": 0,
        "slot": "5",
        "type": "t_mapping(t_uint8,t_array(t_uint168)dyn_storage)"
      },
      {
        "astId": 8331,
        "contract": "src/NuggftV1.sol:NuggftV1",
        "label": "resolvers",
        "offset": 0,
        "slot": "6",
        "type": "t_mapping(t_uint256,t_address)"
      },
      {
        "astId": 8333,
        "contract": "src/NuggftV1.sol:NuggftV1",
        "label": "featureLengths",
        "offset": 0,
        "slot": "7",
        "type": "t_uint256"
      },
      {
        "astId": 9140,
        "contract": "src/NuggftV1.sol:NuggftV1",
        "label": "proofs",
        "offset": 0,
        "slot": "8",
        "type": "t_mapping(t_uint160,t_uint256)"
      },
      {
        "astId": 9839,
        "contract": "src/NuggftV1.sol:NuggftV1",
        "label": "migrator",
        "offset": 0,
        "slot": "9",
        "type": "t_address"
      },
      {
        "astId": 9841,
        "contract": "src/NuggftV1.sol:NuggftV1",
        "label": "stake",
        "offset": 0,
        "slot": "10",
        "type": "t_uint256"
      },
      {
        "astId": 10249,
        "contract": "src/NuggftV1.sol:NuggftV1",
        "label": "protocolItems",
        "offset": 0,
        "slot": "11",
        "type": "t_mapping(t_uint16,t_uint256)"
      },
      {
        "astId": 10254,
        "contract": "src/NuggftV1.sol:NuggftV1",
        "label": "swaps",
        "offset": 0,
        "slot": "12",
        "type": "t_mapping(t_uint160,t_struct(Mapping)10229_storage)"
      },
      {
        "astId": 8685,
        "contract": "src/NuggftV1.sol:NuggftV1",
        "label": "loans",
        "offset": 0,
        "slot": "13",
        "type": "t_mapping(t_uint160,t_uint256)"
      }
    ],
    "types": {
      "t_address": {
        "encoding": "inplace",
        "label": "address",
        "numberOfBytes": "20"
      },
      "t_array(t_uint168)dyn_storage": {
        "base": "t_uint168",
        "encoding": "dynamic_array",
        "label": "uint168[]",
        "numberOfBytes": "32"
      },
      "t_bool": {
        "encoding": "inplace",
        "label": "bool",
        "numberOfBytes": "1"
      },
      "t_mapping(t_address,t_bool)": {
        "encoding": "mapping",
        "key": "t_address",
        "label": "mapping(address => bool)",
        "numberOfBytes": "32",
        "value": "t_bool"
      },
      "t_mapping(t_address,t_mapping(t_address,t_bool))": {
        "encoding": "mapping",
        "key": "t_address",
        "label": "mapping(address => mapping(address => bool))",
        "numberOfBytes": "32",
        "value": "t_mapping(t_address,t_bool)"
      },
      "t_mapping(t_address,t_uint256)": {
        "encoding": "mapping",
        "key": "t_address",
        "label": "mapping(address => uint256)",
        "numberOfBytes": "32",
        "value": "t_uint256"
      },
      "t_mapping(t_uint16,t_struct(Storage)10236_storage)": {
        "encoding": "mapping",
        "key": "t_uint16",
        "label": "mapping(uint16 => struct NuggftV1Swap.Storage)",
        "numberOfBytes": "32",
        "value": "t_struct(Storage)10236_storage"
      },
      "t_mapping(t_uint16,t_uint256)": {
        "encoding": "mapping",
        "key": "t_uint16",
        "label": "mapping(uint16 => uint256)",
        "numberOfBytes": "32",
        "value": "t_uint256"
      },
      "t_mapping(t_uint160,t_struct(Mapping)10229_storage)": {
        "encoding": "mapping",
        "key": "t_uint160",
        "label": "mapping(uint160 => struct NuggftV1Swap.Mapping)",
        "numberOfBytes": "32",
        "value": "t_struct(Mapping)10229_storage"
      },
      "t_mapping(t_uint160,t_uint256)": {
        "encoding": "mapping",
        "key": "t_uint160",
        "label": "mapping(uint160 => uint256)",
        "numberOfBytes": "32",
        "value": "t_uint256"
      },
      "t_mapping(t_uint256,t_address)": {
        "encoding": "mapping",
        "key": "t_uint256",
        "label": "mapping(uint256 => address)",
        "numberOfBytes": "32",
        "value": "t_address"
      },
      "t_mapping(t_uint8,t_array(t_uint168)dyn_storage)": {
        "encoding": "mapping",
        "key": "t_uint8",
        "label": "mapping(uint8 => uint168[])",
        "numberOfBytes": "32",
        "value": "t_array(t_uint168)dyn_storage"
      },
      "t_struct(Mapping)10229_storage": {
        "encoding": "inplace",
        "label": "struct NuggftV1Swap.Mapping",
        "members": [
          {
            "astId": 10223,
            "contract": "src/NuggftV1.sol:NuggftV1",
            "label": "self",
            "offset": 0,
            "slot": "0",
            "type": "t_struct(Storage)10236_storage"
          },
          {
            "astId": 10228,
            "contract": "src/NuggftV1.sol:NuggftV1",
            "label": "items",
            "offset": 0,
            "slot": "2",
            "type": "t_mapping(t_uint16,t_struct(Storage)10236_storage)"
          }
        ],
        "numberOfBytes": "96"
      },
      "t_struct(Storage)10236_storage": {
        "encoding": "inplace",
        "label": "struct NuggftV1Swap.Storage",
        "members": [
          {
            "astId": 10231,
            "contract": "src/NuggftV1.sol:NuggftV1",
            "label": "data",
            "offset": 0,
            "slot": "0",
            "type": "t_uint256"
          },
          {
            "astId": 10235,
            "contract": "src/NuggftV1.sol:NuggftV1",
            "label": "offers",
            "offset": 0,
            "slot": "1",
            "type": "t_mapping(t_address,t_uint256)"
          }
        ],
        "numberOfBytes": "64"
      },
      "t_uint16": {
        "encoding": "inplace",
        "label": "uint16",
        "numberOfBytes": "2"
      },
      "t_uint160": {
        "encoding": "inplace",
        "label": "uint160",
        "numberOfBytes": "20"
      },
      "t_uint168": {
        "encoding": "inplace",
        "label": "uint168",
        "numberOfBytes": "21"
      },
      "t_uint256": {
        "encoding": "inplace",
        "label": "uint256",
        "numberOfBytes": "32"
      },
      "t_uint8": {
        "encoding": "inplace",
        "label": "uint8",
        "numberOfBytes": "1"
      }
    }
  }
}