{
  "address": "0x43977B692B040f81547292075BbD41381D7e8bC8",
  "abi": [
    {
      "inputs": [
        {
          "internalType": "address",
          "name": "_defaultResolver",
          "type": "address"
        }
      ],
      "stateMutability": "nonpayable",
      "type": "constructor"
    },
    {
      "anonymous": false,
      "inputs": [
        {
          "indexed": true,
          "internalType": "address",
          "name": "owner",
          "type": "address"
        },
        {
          "indexed": true,
          "internalType": "address",
          "name": "approved",
          "type": "address"
        },
        {
          "indexed": true,
          "internalType": "uint256",
          "name": "tokenId",
          "type": "uint256"
        }
      ],
      "name": "Approval",
      "type": "event"
    },
    {
      "anonymous": false,
      "inputs": [
        {
          "indexed": true,
          "internalType": "address",
          "name": "owner",
          "type": "address"
        },
        {
          "indexed": true,
          "internalType": "address",
          "name": "operator",
          "type": "address"
        },
        {
          "indexed": false,
          "internalType": "bool",
          "name": "approved",
          "type": "bool"
        }
      ],
      "name": "ApprovalForAll",
      "type": "event"
    },
    {
      "anonymous": false,
      "inputs": [
        {
          "indexed": false,
          "internalType": "uint256",
          "name": "tokenid",
          "type": "uint256"
        },
        {
          "indexed": false,
          "internalType": "uint256",
          "name": "endingEpoch",
          "type": "uint256"
        },
        {
          "indexed": false,
          "internalType": "address",
          "name": "account",
          "type": "address"
        }
      ],
      "name": "Claim",
      "type": "event"
    },
    {
      "anonymous": false,
      "inputs": [
        {
          "indexed": false,
          "internalType": "uint256",
          "name": "sellingTokenId",
          "type": "uint256"
        },
        {
          "indexed": false,
          "internalType": "uint256",
          "name": "itemId",
          "type": "uint256"
        },
        {
          "indexed": false,
          "internalType": "uint256",
          "name": "buyingTokenId",
          "type": "uint256"
        },
        {
          "indexed": false,
          "internalType": "uint256",
          "name": "endingEpoch",
          "type": "uint256"
        }
      ],
      "name": "ClaimItem",
      "type": "event"
    },
    {
      "anonymous": false,
      "inputs": [
        {
          "indexed": false,
          "internalType": "uint256",
          "name": "tokenid",
          "type": "uint256"
        },
        {
          "indexed": false,
          "internalType": "address",
          "name": "account",
          "type": "address"
        },
        {
          "indexed": false,
          "internalType": "uint256",
          "name": "eth",
          "type": "uint256"
        }
      ],
      "name": "Commit",
      "type": "event"
    },
    {
      "anonymous": false,
      "inputs": [
        {
          "indexed": false,
          "internalType": "uint256",
          "name": "sellingTokenId",
          "type": "uint256"
        },
        {
          "indexed": false,
          "internalType": "uint256",
          "name": "itemId",
          "type": "uint256"
        },
        {
          "indexed": false,
          "internalType": "uint256",
          "name": "buyingTokenId",
          "type": "uint256"
        },
        {
          "indexed": false,
          "internalType": "uint256",
          "name": "eth",
          "type": "uint256"
        }
      ],
      "name": "CommitItem",
      "type": "event"
    },
    {
      "anonymous": false,
      "inputs": [],
      "name": "Genesis",
      "type": "event"
    },
    {
      "anonymous": false,
      "inputs": [
        {
          "indexed": false,
          "internalType": "uint256",
          "name": "epoch",
          "type": "uint256"
        },
        {
          "indexed": false,
          "internalType": "address",
          "name": "account",
          "type": "address"
        },
        {
          "indexed": false,
          "internalType": "uint256",
          "name": "eth",
          "type": "uint256"
        }
      ],
      "name": "Mint",
      "type": "event"
    },
    {
      "anonymous": false,
      "inputs": [
        {
          "indexed": false,
          "internalType": "uint256",
          "name": "tokenid",
          "type": "uint256"
        },
        {
          "indexed": false,
          "internalType": "address",
          "name": "account",
          "type": "address"
        },
        {
          "indexed": false,
          "internalType": "uint256",
          "name": "eth",
          "type": "uint256"
        }
      ],
      "name": "Offer",
      "type": "event"
    },
    {
      "anonymous": false,
      "inputs": [
        {
          "indexed": false,
          "internalType": "uint256",
          "name": "sellingTokenId",
          "type": "uint256"
        },
        {
          "indexed": false,
          "internalType": "uint256",
          "name": "itemId",
          "type": "uint256"
        },
        {
          "indexed": false,
          "internalType": "uint256",
          "name": "buyingTokenId",
          "type": "uint256"
        },
        {
          "indexed": false,
          "internalType": "uint256",
          "name": "eth",
          "type": "uint256"
        }
      ],
      "name": "OfferItem",
      "type": "event"
    },
    {
      "anonymous": false,
      "inputs": [
        {
          "indexed": false,
          "internalType": "uint256",
          "name": "tokenId",
          "type": "uint256"
        }
      ],
      "name": "OpenSlot",
      "type": "event"
    },
    {
      "anonymous": false,
      "inputs": [
        {
          "indexed": false,
          "internalType": "uint256",
          "name": "tokenId",
          "type": "uint256"
        },
        {
          "indexed": false,
          "internalType": "uint256",
          "name": "itemId",
          "type": "uint256"
        }
      ],
      "name": "PopItem",
      "type": "event"
    },
    {
      "anonymous": false,
      "inputs": [
        {
          "indexed": false,
          "internalType": "uint256",
          "name": "tokenId",
          "type": "uint256"
        },
        {
          "indexed": false,
          "internalType": "uint256[]",
          "name": "items",
          "type": "uint256[]"
        }
      ],
      "name": "PreMint",
      "type": "event"
    },
    {
      "anonymous": false,
      "inputs": [
        {
          "indexed": false,
          "internalType": "uint256",
          "name": "tokenId",
          "type": "uint256"
        },
        {
          "indexed": false,
          "internalType": "uint256",
          "name": "itemId",
          "type": "uint256"
        }
      ],
      "name": "PushItem",
      "type": "event"
    },
    {
      "anonymous": false,
      "inputs": [
        {
          "indexed": false,
          "internalType": "uint256",
          "name": "amount",
          "type": "uint256"
        }
      ],
      "name": "StakeEth",
      "type": "event"
    },
    {
      "anonymous": false,
      "inputs": [
        {
          "indexed": false,
          "internalType": "uint256",
          "name": "tokenid",
          "type": "uint256"
        },
        {
          "indexed": false,
          "internalType": "address",
          "name": "account",
          "type": "address"
        },
        {
          "indexed": false,
          "internalType": "uint256",
          "name": "eth",
          "type": "uint256"
        }
      ],
      "name": "Swap",
      "type": "event"
    },
    {
      "anonymous": false,
      "inputs": [
        {
          "indexed": false,
          "internalType": "uint256",
          "name": "sellingTokenId",
          "type": "uint256"
        },
        {
          "indexed": false,
          "internalType": "uint256",
          "name": "itemId",
          "type": "uint256"
        },
        {
          "indexed": false,
          "internalType": "uint256",
          "name": "eth",
          "type": "uint256"
        }
      ],
      "name": "SwapItem",
      "type": "event"
    },
    {
      "anonymous": false,
      "inputs": [
        {
          "indexed": true,
          "internalType": "address",
          "name": "from",
          "type": "address"
        },
        {
          "indexed": true,
          "internalType": "address",
          "name": "to",
          "type": "address"
        },
        {
          "indexed": true,
          "internalType": "uint256",
          "name": "tokenId",
          "type": "uint256"
        }
      ],
      "name": "Transfer",
      "type": "event"
    },
    {
      "anonymous": false,
      "inputs": [
        {
          "indexed": false,
          "internalType": "uint256",
          "name": "amount",
          "type": "uint256"
        }
      ],
      "name": "UnStakeEth",
      "type": "event"
    },
    {
      "inputs": [],
      "name": "activeEthPerShare",
      "outputs": [
        {
          "internalType": "uint256",
          "name": "res",
          "type": "uint256"
        }
      ],
      "stateMutability": "view",
      "type": "function"
    },
    {
      "inputs": [
        {
          "internalType": "uint256[][]",
          "name": "data",
          "type": "uint256[][]"
        }
      ],
      "name": "addToVault",
      "outputs": [],
      "stateMutability": "nonpayable",
      "type": "function"
    },
    {
      "inputs": [
        {
          "internalType": "address",
          "name": "to",
          "type": "address"
        },
        {
          "internalType": "uint256",
          "name": "tokenId",
          "type": "uint256"
        }
      ],
      "name": "approve",
      "outputs": [],
      "stateMutability": "nonpayable",
      "type": "function"
    },
    {
      "inputs": [
        {
          "internalType": "address",
          "name": "owner",
          "type": "address"
        }
      ],
      "name": "balanceOf",
      "outputs": [
        {
          "internalType": "uint256",
          "name": "",
          "type": "uint256"
        }
      ],
      "stateMutability": "view",
      "type": "function"
    },
    {
      "inputs": [
        {
          "internalType": "uint256",
          "name": "tokenId",
          "type": "uint256"
        }
      ],
      "name": "burn",
      "outputs": [],
      "stateMutability": "nonpayable",
      "type": "function"
    },
    {
      "inputs": [
        {
          "internalType": "uint256",
          "name": "tokenid",
          "type": "uint256"
        },
        {
          "internalType": "uint256",
          "name": "endingEpoch",
          "type": "uint256"
        }
      ],
      "name": "claim",
      "outputs": [],
      "stateMutability": "nonpayable",
      "type": "function"
    },
    {
      "inputs": [
        {
          "internalType": "uint256",
          "name": "sellingTokenId",
          "type": "uint256"
        },
        {
          "internalType": "uint256",
          "name": "itemid",
          "type": "uint256"
        },
        {
          "internalType": "uint256",
          "name": "buyingTokenId",
          "type": "uint256"
        },
        {
          "internalType": "uint256",
          "name": "endingEpoch",
          "type": "uint256"
        }
      ],
      "name": "claimItem",
      "outputs": [],
      "stateMutability": "nonpayable",
      "type": "function"
    },
    {
      "inputs": [
        {
          "internalType": "uint256",
          "name": "tokenid",
          "type": "uint256"
        }
      ],
      "name": "commit",
      "outputs": [],
      "stateMutability": "payable",
      "type": "function"
    },
    {
      "inputs": [
        {
          "internalType": "uint256",
          "name": "sellingTokenId",
          "type": "uint256"
        },
        {
          "internalType": "uint256",
          "name": "itemid",
          "type": "uint256"
        },
        {
          "internalType": "uint256",
          "name": "buyingTokenId",
          "type": "uint256"
        }
      ],
      "name": "commitItem",
      "outputs": [],
      "stateMutability": "payable",
      "type": "function"
    },
    {
      "inputs": [],
      "name": "defaultResolver",
      "outputs": [
        {
          "internalType": "address",
          "name": "",
          "type": "address"
        }
      ],
      "stateMutability": "view",
      "type": "function"
    },
    {
      "inputs": [
        {
          "internalType": "uint256",
          "name": "tokenid",
          "type": "uint256"
        }
      ],
      "name": "delegate",
      "outputs": [],
      "stateMutability": "payable",
      "type": "function"
    },
    {
      "inputs": [
        {
          "internalType": "uint256",
          "name": "sellingTokenId",
          "type": "uint256"
        },
        {
          "internalType": "uint256",
          "name": "itemid",
          "type": "uint256"
        },
        {
          "internalType": "uint256",
          "name": "buyingTokenId",
          "type": "uint256"
        }
      ],
      "name": "delegateItem",
      "outputs": [],
      "stateMutability": "payable",
      "type": "function"
    },
    {
      "inputs": [],
      "name": "epoch",
      "outputs": [
        {
          "internalType": "uint256",
          "name": "res",
          "type": "uint256"
        }
      ],
      "stateMutability": "view",
      "type": "function"
    },
    {
      "inputs": [],
      "name": "genesis",
      "outputs": [
        {
          "internalType": "uint256",
          "name": "",
          "type": "uint256"
        }
      ],
      "stateMutability": "view",
      "type": "function"
    },
    {
      "inputs": [
        {
          "internalType": "uint256",
          "name": "tokenid",
          "type": "uint256"
        }
      ],
      "name": "getActiveSwap",
      "outputs": [
        {
          "internalType": "address",
          "name": "leader",
          "type": "address"
        },
        {
          "internalType": "uint256",
          "name": "amount",
          "type": "uint256"
        },
        {
          "internalType": "uint256",
          "name": "_epoch",
          "type": "uint256"
        },
        {
          "internalType": "bool",
          "name": "isOwner",
          "type": "bool"
        }
      ],
      "stateMutability": "view",
      "type": "function"
    },
    {
      "inputs": [
        {
          "internalType": "uint256",
          "name": "tokenId",
          "type": "uint256"
        }
      ],
      "name": "getApproved",
      "outputs": [
        {
          "internalType": "address",
          "name": "",
          "type": "address"
        }
      ],
      "stateMutability": "view",
      "type": "function"
    },
    {
      "inputs": [
        {
          "internalType": "uint256",
          "name": "tokenid",
          "type": "uint256"
        },
        {
          "internalType": "uint256",
          "name": "index",
          "type": "uint256"
        },
        {
          "internalType": "address",
          "name": "account",
          "type": "address"
        }
      ],
      "name": "getOfferByAccount",
      "outputs": [
        {
          "internalType": "uint256",
          "name": "amount",
          "type": "uint256"
        }
      ],
      "stateMutability": "view",
      "type": "function"
    },
    {
      "inputs": [
        {
          "internalType": "address",
          "name": "owner",
          "type": "address"
        },
        {
          "internalType": "address",
          "name": "operator",
          "type": "address"
        }
      ],
      "name": "isApprovedForAll",
      "outputs": [
        {
          "internalType": "bool",
          "name": "",
          "type": "bool"
        }
      ],
      "stateMutability": "view",
      "type": "function"
    },
    {
      "inputs": [
        {
          "internalType": "uint256",
          "name": "tokenid",
          "type": "uint256"
        }
      ],
      "name": "mint",
      "outputs": [],
      "stateMutability": "payable",
      "type": "function"
    },
    {
      "inputs": [],
      "name": "name",
      "outputs": [
        {
          "internalType": "string",
          "name": "",
          "type": "string"
        }
      ],
      "stateMutability": "view",
      "type": "function"
    },
    {
      "inputs": [
        {
          "internalType": "uint256",
          "name": "tokenid",
          "type": "uint256"
        }
      ],
      "name": "offer",
      "outputs": [],
      "stateMutability": "payable",
      "type": "function"
    },
    {
      "inputs": [
        {
          "internalType": "uint256",
          "name": "sellingTokenId",
          "type": "uint256"
        },
        {
          "internalType": "uint256",
          "name": "itemid",
          "type": "uint256"
        },
        {
          "internalType": "uint256",
          "name": "buyingTokenId",
          "type": "uint256"
        }
      ],
      "name": "offerItem",
      "outputs": [],
      "stateMutability": "payable",
      "type": "function"
    },
    {
      "inputs": [
        {
          "internalType": "uint256",
          "name": "tokenId",
          "type": "uint256"
        }
      ],
      "name": "ownerOf",
      "outputs": [
        {
          "internalType": "address",
          "name": "",
          "type": "address"
        }
      ],
      "stateMutability": "view",
      "type": "function"
    },
    {
      "inputs": [
        {
          "internalType": "uint256",
          "name": "tokenId",
          "type": "uint256"
        }
      ],
      "name": "parsedProofOf",
      "outputs": [
        {
          "internalType": "uint256",
          "name": "proof",
          "type": "uint256"
        },
        {
          "internalType": "uint256[]",
          "name": "defaultIds",
          "type": "uint256[]"
        },
        {
          "internalType": "uint256[]",
          "name": "extraIds",
          "type": "uint256[]"
        },
        {
          "internalType": "uint256[]",
          "name": "overrides",
          "type": "uint256[]"
        }
      ],
      "stateMutability": "view",
      "type": "function"
    },
    {
      "inputs": [
        {
          "internalType": "uint256",
          "name": "tokenId",
          "type": "uint256"
        }
      ],
      "name": "proofOf",
      "outputs": [
        {
          "internalType": "uint256",
          "name": "",
          "type": "uint256"
        }
      ],
      "stateMutability": "view",
      "type": "function"
    },
    {
      "inputs": [
        {
          "internalType": "uint256",
          "name": "tokenId",
          "type": "uint256"
        }
      ],
      "name": "rawProcessURI",
      "outputs": [
        {
          "internalType": "uint256[]",
          "name": "res",
          "type": "uint256[]"
        }
      ],
      "stateMutability": "view",
      "type": "function"
    },
    {
      "inputs": [
        {
          "internalType": "uint256",
          "name": "tokenId",
          "type": "uint256"
        }
      ],
      "name": "resolverOf",
      "outputs": [
        {
          "internalType": "address",
          "name": "",
          "type": "address"
        }
      ],
      "stateMutability": "view",
      "type": "function"
    },
    {
      "inputs": [
        {
          "internalType": "address",
          "name": "from",
          "type": "address"
        },
        {
          "internalType": "address",
          "name": "to",
          "type": "address"
        },
        {
          "internalType": "uint256",
          "name": "tokenId",
          "type": "uint256"
        }
      ],
      "name": "safeTransferFrom",
      "outputs": [],
      "stateMutability": "nonpayable",
      "type": "function"
    },
    {
      "inputs": [
        {
          "internalType": "address",
          "name": "from",
          "type": "address"
        },
        {
          "internalType": "address",
          "name": "to",
          "type": "address"
        },
        {
          "internalType": "uint256",
          "name": "tokenId",
          "type": "uint256"
        },
        {
          "internalType": "bytes",
          "name": "_data",
          "type": "bytes"
        }
      ],
      "name": "safeTransferFrom",
      "outputs": [],
      "stateMutability": "nonpayable",
      "type": "function"
    },
    {
      "inputs": [
        {
          "internalType": "address",
          "name": "operator",
          "type": "address"
        },
        {
          "internalType": "bool",
          "name": "approved",
          "type": "bool"
        }
      ],
      "name": "setApprovalForAll",
      "outputs": [],
      "stateMutability": "nonpayable",
      "type": "function"
    },
    {
      "inputs": [
        {
          "internalType": "bytes4",
          "name": "interfaceId",
          "type": "bytes4"
        }
      ],
      "name": "supportsInterface",
      "outputs": [
        {
          "internalType": "bool",
          "name": "",
          "type": "bool"
        }
      ],
      "stateMutability": "view",
      "type": "function"
    },
    {
      "inputs": [
        {
          "internalType": "uint256",
          "name": "tokenid",
          "type": "uint256"
        },
        {
          "internalType": "uint256",
          "name": "floor",
          "type": "uint256"
        }
      ],
      "name": "swap",
      "outputs": [],
      "stateMutability": "nonpayable",
      "type": "function"
    },
    {
      "inputs": [
        {
          "internalType": "uint256",
          "name": "sellingTokenId",
          "type": "uint256"
        },
        {
          "internalType": "uint256",
          "name": "itemid",
          "type": "uint256"
        },
        {
          "internalType": "uint256",
          "name": "floor",
          "type": "uint256"
        }
      ],
      "name": "swapItem",
      "outputs": [],
      "stateMutability": "nonpayable",
      "type": "function"
    },
    {
      "inputs": [],
      "name": "symbol",
      "outputs": [
        {
          "internalType": "string",
          "name": "",
          "type": "string"
        }
      ],
      "stateMutability": "view",
      "type": "function"
    },
    {
      "inputs": [
        {
          "internalType": "uint256",
          "name": "tokenId",
          "type": "uint256"
        },
        {
          "internalType": "address",
          "name": "resolver",
          "type": "address"
        }
      ],
      "name": "tokenURI",
      "outputs": [
        {
          "internalType": "bytes",
          "name": "res",
          "type": "bytes"
        }
      ],
      "stateMutability": "view",
      "type": "function"
    },
    {
      "inputs": [
        {
          "internalType": "uint256",
          "name": "tokenId",
          "type": "uint256"
        }
      ],
      "name": "tokenURI",
      "outputs": [
        {
          "internalType": "string",
          "name": "res",
          "type": "string"
        }
      ],
      "stateMutability": "view",
      "type": "function"
    },
    {
      "inputs": [],
      "name": "totalStakedEth",
      "outputs": [
        {
          "internalType": "uint256",
          "name": "res",
          "type": "uint256"
        }
      ],
      "stateMutability": "view",
      "type": "function"
    },
    {
      "inputs": [],
      "name": "totalStakedShares",
      "outputs": [
        {
          "internalType": "uint256",
          "name": "res",
          "type": "uint256"
        }
      ],
      "stateMutability": "view",
      "type": "function"
    },
    {
      "inputs": [],
      "name": "totalSupply",
      "outputs": [
        {
          "internalType": "uint256",
          "name": "res",
          "type": "uint256"
        }
      ],
      "stateMutability": "view",
      "type": "function"
    },
    {
      "inputs": [
        {
          "internalType": "address",
          "name": "from",
          "type": "address"
        },
        {
          "internalType": "address",
          "name": "to",
          "type": "address"
        },
        {
          "internalType": "uint256",
          "name": "tokenId",
          "type": "uint256"
        }
      ],
      "name": "transferFrom",
      "outputs": [],
      "stateMutability": "nonpayable",
      "type": "function"
    }
  ],
  "transactionHash": "0x99f5694c043d0bc960356ca95e5f9049aaaa7c697edc3b9b59cbd78680428f4c",
  "args": [
    "0x47cE00De0bd8Ed8FAbd335FE1EA8283284FfeC68"
  ],
  "solcInputHash": "ae73210adeb5e79fc9ffb438c7164111",
  "bytecode": "0x60c06040523480156200001157600080fd5b50604051620053f3380380620053f38339810160408190526200003491620001b5565b60405180604001604052806006815260200165139551d1d19560d21b8152506040518060400160405280601381526020017f4e7567672046756e6769626c6520546f6b656e00000000000000000000000000815250816200009a6200010a60201b60201c565b8151620000ab92602001906200010f565b508051620000c19060019060208401906200010f565b5050506001600160601b0319606082901b166080524360a0526040517f6bf6eaff5e9af8fbccb949f4c38cc016936f8775363ccf4224db160365785d5290600090a15062000222565b600090565b8280546200011d90620001e5565b90600052602060002090601f0160209004810192826200014157600085556200018c565b82601f106200015c57805160ff19168380011785556200018c565b828001600101855582156200018c579182015b828111156200018c5782518255916020019190600101906200016f565b506200019a9291506200019e565b5090565b5b808211156200019a57600081556001016200019f565b600060208284031215620001c7578081fd5b81516001600160a01b0381168114620001de578182fd5b9392505050565b600181811c90821680620001fa57607f821691505b602082108114156200021c57634e487b7160e01b600052602260045260246000fd5b50919050565b60805160601c60a051615146620002ad6000396000818161068301528181610a6801528181610b8e01528181610be001528181610cac01528181610f3101528181610f6e01528181610f9c01528181610fc801528181611015015281816112690152818161130b0152611378015260008181610562015281816110f101526112d501526151466000f3fe6080604052600436106102bb5760003560e01c8063884c66ae1161016e578063b3f9e4cb116100cb578063c87b56dd1161007f578063d96073cf11610064578063d96073cf14610780578063e985e9c5146107a0578063f4f98ad5146107c057600080fd5b8063c87b56dd1461074d578063d636feae1461076d57600080fd5b8063be2cfdff116100b0578063be2cfdff146106e8578063c3490263146106fd578063c35768811461071d57600080fd5b8063b3f9e4cb146106a7578063b88d4fde146106c757600080fd5b80639fa6dd3511610122578063a1a696a311610107578063a1a696a314610627578063a22cb46514610654578063a7f0b3de1461067457600080fd5b80639fa6dd3514610601578063a0712d681461061457600080fd5b8063900cf0cf11610153578063900cf0cf146105c457806395d89b41146105d957806396cfd827146105ee57600080fd5b8063884c66ae146105845780638c4c1b2f146105a457600080fd5b806323b872dd1161021c578063504cdacf116101d057806370a08231116101b557806370a082311461051d578063761610fc1461053d578063828eab0e1461055057600080fd5b8063504cdacf146104e85780636352211e146104fd57600080fd5b806342966c681161020157806342966c681461048857806349b44f98146104a85780634dd1496b146104c857600080fd5b806323b872dd1461044857806342842e0e1461046857600080fd5b80630cc611b11161027357806318160ddd1161025857806318160ddd146103c757806318b6e28a146103dc5780631cd4ad3a146103fc57600080fd5b80630cc611b1146103945780630cf27c2a146103b457600080fd5b806306fdde03116102a457806306fdde0314610318578063081812fc1461033a578063095ea7b31461037257600080fd5b806301ffc9a7146102c057806303bfe17e146102f5575b600080fd5b3480156102cc57600080fd5b506102e06102db366004614a2f565b6107d3565b60405190151581526020015b60405180910390f35b34801561030157600080fd5b5061030a610870565b6040519081526020016102ec565b34801561032457600080fd5b5061032d610880565b6040516102ec9190614d44565b34801561034657600080fd5b5061035a610355366004614ad1565b610912565b6040516001600160a01b0390911681526020016102ec565b34801561037e57600080fd5b5061039261038d366004614903565b61091e565b005b3480156103a057600080fd5b5061030a6103af366004614ad1565b610a55565b6103926103c2366004614b60565b610a61565b3480156103d357600080fd5b5061030a610a8f565b3480156103e857600080fd5b506103926103f736600461492c565b610a99565b34801561040857600080fd5b5061041c610417366004614ad1565b610ab2565b604080516001600160a01b039095168552602085019390935291830152151560608201526080016102ec565b34801561045457600080fd5b506103926104633660046147eb565b505050565b34801561047457600080fd5b506103926104833660046147eb565b610b58565b34801561049457600080fd5b506103926104a3366004614ad1565b610b6c565b3480156104b457600080fd5b506103926104c3366004614b60565b610b7a565b3480156104d457600080fd5b506103926104e3366004614b8b565b610b87565b3480156104f457600080fd5b5061030a610bb6565b34801561050957600080fd5b5061035a610518366004614ad1565b610bc1565b34801561052957600080fd5b5061030a6105383660046147a8565b610bcd565b61039261054b366004614ad1565b610bd9565b34801561055c57600080fd5b5061035a7f000000000000000000000000000000000000000000000000000000000000000081565b34801561059057600080fd5b5061030a61059f366004614b2c565b610c05565b3480156105b057600080fd5b5061032d6105bf366004614ae9565b610c84565b3480156105d057600080fd5b5061030a610f2a565b3480156105e557600080fd5b5061032d610f55565b6103926105fc366004614b60565b610f67565b61039261060f366004614ad1565b610f95565b610392610622366004614ad1565b610fc1565b34801561063357600080fd5b50610647610642366004614ad1565b610fed565b6040516102ec9190614d1e565b34801561066057600080fd5b5061039261066f3660046148c9565b611186565b34801561068057600080fd5b507f000000000000000000000000000000000000000000000000000000000000000061030a565b3480156106b357600080fd5b5061035a6106c2366004614ad1565b61124b565b3480156106d357600080fd5b506103926106e2366004614826565b50505050565b3480156106f457600080fd5b5061030a611257565b34801561070957600080fd5b50610392610718366004614b0b565b611262565b34801561072957600080fd5b5061073d610738366004614ad1565b61128f565b6040516102ec9493929190614db6565b34801561075957600080fd5b5061032d610768366004614ad1565b6112ae565b61039261077b366004614b60565b611304565b34801561078c57600080fd5b5061039261079b366004614b0b565b611332565b3480156107ac57600080fd5b506102e06107bb3660046147c2565b61133e565b6103926107ce366004614ad1565b611371565b60006001600160e01b031982167f80ac58cd00000000000000000000000000000000000000000000000000000000148061083657506001600160e01b031982167f5b5e139f00000000000000000000000000000000000000000000000000000000145b8061086a57507f01ffc9a7000000000000000000000000000000000000000000000000000000006001600160e01b03198316145b92915050565b600061087b8161139d565b905090565b60606000805461088f9061502e565b80601f01602080910402602001604051908101604052809291908181526020018280546108bb9061502e565b80156109085780601f106108dd57610100808354040283529160200191610908565b820191906000526020600020905b8154815290600101906020018083116108eb57829003601f168201915b5050505050905090565b600061086a81836113c4565b600061092c82825b9061145f565b9050806001600160a01b0316836001600160a01b031614156109bb5760405162461bcd60e51b815260206004820152602160248201527f4552433732313a20617070726f76616c20746f2063757272656e74206f776e6560448201527f720000000000000000000000000000000000000000000000000000000000000060648201526084015b60405180910390fd5b336001600160a01b03821614806109d757506109d7813361133e565b610a495760405162461bcd60e51b815260206004820152603860248201527f4552433732313a20617070726f76652063616c6c6572206973206e6f74206f7760448201527f6e6572206e6f7220617070726f76656420666f7220616c6c000000000000000060648201526084016109b2565b610463600084846114ec565b600061086a818361155e565b61046360007f00000000000000000000000000000000000000000000000000000000000000008585856115f5565b600061087b611257565b610aae610aa68284614f04565b60039061170a565b5050565b60008181526009602052604081208190819081908190610ad29082611853565b50905080610b0c5760405162461bcd60e51b815260206004820152600760248201526604e533a47533a360cc1b60448201526064016109b2565b80945060a881901c65ffffffffffff1660a082901c60ff166004021b64e8d4a51000029350610b428160d81c640fffffffff1690565b9250610b4e8160ff1c90565b9150509193509193565b604080516020810190915260009052505050565b610b7760008261186b565b50565b6104636000838386611a46565b6106e260007f000000000000000000000000000000000000000000000000000000000000000086868587611bff565b600061087b81611da5565b600061086a8282610926565b600061086a8183611db4565b610b7760007f000000000000000000000000000000000000000000000000000000000000000083611e52565b60008381526009602052604081208190610c20908486611eb7565b91505080610c5a5760405162461bcd60e51b815260206004820152600760248201526604e533a47533a360cc1b60448201526064016109b2565b60a881901c65ffffffffffff1660a082901c60ff166004021b64e8d4a51000025b95945050505050565b6000828152600660205260409020546060906001600160a01b0316151580610cd35750610cd07f0000000000000000000000000000000000000000000000000000000000000000611ed1565b83145b610d0b5760405162461bcd60e51b815260206004820152600960248201526804e46543a4e544d3a360bc1b60448201526064016109b2565b600080610d178561128f565b91945090925060009150610d2e9050600384611edd565b9050600086848430604051602001610d499493929190614d70565b60408051601f19818403018152908290527f4a0ef70300000000000000000000000000000000000000000000000000000000825291506000906001600160a01b03881690634a0ef70390610da1908590600401614d44565b60006040518083038186803b158015610db957600080fd5b505afa158015610dcd573d6000803e3d6000fd5b505050506040513d6000823e601f3d908101601f19168201604052610df59190810190614a67565b90506000876001600160a01b031663c142c4968585856040518463ffffffff1660e01b8152600401610e2993929190614ca8565b60006040518083038186803b158015610e4157600080fd5b505afa158015610e55573d6000803e3d6000fd5b505050506040513d6000823e601f3d908101601f19168201604052610e7d919081019061499c565b6040517f8a61d3040000000000000000000000000000000000000000000000000000000081529091506001600160a01b03891690638a61d30490610ec990849087908790600401614d31565b60006040518083038186803b158015610ee157600080fd5b505afa158015610ef5573d6000803e3d6000fd5b505050506040513d6000823e601f3d908101601f19168201604052610f1d9190810190614a67565b9998505050505050505050565b600061087b7f0000000000000000000000000000000000000000000000000000000000000000611ed1565b60606000600101805461088f9061502e565b61046360007f0000000000000000000000000000000000000000000000000000000000000000858585611ff2565b610b7760007f0000000000000000000000000000000000000000000000000000000000000000836121c4565b610aae60007f000000000000000000000000000000000000000000000000000000000000000083612251565b6000818152600660205260409020546060906001600160a01b031615158061103c57506110397f0000000000000000000000000000000000000000000000000000000000000000611ed1565b82145b6110745760405162461bcd60e51b815260206004820152600960248201526804e46543a4e544d3a360bc1b60448201526064016109b2565b6000806110808461128f565b93505092505060008483833060405160200161109f9493929190614d70565b60408051601f19818403018152919052905060006110be600385611edd565b6040517fc142c4960000000000000000000000000000000000000000000000000000000081529091506001600160a01b037f0000000000000000000000000000000000000000000000000000000000000000169063c142c496906111289084908690600401614ce1565b60006040518083038186803b15801561114057600080fd5b505afa158015611154573d6000803e3d6000fd5b505050506040513d6000823e601f3d908101601f1916820160405261117c919081019061499c565b9695505050505050565b6001600160a01b0382163314156111df5760405162461bcd60e51b815260206004820152601960248201527f4552433732313a20617070726f766520746f2063616c6c65720000000000000060448201526064016109b2565b336000818152600c602090815260408083206001600160a01b03871680855290835292819020805460ff191686151590811790915590519081529192917f17307eab39ab6107e8899845ad3d59bd9653f200f220920489ca2b5937696c31910160405180910390a35050565b600061086a81836123c1565b600061087b8161243d565b610aae60007f0000000000000000000000000000000000000000000000000000000000000000848461244d565b60006060808061129f8486612554565b93509350935093509193509193565b60008181526008602052604090205460609061086a9083906001600160a01b03166112f9577f0000000000000000000000000000000000000000000000000000000000000000610c84565b6105bf6000856123c1565b61046360007f000000000000000000000000000000000000000000000000000000000000000085858561257f565b610aae6000838361269e565b6001600160a01b038083166000908152600c6020908152604080832093851683529290529081205460ff165b9392505050565b610b7760007f000000000000000000000000000000000000000000000000000000000000000083612768565b600281015460009061136a60016113b3836127c3565b6113bd8460c01c90565b60006127d6565b60008181526006830160205260408120546001600160a01b031661143f5760405162461bcd60e51b815260206004820152602c60248201527f4552433732313a20617070726f76656420717565727920666f72206e6f6e657860448201526b34b9ba32b73a103a37b5b2b760a11b60648201526084016109b2565b506000908152600b9190910160205260409020546001600160a01b031690565b60008181526006830160205260409020546001600160a01b03168061086a5760405162461bcd60e51b815260206004820152602960248201527f4552433732313a206f776e657220717565727920666f72206e6f6e657869737460448201527f656e7420746f6b656e000000000000000000000000000000000000000000000060648201526084016109b2565b6000818152600b84016020526040902080546001600160a01b0319166001600160a01b0384169081179091558190611524858361145f565b6001600160a01b03167f8c5be1e5ebec7d5bd14f71427d1e84f3dd0314c0f7b2291e5b200ac8c7c3b92560405160405180910390a4505050565b6000818152600783016020908152604091829020548251808401909352600483527f646174610000000000000000000000000000000000000000000000000000000092909101919091528061086a5760405162461bcd60e51b815260206004820152600a60248201527f544f4b454e3a504f3a300000000000000000000000000000000000000000000060448201526064016109b2565b61ffff82106116305760405162461bcd60e51b815260206004820152600760248201526604d4c3a43493a360cc1b60448201526064016109b2565b33611644866001600160a01b03841661145f565b6001600160a01b0316146116855760405162461bcd60e51b81526020600482015260086024820152674155433a54543a3360c01b60448201526064016109b2565b6000838152600986016020908152604080832085845260020190915290206116af868287856127f8565b60408051858152602081018590526001600160a01b038416918101919091523460608201527ff562263f29883bf3519f3733bb30b47c831bfe9809884430857d8cf29571d554906080015b60405180910390a1505050505050565b600182015460005b825181101561184657600061174d84838151811061174057634e487b7160e01b600052603260045260246000fd5b6020026020010151612a4c565b9050600061175b8483612a91565b909450905060005b85848151811061178357634e487b7160e01b600052603260045260246000fd5b602002602001015151811015611830578584815181106117b357634e487b7160e01b600052603260045260246000fd5b602002602001015181815181106117da57634e487b7160e01b600052603260045260246000fd5b602090810291909101810151600085815291899052604082209091611800600186614eed565b8152602080820192909252604090810160009081208582529092529020558061182881615069565b915050611763565b505050808061183e90615069565b915050611712565b5060019092019190915550565b6000806118608484612ae7565b915091509250929050565b3061187683836113c4565b6001600160a01b0316146118cc5760405162461bcd60e51b815260206004820152600860248201527f544c3a4246533a3000000000000000000000000000000000000000000000000060448201526064016109b2565b60006118d8838361145f565b90506001600160a01b03811633146119325760405162461bcd60e51b815260206004820152600860248201527f544c3a4246533a3100000000000000000000000000000000000000000000000060448201526064016109b2565b6000828152600b8401602052604080822080546001600160a01b0319169055518391906001600160a01b038416907f8c5be1e5ebec7d5bd14f71427d1e84f3dd0314c0f7b2291e5b200ac8c7c3b925908390a46001600160a01b0381166000908152600a8401602052604081208054600192906119b0908490614eed565b9091555050600082815260068401602052604080822080546001600160a01b0319169055518391906001600160a01b038416907fddf252ad1be2c89b69c2b068fc378daa952ba7f163c4a11628f55a4df523b3ef908390a46000611a138461139d565b9050611a1f8482612b66565b611a2a846001612c27565b6106e2611a368561139d565b6001600160a01b03841690612ca5565b33611a5a856001600160a01b03841661145f565b6001600160a01b031614611a9b5760405162461bcd60e51b81526020600482015260086024820152674155433a54543a3360c01b60448201526064016109b2565b61ffff8310611aec5760405162461bcd60e51b815260206004820152600760248201527f4d4c3a53493a300000000000000000000000000000000000000000000000000060448201526064016109b2565b6001600160a01b03811660009081526009850160209081526040808320868452600201909152812090611b1f8284612ae7565b5090508015611b5a5760405162461bcd60e51b815260206004820152600760248201526604e533a53533a360cc1b60448201526064016109b2565b611b9e84611b9860016001600160a01b0319851687175b90507f80000000000000000000000000000000000000000000000000000000000000001790565b90612dbe565b508083559050611bb8866001600160a01b03851687612e3f565b604080516001600160a01b0385168152602081018790529081018590527fc8032e5c721106f3e30ad0f1a45e919c8d034cf788842ff336b0150f0fbcc60e906060016116fa565b33611c13876001600160a01b03841661145f565b6001600160a01b031614611c545760405162461bcd60e51b81526020600482015260086024820152674155433a54543a3360c01b60448201526064016109b2565b61ffff8310611c8f5760405162461bcd60e51b815260206004820152600760248201526604d4c3a43493a360cc1b60448201526064016109b2565b60008481526009870160209081526040808320868452600201909152812090611cb787611ed1565b9050600080611cc7848688612f12565b600088815260018701602090815260408083206001600160a01b038b1684529091528120559092509050611cfd85838386612f92565b15611d1f5760008455611d1a8a6001600160a01b03871689613032565b611d4a565b611d4a60a882901c65ffffffffffff1660a083901c60ff166004021b64e8d4a51000025b3390612ca5565b60408051898152602081018990526001600160a01b038716818301526060810188905290517f38195a074a64067740045e77ca5873f34a0df243a8ac9ecc39452c47e7061e479181900360800190a150505050505050505050565b600061086a82600201546127c3565b60006001600160a01b038216611e325760405162461bcd60e51b815260206004820152602a60248201527f4552433732313a2062616c616e636520717565727920666f7220746865207a6560448201527f726f20616464726573730000000000000000000000000000000000000000000060648201526084016109b2565b506001600160a01b03166000908152600a91909101602052604090205490565b60008181526009840160205260409020611e6e84828533613118565b6040805183815233602082015234918101919091527f2d57124cfa4e385afd5cc9d6f24874bdd21303ac9131d7cb674be2a5855c7002906060015b60405180910390a150505050565b600080611ec5858585612f12565b91509150935093915050565b600061086a824361341e565b6060815167ffffffffffffffff811115611f0757634e487b7160e01b600052604160045260246000fd5b604051908082528060200260200182016040528015611f3a57816020015b6060815260200190600190039081611f255790505b50905060005b8251811015611feb57611fad84600c858481518110611f6f57634e487b7160e01b600052603260045260246000fd5b6020908102919091010151901c610fff868581518110611f9f57634e487b7160e01b600052603260045260246000fd5b602002602001015116613436565b828281518110611fcd57634e487b7160e01b600052603260045260246000fd5b60200260200101819052508080611fe390615069565b915050611f40565b5092915050565b33612006866001600160a01b03841661145f565b6001600160a01b0316146120475760405162461bcd60e51b81526020600482015260086024820152674155433a54543a3360c01b60448201526064016109b2565b60008381526009860160209081526040808320858452600201909152812090806120718385612ae7565b604080518082018252600e8082527f73656c6c696e67546f6b656e49640000000000000000000000000000000000006020928301528251808401845260068152651a5d195b525960d21b90830152825180840184529081527f73656e64696e67546f6b656e49640000000000000000000000000000000000009082015281518083018352600881527f73776170446174610000000000000000000000000000000000000000000000009082015281518083018352600981527f6f66666572446174610000000000000000000000000000000000000000000000908201528151808301909252600782527f67656e657369730000000000000000000000000000000000000000000000000091015290925090508015801561219657506121968260ff1c90565b156121ad576121a888888888886115f5565b6121ba565b6121ba888888888861257f565b5050505050505050565b60006121cf83611ed1565b600083815260098601602052604081209192509081906121ef9033611853565b915091508383148015612200575081155b1561221657612210868686612251565b50612249565b8015801561222957506122298260ff1c90565b1561223e57612239868686612768565b612249565b612249868686611e52565b505050505050565b600081815260098401602052604081208161226b85611ed1565b905060008061227a8433611853565b915091508583146122cd5760405162461bcd60e51b815260206004820152600660248201527f4e533a4d3a30000000000000000000000000000000000000000000000000000060448201526064016109b2565b811561231b5760405162461bcd60e51b815260206004820152600660248201527f4e533a4d3a44000000000000000000000000000000000000000000000000000060448201526064016109b2565b61233c34611b983361232e60008861352c565b6001600160a01b0319161790565b50808555945061234d88878961357e565b61235988600134613701565b6040805184815233602082015264e8d4a5100065ffffffffffff60a889901c16600460ff60a08b901c16021b028183015290517f4e3883c75cc9c752bb1db2e406a822e4a75067ae77ad9a0a4d179f2709b9e1f69181900360600190a1505050509392505050565b60008181526008830160205260409020546001600160a01b03168061086a5760405162461bcd60e51b815260206004820152602c60248201527f4552433732313a207265736f6c76657220717565727920666f72206e6f6e657860448201526b34b9ba32b73a103a37b5b2b760a11b60648201526084016109b2565b600061086a826002015460c01c90565b600082815260098501602052604081209061246785611ed1565b9050600080612477843387611eb7565b6000878152600187016020908152604080832033808552925282209190915591935091506124a790838386612f92565b156124e357600084556124c18260d81c640fffffffff1690565b8514156124d8576124d38833886137f6565b61250b565b6124d3883388613903565b61250b60a882901c65ffffffffffff1660a083901c60ff166004021b64e8d4a5100002611d43565b6040805187815260208101879052338183015290517fd79254e5daba749baa8ba954e77bbbb18efef113a8070d00df9a188d819324269181900360600190a15050505050505050565b600060608080612564868661155e565b935061256f84613a37565b9299919850965090945092505050565b61010082106125d05760405162461bcd60e51b815260206004820152600760248201527f4d4c3a4f493a300000000000000000000000000000000000000000000000000060448201526064016109b2565b336125e4866001600160a01b03841661145f565b6001600160a01b0316146126255760405162461bcd60e51b81526020600482015260086024820152674155433a54543a3360c01b60448201526064016109b2565b60008381526009860160209081526040808320858452600201909152902061264f86828785613118565b60408051858152602081018590526001600160a01b038416918101919091523460608201527fe237f23f900f35d5f1a406ba97ccfdffe082ffcda87098765811817c2c14ac87906080016116fa565b60008281526009840160205260408120906126b98233611853565b50905080156126f45760405162461bcd60e51b815260206004820152600760248201526604e533a53533a360cc1b60448201526064016109b2565b61270f83611b9860016001600160a01b031985163317611b71565b508083559050612720853386613b46565b604080518581523360208201529081018490527faffe6cd835bee10ff23fa9c38e9100afe3849748fd59bc6b4920867cf7f190e6906060015b60405180910390a15050505050565b60008181526009840160205260409020612784848285336127f8565b6040805183815233602082015234918101919091527f094925310677b39991f64178494fad708beb62f73f36bb0baa493476ecf5870990606001611ea9565b60006001600160c01b035b909116919050565b6000816127ed576127e8858585613cf2565b610c7b565b610c7b858585613db0565b600061280383611ed1565b90506000806128128685612ae7565b91509150600034116128665760405162461bcd60e51b815260206004820152600860248201527f534c3a434f4d3a3200000000000000000000000000000000000000000000000060448201526064016109b2565b8015801561287357508115155b6128aa5760405162461bcd60e51b81526020600482015260086024820152670534c3a48534f3a360c41b60448201526064016109b2565b6128b48260ff1c90565b6129005760405162461bcd60e51b815260206004820152600860248201527f534c3a48534f3a3100000000000000000000000000000000000000000000000060448201526064016109b2565b600061290d846001614e7d565b905060008061292434611b988961232e858861352c565b909250905060a882901c65ffffffffffff1660a083901c60ff166004021b64e8d4a5100002612979606461271060a889901c65ffffffffffff1660a08a901c60ff166004021b64e8d4a51000025b9190613cf2565b106129b15760405162461bcd60e51b815260206004820152600860248201526714d30e93d0940e8d60c21b60448201526064016109b2565b600083815260018a01602052604081208691826001600160a01b03168152602081019190915260400160002055818955612a408160a887901c65ffffffffffff1660a088901c60ff166004021b64e8d4a510000260a885901c65ffffffffffff1660a086901c60ff166004021b64e8d4a5100002612a2f9190614eed565b612a399190614e7d565b8b90613dfe565b50505050505050505050565b600060208260018451612a5f9190614eed565b81518110612a7d57634e487b7160e01b600052603260045260246000fd5b6020026020010151901c6007169050919050565b600080612a9e8484613e91565b612aa9906001614e7d565b9050612aca600c612aba8582614ece565b60029190910a60001901901b1990565b84169150612ad983600c614ece565b81901b821791509250929050565b81546000811580612b095750816001600160a01b0316836001600160a01b0316145b612b5b57836001016000612b248460d81c640fffffffff1690565b81526020019081526020016000206000846001600160a01b03166001600160a01b0316815260200190815260200160002054612b5d565b815b90509250929050565b6000612b7583600201546127c3565b905081811015612bb15760405162461bcd60e51b81526020600482015260076024820152660534c3a53533a360cc1b60448201526064016109b2565b612be9612bbe8383614eed565b60028501547fffffffffffffffff000000000000000000000000000000000000000000000000161790565b60028401556040518281527fbdcc962e6e9a15a82703d40f3f70edfdf76794d126c16f698732c7d60fdf37d6906020015b60405180910390a1505050565b6000612c37836002015460c01c90565b905081811015612c735760405162461bcd60e51b81526020600482015260076024820152660534c3a53533a360cc1b60448201526064016109b2565b612c98612c808383614eed565b60028501546001600160c01b031660c09190911b1790565b8360020181905550505050565b80471015612cf55760405162461bcd60e51b815260206004820152601d60248201527f416464726573733a20696e73756666696369656e742062616c616e636500000060448201526064016109b2565b6000826001600160a01b03168260405160006040518083038185875af1925050503d8060008114612d42576040519150601f19603f3d011682016040523d82523d6000602084013e612d47565b606091505b50509050806104635760405162461bcd60e51b815260206004820152603a60248201527f416464726573733a20756e61626c6520746f2073656e642076616c75652c207260448201527f6563697069656e74206d6179206861766520726576657274656400000000000060648201526084016109b2565b6000808264e8d4a51000840493505b65ffffffffffff841115612dec576001830192508360041c9350612dcd565b828460081b1793508360081c836004021b64e8d4a5100081028203925050507fffffffffff00000000000000ffffffffffffffffffffffffffffffffffffffff841693508260a01b841791509250929050565b6000612e4b8484613ead565b905080612e9a5760405162461bcd60e51b815260206004820152600a60248201527f313135353a5354463a300000000000000000000000000000000000000000000060448201526064016109b2565b612ea48183613f0b565b505060008481526007860160209081526040808320849055858352600588019091528120805492935090612ed783615069565b909155505060408051848152602081018490527f54102016ac0e61f645ca7281e4637e190f3a25b89b05593d55ac3dbe2a54809e9101611ea9565b8254600082612f288360d81c640fffffffff1690565b14612f34576000612f36565b815b91508115801590612f585750816001600160a01b0316846001600160a01b0316145b612f8657600083815260018601602090815260408083206001600160a01b0388168452909152902054612f88565b815b9050935093915050565b600082612fe15760405162461bcd60e51b815260206004820152600760248201527f534c3a43433a310000000000000000000000000000000000000000000000000060448201526064016109b2565b6000612ff48560d81c640fffffffff1690565b831190506130028560ff1c90565b806130265750846001600160a01b0316866001600160a01b03161480156130265750805b9150505b949350505050565b600061303e8484613ead565b600083815260058601602052604090205490915061309e5760405162461bcd60e51b815260206004820152600b60248201527f313135353a534254463a3100000000000000000000000000000000000000000060448201526064016109b2565b600082815260058501602052604081208054916130ba83614ffa565b909155506130ca9050818361411d565b50600084815260078601602090815260409182902083905581518681529081018590529192507f452c5f777db10bd58f64d8bc58668d14487d008ff527ca431853ea22e195f1769101611ea9565b600061312383611ed1565b90506000806131328685612ae7565b91509150600034116131865760405162461bcd60e51b815260206004820152600860248201527f534c3a4f42503a3200000000000000000000000000000000000000000000000060448201526064016109b2565b816131d35760405162461bcd60e51b815260206004820152600660248201527f4e533a303a30000000000000000000000000000000000000000000000000000060448201526064016109b2565b6131dd8160ff1c90565b156132155760405162461bcd60e51b81526020600482015260086024820152670534c3a48534f3a360c41b60448201526064016109b2565b6132268260d81c640fffffffff1690565b8311156132755760405162461bcd60e51b815260206004820152600860248201527f534c3a4f42503a3300000000000000000000000000000000000000000000000060448201526064016109b2565b6001600160a01b038416826001600160a01b0316146132d857818660010160006132a68560d81c640fffffffff1690565b815260200190815260200160002060006132bd8590565b6001600160a01b031681526020810191909152604001600020555b6000806133276133073464e8d4a5100065ffffffffffff60a888901c16600460ff60a08a901c16021b02614e7d565b611b988861232e61331f8960d81c640fffffffff1690565b60009061352c565b909250905060a882901c65ffffffffffff1660a083901c60ff166004021b64e8d4a5100002613379606461271060a888901c65ffffffffffff1660a089901c60ff166004021b64e8d4a5100002612972565b106133b15760405162461bcd60e51b815260206004820152600860248201526714d30e93d0940e8d60c21b60448201526064016109b2565b8188556134138160a886901c65ffffffffffff1660a087901c60ff166004021b64e8d4a510000260a885901c65ffffffffffff1660a086901c60ff166004021b64e8d4a51000026134029190614eed565b61340c9190614e7d565b8a90613dfe565b505050505050505050565b6000601961342c8484614eed565b61136a9190614eba565b60008281526020848152604080832084845282528083208380529091528120546060916134638260f81c90565b90508067ffffffffffffffff81111561348c57634e487b7160e01b600052604160045260246000fd5b6040519080825280602002602001820160405280156134b5578160200160208202803683370190505b50925060015b81811015613522576000868152602088815260408083208884528252808320848452909152902054845185908390811061350557634e487b7160e01b600052603260045260246000fd5b60209081029190910101528061351a81615069565b9150506134bb565b5050509392505050565b6000640fffffffff82111561355157634e487b7160e01b600052600160045260246000fd5b5060d81b7ff000000000ffffffffffffffffffffffffffffffffffffffffffffffffffffff919091161790565b6000828152600784016020526040902054156135dc5760405162461bcd60e51b815260206004820152600660248201527f494c3a4d3a30000000000000000000000000000000000000000000000000000060448201526064016109b2565b6000806135e883614209565b91509150816000141561363d5760405162461bcd60e51b815260206004820152600a60248201527f3732313a4d494e543a300000000000000000000000000000000000000000000060448201526064016109b2565b83811461368c5760405162461bcd60e51b815260206004820152600a60248201527f3732313a4d494e543a310000000000000000000000000000000000000000000060448201526064016109b2565b600485015461369b81846142d2565b600086815260078801602052604081208290559093506136ba84613a37565b50509150507fd87057411cb55112f14c449d8a1d511f40497de1622dfafdae3d500fe0d390f786826040516136f0929190614d57565b60405180910390a150505050505050565b67ffffffffffffffff8210801561371e57506001600160c01b0381105b6137545760405162461bcd60e51b81526020600482015260076024820152660534c3a53533a360cc1b60448201526064016109b2565b600080613764856002015461450a565b90925090506137c16137768483614e7d565b61379b6137838786614e7d565b60028901546001600160c01b031660c09190911b1790565b7fffffffffffffffff000000000000000000000000000000000000000000000000161790565b60028601556040518381527fff53ef9548303b7a073c53f7791adb262240a1559282d17052a443f091bb495690602001612759565b61381130838360405180602001604052806000815250614529565b6138775760405162461bcd60e51b815260206004820152603160248201527f4552433732313a207472616e736665722063616c6c6572206973206e6f74206f6044820152701ddb995c881b9bdc88185c1c1c9bdd9959607a1b60648201526084016109b2565b6001600160a01b0382166000908152600a8401602052604081208054600192906138a2908490614e7d565b9091555050600081815260068401602052604080822080546001600160a01b0319166001600160a01b03861690811790915590518392907fddf252ad1be2c89b69c2b068fc378daa952ba7f163c4a11628f55a4df523b3ef908290a4505050565b61391e30838360405180602001604052806000815250614529565b6139845760405162461bcd60e51b815260206004820152603160248201527f4552433732313a207472616e736665722063616c6c6572206973206e6f74206f6044820152701ddb995c881b9bdc88185c1c1c9bdd9959607a1b60648201526084016109b2565b306000908152600a8401602052604081208054600192906139a6908490614eed565b90915550506001600160a01b0382166000908152600a8401602052604081208054600192906139d6908490614e7d565b9091555050600081815260068401602052604080822080546001600160a01b0319166001600160a01b0386169081179091559051839230917fddf252ad1be2c89b69c2b068fc378daa952ba7f163c4a11628f55a4df523b3ef9190a4505050565b8060608080600f851667ffffffffffffffff811115613a6657634e487b7160e01b600052604160045260246000fd5b604051908082528060200260200182016040528015613a8f578160200160208202803683370190505b50925060005b8351811015613af85761ffff613aac826010614ece565b613ab7906004614e7d565b87901c16848281518110613adb57634e487b7160e01b600052603260045260246000fd5b602090810291909101015280613af081615069565b915050613a95565b50604080516008808252610120820190925290602082016101008036833750506040805160088082526101208201909252929450905060208201610100803683370190505090509193509193565b613b50838261145f565b6001600160a01b0316336001600160a01b0316148015613b7857506001600160a01b03821633145b8015613b95575030613b8a84836113c4565b6001600160a01b0316145b613bfb5760405162461bcd60e51b815260206004820152603160248201527f4552433732313a207472616e736665722063616c6c6572206973206e6f74206f6044820152701ddb995c881b9bdc88185c1c1c9bdd9959607a1b60648201526084016109b2565b6001600160a01b0382166000908152600a840160205260408120805460019290613c26908490614eed565b9091555050306000908152600a840160205260408120805460019290613c4d908490614e7d565b9091555050600081815260068401602090815260408083208054306001600160a01b03199182168117909255600b8801909352818420805490931690925551839291907f8c5be1e5ebec7d5bd14f71427d1e84f3dd0314c0f7b2291e5b200ac8c7c3b925908390a4604051819030906001600160a01b038516907fddf252ad1be2c89b69c2b068fc378daa952ba7f163c4a11628f55a4df523b3ef90600090a4505050565b600080806000198587098587029250828110838203039150508060001415613d2c5760008411613d2157600080fd5b50829004905061136a565b808411613d3857600080fd5b6000848688098084039381119092039190506000613d5886196001614e7d565b8616958690049560026003880281188089028203028089028203028089028203028089028203028089028203028089029091030260008290038290046001019490940294049390931791909102925050509392505050565b6000613dbd848484613cf2565b905060008280613ddd57634e487b7160e01b600052601260045260246000fd5b848609111561136a576000198110613df457600080fd5b80610c7b81615069565b6001600160c01b038110613e3e5760405162461bcd60e51b81526020600482015260076024820152660534c3a53533a360cc1b60448201526064016109b2565b6000613e4d83600201546127c3565b9050613e5c612bbe8383614e7d565b60028401556040518281527fff53ef9548303b7a073c53f7791adb262240a1559282d17052a443f091bb495690602001612c1a565b6000610fff613ea183600c614ece565b84901c16905092915050565b60008181526007830160205260409020548061086a5760405162461bcd60e51b815260206004820152600a60248201527f50524f4f463a504f3a300000000000000000000000000000000000000000000060448201526064016109b2565b600080600080613f1a86614689565b9050613f63613f2887614689565b6040518060400160405280600c81526020017f6974656d7328696e70757429000000000000000000000000000000000000000081525061474d565b60005b81518160ff161015613fcc578561ffff16828260ff1681518110613f9a57634e487b7160e01b600052603260045260246000fd5b60200260200101511415613fba57613fb3816001614e95565b9250613fcc565b80613fc481615084565b915050613f66565b5060408051808201825260058082527f696e7075740000000000000000000000000000000000000000000000000000006020928301528251808401845260068152651a5d195b525960d21b90830152825180840190935282527f696e64657800000000000000000000000000000000000000000000000000000091015260008260ff161161409c5760405162461bcd60e51b815260206004820152600860248201527f534c3a50464d3a3000000000000000000000000000000000000000000000000060448201526064016109b2565b816140a681615011565b61ffff6004601083020181811b198a16975089901c95509093508681169085161490506141155760405162461bcd60e51b815260206004820152600860248201527f534c3a50464d3a3100000000000000000000000000000000000000000000000060448201526064016109b2565b509250925092565b600080600061412b85614689565b905060005b81518160ff16101561419357818160ff168151811061415f57634e487b7160e01b600052603260045260246000fd5b6020026020010151600014156141815761417a816001614e95565b9250614193565b8061418b81615084565b915050614130565b5060008260ff16116141e75760405162461bcd60e51b815260206004820152600860248201527f534c3a50464d3a4100000000000000000000000000000000000000000000000060448201526064016109b2565b816141f181615011565b600460108202019590951b9590951795939450505050565b600080614216834361341e565b90506000614224848361476b565b90506000614233600183614eed565b409050806142835760405162461bcd60e51b815260206004820152600760248201527f4550433a53424c0000000000000000000000000000000000000000000000000060448201526064016109b2565b604080516020810183905290810184905230606090811b6bffffffffffffffffffffffff1916908201526074016040516020818303038152906040528051906020012060001c93505050915091565b6000816143235760405162461bcd60e51b81526004016109b29060208082526004908201527f7365656400000000000000000000000000000000000000000000000000000000604082015260600190565b600061432f8482613e91565b610fff61433e60106000614ece565b614349906004614e7d565b85901c1661435791906150a4565b90506000614366856001613e91565b610fff61437560106001614ece565b614380906004614e7d565b86901c1661438e91906150a4565b9050600061439d866002613e91565b610fff6143ac60106002614ece565b6143b7906004614e7d565b87901c166143c591906150a4565b905060006143d9610100604588901c6150a4565b90506000610fff6143ec60106003614ece565b6143f7906004614e7d565b88901c169050606082101561442657614411886003613e91565b61441b90826150a4565b613000179150614494565b60c082101561444f5761443a886004613e91565b61444490826150a4565b614000179150614494565b60fa82101561447857614463886005613e91565b61446d90826150a4565b615000179150614494565b614483886006613e91565b61448d90826150a4565b6160001791505b61100093909317926120009290921791600485901b6144b560106001614ece565b6144c0906004614e7d565b85901b6144cf60106002614ece565b6144da906004614e7d565b85901b6144e960106003614ece565b6144f4906004614e7d565b85901b1717176004179550505050505092915050565b6000806145178360c01c90565b9150614522816127c3565b9050915091565b60006001600160a01b0384163b1561468157604051630a85bd0160e11b81526001600160a01b0385169063150b7a029061456d903390899088908890600401614c76565b602060405180830381600087803b15801561458757600080fd5b505af19250505080156145b7575060408051601f3d908101601f191682019092526145b491810190614a4b565b60015b614667573d8080156145e5576040519150601f19603f3d011682016040523d82523d6000602084013e6145ea565b606091505b50805161465f5760405162461bcd60e51b815260206004820152603260248201527f4552433732313a207472616e7366657220746f206e6f6e20455243373231526560448201527f63656976657220696d706c656d656e746572000000000000000000000000000060648201526084016109b2565b805181602001fd5b6001600160e01b031916630a85bd0160e11b14905061302a565b50600161302a565b6060600061469683614783565b90508067ffffffffffffffff8111156146bf57634e487b7160e01b600052604160045260246000fd5b6040519080825280602002602001820160405280156146e8578160200160208202803683370190505b509150600483901c925060005b81811015614746578361ffff1683828151811061472257634e487b7160e01b600052603260045260246000fd5b602090810291909101015260109390931c928061473e81615069565b9150506146f5565b5050919050565b60005b8251811015610463578061476381615069565b915050614750565b600082614779601984614ece565b61136a9190614e7d565b6000600f6127ce565b80356001600160a01b03811681146147a357600080fd5b919050565b6000602082840312156147b9578081fd5b61136a8261478c565b600080604083850312156147d4578081fd5b6147dd8361478c565b9150612b5d6020840161478c565b6000806000606084860312156147ff578081fd5b6148088461478c565b92506148166020850161478c565b9150604084013590509250925092565b6000806000806080858703121561483b578081fd5b6148448561478c565b93506148526020860161478c565b925060408501359150606085013567ffffffffffffffff811115614874578182fd5b8501601f81018713614884578182fd5b803561489761489282614e55565b614e00565b8181528860208385010111156148ab578384fd5b81602084016020830137908101602001929092525092959194509250565b600080604083850312156148db578182fd5b6148e48361478c565b9150602083013580151581146148f8578182fd5b809150509250929050565b60008060408385031215614915578182fd5b61491e8361478c565b946020939093013593505050565b6000806020838503121561493e578081fd5b823567ffffffffffffffff80821115614955578283fd5b818501915085601f830112614968578283fd5b813581811115614976578384fd5b8660208260051b850101111561498a578384fd5b60209290920196919550909350505050565b600060208083850312156149ae578182fd5b825167ffffffffffffffff8111156149c4578283fd5b8301601f810185136149d4578283fd5b80516149e261489282614e31565b80828252848201915084840188868560051b8701011115614a01578687fd5b8694505b83851015614a23578051835260019490940193918501918501614a05565b50979650505050505050565b600060208284031215614a40578081fd5b813561136a816150fa565b600060208284031215614a5c578081fd5b815161136a816150fa565b600060208284031215614a78578081fd5b815167ffffffffffffffff811115614a8e578182fd5b8201601f81018413614a9e578182fd5b8051614aac61489282614e55565b818152856020838501011115614ac0578384fd5b610c7b826020830160208601614fce565b600060208284031215614ae2578081fd5b5035919050565b60008060408385031215614afb578182fd5b82359150612b5d6020840161478c565b60008060408385031215614b1d578182fd5b50508035926020909101359150565b600080600060608486031215614b40578081fd5b8335925060208401359150614b576040850161478c565b90509250925092565b600080600060608486031215614b74578081fd5b505081359360208301359350604090920135919050565b60008060008060808587031215614ba0578182fd5b5050823594602084013594506040840135936060013592509050565b600081518084526020808501808196508360051b81019150828601855b85811015614c03578284038952614bf1848351614c10565b98850198935090840190600101614bd9565b5091979650505050505050565b6000815180845260208085019450808401835b83811015614c3f57815187529582019590820190600101614c23565b509495945050505050565b60008151808452614c62816020860160208601614fce565b601f01601f19169290920160200192915050565b60006001600160a01b0380871683528086166020840152508360408301526080606083015261117c6080830184614c4a565b606081526000614cbb6060830186614bbc565b8281036020840152614ccd8186614c4a565b905082810360408401526130268185614c4a565b606081526000614cf46060830185614bbc565b8281036020840152614d068185614c4a565b83810360409094019390935250815260200192915050565b60208152600061136a6020830184614c10565b606081526000614cbb6060830186614c10565b60208152600061136a6020830184614c4a565b82815260406020820152600061302a6040830184614c10565b848152608060208201526000614d896080830186614c10565b8281036040840152614d9b8186614c10565b9150506001600160a01b038316606083015295945050505050565b848152608060208201526000614dcf6080830186614c10565b8281036040840152614de18186614c10565b90508281036060840152614df58185614c10565b979650505050505050565b604051601f8201601f1916810167ffffffffffffffff81118282101715614e2957614e296150e4565b604052919050565b600067ffffffffffffffff821115614e4b57614e4b6150e4565b5060051b60200190565b600067ffffffffffffffff821115614e6f57614e6f6150e4565b50601f01601f191660200190565b60008219821115614e9057614e906150b8565b500190565b600060ff821660ff84168060ff03821115614eb257614eb26150b8565b019392505050565b600082614ec957614ec96150ce565b500490565b6000816000190483118215151615614ee857614ee86150b8565b500290565b600082821015614eff57614eff6150b8565b500390565b6000614f1261489284614e31565b838152602080820191908460053688821b83011115614f2f578586fd5b855b88811015614fc157823567ffffffffffffffff811115614f4f578788fd5b880136601f820112614f5f578788fd5b8035614f6d61489282614e31565b818152868101908388013684881b86018a011115614f89578b8cfd5b8b94505b83851015614fab578035835260019490940193918801918801614f8d565b5089525050509483019491830191600101614f31565b5092979650505050505050565b60005b83811015614fe9578181015183820152602001614fd1565b838111156106e25750506000910152565b600081615009576150096150b8565b506000190190565b600060ff821680615024576150246150b8565b6000190192915050565b600181811c9082168061504257607f821691505b6020821081141561506357634e487b7160e01b600052602260045260246000fd5b50919050565b600060001982141561507d5761507d6150b8565b5060010190565b600060ff821660ff81141561509b5761509b6150b8565b60010192915050565b6000826150b3576150b36150ce565b500690565b634e487b7160e01b600052601160045260246000fd5b634e487b7160e01b600052601260045260246000fd5b634e487b7160e01b600052604160045260246000fd5b6001600160e01b031981168114610b7757600080fdfea2646970667358221220b177ea1d98432b5bd8e01dfe3ff49fc0ddbacd6132b541a232476734a4d9edfd64736f6c63430008040033",
  "devdoc": {
    "kind": "dev",
    "methods": {
      "approve(address,uint256)": {
        "details": "See {IERC721-approve}."
      },
      "balanceOf(address)": {
        "details": "See {IERC721-_}."
      },
      "burn(uint256)": {
        "details": "Destroys `tokenId`. The approval is cleared when the token is burned. Requirements: - `tokenId` must exist. Emits a {Transfer} event."
      },
      "getApproved(uint256)": {
        "details": "See {IERC721-getApproved}."
      },
      "isApprovedForAll(address,address)": {
        "details": "See {IERC721-isApprovedForAll}."
      },
      "name()": {
        "details": "See {IERC721Metadata-name}."
      },
      "ownerOf(uint256)": {
        "details": "See {IERC721-ownerOf}."
      },
      "parsedProofOf(uint256)": {
        "details": "See {IERC721-_}."
      },
      "proofOf(uint256)": {
        "details": "See {IERC721-_}."
      },
      "resolverOf(uint256)": {
        "details": "See {IERC721-_}."
      },
      "safeTransferFrom(address,address,uint256)": {
        "details": "See {IERC721-safeTransferFrom}."
      },
      "safeTransferFrom(address,address,uint256,bytes)": {
        "details": "See {IERC721-safeTransferFrom}."
      },
      "setApprovalForAll(address,bool)": {
        "details": "See {IERC721-setApprovalForAll}."
      },
      "supportsInterface(bytes4)": {
        "details": "See {IERC165-supportsInterface}."
      },
      "symbol()": {
        "details": "See {IERC721Metadata-symbol}."
      },
      "transferFrom(address,address,uint256)": {
        "details": "See {IERC721-transferFrom}."
      }
    },
    "version": 1
  },
  "userdoc": {
    "kind": "user",
    "methods": {},
    "version": 1
  },
  "storageLayout": {
    "storage": [
      {
        "astId": 655,
        "contract": "contracts/src/NuggFT.sol:NuggFT",
        "label": "_nuggft",
        "offset": 0,
        "slot": "0",
        "type": "t_struct(Storage)5218_storage"
      }
    ],
    "types": {
      "t_address": {
        "encoding": "inplace",
        "label": "address",
        "numberOfBytes": "20"
      },
      "t_bool": {
        "encoding": "inplace",
        "label": "bool",
        "numberOfBytes": "1"
      },
      "t_mapping(t_address,t_bool)": {
        "encoding": "mapping",
        "key": "t_address",
        "label": "mapping(address => bool)",
        "numberOfBytes": "32",
        "value": "t_bool"
      },
      "t_mapping(t_address,t_mapping(t_address,t_bool))": {
        "encoding": "mapping",
        "key": "t_address",
        "label": "mapping(address => mapping(address => bool))",
        "numberOfBytes": "32",
        "value": "t_mapping(t_address,t_bool)"
      },
      "t_mapping(t_address,t_uint256)": {
        "encoding": "mapping",
        "key": "t_address",
        "label": "mapping(address => uint256)",
        "numberOfBytes": "32",
        "value": "t_uint256"
      },
      "t_mapping(t_uint160,t_uint256)": {
        "encoding": "mapping",
        "key": "t_uint160",
        "label": "mapping(uint160 => uint256)",
        "numberOfBytes": "32",
        "value": "t_uint256"
      },
      "t_mapping(t_uint256,t_address)": {
        "encoding": "mapping",
        "key": "t_uint256",
        "label": "mapping(uint256 => address)",
        "numberOfBytes": "32",
        "value": "t_address"
      },
      "t_mapping(t_uint256,t_mapping(t_uint160,t_uint256))": {
        "encoding": "mapping",
        "key": "t_uint256",
        "label": "mapping(uint256 => mapping(uint160 => uint256))",
        "numberOfBytes": "32",
        "value": "t_mapping(t_uint160,t_uint256)"
      },
      "t_mapping(t_uint256,t_mapping(t_uint256,t_mapping(t_uint256,t_uint256)))": {
        "encoding": "mapping",
        "key": "t_uint256",
        "label": "mapping(uint256 => mapping(uint256 => mapping(uint256 => uint256)))",
        "numberOfBytes": "32",
        "value": "t_mapping(t_uint256,t_mapping(t_uint256,t_uint256))"
      },
      "t_mapping(t_uint256,t_mapping(t_uint256,t_uint256))": {
        "encoding": "mapping",
        "key": "t_uint256",
        "label": "mapping(uint256 => mapping(uint256 => uint256))",
        "numberOfBytes": "32",
        "value": "t_mapping(t_uint256,t_uint256)"
      },
      "t_mapping(t_uint256,t_struct(History)3185_storage)": {
        "encoding": "mapping",
        "key": "t_uint256",
        "label": "mapping(uint256 => struct Swap.History)",
        "numberOfBytes": "32",
        "value": "t_struct(History)3185_storage"
      },
      "t_mapping(t_uint256,t_struct(Storage)3194_storage)": {
        "encoding": "mapping",
        "key": "t_uint256",
        "label": "mapping(uint256 => struct Swap.Storage)",
        "numberOfBytes": "32",
        "value": "t_struct(Storage)3194_storage"
      },
      "t_mapping(t_uint256,t_uint256)": {
        "encoding": "mapping",
        "key": "t_uint256",
        "label": "mapping(uint256 => uint256)",
        "numberOfBytes": "32",
        "value": "t_uint256"
      },
      "t_string_storage": {
        "encoding": "bytes",
        "label": "string",
        "numberOfBytes": "32"
      },
      "t_struct(History)3185_storage": {
        "encoding": "inplace",
        "label": "struct Swap.History",
        "members": [
          {
            "astId": 3179,
            "contract": "contracts/src/NuggFT.sol:NuggFT",
            "label": "self",
            "offset": 0,
            "slot": "0",
            "type": "t_struct(Storage)3194_storage"
          },
          {
            "astId": 3184,
            "contract": "contracts/src/NuggFT.sol:NuggFT",
            "label": "items",
            "offset": 0,
            "slot": "2",
            "type": "t_mapping(t_uint256,t_struct(Storage)3194_storage)"
          }
        ],
        "numberOfBytes": "96"
      },
      "t_struct(Storage)3194_storage": {
        "encoding": "inplace",
        "label": "struct Swap.Storage",
        "members": [
          {
            "astId": 3187,
            "contract": "contracts/src/NuggFT.sol:NuggFT",
            "label": "data",
            "offset": 0,
            "slot": "0",
            "type": "t_uint256"
          },
          {
            "astId": 3193,
            "contract": "contracts/src/NuggFT.sol:NuggFT",
            "label": "offers",
            "offset": 0,
            "slot": "1",
            "type": "t_mapping(t_uint256,t_mapping(t_uint160,t_uint256))"
          }
        ],
        "numberOfBytes": "64"
      },
      "t_struct(Storage)5218_storage": {
        "encoding": "inplace",
        "label": "struct Token.Storage",
        "members": [
          {
            "astId": 5175,
            "contract": "contracts/src/NuggFT.sol:NuggFT",
            "label": "_name",
            "offset": 0,
            "slot": "0",
            "type": "t_string_storage"
          },
          {
            "astId": 5177,
            "contract": "contracts/src/NuggFT.sol:NuggFT",
            "label": "_symbol",
            "offset": 0,
            "slot": "1",
            "type": "t_string_storage"
          },
          {
            "astId": 5179,
            "contract": "contracts/src/NuggFT.sol:NuggFT",
            "label": "_stake",
            "offset": 0,
            "slot": "2",
            "type": "t_uint256"
          },
          {
            "astId": 5182,
            "contract": "contracts/src/NuggFT.sol:NuggFT",
            "label": "_vault",
            "offset": 0,
            "slot": "3",
            "type": "t_struct(Storage)6372_storage"
          },
          {
            "astId": 5186,
            "contract": "contracts/src/NuggFT.sol:NuggFT",
            "label": "_ownedItems",
            "offset": 0,
            "slot": "5",
            "type": "t_mapping(t_uint256,t_uint256)"
          },
          {
            "astId": 5190,
            "contract": "contracts/src/NuggFT.sol:NuggFT",
            "label": "_owners",
            "offset": 0,
            "slot": "6",
            "type": "t_mapping(t_uint256,t_address)"
          },
          {
            "astId": 5194,
            "contract": "contracts/src/NuggFT.sol:NuggFT",
            "label": "_proofs",
            "offset": 0,
            "slot": "7",
            "type": "t_mapping(t_uint256,t_uint256)"
          },
          {
            "astId": 5198,
            "contract": "contracts/src/NuggFT.sol:NuggFT",
            "label": "_resolvers",
            "offset": 0,
            "slot": "8",
            "type": "t_mapping(t_uint256,t_address)"
          },
          {
            "astId": 5203,
            "contract": "contracts/src/NuggFT.sol:NuggFT",
            "label": "_swaps",
            "offset": 0,
            "slot": "9",
            "type": "t_mapping(t_uint256,t_struct(History)3185_storage)"
          },
          {
            "astId": 5207,
            "contract": "contracts/src/NuggFT.sol:NuggFT",
            "label": "_balances",
            "offset": 0,
            "slot": "10",
            "type": "t_mapping(t_address,t_uint256)"
          },
          {
            "astId": 5211,
            "contract": "contracts/src/NuggFT.sol:NuggFT",
            "label": "_tokenApprovals",
            "offset": 0,
            "slot": "11",
            "type": "t_mapping(t_uint256,t_address)"
          },
          {
            "astId": 5217,
            "contract": "contracts/src/NuggFT.sol:NuggFT",
            "label": "_operatorApprovals",
            "offset": 0,
            "slot": "12",
            "type": "t_mapping(t_address,t_mapping(t_address,t_bool))"
          }
        ],
        "numberOfBytes": "416"
      },
      "t_struct(Storage)6372_storage": {
        "encoding": "inplace",
        "label": "struct Vault.Storage",
        "members": [
          {
            "astId": 6369,
            "contract": "contracts/src/NuggFT.sol:NuggFT",
            "label": "items",
            "offset": 0,
            "slot": "0",
            "type": "t_mapping(t_uint256,t_mapping(t_uint256,t_mapping(t_uint256,t_uint256)))"
          },
          {
            "astId": 6371,
            "contract": "contracts/src/NuggFT.sol:NuggFT",
            "label": "lengthData",
            "offset": 0,
            "slot": "1",
            "type": "t_uint256"
          }
        ],
        "numberOfBytes": "64"
      },
      "t_uint160": {
        "encoding": "inplace",
        "label": "uint160",
        "numberOfBytes": "20"
      },
      "t_uint256": {
        "encoding": "inplace",
        "label": "uint256",
        "numberOfBytes": "32"
      }
    }
  }
}