{
  "address": "0x42069Ef09ACae8fdD6b29Bf2a0F7f9794bF9a155",
  "abi": [
    {
      "inputs": [],
      "stateMutability": "nonpayable",
      "type": "constructor"
    },
    {
      "anonymous": false,
      "inputs": [
        {
          "indexed": true,
          "internalType": "uint256",
          "name": "epoch",
          "type": "uint256"
        },
        {
          "indexed": false,
          "internalType": "uint256",
          "name": "amount",
          "type": "uint256"
        }
      ],
      "name": "AuctionInit",
      "type": "event"
    },
    {
      "anonymous": false,
      "inputs": [
        {
          "indexed": true,
          "internalType": "uint256",
          "name": "epoch",
          "type": "uint256"
        },
        {
          "indexed": true,
          "internalType": "address",
          "name": "user",
          "type": "address"
        },
        {
          "indexed": false,
          "internalType": "uint256",
          "name": "amount",
          "type": "uint256"
        },
        {
          "indexed": false,
          "internalType": "enum IExchangeable.Currency",
          "name": "currency",
          "type": "uint8"
        }
      ],
      "name": "BidPlaced",
      "type": "event"
    },
    {
      "anonymous": false,
      "inputs": [
        {
          "indexed": true,
          "internalType": "address",
          "name": "deployer",
          "type": "address"
        }
      ],
      "name": "Launched",
      "type": "event"
    },
    {
      "anonymous": false,
      "inputs": [
        {
          "indexed": true,
          "internalType": "uint256",
          "name": "epoch",
          "type": "uint256"
        },
        {
          "indexed": true,
          "internalType": "address",
          "name": "user",
          "type": "address"
        },
        {
          "indexed": false,
          "internalType": "uint256",
          "name": "amount",
          "type": "uint256"
        },
        {
          "indexed": false,
          "internalType": "enum IExchangeable.Currency",
          "name": "currency",
          "type": "uint8"
        }
      ],
      "name": "NormalClaim",
      "type": "event"
    },
    {
      "anonymous": false,
      "inputs": [
        {
          "indexed": true,
          "internalType": "uint256",
          "name": "epoch",
          "type": "uint256"
        },
        {
          "indexed": true,
          "internalType": "address",
          "name": "user",
          "type": "address"
        },
        {
          "indexed": false,
          "internalType": "uint256",
          "name": "amount",
          "type": "uint256"
        }
      ],
      "name": "WinningClaim",
      "type": "event"
    },
    {
      "stateMutability": "payable",
      "type": "fallback"
    },
    {
      "inputs": [
        {
          "internalType": "uint256",
          "name": "id",
          "type": "uint256"
        }
      ],
      "name": "blocknumFromId",
      "outputs": [
        {
          "internalType": "uint256",
          "name": "",
          "type": "uint256"
        }
      ],
      "stateMutability": "view",
      "type": "function"
    },
    {
      "inputs": [],
      "name": "calculateCurrentSeed",
      "outputs": [
        {
          "internalType": "bytes32",
          "name": "res",
          "type": "bytes32"
        }
      ],
      "stateMutability": "view",
      "type": "function"
    },
    {
      "inputs": [
        {
          "internalType": "uint256",
          "name": "auctionId",
          "type": "uint256"
        },
        {
          "internalType": "enum IExchangeable.Currency",
          "name": "currency",
          "type": "uint8"
        }
      ],
      "name": "claim",
      "outputs": [],
      "stateMutability": "nonpayable",
      "type": "function"
    },
    {
      "inputs": [],
      "name": "currentAuction",
      "outputs": [
        {
          "components": [
            {
              "internalType": "uint256",
              "name": "auctionId",
              "type": "uint256"
            },
            {
              "internalType": "bool",
              "name": "init",
              "type": "bool"
            },
            {
              "components": [
                {
                  "internalType": "bytes32",
                  "name": "id",
                  "type": "bytes32"
                },
                {
                  "internalType": "uint256",
                  "name": "auctionId",
                  "type": "uint256"
                },
                {
                  "internalType": "address",
                  "name": "account",
                  "type": "address"
                },
                {
                  "internalType": "uint256",
                  "name": "amount",
                  "type": "uint256"
                },
                {
                  "internalType": "bool",
                  "name": "claimed",
                  "type": "bool"
                },
                {
                  "internalType": "enum IExchangeable.Currency",
                  "name": "currency",
                  "type": "uint8"
                },
                {
                  "internalType": "uint256",
                  "name": "bidnum",
                  "type": "uint256"
                },
                {
                  "internalType": "bool",
                  "name": "first",
                  "type": "bool"
                }
              ],
              "internalType": "struct IAuctionable.Bid",
              "name": "top",
              "type": "tuple"
            },
            {
              "components": [
                {
                  "internalType": "bytes32",
                  "name": "id",
                  "type": "bytes32"
                },
                {
                  "internalType": "uint256",
                  "name": "auctionId",
                  "type": "uint256"
                },
                {
                  "internalType": "address",
                  "name": "account",
                  "type": "address"
                },
                {
                  "internalType": "uint256",
                  "name": "amount",
                  "type": "uint256"
                },
                {
                  "internalType": "bool",
                  "name": "claimed",
                  "type": "bool"
                },
                {
                  "internalType": "enum IExchangeable.Currency",
                  "name": "currency",
                  "type": "uint8"
                },
                {
                  "internalType": "uint256",
                  "name": "bidnum",
                  "type": "uint256"
                },
                {
                  "internalType": "bool",
                  "name": "first",
                  "type": "bool"
                }
              ],
              "internalType": "struct IAuctionable.Bid",
              "name": "last",
              "type": "tuple"
            }
          ],
          "internalType": "struct IAuctionable.Auction",
          "name": "res",
          "type": "tuple"
        }
      ],
      "stateMutability": "view",
      "type": "function"
    },
    {
      "inputs": [],
      "name": "currentEpoch",
      "outputs": [
        {
          "components": [
            {
              "internalType": "uint256",
              "name": "id",
              "type": "uint256"
            },
            {
              "internalType": "uint256",
              "name": "startblock",
              "type": "uint256"
            },
            {
              "internalType": "uint256",
              "name": "endblock",
              "type": "uint256"
            },
            {
              "internalType": "enum EpochMath.Status",
              "name": "status",
              "type": "uint8"
            }
          ],
          "internalType": "struct EpochMath.Epoch",
          "name": "res",
          "type": "tuple"
        }
      ],
      "stateMutability": "view",
      "type": "function"
    },
    {
      "inputs": [],
      "name": "currentEpochId",
      "outputs": [
        {
          "internalType": "uint256",
          "name": "res",
          "type": "uint256"
        }
      ],
      "stateMutability": "view",
      "type": "function"
    },
    {
      "inputs": [],
      "name": "deployer",
      "outputs": [
        {
          "internalType": "address",
          "name": "",
          "type": "address"
        }
      ],
      "stateMutability": "view",
      "type": "function"
    },
    {
      "inputs": [
        {
          "internalType": "uint256",
          "name": "blocknum",
          "type": "uint256"
        }
      ],
      "name": "epochFromBlocknum",
      "outputs": [
        {
          "components": [
            {
              "internalType": "uint256",
              "name": "id",
              "type": "uint256"
            },
            {
              "internalType": "uint256",
              "name": "startblock",
              "type": "uint256"
            },
            {
              "internalType": "uint256",
              "name": "endblock",
              "type": "uint256"
            },
            {
              "internalType": "enum EpochMath.Status",
              "name": "status",
              "type": "uint8"
            }
          ],
          "internalType": "struct EpochMath.Epoch",
          "name": "res",
          "type": "tuple"
        }
      ],
      "stateMutability": "view",
      "type": "function"
    },
    {
      "inputs": [
        {
          "internalType": "uint256",
          "name": "id",
          "type": "uint256"
        }
      ],
      "name": "epochFromId",
      "outputs": [
        {
          "components": [
            {
              "internalType": "uint256",
              "name": "id",
              "type": "uint256"
            },
            {
              "internalType": "uint256",
              "name": "startblock",
              "type": "uint256"
            },
            {
              "internalType": "uint256",
              "name": "endblock",
              "type": "uint256"
            },
            {
              "internalType": "enum EpochMath.Status",
              "name": "status",
              "type": "uint8"
            }
          ],
          "internalType": "struct EpochMath.Epoch",
          "name": "res",
          "type": "tuple"
        }
      ],
      "stateMutability": "view",
      "type": "function"
    },
    {
      "inputs": [
        {
          "internalType": "uint256",
          "name": "id",
          "type": "uint256"
        }
      ],
      "name": "epochStatus",
      "outputs": [
        {
          "internalType": "enum EpochMath.Status",
          "name": "res",
          "type": "uint8"
        }
      ],
      "stateMutability": "view",
      "type": "function"
    },
    {
      "inputs": [],
      "name": "genesisBlock",
      "outputs": [
        {
          "internalType": "uint256",
          "name": "",
          "type": "uint256"
        }
      ],
      "stateMutability": "view",
      "type": "function"
    },
    {
      "inputs": [
        {
          "internalType": "uint256",
          "name": "auctionId",
          "type": "uint256"
        }
      ],
      "name": "getAuction",
      "outputs": [
        {
          "components": [
            {
              "internalType": "uint256",
              "name": "auctionId",
              "type": "uint256"
            },
            {
              "internalType": "bool",
              "name": "init",
              "type": "bool"
            },
            {
              "components": [
                {
                  "internalType": "bytes32",
                  "name": "id",
                  "type": "bytes32"
                },
                {
                  "internalType": "uint256",
                  "name": "auctionId",
                  "type": "uint256"
                },
                {
                  "internalType": "address",
                  "name": "account",
                  "type": "address"
                },
                {
                  "internalType": "uint256",
                  "name": "amount",
                  "type": "uint256"
                },
                {
                  "internalType": "bool",
                  "name": "claimed",
                  "type": "bool"
                },
                {
                  "internalType": "enum IExchangeable.Currency",
                  "name": "currency",
                  "type": "uint8"
                },
                {
                  "internalType": "uint256",
                  "name": "bidnum",
                  "type": "uint256"
                },
                {
                  "internalType": "bool",
                  "name": "first",
                  "type": "bool"
                }
              ],
              "internalType": "struct IAuctionable.Bid",
              "name": "top",
              "type": "tuple"
            },
            {
              "components": [
                {
                  "internalType": "bytes32",
                  "name": "id",
                  "type": "bytes32"
                },
                {
                  "internalType": "uint256",
                  "name": "auctionId",
                  "type": "uint256"
                },
                {
                  "internalType": "address",
                  "name": "account",
                  "type": "address"
                },
                {
                  "internalType": "uint256",
                  "name": "amount",
                  "type": "uint256"
                },
                {
                  "internalType": "bool",
                  "name": "claimed",
                  "type": "bool"
                },
                {
                  "internalType": "enum IExchangeable.Currency",
                  "name": "currency",
                  "type": "uint8"
                },
                {
                  "internalType": "uint256",
                  "name": "bidnum",
                  "type": "uint256"
                },
                {
                  "internalType": "bool",
                  "name": "first",
                  "type": "bool"
                }
              ],
              "internalType": "struct IAuctionable.Bid",
              "name": "last",
              "type": "tuple"
            }
          ],
          "internalType": "struct IAuctionable.Auction",
          "name": "res",
          "type": "tuple"
        }
      ],
      "stateMutability": "view",
      "type": "function"
    },
    {
      "inputs": [
        {
          "internalType": "uint256",
          "name": "auctionId",
          "type": "uint256"
        },
        {
          "internalType": "address",
          "name": "account",
          "type": "address"
        }
      ],
      "name": "getBid",
      "outputs": [
        {
          "components": [
            {
              "internalType": "bytes32",
              "name": "id",
              "type": "bytes32"
            },
            {
              "internalType": "uint256",
              "name": "auctionId",
              "type": "uint256"
            },
            {
              "internalType": "address",
              "name": "account",
              "type": "address"
            },
            {
              "internalType": "uint256",
              "name": "amount",
              "type": "uint256"
            },
            {
              "internalType": "bool",
              "name": "claimed",
              "type": "bool"
            },
            {
              "internalType": "enum IExchangeable.Currency",
              "name": "currency",
              "type": "uint8"
            },
            {
              "internalType": "uint256",
              "name": "bidnum",
              "type": "uint256"
            },
            {
              "internalType": "bool",
              "name": "first",
              "type": "bool"
            }
          ],
          "internalType": "struct IAuctionable.Bid",
          "name": "res",
          "type": "tuple"
        }
      ],
      "stateMutability": "view",
      "type": "function"
    },
    {
      "inputs": [
        {
          "internalType": "uint256",
          "name": "id",
          "type": "uint256"
        }
      ],
      "name": "getSeed",
      "outputs": [
        {
          "internalType": "bytes32",
          "name": "res",
          "type": "bytes32"
        }
      ],
      "stateMutability": "view",
      "type": "function"
    },
    {
      "inputs": [],
      "name": "interval",
      "outputs": [
        {
          "internalType": "uint256",
          "name": "",
          "type": "uint256"
        }
      ],
      "stateMutability": "view",
      "type": "function"
    },
    {
      "inputs": [
        {
          "internalType": "bytes",
          "name": "data",
          "type": "bytes"
        }
      ],
      "name": "launch",
      "outputs": [],
      "stateMutability": "nonpayable",
      "type": "function"
    },
    {
      "inputs": [],
      "name": "launched",
      "outputs": [
        {
          "internalType": "bool",
          "name": "",
          "type": "bool"
        }
      ],
      "stateMutability": "view",
      "type": "function"
    },
    {
      "inputs": [],
      "name": "nuggGet",
      "outputs": [],
      "stateMutability": "nonpayable",
      "type": "function"
    },
    {
      "inputs": [],
      "name": "nuggSet",
      "outputs": [],
      "stateMutability": "nonpayable",
      "type": "function"
    },
    {
      "inputs": [
        {
          "internalType": "uint256",
          "name": "auctionId",
          "type": "uint256"
        },
        {
          "internalType": "uint256",
          "name": "amount",
          "type": "uint256"
        },
        {
          "internalType": "enum IExchangeable.Currency",
          "name": "currency",
          "type": "uint8"
        }
      ],
      "name": "placeBid",
      "outputs": [],
      "stateMutability": "payable",
      "type": "function"
    },
    {
      "inputs": [
        {
          "internalType": "uint256",
          "name": "id",
          "type": "uint256"
        }
      ],
      "name": "seedExists",
      "outputs": [
        {
          "internalType": "bool",
          "name": "res",
          "type": "bool"
        }
      ],
      "stateMutability": "view",
      "type": "function"
    },
    {
      "inputs": [
        {
          "internalType": "uint256",
          "name": "id",
          "type": "uint256"
        }
      ],
      "name": "seeds",
      "outputs": [
        {
          "internalType": "bytes32",
          "name": "res",
          "type": "bytes32"
        }
      ],
      "stateMutability": "view",
      "type": "function"
    },
    {
      "stateMutability": "payable",
      "type": "receive"
    }
  ],
  "transactionHash": "0x60f7d6f06b29015ec0fdfeee1e1072ba3434df55385dc82d516f4399f844d8a3",
  "args": [],
  "solcInputHash": "24ac09d9bc97ff10fe4e0604109f49d6",
  "bytecode": "0x60806040526000805460ff191690556007805460ff60a01b1916905534801561002757600080fd5b50601946600114610040576000805460ff191660011790555b604080516020808201835260009182905282518082018452600190819052805460ff191681178155835180830185529290925282519081019092528152516002805460ff92831660ff19909116179055600680546001600160a01b03199081163217909155600780549091163317905561ffff821611156101205760405162461bcd60e51b815260206004820152603060248201527f696e74657276616c20746f6f206c6f6e6720746f20616c776179732066696e6460448201526f040ecc2d8d2c840c4d8dec6d6d0c2e6d60831b606482015260840160405180910390fd5b604080518082019091524380825260ff90921660209091018190526008919091556009805460ff19169091179055611d948061015d6000396000f3fe6080604052600436106101195760003560e01c80639b44f8ee1161009b5780639b44f8ee146102a5578063c415f759146102c5578063c7608b22146102e5578063c8b69d77146102fa578063d5f394881461031a578063e0d4ea3714610340578063e1fcc94114610360578063eacdc5ff14610373578063eba1b60b14610388578063f0503e80146103b5578063f9aa6e0f146103e257610135565b80632faf3ea61461013d5780633beba2ee1461015d578063428a031914610172578063496a698d146101b65780634cdc9c63146101d857806354761214146101f7578063766718081461020c57806378bd79351461022e5780637ad920b31461024e5780638091f3bf1461026e578063947a36fb1461028d57610135565b366101355761012661040f565b1561013357610133610454565b005b61012661040f565b34801561014957600080fd5b50610133610158366004611a7c565b610490565b34801561016957600080fd5b5061013361049f565b34801561017e57600080fd5b506101a161018d366004611a1d565b6000908152600a6020526040902054151590565b60405190151581526020015b60405180910390f35b3480156101c257600080fd5b506101cb6104d4565b6040516101ad9190611bfe565b3480156101e457600080fd5b506008545b6040519081526020016101ad565b34801561020357600080fd5b506101336104f7565b34801561021857600080fd5b5061022161051f565b6040516101ad9190611c53565b34801561023a57600080fd5b506101cb610249366004611a1d565b610532565b34801561025a57600080fd5b50610221610269366004611a1d565b610577565b34801561027a57600080fd5b50600754600160a01b900460ff166101a1565b34801561029957600080fd5b5060095460ff166101e9565b3480156102b157600080fd5b506101e96102c0366004611a1d565b6105ad565b3480156102d157600080fd5b506101336102e0366004611973565b6105d4565b3480156102f157600080fd5b506101e9610639565b34801561030657600080fd5b50610221610315366004611a1d565b6106c0565b34801561032657600080fd5b506006546001600160a01b03166040516101ad9190611b5f565b34801561034c57600080fd5b506101e961035b366004611a1d565b6106ed565b61013361036e366004611aa7565b610748565b34801561037f57600080fd5b506101e9610759565b34801561039457600080fd5b506103a86103a3366004611a4d565b610780565b6040516101ad9190611c44565b3480156103c157600080fd5b506101e96103d0366004611a1d565b6000908152600a602052604090205490565b3480156103ee57600080fd5b506104026103fd366004611a1d565b6107e1565b6040516101ad9190611ba6565b6000610423600d546001600160a01b031690565b6001600160a01b0316336001600160a01b03161415801561044f5750600c546001600160a01b03163314155b905090565b60405162461bcd60e51b815260206004820152600a60248201526904155433a455448463a360b41b60448201526064015b60405180910390fd5b565b61049b823383610809565b5050565b60005460ff1680156104c157506000546001600160a01b036101009091041633145b6104ca57600080fd5b61048e33476108cb565b6104dc61183c565b60006104e6610759565b90506104f181610532565b91505090565b60005460ff1661050657600080fd5b60008054610100600160a81b0319163361010002179055565b61052761186d565b61044f610315610759565b61053a61183c565b8181526000828152600360205260409020546105609083906001600160a01b0316610780565b604082018190526060015115156020820152919050565b61057f61186d565b60408051808201909152600854815260095460ff1660208201526105a79061031590846108de565b92915050565b60408051808201909152600854815260095460ff1660208201526000906105a79083610907565b6105dd81610929565b6000806000838060200190518101906105f69190611907565b600b80546001600160a01b03199081166001600160a01b0395861617909155600d8054821692851692909217909155600c80549091169190921617905550505050565b60008060016106496102c0610759565b6106539190611cf0565b905080409150816106905760405162461bcd60e51b8152602060048201526007602482015266115410ce94d09360ca1b6044820152606401610485565b60408051602081018490529081018290526060016040516020818303038152906040528051906020012091505090565b6106c861186d565b60408051808201909152600854815260095460ff1660208201526105a7908343610a18565b6000818152600a60205260408120546107355760405162461bcd60e51b815260206004820152600a6024820152690534545443a4745543a360b41b6044820152606401610485565b506000908152600a602052604090205490565b61075433838584610a83565b505050565b60408051808201909152600854815260095460ff16602082015260009061044f90436108de565b6107886118ae565b60008381526004602090815260408083206001600160a01b03909516808452948252808320546060850152838101859052858352600582528083209483529381529290205460ff16151560808201529081019190915290565b60408051808201909152600854815260095460ff1660208201526000906105a7908343610ba6565b6001805460ff16600214156108305760405162461bcd60e51b815260040161048590611bb4565b805460ff1916600217815561084361183c565b848152600061085486868387610be4565b90506108608282610c86565b60008681526005602090815260408083206001600160a01b03808a16808652918452828520805460ff191660011790558a855260039093529220541614156108b0576108ab81610d42565b6108b9565b6108b981610db9565b5050805460ff19166001179055505050565b61049b6001600160a01b03831682610e27565b6020820151825160009160ff16906108f69084611cf0565b6109009190611cb1565b9392505050565b815160208301516000919061091f9060ff1684611cd1565b6109009190611c99565b6006546001600160a01b031633148061094c57506007546001600160a01b031633145b6109845760405162461bcd60e51b815260206004820152600960248201526804c41553a4c41553a360bc1b6044820152606401610485565b600754600160a01b900460ff16156109ca5760405162461bcd60e51b81526020600482015260096024820152684c41553a4c41553a3160b81b6044820152606401610485565b6007805460ff60a01b1916600160a01b1790556006546040516001600160a01b03909116907fb900795bb40f8a7bc484866009ca19ebf7b277001a839428e1b8e1a21d8e216c90600090a250565b610a2061186d565b6040518060800160405280848152602001610a3b8686610907565b8152602001610a4a8686610f3d565b8152602001610a5a868686610ba6565b6002811115610a7957634e487b7160e01b600052602160045260246000fd5b9052949350505050565b6001805460ff1660021415610aaa5760405162461bcd60e51b815260040161048590611bb4565b805460ff1916600217815583610aef5760405162461bcd60e51b815260206004820152600a60248201526904155433a4d5347303a360b41b6044820152606401610485565b610afa858584610f5e565b6000610b0884878786610be4565b90506000610b158261104a565b9050610b208161109c565b610b2981611185565b606082015160008681526004602090815260408083206001600160a01b03808d168086529184528285209590955589845260039092529091205490911614610b9357600085815260036020526040902080546001600160a01b0319166001600160a01b0389161790555b5050805460ff1916600117905550505050565b600082610bb385846108de565b1415610bc157506001610900565b81610bcc8585610f3d565b1015610bda57506000610900565b5060029392505050565b610bec6118ae565b60008581526004602090815260408083206001600160a01b0388168452909152902054610c198482611c99565b60608301526001600160a01b03851660408301526020820186905260a08201836003811115610c5857634e487b7160e01b600052602160045260246000fd5b90816003811115610c7957634e487b7160e01b600052602160045260246000fd5b8152505050949350505050565b610c8f82611238565b610cc65760405162461bcd60e51b815260206004820152600860248201526704155433a43433a360c41b6044820152606401610485565b608081015115610d035760405162461bcd60e51b81526020600482015260086024820152674155433a43433a3160c01b6044820152606401610485565b600081606001511161049b5760405162461bcd60e51b815260206004820152600860248201526720aaa19d21a19d1960c11b6044820152606401610485565b610d4b8161126d565b600b546040808301516020840151915163779fbab960e01b81526001600160a01b039093169263779fbab992610d849291600401611b8d565b600060405180830381600087803b158015610d9e57600080fd5b505af1158015610db2573d6000803e3d6000fd5b5050505050565b610dd0816040015182606001518360a001516112b5565b80604001516001600160a01b031681602001517f52eee732299f5bc11bd9fce7920cdeb1449eb75c699ef14e8b967ac48e3820da83606001518460a00151604051610e1c929190611c85565b60405180910390a350565b80471015610e775760405162461bcd60e51b815260206004820152601d60248201527f416464726573733a20696e73756666696369656e742062616c616e63650000006044820152606401610485565b6000826001600160a01b03168260405160006040518083038185875af1925050503d8060008114610ec4576040519150601f19603f3d011682016040523d82523d6000602084013e610ec9565b606091505b50509050806107545760405162461bcd60e51b815260206004820152603a60248201527f416464726573733a20756e61626c6520746f2073656e642076616c75652c20726044820152791958da5c1a595b9d081b585e481a185d99481c995d995c9d195960321b6064820152608401610485565b60006001610f5484610f4f8584611c99565b610907565b6109009190611cf0565b6000816003811115610f8057634e487b7160e01b600052602160045260246000fd5b1415610f905761075483836113a1565b6001816003811115610fb257634e487b7160e01b600052602160045260246000fd5b1415610fd457610754610fcd600d546001600160a01b031690565b84846113ee565b6002816003811115610ff657634e487b7160e01b600052602160045260246000fd5b141561101857610754611011600c546001600160a01b031690565b8484611575565b60405162461bcd60e51b815260206004820152600760248201526645583a54433a3160c81b6044820152606401610485565b61105261183c565b602080830180518352805160009081526004835260408082209251825260038452808220546001600160a01b03168252919092529081902054606080840151015281019190915290565b6110a581611641565b6110dc5760405162461bcd60e51b815260206004820152600860248201526704155433a42433a360c41b6044820152606401610485565b806040015160600151816060015160600151106111275760405162461bcd60e51b815260206004820152600960248201526804155433a5256413a360bc1b6044820152606401610485565b8060400151604001516001600160a01b03166462697463686001600160a01b031614156111825760405162461bcd60e51b815260206004820152600960248201526804155433a5755543a360bc1b6044820152606401610485565b50565b61118e8161164a565b80516000908152600a60205260409020546111b65780516111b6906111b1610639565b6116a2565b600c546060808301518101516040840151909101516001600160a01b0390921691633febada7916111e691611cf0565b306040518363ffffffff1660e01b81526004016112039190611b5f565b6000604051808303818588803b15801561121c57600080fd5b505af1158015611230573d6000803e3d6000fd5b505050505050565b6000805b8251611247906107e1565b600281111561126657634e487b7160e01b600052602160045260246000fd5b1492915050565b80604001516001600160a01b031681602001517f113c62160471f10f7d5abc32b3ab9a54d62c819d18796e533a2a1b320a74da708360600151604051610e1c91815260200190565b60008160038111156112d757634e487b7160e01b600052602160045260246000fd5b14156112e75761075483836108cb565b600181600381111561130957634e487b7160e01b600052602160045260246000fd5b141561132b57610754611324600d546001600160a01b031690565b84846116fd565b600281600381111561134d57634e487b7160e01b600052602160045260246000fd5b141561136f57610754611368600c546001600160a01b031690565b84846117d7565b60405162461bcd60e51b8152602060048201526007602482015266045583a47433a360cc1b6044820152606401610485565b80341480156113b85750336001600160a01b038316145b61049b5760405162461bcd60e51b8152602060048201526007602482015266045583a54453a360cc1b6044820152606401610485565b604051636eb1769f60e11b815281906001600160a01b0385169063dd62ed3e9061141e9086903090600401611b73565b60206040518083038186803b15801561143657600080fd5b505afa15801561144a573d6000803e3d6000fd5b505050506040513d601f19601f8201168201806040525081019061146e9190611a35565b101561148c5760405162461bcd60e51b815260040161048590611bdc565b6040516323b872dd60e01b81526001600160a01b038381166004830152306024830152604482018390528416906323b872dd90606401602060405180830381600087803b1580156114dc57600080fd5b505af11580156114f0573d6000803e3d6000fd5b505050506040513d601f19601f820116820180604052508101906115149190611953565b50604051632e1a7d4d60e01b8152600481018290526001600160a01b03841690632e1a7d4d906024015b600060405180830381600087803b15801561155857600080fd5b505af115801561156c573d6000803e3d6000fd5b50505050505050565b604051636eb1769f60e11b815281906001600160a01b0385169063dd62ed3e906115a59086903090600401611b73565b60206040518083038186803b1580156115bd57600080fd5b505afa1580156115d1573d6000803e3d6000fd5b505050506040513d601f19601f820116820180604052508101906115f59190611a35565b10156116135760405162461bcd60e51b815260040161048590611bdc565b604051639470b0bd60e01b81526001600160a01b03841690639470b0bd9061153e9085908590600401611b8d565b6000600161123c565b8060400151604001516001600160a01b031681600001517ff2adf7b58bf6f84c47a0d36351eb2f4ea4368a86f22908824e22f4446ea92258836040015160600151846040015160a00151604051610e1c929190611c85565b6000828152600a6020526040902054156116eb5760405162461bcd60e51b815260206004820152600a6024820152690534545443a5345543a360b41b6044820152606401610485565b6000918252600a602052604090912055565b826001600160a01b031663d0e30db0826040518263ffffffff1660e01b81526004016000604051808303818588803b15801561173857600080fd5b505af115801561174c573d6000803e3d6000fd5b505060405163a9059cbb60e01b81526001600160a01b038716935063a9059cbb925061177f915085908590600401611b8d565b602060405180830381600087803b15801561179957600080fd5b505af11580156117ad573d6000803e3d6000fd5b505050506040513d601f19601f820116820180604052508101906117d19190611953565b50505050565b60405163b760faf960e01b81526001600160a01b0384169063b760faf9908390611805908690600401611b5f565b6000604051808303818588803b15801561181e57600080fd5b505af1158015611832573d6000803e3d6000fd5b5050505050505050565b604080516080810182526000808252602082015290810161185b6118ae565b81526020016118686118ae565b905290565b60405180608001604052806000815260200160008152602001600081526020016000600281111561186857634e487b7160e01b600052602160045260246000fd5b604080516101008101825260008082526020820181905291810182905260608101829052608081018290529060a0820190815260006020820181905260409091015290565b80356004811061190257600080fd5b919050565b60008060006060848603121561191b578283fd5b835161192681611d49565b602085015190935061193781611d49565b604085015190925061194881611d49565b809150509250925092565b600060208284031215611964578081fd5b81518015158114610900578182fd5b600060208284031215611984578081fd5b813567ffffffffffffffff8082111561199b578283fd5b818401915084601f8301126119ae578283fd5b8135818111156119c0576119c0611d33565b604051601f8201601f19908116603f011681019083821181831017156119e8576119e8611d33565b81604052828152876020848701011115611a00578586fd5b826020860160208301379182016020019490945295945050505050565b600060208284031215611a2e578081fd5b5035919050565b600060208284031215611a46578081fd5b5051919050565b60008060408385031215611a5f578182fd5b823591506020830135611a7181611d49565b809150509250929050565b60008060408385031215611a8e578182fd5b82359150611a9e602084016118f3565b90509250929050565b600080600060608486031215611abb578283fd5b8335925060208401359150611ad2604085016118f3565b90509250925092565b60048110611aeb57611aeb611d1d565b9052565b60038110611aeb57611aeb611d1d565b805182526020810151602083015260018060a01b0360408201511660408301526060810151606083015260808101511515608083015260a0810151611b4760a0840182611adb565b5060c0818101519083015260e0908101511515910152565b6001600160a01b0391909116815260200190565b6001600160a01b0392831681529116602082015260400190565b6001600160a01b03929092168252602082015260400190565b602081016105a78284611aef565b6020808252600e908201526d04d555445583a4c4f434b45443a360941b604082015260600190565b60208082526008908201526704558433a54573a360c41b604082015260600190565b600061024082019050825182526020830151151560208301526040830151611c296040840182611aff565b506060830151611c3d610140840182611aff565b5092915050565b61010081016105a78284611aff565b60006080820190508251825260208301516020830152604083015160408301526060830151611c3d6060840182611aef565b828152604081016109006020830184611adb565b60008219821115611cac57611cac611d07565b500190565b600082611ccc57634e487b7160e01b81526012600452602481fd5b500490565b6000816000190483118215151615611ceb57611ceb611d07565b500290565b600082821015611d0257611d02611d07565b500390565b634e487b7160e01b600052601160045260246000fd5b634e487b7160e01b600052602160045260246000fd5b634e487b7160e01b600052604160045260246000fd5b6001600160a01b038116811461118257600080fdfea26469706673582212205e8d634c0da02bcb79aadd2cdcd4520ad03d215af228b00baaf2c427e2f4324164736f6c63430008040033",
  "devdoc": {
    "kind": "dev",
    "methods": {
      "blocknumFromId(uint256)": {
        "details": "public wrapper for internal blocknumFirstFromEpoch() - to save on gas"
      },
      "claim(uint256,uint8)": {
        "details": "#TODO"
      },
      "currentEpoch()": {
        "details": "public wrapper for internal blocknumFirstFromEpoch() - to save on gas"
      },
      "currentEpochId()": {
        "details": "public wrapper for internal _currentEpoch() - to save on gas"
      },
      "deployer()": {
        "details": "#TODO"
      },
      "epochFromBlocknum(uint256)": {
        "details": "public wrapper for internal blocknumFirstFromEpoch() - to save on gas"
      },
      "epochStatus(uint256)": {
        "details": "public wrapper for internal blocknumFirstFromEpoch() - to save on gas"
      },
      "genesisBlock()": {
        "details": "public wrapper for internal _genesisBlock - to save on gas"
      },
      "getSeed(uint256)": {
        "details": "@return"
      },
      "interval()": {
        "details": "public wrapper for internal _interval - to save on gas"
      },
      "launch(bytes)": {
        "details": "#TODO"
      },
      "launched()": {
        "details": "#TODO"
      },
      "placeBid(uint256,uint256,uint8)": {
        "details": "#TODO"
      },
      "seeds(uint256)": {
        "details": "external wrapper for internal _seeds"
      }
    },
    "version": 1
  },
  "userdoc": {
    "kind": "user",
    "methods": {
      "calculateCurrentSeed()": {
        "notice": "gets unique base based on given epoch and converts encoded bytes to object that can be merged Note: by using the block hash no one knows what a nugg will look like before it's epoch. We considered making this harder to manipulate, but we decided that if someone were able to pull it off and make their own custom nugg, that would be really fucking cool."
      },
      "launch(bytes)": {
        "notice": "inializes contract outside of constructor"
      }
    },
    "version": 1
  },
  "storageLayout": {
    "storage": [
      {
        "astId": 5341,
        "contract": "contracts/auction/NuggMinter.sol:NuggMinter",
        "label": "inTesting",
        "offset": 0,
        "slot": "0",
        "type": "t_bool"
      },
      {
        "astId": 5356,
        "contract": "contracts/auction/NuggMinter.sol:NuggMinter",
        "label": "pw",
        "offset": 1,
        "slot": "0",
        "type": "t_address"
      },
      {
        "astId": 4767,
        "contract": "contracts/auction/NuggMinter.sol:NuggMinter",
        "label": "global",
        "offset": 0,
        "slot": "1",
        "type": "t_struct(Mutex)4758_storage"
      },
      {
        "astId": 3345,
        "contract": "contracts/auction/NuggMinter.sol:NuggMinter",
        "label": "local",
        "offset": 0,
        "slot": "2",
        "type": "t_struct(Mutex)4758_storage"
      },
      {
        "astId": 3349,
        "contract": "contracts/auction/NuggMinter.sol:NuggMinter",
        "label": "_topAddr",
        "offset": 0,
        "slot": "3",
        "type": "t_mapping(t_uint256,t_address)"
      },
      {
        "astId": 3355,
        "contract": "contracts/auction/NuggMinter.sol:NuggMinter",
        "label": "_bidsAmt",
        "offset": 0,
        "slot": "4",
        "type": "t_mapping(t_uint256,t_mapping(t_address,t_uint256))"
      },
      {
        "astId": 3361,
        "contract": "contracts/auction/NuggMinter.sol:NuggMinter",
        "label": "_bidsBool",
        "offset": 0,
        "slot": "5",
        "type": "t_mapping(t_uint256,t_mapping(t_address,t_bool))"
      },
      {
        "astId": 4664,
        "contract": "contracts/auction/NuggMinter.sol:NuggMinter",
        "label": "_deployer",
        "offset": 0,
        "slot": "6",
        "type": "t_address"
      },
      {
        "astId": 4666,
        "contract": "contracts/auction/NuggMinter.sol:NuggMinter",
        "label": "_deployerContract",
        "offset": 0,
        "slot": "7",
        "type": "t_address"
      },
      {
        "astId": 4669,
        "contract": "contracts/auction/NuggMinter.sol:NuggMinter",
        "label": "_launched",
        "offset": 20,
        "slot": "7",
        "type": "t_bool"
      },
      {
        "astId": 4119,
        "contract": "contracts/auction/NuggMinter.sol:NuggMinter",
        "label": "_state",
        "offset": 0,
        "slot": "8",
        "type": "t_struct(State)14251_storage"
      },
      {
        "astId": 4848,
        "contract": "contracts/auction/NuggMinter.sol:NuggMinter",
        "label": "_seeds",
        "offset": 0,
        "slot": "10",
        "type": "t_mapping(t_uint256,t_bytes32)"
      },
      {
        "astId": 2538,
        "contract": "contracts/auction/NuggMinter.sol:NuggMinter",
        "label": "_NUGGFT",
        "offset": 0,
        "slot": "11",
        "type": "t_contract(IAuctionableImplementer)4101"
      },
      {
        "astId": 2541,
        "contract": "contracts/auction/NuggMinter.sol:NuggMinter",
        "label": "_NUGGETH",
        "offset": 0,
        "slot": "12",
        "type": "t_contract(INuggETH)17387"
      },
      {
        "astId": 2544,
        "contract": "contracts/auction/NuggMinter.sol:NuggMinter",
        "label": "_WETH",
        "offset": 0,
        "slot": "13",
        "type": "t_contract(IWETH9)14068"
      }
    ],
    "types": {
      "t_address": {
        "encoding": "inplace",
        "label": "address",
        "numberOfBytes": "20"
      },
      "t_bool": {
        "encoding": "inplace",
        "label": "bool",
        "numberOfBytes": "1"
      },
      "t_bytes32": {
        "encoding": "inplace",
        "label": "bytes32",
        "numberOfBytes": "32"
      },
      "t_contract(IAuctionableImplementer)4101": {
        "encoding": "inplace",
        "label": "contract IAuctionableImplementer",
        "numberOfBytes": "20"
      },
      "t_contract(INuggETH)17387": {
        "encoding": "inplace",
        "label": "contract INuggETH",
        "numberOfBytes": "20"
      },
      "t_contract(IWETH9)14068": {
        "encoding": "inplace",
        "label": "contract IWETH9",
        "numberOfBytes": "20"
      },
      "t_mapping(t_address,t_bool)": {
        "encoding": "mapping",
        "key": "t_address",
        "label": "mapping(address => bool)",
        "numberOfBytes": "32",
        "value": "t_bool"
      },
      "t_mapping(t_address,t_uint256)": {
        "encoding": "mapping",
        "key": "t_address",
        "label": "mapping(address => uint256)",
        "numberOfBytes": "32",
        "value": "t_uint256"
      },
      "t_mapping(t_uint256,t_address)": {
        "encoding": "mapping",
        "key": "t_uint256",
        "label": "mapping(uint256 => address)",
        "numberOfBytes": "32",
        "value": "t_address"
      },
      "t_mapping(t_uint256,t_bytes32)": {
        "encoding": "mapping",
        "key": "t_uint256",
        "label": "mapping(uint256 => bytes32)",
        "numberOfBytes": "32",
        "value": "t_bytes32"
      },
      "t_mapping(t_uint256,t_mapping(t_address,t_bool))": {
        "encoding": "mapping",
        "key": "t_uint256",
        "label": "mapping(uint256 => mapping(address => bool))",
        "numberOfBytes": "32",
        "value": "t_mapping(t_address,t_bool)"
      },
      "t_mapping(t_uint256,t_mapping(t_address,t_uint256))": {
        "encoding": "mapping",
        "key": "t_uint256",
        "label": "mapping(uint256 => mapping(address => uint256))",
        "numberOfBytes": "32",
        "value": "t_mapping(t_address,t_uint256)"
      },
      "t_struct(Mutex)4758_storage": {
        "encoding": "inplace",
        "label": "struct Mutexable.Mutex",
        "members": [
          {
            "astId": 4757,
            "contract": "contracts/auction/NuggMinter.sol:NuggMinter",
            "label": "status",
            "offset": 0,
            "slot": "0",
            "type": "t_uint8"
          }
        ],
        "numberOfBytes": "32"
      },
      "t_struct(State)14251_storage": {
        "encoding": "inplace",
        "label": "struct EpochMath.State",
        "members": [
          {
            "astId": 14248,
            "contract": "contracts/auction/NuggMinter.sol:NuggMinter",
            "label": "genesisBlock",
            "offset": 0,
            "slot": "0",
            "type": "t_uint256"
          },
          {
            "astId": 14250,
            "contract": "contracts/auction/NuggMinter.sol:NuggMinter",
            "label": "interval",
            "offset": 0,
            "slot": "1",
            "type": "t_uint8"
          }
        ],
        "numberOfBytes": "64"
      },
      "t_uint256": {
        "encoding": "inplace",
        "label": "uint256",
        "numberOfBytes": "32"
      },
      "t_uint8": {
        "encoding": "inplace",
        "label": "uint8",
        "numberOfBytes": "1"
      }
    }
  }
}