{
  "address": "0x8E696927f4581680698C124cbE8B5143e0Cf9Dbf",
  "abi": [
    {
      "inputs": [
        {
          "internalType": "contract IxNUGG",
          "name": "_xnugg",
          "type": "address"
        }
      ],
      "stateMutability": "nonpayable",
      "type": "constructor"
    },
    {
      "anonymous": false,
      "inputs": [
        {
          "indexed": false,
          "internalType": "uint128",
          "name": "interval",
          "type": "uint128"
        },
        {
          "indexed": false,
          "internalType": "uint128",
          "name": "baseblock",
          "type": "uint128"
        }
      ],
      "name": "Genesis",
      "type": "event"
    },
    {
      "anonymous": false,
      "inputs": [
        {
          "indexed": false,
          "internalType": "address",
          "name": "nft",
          "type": "address"
        },
        {
          "indexed": false,
          "internalType": "uint256",
          "name": "tokenid",
          "type": "uint256"
        },
        {
          "indexed": false,
          "internalType": "uint256",
          "name": "swapnum",
          "type": "uint256"
        },
        {
          "indexed": false,
          "internalType": "address",
          "name": "account",
          "type": "address"
        }
      ],
      "name": "SubmitClaim",
      "type": "event"
    },
    {
      "anonymous": false,
      "inputs": [
        {
          "indexed": false,
          "internalType": "address",
          "name": "nft",
          "type": "address"
        },
        {
          "indexed": false,
          "internalType": "uint256",
          "name": "tokenid",
          "type": "uint256"
        },
        {
          "indexed": false,
          "internalType": "uint256",
          "name": "swapnum",
          "type": "uint256"
        },
        {
          "indexed": false,
          "internalType": "address",
          "name": "account",
          "type": "address"
        },
        {
          "indexed": false,
          "internalType": "uint256",
          "name": "amount",
          "type": "uint256"
        }
      ],
      "name": "SubmitOffer",
      "type": "event"
    },
    {
      "anonymous": false,
      "inputs": [
        {
          "indexed": false,
          "internalType": "address",
          "name": "nft",
          "type": "address"
        },
        {
          "indexed": false,
          "internalType": "uint256",
          "name": "tokenid",
          "type": "uint256"
        },
        {
          "indexed": false,
          "internalType": "uint256",
          "name": "swapnum",
          "type": "uint256"
        },
        {
          "indexed": false,
          "internalType": "address",
          "name": "account",
          "type": "address"
        },
        {
          "indexed": false,
          "internalType": "uint256",
          "name": "amount",
          "type": "uint256"
        },
        {
          "indexed": false,
          "internalType": "uint64",
          "name": "epoch",
          "type": "uint64"
        }
      ],
      "name": "SubmitSwap",
      "type": "event"
    },
    {
      "inputs": [
        {
          "internalType": "uint64",
          "name": "id",
          "type": "uint64"
        }
      ],
      "name": "blocknumFromId",
      "outputs": [
        {
          "internalType": "uint256",
          "name": "",
          "type": "uint256"
        }
      ],
      "stateMutability": "view",
      "type": "function"
    },
    {
      "inputs": [],
      "name": "currentEpochId",
      "outputs": [
        {
          "internalType": "uint64",
          "name": "res",
          "type": "uint64"
        }
      ],
      "stateMutability": "view",
      "type": "function"
    },
    {
      "inputs": [],
      "name": "currentSeed",
      "outputs": [
        {
          "internalType": "bytes32",
          "name": "res",
          "type": "bytes32"
        }
      ],
      "stateMutability": "view",
      "type": "function"
    },
    {
      "inputs": [
        {
          "internalType": "uint256",
          "name": "blocknum",
          "type": "uint256"
        }
      ],
      "name": "epochFromBlocknum",
      "outputs": [
        {
          "components": [
            {
              "internalType": "uint64",
              "name": "id",
              "type": "uint64"
            },
            {
              "internalType": "uint256",
              "name": "startblock",
              "type": "uint256"
            },
            {
              "internalType": "uint256",
              "name": "endblock",
              "type": "uint256"
            },
            {
              "internalType": "enum EpochMath.Status",
              "name": "status",
              "type": "uint8"
            }
          ],
          "internalType": "struct EpochMath.Epoch",
          "name": "res",
          "type": "tuple"
        }
      ],
      "stateMutability": "view",
      "type": "function"
    },
    {
      "inputs": [
        {
          "internalType": "uint64",
          "name": "id",
          "type": "uint64"
        }
      ],
      "name": "epochFromId",
      "outputs": [
        {
          "components": [
            {
              "internalType": "uint64",
              "name": "id",
              "type": "uint64"
            },
            {
              "internalType": "uint256",
              "name": "startblock",
              "type": "uint256"
            },
            {
              "internalType": "uint256",
              "name": "endblock",
              "type": "uint256"
            },
            {
              "internalType": "enum EpochMath.Status",
              "name": "status",
              "type": "uint8"
            }
          ],
          "internalType": "struct EpochMath.Epoch",
          "name": "res",
          "type": "tuple"
        }
      ],
      "stateMutability": "view",
      "type": "function"
    },
    {
      "inputs": [
        {
          "internalType": "uint64",
          "name": "id",
          "type": "uint64"
        }
      ],
      "name": "epochStatus",
      "outputs": [
        {
          "internalType": "enum EpochMath.Status",
          "name": "res",
          "type": "uint8"
        }
      ],
      "stateMutability": "view",
      "type": "function"
    },
    {
      "inputs": [],
      "name": "genesisBlock",
      "outputs": [
        {
          "internalType": "uint256",
          "name": "res",
          "type": "uint256"
        }
      ],
      "stateMutability": "view",
      "type": "function"
    },
    {
      "inputs": [
        {
          "internalType": "uint256",
          "name": "id",
          "type": "uint256"
        }
      ],
      "name": "getSeed",
      "outputs": [
        {
          "internalType": "bytes32",
          "name": "res",
          "type": "bytes32"
        }
      ],
      "stateMutability": "view",
      "type": "function"
    },
    {
      "inputs": [
        {
          "internalType": "uint256",
          "name": "id",
          "type": "uint256"
        },
        {
          "internalType": "uint256",
          "name": "offset",
          "type": "uint256"
        }
      ],
      "name": "getSeedWithOffset",
      "outputs": [
        {
          "internalType": "bytes32",
          "name": "res",
          "type": "bytes32"
        }
      ],
      "stateMutability": "view",
      "type": "function"
    },
    {
      "inputs": [
        {
          "internalType": "address",
          "name": "nft",
          "type": "address"
        },
        {
          "internalType": "uint256",
          "name": "tokenid",
          "type": "uint256"
        },
        {
          "internalType": "uint256",
          "name": "_swapnum",
          "type": "uint256"
        }
      ],
      "name": "getSwap",
      "outputs": [
        {
          "internalType": "uint256",
          "name": "swapnum",
          "type": "uint256"
        },
        {
          "internalType": "address",
          "name": "leader",
          "type": "address"
        },
        {
          "internalType": "uint128",
          "name": "leaderAmount",
          "type": "uint128"
        },
        {
          "internalType": "uint64",
          "name": "epoch",
          "type": "uint64"
        },
        {
          "internalType": "bool",
          "name": "claimedByOwner",
          "type": "bool"
        },
        {
          "internalType": "bool",
          "name": "exists",
          "type": "bool"
        }
      ],
      "stateMutability": "view",
      "type": "function"
    },
    {
      "inputs": [
        {
          "internalType": "address",
          "name": "nft",
          "type": "address"
        },
        {
          "internalType": "uint256",
          "name": "tokenid",
          "type": "uint256"
        }
      ],
      "name": "getSwap",
      "outputs": [
        {
          "internalType": "uint256",
          "name": "swapnum",
          "type": "uint256"
        },
        {
          "internalType": "address",
          "name": "leader",
          "type": "address"
        },
        {
          "internalType": "uint128",
          "name": "leaderAmount",
          "type": "uint128"
        },
        {
          "internalType": "uint64",
          "name": "epoch",
          "type": "uint64"
        },
        {
          "internalType": "bool",
          "name": "claimedByOwner",
          "type": "bool"
        },
        {
          "internalType": "bool",
          "name": "exists",
          "type": "bool"
        }
      ],
      "stateMutability": "view",
      "type": "function"
    },
    {
      "inputs": [],
      "name": "interval",
      "outputs": [
        {
          "internalType": "uint256",
          "name": "res",
          "type": "uint256"
        }
      ],
      "stateMutability": "view",
      "type": "function"
    },
    {
      "inputs": [],
      "name": "nuggGet",
      "outputs": [],
      "stateMutability": "nonpayable",
      "type": "function"
    },
    {
      "inputs": [],
      "name": "nuggSet",
      "outputs": [],
      "stateMutability": "nonpayable",
      "type": "function"
    },
    {
      "inputs": [
        {
          "internalType": "address",
          "name": "",
          "type": "address"
        },
        {
          "internalType": "address",
          "name": "",
          "type": "address"
        },
        {
          "internalType": "uint256",
          "name": "",
          "type": "uint256"
        },
        {
          "internalType": "bytes",
          "name": "",
          "type": "bytes"
        }
      ],
      "name": "onERC721Received",
      "outputs": [
        {
          "internalType": "bytes4",
          "name": "",
          "type": "bytes4"
        }
      ],
      "stateMutability": "nonpayable",
      "type": "function"
    },
    {
      "inputs": [
        {
          "internalType": "uint256",
          "name": "id",
          "type": "uint256"
        }
      ],
      "name": "seedExists",
      "outputs": [
        {
          "internalType": "bool",
          "name": "res",
          "type": "bool"
        }
      ],
      "stateMutability": "view",
      "type": "function"
    },
    {
      "inputs": [
        {
          "internalType": "address",
          "name": "nft",
          "type": "address"
        },
        {
          "internalType": "uint256",
          "name": "tokenid",
          "type": "uint256"
        }
      ],
      "name": "submitClaim",
      "outputs": [],
      "stateMutability": "nonpayable",
      "type": "function"
    },
    {
      "inputs": [
        {
          "internalType": "address",
          "name": "nft",
          "type": "address"
        },
        {
          "internalType": "uint256",
          "name": "tokenid",
          "type": "uint256"
        }
      ],
      "name": "submitOffer",
      "outputs": [],
      "stateMutability": "payable",
      "type": "function"
    },
    {
      "inputs": [
        {
          "internalType": "address",
          "name": "nft",
          "type": "address"
        },
        {
          "internalType": "uint256",
          "name": "tokenid",
          "type": "uint256"
        },
        {
          "internalType": "uint64",
          "name": "requestedEpoch",
          "type": "uint64"
        },
        {
          "internalType": "uint128",
          "name": "requestedFloor",
          "type": "uint128"
        }
      ],
      "name": "submitSwap",
      "outputs": [],
      "stateMutability": "nonpayable",
      "type": "function"
    },
    {
      "inputs": [],
      "name": "xnugg",
      "outputs": [
        {
          "internalType": "contract IxNUGG",
          "name": "",
          "type": "address"
        }
      ],
      "stateMutability": "view",
      "type": "function"
    }
  ],
  "transactionHash": "0xa3c5b192db8b7e690b2c9fbb7cef73ee98b4382e2d52fa59e26d4cda2c1b8807",
  "args": [
    "0xEa71B205D6B29224d945a905Af7A25f9E9EF4f3A"
  ],
  "solcInputHash": "88c6ca31fdeae79ad2aae7c6b1069606",
  "bytecode": "0x60a06040526000805460ff191690553480156200001b57600080fd5b50604051620028e0380380620028e08339810160408190526200003e91620000d4565b6019434660011462000058576000805460ff191660011790555b6200006f8282620000cd60201b620008c01760201c565b600255604080516001600160801b038085168252831660208201527fcecb518f1c86dff96ad81c15a77b8ecb21b258b40e56e199a12d856b9444667c910160405180910390a1505060601b6001600160601b03191660805262000104565b60801b1790565b600060208284031215620000e6578081fd5b81516001600160a01b0381168114620000fd578182fd5b9392505050565b60805160601c6127a8620001386000396000818161043e015281816109b901528181610a480152610b9301526127a86000f3fe60806040526004361061015f5760003560e01c806377271376116100c0578063c9412c8f11610074578063e39eff8011610059578063e39eff80146104da578063eacdc5ff146104fa578063ffbc2ef41461052857600080fd5b8063c9412c8f1461048d578063e0d4ea37146104ba57600080fd5b806383220626116100a557806383220626146104175780638f4c1d4f1461042c578063947a36fb1461047857600080fd5b8063772713761461035b5780637ad920b3146103f757600080fd5b80634cdc9c631161011757806354761214116100fc57806354761214146102aa57806364ca10ce146102bf5780636cb467aa1461032e57600080fd5b80634cdc9c631461026757806350e5ddbf1461028a57600080fd5b80633beba2ee116101485780633beba2ee146101f35780633c53a37a14610208578063428a03191461022857600080fd5b8063150b7a021461016457806331350598146101de575b600080fd5b34801561017057600080fd5b506101a861017f366004612275565b7f150b7a0200000000000000000000000000000000000000000000000000000000949350505050565b6040517fffffffff0000000000000000000000000000000000000000000000000000000090911681526020015b60405180910390f35b6101f16101ec36600461234e565b610548565b005b3480156101ff57600080fd5b506101f1610556565b34801561021457600080fd5b506101f16102233660046123da565b61058d565b34801561023457600080fd5b50610257610243366004612495565b600090815260016020526040902054151590565b60405190151581526020016101d5565b34801561027357600080fd5b5061027c6105a0565b6040519081526020016101d5565b34801561029657600080fd5b5061027c6102a53660046124e6565b6105b3565b3480156102b657600080fd5b506101f16105c9565b3480156102cb57600080fd5b506102df6102da3660046123a6565b610608565b604080519687526001600160a01b0390951660208701526001600160801b039093169385019390935267ffffffffffffffff1660608401529015156080830152151560a082015260c0016101d5565b34801561033a57600080fd5b5061034e6103493660046124e6565b6106bb565b6040516101d5919061258b565b34801561036757600080fd5b506102df61037636600461234e565b6001600160a01b03918216600081815260036020908152604080832085845282528083205484845260048352818420868552835281842081855283528184205494845260058352818420958452948252808320858452825280832095841683529490529290922054909260a083901c9060ff60e085901c169060e885901c90565b34801561040357600080fd5b5061034e610412366004612495565b6106f1565b34801561042357600080fd5b5061027c610734565b34801561043857600080fd5b506104607f000000000000000000000000000000000000000000000000000000000000000081565b6040516001600160a01b0390911681526020016101d5565b34801561048457600080fd5b5061027c6107d6565b34801561049957600080fd5b506104ad6104a83660046124e6565b6107ea565b6040516101d59190612522565b3480156104c657600080fd5b5061027c6104d5366004612495565b6107fb565b3480156104e657600080fd5b5061027c6104f53660046124c5565b610890565b34801561050657600080fd5b5061050f6108a6565b60405167ffffffffffffffff90911681526020016101d5565b34801561053457600080fd5b506101f161054336600461234e565b6108b6565b61055282826108c7565b5050565b60005460ff16801561057857506000546001600160a01b036101009091041633145b61058157600080fd5b61058b3347610d12565b565b61059a8484338585610d25565b50505050565b60006105ae60025460801c90565b905090565b6002546000906105c39083610e53565b92915050565b60005460ff166105d857600080fd5b600080547fffffffffffffffffffffff0000000000000000000000000000000000000000ff163361010002179055565b6001600160a01b03831660009081526003602090815260408083208584529091528120548190819081908190819087111561064257600080fd5b505050506001600160a01b039485166000818152600460209081526040808320888452825280832087845282528083205493835260058252808320978352968152868220868352815286822097831682529690965293909420549194929350909160a084901c915060e084901c60ff169060e885901c90565b6106e36040805160808101825260008082526020820181905291810182905290606082015290565b6002546105c3908343610e86565b6107196040805160808101825260008082526020820181905291810182905290606082015290565b6002546105c39061072a9084610f1b565b6002549043610e86565b60008060016107446102a56108a6565b61074e91906126e4565b804092509050816107a65760405162461bcd60e51b815260206004820152600760248201527f4550433a53424c0000000000000000000000000000000000000000000000000060448201526064015b60405180910390fd5b60408051602081018490529081018290526060016040516020818303038152906040528051906020012091505090565b60006105ae6002546001600160801b031690565b6002546000906105c3908343610f45565b60008181526001602052604081205415610822575060009081526001602052604090205490565b8161082b6108a6565b67ffffffffffffffff161415610843576105c3610734565b60405162461bcd60e51b815260206004820152600a60248201527f534545443a4745543a3000000000000000000000000000000000000000000000604482015260640161079d565b919050565b600061089f6104d583856125f9565b9392505050565b6002546000906105ae9043610f1b565b6105528282610f97565b60801b1790565b6000806108d5848433611023565b915091508161012001516108ec576108ec826112ac565b6108f7828234611572565b61090182826116bb565b60008260800151826040015161091791906126bc565b6001600160801b0316905060008084600001516001600160a01b0316632a55205a8660200151856040518363ffffffff1660e01b8152600401610964929190918252602082015260400190565b604080518083038186803b15801561097b57600080fd5b505afa15801561098f573d6000803e3d6000fd5b505050506040513d601f19601f820116820180604052508101906109b39190612379565b915091507f00000000000000000000000000000000000000000000000000000000000000006001600160a01b0316826001600160a01b03161415610acf5760208401518551604051632a7c771b60e11b81523060048201526001600160a01b03928316602482015290821660448201526064810188905260006084820181905260a4820181905260e060c483015260e48201527f0000000000000000000000000000000000000000000000000000000000000000909116906354f8ee36908590610104016020604051808303818588803b158015610a9057600080fd5b505af1158015610aa4573d6000803e3d6000fd5b50505050506040513d601f19601f82011682018060405250810190610ac99190612455565b50610c93565b602084810151865191870151604051632a7c771b60e11b81523060048201526001600160a01b0392831660248201529282166044840152606483015260006084830181905260a4830181905260e060c484015260e48301528316906354f8ee36908390610104016020604051808303818588803b158015610b4f57600080fd5b505af1158015610b63573d6000803e3d6000fd5b50505050506040513d601f19601f82011682018060405250810190610b889190612455565b506001600160a01b037f0000000000000000000000000000000000000000000000000000000000000000166354f8ee36610bc283866126e4565b6020870151885160405160e085811b7fffffffff000000000000000000000000000000000000000000000000000000001682523060048301526001600160a01b039384166024830152929091166044820152606481018b905260006084820181905260a4820181905260c482019290925260e4810191909152610104016020604051808303818588803b158015610c5857600080fd5b505af1158015610c6c573d6000803e3d6000fd5b50505050506040513d601f19601f82011682018060405250810190610c919190612455565b505b8451602080870151604080890151888401518983015183516001600160a01b03978816815295860194909452918401529290921660608201526001600160801b0390911660808201527f69352d1019b9f56e2f2735ceb0af7b1ce2bb2f7857851e9a4f8a7349c3f5e0c29060a00160405180910390a150505050505050565b6105526001600160a01b03831682611770565b610d30858585611889565b6001600160a01b03858116600090815260036020908152604080832088845282528220805460018101825581845291832090910180547fffffffffffffffffffffffff0000000000000000000000000000000000000000169387169390931790925580610d9e888888611023565b9092509050610daf82828787611b2e565b610db982826116bb565b8151602080840151604080860151858401518683015160a0808a015185516001600160a01b03998a16815297880196909652938601929092529490941660608401526001600160801b03909316608083015267ffffffffffffffff16918101919091527fc059d0ade625ed31c9d546bf8a2f27fdd6e3e0e5a27508c603997c662896ffd59060c00160405180910390a15050505050505050565b6000610e5f8360801c90565b610e7c6001600160801b03851667ffffffffffffffff851661269d565b61089f91906125f9565b610eae6040805160808101825260008082526020820181905291810182905290606082015290565b60405180608001604052808467ffffffffffffffff168152602001610ed38686610e53565b8152602001610ee28686611c19565b8152602001610ef2868686610f45565b6002811115610f1157634e487b7160e01b600052602160045260246000fd5b9052949350505050565b60006001600160801b038316610f318460801c90565b610f3b90846126e4565b61089f919061265a565b60008267ffffffffffffffff16610f5c8584610f1b565b67ffffffffffffffff161415610f745750600161089f565b81610f7f8585611c19565b1015610f8d5750600061089f565b5060029392505050565b600080610fa5848433611023565b9092509050610fb48282611c3a565b610fbe82826116bb565b81516020808401516040808601518584015182516001600160a01b03968716815294850193909352838201529216606082015290517f403e13c443125d36d2d3281ace4d6ae7b575d038f46f9de5b7f535c4aa39faf39181900360800190a150505050565b60408051610140810182526000808252602080830182905282840182905260608084018390526080840183905260a080850184905260c0850184905260e080860185905261010086018590526101208601859052865192830187528483528284018590528287018590526001600160a01b038a8116808752600386528887208b8852865288872054818852600487528988208c89528752898820818952875289882054918852600587528988208c895287528988208189528752898820928216885291865295889020548851808a01909952600689527f79656c6c6f770000000000000000000000000000000000000000000000000000958901959095529596929594939184901c929084901c60ff169160e885901c916111449087611e49565b6040518061014001604052808c6001600160a01b031681526020018b8152602001878152602001866001600160a01b03168152602001826001600160801b031681526020018567ffffffffffffffff16815260200187600014611207576001600160a01b038d1660009081526003602090815260408083208f845290915290206111cf60018a6126e4565b815481106111ed57634e487b7160e01b600052603260045260246000fd5b6000918252602090912001546001600160a01b031661120a565b60005b6001600160a01b0316815260200184151581526020016112286108a6565b67ffffffffffffffff1681529215156020938401526001600160a01b039b8c1660009081526005845260408082209c82529b84528b81209781529683528a872099909b168087529882525093889020548851606081018a52608082901c15158152948501979097525050506001600160801b03909316938301939093525091929050565b80516040516301ffc9a760e01b815263aa5644f160e01b60048201526001600160a01b038216906301ffc9a79060240160206040518083038186803b1580156112f457600080fd5b505afa158015611308573d6000803e3d6000fd5b505050506040513d601f19601f8201168201806040525081019061132c9190612435565b6113785760405162461bcd60e51b815260206004820152600860248201527f4155433a4d543a30000000000000000000000000000000000000000000000000604482015260640161079d565b815161010083015160405163aa5644f160e01b815267ffffffffffffffff90911660048201526000916001600160a01b03169063aa5644f190602401602060405180830381600087803b1580156113ce57600080fd5b505af11580156113e2573d6000803e3d6000fd5b505050506040513d601f19601f8201168201806040525081019061140691906124ad565b9050611410611ebc565b826020015181146114635760405162461bcd60e51b815260206004820152600860248201527f4155433a4d543a32000000000000000000000000000000000000000000000000604482015260640161079d565b60208301516040516331a9108f60e11b815230916001600160a01b03851691636352211e916114989160040190815260200190565b60206040518083038186803b1580156114b057600080fd5b505afa1580156114c4573d6000803e3d6000fd5b505050506040513d601f19601f820116820180604052508101906114e89190612259565b6001600160a01b03161461153e5760405162461bcd60e51b815260206004820152600860248201527f4155433a4d543a33000000000000000000000000000000000000000000000000604482015260640161079d565b6040805160608101825260008082526020820181905291810182905261010085015161156d9286929190611b2e565b505050565b81602001516001600160a01b03168360c001516001600160a01b031614156115dc5760405162461bcd60e51b815260206004820152600860248201527f534c3a48534f3a30000000000000000000000000000000000000000000000000604482015260640161079d565b80826040018181516115ee91906125ce565b6001600160801b031690525061160383611f1a565b61164f5760405162461bcd60e51b815260206004820152600860248201527f534c3a4f42503a30000000000000000000000000000000000000000000000000604482015260640161079d565b6116598383611f5e565b6116a55760405162461bcd60e51b815260206004820152600860248201527f534c3a4f42503a31000000000000000000000000000000000000000000000000604482015260640161079d565b50602001516001600160a01b0316606090910152565b6116e882606001518360a001518460e0015185610120015160e81b60e09190911b1760a09190911b171790565b82516001600160a01b0316600090815260046020908152604080832082870151845282528083208187015184529091529081902091909155810151815160801b1782516001600160a01b039081166000908152600560209081526040808320828801518452825280832096810151835295815285822094810151909216815292905291902055565b804710156117c05760405162461bcd60e51b815260206004820152601d60248201527f416464726573733a20696e73756666696369656e742062616c616e6365000000604482015260640161079d565b6000826001600160a01b03168260405160006040518083038185875af1925050503d806000811461180d576040519150601f19603f3d011682016040523d82523d6000602084013e611812565b606091505b505090508061156d5760405162461bcd60e51b815260206004820152603a60248201527f416464726573733a20756e61626c6520746f2073656e642076616c75652c207260448201527f6563697069656e74206d61792068617665207265766572746564000000000000606482015260840161079d565b6040516301ffc9a760e01b8152600060048201526001600160a01b038416906301ffc9a79060240160206040518083038186803b1580156118c957600080fd5b505afa1580156118dd573d6000803e3d6000fd5b505050506040513d601f19601f820116820180604052508101906119019190612435565b61194d5760405162461bcd60e51b815260206004820152600860248201527f4155433a54543a30000000000000000000000000000000000000000000000000604482015260640161079d565b6040516331a9108f60e11b8152600481018390526001600160a01b038083169190851690636352211e9060240160206040518083038186803b15801561199257600080fd5b505afa1580156119a6573d6000803e3d6000fd5b505050506040513d601f19601f820116820180604052508101906119ca9190612259565b6001600160a01b031614611a0b5760405162461bcd60e51b81526020600482015260086024820152674155433a54543a3160c01b604482015260640161079d565b604051632142170760e11b81526001600160a01b038281166004830152306024830152604482018490528416906342842e0e90606401600060405180830381600087803b158015611a5b57600080fd5b505af1158015611a6f573d6000803e3d6000fd5b50506040516331a9108f60e11b8152600481018590523092506001600160a01b0386169150636352211e9060240160206040518083038186803b158015611ab557600080fd5b505afa158015611ac9573d6000803e3d6000fd5b505050506040513d601f19601f82011682018060405250810190611aed9190612259565b6001600160a01b03161461156d5760405162461bcd60e51b81526020600482015260086024820152674155433a54543a3360c01b604482015260640161079d565b83610120015115611b815760405162461bcd60e51b815260206004820152600860248201527f4155433a49413a30000000000000000000000000000000000000000000000000604482015260640161079d565b67ffffffffffffffff821660a0850152611b9a84611fad565b611be65760405162461bcd60e51b815260206004820152600860248201527f4155433a49413a31000000000000000000000000000000000000000000000000604482015260640161079d565b60208301516001600160a01b03166060850152600161012090940193909352506001600160801b03909116604090910152565b60006001611c3084611c2b8584612611565b610e53565b61089f91906126e4565b816101200151611c8c5760405162461bcd60e51b815260206004820152600860248201527f534c3a4842433a30000000000000000000000000000000000000000000000000604482015260640161079d565b805115611cdb5760405162461bcd60e51b815260206004820152600960248201527f4155433a434c4d3a300000000000000000000000000000000000000000000000604482015260640161079d565b600081604001516001600160801b031611611d385760405162461bcd60e51b815260206004820152600960248201527f4155433a434c4d3a310000000000000000000000000000000000000000000000604482015260640161079d565b60018152611d4582612001565b15611db05781606001516001600160a01b031681602001516001600160a01b03161415611d835761055282600001518360200151836020015161203e565b61055281604001516001600160801b031682602001516001600160a01b031661177090919063ffffffff16565b81606001516001600160a01b031681602001516001600160a01b0316148015611df257508160c001516001600160a01b031681602001516001600160a01b0316145b611e3e5760405162461bcd60e51b815260206004820152600960248201527f4155433a434c4d3a320000000000000000000000000000000000000000000000604482015260640161079d565b600160e08301525050565b6105528282604051602401611e5f929190612530565b60408051601f198184030181529190526020810180517bffffffffffffffffffffffffffffffffffffffffffffffffffffffff167f9710a9d000000000000000000000000000000000000000000000000000000000179052612220565b611ee5611ec76108a6565b67ffffffffffffffff16600090815260016020526040902054151590565b61058b57611ef1610734565b60016000611efd6108a6565b67ffffffffffffffff168152602081019190915260400160002055565b60008161012001518015611f3057508160e00151155b80156105c357508160a0015167ffffffffffffffff1682610100015167ffffffffffffffff16111592915050565b600061271083608001516064611f74919061266e565b611f7e9190612634565b8360800151611f8d91906125ce565b6001600160801b031682604001516001600160801b031611905092915050565b600081610100015167ffffffffffffffff168260a0015167ffffffffffffffff16101580156105c357506103e88261010001518360a00151611fef91906126fb565b67ffffffffffffffff16111592915050565b600081610120015180156105c357508160a0015167ffffffffffffffff1682610100015167ffffffffffffffff1611806105c357505060e0015190565b6040516331a9108f60e11b815260048101839052839030906001600160a01b03831690636352211e9060240160206040518083038186803b15801561208257600080fd5b505afa158015612096573d6000803e3d6000fd5b505050506040513d601f19601f820116820180604052508101906120ba9190612259565b6001600160a01b0316146120fb5760405162461bcd60e51b81526020600482015260086024820152674155433a54543a3160c01b604482015260640161079d565b604051632142170760e11b81523060048201526001600160a01b038381166024830152604482018590528216906342842e0e90606401600060405180830381600087803b15801561214b57600080fd5b505af115801561215f573d6000803e3d6000fd5b50506040516331a9108f60e11b8152600481018690526001600160a01b03858116935084169150636352211e9060240160206040518083038186803b1580156121a757600080fd5b505afa1580156121bb573d6000803e3d6000fd5b505050506040513d601f19601f820116820180604052508101906121df9190612259565b6001600160a01b03161461059a5760405162461bcd60e51b81526020600482015260086024820152674155433a54543a3360c01b604482015260640161079d565b80516a636f6e736f6c652e6c6f67602083016000808483855afa5050505050565b803567ffffffffffffffff8116811461088b57600080fd5b60006020828403121561226a578081fd5b815161089f8161275a565b6000806000806080858703121561228a578283fd5b84356122958161275a565b935060208501356122a58161275a565b925060408501359150606085013567ffffffffffffffff808211156122c8578283fd5b818701915087601f8301126122db578283fd5b8135818111156122ed576122ed612744565b604051601f8201601f19908116603f0116810190838211818310171561231557612315612744565b816040528281528a602084870101111561232d578586fd5b82602086016020830137918201602001949094529598949750929550505050565b60008060408385031215612360578182fd5b823561236b8161275a565b946020939093013593505050565b6000806040838503121561238b578182fd5b82516123968161275a565b6020939093015192949293505050565b6000806000606084860312156123ba578283fd5b83356123c58161275a565b95602085013595506040909401359392505050565b600080600080608085870312156123ef578384fd5b84356123fa8161275a565b93506020850135925061240f60408601612241565b915060608501356001600160801b038116811461242a578182fd5b939692955090935050565b600060208284031215612446578081fd5b8151801515811461089f578182fd5b600060208284031215612466578081fd5b81517fffffffff000000000000000000000000000000000000000000000000000000008116811461089f578182fd5b6000602082840312156124a6578081fd5b5035919050565b6000602082840312156124be578081fd5b5051919050565b600080604083850312156124d7578182fd5b50508035926020909101359150565b6000602082840312156124f7578081fd5b61089f82612241565b6003811061251e57634e487b7160e01b600052602160045260246000fd5b9052565b602081016105c38284612500565b6040815260008351806040840152815b8181101561255d5760208187018101516060868401015201612540565b8181111561256e5782606083860101525b50602083019390935250601f91909101601f191601606001919050565b600060808201905067ffffffffffffffff8351168252602083015160208301526040830151604083015260608301516125c76060840182612500565b5092915050565b60006001600160801b038083168185168083038211156125f0576125f0612718565b01949350505050565b6000821982111561260c5761260c612718565b500190565b600067ffffffffffffffff8083168185168083038211156125f0576125f0612718565b60006001600160801b038084168061264e5761264e61272e565b92169190910492915050565b6000826126695761266961272e565b500490565b60006001600160801b038083168185168183048111821515161561269457612694612718565b02949350505050565b60008160001904831182151516156126b7576126b7612718565b500290565b60006001600160801b03838116908316818110156126dc576126dc612718565b039392505050565b6000828210156126f6576126f6612718565b500390565b600067ffffffffffffffff838116908316818110156126dc576126dc5b634e487b7160e01b600052601160045260246000fd5b634e487b7160e01b600052601260045260246000fd5b634e487b7160e01b600052604160045260246000fd5b6001600160a01b038116811461276f57600080fd5b5056fea26469706673582212206846dc6602e0797c8a38d1d9a0abba1774fd1ffff88706ef8a932295b528839b64736f6c63430008040033",
  "devdoc": {
    "kind": "dev",
    "methods": {
      "blocknumFromId(uint64)": {
        "details": "public wrapper for internal blocknumFirstFromEpoch() - to save on gas"
      },
      "currentEpochId()": {
        "details": "public wrapper for internal _currentEpoch() - to save on gas"
      },
      "epochFromBlocknum(uint256)": {
        "details": "public wrapper for internal blocknumFirstFromEpoch() - to save on gas"
      },
      "epochStatus(uint64)": {
        "details": "public wrapper for internal blocknumFirstFromEpoch() - to save on gas"
      },
      "genesisBlock()": {
        "details": "public wrapper for internal _genesisBlock - to save on gas"
      },
      "getSeed(uint256)": {
        "details": "@return"
      },
      "getSeedWithOffset(uint256,uint256)": {
        "details": "@return"
      },
      "interval()": {
        "details": "public wrapper for internal _interval - to save on gas"
      },
      "onERC721Received(address,address,uint256,bytes)": {
        "details": "See {IERC721Receiver-onERC721Received}. Always returns `IERC721Receiver.onERC721Received.selector`."
      }
    },
    "version": 1
  },
  "userdoc": {
    "kind": "user",
    "methods": {
      "currentSeed()": {
        "notice": "gets unique base based on given epoch and converts encoded bytes to object that can be merged Note: by using the block hash no one knows what a nugg will look like before it's epoch. We considered making this harder to manipulate, but we decided that if someone were able to pull it off and make their own custom nugg, that would be really fucking cool."
      }
    },
    "version": 1
  },
  "storageLayout": {
    "storage": [
      {
        "astId": 1479,
        "contract": "contracts/NuggSwap.sol:NuggSwap",
        "label": "inTesting",
        "offset": 0,
        "slot": "0",
        "type": "t_bool"
      },
      {
        "astId": 1494,
        "contract": "contracts/NuggSwap.sol:NuggSwap",
        "label": "pw",
        "offset": 1,
        "slot": "0",
        "type": "t_address"
      },
      {
        "astId": 1633,
        "contract": "contracts/NuggSwap.sol:NuggSwap",
        "label": "_seeds",
        "offset": 0,
        "slot": "1",
        "type": "t_mapping(t_uint256,t_bytes32)"
      },
      {
        "astId": 1635,
        "contract": "contracts/NuggSwap.sol:NuggSwap",
        "label": "_state",
        "offset": 0,
        "slot": "2",
        "type": "t_uint256"
      },
      {
        "astId": 411,
        "contract": "contracts/NuggSwap.sol:NuggSwap",
        "label": "_swapOwners",
        "offset": 0,
        "slot": "3",
        "type": "t_mapping(t_address,t_mapping(t_uint256,t_array(t_address)dyn_storage))"
      },
      {
        "astId": 419,
        "contract": "contracts/NuggSwap.sol:NuggSwap",
        "label": "_encodedSwapData",
        "offset": 0,
        "slot": "4",
        "type": "t_mapping(t_address,t_mapping(t_uint256,t_mapping(t_uint256,t_uint256)))"
      },
      {
        "astId": 429,
        "contract": "contracts/NuggSwap.sol:NuggSwap",
        "label": "_encodedOfferData",
        "offset": 0,
        "slot": "5",
        "type": "t_mapping(t_address,t_mapping(t_uint256,t_mapping(t_uint256,t_mapping(t_address,t_uint256))))"
      }
    ],
    "types": {
      "t_address": {
        "encoding": "inplace",
        "label": "address",
        "numberOfBytes": "20"
      },
      "t_array(t_address)dyn_storage": {
        "base": "t_address",
        "encoding": "dynamic_array",
        "label": "address[]",
        "numberOfBytes": "32"
      },
      "t_bool": {
        "encoding": "inplace",
        "label": "bool",
        "numberOfBytes": "1"
      },
      "t_bytes32": {
        "encoding": "inplace",
        "label": "bytes32",
        "numberOfBytes": "32"
      },
      "t_mapping(t_address,t_mapping(t_uint256,t_array(t_address)dyn_storage))": {
        "encoding": "mapping",
        "key": "t_address",
        "label": "mapping(address => mapping(uint256 => address[]))",
        "numberOfBytes": "32",
        "value": "t_mapping(t_uint256,t_array(t_address)dyn_storage)"
      },
      "t_mapping(t_address,t_mapping(t_uint256,t_mapping(t_uint256,t_mapping(t_address,t_uint256))))": {
        "encoding": "mapping",
        "key": "t_address",
        "label": "mapping(address => mapping(uint256 => mapping(uint256 => mapping(address => uint256))))",
        "numberOfBytes": "32",
        "value": "t_mapping(t_uint256,t_mapping(t_uint256,t_mapping(t_address,t_uint256)))"
      },
      "t_mapping(t_address,t_mapping(t_uint256,t_mapping(t_uint256,t_uint256)))": {
        "encoding": "mapping",
        "key": "t_address",
        "label": "mapping(address => mapping(uint256 => mapping(uint256 => uint256)))",
        "numberOfBytes": "32",
        "value": "t_mapping(t_uint256,t_mapping(t_uint256,t_uint256))"
      },
      "t_mapping(t_address,t_uint256)": {
        "encoding": "mapping",
        "key": "t_address",
        "label": "mapping(address => uint256)",
        "numberOfBytes": "32",
        "value": "t_uint256"
      },
      "t_mapping(t_uint256,t_array(t_address)dyn_storage)": {
        "encoding": "mapping",
        "key": "t_uint256",
        "label": "mapping(uint256 => address[])",
        "numberOfBytes": "32",
        "value": "t_array(t_address)dyn_storage"
      },
      "t_mapping(t_uint256,t_bytes32)": {
        "encoding": "mapping",
        "key": "t_uint256",
        "label": "mapping(uint256 => bytes32)",
        "numberOfBytes": "32",
        "value": "t_bytes32"
      },
      "t_mapping(t_uint256,t_mapping(t_address,t_uint256))": {
        "encoding": "mapping",
        "key": "t_uint256",
        "label": "mapping(uint256 => mapping(address => uint256))",
        "numberOfBytes": "32",
        "value": "t_mapping(t_address,t_uint256)"
      },
      "t_mapping(t_uint256,t_mapping(t_uint256,t_mapping(t_address,t_uint256)))": {
        "encoding": "mapping",
        "key": "t_uint256",
        "label": "mapping(uint256 => mapping(uint256 => mapping(address => uint256)))",
        "numberOfBytes": "32",
        "value": "t_mapping(t_uint256,t_mapping(t_address,t_uint256))"
      },
      "t_mapping(t_uint256,t_mapping(t_uint256,t_uint256))": {
        "encoding": "mapping",
        "key": "t_uint256",
        "label": "mapping(uint256 => mapping(uint256 => uint256))",
        "numberOfBytes": "32",
        "value": "t_mapping(t_uint256,t_uint256)"
      },
      "t_mapping(t_uint256,t_uint256)": {
        "encoding": "mapping",
        "key": "t_uint256",
        "label": "mapping(uint256 => uint256)",
        "numberOfBytes": "32",
        "value": "t_uint256"
      },
      "t_uint256": {
        "encoding": "inplace",
        "label": "uint256",
        "numberOfBytes": "32"
      }
    }
  }
}