{
  "address": "0x13647CAeA4243442f57D4B0f57694f554cc74987",
  "abi": [
    {
      "inputs": [
        {
          "internalType": "address",
          "name": "_defaultResolver",
          "type": "address"
        }
      ],
      "stateMutability": "nonpayable",
      "type": "constructor"
    },
    {
      "anonymous": false,
      "inputs": [
        {
          "indexed": true,
          "internalType": "address",
          "name": "_owner",
          "type": "address"
        },
        {
          "indexed": true,
          "internalType": "address",
          "name": "_approved",
          "type": "address"
        },
        {
          "indexed": true,
          "internalType": "uint256",
          "name": "_tokenId",
          "type": "uint256"
        }
      ],
      "name": "Approval",
      "type": "event"
    },
    {
      "anonymous": false,
      "inputs": [
        {
          "indexed": true,
          "internalType": "address",
          "name": "_owner",
          "type": "address"
        },
        {
          "indexed": true,
          "internalType": "address",
          "name": "_operator",
          "type": "address"
        },
        {
          "indexed": false,
          "internalType": "bool",
          "name": "_approved",
          "type": "bool"
        }
      ],
      "name": "ApprovalForAll",
      "type": "event"
    },
    {
      "anonymous": false,
      "inputs": [
        {
          "indexed": false,
          "internalType": "uint160",
          "name": "tokenId",
          "type": "uint160"
        },
        {
          "indexed": false,
          "internalType": "address",
          "name": "owner",
          "type": "address"
        },
        {
          "indexed": false,
          "internalType": "uint96",
          "name": "ethOwed",
          "type": "uint96"
        }
      ],
      "name": "Burn",
      "type": "event"
    },
    {
      "anonymous": false,
      "inputs": [
        {
          "indexed": false,
          "internalType": "uint160",
          "name": "tokenId",
          "type": "uint160"
        },
        {
          "indexed": false,
          "internalType": "address",
          "name": "account",
          "type": "address"
        },
        {
          "indexed": false,
          "internalType": "uint96",
          "name": "eth",
          "type": "uint96"
        }
      ],
      "name": "DelegateCommit",
      "type": "event"
    },
    {
      "anonymous": false,
      "inputs": [
        {
          "indexed": false,
          "internalType": "uint160",
          "name": "sellerTokenId",
          "type": "uint160"
        },
        {
          "indexed": false,
          "internalType": "uint16",
          "name": "itemId",
          "type": "uint16"
        },
        {
          "indexed": false,
          "internalType": "uint160",
          "name": "buyerTokenId",
          "type": "uint160"
        },
        {
          "indexed": false,
          "internalType": "uint96",
          "name": "eth",
          "type": "uint96"
        }
      ],
      "name": "DelegateCommitItem",
      "type": "event"
    },
    {
      "anonymous": false,
      "inputs": [
        {
          "indexed": false,
          "internalType": "uint256",
          "name": "epoch",
          "type": "uint256"
        },
        {
          "indexed": false,
          "internalType": "address",
          "name": "account",
          "type": "address"
        },
        {
          "indexed": false,
          "internalType": "uint96",
          "name": "eth",
          "type": "uint96"
        }
      ],
      "name": "DelegateMint",
      "type": "event"
    },
    {
      "anonymous": false,
      "inputs": [
        {
          "indexed": false,
          "internalType": "uint160",
          "name": "tokenId",
          "type": "uint160"
        },
        {
          "indexed": false,
          "internalType": "address",
          "name": "account",
          "type": "address"
        },
        {
          "indexed": false,
          "internalType": "uint96",
          "name": "eth",
          "type": "uint96"
        }
      ],
      "name": "DelegateOffer",
      "type": "event"
    },
    {
      "anonymous": false,
      "inputs": [
        {
          "indexed": false,
          "internalType": "uint160",
          "name": "sellerTokenId",
          "type": "uint160"
        },
        {
          "indexed": false,
          "internalType": "uint16",
          "name": "itemId",
          "type": "uint16"
        },
        {
          "indexed": false,
          "internalType": "uint160",
          "name": "buyerTokenId",
          "type": "uint160"
        },
        {
          "indexed": false,
          "internalType": "uint96",
          "name": "eth",
          "type": "uint96"
        }
      ],
      "name": "DelegateOfferItem",
      "type": "event"
    },
    {
      "anonymous": false,
      "inputs": [
        {
          "indexed": false,
          "internalType": "uint256",
          "name": "tokenId",
          "type": "uint256"
        },
        {
          "indexed": false,
          "internalType": "address",
          "name": "to",
          "type": "address"
        }
      ],
      "name": "DotnuggV1ResolverUpdated",
      "type": "event"
    },
    {
      "anonymous": false,
      "inputs": [
        {
          "indexed": false,
          "internalType": "uint256",
          "name": "blocknum",
          "type": "uint256"
        },
        {
          "indexed": false,
          "internalType": "uint32",
          "name": "interval",
          "type": "uint32"
        },
        {
          "indexed": false,
          "internalType": "uint32",
          "name": "offset",
          "type": "uint32"
        }
      ],
      "name": "Genesis",
      "type": "event"
    },
    {
      "anonymous": false,
      "inputs": [
        {
          "indexed": false,
          "internalType": "address",
          "name": "v2",
          "type": "address"
        },
        {
          "indexed": false,
          "internalType": "uint160",
          "name": "tokenId",
          "type": "uint160"
        },
        {
          "indexed": false,
          "internalType": "uint256",
          "name": "proof",
          "type": "uint256"
        },
        {
          "indexed": false,
          "internalType": "address",
          "name": "owner",
          "type": "address"
        },
        {
          "indexed": false,
          "internalType": "uint96",
          "name": "eth",
          "type": "uint96"
        }
      ],
      "name": "MigrateV1Sent",
      "type": "event"
    },
    {
      "anonymous": false,
      "inputs": [
        {
          "indexed": false,
          "internalType": "address",
          "name": "migrator",
          "type": "address"
        }
      ],
      "name": "MigratorV1Updated",
      "type": "event"
    },
    {
      "anonymous": false,
      "inputs": [
        {
          "indexed": false,
          "internalType": "uint160",
          "name": "tokenId",
          "type": "uint160"
        },
        {
          "indexed": false,
          "internalType": "address",
          "name": "account",
          "type": "address"
        },
        {
          "indexed": false,
          "internalType": "uint96",
          "name": "payoffAmount",
          "type": "uint96"
        }
      ],
      "name": "Payoff",
      "type": "event"
    },
    {
      "anonymous": false,
      "inputs": [
        {
          "indexed": false,
          "internalType": "uint160",
          "name": "tokenId",
          "type": "uint160"
        },
        {
          "indexed": false,
          "internalType": "uint256",
          "name": "proof",
          "type": "uint256"
        },
        {
          "indexed": false,
          "internalType": "uint16",
          "name": "itemId",
          "type": "uint16"
        }
      ],
      "name": "PopItem",
      "type": "event"
    },
    {
      "anonymous": false,
      "inputs": [
        {
          "indexed": false,
          "internalType": "uint96",
          "name": "eth",
          "type": "uint96"
        }
      ],
      "name": "ProtocolEthExtracted",
      "type": "event"
    },
    {
      "anonymous": false,
      "inputs": [
        {
          "indexed": false,
          "internalType": "uint160",
          "name": "tokenId",
          "type": "uint160"
        },
        {
          "indexed": false,
          "internalType": "uint256",
          "name": "proof",
          "type": "uint256"
        },
        {
          "indexed": false,
          "internalType": "uint16",
          "name": "itemId",
          "type": "uint16"
        }
      ],
      "name": "PushItem",
      "type": "event"
    },
    {
      "anonymous": false,
      "inputs": [
        {
          "indexed": false,
          "internalType": "uint160",
          "name": "tokenId",
          "type": "uint160"
        },
        {
          "indexed": false,
          "internalType": "uint96",
          "name": "fee",
          "type": "uint96"
        },
        {
          "indexed": false,
          "internalType": "uint96",
          "name": "earned",
          "type": "uint96"
        }
      ],
      "name": "Rebalance",
      "type": "event"
    },
    {
      "anonymous": false,
      "inputs": [
        {
          "indexed": false,
          "internalType": "uint160",
          "name": "tokenId",
          "type": "uint160"
        },
        {
          "indexed": false,
          "internalType": "uint256",
          "name": "proof",
          "type": "uint256"
        },
        {
          "indexed": false,
          "internalType": "uint8",
          "name": "feature",
          "type": "uint8"
        }
      ],
      "name": "RotateItem",
      "type": "event"
    },
    {
      "anonymous": false,
      "inputs": [
        {
          "indexed": false,
          "internalType": "uint160",
          "name": "tokenId",
          "type": "uint160"
        },
        {
          "indexed": false,
          "internalType": "uint256",
          "name": "proof",
          "type": "uint256"
        },
        {
          "indexed": false,
          "internalType": "uint8[]",
          "name": "xs",
          "type": "uint8[]"
        },
        {
          "indexed": false,
          "internalType": "uint8[]",
          "name": "ys",
          "type": "uint8[]"
        }
      ],
      "name": "SetAnchorOverrides",
      "type": "event"
    },
    {
      "anonymous": false,
      "inputs": [
        {
          "indexed": false,
          "internalType": "uint160",
          "name": "tokenId",
          "type": "uint160"
        },
        {
          "indexed": false,
          "internalType": "uint256",
          "name": "proof",
          "type": "uint256"
        },
        {
          "indexed": false,
          "internalType": "uint8[]",
          "name": "items",
          "type": "uint8[]"
        }
      ],
      "name": "SetProof",
      "type": "event"
    },
    {
      "anonymous": false,
      "inputs": [
        {
          "indexed": false,
          "internalType": "uint96",
          "name": "stake",
          "type": "uint96"
        },
        {
          "indexed": false,
          "internalType": "uint96",
          "name": "protocol",
          "type": "uint96"
        }
      ],
      "name": "StakeEth",
      "type": "event"
    },
    {
      "anonymous": false,
      "inputs": [
        {
          "indexed": false,
          "internalType": "uint160",
          "name": "tokenId",
          "type": "uint160"
        },
        {
          "indexed": false,
          "internalType": "address",
          "name": "account",
          "type": "address"
        },
        {
          "indexed": false,
          "internalType": "uint32",
          "name": "epoch",
          "type": "uint32"
        }
      ],
      "name": "SwapClaim",
      "type": "event"
    },
    {
      "anonymous": false,
      "inputs": [
        {
          "indexed": false,
          "internalType": "uint160",
          "name": "sellerTokenId",
          "type": "uint160"
        },
        {
          "indexed": false,
          "internalType": "uint16",
          "name": "itemId",
          "type": "uint16"
        },
        {
          "indexed": false,
          "internalType": "uint160",
          "name": "buyerTokenId",
          "type": "uint160"
        },
        {
          "indexed": false,
          "internalType": "uint32",
          "name": "epoch",
          "type": "uint32"
        }
      ],
      "name": "SwapClaimItem",
      "type": "event"
    },
    {
      "anonymous": false,
      "inputs": [
        {
          "indexed": false,
          "internalType": "uint160",
          "name": "sellerTokenId",
          "type": "uint160"
        },
        {
          "indexed": false,
          "internalType": "uint16",
          "name": "itemId",
          "type": "uint16"
        },
        {
          "indexed": false,
          "internalType": "uint96",
          "name": "eth",
          "type": "uint96"
        }
      ],
      "name": "SwapItemStart",
      "type": "event"
    },
    {
      "anonymous": false,
      "inputs": [
        {
          "indexed": false,
          "internalType": "uint160",
          "name": "tokenId",
          "type": "uint160"
        },
        {
          "indexed": false,
          "internalType": "address",
          "name": "account",
          "type": "address"
        },
        {
          "indexed": false,
          "internalType": "uint96",
          "name": "eth",
          "type": "uint96"
        }
      ],
      "name": "SwapStart",
      "type": "event"
    },
    {
      "anonymous": false,
      "inputs": [
        {
          "indexed": false,
          "internalType": "uint160",
          "name": "tokenId",
          "type": "uint160"
        },
        {
          "indexed": false,
          "internalType": "uint96",
          "name": "principal",
          "type": "uint96"
        }
      ],
      "name": "TakeLoan",
      "type": "event"
    },
    {
      "anonymous": false,
      "inputs": [
        {
          "indexed": true,
          "internalType": "address",
          "name": "_from",
          "type": "address"
        },
        {
          "indexed": true,
          "internalType": "address",
          "name": "_to",
          "type": "address"
        },
        {
          "indexed": true,
          "internalType": "uint256",
          "name": "_tokenId",
          "type": "uint256"
        }
      ],
      "name": "Transfer",
      "type": "event"
    },
    {
      "anonymous": false,
      "inputs": [
        {
          "indexed": true,
          "internalType": "address",
          "name": "user",
          "type": "address"
        },
        {
          "indexed": false,
          "internalType": "bool",
          "name": "trust",
          "type": "bool"
        }
      ],
      "name": "TrustUpdated",
      "type": "event"
    },
    {
      "anonymous": false,
      "inputs": [
        {
          "indexed": false,
          "internalType": "uint96",
          "name": "stake",
          "type": "uint96"
        },
        {
          "indexed": false,
          "internalType": "address",
          "name": "to",
          "type": "address"
        }
      ],
      "name": "UnstakeEth",
      "type": "event"
    },
    {
      "anonymous": false,
      "inputs": [
        {
          "indexed": true,
          "internalType": "address",
          "name": "user",
          "type": "address"
        },
        {
          "indexed": false,
          "internalType": "bool",
          "name": "trusted",
          "type": "bool"
        }
      ],
      "name": "UserTrustUpdated",
      "type": "event"
    },
    {
      "inputs": [],
      "name": "MIN_OFFER",
      "outputs": [
        {
          "internalType": "uint96",
          "name": "",
          "type": "uint96"
        }
      ],
      "stateMutability": "view",
      "type": "function"
    },
    {
      "inputs": [
        {
          "internalType": "address",
          "name": "to",
          "type": "address"
        },
        {
          "internalType": "uint256",
          "name": "tokenId",
          "type": "uint256"
        }
      ],
      "name": "approve",
      "outputs": [],
      "stateMutability": "payable",
      "type": "function"
    },
    {
      "inputs": [
        {
          "internalType": "address",
          "name": "",
          "type": "address"
        }
      ],
      "name": "balanceOf",
      "outputs": [
        {
          "internalType": "uint256",
          "name": "",
          "type": "uint256"
        }
      ],
      "stateMutability": "pure",
      "type": "function"
    },
    {
      "inputs": [
        {
          "internalType": "uint160",
          "name": "tokenId",
          "type": "uint160"
        }
      ],
      "name": "burn",
      "outputs": [],
      "stateMutability": "nonpayable",
      "type": "function"
    },
    {
      "inputs": [
        {
          "internalType": "address",
          "name": "sender",
          "type": "address"
        },
        {
          "internalType": "uint160",
          "name": "tokenId",
          "type": "uint160"
        }
      ],
      "name": "claim",
      "outputs": [],
      "stateMutability": "nonpayable",
      "type": "function"
    },
    {
      "inputs": [
        {
          "internalType": "uint160",
          "name": "buyerTokenId",
          "type": "uint160"
        },
        {
          "internalType": "uint160",
          "name": "sellerTokenId",
          "type": "uint160"
        },
        {
          "internalType": "uint16",
          "name": "itemId",
          "type": "uint16"
        }
      ],
      "name": "claimItem",
      "outputs": [],
      "stateMutability": "nonpayable",
      "type": "function"
    },
    {
      "inputs": [
        {
          "internalType": "address",
          "name": "sender",
          "type": "address"
        },
        {
          "internalType": "uint160",
          "name": "tokenId",
          "type": "uint160"
        }
      ],
      "name": "delegate",
      "outputs": [],
      "stateMutability": "payable",
      "type": "function"
    },
    {
      "inputs": [
        {
          "internalType": "uint160",
          "name": "buyerTokenId",
          "type": "uint160"
        },
        {
          "internalType": "uint160",
          "name": "sellerTokenId",
          "type": "uint160"
        },
        {
          "internalType": "uint16",
          "name": "itemId",
          "type": "uint16"
        }
      ],
      "name": "delegateItem",
      "outputs": [],
      "stateMutability": "payable",
      "type": "function"
    },
    {
      "inputs": [
        {
          "internalType": "uint256",
          "name": "tokenId",
          "type": "uint256"
        }
      ],
      "name": "dotnuggV1Callback",
      "outputs": [
        {
          "components": [
            {
              "internalType": "uint256",
              "name": "version",
              "type": "uint256"
            },
            {
              "internalType": "uint256",
              "name": "renderedAt",
              "type": "uint256"
            },
            {
              "internalType": "string",
              "name": "name",
              "type": "string"
            },
            {
              "internalType": "string",
              "name": "desc",
              "type": "string"
            },
            {
              "internalType": "address",
              "name": "owner",
              "type": "address"
            },
            {
              "internalType": "uint256",
              "name": "tokenId",
              "type": "uint256"
            },
            {
              "internalType": "uint256",
              "name": "proof",
              "type": "uint256"
            },
            {
              "internalType": "uint8[]",
              "name": "ids",
              "type": "uint8[]"
            },
            {
              "internalType": "uint8[]",
              "name": "extras",
              "type": "uint8[]"
            },
            {
              "internalType": "uint8[]",
              "name": "xovers",
              "type": "uint8[]"
            },
            {
              "internalType": "uint8[]",
              "name": "yovers",
              "type": "uint8[]"
            }
          ],
          "internalType": "struct IDotnuggV1Data.Data",
          "name": "data",
          "type": "tuple"
        }
      ],
      "stateMutability": "view",
      "type": "function"
    },
    {
      "inputs": [],
      "name": "dotnuggV1DefaultWidth",
      "outputs": [
        {
          "internalType": "uint8",
          "name": "",
          "type": "uint8"
        }
      ],
      "stateMutability": "view",
      "type": "function"
    },
    {
      "inputs": [],
      "name": "dotnuggV1DefaultZoom",
      "outputs": [
        {
          "internalType": "uint8",
          "name": "",
          "type": "uint8"
        }
      ],
      "stateMutability": "view",
      "type": "function"
    },
    {
      "inputs": [],
      "name": "dotnuggV1Processor",
      "outputs": [
        {
          "internalType": "address",
          "name": "",
          "type": "address"
        }
      ],
      "stateMutability": "view",
      "type": "function"
    },
    {
      "inputs": [
        {
          "internalType": "uint256",
          "name": "tokenId",
          "type": "uint256"
        }
      ],
      "name": "dotnuggV1ResolverOf",
      "outputs": [
        {
          "internalType": "address",
          "name": "",
          "type": "address"
        }
      ],
      "stateMutability": "view",
      "type": "function"
    },
    {
      "inputs": [
        {
          "internalType": "uint256[][]",
          "name": "data",
          "type": "uint256[][]"
        },
        {
          "internalType": "uint8",
          "name": "feature",
          "type": "uint8"
        }
      ],
      "name": "dotnuggV1StoreFiles",
      "outputs": [],
      "stateMutability": "nonpayable",
      "type": "function"
    },
    {
      "inputs": [],
      "name": "epoch",
      "outputs": [
        {
          "internalType": "uint32",
          "name": "res",
          "type": "uint32"
        }
      ],
      "stateMutability": "view",
      "type": "function"
    },
    {
      "inputs": [],
      "name": "ethPerShare",
      "outputs": [
        {
          "internalType": "uint96",
          "name": "res",
          "type": "uint96"
        }
      ],
      "stateMutability": "view",
      "type": "function"
    },
    {
      "inputs": [],
      "name": "extractProtocolEth",
      "outputs": [],
      "stateMutability": "nonpayable",
      "type": "function"
    },
    {
      "inputs": [],
      "name": "genesis",
      "outputs": [
        {
          "internalType": "uint256",
          "name": "",
          "type": "uint256"
        }
      ],
      "stateMutability": "view",
      "type": "function"
    },
    {
      "inputs": [
        {
          "internalType": "uint256",
          "name": "tokenId",
          "type": "uint256"
        }
      ],
      "name": "getApproved",
      "outputs": [
        {
          "internalType": "address",
          "name": "",
          "type": "address"
        }
      ],
      "stateMutability": "view",
      "type": "function"
    },
    {
      "inputs": [
        {
          "internalType": "address",
          "name": "owner",
          "type": "address"
        },
        {
          "internalType": "address",
          "name": "operator",
          "type": "address"
        }
      ],
      "name": "isApprovedForAll",
      "outputs": [
        {
          "internalType": "bool",
          "name": "",
          "type": "bool"
        }
      ],
      "stateMutability": "view",
      "type": "function"
    },
    {
      "inputs": [
        {
          "internalType": "address",
          "name": "",
          "type": "address"
        }
      ],
      "name": "isTrusted",
      "outputs": [
        {
          "internalType": "bool",
          "name": "",
          "type": "bool"
        }
      ],
      "stateMutability": "view",
      "type": "function"
    },
    {
      "inputs": [
        {
          "internalType": "uint160",
          "name": "tokenId",
          "type": "uint160"
        }
      ],
      "name": "loan",
      "outputs": [],
      "stateMutability": "nonpayable",
      "type": "function"
    },
    {
      "inputs": [
        {
          "internalType": "uint160",
          "name": "tokenId",
          "type": "uint160"
        }
      ],
      "name": "loanInfo",
      "outputs": [
        {
          "internalType": "uint96",
          "name": "toPayoff",
          "type": "uint96"
        },
        {
          "internalType": "uint96",
          "name": "toRebalance",
          "type": "uint96"
        },
        {
          "internalType": "uint96",
          "name": "earned",
          "type": "uint96"
        },
        {
          "internalType": "uint32",
          "name": "epochDue",
          "type": "uint32"
        },
        {
          "internalType": "address",
          "name": "loaner",
          "type": "address"
        }
      ],
      "stateMutability": "view",
      "type": "function"
    },
    {
      "inputs": [
        {
          "internalType": "uint160",
          "name": "tokenId",
          "type": "uint160"
        }
      ],
      "name": "migrate",
      "outputs": [],
      "stateMutability": "nonpayable",
      "type": "function"
    },
    {
      "inputs": [],
      "name": "migrator",
      "outputs": [
        {
          "internalType": "address",
          "name": "",
          "type": "address"
        }
      ],
      "stateMutability": "view",
      "type": "function"
    },
    {
      "inputs": [],
      "name": "minSharePrice",
      "outputs": [
        {
          "internalType": "uint96",
          "name": "res",
          "type": "uint96"
        }
      ],
      "stateMutability": "view",
      "type": "function"
    },
    {
      "inputs": [
        {
          "internalType": "uint160",
          "name": "tokenId",
          "type": "uint160"
        }
      ],
      "name": "mint",
      "outputs": [],
      "stateMutability": "payable",
      "type": "function"
    },
    {
      "inputs": [],
      "name": "name",
      "outputs": [
        {
          "internalType": "string",
          "name": "",
          "type": "string"
        }
      ],
      "stateMutability": "pure",
      "type": "function"
    },
    {
      "inputs": [
        {
          "internalType": "uint256",
          "name": "tokenId",
          "type": "uint256"
        }
      ],
      "name": "ownerOf",
      "outputs": [
        {
          "internalType": "address",
          "name": "",
          "type": "address"
        }
      ],
      "stateMutability": "view",
      "type": "function"
    },
    {
      "inputs": [
        {
          "internalType": "uint160",
          "name": "tokenId",
          "type": "uint160"
        }
      ],
      "name": "parsedProofOf",
      "outputs": [
        {
          "internalType": "uint256",
          "name": "proof",
          "type": "uint256"
        },
        {
          "internalType": "uint8[]",
          "name": "defaultIds",
          "type": "uint8[]"
        },
        {
          "internalType": "uint8[]",
          "name": "extraIds",
          "type": "uint8[]"
        },
        {
          "internalType": "uint8[]",
          "name": "overxs",
          "type": "uint8[]"
        },
        {
          "internalType": "uint8[]",
          "name": "overys",
          "type": "uint8[]"
        }
      ],
      "stateMutability": "view",
      "type": "function"
    },
    {
      "inputs": [
        {
          "internalType": "uint160",
          "name": "tokenId",
          "type": "uint160"
        }
      ],
      "name": "payoff",
      "outputs": [],
      "stateMutability": "payable",
      "type": "function"
    },
    {
      "inputs": [
        {
          "internalType": "uint160",
          "name": "tokenId",
          "type": "uint160"
        }
      ],
      "name": "proofOf",
      "outputs": [
        {
          "internalType": "uint256",
          "name": "",
          "type": "uint256"
        }
      ],
      "stateMutability": "view",
      "type": "function"
    },
    {
      "inputs": [],
      "name": "protocolEth",
      "outputs": [
        {
          "internalType": "uint96",
          "name": "res",
          "type": "uint96"
        }
      ],
      "stateMutability": "view",
      "type": "function"
    },
    {
      "inputs": [
        {
          "internalType": "uint160",
          "name": "tokenId",
          "type": "uint160"
        }
      ],
      "name": "rebalance",
      "outputs": [],
      "stateMutability": "payable",
      "type": "function"
    },
    {
      "inputs": [
        {
          "internalType": "uint160",
          "name": "tokenId",
          "type": "uint160"
        },
        {
          "internalType": "uint8",
          "name": "feature",
          "type": "uint8"
        }
      ],
      "name": "rotateFeature",
      "outputs": [],
      "stateMutability": "nonpayable",
      "type": "function"
    },
    {
      "inputs": [
        {
          "internalType": "address",
          "name": "",
          "type": "address"
        },
        {
          "internalType": "address",
          "name": "",
          "type": "address"
        },
        {
          "internalType": "uint256",
          "name": "",
          "type": "uint256"
        }
      ],
      "name": "safeTransferFrom",
      "outputs": [],
      "stateMutability": "payable",
      "type": "function"
    },
    {
      "inputs": [
        {
          "internalType": "address",
          "name": "",
          "type": "address"
        },
        {
          "internalType": "address",
          "name": "",
          "type": "address"
        },
        {
          "internalType": "uint256",
          "name": "",
          "type": "uint256"
        },
        {
          "internalType": "bytes",
          "name": "",
          "type": "bytes"
        }
      ],
      "name": "safeTransferFrom",
      "outputs": [],
      "stateMutability": "payable",
      "type": "function"
    },
    {
      "inputs": [
        {
          "internalType": "address",
          "name": "operator",
          "type": "address"
        },
        {
          "internalType": "bool",
          "name": "approved",
          "type": "bool"
        }
      ],
      "name": "setApprovalForAll",
      "outputs": [],
      "stateMutability": "nonpayable",
      "type": "function"
    },
    {
      "inputs": [
        {
          "internalType": "uint256",
          "name": "tokenId",
          "type": "uint256"
        },
        {
          "internalType": "address",
          "name": "to",
          "type": "address"
        }
      ],
      "name": "setDotnuggV1Resolver",
      "outputs": [],
      "stateMutability": "nonpayable",
      "type": "function"
    },
    {
      "inputs": [
        {
          "internalType": "address",
          "name": "user",
          "type": "address"
        },
        {
          "internalType": "bool",
          "name": "trusted",
          "type": "bool"
        }
      ],
      "name": "setIsTrusted",
      "outputs": [],
      "stateMutability": "nonpayable",
      "type": "function"
    },
    {
      "inputs": [
        {
          "internalType": "address",
          "name": "_migrator",
          "type": "address"
        }
      ],
      "name": "setMigrator",
      "outputs": [],
      "stateMutability": "nonpayable",
      "type": "function"
    },
    {
      "inputs": [
        {
          "internalType": "uint160",
          "name": "tokenId",
          "type": "uint160"
        },
        {
          "internalType": "uint8[]",
          "name": "xs",
          "type": "uint8[]"
        },
        {
          "internalType": "uint8[]",
          "name": "ys",
          "type": "uint8[]"
        }
      ],
      "name": "setOverrides",
      "outputs": [],
      "stateMutability": "nonpayable",
      "type": "function"
    },
    {
      "inputs": [],
      "name": "stakedEth",
      "outputs": [
        {
          "internalType": "uint96",
          "name": "res",
          "type": "uint96"
        }
      ],
      "stateMutability": "view",
      "type": "function"
    },
    {
      "inputs": [],
      "name": "stakedShares",
      "outputs": [
        {
          "internalType": "uint64",
          "name": "res",
          "type": "uint64"
        }
      ],
      "stateMutability": "view",
      "type": "function"
    },
    {
      "inputs": [
        {
          "internalType": "bytes4",
          "name": "interfaceId",
          "type": "bytes4"
        }
      ],
      "name": "supportsInterface",
      "outputs": [
        {
          "internalType": "bool",
          "name": "",
          "type": "bool"
        }
      ],
      "stateMutability": "view",
      "type": "function"
    },
    {
      "inputs": [
        {
          "internalType": "uint160",
          "name": "tokenId",
          "type": "uint160"
        },
        {
          "internalType": "uint96",
          "name": "floor",
          "type": "uint96"
        }
      ],
      "name": "swap",
      "outputs": [],
      "stateMutability": "nonpayable",
      "type": "function"
    },
    {
      "inputs": [
        {
          "internalType": "uint160",
          "name": "sellerTokenId",
          "type": "uint160"
        },
        {
          "internalType": "uint16",
          "name": "itemId",
          "type": "uint16"
        },
        {
          "internalType": "uint96",
          "name": "floor",
          "type": "uint96"
        }
      ],
      "name": "swapItem",
      "outputs": [],
      "stateMutability": "nonpayable",
      "type": "function"
    },
    {
      "inputs": [],
      "name": "symbol",
      "outputs": [
        {
          "internalType": "string",
          "name": "",
          "type": "string"
        }
      ],
      "stateMutability": "pure",
      "type": "function"
    },
    {
      "inputs": [
        {
          "internalType": "uint256",
          "name": "tokenId",
          "type": "uint256"
        }
      ],
      "name": "tokenURI",
      "outputs": [
        {
          "internalType": "string",
          "name": "res",
          "type": "string"
        }
      ],
      "stateMutability": "view",
      "type": "function"
    },
    {
      "inputs": [],
      "name": "totalSupply",
      "outputs": [
        {
          "internalType": "uint256",
          "name": "res",
          "type": "uint256"
        }
      ],
      "stateMutability": "view",
      "type": "function"
    },
    {
      "inputs": [
        {
          "internalType": "address",
          "name": "",
          "type": "address"
        },
        {
          "internalType": "address",
          "name": "",
          "type": "address"
        },
        {
          "internalType": "uint256",
          "name": "",
          "type": "uint256"
        }
      ],
      "name": "transferFrom",
      "outputs": [],
      "stateMutability": "payable",
      "type": "function"
    },
    {
      "inputs": [
        {
          "internalType": "uint160",
          "name": "tokenId",
          "type": "uint160"
        },
        {
          "internalType": "address",
          "name": "to",
          "type": "address"
        }
      ],
      "name": "trustedMint",
      "outputs": [],
      "stateMutability": "payable",
      "type": "function"
    },
    {
      "inputs": [
        {
          "internalType": "address",
          "name": "sender",
          "type": "address"
        },
        {
          "internalType": "uint160",
          "name": "tokenId",
          "type": "uint160"
        }
      ],
      "name": "valueForDelegate",
      "outputs": [
        {
          "internalType": "bool",
          "name": "canDelegate",
          "type": "bool"
        },
        {
          "internalType": "uint96",
          "name": "nextSwapAmount",
          "type": "uint96"
        },
        {
          "internalType": "uint96",
          "name": "senderCurrentOffer",
          "type": "uint96"
        }
      ],
      "stateMutability": "view",
      "type": "function"
    },
    {
      "inputs": [
        {
          "internalType": "uint160",
          "name": "tokenId",
          "type": "uint160"
        }
      ],
      "name": "valueForPayoff",
      "outputs": [
        {
          "internalType": "uint96",
          "name": "res",
          "type": "uint96"
        }
      ],
      "stateMutability": "view",
      "type": "function"
    },
    {
      "inputs": [
        {
          "internalType": "uint160",
          "name": "tokenId",
          "type": "uint160"
        }
      ],
      "name": "valueForRebalance",
      "outputs": [
        {
          "internalType": "uint96",
          "name": "res",
          "type": "uint96"
        }
      ],
      "stateMutability": "view",
      "type": "function"
    }
  ],
  "transactionHash": "0xe1776b7008b3d7fe0e30f0c445afb24d8849acecf69c0a63387fd8f8eb8d7ce7",
  "args": [
    "0x0c865E650E2B5598AFFA09fB9D505635b0b8E007"
  ],
  "solcInputHash": "7293f98868c6110e0b69210464669774",
  "bytecode": "0x60a06040526004805461ffff60a01b1916610a2d60a01b1790553480156200002657600080fd5b506040516200616e3803806200616e833981016040819052620000499162000156565b4360808190526040805191825260456020830152610bb88282015251829133917f183ba372104e811ca56ea566d43048a8c560dbb9cce5c8d5e9987c710b38d9469181900360600190a16001600160a01b038116600081815260036020908152604091829020805460ff1916600190811790915591519182527fe95aec380cae16330d146d5499ef7db6f3657e477104a733e771bc09e500d986910160405180910390a2506001600160a01b0381166200012f5760405162461bcd60e51b8152602060048201526003602482015262118e8d60ea1b604482015260640160405180910390fd5b600480546001600160a01b0319166001600160a01b03929092169190911790555062000188565b6000602082840312156200016957600080fd5b81516001600160a01b03811681146200018157600080fd5b9392505050565b608051615fbc620001b26000396000818161089301528181613c4901526152930152615fbc6000f3fe6080604052600436106103605760003560e01c8063939f4130116101c6578063c87b56dd116100f7578063f71d090411610095578063fb774eb81161006f578063fb774eb814610a87578063fca840ae14610aa7578063fe7e997e14610ac7578063ffcf6d3a14610ae757600080fd5b8063f71d090414610a3f578063fa73299214610a54578063fb306b0f14610a6757600080fd5b8063e985e9c5116100d1578063e985e9c5146109d5578063ecc1113f146109f5578063ee0ca98914610a15578063f666b9a614610a2a57600080fd5b8063c87b56dd14610929578063d7dc681914610949578063e5cbd48e146109b557600080fd5b8063a2c7172711610164578063b88ea0141161013e578063b88ea014146108c3578063beace31f146108e3578063c06c822f146108f6578063c5c8beeb1461090957600080fd5b8063a2c717271461086e578063a7f0b3de14610881578063b88d4fde146108b557600080fd5b806395d89b41116101a057806395d89b411461078c57806396d64879146107d257806399081a2614610802578063a22cb4651461084e57600080fd5b8063939f4130146107245780639531b94d14610744578063957c9e281461075957600080fd5b806351d4d67e116102a0578063750656f61161023e5780638307fa5b116102185780638307fa5b1461068c578063900cf0cf146106ac5780639066fdf8146106d657806390a577ef146106f657600080fd5b8063750656f6146106395780637cd07e471461064c57806381dcebcf1461066c57600080fd5b80635e983d4f1161027a5780635e983d4f146105ab578063608cceb0146105d85780636352211e146105f857806370a082311461061857600080fd5b806351d4d67e146105565780635558e4e214610576578063570f67ad1461059657600080fd5b80631393916a1161030d57806323cf3118116102e757806323cf3118146104ba5780633853d8a1146104da57806342842e0e146104ac57806348a7dec01461051257600080fd5b80631393916a1461046957806318160ddd1461048957806323b872dd146104ac57600080fd5b8063081812fc1161033e578063081812fc1461040b578063095ea7b3146104435780631056b9d51461045657600080fd5b806301ffc9a7146103655780630251f62c1461039a57806306fdde03146103bc575b600080fd5b34801561037157600080fd5b506103856103803660046152da565b610b18565b60405190151581526020015b60405180910390f35b3480156103a657600080fd5b506103ba6103b5366004615331565b610c95565b005b3480156103c857600080fd5b5060408051808201909152601681527f4e7567672046756e6769626c6520546f6b656e2056310000000000000000000060208201525b60405161039191906153a6565b34801561041757600080fd5b5061042b6104263660046153b9565b610dc0565b6040516001600160a01b039091168152602001610391565b6103ba6104513660046153d2565b610dd3565b6103ba610464366004615410565b610ea7565b34801561047557600080fd5b506103ba610484366004615457565b61113a565b34801561049557600080fd5b5061049e611216565b604051908152602001610391565b6103ba610360366004615495565b3480156104c657600080fd5b506103ba6104d5366004615331565b61122f565b3480156104e657600080fd5b506104f56601c6bf5263400081565b6040516bffffffffffffffffffffffff9091168152602001610391565b34801561051e57600080fd5b506004546105449074010000000000000000000000000000000000000000900460ff1681565b60405160ff9091168152602001610391565b34801561056257600080fd5b506103ba6105713660046154d6565b6112ef565b34801561058257600080fd5b5061042b6105913660046153b9565b61140a565b3480156105a257600080fd5b506103ba61143c565b3480156105b757600080fd5b506105cb6105c63660046153b9565b6114fe565b6040516103919190615542565b3480156105e457600080fd5b506104f56105f3366004615331565b61164b565b34801561060457600080fd5b5061042b6106133660046153b9565b611661565b34801561062457600080fd5b5061049e610633366004615331565b50600090565b6103ba610647366004615331565b61166f565b34801561065857600080fd5b5060095461042b906001600160a01b031681565b34801561067857600080fd5b506103ba610687366004615331565b61170e565b34801561069857600080fd5b506103ba6106a736600461563c565b611889565b3480156106b857600080fd5b506106c161195b565b60405163ffffffff9091168152602001610391565b3480156106e257600080fd5b506103ba6106f1366004615670565b61196b565b34801561070257600080fd5b5061070b611a42565b60405167ffffffffffffffff9091168152602001610391565b34801561073057600080fd5b506103ba61073f366004615331565b611a50565b34801561075057600080fd5b506104f5611acb565b34801561076557600080fd5b50600454610544907501000000000000000000000000000000000000000000900460ff1681565b34801561079857600080fd5b5060408051808201909152600681527f4e5547474654000000000000000000000000000000000000000000000000000060208201526103fe565b3480156107de57600080fd5b506103856107ed366004615331565b60036020526000908152604090205460ff1681565b34801561080e57600080fd5b5061082261081d3660046154d6565b611ae1565b6040805193151584526bffffffffffffffffffffffff9283166020850152911690820152606001610391565b34801561085a57600080fd5b506103ba610869366004615457565b611be1565b6103ba61087c3660046154d6565b611c6b565b34801561088d57600080fd5b5061049e7f000000000000000000000000000000000000000000000000000000000000000081565b6103ba610360366004615726565b3480156108cf57600080fd5b5061049e6108de366004615331565b612070565b6103ba6108f13660046154d6565b6120ed565b6103ba610904366004615331565b6121d9565b34801561091557600080fd5b506103ba6109243660046157f1565b6123a5565b34801561093557600080fd5b506103fe6109443660046153b9565b61256c565b34801561095557600080fd5b50610969610964366004615331565b6126b5565b604080516bffffffffffffffffffffffff96871681529486166020860152929094169183019190915263ffffffff1660608201526001600160a01b03909116608082015260a001610391565b3480156109c157600080fd5b5060045461042b906001600160a01b031681565b3480156109e157600080fd5b506103856109f03660046154d6565b612705565b348015610a0157600080fd5b506104f5610a10366004615331565b612718565b348015610a2157600080fd5b506104f561272e565b348015610a3657600080fd5b506104f5612739565b348015610a4b57600080fd5b506104f5612747565b6103ba610a62366004615331565b612754565b348015610a7357600080fd5b506103ba610a8236600461581d565b6129af565b348015610a9357600080fd5b506103ba610aa2366004615410565b612b0a565b348015610ab357600080fd5b506103ba610ac23660046158a3565b612cb5565b348015610ad357600080fd5b506103ba610ae2366004615968565b612e17565b348015610af357600080fd5b50610b07610b02366004615331565b612f37565b6040516103919594939291906159de565b60007fffffffff0000000000000000000000000000000000000000000000000000000082167fa5a85640000000000000000000000000000000000000000000000000000000001480610bab57507fffffffff0000000000000000000000000000000000000000000000000000000082167fee4f8adf00000000000000000000000000000000000000000000000000000000145b80610bf757507fffffffff0000000000000000000000000000000000000000000000000000000082167f80ac58cd00000000000000000000000000000000000000000000000000000000145b80610c4357507fffffffff0000000000000000000000000000000000000000000000000000000082167f5b5e139f00000000000000000000000000000000000000000000000000000000145b80610c8f57507fffffffff0000000000000000000000000000000000000000000000000000000082167f01ffc9a700000000000000000000000000000000000000000000000000000000145b92915050565b6000610ca082612fca565b9050610cac338261304e565b610cfd5760405162461bcd60e51b815260206004820152600360248201527f4c3a30000000000000000000000000000000000000000000000000000000000060448201526064015b60405180910390fd5b6000610d1a610d0a61195b565b83610d13612747565b600061309b565b506001600160a01b0384166000908152600d6020526040902081905590507fdf65fae456ee5bcd916efcb9b5ad07667d7fc396aff61536c465f280393fbd3e83610d63836130ed565b604080516001600160a01b0390931683526bffffffffffffffffffffffff90911660208301520160405180910390a1610d9b83613114565b610dbb82610da8836130ed565b6bffffffffffffffffffffffff166131d7565b505050565b6000610c8f610dce83613232565b61324c565b6000610de6610de183613232565b612fca565b9050610df2338261304e565b610e3e5760405162461bcd60e51b815260206004820152600360248201527f473a3100000000000000000000000000000000000000000000000000000000006044820152606401610cf4565b600082815260016020526040808220805473ffffffffffffffffffffffffffffffffffffffff19166001600160a01b0387811691821790925591518593918516917f8c5be1e5ebec7d5bd14f71427d1e84f3dd0314c0f7b2291e5b200ac8c7c3b92591a4505050565b610eb133846132c2565b610efd5760405162461bcd60e51b815260206004820152600360248201527f533a3600000000000000000000000000000000000000000000000000000000006044820152606401610cf4565b600080610f0b8484876132d6565b80519193509150610f5e5760405162461bcd60e51b815260206004820152600360248201527f533a5300000000000000000000000000000000000000000000000000000000006044820152606401610cf4565b60208101511561102e57806040015163ffffffff16610f808260200151613332565b63ffffffff161015610fd45760405162461bcd60e51b815260206004820152600360248201527f533a3700000000000000000000000000000000000000000000000000000000006044820152606401610cf4565b602081015160ff1c6001141561102e5760405162461bcd60e51b8152600401610cf49060208082526004908201527f4e4f504500000000000000000000000000000000000000000000000000000000604082015260600190565b60208101511580156110445750805160ff1c6001145b156110c05760006110558383613347565b604080516001600160a01b03888116825261ffff881660208301528916818301526bffffffffffffffffffffffff8316606082015290519192507fdcd75b8c1f9c84e8b7d26df979d7ddbc4139b72f6c8e0e7123bb63d63ba1c325919081900360800190a150611133565b60006110cc83836134ab565b604080516001600160a01b03888116825261ffff881660208301528916818301526bffffffffffffffffffffffff8316606082015290519192507f3bbfe02e9ee64811b7404130d1c8a263edbb6ab73af1dc502dd56d43a3ddd1a3919081900360800190a1505b5050505050565b3360009081526003602052604090205460ff166111995760405162461bcd60e51b815260206004820152600960248201527f554e5452555354454400000000000000000000000000000000000000000000006044820152606401610cf4565b6001600160a01b03821660008181526003602090815260409182902080547fffffffffffffffffffffffffffffffffffffffffffffffffffffffffffffff001685151590811790915591519182527fe95aec380cae16330d146d5499ef7db6f3657e477104a733e771bc09e500d986910160405180910390a25050565b6000611220611a42565b67ffffffffffffffff16905090565b3360009081526003602052604090205460ff1661128e5760405162461bcd60e51b815260206004820152600960248201527f554e5452555354454400000000000000000000000000000000000000000000006044820152606401610cf4565b6009805473ffffffffffffffffffffffffffffffffffffffff19166001600160a01b0383169081179091556040519081527fc97e86a927b4a897832650767255fd568e377e7fbe9586c81d26b77a2c3ffc8b9060200160405180910390a150565b6112f9338361304e565b6113455760405162461bcd60e51b815260206004820152600360248201527f533a3800000000000000000000000000000000000000000000000000000000006044820152606401610cf4565b60008061135283856135b2565b6001600160a01b0386166000908152600183016020526040812055909250905061137b816135fe565b15611393576000825561138e84846136ee565b6113a4565b6113a484610da883602001516130ed565b7f10c1106c1b3c266f6cf55047c56a839a002c11736bbf9c4acdec566e80677e9b83856113d48460200151613332565b604080516001600160a01b03948516815293909216602084015263ffffffff16908201526060015b60405180910390a150505050565b60006006600061141984613232565b6001600160a01b0390811682526020820192909252604001600020541692915050565b3360009081526003602052604090205460ff1661149b5760405162461bcd60e51b815260206004820152600960248201527f554e5452555354454400000000000000000000000000000000000000000000006044820152606401610cf4565b600a547f8e4dbe2f73d3458c68bca94210eabefac52a4d20c038a8e50197ac9db654291b816040516bffffffffffffffffffffffff909116815260200160405180910390a16114ea3382610da8565b6bffffffffffffffffffffffff1916600a55565b6115646040518061016001604052806000815260200160008152602001606081526020016060815260200160006001600160a01b031681526020016000815260200160008152602001606081526020016060815260200160608152602001606081525090565b6000806000806000611578610b0288613232565b6040805161016081018252600181524260208083019190915282518084018452600981527f4e75676746542056310000000000000000000000000000000000000000000000818301528284015282518084018452601681527f4e7567672046756e6769626c6520546f6b656e2056310000000000000000000081830152606083015260008f81529081905291909120546001600160a01b0316608082015260a081019c909c5260c08c019490945260e08b01929092526101008a0152610120890152610140880152509495945050505050565b6000611656826126b5565b509195945050505050565b6000610c8f610de183613232565b61167d6101f4612710615a6c565b63ffffffff16816001600160a01b03161080156116a457506101f46001600160a01b038216115b6116f05760405162461bcd60e51b815260206004820152600360248201527f473a3100000000000000000000000000000000000000000000000000000000006044820152606401610cf4565b6116f8613794565b611701816138c9565b61170b3382613a04565b50565b6009546001600160a01b03166117665760405162461bcd60e51b815260206004820152600360248201527f543a3400000000000000000000000000000000000000000000000000000000006044820152606401610cf4565b600061177182612070565b9050600061177e83613a6c565b6009546040517f80011aa70000000000000000000000000000000000000000000000000000000081526001600160a01b038681166004830152602482018690523360448301529293509116906380011aa7906bffffffffffffffffffffffff8416906064016000604051808303818588803b1580156117fc57600080fd5b505af1158015611810573d6000803e3d6000fd5b5050600954604080516001600160a01b039283168152918816602083015281018690523360608201526bffffffffffffffffffffffff851660808201527f58ca548c1fd63f641dfb02f79df36d4f29bd995f0733d2ed3595b6cfde7db4e1935060a001915061187c9050565b60405180910390a1505050565b61189b3361189684613232565b6132c2565b6118e75760405162461bcd60e51b815260206004820152600360248201527f463a3500000000000000000000000000000000000000000000000000000000006044820152606401610cf4565b600082815260066020908152604091829020805473ffffffffffffffffffffffffffffffffffffffff19166001600160a01b0385169081179091558251858152918201527f7656ff24c75404c1fac4fa475e193f5ac3f455ada5e60a315bf6b8eaa8bd5e9b91015b60405180910390a15050565b600061196643613c3d565b905090565b61197533836132c2565b6119c15760405162461bcd60e51b815260206004820152600360248201527f503a4100000000000000000000000000000000000000000000000000000000006044820152606401610cf4565b60006119cc83612070565b90506119d88183613c82565b90506119e48183613d9d565b6001600160a01b0384166000818152600860209081526040918290208490558151928352820183905260ff8516908201529091507fe0b01689336e903dba5ec8bc01d79a4ec6aa4f944cd16d45d32700fb594b74ae9060600161187c565b6000611966600a5460c01c90565b6000611a5b82613a6c565b9050611a7533826bffffffffffffffffffffffff166131d7565b604080516001600160a01b03841681523360208201526bffffffffffffffffffffffff8316918101919091527f6866bab9e57b1b8d6e867bb41dc78ec6f8fcbdca05d8f065e3353df689741ff29060600161194f565b6000611ad8600a54613e2c565b50919392505050565b600160008080611af185876135b2565b805190925015159050611b4157846001600160a01b0316816040015163ffffffff161415611b3057611b29611b24611acb565b613e93565b9250611baa565b600080600093509350935050611bda565b602081015160ff1c60011415611b5657600093505b611b6381602001516130ed565b9150611b7281600001516130ed565b9250611b7c612747565b6bffffffffffffffffffffffff16836bffffffffffffffffffffffff161015611baa57611ba7612747565b92505b6bffffffffffffffffffffffff8316611bcc576601c6bf526340009250611bd8565b611bd583613ee9565b92505b505b9250925092565b3360008181526002602090815260408083206001600160a01b0387168085529083529281902080547fffffffffffffffffffffffffffffffffffffffffffffffffffffffffffffff001686151590811790915590519081529192917f17307eab39ab6107e8899845ad3d59bd9653f200f220920489ca2b5937696c31910160405180910390a35050565b611c75338361304e565b611cc15760405162461bcd60e51b815260206004820152600360248201527f533a3000000000000000000000000000000000000000000000000000000000006044820152606401610cf4565b600080611cce83856135b2565b91509150826001600160a01b0316816040015163ffffffff16148015611cf357508051155b15611e0a576601c6bf52634000341015611d4f5760405162461bcd60e51b815260206004820152600360248201527f533a3100000000000000000000000000000000000000000000000000000000006044820152606401610cf4565b602081015115611d6157611d61615a94565b6000611d7982604001518360600151610d1334613f07565b508084559050611d87613794565b611d9084613f22565b611d9c60003086614043565b7fb05be3e18f19a4aac09f77432c65062f81615fefa61e76300a99fb2d08c01913848360600151611dcc34613f07565b604080516001600160a01b0394851681529390921660208401526bffffffffffffffffffffffff16908201526060015b60405180910390a15061206a565b8051611e585760405162461bcd60e51b815260206004820152600360248201527f533a3400000000000000000000000000000000000000000000000000000000006044820152606401610cf4565b602081015115611f2857806040015163ffffffff16611e7a8260200151613332565b63ffffffff161015611ece5760405162461bcd60e51b815260206004820152600360248201527f533a5200000000000000000000000000000000000000000000000000000000006044820152606401610cf4565b602081015160ff1c60011415611f285760405162461bcd60e51b8152600401610cf49060208082526004908201527f4e4f504500000000000000000000000000000000000000000000000000000000604082015260600190565b805160ff1c60011415611fff57611f3d612747565b6bffffffffffffffffffffffff16341015611f9a5760405162461bcd60e51b815260206004820152600360248201527f533a3500000000000000000000000000000000000000000000000000000000006044820152606401610cf4565b6000611fa68383613347565b604080516001600160a01b03871681523360208201526bffffffffffffffffffffffff8316918101919091529091507f8e9681d7ef6204b5eb1f7e898910b723018e455d09ba77c2c9e43346968c887f90606001611dfc565b600061200b83836134ab565b604080516001600160a01b03871681523360208201526bffffffffffffffffffffffff8316918101919091529091507f695e0d4736a959eec71a66de118059220f6144b53eb2ed3e6ca8508ce8cd1f0a906060015b60405180910390a1505b50505050565b6001600160a01b038116600090815260086020526040812054156120aa57506001600160a01b031660009081526008602052604090205490565b60008060006120b7614092565b50925092509250846001600160a01b0316821480156120d557508215155b156120e257949350505050565b506000949350505050565b3360009081526003602052604090205460ff1661214c5760405162461bcd60e51b815260206004820152600960248201527f554e5452555354454400000000000000000000000000000000000000000000006044820152606401610cf4565b6101f46001600160a01b03831610801561216e57506001600160a01b03821615155b6121ba5760405162461bcd60e51b815260206004820152600360248201527f473a3100000000000000000000000000000000000000000000000000000000006044820152606401610cf4565b6121c2613794565b6121cb826138c9565b6121d58183613a04565b5050565b6001600160a01b0381166000908152600d60205260408120546121fb906140c2565b9050600080600061220b84614152565b945050935093505061221c85612fca565b6001600160a01b0316306001600160a01b03161461223c5761223c615a94565b34836bffffffffffffffffffffffff16111561229a5760405162461bcd60e51b815260206004820152600360248201527f4c3a3300000000000000000000000000000000000000000000000000000000006044820152606401610cf4565b6122a383614252565b6122ab61195b565b63ffffffff1660208501526122be612747565b6bffffffffffffffffffffffff1684526000806122da866143ad565b6001600160a01b0389166000908152600d6020526040812083905591935091508561230434613f07565b61230e9190615ac3565b905060008261231d8388615af0565b6123279190615af0565b604080516001600160a01b038c1681526bffffffffffffffffffffffff8a8116602083015289168183015290519192507f55ab9f648a42ab2ae7eed81f0683a7bae5d54989d8125f397a88f72bec826917919081900360600190a161239a85826bffffffffffffffffffffffff166131d7565b505050505050505050565b60006123b083612fca565b90506123bc338261304e565b6124085760405162461bcd60e51b815260206004820152600360248201527f533a4100000000000000000000000000000000000000000000000000000000006044820152606401610cf4565b612410612747565b6bffffffffffffffffffffffff16826bffffffffffffffffffffffff16101561247b5760405162461bcd60e51b815260206004820152600360248201527f533a4200000000000000000000000000000000000000000000000000000000006044820152606401610cf4565b61248483613114565b60008061249185846135b2565b80519193509150156124e55760405162461bcd60e51b815260206004820152600560248201527f4e4f5045320000000000000000000000000000000000000000000000000000006044820152606401610cf4565b6000806124f660008688600161309b565b81865590925090507f3d175b4f67d380f8c4185f649f2cfeda5da34c1156302187ac843b620f9c9cd3878661252b848a615ac3565b604080516001600160a01b0394851681529390921660208401526bffffffffffffffffffffffff16908201526060015b60405180910390a150505050505050565b6060600061257983613232565b6001600160a01b0380821660009081526006602052604081205492935091166125ad576004546001600160a01b03166125bf565b6125bf826001600160a01b031661140a565b600480546040517f191adaf80000000000000000000000000000000000000000000000000000000081523092810192909252602482018790526001600160a01b03838116604484015260ff7401000000000000000000000000000000000000000083048116606485015275010000000000000000000000000000000000000000008304166084840152929350919091169063191adaf89060a40160006040518083038186803b15801561267157600080fd5b505afa158015612685573d6000803e3d6000fd5b505050506040513d6000823e601f3d908101601f191682016040526126ad9190810190615b17565b949350505050565b60008060008060006126f36126ee600d6000896001600160a01b03166001600160a01b03168152602001908152602001600020546140c2565b614152565b939a9299509097509550909350915050565b6000612711828461304e565b9392505050565b6000612723826126b5565b509295945050505050565b6000611966600a5490565b6000611966600a5460601c90565b6000611966600a546143d6565b6000806000806000612765866126b5565b945063ffffffff16945094509450945061277e86612fca565b6001600160a01b0316306001600160a01b03161461279e5761279e615a94565b6001600160a01b0386166000908152600d6020526040812055336127c061195b565b63ffffffff16836bffffffffffffffffffffffff1610612833576127e4338361304e565b6128305760405162461bcd60e51b815260206004820152600360248201527f4c3a3100000000000000000000000000000000000000000000000000000000006044820152606401610cf4565b50805b600061283e34613f07565b9050806bffffffffffffffffffffffff16876bffffffffffffffffffffffff1611156128ac5760405162461bcd60e51b815260206004820152600360248201527f4c3a3200000000000000000000000000000000000000000000000000000000006044820152606401610cf4565b60006128b88783615ac3565b905060006128c68288615af0565b604080516001600160a01b038d1681526bffffffffffffffffffffffff8b811660208301528a168183015290519192507f55ab9f648a42ab2ae7eed81f0683a7bae5d54989d8125f397a88f72bec826917919081900360600190a1604080516001600160a01b038c81168252861660208201526bffffffffffffffffffffffff8b168183015290517f563fb66b43e6ac55166c353532257057a2fe86a1566c988840baecf6bca1025a9181900360600190a161298188614252565b61299984826bffffffffffffffffffffffff166131d7565b6129a3848b6136ee565b50505050505050505050565b3360009081526003602052604090205460ff16612a0e5760405162461bcd60e51b815260206004820152600960248201527f554e5452555354454400000000000000000000000000000000000000000000006044820152606401610cf4565b600480546040517ff72e5c740000000000000000000000000000000000000000000000000000000081526000926001600160a01b039092169163f72e5c7491612a5d9186918991899101615bd4565b602060405180830381600087803b158015612a7757600080fd5b505af1158015612a8b573d6000803e3d6000fd5b505050506040513d601f19601f82011682018060405250810190612aaf9190615cbd565b6007549091506000612ac18282614426565b905082818560ff1681518110612ad957612ad9615cda565b60200260200101818151612aed9190615d09565b60ff16905250612aff826000836144ad565b600755505050505050565b612b1433846132c2565b612b605760405162461bcd60e51b815260206004820152600360248201527f533a3900000000000000000000000000000000000000000000000000000000006044820152606401610cf4565b600080612b6e8484876132d6565b6001600160a01b03871660009081526001830160205260408120559092509050612b97816135fe565b15612c3157600080835561ffff84168152600b6020526040902054612bfe5760405162461bcd60e51b815260206004820152600360248201527f503a3300000000000000000000000000000000000000000000000000000000006044820152606401610cf4565b612c088584614529565b61ffff83166000908152600b60205260408120805491612c2783615d2e565b9190505550612c4a565b612c4a612c3d86612fca565b610da883602001516130ed565b7f95e8db1d2cc4bd26402c98c45fdb7ff875bb955206591a210b51aa82b4ba5acb848487612c7b8560000151613332565b604080516001600160a01b03958616815261ffff949094166020850152919093169082015263ffffffff9091166060820152608001612060565b612cbf33846132c2565b612d0b5760405162461bcd60e51b815260206004820152600360248201527f533a4300000000000000000000000000000000000000000000000000000000006044820152606401610cf4565b612d1583836145f5565b61ffff82166000908152600b60205260408120805491612d3483615d45565b9190505550600080612d478585876132d6565b8051919350915015612d9b5760405162461bcd60e51b815260206004820152600360248201527f533a4400000000000000000000000000000000000000000000000000000000006044820152606401610cf4565b600080612dac60008887600161309b565b81865590925090507f77cfc3b2aafc5344a53b50b3c7938afac3d04e0f564e929aa8d1f398e67f1ccc8787612de18489615ac3565b604080516001600160a01b03909416845261ffff90921660208401526bffffffffffffffffffffffff169082015260600161255b565b612e2133846132c2565b612e6d5760405162461bcd60e51b815260206004820152600360248201527f503a4200000000000000000000000000000000000000000000000000000000006044820152606401610cf4565b81516008148015612e7f575080516008145b612ecb5760405162461bcd60e51b815260206004820152600360248201527f503a4300000000000000000000000000000000000000000000000000000000006044820152606401610cf4565b6000612ed684612070565b9050612ee38184846146c1565b6001600160a01b03851660009081526008602052604090819020829055519091507f73904d03f919661d854e7b284dd6f818c038e7cce6237422aca32cc599a08267906113fc908690849087908790615d60565b6000606080606080612f4886612070565b945084612fc157612f71612f6c612f67886001600160a01b03166146dd565b6146f0565b6146fb565b50945084612fc15760405162461bcd60e51b815260206004820152600360248201527f503a4c00000000000000000000000000000000000000000000000000000000006044820152606401610cf4565b6126f385614b10565b6000612fd582614b53565b6130215760405162461bcd60e51b815260206004820152600560248201527f543a393a320000000000000000000000000000000000000000000000000000006044820152606401610cf4565b506001600160a01b038082166000908152602081905260409020541680613049575030919050565b919050565b6000826001600160a01b0316826001600160a01b031614806127115750506001600160a01b0390811660009081526002602090815260408083209490931682529290925290205460ff1690565b6000806130a88287614b66565b91506130b48286614bb7565b915082156130ca576130c7826001614be1565b91505b6130d48285614c18565b90925090506130e282614c77565b915094509492505050565b6000610c8f61310f6509184e72a00060a085901c66ffffffffffffff16615d9a565b613f07565b61311e33826132c2565b801561313a57503061312f8261324c565b6001600160a01b0316145b6131865760405162461bcd60e51b815260206004820152600360248201527f4e3a3100000000000000000000000000000000000000000000000000000000006044820152606401610cf4565b6001600160a01b038116600090815260208181526040808320805473ffffffffffffffffffffffffffffffffffffffff1990811690915560019092529091208054909116905561170b333083614043565b600080600080600085875af1905080610dbb5760405162461bcd60e51b815260206004820152600360248201527f5a3a3000000000000000000000000000000000000000000000000000000000006044820152606401610cf4565b60006001600160a01b0382111561324857600080fd5b5090565b600061325782614b53565b6132a35760405162461bcd60e51b815260206004820152600560248201527f543a393a310000000000000000000000000000000000000000000000000000006044820152606401610cf4565b506001600160a01b039081166000908152600160205260409020541690565b6000612711836132d184612fca565b61304e565b6040805160808101825260008082526020808301829052828401829052606083018290526001600160a01b0387168252600c815283822061ffff87168352600201905291909120906133288284614cc3565b9050935093915050565b6000610c8f63ffffffff60d884901c166146dd565b60008160200151600014801561335d5750815115155b6133a95760405162461bcd60e51b815260206004820152600560248201527f4e4f5045330000000000000000000000000000000000000000000000000000006044820152606401610cf4565b815160ff1c6001146133fd5760405162461bcd60e51b815260206004820152600560248201527f4e4f5045340000000000000000000000000000000000000000000000000000006044820152606401610cf4565b600080600061342785600001518660400151600161341b9190615a6c565b87606001516000614d62565b8289556040880151929550909350915061345990613446906001615a6c565b8651613453906000614be1565b90614b66565b86600101600061346c8860000151614e25565b6001600160a01b031681526020810191909152604001600020556134986134938284615af0565b614252565b6134a1836130ed565b9695505050505050565b60006134ba8260000151613332565b63ffffffff16826040015163ffffffff1611156135195760405162461bcd60e51b815260206004820152600360248201527f533a4600000000000000000000000000000000000000000000000000000000006044820152606401610cf4565b81606001516001600160a01b03166135348360000151614e25565b6001600160a01b03161461356e57815160018401600061355383614e25565b6001600160a01b031681526020810191909152604001600020555b81516000908190819061359b9061358481613332565b876060015161359689602001516130ed565b614d62565b828955919450925090506134986134938284615af0565b6040805160808101825260008082526020808301829052828401829052606083018290526001600160a01b0386168252600c905291909120906135f58284614cc3565b90509250929050565b60008160200151600014156136555760405162461bcd60e51b815260206004820152600360248201527f533a4500000000000000000000000000000000000000000000000000000000006044820152606401610cf4565b60006136648360000151613332565b63ffffffff16836040015163ffffffff1611905060006136878460000151614e25565b6001600160a01b031661369d8560200151614e25565b6001600160a01b031614905060006136bf8560000151600160ff9190911c1490565b80156136d25750602085015160ff1c6001145b90508180156136e5575080806136e55750825b95945050505050565b306136f882612fca565b6001600160a01b03161461374e5760405162461bcd60e51b815260206004820152600360248201527f4e3a3000000000000000000000000000000000000000000000000000000000006044820152606401610cf4565b6001600160a01b038181166000908152602081905260409020805473ffffffffffffffffffffffffffffffffffffffff19169184169190911790556121d5308383614043565b600061379f34613f07565b600a549091506000806137b183613e2c565b509250509150816bffffffffffffffffffffffff16846bffffffffffffffffffffffff1610156138235760405162461bcd60e51b815260206004820152600360248201527f543a3100000000000000000000000000000000000000000000000000000000006044820152606401610cf4565b600061382f8386615ac3565b905061383a81614e39565b6138449083615af0565b9150613851846001614e54565b93506138676138608387615ac3565b8590614eb4565b93506138738483614f14565b600a81905593507fcc7b20c8500e3dfc952e445cc296459e4e7148bead08f530844981e1c1236e4e6138a58387615ac3565b604080516bffffffffffffffffffffffff9283168152918516602083015201612060565b6001600160a01b0381166000908152600860205260409020541561392f5760405162461bcd60e51b815260206004820152600360248201527f503a3500000000000000000000000000000000000000000000000000000000006044820152606401610cf4565b60008161393d600143615db9565b6040517f4206900000000000000000000000000000000000000000000000000000000000602082015260609290921b6bffffffffffffffffffffffff191660238301524060378201526057016040516020818303038152906040528051906020012060001c90506000806139b0836146fb565b6001600160a01b038616600090815260086020526040908190208390555191935091507f3c2693eb3bc9fd62db9b727df67972a7372cca5a21f9b4a5c05d48363273c247906113fc90869085908590615dd0565b6001600160a01b03818116600081815260208190526040808220805473ffffffffffffffffffffffffffffffffffffffff19169487169485179055519192917fddf252ad1be2c89b69c2b068fc378daa952ba7f163c4a11628f55a4df523b3ef908290a45050565b600080613a7883612fca565b905030613a848461324c565b6001600160a01b0316148015613aa257506001600160a01b03811633145b613aee5760405162461bcd60e51b815260206004820152600360248201527f543a3300000000000000000000000000000000000000000000000000000000006044820152606401610cf4565b600a546001600160a01b038416600090815260208181526040808320805473ffffffffffffffffffffffffffffffffffffffff1990811690915560018352818420805482169055600c8352818420849055600d8352818420849055600883528184208490556006909252822080549091169055613b6d90839086614043565b613b76816143d6565b92506001613b848260c01c90565b67ffffffffffffffff161015613b9c57613b9c615a94565b826bffffffffffffffffffffffff16613bb58260601c90565b6bffffffffffffffffffffffff161015613bd157613bd1615a94565b613bdc816001614f47565b9050613be88184614f5e565b600a819055604080516bffffffffffffffffffffffff861681523360208201529192507f8ebfc955aa97c416e4c061b1a0fa227225220abc04070eb0112065225053d791910160405180910390a15050919050565b6000610bb86045613c6e7f000000000000000000000000000000000000000000000000000000000000000085615db9565b613c789190615e27565b610c8f9190615a6c565b600060ff8216613cd45760405162461bcd60e51b815260206004820152600360248201527f503a4600000000000000000000000000000000000000000000000000000000006044820152606401610cf4565b6000613ce1846000614426565b90506000613cf0856040614426565b90506000818560ff1681518110613d0957613d09615cda565b60200260200101519050828560ff1681518110613d2857613d28615cda565b6020026020010151828660ff1681518110613d4557613d45615cda565b602002602001019060ff16908160ff168152505080838660ff1681518110613d6f57613d6f615cda565b602002602001019060ff16908160ff1681525050613d8f866000856144ad565b93506134a1846040846144ad565b600080613dab846080614426565b90506000613dba8560c0614426565b90506000818560ff1681518110613dd357613dd3615cda565b602002602001019060ff16908160ff16815250506000828560ff1681518110613dfe57613dfe615cda565b602002602001019060ff16908160ff1681525050613e1e856080846144ad565b92506136e58360c0836144ad565b600080600080613e3b856143d6565b9250613e4683614e39565b9150612710613e558660c01c90565b613e699067ffffffffffffffff1685615e4a565b613e739190615e7e565b905080613e808385615af0565b613e8a9190615af0565b93509193509193565b600080613ea66509184e72a00084615e9d565b6bffffffffffffffffffffffff161115613ee0576509184e72a000613ecb8184615e7e565b613ed6906001615af0565b610c8f9190615e4a565b610c8f82614f75565b6000610c8f612710613efd846127d8615e4a565b611b249190615e7e565b60006bffffffffffffffffffffffff82111561324857600080fd5b6001600160a01b03811660009081526008602052604090205415613f885760405162461bcd60e51b815260206004820152600360248201527f503a3600000000000000000000000000000000000000000000000000000000006044820152606401610cf4565b6000806000613f95614092565b93509350935050836001600160a01b03168314613ff45760405162461bcd60e51b815260206004820152600360248201527f503a3700000000000000000000000000000000000000000000000000000000006044820152606401610cf4565b6001600160a01b03841660009081526008602052604090819020839055517f3c2693eb3bc9fd62db9b727df67972a7372cca5a21f9b4a5c05d48363273c247906113fc90869085908590615dd0565b806001600160a01b0316826001600160a01b0316846001600160a01b03167fddf252ad1be2c89b69c2b068fc378daa952ba7f163c4a11628f55a4df523b3ef60405160405180910390a4505050565b600080600060606140a1614f88565b90945063ffffffff1692506140b5846146fb565b9495939490939092509050565b6040805160a0810182526000808252602082018190529181018290526060810182905260808101919091528115613049576001608082015261410382613332565b63ffffffff16602082015261411782614e25565b6001600160a01b0316604082015261412e826130ed565b6bffffffffffffffffffffffff16815260ff82901c60011415156060820152919050565b6000806000806000806001600160a01b031686604001516001600160a01b031614156141c05760405162461bcd60e51b815260206004820152600360248201527f4c3a3400000000000000000000000000000000000000000000000000000000006044820152606401610cf4565b855160006141cc612747565b90506127106141dc606484615e4a565b6141e69190615e7e565b95506141f28683615af0565b9650806bffffffffffffffffffffffff16876bffffffffffffffffffffffff161015614227576142228782615ac3565b61422a565b60005b94506103e8886020015161423e9190615a6c565b935087604001519250505091939590929450565b806bffffffffffffffffffffffff163410156142b05760405162461bcd60e51b815260206004820152600360248201527f543a3200000000000000000000000000000000000000000000000000000000006044820152606401610cf4565b600a5460006142be83614e39565b905061435b6142cd8284615af0565b61433783866142dc8760601c90565b6142e69190615af0565b6142f09190615ac3565b7fffffffffffffffff000000000000000000000000ffffffffffffffffffffffff861660609190911b77ffffffffffffffffffffffff000000000000000000000000161790565b6bffffffffffffffffffffffff19166bffffffffffffffffffffffff919091161790565b600a557fcc7b20c8500e3dfc952e445cc296459e4e7148bead08f530844981e1c1236e4e6143898285615ac3565b604080516bffffffffffffffffffffffff928316815291841660208301520161187c565b6000806143cc836020015184604001518560000151866060015161309b565b9094909350915050565b60006143e28260c01c90565b67ffffffffffffffff161561441e576143fb8260c01c90565b67ffffffffffffffff1661440f8360601c90565b6144199190615e7e565b610c8f565b600092915050565b604080516008808252610120820190925292821c67ffffffffffffffff1692606091602082016101008036833701905050905060005b60088110156144a6578360ff1682828151811061447b5761447b615cda565b60ff9092166020928302919091019091015260089390931c928061449e81615d45565b91505061445c565b5092915050565b600060085b801561450e576144c3600182615db9565b6144ce906008615d9a565b836144da600184615db9565b815181106144ea576144ea615cda565b602002602001015160ff16901b82179150808061450690615d2e565b9150506144b2565b5067ffffffffffffffff60ff84161b19841681841b176126ad565b61453333836132c2565b61457f5760405162461bcd60e51b815260206004820152600360248201527f503a3200000000000000000000000000000000000000000000000000000000006044820152606401610cf4565b600061458a83612070565b90506145968183614fa4565b6001600160a01b0384166000818152600860209081526040918290208490558151928352820183905261ffff8516908201529091507f1e3ac88633ac111203e2a7614365c5e3df507302c9fb545dd85d8fcef753afce9060600161187c565b6145ff33836132c2565b61464b5760405162461bcd60e51b815260206004820152600360248201527f503a3400000000000000000000000000000000000000000000000000000000006044820152606401610cf4565b600061465683612070565b90506146628183615067565b6001600160a01b0384166000818152600860209081526040918290208490558151928352820183905261ffff8516908201529091507f399c4ec95d9ea42a0f3dda50055e3a2901f9640121b0b29865e688c08188596b9060600161187c565b60006146cf846080856144ad565b90506126ad8160c0846144ad565b600063ffffffff82111561324857600080fd5b6000610c8f82615158565b600060608261474c5760405162461bcd60e51b815260206004820152600360248201527f503a3800000000000000000000000000000000000000000000000000000000006044820152606401610cf4565b600061475b6007546000614426565b60408051600880825261012082019092529192506020820161010080368337019050509150600061478d856000614426565b90506147cd816000815181106147a5576147a5615cda565b6020026020010151836000815181106147c0576147c0615cda565b6020026020010151615233565b6147d8906001615d09565b836000815181106147eb576147eb615cda565b602002602001019060ff16908160ff16815250506148308160018151811061481557614815615cda565b6020026020010151836001815181106147c0576147c0615cda565b61483b906001615d09565b8360018151811061484e5761484e615cda565b602002602001019060ff16908160ff16815250506148938160028151811061487857614878615cda565b6020026020010151836002815181106147c0576147c0615cda565b61489e906001615d09565b836002815181106148b1576148b1615cda565b602002602001019060ff16908160ff1681525050603c816003815181106148da576148da615cda565b602002602001015160ff1610156149535761491c8160048151811061490157614901615cda565b6020026020010151836003815181106147c0576147c0615cda565b614927906001615d09565b8360038151811061493a5761493a615cda565b602002602001019060ff16908160ff1681525050614afb565b60788160038151811061496857614968615cda565b602002602001015160ff1610156149c8576149aa8160048151811061498f5761498f615cda565b6020026020010151836004815181106147c0576147c0615cda565b6149b5906001615d09565b8360048151811061493a5761493a615cda565b60b4816003815181106149dd576149dd615cda565b602002602001015160ff161015614a3d57614a1f81600481518110614a0457614a04615cda565b6020026020010151836005815181106147c0576147c0615cda565b614a2a906001615d09565b8360058151811061493a5761493a615cda565b60f081600381518110614a5257614a52615cda565b602002602001015160ff161015614ab257614a9481600481518110614a7957614a79615cda565b6020026020010151836006815181106147c0576147c0615cda565b614a9f906001615d09565b8360068151811061493a5761493a615cda565b614ac881600481518110614a7957614a79615cda565b614ad3906001615d09565b83600681518110614ae657614ae6615cda565b602002602001019060ff16908160ff16815250505b614b07846000856144ad565b93505050915091565b806060808080614b21856000614426565b9350614b2e866040614426565b9250614b3b866080614426565b9150614b488660c0614426565b905091939590929450565b6000614b5e82612070565b151592915050565b60007fff00000000ffffffffffffffffffffffffffffffffffffffffffffffffffffff83167effffffff00000000000000000000000000000000000000000000000000000060d884901b1617612711565b600073ffffffffffffffffffffffffffffffffffffffff1983166001600160a01b03831617612711565b600061271183600160ff85614bf7576000614bfa565b60015b60ff16811b600190921b6000190160ff919091161b19919091161790565b600080614c2b6509184e72a00084615e9d565b9050614c6e84603860a0614c456509184e72a00088615e7e565b6bffffffffffffffffffffffff16811b600190921b6000190160ff919091161b19919091161790565b91509250929050565b60007fbfffffffffffffffffffffffffffffffffffffffffffffffffffffffffffffff82167f400000000000000000000000000000000000000000000000000000000000000017610c8f565b6040805160808101825260006020820181905291810182905260608101919091528254808252614cf161195b565b63ffffffff1660408301526001600160a01b0383166060830152614d1481614e25565b6001600160a01b0316836001600160a01b03161415614d3957602082018190526144a6565b6001600160a01b0383166000908152600185016020908152604090912054908301525092915050565b600080600080614d71886130ed565b9050614d7c34613f07565b614d869086615af0565b9450846bffffffffffffffffffffffff16614da082613ee9565b6bffffffffffffffffffffffff161115614dfc5760405162461bcd60e51b815260206004820152600360248201527f533a4700000000000000000000000000000000000000000000000000000000006044820152606401610cf4565b614e09878787600061309b565b9094509150614e188186615ac3565b9250509450945094915050565b6000610c8f6001600160a01b038316613232565b6000612710614e4a6103e884615e4a565b610c8f9190615e7e565b6000614e608360c01c90565b614e6a9083615ec8565b915077ffffffffffffffffffffffffffffffffffffffffffffffff831660c083901b7fffffffffffffffff0000000000000000000000000000000000000000000000001617612711565b6000614ec08360601c90565b614eca9083615af0565b91507fffffffffffffffff000000000000000000000000ffffffffffffffffffffffff8316606083901b77ffffffffffffffffffffffff0000000000000000000000001617612711565b6000614f208383615af0565b91506bffffffffffffffffffffffff82166bffffffffffffffffffffffff19841617612711565b600081614f548460c01c90565b614e6a9190615eeb565b600081614f6b8460601c90565b614eca9190615ac3565b60006509184e72a000613ed68184615e7e565b600080614f9361195b565b9050614f9e81615158565b91509091565b600080614fb2846040614426565b805190915060ff600885901c81169190851690839083908110614fd757614fd7615cda565b602002602001015160ff166000146150315760405162461bcd60e51b815260206004820152600360248201527f503a4400000000000000000000000000000000000000000000000000000000006044820152606401610cf4565b80838360ff168151811061504757615047615cda565b602002602001019060ff16908160ff16815250506134a1866040856144ad565b600080615075846040614426565b905060ff600884901c8116908416816150d05760405162461bcd60e51b815260206004820152600360248201527f503a4600000000000000000000000000000000000000000000000000000000006044820152606401610cf4565b8060ff16838360ff16815181106150e9576150e9615cda565b602002602001015160ff16146151415760405162461bcd60e51b815260206004820152600360248201527f503a4500000000000000000000000000000000000000000000000000000000006044820152606401610cf4565b6000838360ff168151811061504757615047615cda565b6000806151648361528f565b90506000615173600283615db9565b409050806151c35760405162461bcd60e51b815260206004820152600360248201527f453a3000000000000000000000000000000000000000000000000000000000006044820152606401610cf4565b6040805160208082019390935260e09590951b7fffffffff0000000000000000000000000000000000000000000000000000000016858201523060601b6bffffffffffffffffffffffff191660448601528051603881870301815260589095019052835193019290922092915050565b600060ff82166152855760405162461bcd60e51b815260206004820152600360248201527f503a3900000000000000000000000000000000000000000000000000000000006044820152606401610cf4565b6127118284615f0c565b60007f000000000000000000000000000000000000000000000000000000000000000060456152c0610bb885615f2e565b6152ca9190615f4b565b63ffffffff16610c8f9190615f6e565b6000602082840312156152ec57600080fd5b81357fffffffff000000000000000000000000000000000000000000000000000000008116811461271157600080fd5b6001600160a01b038116811461170b57600080fd5b60006020828403121561534357600080fd5b81356127118161531c565b60005b83811015615369578181015183820152602001615351565b8381111561206a5750506000910152565b6000815180845261539281602086016020860161534e565b601f01601f19169290920160200192915050565b602081526000612711602083018461537a565b6000602082840312156153cb57600080fd5b5035919050565b600080604083850312156153e557600080fd5b82356153f08161531c565b946020939093013593505050565b803561ffff8116811461304957600080fd5b60008060006060848603121561542557600080fd5b83356154308161531c565b925060208401356154408161531c565b915061544e604085016153fe565b90509250925092565b6000806040838503121561546a57600080fd5b82356154758161531c565b91506020830135801515811461548a57600080fd5b809150509250929050565b6000806000606084860312156154aa57600080fd5b83356154b58161531c565b925060208401356154c58161531c565b929592945050506040919091013590565b600080604083850312156154e957600080fd5b82356154f48161531c565b9150602083013561548a8161531c565b600081518084526020808501945080840160005b8381101561553757815160ff1687529582019590820190600101615518565b509495945050505050565b6020815281516020820152602082015160408201526000604083015161016080606085015261557561018085018361537a565b91506060850151601f1980868503016080870152615593848361537a565b9350608087015191506155b160a08701836001600160a01b03169052565b60a087015160c087015260c087015160e087015260e087015191506101008187860301818801526155e28584615504565b9450808801519250506101208187860301818801526156018584615504565b9450808801519250506101408187860301818801526156208584615504565b9088015187820390920184880152935090506134a18382615504565b6000806040838503121561564f57600080fd5b82359150602083013561548a8161531c565b60ff8116811461170b57600080fd5b6000806040838503121561568357600080fd5b823561568e8161531c565b9150602083013561548a81615661565b7f4e487b7100000000000000000000000000000000000000000000000000000000600052604160045260246000fd5b604051601f8201601f1916810167ffffffffffffffff811182821017156156f6576156f661569e565b604052919050565b600067ffffffffffffffff8211156157185761571861569e565b50601f01601f191660200190565b6000806000806080858703121561573c57600080fd5b84356157478161531c565b935060208501356157578161531c565b925060408501359150606085013567ffffffffffffffff81111561577a57600080fd5b8501601f8101871361578b57600080fd5b803561579e615799826156fe565b6156cd565b8181528860208385010111156157b357600080fd5b8160208401602083013760006020838301015280935050505092959194509250565b80356bffffffffffffffffffffffff8116811461304957600080fd5b6000806040838503121561580457600080fd5b823561580f8161531c565b91506135f5602084016157d5565b60008060006040848603121561583257600080fd5b833567ffffffffffffffff8082111561584a57600080fd5b818601915086601f83011261585e57600080fd5b81358181111561586d57600080fd5b8760208260051b850101111561588257600080fd5b6020928301955093505084013561589881615661565b809150509250925092565b6000806000606084860312156158b857600080fd5b83356158c38161531c565b92506158d1602085016153fe565b915061544e604085016157d5565b600082601f8301126158f057600080fd5b8135602067ffffffffffffffff82111561590c5761590c61569e565b8160051b61591b8282016156cd565b928352848101820192828101908785111561593557600080fd5b83870192505b8483101561595d57823561594e81615661565b8252918301919083019061593b565b979650505050505050565b60008060006060848603121561597d57600080fd5b83356159888161531c565b9250602084013567ffffffffffffffff808211156159a557600080fd5b6159b1878388016158df565b935060408601359150808211156159c757600080fd5b506159d4868287016158df565b9150509250925092565b85815260a0602082015260006159f760a0830187615504565b8281036040840152615a098187615504565b90508281036060840152615a1d8186615504565b90508281036080840152615a318185615504565b98975050505050505050565b7f4e487b7100000000000000000000000000000000000000000000000000000000600052601160045260246000fd5b600063ffffffff808316818516808303821115615a8b57615a8b615a3d565b01949350505050565b7f4e487b7100000000000000000000000000000000000000000000000000000000600052600160045260246000fd5b60006bffffffffffffffffffffffff83811690831681811015615ae857615ae8615a3d565b039392505050565b60006bffffffffffffffffffffffff808316818516808303821115615a8b57615a8b615a3d565b600060208284031215615b2957600080fd5b815167ffffffffffffffff811115615b4057600080fd5b8201601f81018413615b5157600080fd5b8051615b5f615799826156fe565b818152856020838501011115615b7457600080fd5b6136e582602083016020860161534e565b81835260007f07ffffffffffffffffffffffffffffffffffffffffffffffffffffffffffffff831115615bb757600080fd5b8260051b8083602087013760009401602001938452509192915050565b60006040820160ff8616835260206040818501528185835260608501905060059250606086841b8601018760005b88811015615cae577fffffffffffffffffffffffffffffffffffffffffffffffffffffffffffffffa088840301845281357fffffffffffffffffffffffffffffffffffffffffffffffffffffffffffffffe18b3603018112615c6357600080fd5b8a01803567ffffffffffffffff811115615c7c57600080fd5b80881b36038c1315615c8d57600080fd5b615c9a8582898501615b85565b958701959450505090840190600101615c02565b50909998505050505050505050565b600060208284031215615ccf57600080fd5b815161271181615661565b7f4e487b7100000000000000000000000000000000000000000000000000000000600052603260045260246000fd5b600060ff821660ff84168060ff03821115615d2657615d26615a3d565b019392505050565b600081615d3d57615d3d615a3d565b506000190190565b6000600019821415615d5957615d59615a3d565b5060010190565b6001600160a01b0385168152836020820152608060408201526000615d886080830185615504565b828103606084015261595d8185615504565b6000816000190483118215151615615db457615db4615a3d565b500290565b600082821015615dcb57615dcb615a3d565b500390565b6001600160a01b03841681528260208201526060604082015260006136e56060830184615504565b7f4e487b7100000000000000000000000000000000000000000000000000000000600052601260045260246000fd5b600063ffffffff80841680615e3e57615e3e615df8565b92169190910492915050565b60006bffffffffffffffffffffffff80831681851681830481118215151615615e7557615e75615a3d565b02949350505050565b60006bffffffffffffffffffffffff80841680615e3e57615e3e615df8565b60006bffffffffffffffffffffffff80841680615ebc57615ebc615df8565b92169190910692915050565b600067ffffffffffffffff808316818516808303821115615a8b57615a8b615a3d565b600067ffffffffffffffff83811690831681811015615ae857615ae8615a3d565b600060ff831680615f1f57615f1f615df8565b8060ff84160691505092915050565b600063ffffffff83811690831681811015615ae857615ae8615a3d565b600063ffffffff80831681851681830481118215151615615e7557615e75615a3d565b60008219821115615f8157615f81615a3d565b50019056fea264697066735822122019fa338daada7d8c1c5c1ca7eb3473b8f38347522315fbe5303f6c92e4abc1ac64736f6c63430008090033",
  "devdoc": {
    "kind": "dev",
    "methods": {
      "approve(address,uint256)": {
        "details": "The zero address indicates there is no approved address.  Throws unless `msg.sender` is the current NFT owner, or an authorized  operator of the current owner.",
        "params": {
          "_approved": "The new approved NFT controller",
          "_tokenId": "The NFT to approve"
        }
      },
      "burn(uint160)": {
        "details": "should only be called directly",
        "params": {
          "tokenId": "the id of the nugg being burned"
        }
      },
      "ethPerShare()": {
        "details": "this value not always equivilent to the \"floor\" price which can consist of perceived value. can be looked at as an \"intrinsic floor\"this is the value that users will receive when their either burn or loan out nuggs",
        "returns": {
          "res": "-> [current staked eth] / [current staked shares]"
        }
      },
      "extractProtocolEth()": {
        "details": "caller must be a trusted user"
      },
      "getApproved(uint256)": {
        "details": "Throws if `_tokenId` is not a valid NFT.",
        "params": {
          "_tokenId": "The NFT to find the approved address for"
        },
        "returns": {
          "_0": "The approved address for this NFT, or the zero address if there is none"
        }
      },
      "isApprovedForAll(address,address)": {
        "params": {
          "_operator": "The address that acts on behalf of the owner",
          "_owner": "The address that owns the NFTs"
        },
        "returns": {
          "_0": "True if `_operator` is an approved operator for `_owner`, false otherwise"
        }
      },
      "loanInfo(uint160)": {
        "details": "contract ->frontend -> used to set the amount of eth for user",
        "params": {
          "tokenId": "the token who's current loan to check"
        },
        "returns": {
          "earned": "-> the amount of eth the minSharePrice has increased since loan was last rebalanced",
          "epochDue": "-> the final epoch a user is safe from liquidation (inclusive)",
          "loaner": "-> the user responsable for the loan",
          "toPayoff": "->  the current amount loaned out, plus the final rebalance fee",
          "toRebalance": "->  the fee a user must pay to rebalance (and extend) the loan on their nugg"
        }
      },
      "minSharePrice()": {
        "details": "premium here is used to push against dillution of supply through ensuring the price always increasesused by the front end",
        "returns": {
          "res": "-> premium + protcolFee + ethPerShare"
        }
      },
      "ownerOf(uint256)": {
        "details": "NFTs assigned to zero address are considered invalid, and queries  about them do throw.",
        "params": {
          "_tokenId": "The identifier for an NFT"
        },
        "returns": {
          "_0": "The address of the owner of the NFT"
        }
      },
      "protocolEth()": {
        "details": "this will be",
        "returns": {
          "res": "-> (PROTOCOL_FEE_BPS * [all eth staked] / 10000) - [all previously extracted eth]"
        }
      },
      "setApprovalForAll(address,bool)": {
        "details": "Emits the ApprovalForAll event. The contract MUST allow  multiple operators per owner.",
        "params": {
          "_approved": "True if the operator is approved, false to revoke approval",
          "_operator": "Address to add to the set of authorized operators"
        }
      },
      "setMigrator(address)": {
        "details": "caller must be a trusted user",
        "params": {
          "migrator": "the address to set as the migrator contract"
        }
      },
      "stakedEth()": {
        "details": "can be used as the market-cap or tvl of all nuggft v1not equivilent to the balance of eth the contract holds, which also hs protocolEth and unclaimed eth from unsuccessful swaps"
      },
      "stakedShares()": {
        "details": "this is equivilent to the amount of nuggs in existance"
      },
      "supportsInterface(bytes4)": {
        "details": "Interface identification is specified in ERC-165. This function  uses less than 30,000 gas.",
        "params": {
          "interfaceID": "The interface identifier, as specified in ERC-165"
        },
        "returns": {
          "_0": "`true` if the contract implements `interfaceID` and  `interfaceID` is not 0xffffffff, `false` otherwise"
        }
      },
      "tokenURI(uint256)": {
        "details": "Throws if `_tokenId` is not a valid NFT. URIs are defined in RFC  3986. The URI may point to a JSON file that conforms to the \"ERC721  Metadata JSON Schema\"."
      },
      "valueForDelegate(address,uint160)": {
        "details": "returns 0 if no delegate can be made for this oken",
        "params": {
          "sender": "-> the address of the user who will be delegating",
          "tokenId": "-> the token to be delegated to"
        },
        "returns": {
          "canDelegate": "-> instead of reverting this function will return false",
          "nextSwapAmount": "-> the minimum value that must be sent with a delegate call",
          "senderCurrentOffer": "->"
        }
      },
      "valueForPayoff(uint160)": {
        "details": "should be used to tell user how much eth to send for payoff"
      },
      "valueForRebalance(uint160)": {
        "details": "should be used to tell user how much eth to send for rebalance"
      }
    },
    "version": 1
  },
  "userdoc": {
    "events": {
      "Genesis(uint256,uint32,uint32)": {
        "notice": "Explain to an end user what this does"
      }
    },
    "kind": "user",
    "methods": {
      "approve(address,uint256)": {
        "notice": "Change or reaffirm the approved address for an NFT"
      },
      "burn(uint160)": {
        "notice": "burns a nugg from existance, dealing the eth worth of that share to the user"
      },
      "ethPerShare()": {
        "notice": "returns the total \"ethPerShare\" held by the contract"
      },
      "extractProtocolEth()": {
        "notice": "sends the current protocolEth to the user and resets the value to zero"
      },
      "getApproved(uint256)": {
        "notice": "Get the approved address for a single NFT"
      },
      "isApprovedForAll(address,address)": {
        "notice": "Query if an address is an authorized operator for another address"
      },
      "loanInfo(uint160)": {
        "notice": "for a nugg's active loan: calculates the current min eth a user must send to payoff or rebalance"
      },
      "minSharePrice()": {
        "notice": "returns the minimum eth that must be added to create a new share"
      },
      "name()": {
        "notice": "A descriptive name for a collection of NFTs in this contract"
      },
      "ownerOf(uint256)": {
        "notice": "Find the owner of an NFT"
      },
      "protocolEth()": {
        "notice": "returns the amount of eth extractable by protocol"
      },
      "setApprovalForAll(address,bool)": {
        "notice": "Enable or disable approval for a third party (\"operator\") to manage  all of `msg.sender`'s assets"
      },
      "setMigrator(address)": {
        "notice": "sets the migrator contract"
      },
      "stakedEth()": {
        "notice": "returns the total amount of staked eth held by the contract"
      },
      "stakedShares()": {
        "notice": "returns the total number of staked shares held by the contract"
      },
      "supportsInterface(bytes4)": {
        "notice": "Query if a contract implements an interface"
      },
      "symbol()": {
        "notice": "An abbreviated name for NFTs in this contract"
      },
      "tokenURI(uint256)": {
        "notice": "A distinct Uniform Resource Identifier (URI) for a given asset."
      },
      "valueForDelegate(address,uint160)": {
        "notice": "calculates the minimum eth that must be sent with a delegate call"
      },
      "valueForPayoff(uint160)": {
        "notice": "\"toPayoff\" value from \"loanInfo\""
      },
      "valueForRebalance(uint160)": {
        "notice": "\"toRebalance\" value from \"loanInfo\""
      }
    },
    "notice": "deviations from ERC721 standard: 1. no verificaiton the receiver is a ERC721Reciever - on top of this being a gross waste of gas, the way the swapping logic works makes this only worth calling when a user places an offer - and we did not want to call \"onERC721Recieved\" when no token was being sent. 2.",
    "version": 1
  },
  "storageLayout": {
    "storage": [
      {
        "astId": 11340,
        "contract": "src/NuggftV1.sol:NuggftV1",
        "label": "owners",
        "offset": 0,
        "slot": "0",
        "type": "t_mapping(t_uint256,t_address)"
      },
      {
        "astId": 11344,
        "contract": "src/NuggftV1.sol:NuggftV1",
        "label": "approvals",
        "offset": 0,
        "slot": "1",
        "type": "t_mapping(t_uint256,t_address)"
      },
      {
        "astId": 11350,
        "contract": "src/NuggftV1.sol:NuggftV1",
        "label": "operatorApprovals",
        "offset": 0,
        "slot": "2",
        "type": "t_mapping(t_address,t_mapping(t_address,t_bool))"
      },
      {
        "astId": 11784,
        "contract": "src/NuggftV1.sol:NuggftV1",
        "label": "isTrusted",
        "offset": 0,
        "slot": "3",
        "type": "t_mapping(t_address,t_bool)"
      },
      {
        "astId": 8227,
        "contract": "src/NuggftV1.sol:NuggftV1",
        "label": "dotnuggV1Processor",
        "offset": 0,
        "slot": "4",
        "type": "t_address"
      },
      {
        "astId": 8232,
        "contract": "src/NuggftV1.sol:NuggftV1",
        "label": "dotnuggV1DefaultWidth",
        "offset": 20,
        "slot": "4",
        "type": "t_uint8"
      },
      {
        "astId": 8237,
        "contract": "src/NuggftV1.sol:NuggftV1",
        "label": "dotnuggV1DefaultZoom",
        "offset": 21,
        "slot": "4",
        "type": "t_uint8"
      },
      {
        "astId": 8242,
        "contract": "src/NuggftV1.sol:NuggftV1",
        "label": "sstore2Pointers",
        "offset": 0,
        "slot": "5",
        "type": "t_mapping(t_uint8,t_array(t_uint168)dyn_storage)"
      },
      {
        "astId": 8246,
        "contract": "src/NuggftV1.sol:NuggftV1",
        "label": "resolvers",
        "offset": 0,
        "slot": "6",
        "type": "t_mapping(t_uint256,t_address)"
      },
      {
        "astId": 8248,
        "contract": "src/NuggftV1.sol:NuggftV1",
        "label": "featureLengths",
        "offset": 0,
        "slot": "7",
        "type": "t_uint256"
      },
      {
        "astId": 9055,
        "contract": "src/NuggftV1.sol:NuggftV1",
        "label": "proofs",
        "offset": 0,
        "slot": "8",
        "type": "t_mapping(t_uint160,t_uint256)"
      },
      {
        "astId": 9754,
        "contract": "src/NuggftV1.sol:NuggftV1",
        "label": "migrator",
        "offset": 0,
        "slot": "9",
        "type": "t_address"
      },
      {
        "astId": 9756,
        "contract": "src/NuggftV1.sol:NuggftV1",
        "label": "stake",
        "offset": 0,
        "slot": "10",
        "type": "t_uint256"
      },
      {
        "astId": 10164,
        "contract": "src/NuggftV1.sol:NuggftV1",
        "label": "protocolItems",
        "offset": 0,
        "slot": "11",
        "type": "t_mapping(t_uint16,t_uint256)"
      },
      {
        "astId": 10169,
        "contract": "src/NuggftV1.sol:NuggftV1",
        "label": "swaps",
        "offset": 0,
        "slot": "12",
        "type": "t_mapping(t_uint160,t_struct(Mapping)10144_storage)"
      },
      {
        "astId": 8600,
        "contract": "src/NuggftV1.sol:NuggftV1",
        "label": "loans",
        "offset": 0,
        "slot": "13",
        "type": "t_mapping(t_uint160,t_uint256)"
      }
    ],
    "types": {
      "t_address": {
        "encoding": "inplace",
        "label": "address",
        "numberOfBytes": "20"
      },
      "t_array(t_uint168)dyn_storage": {
        "base": "t_uint168",
        "encoding": "dynamic_array",
        "label": "uint168[]",
        "numberOfBytes": "32"
      },
      "t_bool": {
        "encoding": "inplace",
        "label": "bool",
        "numberOfBytes": "1"
      },
      "t_mapping(t_address,t_bool)": {
        "encoding": "mapping",
        "key": "t_address",
        "label": "mapping(address => bool)",
        "numberOfBytes": "32",
        "value": "t_bool"
      },
      "t_mapping(t_address,t_mapping(t_address,t_bool))": {
        "encoding": "mapping",
        "key": "t_address",
        "label": "mapping(address => mapping(address => bool))",
        "numberOfBytes": "32",
        "value": "t_mapping(t_address,t_bool)"
      },
      "t_mapping(t_address,t_uint256)": {
        "encoding": "mapping",
        "key": "t_address",
        "label": "mapping(address => uint256)",
        "numberOfBytes": "32",
        "value": "t_uint256"
      },
      "t_mapping(t_uint16,t_struct(Storage)10151_storage)": {
        "encoding": "mapping",
        "key": "t_uint16",
        "label": "mapping(uint16 => struct NuggftV1Swap.Storage)",
        "numberOfBytes": "32",
        "value": "t_struct(Storage)10151_storage"
      },
      "t_mapping(t_uint16,t_uint256)": {
        "encoding": "mapping",
        "key": "t_uint16",
        "label": "mapping(uint16 => uint256)",
        "numberOfBytes": "32",
        "value": "t_uint256"
      },
      "t_mapping(t_uint160,t_struct(Mapping)10144_storage)": {
        "encoding": "mapping",
        "key": "t_uint160",
        "label": "mapping(uint160 => struct NuggftV1Swap.Mapping)",
        "numberOfBytes": "32",
        "value": "t_struct(Mapping)10144_storage"
      },
      "t_mapping(t_uint160,t_uint256)": {
        "encoding": "mapping",
        "key": "t_uint160",
        "label": "mapping(uint160 => uint256)",
        "numberOfBytes": "32",
        "value": "t_uint256"
      },
      "t_mapping(t_uint256,t_address)": {
        "encoding": "mapping",
        "key": "t_uint256",
        "label": "mapping(uint256 => address)",
        "numberOfBytes": "32",
        "value": "t_address"
      },
      "t_mapping(t_uint8,t_array(t_uint168)dyn_storage)": {
        "encoding": "mapping",
        "key": "t_uint8",
        "label": "mapping(uint8 => uint168[])",
        "numberOfBytes": "32",
        "value": "t_array(t_uint168)dyn_storage"
      },
      "t_struct(Mapping)10144_storage": {
        "encoding": "inplace",
        "label": "struct NuggftV1Swap.Mapping",
        "members": [
          {
            "astId": 10138,
            "contract": "src/NuggftV1.sol:NuggftV1",
            "label": "self",
            "offset": 0,
            "slot": "0",
            "type": "t_struct(Storage)10151_storage"
          },
          {
            "astId": 10143,
            "contract": "src/NuggftV1.sol:NuggftV1",
            "label": "items",
            "offset": 0,
            "slot": "2",
            "type": "t_mapping(t_uint16,t_struct(Storage)10151_storage)"
          }
        ],
        "numberOfBytes": "96"
      },
      "t_struct(Storage)10151_storage": {
        "encoding": "inplace",
        "label": "struct NuggftV1Swap.Storage",
        "members": [
          {
            "astId": 10146,
            "contract": "src/NuggftV1.sol:NuggftV1",
            "label": "data",
            "offset": 0,
            "slot": "0",
            "type": "t_uint256"
          },
          {
            "astId": 10150,
            "contract": "src/NuggftV1.sol:NuggftV1",
            "label": "offers",
            "offset": 0,
            "slot": "1",
            "type": "t_mapping(t_address,t_uint256)"
          }
        ],
        "numberOfBytes": "64"
      },
      "t_uint16": {
        "encoding": "inplace",
        "label": "uint16",
        "numberOfBytes": "2"
      },
      "t_uint160": {
        "encoding": "inplace",
        "label": "uint160",
        "numberOfBytes": "20"
      },
      "t_uint168": {
        "encoding": "inplace",
        "label": "uint168",
        "numberOfBytes": "21"
      },
      "t_uint256": {
        "encoding": "inplace",
        "label": "uint256",
        "numberOfBytes": "32"
      },
      "t_uint8": {
        "encoding": "inplace",
        "label": "uint8",
        "numberOfBytes": "1"
      }
    }
  }
}