{
  "address": "0x42069Cc11cb3f4Df466A2397D259b8b7cf4125eE",
  "abi": [
    {
      "inputs": [],
      "stateMutability": "nonpayable",
      "type": "constructor"
    },
    {
      "anonymous": false,
      "inputs": [
        {
          "indexed": true,
          "internalType": "address",
          "name": "deployer",
          "type": "address"
        }
      ],
      "name": "Launched",
      "type": "event"
    },
    {
      "stateMutability": "payable",
      "type": "fallback"
    },
    {
      "inputs": [],
      "name": "deployer",
      "outputs": [
        {
          "internalType": "address",
          "name": "",
          "type": "address"
        }
      ],
      "stateMutability": "view",
      "type": "function"
    },
    {
      "inputs": [],
      "name": "depositETH",
      "outputs": [],
      "stateMutability": "payable",
      "type": "function"
    },
    {
      "inputs": [
        {
          "internalType": "uint256",
          "name": "amount",
          "type": "uint256"
        }
      ],
      "name": "depositWETH",
      "outputs": [],
      "stateMutability": "nonpayable",
      "type": "function"
    },
    {
      "inputs": [
        {
          "internalType": "bytes",
          "name": "data",
          "type": "bytes"
        }
      ],
      "name": "launch",
      "outputs": [],
      "stateMutability": "nonpayable",
      "type": "function"
    },
    {
      "inputs": [],
      "name": "launched",
      "outputs": [
        {
          "internalType": "bool",
          "name": "",
          "type": "bool"
        }
      ],
      "stateMutability": "view",
      "type": "function"
    },
    {
      "inputs": [],
      "name": "nuggGet",
      "outputs": [],
      "stateMutability": "nonpayable",
      "type": "function"
    },
    {
      "inputs": [],
      "name": "nuggSet",
      "outputs": [],
      "stateMutability": "nonpayable",
      "type": "function"
    },
    {
      "inputs": [
        {
          "internalType": "contract IERC20",
          "name": "token",
          "type": "address"
        },
        {
          "internalType": "uint256",
          "name": "amount",
          "type": "uint256"
        }
      ],
      "name": "rescueERC20",
      "outputs": [],
      "stateMutability": "nonpayable",
      "type": "function"
    },
    {
      "inputs": [],
      "name": "rescueETH",
      "outputs": [],
      "stateMutability": "nonpayable",
      "type": "function"
    },
    {
      "inputs": [],
      "name": "rescueWETH",
      "outputs": [],
      "stateMutability": "nonpayable",
      "type": "function"
    },
    {
      "stateMutability": "payable",
      "type": "receive"
    }
  ],
  "transactionHash": "0xd00692c2f6a6e2b42df87275c0e104659835df1c8c8fc1fcb82cdcd9f6f8f325",
  "args": [],
  "solcInputHash": "24ac09d9bc97ff10fe4e0604109f49d6",
  "bytecode": "0x60806040526001805460ff191690556003805460ff60a01b1916905534801561002757600080fd5b5060408051602080820183526000918290528251908101909252600191829052805460ff1916821790554614610064576001805460ff1916811790555b600280546001600160a01b031990811632179091556003805490911633179055610c49806100936000396000f3fe6080604052600436106100855760003560e01c806320800a00146100c25780633beba2ee146100d757806354761214146100ec57806366dd0f24146101015780638091f3bf146101215780638cd4426d14610150578063c38ec0b614610170578063c415f75914610185578063d5f39488146101a5578063f6326fb3146101cb576100b0565b366100b0576005546001600160a01b0316335b6001600160a01b0316146100ae576100ae6101cf565b005b6005546001600160a01b031633610098565b3480156100ce57600080fd5b506100ae610227565b3480156100e357600080fd5b506100ae610268565b3480156100f857600080fd5b506100ae61029f565b34801561010d57600080fd5b506100ae61011c366004610b79565b6102c7565b34801561012d57600080fd5b50600354600160a01b900460ff1660405190151581526020015b60405180910390f35b34801561015c57600080fd5b506100ae61016b366004610b4e565b6104de565b34801561017c57600080fd5b506100ae610625565b34801561019157600080fd5b506100ae6101a0366004610aa4565b61074f565b3480156101b157600080fd5b506002546001600160a01b03166040516101479190610ba9565b6100ae5b6000805460ff16600214156101ff5760405162461bcd60e51b81526004016101f690610bbd565b60405180910390fd5b805460ff1916600217815561021a6102143390565b346107a0565b805460ff19166001179055565b6000805460ff166002141561024e5760405162461bcd60e51b81526004016101f690610bbd565b805460ff1916600217815561026330476107a0565b61021a565b60015460ff16801561028a57506001546001600160a01b036101009091041633145b61029357600080fd5b61029d3347610807565b565b60015460ff166102ae57600080fd5b60018054610100600160a81b0319163361010002179055565b6000805460ff16600214156102ee5760405162461bcd60e51b81526004016101f690610bbd565b805460ff1916600217815560055482906001600160a01b031663dd62ed3e6103133390565b6040516001600160e01b031960e084901b1681526001600160a01b03909116600482015230602482015260440160206040518083038186803b15801561035857600080fd5b505afa15801561036c573d6000803e3d6000fd5b505050506040513d601f19601f820116820180604052508101906103909190610b91565b10156103c95760405162461bcd60e51b815260206004820152600860248201526704e45523a44573a360c41b60448201526064016101f6565b6005546001600160a01b03166323b872dd336040516001600160e01b031960e084901b1681526001600160a01b03909116600482015230602482015260448101859052606401602060405180830381600087803b15801561042957600080fd5b505af115801561043d573d6000803e3d6000fd5b505050506040513d601f19601f820116820180604052508101906104619190610a84565b50600554604051632e1a7d4d60e01b8152600481018490526001600160a01b0390911690632e1a7d4d90602401600060405180830381600087803b1580156104a857600080fd5b505af11580156104bc573d6000803e3d6000fd5b505050506104d06104ca3390565b836107a0565b805460ff1916600117905550565b6000805460ff16600214156105055760405162461bcd60e51b81526004016101f690610bbd565b805460ff19166002178155600480546040805163f9a0388160e01b815290516001600160a01b038088169463095ea7b3949091169263f9a0388192818301926020928290030181600087803b15801561055d57600080fd5b505af1158015610571573d6000803e3d6000fd5b505050506040513d601f19601f820116820180604052508101906105959190610a28565b6040516001600160e01b031960e084901b1681526001600160a01b03909116600482015260248101859052604401602060405180830381600087803b1580156105dd57600080fd5b505af11580156105f1573d6000803e3d6000fd5b505050506040513d601f19601f820116820180604052508101906106159190610a84565b50805460ff191660011790555050565b6000805460ff166002141561064c5760405162461bcd60e51b81526004016101f690610bbd565b805460ff191660021781556005546040516370a0823160e01b81526000916001600160a01b0316906370a0823190610688903090600401610ba9565b60206040518083038186803b1580156106a057600080fd5b505afa1580156106b4573d6000803e3d6000fd5b505050506040513d601f19601f820116820180604052508101906106d89190610b91565b600554604051632e1a7d4d60e01b8152600481018390529192506001600160a01b031690632e1a7d4d90602401600060405180830381600087803b15801561071f57600080fd5b505af1158015610733573d6000803e3d6000fd5b5050505061074130826107a0565b50805460ff19166001179055565b6107588161081e565b6000808280602001905181019061076f9190610a4b565b600480546001600160a01b039384166001600160a01b03199182161790915560058054929093169116179055505050565b60048054604051633febada760e01b81526001600160a01b0390911691633febada79184916107d191879101610ba9565b6000604051808303818588803b1580156107ea57600080fd5b505af11580156107fe573d6000803e3d6000fd5b50505050505050565b61081a6001600160a01b0383168261090d565b5050565b6002546001600160a01b031633148061084157506003546001600160a01b031633145b6108795760405162461bcd60e51b815260206004820152600960248201526804c41553a4c41553a360bc1b60448201526064016101f6565b600354600160a01b900460ff16156108bf5760405162461bcd60e51b81526020600482015260096024820152684c41553a4c41553a3160b81b60448201526064016101f6565b6003805460ff60a01b1916600160a01b1790556002546040516001600160a01b03909116907fb900795bb40f8a7bc484866009ca19ebf7b277001a839428e1b8e1a21d8e216c90600090a250565b8047101561095d5760405162461bcd60e51b815260206004820152601d60248201527f416464726573733a20696e73756666696369656e742062616c616e636500000060448201526064016101f6565b6000826001600160a01b03168260405160006040518083038185875af1925050503d80600081146109aa576040519150601f19603f3d011682016040523d82523d6000602084013e6109af565b606091505b5050905080610a235760405162461bcd60e51b815260206004820152603a60248201527f416464726573733a20756e61626c6520746f2073656e642076616c75652c20726044820152791958da5c1a595b9d081b585e481a185d99481c995d995c9d195960321b60648201526084016101f6565b505050565b600060208284031215610a39578081fd5b8151610a4481610bfb565b9392505050565b60008060408385031215610a5d578081fd5b8251610a6881610bfb565b6020840151909250610a7981610bfb565b809150509250929050565b600060208284031215610a95578081fd5b81518015158114610a44578182fd5b600060208284031215610ab5578081fd5b813567ffffffffffffffff80821115610acc578283fd5b818401915084601f830112610adf578283fd5b813581811115610af157610af1610be5565b604051601f8201601f19908116603f01168101908382118183101715610b1957610b19610be5565b81604052828152876020848701011115610b31578586fd5b826020860160208301379182016020019490945295945050505050565b60008060408385031215610b60578182fd5b8235610b6b81610bfb565b946020939093013593505050565b600060208284031215610b8a578081fd5b5035919050565b600060208284031215610ba2578081fd5b5051919050565b6001600160a01b0391909116815260200190565b6020808252600e908201526d04d555445583a4c4f434b45443a360941b604082015260600190565b634e487b7160e01b600052604160045260246000fd5b6001600160a01b0381168114610c1057600080fd5b5056fea2646970667358221220c40ff4f8ca9f6d4a995b440c30fa1542214ab982c559192618d76a5eb06e835864736f6c63430008040033",
  "devdoc": {
    "author": "Nugg Labs - @danny7even & @dub6ix",
    "kind": "dev",
    "methods": {
      "deployer()": {
        "details": "#TODO"
      },
      "launched()": {
        "details": "#TODO"
      }
    },
    "title": "Testable",
    "version": 1
  },
  "userdoc": {
    "kind": "user",
    "methods": {},
    "notice": "commonly used and current exec context functions that sometimes require simple overriding in testing",
    "version": 1
  },
  "storageLayout": {
    "storage": [
      {
        "astId": 4767,
        "contract": "contracts/weth/NuggETHRelay.sol:NuggETHRelay",
        "label": "global",
        "offset": 0,
        "slot": "0",
        "type": "t_struct(Mutex)4758_storage"
      },
      {
        "astId": 5341,
        "contract": "contracts/weth/NuggETHRelay.sol:NuggETHRelay",
        "label": "inTesting",
        "offset": 0,
        "slot": "1",
        "type": "t_bool"
      },
      {
        "astId": 5356,
        "contract": "contracts/weth/NuggETHRelay.sol:NuggETHRelay",
        "label": "pw",
        "offset": 1,
        "slot": "1",
        "type": "t_address"
      },
      {
        "astId": 4664,
        "contract": "contracts/weth/NuggETHRelay.sol:NuggETHRelay",
        "label": "_deployer",
        "offset": 0,
        "slot": "2",
        "type": "t_address"
      },
      {
        "astId": 4666,
        "contract": "contracts/weth/NuggETHRelay.sol:NuggETHRelay",
        "label": "_deployerContract",
        "offset": 0,
        "slot": "3",
        "type": "t_address"
      },
      {
        "astId": 4669,
        "contract": "contracts/weth/NuggETHRelay.sol:NuggETHRelay",
        "label": "_launched",
        "offset": 20,
        "slot": "3",
        "type": "t_bool"
      },
      {
        "astId": 17044,
        "contract": "contracts/weth/NuggETHRelay.sol:NuggETHRelay",
        "label": "_NUGGETH",
        "offset": 0,
        "slot": "4",
        "type": "t_contract(INuggETH)17387"
      },
      {
        "astId": 17047,
        "contract": "contracts/weth/NuggETHRelay.sol:NuggETHRelay",
        "label": "_WETH",
        "offset": 0,
        "slot": "5",
        "type": "t_contract(IWETH9)14068"
      }
    ],
    "types": {
      "t_address": {
        "encoding": "inplace",
        "label": "address",
        "numberOfBytes": "20"
      },
      "t_bool": {
        "encoding": "inplace",
        "label": "bool",
        "numberOfBytes": "1"
      },
      "t_contract(INuggETH)17387": {
        "encoding": "inplace",
        "label": "contract INuggETH",
        "numberOfBytes": "20"
      },
      "t_contract(IWETH9)14068": {
        "encoding": "inplace",
        "label": "contract IWETH9",
        "numberOfBytes": "20"
      },
      "t_struct(Mutex)4758_storage": {
        "encoding": "inplace",
        "label": "struct Mutexable.Mutex",
        "members": [
          {
            "astId": 4757,
            "contract": "contracts/weth/NuggETHRelay.sol:NuggETHRelay",
            "label": "status",
            "offset": 0,
            "slot": "0",
            "type": "t_uint8"
          }
        ],
        "numberOfBytes": "32"
      },
      "t_uint8": {
        "encoding": "inplace",
        "label": "uint8",
        "numberOfBytes": "1"
      }
    }
  }
}