{
  "address": "0xE97b42Fb6753a806DeDc318e56fCb076d0676793",
  "abi": [
    {
      "inputs": [],
      "stateMutability": "nonpayable",
      "type": "constructor"
    },
    {
      "inputs": [],
      "name": "byebye",
      "outputs": [],
      "stateMutability": "nonpayable",
      "type": "function"
    },
    {
      "inputs": [
        {
          "internalType": "address",
          "name": "nuggftv1",
          "type": "address"
        },
        {
          "internalType": "uint160",
          "name": "start",
          "type": "uint160"
        },
        {
          "internalType": "uint160",
          "name": "amount",
          "type": "uint160"
        }
      ],
      "name": "claimem",
      "outputs": [],
      "stateMutability": "nonpayable",
      "type": "function"
    },
    {
      "inputs": [
        {
          "internalType": "address",
          "name": "nuggftv1",
          "type": "address"
        },
        {
          "internalType": "uint160",
          "name": "start",
          "type": "uint160"
        },
        {
          "internalType": "uint160",
          "name": "amount",
          "type": "uint160"
        }
      ],
      "name": "mintem",
      "outputs": [],
      "stateMutability": "payable",
      "type": "function"
    }
  ],
  "transactionHash": "0x1e84ed1b6b4678b10d5a82672a1fc1c3779cb464344e163bc219b1acd0625d5a",
  "args": [],
  "solcInputHash": "485fe23b7a4998f77285a6267cc109b7",
  "bytecode": "0x60c060405234801561001057600080fd5b5060405161001d9061004f565b604051809103906000f080158015610039573d6000803e3d6000fd5b506001600160a01b03166080523360a05261005c565b61025d8061090c83390190565b60805160a05161087d61008f60003960006105530152600081816103d1015281816104b1015261060c015261087d6000f3fe6080604052600436106100345760003560e01c806303e1624514610039578063a01ffdff1461004e578063ee96083514610063575b600080fd5b61004c6100473660046106a0565b610083565b005b34801561005a57600080fd5b5061004c61053b565b34801561006f57600080fd5b5061004c61007e3660046106a0565b610580565b815b61008f828461071a565b73ffffffffffffffffffffffffffffffffffffffff168173ffffffffffffffffffffffffffffffffffffffff161015610535578373ffffffffffffffffffffffffffffffffffffffff1663750656f68573ffffffffffffffffffffffffffffffffffffffff16639531b94d6040518163ffffffff1660e01b815260040160206040518083038186803b15801561012457600080fd5b505afa158015610138573d6000803e3d6000fd5b505050506040513d601f19601f8201168201806040525081019061015c9190610773565b6040517fffffffff0000000000000000000000000000000000000000000000000000000060e084901b16815273ffffffffffffffffffffffffffffffffffffffff851660048201526bffffffffffffffffffffffff91909116906024016000604051808303818588803b1580156101d257600080fd5b505af11580156101e6573d6000803e3d6000fd5b505050505060008473ffffffffffffffffffffffffffffffffffffffff1663f71d09046040518163ffffffff1660e01b815260040160206040518083038186803b15801561023357600080fd5b505afa158015610247573d6000803e3d6000fd5b505050506040513d601f19601f8201168201806040525081019061026b9190610773565b610276906003610795565b6040517f095ea7b300000000000000000000000000000000000000000000000000000000815273ffffffffffffffffffffffffffffffffffffffff87811660048301819052908516602483015291925063095ea7b390604401600060405180830381600087803b1580156102e957600080fd5b505af11580156102fd573d6000803e3d6000fd5b50506040517fc5c8beeb00000000000000000000000000000000000000000000000000000000815273ffffffffffffffffffffffffffffffffffffffff85811660048301526bffffffffffffffffffffffff851660248301528816925063c5c8beeb9150604401600060405180830381600087803b15801561037e57600080fd5b505af1158015610392573d6000803e3d6000fd5b50506040517f99081a2600000000000000000000000000000000000000000000000000000000815273ffffffffffffffffffffffffffffffffffffffff7f000000000000000000000000000000000000000000000000000000000000000081166004830152858116602483015260009350881691506399081a269060440160606040518083038186803b15801561042857600080fd5b505afa15801561043c573d6000803e3d6000fd5b505050506040513d601f19601f8201168201806040525081019061046091906107c9565b506040517fa59d071900000000000000000000000000000000000000000000000000000000815273ffffffffffffffffffffffffffffffffffffffff898116600483015286811660248301529193507f0000000000000000000000000000000000000000000000000000000000000000909116915063a59d0719906bffffffffffffffffffffffff8416906044016000604051808303818588803b15801561050757600080fd5b505af115801561051b573d6000803e3d6000fd5b50505050505050808061052d90610813565b915050610085565b50505050565b3373ffffffffffffffffffffffffffffffffffffffff7f0000000000000000000000000000000000000000000000000000000000000000161461057d57600080fd5b33ff5b815b61058c828461071a565b73ffffffffffffffffffffffffffffffffffffffff168173ffffffffffffffffffffffffffffffffffffffff161015610535576040517fd6b2f31500000000000000000000000000000000000000000000000000000000815273ffffffffffffffffffffffffffffffffffffffff858116600483015282811660248301527f0000000000000000000000000000000000000000000000000000000000000000169063d6b2f31590604401600060405180830381600087803b15801561065057600080fd5b505af1158015610664573d6000803e3d6000fd5b50505050808061067390610813565b915050610582565b73ffffffffffffffffffffffffffffffffffffffff8116811461069d57600080fd5b50565b6000806000606084860312156106b557600080fd5b83356106c08161067b565b925060208401356106d08161067b565b915060408401356106e08161067b565b809150509250925092565b7f4e487b7100000000000000000000000000000000000000000000000000000000600052601160045260246000fd5b600073ffffffffffffffffffffffffffffffffffffffff808316818516808303821115610749576107496106eb565b01949350505050565b80516bffffffffffffffffffffffff8116811461076e57600080fd5b919050565b60006020828403121561078557600080fd5b61078e82610752565b9392505050565b60006bffffffffffffffffffffffff808316818516818304811182151516156107c0576107c06106eb565b02949350505050565b6000806000606084860312156107de57600080fd5b835180151581146107ee57600080fd5b92506107fc60208501610752565b915061080a60408501610752565b90509250925092565b600073ffffffffffffffffffffffffffffffffffffffff8083168181141561083d5761083d6106eb565b600101939250505056fea264697066735822122096a4681b0445a096e3bac3bd6023530ec51b2706979f6fe5037c41e6a42fb6b664736f6c63430008090033608060405234801561001057600080fd5b5061023d806100206000396000f3fe6080604052600436106100295760003560e01c8063a59d07191461002e578063d6b2f31514610043575b600080fd5b61004161003c3660046101ce565b610063565b005b34801561004f57600080fd5b5061004161005e3660046101ce565b6100f0565b6040517fa2c7172700000000000000000000000000000000000000000000000000000000815230600482015273ffffffffffffffffffffffffffffffffffffffff828116602483015283169063a2c717279034906044016000604051808303818588803b1580156100d357600080fd5b505af11580156100e7573d6000803e3d6000fd5b50505050505050565b6040517f51d4d67e00000000000000000000000000000000000000000000000000000000815230600482015273ffffffffffffffffffffffffffffffffffffffff82811660248301528316906351d4d67e90604401600060405180830381600087803b15801561015f57600080fd5b505af1158015610173573d6000803e3d6000fd5b50506040513392504780156108fc029250906000818181858888f193505050501580156101a4573d6000803e3d6000fd5b505050565b73ffffffffffffffffffffffffffffffffffffffff811681146101cb57600080fd5b50565b600080604083850312156101e157600080fd5b82356101ec816101a9565b915060208301356101fc816101a9565b80915050925092905056fea2646970667358221220ee917d730c467c44c0e792ffe8276fa07f71c616da57b26f16d14ee7609873f664736f6c63430008090033",
  "devdoc": {
    "kind": "dev",
    "methods": {},
    "version": 1
  },
  "userdoc": {
    "kind": "user",
    "methods": {},
    "version": 1
  },
  "storageLayout": {
    "storage": [],
    "types": null
  }
}