{
  "address": "0xA922ab269B4575736FCEb46b10c12c7FC8Fd9173",
  "abi": [
    {
      "inputs": [
        {
          "internalType": "address",
          "name": "nuggftv1",
          "type": "address"
        },
        {
          "internalType": "address",
          "name": "to",
          "type": "address"
        },
        {
          "internalType": "uint256",
          "name": "start",
          "type": "uint256"
        },
        {
          "internalType": "uint256",
          "name": "amount",
          "type": "uint256"
        }
      ],
      "name": "mintem",
      "outputs": [],
      "stateMutability": "payable",
      "type": "function"
    }
  ],
  "transactionHash": "0x5702e5e6982d2cf37618e090c69c6880c1602d9379a7193f314d7c5667f896e8",
  "args": [],
  "solcInputHash": "6da3ccae45276d136810674ac87e053a",
  "bytecode": "0x608060405234801561001057600080fd5b506102ec806100206000396000f3fe60806040526004361061001e5760003560e01c8063d979a5f114610023575b600080fd5b6100366100313660046101bf565b610038565b005b815b6100448284610230565b81101561018f578473ffffffffffffffffffffffffffffffffffffffff1663beace31f8673ffffffffffffffffffffffffffffffffffffffff16639531b94d6040518163ffffffff1660e01b815260040160206040518083038186803b1580156100ad57600080fd5b505afa1580156100c1573d6000803e3d6000fd5b505050506040513d601f19601f820116820180604052508101906100e59190610248565b6040517fffffffff0000000000000000000000000000000000000000000000000000000060e084901b16815273ffffffffffffffffffffffffffffffffffffffff8086166004830152881660248201526bffffffffffffffffffffffff91909116906044016000604051808303818588803b15801561016357600080fd5b505af1158015610177573d6000803e3d6000fd5b505050505080806101879061027d565b91505061003a565b5050505050565b803573ffffffffffffffffffffffffffffffffffffffff811681146101ba57600080fd5b919050565b600080600080608085870312156101d557600080fd5b6101de85610196565b93506101ec60208601610196565b93969395505050506040820135916060013590565b7f4e487b7100000000000000000000000000000000000000000000000000000000600052601160045260246000fd5b6000821982111561024357610243610201565b500190565b60006020828403121561025a57600080fd5b81516bffffffffffffffffffffffff8116811461027657600080fd5b9392505050565b60007fffffffffffffffffffffffffffffffffffffffffffffffffffffffffffffffff8214156102af576102af610201565b506001019056fea2646970667358221220e85f091190e974c5bd78f9cebb24d44ce6d8596b0d11920815f25a60c2e01a8b64736f6c63430008090033",
  "devdoc": {
    "kind": "dev",
    "methods": {},
    "version": 1
  },
  "userdoc": {
    "kind": "user",
    "methods": {},
    "version": 1
  },
  "storageLayout": {
    "storage": [],
    "types": null
  }
}