{
  "address": "0x8F6a8D2aDB2B9062Dcb890EbC8f6b370D73D51A6",
  "abi": [
    {
      "inputs": [
        {
          "internalType": "address",
          "name": "_xnugg",
          "type": "address"
        }
      ],
      "stateMutability": "nonpayable",
      "type": "constructor"
    },
    {
      "anonymous": false,
      "inputs": [
        {
          "indexed": true,
          "internalType": "address",
          "name": "owner",
          "type": "address"
        },
        {
          "indexed": true,
          "internalType": "address",
          "name": "approved",
          "type": "address"
        },
        {
          "indexed": true,
          "internalType": "uint256",
          "name": "tokenId",
          "type": "uint256"
        }
      ],
      "name": "Approval",
      "type": "event"
    },
    {
      "anonymous": false,
      "inputs": [
        {
          "indexed": true,
          "internalType": "address",
          "name": "owner",
          "type": "address"
        },
        {
          "indexed": true,
          "internalType": "address",
          "name": "operator",
          "type": "address"
        },
        {
          "indexed": false,
          "internalType": "bool",
          "name": "approved",
          "type": "bool"
        }
      ],
      "name": "ApprovalForAll",
      "type": "event"
    },
    {
      "anonymous": false,
      "inputs": [
        {
          "indexed": false,
          "internalType": "uint256",
          "name": "tokenid",
          "type": "uint256"
        },
        {
          "indexed": false,
          "internalType": "uint256",
          "name": "endingEpoch",
          "type": "uint256"
        },
        {
          "indexed": false,
          "internalType": "address",
          "name": "account",
          "type": "address"
        }
      ],
      "name": "Claim",
      "type": "event"
    },
    {
      "anonymous": false,
      "inputs": [
        {
          "indexed": false,
          "internalType": "uint256",
          "name": "sellingTokenId",
          "type": "uint256"
        },
        {
          "indexed": false,
          "internalType": "uint256",
          "name": "itemId",
          "type": "uint256"
        },
        {
          "indexed": false,
          "internalType": "uint256",
          "name": "buyingTokenId",
          "type": "uint256"
        },
        {
          "indexed": false,
          "internalType": "uint256",
          "name": "endingEpoch",
          "type": "uint256"
        }
      ],
      "name": "ClaimItem",
      "type": "event"
    },
    {
      "anonymous": false,
      "inputs": [
        {
          "indexed": false,
          "internalType": "uint256",
          "name": "tokenid",
          "type": "uint256"
        },
        {
          "indexed": false,
          "internalType": "address",
          "name": "account",
          "type": "address"
        },
        {
          "indexed": false,
          "internalType": "uint256",
          "name": "eth",
          "type": "uint256"
        }
      ],
      "name": "Commit",
      "type": "event"
    },
    {
      "anonymous": false,
      "inputs": [
        {
          "indexed": false,
          "internalType": "uint256",
          "name": "sellingTokenId",
          "type": "uint256"
        },
        {
          "indexed": false,
          "internalType": "uint256",
          "name": "itemId",
          "type": "uint256"
        },
        {
          "indexed": false,
          "internalType": "uint256",
          "name": "buyingTokenId",
          "type": "uint256"
        },
        {
          "indexed": false,
          "internalType": "uint256",
          "name": "eth",
          "type": "uint256"
        }
      ],
      "name": "CommitItem",
      "type": "event"
    },
    {
      "anonymous": false,
      "inputs": [],
      "name": "Genesis",
      "type": "event"
    },
    {
      "anonymous": false,
      "inputs": [
        {
          "indexed": false,
          "internalType": "uint256",
          "name": "epoch",
          "type": "uint256"
        },
        {
          "indexed": false,
          "internalType": "address",
          "name": "account",
          "type": "address"
        },
        {
          "indexed": false,
          "internalType": "uint256",
          "name": "eth",
          "type": "uint256"
        }
      ],
      "name": "Mint",
      "type": "event"
    },
    {
      "anonymous": false,
      "inputs": [
        {
          "indexed": false,
          "internalType": "uint256",
          "name": "tokenid",
          "type": "uint256"
        },
        {
          "indexed": false,
          "internalType": "address",
          "name": "account",
          "type": "address"
        },
        {
          "indexed": false,
          "internalType": "uint256",
          "name": "eth",
          "type": "uint256"
        }
      ],
      "name": "Offer",
      "type": "event"
    },
    {
      "anonymous": false,
      "inputs": [
        {
          "indexed": false,
          "internalType": "uint256",
          "name": "sellingTokenId",
          "type": "uint256"
        },
        {
          "indexed": false,
          "internalType": "uint256",
          "name": "itemId",
          "type": "uint256"
        },
        {
          "indexed": false,
          "internalType": "uint256",
          "name": "buyingTokenId",
          "type": "uint256"
        },
        {
          "indexed": false,
          "internalType": "uint256",
          "name": "eth",
          "type": "uint256"
        }
      ],
      "name": "OfferItem",
      "type": "event"
    },
    {
      "anonymous": false,
      "inputs": [
        {
          "indexed": false,
          "internalType": "uint256",
          "name": "tokenId",
          "type": "uint256"
        },
        {
          "indexed": false,
          "internalType": "uint256",
          "name": "itemId",
          "type": "uint256"
        }
      ],
      "name": "PopItem",
      "type": "event"
    },
    {
      "anonymous": false,
      "inputs": [
        {
          "indexed": false,
          "internalType": "uint256",
          "name": "tokenId",
          "type": "uint256"
        },
        {
          "indexed": false,
          "internalType": "uint256[]",
          "name": "items",
          "type": "uint256[]"
        }
      ],
      "name": "PreMint",
      "type": "event"
    },
    {
      "anonymous": false,
      "inputs": [
        {
          "indexed": false,
          "internalType": "uint256",
          "name": "tokenId",
          "type": "uint256"
        },
        {
          "indexed": false,
          "internalType": "uint256",
          "name": "itemId",
          "type": "uint256"
        }
      ],
      "name": "PushItem",
      "type": "event"
    },
    {
      "anonymous": false,
      "inputs": [
        {
          "indexed": false,
          "internalType": "uint256",
          "name": "tokenid",
          "type": "uint256"
        },
        {
          "indexed": false,
          "internalType": "address",
          "name": "account",
          "type": "address"
        },
        {
          "indexed": false,
          "internalType": "uint256",
          "name": "eth",
          "type": "uint256"
        }
      ],
      "name": "Swap",
      "type": "event"
    },
    {
      "anonymous": false,
      "inputs": [
        {
          "indexed": false,
          "internalType": "uint256",
          "name": "sellingTokenId",
          "type": "uint256"
        },
        {
          "indexed": false,
          "internalType": "uint256",
          "name": "itemId",
          "type": "uint256"
        },
        {
          "indexed": false,
          "internalType": "uint256",
          "name": "eth",
          "type": "uint256"
        }
      ],
      "name": "SwapItem",
      "type": "event"
    },
    {
      "anonymous": false,
      "inputs": [
        {
          "indexed": true,
          "internalType": "address",
          "name": "from",
          "type": "address"
        },
        {
          "indexed": true,
          "internalType": "address",
          "name": "to",
          "type": "address"
        },
        {
          "indexed": true,
          "internalType": "uint256",
          "name": "tokenId",
          "type": "uint256"
        }
      ],
      "name": "Transfer",
      "type": "event"
    },
    {
      "inputs": [
        {
          "internalType": "address",
          "name": "to",
          "type": "address"
        },
        {
          "internalType": "uint256",
          "name": "tokenId",
          "type": "uint256"
        }
      ],
      "name": "approve",
      "outputs": [],
      "stateMutability": "nonpayable",
      "type": "function"
    },
    {
      "inputs": [
        {
          "internalType": "address",
          "name": "owner",
          "type": "address"
        }
      ],
      "name": "balanceOf",
      "outputs": [
        {
          "internalType": "uint256",
          "name": "",
          "type": "uint256"
        }
      ],
      "stateMutability": "view",
      "type": "function"
    },
    {
      "inputs": [
        {
          "internalType": "uint256",
          "name": "tokenid",
          "type": "uint256"
        },
        {
          "internalType": "uint256",
          "name": "endingEpoch",
          "type": "uint256"
        }
      ],
      "name": "claim",
      "outputs": [],
      "stateMutability": "nonpayable",
      "type": "function"
    },
    {
      "inputs": [
        {
          "internalType": "uint256",
          "name": "sellingTokenId",
          "type": "uint256"
        },
        {
          "internalType": "uint256",
          "name": "itemid",
          "type": "uint256"
        },
        {
          "internalType": "uint256",
          "name": "buyingTokenId",
          "type": "uint256"
        },
        {
          "internalType": "uint256",
          "name": "endingEpoch",
          "type": "uint256"
        }
      ],
      "name": "claimItem",
      "outputs": [],
      "stateMutability": "nonpayable",
      "type": "function"
    },
    {
      "inputs": [
        {
          "internalType": "uint256",
          "name": "tokenid",
          "type": "uint256"
        }
      ],
      "name": "commit",
      "outputs": [],
      "stateMutability": "payable",
      "type": "function"
    },
    {
      "inputs": [
        {
          "internalType": "uint256",
          "name": "sellingTokenId",
          "type": "uint256"
        },
        {
          "internalType": "uint256",
          "name": "itemid",
          "type": "uint256"
        },
        {
          "internalType": "uint256",
          "name": "buyingTokenId",
          "type": "uint256"
        }
      ],
      "name": "commitItem",
      "outputs": [],
      "stateMutability": "payable",
      "type": "function"
    },
    {
      "inputs": [
        {
          "internalType": "uint256",
          "name": "tokenid",
          "type": "uint256"
        }
      ],
      "name": "delegate",
      "outputs": [],
      "stateMutability": "payable",
      "type": "function"
    },
    {
      "inputs": [
        {
          "internalType": "uint256",
          "name": "sellingTokenId",
          "type": "uint256"
        },
        {
          "internalType": "uint256",
          "name": "itemid",
          "type": "uint256"
        },
        {
          "internalType": "uint256",
          "name": "buyingTokenId",
          "type": "uint256"
        }
      ],
      "name": "delegateItem",
      "outputs": [],
      "stateMutability": "payable",
      "type": "function"
    },
    {
      "inputs": [],
      "name": "epoch",
      "outputs": [
        {
          "internalType": "uint256",
          "name": "res",
          "type": "uint256"
        }
      ],
      "stateMutability": "view",
      "type": "function"
    },
    {
      "inputs": [],
      "name": "genesis",
      "outputs": [
        {
          "internalType": "uint256",
          "name": "",
          "type": "uint256"
        }
      ],
      "stateMutability": "view",
      "type": "function"
    },
    {
      "inputs": [
        {
          "internalType": "uint256",
          "name": "tokenid",
          "type": "uint256"
        }
      ],
      "name": "getActiveSwap",
      "outputs": [
        {
          "internalType": "address",
          "name": "leader",
          "type": "address"
        },
        {
          "internalType": "uint256",
          "name": "amount",
          "type": "uint256"
        },
        {
          "internalType": "uint256",
          "name": "_epoch",
          "type": "uint256"
        },
        {
          "internalType": "bool",
          "name": "isOwner",
          "type": "bool"
        }
      ],
      "stateMutability": "view",
      "type": "function"
    },
    {
      "inputs": [
        {
          "internalType": "uint256",
          "name": "tokenId",
          "type": "uint256"
        }
      ],
      "name": "getApproved",
      "outputs": [
        {
          "internalType": "address",
          "name": "",
          "type": "address"
        }
      ],
      "stateMutability": "view",
      "type": "function"
    },
    {
      "inputs": [
        {
          "internalType": "uint256",
          "name": "tokenid",
          "type": "uint256"
        },
        {
          "internalType": "uint256",
          "name": "index",
          "type": "uint256"
        },
        {
          "internalType": "address",
          "name": "account",
          "type": "address"
        }
      ],
      "name": "getOfferByAccount",
      "outputs": [
        {
          "internalType": "uint256",
          "name": "amount",
          "type": "uint256"
        }
      ],
      "stateMutability": "view",
      "type": "function"
    },
    {
      "inputs": [
        {
          "internalType": "uint256",
          "name": "tokenId",
          "type": "uint256"
        }
      ],
      "name": "infoOf",
      "outputs": [
        {
          "internalType": "uint256",
          "name": "base",
          "type": "uint256"
        },
        {
          "internalType": "uint256",
          "name": "size",
          "type": "uint256"
        },
        {
          "internalType": "uint256[]",
          "name": "items",
          "type": "uint256[]"
        }
      ],
      "stateMutability": "view",
      "type": "function"
    },
    {
      "inputs": [
        {
          "internalType": "address",
          "name": "owner",
          "type": "address"
        },
        {
          "internalType": "address",
          "name": "operator",
          "type": "address"
        }
      ],
      "name": "isApprovedForAll",
      "outputs": [
        {
          "internalType": "bool",
          "name": "",
          "type": "bool"
        }
      ],
      "stateMutability": "view",
      "type": "function"
    },
    {
      "inputs": [
        {
          "internalType": "uint256",
          "name": "tokenid",
          "type": "uint256"
        }
      ],
      "name": "mint",
      "outputs": [],
      "stateMutability": "payable",
      "type": "function"
    },
    {
      "inputs": [],
      "name": "name",
      "outputs": [
        {
          "internalType": "string",
          "name": "",
          "type": "string"
        }
      ],
      "stateMutability": "view",
      "type": "function"
    },
    {
      "inputs": [
        {
          "internalType": "uint256",
          "name": "tokenid",
          "type": "uint256"
        }
      ],
      "name": "offer",
      "outputs": [],
      "stateMutability": "payable",
      "type": "function"
    },
    {
      "inputs": [
        {
          "internalType": "uint256",
          "name": "sellingTokenId",
          "type": "uint256"
        },
        {
          "internalType": "uint256",
          "name": "itemid",
          "type": "uint256"
        },
        {
          "internalType": "uint256",
          "name": "buyingTokenId",
          "type": "uint256"
        }
      ],
      "name": "offerItem",
      "outputs": [],
      "stateMutability": "payable",
      "type": "function"
    },
    {
      "inputs": [
        {
          "internalType": "uint256",
          "name": "tokenId",
          "type": "uint256"
        }
      ],
      "name": "ownerOf",
      "outputs": [
        {
          "internalType": "address",
          "name": "",
          "type": "address"
        }
      ],
      "stateMutability": "view",
      "type": "function"
    },
    {
      "inputs": [
        {
          "internalType": "address",
          "name": "from",
          "type": "address"
        },
        {
          "internalType": "address",
          "name": "to",
          "type": "address"
        },
        {
          "internalType": "uint256",
          "name": "tokenId",
          "type": "uint256"
        }
      ],
      "name": "safeTransferFrom",
      "outputs": [],
      "stateMutability": "nonpayable",
      "type": "function"
    },
    {
      "inputs": [
        {
          "internalType": "address",
          "name": "from",
          "type": "address"
        },
        {
          "internalType": "address",
          "name": "to",
          "type": "address"
        },
        {
          "internalType": "uint256",
          "name": "tokenId",
          "type": "uint256"
        },
        {
          "internalType": "bytes",
          "name": "_data",
          "type": "bytes"
        }
      ],
      "name": "safeTransferFrom",
      "outputs": [],
      "stateMutability": "nonpayable",
      "type": "function"
    },
    {
      "inputs": [
        {
          "internalType": "address",
          "name": "operator",
          "type": "address"
        },
        {
          "internalType": "bool",
          "name": "approved",
          "type": "bool"
        }
      ],
      "name": "setApprovalForAll",
      "outputs": [],
      "stateMutability": "nonpayable",
      "type": "function"
    },
    {
      "inputs": [
        {
          "internalType": "bytes4",
          "name": "interfaceId",
          "type": "bytes4"
        }
      ],
      "name": "supportsInterface",
      "outputs": [
        {
          "internalType": "bool",
          "name": "",
          "type": "bool"
        }
      ],
      "stateMutability": "view",
      "type": "function"
    },
    {
      "inputs": [
        {
          "internalType": "uint256",
          "name": "tokenid",
          "type": "uint256"
        },
        {
          "internalType": "uint256",
          "name": "floor",
          "type": "uint256"
        }
      ],
      "name": "swap",
      "outputs": [],
      "stateMutability": "nonpayable",
      "type": "function"
    },
    {
      "inputs": [
        {
          "internalType": "uint256",
          "name": "sellingTokenId",
          "type": "uint256"
        },
        {
          "internalType": "uint256",
          "name": "itemid",
          "type": "uint256"
        },
        {
          "internalType": "uint256",
          "name": "floor",
          "type": "uint256"
        }
      ],
      "name": "swapItem",
      "outputs": [],
      "stateMutability": "nonpayable",
      "type": "function"
    },
    {
      "inputs": [],
      "name": "symbol",
      "outputs": [
        {
          "internalType": "string",
          "name": "",
          "type": "string"
        }
      ],
      "stateMutability": "view",
      "type": "function"
    },
    {
      "inputs": [
        {
          "internalType": "uint256",
          "name": "tokenId",
          "type": "uint256"
        }
      ],
      "name": "tokenURI",
      "outputs": [
        {
          "internalType": "string",
          "name": "res",
          "type": "string"
        }
      ],
      "stateMutability": "view",
      "type": "function"
    },
    {
      "inputs": [
        {
          "internalType": "address",
          "name": "from",
          "type": "address"
        },
        {
          "internalType": "address",
          "name": "to",
          "type": "address"
        },
        {
          "internalType": "uint256",
          "name": "tokenId",
          "type": "uint256"
        }
      ],
      "name": "transferFrom",
      "outputs": [],
      "stateMutability": "nonpayable",
      "type": "function"
    },
    {
      "inputs": [],
      "name": "xnugg",
      "outputs": [
        {
          "internalType": "address payable",
          "name": "",
          "type": "address"
        }
      ],
      "stateMutability": "view",
      "type": "function"
    }
  ],
  "transactionHash": "0x2fda86262cde7eb360f5c8952587739851d9ada7d2001a6312203f0438561bdf",
  "args": [
    "0x84500Cc78ce2fF2A9c17af6cdCa2c92ca49682Ca"
  ],
  "solcInputHash": "7fce83e726ae901840dc1c4edd658001",
  "bytecode": "0x60c06040523480156200001157600080fd5b506040516200409e3803806200409e83398101604081905262000034916200019c565b6040805180820182526006815265139551d1d19560d21b60208083019182528351808501909452601384527f4e7567672046756e6769626c6520546f6b656e000000000000000000000000009084015281519192916200009791600091620000f6565b508051620000ad906001906020840190620000f6565b5050506001600160601b0319606082901b166080524360a0526040517f6bf6eaff5e9af8fbccb949f4c38cc016936f8775363ccf4224db160365785d5290600090a15062000209565b8280546200010490620001cc565b90600052602060002090601f01602090048101928262000128576000855562000173565b82601f106200014357805160ff191683800117855562000173565b8280016001018555821562000173579182015b828111156200017357825182559160200191906001019062000156565b506200018192915062000185565b5090565b5b8082111562000181576000815560010162000186565b600060208284031215620001ae578081fd5b81516001600160a01b0381168114620001c5578182fd5b9392505050565b600181811c90821680620001e157607f821691505b602082108114156200020357634e487b7160e01b600052602260045260246000fd5b50919050565b60805160601c60a051613df5620002a9600039600081816104db0152818161085801528181610a2501528181610aa001528181610b6a01528181610bc401528181610c2201528181610c7e01528181610e1d01528181610e630152610f2c0152600081816104240152818161087c01528181610a7f01528181610be801528181610c4401528181610ca001528181610e860152610f0b0152613df56000f3fe6080604052600436106101cd5760003560e01c80638f4c1d4f116100f7578063a7f0b3de11610095578063d636feae11610064578063d636feae1461055e578063d96073cf14610571578063e985e9c514610591578063f4f98ad5146105b157600080fd5b8063a7f0b3de146104c9578063b88d4fde146104fd578063c34902631461051d578063c87b56dd1461053d57600080fd5b806396cfd827116100d157806396cfd827146104705780639fa6dd3514610483578063a0712d6814610496578063a22cb465146104a957600080fd5b80638f4c1d4f14610412578063900cf0cf1461044657806395d89b411461045b57600080fd5b806342842e0e1161016f57806370a082311161013e57806370a0823114610382578063761610fc146103b057806378b38f36146103c3578063884c66ae146103f257600080fd5b806342842e0e1461030257806349b44f98146103225780634dd1496b146103425780636352211e1461036257600080fd5b8063095ea7b3116101ab578063095ea7b3146102615780630cf27c2a146102835780631cd4ad3a1461029657806323b872dd146102e257600080fd5b806301ffc9a7146101d257806306fdde0314610207578063081812fc14610229575b600080fd5b3480156101de57600080fd5b506101f26101ed366004613a03565b6105c4565b60405190151581526020015b60405180910390f35b34801561021357600080fd5b5061021c610661565b6040516101fe9190613be0565b34801561023557600080fd5b50610249610244366004613a3b565b6106f5565b6040516001600160a01b0390911681526020016101fe565b34801561026d57600080fd5b5061028161027c3660046139da565b610701565b005b610281610291366004613aa8565b610839565b3480156102a257600080fd5b506102b66102b1366004613a3b565b6108a0565b604080516001600160a01b039095168552602085019390935291830152151560608201526080016101fe565b3480156102ee57600080fd5b506102816102fd366004613890565b610946565b34801561030e57600080fd5b5061028161031d366004613890565b6109c1565b34801561032e57600080fd5b5061028161033d366004613aa8565b6109dc565b34801561034e57600080fd5b5061028161035d366004613ad3565b610a03565b34801561036e57600080fd5b5061024961037d366004613a3b565b610a52565b34801561038e57600080fd5b506103a261039d36600461384d565b610a5e565b6040519081526020016101fe565b6102816103be366004613a3b565b610a6a565b3480156103cf57600080fd5b506103e36103de366004613a3b565b610ac7565b6040516101fe93929190613c0c565b3480156103fe57600080fd5b506103a261040d366004613a74565b610ae4565b34801561041e57600080fd5b506102497f000000000000000000000000000000000000000000000000000000000000000081565b34801561045257600080fd5b506103a2610b63565b34801561046757600080fd5b5061021c610b93565b61028161047e366004613aa8565b610ba5565b610281610491366004613a3b565b610c0c565b6102816104a4366004613a3b565b610c68565b3480156104b557600080fd5b506102816104c43660046139a0565b610cc8565b3480156104d557600080fd5b506103a27f000000000000000000000000000000000000000000000000000000000000000081565b34801561050957600080fd5b506102816105183660046138cb565b610d8d565b34801561052957600080fd5b50610281610538366004613a53565b610e09565b34801561054957600080fd5b5061021c610558366004613a3b565b50606090565b61028161056c366004613aa8565b610e43565b34801561057d57600080fd5b5061028161058c366004613a53565b610eaa565b34801561059d57600080fd5b506101f26105ac366004613867565b610ec3565b6102816105bf366004613a3b565b610ef6565b60006001600160e01b031982167f80ac58cd00000000000000000000000000000000000000000000000000000000148061062757506001600160e01b031982167f5b5e139f00000000000000000000000000000000000000000000000000000000145b8061065b57507f01ffc9a7000000000000000000000000000000000000000000000000000000006001600160e01b03198316145b92915050565b606060008001805461067290613ccf565b80601f016020809104026020016040519081016040528092919081815260200182805461069e90613ccf565b80156106eb5780601f106106c0576101008083540402835291602001916106eb565b820191906000526020600020905b8154815290600101906020018083116106ce57829003601f168201915b5050505050905090565b600061065b8183610f50565b600061070d8183610feb565b9050806001600160a01b0316836001600160a01b0316141561079c5760405162461bcd60e51b815260206004820152602160248201527f4552433732313a20617070726f76616c20746f2063757272656e74206f776e6560448201527f720000000000000000000000000000000000000000000000000000000000000060648201526084015b60405180910390fd5b336001600160a01b03821614806107b857506107b88133610ec3565b61082a5760405162461bcd60e51b815260206004820152603860248201527f4552433732313a20617070726f76652063616c6c6572206973206e6f74206f7760448201527f6e6572206e6f7220617070726f76656420666f7220616c6c00000000000000006064820152608401610793565b6108348383611078565b505050565b60008381526009602090815260408083208584529091528120610834917f00000000000000000000000000000000000000000000000000000000000000008686867f00000000000000000000000000000000000000000000000000000000000000006110e7565b600081815260086020526040812081908190819081906108c090826111df565b509050806108fa5760405162461bcd60e51b815260206004820152600760248201526604e533a47533a360cc1b6044820152606401610793565b80945060a881901c65ffffffffffff1660a082901c60ff166004021b64e8d4a510000293506109308160d81c640fffffffff1690565b925061093c8160ff1c90565b9150509193509193565b61095033826111f7565b6109b65760405162461bcd60e51b815260206004820152603160248201527f4552433732313a207472616e736665722063616c6c6572206973206e6f74206f6044820152701ddb995c881b9bdc88185c1c1c9bdd9959607a1b6064820152608401610793565b6108348383836112c2565b61083483838360405180602001604052806000815250610d8d565b60008381526009602090815260408083208584529091528120610834916006858588611491565b60008481526009602090815260408083208684529091528120610a4c916006877f0000000000000000000000000000000000000000000000000000000000000000888789611623565b50505050565b600061065b8183610feb565b600061065b81836117ae565b6000818152600860205260409020610ac490827f00000000000000000000000000000000000000000000000000000000000000007f000000000000000000000000000000000000000000000000000000000000000061184c565b50565b6000806060610ad76006856118a1565b9250925092509193909250565b60008381526008602052604081208190610aff9084866118d4565b91505080610b395760405162461bcd60e51b815260206004820152600760248201526604e533a47533a360cc1b6044820152606401610793565b60a881901c65ffffffffffff1660a082901c60ff166004021b64e8d4a51000025b95945050505050565b6000610b8e7f00000000000000000000000000000000000000000000000000000000000000006118ee565b905090565b60606000600101805461067290613ccf565b60008381526009602090815260408083208584529091528120610834917f00000000000000000000000000000000000000000000000000000000000000008686867f00000000000000000000000000000000000000000000000000000000000000006118fa565b6000818152600860205260409020610ac49060067f0000000000000000000000000000000000000000000000000000000000000000847f00000000000000000000000000000000000000000000000000000000000000006119a8565b6000818152600860205260409020610cc49060067f0000000000000000000000000000000000000000000000000000000000000000847f0000000000000000000000000000000000000000000000000000000000000000611a2a565b5050565b6001600160a01b038216331415610d215760405162461bcd60e51b815260206004820152601960248201527f4552433732313a20617070726f766520746f2063616c6c6572000000000000006044820152606401610793565b3360008181526005602090815260408083206001600160a01b03871680855290835292819020805460ff191686151590811790915590519081529192917f17307eab39ab6107e8899845ad3d59bd9653f200f220920489ca2b5937696c31910160405180910390a35050565b610d9733836111f7565b610dfd5760405162461bcd60e51b815260206004820152603160248201527f4552433732313a207472616e736665722063616c6c6572206973206e6f74206f6044820152701ddb995c881b9bdc88185c1c1c9bdd9959607a1b6064820152608401610793565b610a4c84848484611b9a565b6000828152600860205260408120610cc4917f00000000000000000000000000000000000000000000000000000000000000008585611c23565b6000838152600960209081526040808320858452909152812061083491857f000000000000000000000000000000000000000000000000000000000000000086867f0000000000000000000000000000000000000000000000000000000000000000611d1b565b6000828152600860205260408120610cc4918484611e1c565b6001600160a01b03808316600090815260056020908152604080832093851683529290529081205460ff165b9392505050565b6000818152600860205260409020610ac490827f00000000000000000000000000000000000000000000000000000000000000007f0000000000000000000000000000000000000000000000000000000000000000611ed6565b60008181526002830160205260408120546001600160a01b0316610fcb5760405162461bcd60e51b815260206004820152602c60248201527f4552433732313a20617070726f76656420717565727920666f72206e6f6e657860448201526b34b9ba32b73a103a37b5b2b760a11b6064820152608401610793565b50600090815260049190910160205260409020546001600160a01b031690565b60008181526002830160205260408120546001600160a01b031680610eef5760405162461bcd60e51b815260206004820152602960248201527f4552433732313a206f776e657220717565727920666f72206e6f6e657869737460448201527f656e7420746f6b656e00000000000000000000000000000000000000000000006064820152608401610793565b600081815260046020526040812080546001600160a01b0319166001600160a01b03851690811790915582916110ae9083610feb565b6001600160a01b03167f8c5be1e5ebec7d5bd14f71427d1e84f3dd0314c0f7b2291e5b200ac8c7c3b92560405160405180910390a45050565b61010083106111225760405162461bcd60e51b815260206004820152600760248201526604d4c3a43493a360cc1b6044820152606401610793565b33611136876001600160a01b038516610feb565b6001600160a01b0316146111775760405162461bcd60e51b81526020600482015260086024820152674155433a54543a3360c01b6044820152606401610793565b61118387838388611f21565b60408051858152602081018590526001600160a01b038416918101919091523460608201527ff562263f29883bf3519f3733bb30b47c831bfe9809884430857d8cf29571d554906080015b60405180910390a150505050505050565b6000806111ec848461217d565b915091509250929050565b6000611202826121fc565b6112635760405162461bcd60e51b815260206004820152602c60248201527f4552433732313a206f70657261746f7220717565727920666f72206e6f6e657860448201526b34b9ba32b73a103a37b5b2b760a11b6064820152608401610793565b600061126f8184610feb565b9050806001600160a01b0316846001600160a01b031614806112aa5750836001600160a01b031661129f846106f5565b6001600160a01b0316145b806112ba57506112ba8185610ec3565b949350505050565b6001600160a01b0383166112d7600083610feb565b6001600160a01b0316146113535760405162461bcd60e51b815260206004820152602960248201527f4552433732313a207472616e73666572206f6620746f6b656e2074686174206960448201527f73206e6f74206f776e00000000000000000000000000000000000000000000006064820152608401610793565b6001600160a01b0382166113ce5760405162461bcd60e51b8152602060048201526024808201527f4552433732313a207472616e7366657220746f20746865207a65726f2061646460448201527f72657373000000000000000000000000000000000000000000000000000000006064820152608401610793565b6113d9600082611078565b6001600160a01b0383166000908152600360205260408120805460019290611402908490613c9b565b90915550506001600160a01b0382166000908152600360205260408120805460019290611430908490613c2b565b909155505060008181526002602052604080822080546001600160a01b0319166001600160a01b0386811691821790925591518493918716917fddf252ad1be2c89b69c2b068fc378daa952ba7f163c4a11628f55a4df523b3ef91a4505050565b336114a5866001600160a01b038416610feb565b6001600160a01b0316146114e65760405162461bcd60e51b81526020600482015260086024820152674155433a54543a3360c01b6044820152606401610793565b61010083106115375760405162461bcd60e51b815260206004820152600760248201527f4d4c3a53493a30000000000000000000000000000000000000000000000000006044820152606401610793565b6000611543878361217d565b509050801561157e5760405162461bcd60e51b815260206004820152600760248201526604e533a53533a360cc1b6044820152606401610793565b6115c2836115bc60016001600160a01b0319851686175b90507f80000000000000000000000000000000000000000000000000000000000000001790565b9061221b565b5080885590506115dc856001600160a01b0384168661229c565b604080516001600160a01b0384168152602081018690529081018490527fc8032e5c721106f3e30ad0f1a45e919c8d034cf788842ff336b0150f0fbcc60e906060016111ce565b33611637886001600160a01b038416610feb565b6001600160a01b0316146116785760405162461bcd60e51b81526020600482015260086024820152674155433a54543a3360c01b6044820152606401610793565b61010083106116b35760405162461bcd60e51b815260206004820152600760248201526604d4c3a43493a360cc1b6044820152606401610793565b60006116be866118ee565b90506000806116ce8b85876123a2565b600087815260018e01602090815260408083206001600160a01b038a168452909152812055909250905061170484838386612422565b156117265760008b55611721896001600160a01b038616886124c0565b611751565b61175160a882901c65ffffffffffff1660a083901c60ff166004021b64e8d4a51000025b339061261b565b60408051888152602081018890529081018690526001600160a01b03851660608201527f38195a074a64067740045e77ca5873f34a0df243a8ac9ecc39452c47e7061e479060800160405180910390a15050505050505050505050565b60006001600160a01b03821661182c5760405162461bcd60e51b815260206004820152602a60248201527f4552433732313a2062616c616e636520717565727920666f7220746865207a6560448201527f726f2061646472657373000000000000000000000000000000000000000000006064820152608401610793565b506001600160a01b03166000908152600391909101602052604090205490565b61185884338484612734565b6040805184815233602082015234918101919091527f2d57124cfa4e385afd5cc9d6f24874bdd21303ac9131d7cb674be2a5855c7002906060015b60405180910390a150505050565b60008181526020839052604081205481906060906118be81612a38565b60ff600883901c81169892169650945092505050565b6000806118e28585856123a2565b91509150935093915050565b600061065b8243612af2565b3361190e876001600160a01b038516610feb565b6001600160a01b03161461194f5760405162461bcd60e51b81526020600482015260086024820152674155433a54543a3360c01b6044820152606401610793565b60008061195c898561217d565b9150915080600014801561197557506119758260ff1c90565b1561198e57611989898989898989896110e7565b61199d565b61199d89898989898989611d1b565b505050505050505050565b60006119b3846118ee565b90506000806119c288336111df565b9150915084831480156119d3575081155b156119eb576119e58888888888611a2a565b50611a20565b801580156119fe57506119fe8260ff1c90565b15611a1457611a0f88868689611ed6565b611a20565b611a208886868961184c565b5050505050505050565b600080611a36856118ee565b9050600080611a4589336111df565b91509150858314611a985760405162461bcd60e51b815260206004820152600660248201527f4e533a4d3a3000000000000000000000000000000000000000000000000000006044820152606401610793565b8115611ae65760405162461bcd60e51b815260206004820152600660248201527f4e533a4d3a4400000000000000000000000000000000000000000000000000006044820152606401610793565b611b07346115bc33611af9600088612b0a565b6001600160a01b0319161790565b50808a5593503415611b2657611b266001600160a01b0386163461261b565b611b31888789612b5c565b6040805184815233602082015264e8d4a5100065ffffffffffff60a888901c16600460ff60a08a901c16021b028183015290517f4e3883c75cc9c752bb1db2e406a822e4a75067ae77ad9a0a4d179f2709b9e1f69181900360600190a150505095945050505050565b611ba58484846112c2565b611bb184848484612d40565b610a4c5760405162461bcd60e51b815260206004820152603260248201527f4552433732313a207472616e7366657220746f206e6f6e20455243373231526560448201527f63656976657220696d706c656d656e74657200000000000000000000000000006064820152608401610793565b6000611c2e846118ee565b9050600080611c3e8833866118d4565b600086815260018b01602090815260408083203380855292528220919091559193509150611c6e90838386612422565b15611caa5760008855611c888260d81c640fffffffff1690565b841415611c9f57611c9a873387612ea0565b611cd2565b611c9a873387612fad565b611cd260a882901c65ffffffffffff1660a083901c60ff166004021b64e8d4a510000261174a565b6040805186815260208101869052338183015290517fd79254e5daba749baa8ba954e77bbbb18efef113a8070d00df9a188d819324269181900360600190a15050505050505050565b6101008310611d6c5760405162461bcd60e51b815260206004820152600760248201527f4d4c3a4f493a30000000000000000000000000000000000000000000000000006044820152606401610793565b33611d80876001600160a01b038516610feb565b6001600160a01b031614611dc15760405162461bcd60e51b81526020600482015260086024820152674155433a54543a3360c01b6044820152606401610793565b611dcd87838388612734565b60408051858152602081018590526001600160a01b038416918101919091523460608201527fe237f23f900f35d5f1a406ba97ccfdffe082ffcda87098765811817c2c14ac87906080016111ce565b6000611e2885336111df565b5090508015611e635760405162461bcd60e51b815260206004820152600760248201526604e533a53533a360cc1b6044820152606401610793565b611e7e826115bc60016001600160a01b031985163317611595565b508086559050611e8f8433856130e1565b604080518481523360208201529081018390527f48b43f133ac721cb5f6e2a3d8ab7caee987bccfb4197537cf43c9f907f057f3a9060600160405180910390a15050505050565b611ee284338484611f21565b6040805184815233602082015234918101919091527f094925310677b39991f64178494fad708beb62f73f36bb0baa493476ecf5870990606001611893565b6000611f2c826118ee565b9050600080611f3b878761217d565b9092509050611f4982613253565b60003411611f995760405162461bcd60e51b815260206004820152600860248201527f534c3a434f4d3a320000000000000000000000000000000000000000000000006044820152606401610793565b8015611fd25760405162461bcd60e51b81526020600482015260086024820152670534c3a48534f3a360c41b6044820152606401610793565b611fdc8260ff1c90565b6120285760405162461bcd60e51b815260206004820152600860248201527f534c3a48534f3a310000000000000000000000000000000000000000000000006044820152606401610793565b6000612035846001613c2b565b905060008061204c346115bc8b611af98588612b0a565b909250905060a882901c65ffffffffffff1660a083901c60ff166004021b64e8d4a51000026120a1606461271060a889901c65ffffffffffff1660a08a901c60ff166004021b64e8d4a51000025b91906132c6565b106120d95760405162461bcd60e51b815260206004820152600860248201526714d30e93d0940e8d60c21b6044820152606401610793565b600083815260018b01602052604081208691826001600160a01b03168152602081019190915260400160002055818a556121718160a887901c65ffffffffffff1660a088901c60ff166004021b64e8d4a510000260a885901c65ffffffffffff1660a086901c60ff166004021b64e8d4a51000026121579190613c9b565b6121619190613c2b565b6001600160a01b038a169061261b565b50505050505050505050565b8154600081158061219f5750816001600160a01b0316836001600160a01b0316145b6121f1578360010160006121ba8460d81c640fffffffff1690565b81526020019081526020016000206000846001600160a01b03166001600160a01b03168152602001908152602001600020546121f3565b815b90509250929050565b6000818152600260205260408120546001600160a01b0316151561065b565b6000808264e8d4a51000840493505b65ffffffffffff841115612249576001830192508360041c935061222a565b828460081b1793508360081c836004021b64e8d4a5100081028203925050507fffffffffff00000000000000ffffffffffffffffffffffffffffffffffffffff841693508260a01b841791509250929050565b600082815260208490526040902054806122e55760405162461bcd60e51b815260206004820152600a6024820152690313135353a5354463a360b41b6044820152606401610793565b6122ef8183613384565b505060008481526020868152604080832084905585835260018801909152812080549293509061231e83613d0a565b909155505060408051848152602081018490527f452c5f777db10bd58f64d8bc58668d14487d008ff527ca431853ea22e195f176910160405180910390a160408051838152600160208201523091339183917fc3d58168c5ae7397731d063d5bbf3d657854427343f4c083240f7aacaa2d0f6291015b60405180910390a450505050565b82546000826123b88360d81c640fffffffff1690565b146123c45760006123c6565b815b915081158015906123e85750816001600160a01b0316846001600160a01b0316145b61241657600083815260018601602090815260408083206001600160a01b0388168452909152902054612418565b815b9050935093915050565b6000826124715760405162461bcd60e51b815260206004820152600760248201527f534c3a43433a31000000000000000000000000000000000000000000000000006044820152606401610793565b60006124848560d81c640fffffffff1690565b831190506124928560ff1c90565b806124b65750846001600160a01b0316866001600160a01b03161480156124b65750805b9695505050505050565b600082815260208490526040902054806125095760405162461bcd60e51b815260206004820152600a6024820152690313135353a5354463a360b41b6044820152606401610793565b60008281526001850160205260409020546125665760405162461bcd60e51b815260206004820152600b60248201527f313135353a534254463a310000000000000000000000000000000000000000006044820152606401610793565b6000828152600185016020526040812080549161258283613d0a565b90915550612592905081836134db565b506000848152602086815260409182902083905581518681529081018590529192507f452c5f777db10bd58f64d8bc58668d14487d008ff527ca431853ea22e195f176910160405180910390a160408051838152600160208201523391309182917fc3d58168c5ae7397731d063d5bbf3d657854427343f4c083240f7aacaa2d0f629101612394565b8047101561266b5760405162461bcd60e51b815260206004820152601d60248201527f416464726573733a20696e73756666696369656e742062616c616e63650000006044820152606401610793565b6000826001600160a01b03168260405160006040518083038185875af1925050503d80600081146126b8576040519150601f19603f3d011682016040523d82523d6000602084013e6126bd565b606091505b50509050806108345760405162461bcd60e51b815260206004820152603a60248201527f416464726573733a20756e61626c6520746f2073656e642076616c75652c207260448201527f6563697069656e74206d617920686176652072657665727465640000000000006064820152608401610793565b600061273f826118ee565b905060008061274e878761217d565b91509150600034116127a25760405162461bcd60e51b815260206004820152600860248201527f534c3a4f42503a320000000000000000000000000000000000000000000000006044820152606401610793565b816127ef5760405162461bcd60e51b815260206004820152600660248201527f4e533a303a3000000000000000000000000000000000000000000000000000006044820152606401610793565b6127f98160ff1c90565b156128315760405162461bcd60e51b81526020600482015260086024820152670534c3a48534f3a360c41b6044820152606401610793565b6128428260d81c640fffffffff1690565b8311156128915760405162461bcd60e51b815260206004820152600860248201527f534c3a4f42503a330000000000000000000000000000000000000000000000006044820152606401610793565b6001600160a01b038616826001600160a01b0316146128f457818760010160006128c28560d81c640fffffffff1690565b815260200190815260200160002060006128d98590565b6001600160a01b031681526020810191909152604001600020555b6000806129436129233464e8d4a5100065ffffffffffff60a888901c16600460ff60a08a901c16021b02613c2b565b6115bc8a611af961293b8960d81c640fffffffff1690565b600090612b0a565b909250905060a882901c65ffffffffffff1660a083901c60ff166004021b64e8d4a5100002612995606461271060a888901c65ffffffffffff1660a089901c60ff166004021b64e8d4a510000261209a565b106129cd5760405162461bcd60e51b815260206004820152600860248201526714d30e93d0940e8d60c21b6044820152606401610793565b81895561199d8160a886901c65ffffffffffff1660a087901c60ff166004021b64e8d4a510000260a885901c65ffffffffffff1660a086901c60ff166004021b64e8d4a5100002612a1e9190613c9b565b612a289190613c2b565b6001600160a01b0389169061261b565b606060ff82168067ffffffffffffffff811115612a6557634e487b7160e01b600052604160045260246000fd5b604051908082528060200260200182016040528015612a8e578160200160208202803683370190505b509150600883901c925060005b81811015612aeb57600884901c93508360ff16838281518110612ace57634e487b7160e01b600052603260045260246000fd5b602090810291909101015280612ae381613d0a565b915050612a9b565b5050919050565b60006019612b008484613c9b565b610eef9190613c68565b6000640fffffffff821115612b2f57634e487b7160e01b600052600160045260246000fd5b5060d81b7ff000000000ffffffffffffffffffffffffffffffffffffffffffffffffffffff919091161790565b600080612b68836135c5565b915091508160001415612bbd5760405162461bcd60e51b815260206004820152600a60248201527f3732313a4d494e543a30000000000000000000000000000000000000000000006044820152606401610793565b838114612c0c5760405162461bcd60e51b815260206004820152600a60248201527f3732313a4d494e543a31000000000000000000000000000000000000000000006044820152606401610793565b6000612c1986868561368e565b90507fe98dd458321045a46b57bd2d5251a739e0f01750a71e4d3e71cee6c17164dd328582604051612c4c929190613bf3565b60405180910390a16000815167ffffffffffffffff811115612c7e57634e487b7160e01b600052604160045260246000fd5b604051908082528060200260200182016040528015612ca7578160200160208202803683370190505b50905060005b8151811015612cf5576001828281518110612cd857634e487b7160e01b600052603260045260246000fd5b602090810291909101015280612ced81613d0a565b915050612cad565b50604051339060009030907f4a39dc06d4c0dbc64b70af90fd698a233a518aa5d07e595d983b8c0526c8f7fb90612d2f9087908790613bbb565b60405180910390a450505050505050565b60006001600160a01b0384163b15612e9857604051630a85bd0160e11b81526001600160a01b0385169063150b7a0290612d84903390899088908890600401613b89565b602060405180830381600087803b158015612d9e57600080fd5b505af1925050508015612dce575060408051601f3d908101601f19168201909252612dcb91810190613a1f565b60015b612e7e573d808015612dfc576040519150601f19603f3d011682016040523d82523d6000602084013e612e01565b606091505b508051612e765760405162461bcd60e51b815260206004820152603260248201527f4552433732313a207472616e7366657220746f206e6f6e20455243373231526560448201527f63656976657220696d706c656d656e74657200000000000000000000000000006064820152608401610793565b805181602001fd5b6001600160e01b031916630a85bd0160e11b1490506112ba565b5060016112ba565b612ebb30838360405180602001604052806000815250612d40565b612f215760405162461bcd60e51b815260206004820152603160248201527f4552433732313a207472616e736665722063616c6c6572206973206e6f74206f6044820152701ddb995c881b9bdc88185c1c1c9bdd9959607a1b6064820152608401610793565b6001600160a01b03821660009081526003840160205260408120805460019290612f4c908490613c2b565b9091555050600081815260028401602052604080822080546001600160a01b0319166001600160a01b03861690811790915590518392907fddf252ad1be2c89b69c2b068fc378daa952ba7f163c4a11628f55a4df523b3ef908290a4505050565b612fc830838360405180602001604052806000815250612d40565b61302e5760405162461bcd60e51b815260206004820152603160248201527f4552433732313a207472616e736665722063616c6c6572206973206e6f74206f6044820152701ddb995c881b9bdc88185c1c1c9bdd9959607a1b6064820152608401610793565b3060009081526003840160205260408120805460019290613050908490613c9b565b90915550506001600160a01b03821660009081526003840160205260408120805460019290613080908490613c2b565b9091555050600081815260028401602052604080822080546001600160a01b0319166001600160a01b0386169081179091559051839230917fddf252ad1be2c89b69c2b068fc378daa952ba7f163c4a11628f55a4df523b3ef9190a4505050565b6130eb8382610feb565b6001600160a01b0316336001600160a01b031614801561311357506001600160a01b03821633145b80156131305750306131258483610f50565b6001600160a01b0316145b6131965760405162461bcd60e51b815260206004820152603160248201527f4552433732313a207472616e736665722063616c6c6572206973206e6f74206f6044820152701ddb995c881b9bdc88185c1c1c9bdd9959607a1b6064820152608401610793565b6131a0838261373f565b6001600160a01b038216600090815260038401602052604081208054600192906131cb908490613c9b565b909155505030600090815260038401602052604081208054600192906131f2908490613c2b565b9091555050600081815260028401602052604080822080546001600160a01b03191630908117909155905183926001600160a01b038616917fddf252ad1be2c89b69c2b068fc378daa952ba7f163c4a11628f55a4df523b3ef9190a4505050565b610ac48160405160240161326991815260200190565b60408051601f198184030181529190526020810180517bffffffffffffffffffffffffffffffffffffffffffffffffffffffff167f27b7cf8500000000000000000000000000000000000000000000000000000000179052613769565b60008080600019858709858702925082811083820303915050806000141561330057600084116132f557600080fd5b508290049050610eef565b80841161330c57600080fd5b600084868809808403938111909203919050600061332c86196001613c2b565b8616958690049560026003880281188089028203028089028203028089028203028089028203028089028203028089029091030260008290038290046001019490940294049390931791909102925050509392505050565b60008060008061339386612a38565b905060005b81518160ff1610156133fd578560ff16828260ff16815181106133cb57634e487b7160e01b600052603260045260246000fd5b602002602001015114156133eb576133e4816001613c43565b92506133fd565b806133f581613d25565b915050613398565b5061340786613253565b6134138560f81b61378a565b60008260ff16116134515760405162461bcd60e51b81526020600482015260086024820152670534c3a50464d3a360c41b6044820152606401610793565b8161345b81613cb2565b60ff6010600883020190811b198916965088901c9450925061347e905084613253565b8460ff168360ff16146134d35760405162461bcd60e51b815260206004820152600860248201527f534c3a50464d3a310000000000000000000000000000000000000000000000006044820152606401610793565b509250925092565b60008060006134e985612a38565b905060005b81518160ff16101561355157818160ff168151811061351d57634e487b7160e01b600052603260045260246000fd5b60200260200101516000141561353f57613538816001613c43565b9250613551565b8061354981613d25565b9150506134ee565b5061355b85613253565b60008260ff16116135995760405162461bcd60e51b81526020600482015260086024820152670534c3a50464d3a360c41b6044820152606401610793565b816135a381613cb2565b9250506008820260100184901b851792506135bd83613253565b509250929050565b6000806135d28343612af2565b905060006135e08483613819565b905060006135ef600183613c9b565b4090508061363f5760405162461bcd60e51b815260206004820152600760248201527f4550433a53424c000000000000000000000000000000000000000000000000006044820152606401610793565b604080516020810183905290810184905230606090811b6bffffffffffffffffffffffff1916908201526074016040516020818303038152906040528051906020012060001c93505050915091565b600082815260208490526040902054606090156136ed5760405162461bcd60e51b815260206004820152600660248201527f494c3a4d3a3000000000000000000000000000000000000000000000000000006044820152606401610793565b613723600461371b60146137048660081c60ff1690565b61370e9190613d45565b60081b61ff001986161790565b60ff19161790565b600084815260208690526040902081905591506112ba82612a38565b6000818152600483016020526040812080546001600160a01b031916905581906110ae8483610feb565b80516a636f6e736f6c652e6c6f67602083016000808483855afa5050505050565b6040517fff0000000000000000000000000000000000000000000000000000000000000082166024820152610ac49060440160408051601f198184030181529190526020810180517bffffffffffffffffffffffffffffffffffffffffffffffffffffffff167f6e18a12800000000000000000000000000000000000000000000000000000000179052613769565b600082613827601984613c7c565b610eef9190613c2b565b80356001600160a01b038116811461384857600080fd5b919050565b60006020828403121561385e578081fd5b610eef82613831565b60008060408385031215613879578081fd5b61388283613831565b91506121f360208401613831565b6000806000606084860312156138a4578081fd5b6138ad84613831565b92506138bb60208501613831565b9150604084013590509250925092565b600080600080608085870312156138e0578081fd5b6138e985613831565b93506138f760208601613831565b925060408501359150606085013567ffffffffffffffff8082111561391a578283fd5b818701915087601f83011261392d578283fd5b81358181111561393f5761393f613d93565b604051601f8201601f19908116603f0116810190838211818310171561396757613967613d93565b816040528281528a602084870101111561397f578586fd5b82602086016020830137918201602001949094529598949750929550505050565b600080604083850312156139b2578182fd5b6139bb83613831565b9150602083013580151581146139cf578182fd5b809150509250929050565b600080604083850312156139ec578182fd5b6139f583613831565b946020939093013593505050565b600060208284031215613a14578081fd5b8135610eef81613da9565b600060208284031215613a30578081fd5b8151610eef81613da9565b600060208284031215613a4c578081fd5b5035919050565b60008060408385031215613a65578182fd5b50508035926020909101359150565b600080600060608486031215613a88578283fd5b8335925060208401359150613a9f60408501613831565b90509250925092565b600080600060608486031215613abc578283fd5b505081359360208301359350604090920135919050565b60008060008060808587031215613ae8578384fd5b5050823594602084013594506040840135936060013592509050565b6000815180845260208085019450808401835b83811015613b3357815187529582019590820190600101613b17565b509495945050505050565b60008151808452815b81811015613b6357602081850181015186830182015201613b47565b81811115613b745782602083870101525b50601f01601f19169290920160200192915050565b60006001600160a01b038087168352808616602084015250836040830152608060608301526124b66080830184613b3e565b604081526000613bce6040830185613b04565b8281036020840152610b5a8185613b04565b602081526000610eef6020830184613b3e565b8281526040602082015260006112ba6040830184613b04565b838152826020820152606060408201526000610b5a6060830184613b04565b60008219821115613c3e57613c3e613d67565b500190565b600060ff821660ff84168060ff03821115613c6057613c60613d67565b019392505050565b600082613c7757613c77613d7d565b500490565b6000816000190483118215151615613c9657613c96613d67565b500290565b600082821015613cad57613cad613d67565b500390565b600060ff821680613cc557613cc5613d67565b6000190192915050565b600181811c90821680613ce357607f821691505b60208210811415613d0457634e487b7160e01b600052602260045260246000fd5b50919050565b6000600019821415613d1e57613d1e613d67565b5060010190565b600060ff821660ff811415613d3c57613d3c613d67565b60010192915050565b600060ff831680613d5857613d58613d7d565b8060ff84160691505092915050565b634e487b7160e01b600052601160045260246000fd5b634e487b7160e01b600052601260045260246000fd5b634e487b7160e01b600052604160045260246000fd5b6001600160e01b031981168114610ac457600080fdfea2646970667358221220b3c89ab27b5e7e081ca635edad351a275e3c11f9b8687619741a51c6b28aded064736f6c63430008040033",
  "devdoc": {
    "kind": "dev",
    "methods": {
      "approve(address,uint256)": {
        "details": "See {IERC721-approve}."
      },
      "balanceOf(address)": {
        "details": "See {IERC721-balanceOf}."
      },
      "getApproved(uint256)": {
        "details": "See {IERC721-getApproved}."
      },
      "isApprovedForAll(address,address)": {
        "details": "See {IERC721-isApprovedForAll}."
      },
      "name()": {
        "details": "See {IERC721Metadata-name}."
      },
      "ownerOf(uint256)": {
        "details": "See {IERC721-ownerOf}."
      },
      "safeTransferFrom(address,address,uint256)": {
        "details": "See {IERC721-safeTransferFrom}."
      },
      "safeTransferFrom(address,address,uint256,bytes)": {
        "details": "See {IERC721-safeTransferFrom}."
      },
      "setApprovalForAll(address,bool)": {
        "details": "See {IERC721-setApprovalForAll}."
      },
      "supportsInterface(bytes4)": {
        "details": "See {IERC165-supportsInterface}."
      },
      "symbol()": {
        "details": "See {IERC721Metadata-symbol}."
      },
      "tokenURI(uint256)": {
        "details": "See {IERC721Metadata-tokenURI}. MODIFICATION 0"
      },
      "transferFrom(address,address,uint256)": {
        "details": "See {IERC721-transferFrom}."
      }
    },
    "version": 1
  },
  "userdoc": {
    "kind": "user",
    "methods": {},
    "version": 1
  },
  "storageLayout": {
    "storage": [
      {
        "astId": 4931,
        "contract": "contracts/src/NuggFT.sol:NuggFT",
        "label": "el_state",
        "offset": 0,
        "slot": "0",
        "type": "t_struct(Storage)5930_storage"
      },
      {
        "astId": 4464,
        "contract": "contracts/src/NuggFT.sol:NuggFT",
        "label": "il_state",
        "offset": 0,
        "slot": "6",
        "type": "t_struct(Storage)6557_storage"
      },
      {
        "astId": 4469,
        "contract": "contracts/src/NuggFT.sol:NuggFT",
        "label": "sl_state",
        "offset": 0,
        "slot": "8",
        "type": "t_mapping(t_uint256,t_struct(Storage)9120_storage)"
      },
      {
        "astId": 4476,
        "contract": "contracts/src/NuggFT.sol:NuggFT",
        "label": "sl_state_items",
        "offset": 0,
        "slot": "9",
        "type": "t_mapping(t_uint256,t_mapping(t_uint256,t_struct(Storage)9120_storage))"
      }
    ],
    "types": {
      "t_address": {
        "encoding": "inplace",
        "label": "address",
        "numberOfBytes": "20"
      },
      "t_bool": {
        "encoding": "inplace",
        "label": "bool",
        "numberOfBytes": "1"
      },
      "t_mapping(t_address,t_bool)": {
        "encoding": "mapping",
        "key": "t_address",
        "label": "mapping(address => bool)",
        "numberOfBytes": "32",
        "value": "t_bool"
      },
      "t_mapping(t_address,t_mapping(t_address,t_bool))": {
        "encoding": "mapping",
        "key": "t_address",
        "label": "mapping(address => mapping(address => bool))",
        "numberOfBytes": "32",
        "value": "t_mapping(t_address,t_bool)"
      },
      "t_mapping(t_address,t_uint256)": {
        "encoding": "mapping",
        "key": "t_address",
        "label": "mapping(address => uint256)",
        "numberOfBytes": "32",
        "value": "t_uint256"
      },
      "t_mapping(t_uint160,t_uint256)": {
        "encoding": "mapping",
        "key": "t_uint160",
        "label": "mapping(uint160 => uint256)",
        "numberOfBytes": "32",
        "value": "t_uint256"
      },
      "t_mapping(t_uint256,t_address)": {
        "encoding": "mapping",
        "key": "t_uint256",
        "label": "mapping(uint256 => address)",
        "numberOfBytes": "32",
        "value": "t_address"
      },
      "t_mapping(t_uint256,t_mapping(t_uint160,t_uint256))": {
        "encoding": "mapping",
        "key": "t_uint256",
        "label": "mapping(uint256 => mapping(uint160 => uint256))",
        "numberOfBytes": "32",
        "value": "t_mapping(t_uint160,t_uint256)"
      },
      "t_mapping(t_uint256,t_mapping(t_uint256,t_struct(Storage)9120_storage))": {
        "encoding": "mapping",
        "key": "t_uint256",
        "label": "mapping(uint256 => mapping(uint256 => struct SwapLib.Storage))",
        "numberOfBytes": "32",
        "value": "t_mapping(t_uint256,t_struct(Storage)9120_storage)"
      },
      "t_mapping(t_uint256,t_struct(Storage)9120_storage)": {
        "encoding": "mapping",
        "key": "t_uint256",
        "label": "mapping(uint256 => struct SwapLib.Storage)",
        "numberOfBytes": "32",
        "value": "t_struct(Storage)9120_storage"
      },
      "t_mapping(t_uint256,t_uint256)": {
        "encoding": "mapping",
        "key": "t_uint256",
        "label": "mapping(uint256 => uint256)",
        "numberOfBytes": "32",
        "value": "t_uint256"
      },
      "t_string_storage": {
        "encoding": "bytes",
        "label": "string",
        "numberOfBytes": "32"
      },
      "t_struct(Storage)5930_storage": {
        "encoding": "inplace",
        "label": "struct ERC721Lib.Storage",
        "members": [
          {
            "astId": 5909,
            "contract": "contracts/src/NuggFT.sol:NuggFT",
            "label": "_name",
            "offset": 0,
            "slot": "0",
            "type": "t_string_storage"
          },
          {
            "astId": 5911,
            "contract": "contracts/src/NuggFT.sol:NuggFT",
            "label": "_symbol",
            "offset": 0,
            "slot": "1",
            "type": "t_string_storage"
          },
          {
            "astId": 5915,
            "contract": "contracts/src/NuggFT.sol:NuggFT",
            "label": "_owners",
            "offset": 0,
            "slot": "2",
            "type": "t_mapping(t_uint256,t_address)"
          },
          {
            "astId": 5919,
            "contract": "contracts/src/NuggFT.sol:NuggFT",
            "label": "_balances",
            "offset": 0,
            "slot": "3",
            "type": "t_mapping(t_address,t_uint256)"
          },
          {
            "astId": 5923,
            "contract": "contracts/src/NuggFT.sol:NuggFT",
            "label": "_tokenApprovals",
            "offset": 0,
            "slot": "4",
            "type": "t_mapping(t_uint256,t_address)"
          },
          {
            "astId": 5929,
            "contract": "contracts/src/NuggFT.sol:NuggFT",
            "label": "_operatorApprovals",
            "offset": 0,
            "slot": "5",
            "type": "t_mapping(t_address,t_mapping(t_address,t_bool))"
          }
        ],
        "numberOfBytes": "192"
      },
      "t_struct(Storage)6557_storage": {
        "encoding": "inplace",
        "label": "struct ItemLib.Storage",
        "members": [
          {
            "astId": 6552,
            "contract": "contracts/src/NuggFT.sol:NuggFT",
            "label": "tokenData",
            "offset": 0,
            "slot": "0",
            "type": "t_mapping(t_uint256,t_uint256)"
          },
          {
            "astId": 6556,
            "contract": "contracts/src/NuggFT.sol:NuggFT",
            "label": "protocolItems",
            "offset": 0,
            "slot": "1",
            "type": "t_mapping(t_uint256,t_uint256)"
          }
        ],
        "numberOfBytes": "64"
      },
      "t_struct(Storage)9120_storage": {
        "encoding": "inplace",
        "label": "struct SwapLib.Storage",
        "members": [
          {
            "astId": 9113,
            "contract": "contracts/src/NuggFT.sol:NuggFT",
            "label": "data",
            "offset": 0,
            "slot": "0",
            "type": "t_uint256"
          },
          {
            "astId": 9119,
            "contract": "contracts/src/NuggFT.sol:NuggFT",
            "label": "offers",
            "offset": 0,
            "slot": "1",
            "type": "t_mapping(t_uint256,t_mapping(t_uint160,t_uint256))"
          }
        ],
        "numberOfBytes": "64"
      },
      "t_uint160": {
        "encoding": "inplace",
        "label": "uint160",
        "numberOfBytes": "20"
      },
      "t_uint256": {
        "encoding": "inplace",
        "label": "uint256",
        "numberOfBytes": "32"
      }
    }
  }
}