{
  "address": "0x42069bd5C2db737e4eED18d3c697De2829E8E380",
  "abi": [
    {
      "inputs": [],
      "stateMutability": "nonpayable",
      "type": "constructor"
    },
    {
      "anonymous": false,
      "inputs": [
        {
          "indexed": true,
          "internalType": "address",
          "name": "owner",
          "type": "address"
        },
        {
          "indexed": true,
          "internalType": "address",
          "name": "spender",
          "type": "address"
        },
        {
          "indexed": false,
          "internalType": "uint256",
          "name": "value",
          "type": "uint256"
        }
      ],
      "name": "Approval",
      "type": "event"
    },
    {
      "anonymous": false,
      "inputs": [
        {
          "indexed": true,
          "internalType": "address",
          "name": "dst",
          "type": "address"
        },
        {
          "indexed": false,
          "internalType": "uint256",
          "name": "wad",
          "type": "uint256"
        }
      ],
      "name": "Deposit",
      "type": "event"
    },
    {
      "anonymous": false,
      "inputs": [
        {
          "indexed": true,
          "internalType": "address",
          "name": "deployer",
          "type": "address"
        }
      ],
      "name": "Launched",
      "type": "event"
    },
    {
      "anonymous": false,
      "inputs": [
        {
          "indexed": true,
          "internalType": "address",
          "name": "sender",
          "type": "address"
        },
        {
          "indexed": false,
          "internalType": "uint256",
          "name": "amount",
          "type": "uint256"
        }
      ],
      "name": "RewardIncrease",
      "type": "event"
    },
    {
      "anonymous": false,
      "inputs": [
        {
          "indexed": true,
          "internalType": "address",
          "name": "account",
          "type": "address"
        },
        {
          "indexed": false,
          "internalType": "address",
          "name": "sender",
          "type": "address"
        },
        {
          "indexed": false,
          "internalType": "uint256",
          "name": "amount",
          "type": "uint256"
        }
      ],
      "name": "SharesDecrease",
      "type": "event"
    },
    {
      "anonymous": false,
      "inputs": [
        {
          "indexed": true,
          "internalType": "address",
          "name": "account",
          "type": "address"
        },
        {
          "indexed": false,
          "internalType": "address",
          "name": "sender",
          "type": "address"
        },
        {
          "indexed": false,
          "internalType": "uint256",
          "name": "amount",
          "type": "uint256"
        }
      ],
      "name": "SharesIncrease",
      "type": "event"
    },
    {
      "anonymous": false,
      "inputs": [
        {
          "indexed": true,
          "internalType": "address",
          "name": "account",
          "type": "address"
        },
        {
          "indexed": false,
          "internalType": "address",
          "name": "sender",
          "type": "address"
        },
        {
          "indexed": false,
          "internalType": "uint256",
          "name": "amount",
          "type": "uint256"
        }
      ],
      "name": "TokenEarn",
      "type": "event"
    },
    {
      "anonymous": false,
      "inputs": [
        {
          "indexed": true,
          "internalType": "address",
          "name": "from",
          "type": "address"
        },
        {
          "indexed": true,
          "internalType": "address",
          "name": "to",
          "type": "address"
        },
        {
          "indexed": false,
          "internalType": "uint256",
          "name": "value",
          "type": "uint256"
        }
      ],
      "name": "Transfer",
      "type": "event"
    },
    {
      "anonymous": false,
      "inputs": [
        {
          "indexed": true,
          "internalType": "address",
          "name": "src",
          "type": "address"
        },
        {
          "indexed": false,
          "internalType": "uint256",
          "name": "wad",
          "type": "uint256"
        }
      ],
      "name": "Withdrawal",
      "type": "event"
    },
    {
      "stateMutability": "payable",
      "type": "fallback"
    },
    {
      "inputs": [
        {
          "internalType": "address",
          "name": "account",
          "type": "address"
        },
        {
          "internalType": "uint256",
          "name": "amount",
          "type": "uint256"
        }
      ],
      "name": "_supplyOfBefore",
      "outputs": [
        {
          "internalType": "uint256",
          "name": "res",
          "type": "uint256"
        }
      ],
      "stateMutability": "view",
      "type": "function"
    },
    {
      "inputs": [
        {
          "internalType": "address",
          "name": "owner",
          "type": "address"
        },
        {
          "internalType": "address",
          "name": "spender",
          "type": "address"
        }
      ],
      "name": "allowance",
      "outputs": [
        {
          "internalType": "uint256",
          "name": "",
          "type": "uint256"
        }
      ],
      "stateMutability": "view",
      "type": "function"
    },
    {
      "inputs": [
        {
          "internalType": "address",
          "name": "spender",
          "type": "address"
        },
        {
          "internalType": "uint256",
          "name": "amount",
          "type": "uint256"
        }
      ],
      "name": "approve",
      "outputs": [
        {
          "internalType": "bool",
          "name": "",
          "type": "bool"
        }
      ],
      "stateMutability": "nonpayable",
      "type": "function"
    },
    {
      "inputs": [
        {
          "internalType": "address",
          "name": "from",
          "type": "address"
        }
      ],
      "name": "balanceOf",
      "outputs": [
        {
          "internalType": "uint256",
          "name": "res",
          "type": "uint256"
        }
      ],
      "stateMutability": "view",
      "type": "function"
    },
    {
      "inputs": [
        {
          "internalType": "address",
          "name": "from",
          "type": "address"
        }
      ],
      "name": "balanceOfMinted",
      "outputs": [
        {
          "internalType": "uint256",
          "name": "res",
          "type": "uint256"
        }
      ],
      "stateMutability": "view",
      "type": "function"
    },
    {
      "inputs": [],
      "name": "decimals",
      "outputs": [
        {
          "internalType": "uint8",
          "name": "",
          "type": "uint8"
        }
      ],
      "stateMutability": "view",
      "type": "function"
    },
    {
      "inputs": [
        {
          "internalType": "address",
          "name": "spender",
          "type": "address"
        },
        {
          "internalType": "uint256",
          "name": "subtractedValue",
          "type": "uint256"
        }
      ],
      "name": "decreaseAllowance",
      "outputs": [
        {
          "internalType": "bool",
          "name": "",
          "type": "bool"
        }
      ],
      "stateMutability": "nonpayable",
      "type": "function"
    },
    {
      "inputs": [],
      "name": "deployer",
      "outputs": [
        {
          "internalType": "address",
          "name": "",
          "type": "address"
        }
      ],
      "stateMutability": "view",
      "type": "function"
    },
    {
      "inputs": [],
      "name": "deposit",
      "outputs": [],
      "stateMutability": "payable",
      "type": "function"
    },
    {
      "inputs": [
        {
          "internalType": "address",
          "name": "sender",
          "type": "address"
        }
      ],
      "name": "depositRewards",
      "outputs": [],
      "stateMutability": "payable",
      "type": "function"
    },
    {
      "inputs": [
        {
          "internalType": "address",
          "name": "to",
          "type": "address"
        }
      ],
      "name": "depositTo",
      "outputs": [],
      "stateMutability": "payable",
      "type": "function"
    },
    {
      "inputs": [
        {
          "internalType": "uint256",
          "name": "amount",
          "type": "uint256"
        }
      ],
      "name": "depositWeth",
      "outputs": [],
      "stateMutability": "nonpayable",
      "type": "function"
    },
    {
      "inputs": [
        {
          "internalType": "address",
          "name": "to",
          "type": "address"
        },
        {
          "internalType": "uint256",
          "name": "amount",
          "type": "uint256"
        }
      ],
      "name": "depositWethTo",
      "outputs": [],
      "stateMutability": "nonpayable",
      "type": "function"
    },
    {
      "inputs": [
        {
          "internalType": "address",
          "name": "spender",
          "type": "address"
        },
        {
          "internalType": "uint256",
          "name": "addedValue",
          "type": "uint256"
        }
      ],
      "name": "increaseAllowance",
      "outputs": [
        {
          "internalType": "bool",
          "name": "",
          "type": "bool"
        }
      ],
      "stateMutability": "nonpayable",
      "type": "function"
    },
    {
      "inputs": [
        {
          "internalType": "bytes",
          "name": "data",
          "type": "bytes"
        }
      ],
      "name": "launch",
      "outputs": [],
      "stateMutability": "nonpayable",
      "type": "function"
    },
    {
      "inputs": [],
      "name": "launched",
      "outputs": [
        {
          "internalType": "bool",
          "name": "",
          "type": "bool"
        }
      ],
      "stateMutability": "view",
      "type": "function"
    },
    {
      "inputs": [],
      "name": "name",
      "outputs": [
        {
          "internalType": "string",
          "name": "",
          "type": "string"
        }
      ],
      "stateMutability": "view",
      "type": "function"
    },
    {
      "inputs": [],
      "name": "nuggGet",
      "outputs": [],
      "stateMutability": "nonpayable",
      "type": "function"
    },
    {
      "inputs": [],
      "name": "nuggSet",
      "outputs": [],
      "stateMutability": "nonpayable",
      "type": "function"
    },
    {
      "inputs": [
        {
          "internalType": "address",
          "name": "account",
          "type": "address"
        }
      ],
      "name": "ownershipOfX128",
      "outputs": [
        {
          "internalType": "uint256",
          "name": "res",
          "type": "uint256"
        }
      ],
      "stateMutability": "view",
      "type": "function"
    },
    {
      "inputs": [],
      "name": "relay",
      "outputs": [
        {
          "internalType": "contract INuggETHRelay",
          "name": "res",
          "type": "address"
        }
      ],
      "stateMutability": "view",
      "type": "function"
    },
    {
      "inputs": [
        {
          "internalType": "address",
          "name": "account",
          "type": "address"
        }
      ],
      "name": "sharesOf",
      "outputs": [
        {
          "internalType": "uint256",
          "name": "res",
          "type": "uint256"
        }
      ],
      "stateMutability": "view",
      "type": "function"
    },
    {
      "inputs": [
        {
          "internalType": "address",
          "name": "account",
          "type": "address"
        }
      ],
      "name": "supplyOf",
      "outputs": [
        {
          "internalType": "uint256",
          "name": "res",
          "type": "uint256"
        }
      ],
      "stateMutability": "view",
      "type": "function"
    },
    {
      "inputs": [],
      "name": "symbol",
      "outputs": [
        {
          "internalType": "string",
          "name": "",
          "type": "string"
        }
      ],
      "stateMutability": "view",
      "type": "function"
    },
    {
      "inputs": [],
      "name": "totalShares",
      "outputs": [
        {
          "internalType": "uint256",
          "name": "res",
          "type": "uint256"
        }
      ],
      "stateMutability": "view",
      "type": "function"
    },
    {
      "inputs": [],
      "name": "totalSupply",
      "outputs": [
        {
          "internalType": "uint256",
          "name": "res",
          "type": "uint256"
        }
      ],
      "stateMutability": "view",
      "type": "function"
    },
    {
      "inputs": [],
      "name": "totalSupplyMinted",
      "outputs": [
        {
          "internalType": "uint256",
          "name": "res",
          "type": "uint256"
        }
      ],
      "stateMutability": "view",
      "type": "function"
    },
    {
      "inputs": [
        {
          "internalType": "address",
          "name": "recipient",
          "type": "address"
        },
        {
          "internalType": "uint256",
          "name": "amount",
          "type": "uint256"
        }
      ],
      "name": "transfer",
      "outputs": [
        {
          "internalType": "bool",
          "name": "",
          "type": "bool"
        }
      ],
      "stateMutability": "nonpayable",
      "type": "function"
    },
    {
      "inputs": [
        {
          "internalType": "address",
          "name": "sender",
          "type": "address"
        },
        {
          "internalType": "address",
          "name": "recipient",
          "type": "address"
        },
        {
          "internalType": "uint256",
          "name": "amount",
          "type": "uint256"
        }
      ],
      "name": "transferFrom",
      "outputs": [
        {
          "internalType": "bool",
          "name": "",
          "type": "bool"
        }
      ],
      "stateMutability": "nonpayable",
      "type": "function"
    },
    {
      "inputs": [],
      "name": "tummy",
      "outputs": [
        {
          "internalType": "address",
          "name": "",
          "type": "address"
        }
      ],
      "stateMutability": "view",
      "type": "function"
    },
    {
      "inputs": [
        {
          "internalType": "uint256",
          "name": "amount",
          "type": "uint256"
        }
      ],
      "name": "withdraw",
      "outputs": [],
      "stateMutability": "nonpayable",
      "type": "function"
    },
    {
      "inputs": [
        {
          "internalType": "address",
          "name": "from",
          "type": "address"
        },
        {
          "internalType": "uint256",
          "name": "amount",
          "type": "uint256"
        }
      ],
      "name": "withdrawFrom",
      "outputs": [],
      "stateMutability": "nonpayable",
      "type": "function"
    },
    {
      "inputs": [
        {
          "internalType": "uint256",
          "name": "amount",
          "type": "uint256"
        }
      ],
      "name": "withdrawWeth",
      "outputs": [],
      "stateMutability": "nonpayable",
      "type": "function"
    },
    {
      "inputs": [
        {
          "internalType": "address",
          "name": "account",
          "type": "address"
        },
        {
          "internalType": "uint256",
          "name": "amount",
          "type": "uint256"
        }
      ],
      "name": "withdrawWethFrom",
      "outputs": [],
      "stateMutability": "nonpayable",
      "type": "function"
    },
    {
      "stateMutability": "payable",
      "type": "receive"
    }
  ],
  "transactionHash": "0xe3a0c3aa5835ae4ff991d7381fc6ab89582c3d224bdafa188a2724683cc023c1",
  "args": [],
  "solcInputHash": "24ac09d9bc97ff10fe4e0604109f49d6",
  "bytecode": "0x60a06040526001805460ff191690556008805460ff60a01b191690553480156200002857600080fd5b5060405180604001604052806012815260200171273ab3b3902bb930b83832b21022ba3432b960711b8152506040518060400160405280600781526020016609ceacece8aa8960cb1b815250620000846200017e60201b60201c565b516000805460ff191660ff909216919091179055620000a04690565b600114620000b5576001805460ff1916811790555b8151620000ca9060059060208501906200019d565b508051620000e09060069060208401906200019d565b505050604051620000f1906200022c565b604051809103906000f0801580156200010e573d6000803e3d6000fd5b5060601b6001600160601b03191660805260078054326001600160a01b03199182161790915560088054339216919091179055620001646040805160208082018352600090915281519081019091526001815290565b51600e805460ff191660ff9092169190911790556200028e565b6040805160208082018352600090915281519081019091526001815290565b828054620001ab9062000251565b90600052602060002090601f016020900481019282620001cf57600085556200021a565b82601f10620001ea57805160ff19168380011785556200021a565b828001600101855582156200021a579182015b828111156200021a578251825591602001919060010190620001fd565b50620002289291506200023a565b5090565b61126180620023dd83390190565b5b808211156200022857600081556001016200023b565b600181811c908216806200026657607f821691505b602082108114156200028857634e487b7160e01b600052602260045260246000fd5b50919050565b60805160601c612129620002b4600039600081816105fc015261090b01526121296000f3fe6080604052600436106101bd5760003560e01c80638e2b3ff6116100ed578063c415f75911610090578063c415f759146104eb578063d0e30db01461050b578063d5f3948814610513578063dbe8706214610531578063dd0bea1314610551578063dd62ed3e14610571578063f5eb42dc146105b7578063f9a03881146105ed578063fd2ec49b14610620576101e1565b80638e2b3ff6146103fc578063933e95b21461041c5780639470b0bd1461043157806395d89b4114610451578063a457c2d714610466578063a9059cbb14610486578063b59589d1146104a6578063b760faf9146104d8576101e1565b80633950935111610160578063395093511461030b5780633a98ef391461032b5780633beba2ee146103405780633febada714610355578063547612141461036857806362400e4c1461037d578063690e0dda1461039d57806370a08231146103bd5780638091f3bf146103dd576101e1565b806305e9fe50146101f557806306fdde0314610228578063095ea7b31461024a57806318160ddd1461027a5780631fdc772d1461028f57806323b872dd146102af5780632e1a7d4d146102cf578063313ce567146102ef576101e1565b366101e157600d546001600160a01b03163314155b156101df576101df610640565b005b600d546001600160a01b03163314156101d2565b34801561020157600080fd5b50610215610210366004611d53565b61064a565b6040519081526020015b60405180910390f35b34801561023457600080fd5b5061023d61066b565b60405161021f9190611f53565b34801561025657600080fd5b5061026a610265366004611e15565b6106fd565b604051901515815260200161021f565b34801561028657600080fd5b50610215610713565b34801561029b57600080fd5b506101df6102aa366004611e15565b610722565b3480156102bb57600080fd5b5061026a6102ca366004611dd5565b610776565b3480156102db57600080fd5b506101df6102ea366004611f0a565b610822565b3480156102fb57600080fd5b506040516012815260200161021f565b34801561031757600080fd5b5061026a610326366004611e15565b61082f565b34801561033757600080fd5b5061021561086b565b34801561034c57600080fd5b506101df61087e565b6101df610363366004611d53565b6108b3565b34801561037457600080fd5b506101df6109a7565b34801561038957600080fd5b50610215610398366004611d53565b6109cf565b3480156103a957600080fd5b506101df6103b8366004611f0a565b6109ea565b3480156103c957600080fd5b506102156103d8366004611d53565b610a3a565b3480156103e957600080fd5b50600854600160a01b900460ff1661026a565b34801561040857600080fd5b50610215610417366004611d53565b610a45565b34801561042857600080fd5b50610215610a50565b34801561043d57600080fd5b506101df61044c366004611e15565b610a5b565b34801561045d57600080fd5b5061023d610a69565b34801561047257600080fd5b5061026a610481366004611e15565b610a78565b34801561049257600080fd5b5061026a6104a1366004611e15565b610b11565b3480156104b257600080fd5b50600c546001600160a01b03165b6040516001600160a01b03909116815260200161021f565b6101df6104e6366004611d53565b610b1e565b3480156104f757600080fd5b506101df610506366004611e60565b610b28565b6101df610b79565b34801561051f57600080fd5b506007546001600160a01b03166104c0565b34801561053d57600080fd5b506101df61054c366004611e15565b610b83565b34801561055d57600080fd5b506101df61056c366004611f0a565b610bbf565b34801561057d57600080fd5b5061021561058c366004611da8565b6001600160a01b03918216600090815260036020908152604080832093909416825291909152205490565b3480156105c357600080fd5b506102156105d2366004611d53565b6001600160a01b03166000908152600b602052604090205490565b3480156105f957600080fd5b507f00000000000000000000000000000000000000000000000000000000000000006104c0565b34801561062c57600080fd5b5061021561063b366004611e15565b610c01565b610648610b79565b565b6000610665610657610c2c565b61066084610c46565b610c70565b92915050565b60606005805461067a9061203c565b80601f01602080910402602001604051908101604052809291908181526020018280546106a69061203c565b80156106f35780601f106106c8576101008083540402835291602001916106f3565b820191906000526020600020905b8154815290600101906020018083116106d657829003601f168201915b5050505050905090565b600061070a338484610c8a565b50600192915050565b600061071d610dae565b905090565b600e805460ff16600214156107525760405162461bcd60e51b815260040161074990611fa6565b60405180910390fd5b805460ff191660021781556107678383610dbe565b805460ff191660011790555050565b6000610783848484610e23565b6001600160a01b0384166000908152600360209081526040808320338452909152902054828110156108085760405162461bcd60e51b815260206004820152602860248201527f45524332303a207472616e7366657220616d6f756e74206578636565647320616044820152676c6c6f77616e636560c01b6064820152608401610749565b6108158533858403610c8a565b60019150505b9392505050565b61082c3382610ff6565b50565b3360008181526003602090815260408083206001600160a01b0387168452909152812054909161070a918590610866908690611fce565b610c8a565b6000610875610c2c565b60200151905090565b60015460ff1680156108a057506001546001600160a01b036101009091041633145b6108a957600080fd5b6106483347611006565b600e805460ff16600214156108da5760405162461bcd60e51b815260040161074990611fa6565b805460ff1916600217815560006127106108f13490565b6108fd906103e8612006565b6109079190611fe6565b90507f00000000000000000000000000000000000000000000000000000000000000006001600160a01b031663d0e30db0826040518263ffffffff1660e01b81526004016000604051808303818588803b15801561096457600080fd5b505af1158015610978573d6000803e3d6000fd5b505050505061099883826109893490565b6109939190612025565b611019565b50805460ff1916600117905550565b60015460ff166109b657600080fd5b60018054610100600160a81b0319163361010002179055565b60006106656109dc610c2c565b6109e584610c46565b611089565b600e805460ff1660021415610a115760405162461bcd60e51b815260040161074990611fa6565b805460ff19166002178155610a2c610a263390565b836110a7565b805460ff1916600117905550565b6000610665826109cf565b6000610665826110c8565b600061071d60045490565b610a658282610ff6565b5050565b60606006805461067a9061203c565b3360009081526003602090815260408083206001600160a01b038616845290915281205482811015610afa5760405162461bcd60e51b815260206004820152602560248201527f45524332303a2064656372656173656420616c6c6f77616e63652062656c6f77604482015264207a65726f60d81b6064820152608401610749565b610b073385858403610c8a565b5060019392505050565b600061070a338484610e23565b61082c81346110be565b610b31816110e3565b60008082806020019051810190610b489190611d6f565b600c80546001600160a01b039384166001600160a01b031991821617909155600d8054929093169116179055505050565b61064833346110be565b600e805460ff1660021415610baa5760405162461bcd60e51b815260040161074990611fa6565b805460ff1916600217815561076783836110a7565b600e805460ff1660021415610be65760405162461bcd60e51b815260040161074990611fa6565b805460ff19166002178155610a2c610bfb3390565b83610dbe565b600061081b610c23604080518082019091526009548152600a54602082015290565b6109e585610c46565b604080518082019091526009548152600a54602082015290565b604080516020808201835260008083526001600160a01b03949094168452600b9052912054815290565b6020820151815160009161081b9190600160801b906111d2565b6001600160a01b038316610cec5760405162461bcd60e51b8152602060048201526024808201527f45524332303a20617070726f76652066726f6d20746865207a65726f206164646044820152637265737360e01b6064820152608401610749565b6001600160a01b038216610d4d5760405162461bcd60e51b815260206004820152602260248201527f45524332303a20617070726f766520746f20746865207a65726f206164647265604482015261737360f01b6064820152608401610749565b6001600160a01b0383811660008181526003602090815260408083209487168084529482529182902085905590518481527f8c5be1e5ebec7d5bd14f71427d1e84f3dd0314c0f7b2291e5b200ac8c7c3b925910160405180910390a3505050565b6000610db8610c2c565b51919050565b610dc88282611290565b600d54610ddf906001600160a01b031633836113e4565b47610de8610c2c565b5114610a655760405162461bcd60e51b815260206004820152600a60248201526905354414b453a54533a360b41b6044820152606401610749565b6001600160a01b038316610e875760405162461bcd60e51b815260206004820152602560248201527f45524332303a207472616e736665722066726f6d20746865207a65726f206164604482015264647265737360d81b6064820152608401610749565b6001600160a01b038216610ee95760405162461bcd60e51b815260206004820152602360248201527f45524332303a207472616e7366657220746f20746865207a65726f206164647260448201526265737360e81b6064820152608401610749565b610ef48383836114b8565b6001600160a01b03831660009081526002602052604090205481811015610f6c5760405162461bcd60e51b815260206004820152602660248201527f45524332303a207472616e7366657220616d6f756e7420657863656564732062604482015265616c616e636560d01b6064820152608401610749565b6001600160a01b03808516600090815260026020526040808220858503905591851681529081208054849290610fa3908490611fce565b92505081905550826001600160a01b0316846001600160a01b03166000805160206120d483398151915284604051610fdd91815260200190565b60405180910390a3610ff08484846114e8565b50505050565b6110008282611290565b610ddf33825b610a656001600160a01b038316826115b4565b6000611023610c2c565b905061102f81836116ca565b611041816020810151600a5551600955565b826001600160a01b03167f12fb2f8eef64b903d84b091fd56a1542266638be3201f0a7c94246bf8948b08c8360405161107c91815260200190565b60405180910390a2505050565b805160009061109957600061081b565b61081b8383600001516116e3565b600d546110be906001600160a01b031633836116f9565b610ddf828261189c565b6001600160a01b031660009081526002602052604090205490565b6007546001600160a01b031633148061110657506008546001600160a01b031633145b61113e5760405162461bcd60e51b815260206004820152600960248201526804c41553a4c41553a360bc1b6044820152606401610749565b600854600160a01b900460ff16156111845760405162461bcd60e51b81526020600482015260096024820152684c41553a4c41553a3160b81b6044820152606401610749565b6008805460ff60a01b1916600160a01b1790556007546040516001600160a01b03909116907fb900795bb40f8a7bc484866009ca19ebf7b277001a839428e1b8e1a21d8e216c90600090a250565b60008080600019858709858702925082811083820303915050806000141561120c576000841161120157600080fd5b50829004905061081b565b80841161121857600080fd5b600084868809808403938111909203919050600061123886196001611fce565b8616958690049560026003880281188089028203028089028203028089028203028089028203028089028203028089029091030260008290038290046001019490940294049390931791909102925050509392505050565b6001600160a01b0382166112f05760405162461bcd60e51b815260206004820152602160248201527f45524332303a206275726e2066726f6d20746865207a65726f206164647265736044820152607360f81b6064820152608401610749565b6112fc826000836114b8565b6001600160a01b038216600090815260026020526040902054818110156113705760405162461bcd60e51b815260206004820152602260248201527f45524332303a206275726e20616d6f756e7420657863656564732062616c616e604482015261636560f01b6064820152608401610749565b6001600160a01b038316600090815260026020526040812083830390556004805484929061139f908490612025565b90915550506040518281526000906001600160a01b038516906000805160206120d48339815191529060200160405180910390a36113df836000846114e8565b505050565b826001600160a01b031663d0e30db0826040518263ffffffff1660e01b81526004016000604051808303818588803b15801561141f57600080fd5b505af1158015611433573d6000803e3d6000fd5b505060405163a9059cbb60e01b81526001600160a01b038716935063a9059cbb9250611466915085908590600401611f3a565b602060405180830381600087803b15801561148057600080fd5b505af1158015611494573d6000803e3d6000fd5b505050506040513d601f19601f82011682018060405250810190610ff09190611e40565b6001600160a01b038216156114d0576114d08261197d565b6001600160a01b038316156113df576113df8361197d565b6001600160a01b038216156115015761150182826119c5565b6001600160a01b0383161561151a5761151a8382611a64565b611523836110c8565b61152c846109cf565b11156115675760405162461bcd60e51b815260206004820152600a60248201526904e4554483a4154543a360b41b6044820152606401610749565b611570826110c8565b611579836109cf565b11156113df5760405162461bcd60e51b815260206004820152600a6024820152694e4554483a4154543a3160b01b6044820152606401610749565b804710156116045760405162461bcd60e51b815260206004820152601d60248201527f416464726573733a20696e73756666696369656e742062616c616e63650000006044820152606401610749565b6000826001600160a01b03168260405160006040518083038185875af1925050503d8060008114611651576040519150601f19603f3d011682016040523d82523d6000602084013e611656565b606091505b50509050806113df5760405162461bcd60e51b815260206004820152603a60248201527f416464726573733a20756e61626c6520746f2073656e642076616c75652c20726044820152791958da5c1a595b9d081b585e481a185d99481c995d995c9d195960321b6064820152608401610749565b80826000018181516116dc9190611fce565b9052505050565b8151602083015160009161081b918491906111d2565b604051636eb1769f60e11b81526001600160a01b03838116600483015230602483015282919085169063dd62ed3e9060440160206040518083038186803b15801561174357600080fd5b505afa158015611757573d6000803e3d6000fd5b505050506040513d601f19601f8201168201806040525081019061177b9190611f22565b10156117b45760405162461bcd60e51b815260206004820152600860248201526704558433a54573a360c41b6044820152606401610749565b6040516323b872dd60e01b81526001600160a01b038381166004830152306024830152604482018390528416906323b872dd90606401602060405180830381600087803b15801561180457600080fd5b505af1158015611818573d6000803e3d6000fd5b505050506040513d601f19601f8201168201806040525081019061183c9190611e40565b50604051632e1a7d4d60e01b8152600481018290526001600160a01b03841690632e1a7d4d90602401600060405180830381600087803b15801561187f57600080fd5b505af1158015611893573d6000803e3d6000fd5b50505050505050565b6001600160a01b0382166118f25760405162461bcd60e51b815260206004820152601f60248201527f45524332303a206d696e7420746f20746865207a65726f2061646472657373006044820152606401610749565b6118fe600083836114b8565b80600460008282546119109190611fce565b90915550506001600160a01b0382166000908152600260205260408120805483929061193d908490611fce565b90915550506040518181526001600160a01b038316906000906000805160206120d48339815191529060200160405180910390a3610a65600083836114e8565b6000611988826110c8565b90506000611995836109cf565b9050818111156113df576119b2836119ad8484612025565b611ad5565b6113df836119c08484612025565b611bac565b60006119e4604080518082019091526009548152600a54602082015290565b905060006119f184610c46565b90506119fe828285611bf3565b611a10826020810151600a5551600955565b611a1a8185611c6c565b6001600160a01b0384167ff79618b9b212291398a0530b20c102f3c78e36669656305b218bc3dccb5f6f69335b85604051611a56929190611f3a565b60405180910390a250505050565b6000611a6e610c2c565b90506000611a7b84610c46565b9050611a88828285611c8a565b611a9a826020810151600a5551600955565b611aa48185611c6c565b6001600160a01b0384167f82b453f2dbd611a3a6856c2fc1ab4e809b7ccc59cbf1a3caa930e0f5d151e19033611a47565b6001600160a01b038216611b355760405162461bcd60e51b815260206004820152602160248201527f45524332303a2061737369676e20746f20746865207a65726f206164647265736044820152607360f81b6064820152608401610749565b8060046000828254611b479190611fce565b90915550506001600160a01b03821660009081526002602052604081208054839290611b74908490611fce565b90915550506040518181526001600160a01b038316906000906000805160206120d48339815191529060200160405180910390a35050565b6001600160a01b0382167f0ccd6ee46b8056d511b00b106fc14ff895945afa6d998954a71c51c47fca55ca3383604051611be7929190611f3a565b60405180910390a25050565b6020830151158015611c0457508251155b15611c185790819052602082018190529052565b6000611c248483611cd5565b90508083600001818151611c389190611fce565b905250602084018051829190611c4f908390611fce565b905250835182908590611c63908390611fce565b90525050505050565b90516001600160a01b039091166000908152600b6020526040902055565b6000611c968483611ceb565b90508083600001818151611caa9190612025565b905250602084018051829190611cc1908390612025565b905250835182908590611c63908390612025565b6020820151825160009161081b918491906111d2565b6020820151825160009161081b918491906000611d098484846111d2565b905060008280611d2957634e487b7160e01b600052601260045260246000fd5b848609111561081b576000198110611d4057600080fd5b80611d4a81612077565b95945050505050565b600060208284031215611d64578081fd5b813561081b816120be565b60008060408385031215611d81578081fd5b8251611d8c816120be565b6020840151909250611d9d816120be565b809150509250929050565b60008060408385031215611dba578182fd5b8235611dc5816120be565b91506020830135611d9d816120be565b600080600060608486031215611de9578081fd5b8335611df4816120be565b92506020840135611e04816120be565b929592945050506040919091013590565b60008060408385031215611e27578182fd5b8235611e32816120be565b946020939093013593505050565b600060208284031215611e51578081fd5b8151801515811461081b578182fd5b600060208284031215611e71578081fd5b813567ffffffffffffffff80821115611e88578283fd5b818401915084601f830112611e9b578283fd5b813581811115611ead57611ead6120a8565b604051601f8201601f19908116603f01168101908382118183101715611ed557611ed56120a8565b81604052828152876020848701011115611eed578586fd5b826020860160208301379182016020019490945295945050505050565b600060208284031215611f1b578081fd5b5035919050565b600060208284031215611f33578081fd5b5051919050565b6001600160a01b03929092168252602082015260400190565b6000602080835283518082850152825b81811015611f7f57858101830151858201604001528201611f63565b81811115611f905783604083870101525b50601f01601f1916929092016040019392505050565b6020808252600e908201526d04d555445583a4c4f434b45443a360941b604082015260600190565b60008219821115611fe157611fe1612092565b500190565b60008261200157634e487b7160e01b81526012600452602481fd5b500490565b600081600019048311821515161561202057612020612092565b500290565b60008282101561203757612037612092565b500390565b600181811c9082168061205057607f821691505b6020821081141561207157634e487b7160e01b600052602260045260246000fd5b50919050565b600060001982141561208b5761208b612092565b5060010190565b634e487b7160e01b600052601160045260246000fd5b634e487b7160e01b600052604160045260246000fd5b6001600160a01b038116811461082c57600080fdfeddf252ad1be2c89b69c2b068fc378daa952ba7f163c4a11628f55a4df523b3efa26469706673582212209bba426d7140c195974e146aadfb02a3a5cfc087723ad5ffb04e87f2f10c3cb264736f6c6343000804003360806040526003805460ff191690553480156200001b57600080fd5b506040805160208082018352600090915281519081019091526001908190526002805460ff19168217905546146200005b576003805460ff191660011790555b62000088692ba4aa24222920aba2a960b11b7358c59716840b9f2ef87a92b31c12e55c19ac85fb620000a6565b620000a0682222a827a9a4aa22a960b91b33620000a6565b6200020b565b620000bd8282620000e960201b6200063e1760201c565b6000828152600160209081526040909120620000e49183906200064c620000f9821b17901c565b505050565b620000f5828262000119565b5050565b600062000110836001600160a01b038416620001b9565b90505b92915050565b6000828152602081815260408083206001600160a01b038516845290915290205460ff16620000f5576000828152602081815260408083206001600160a01b03851684529091529020805460ff19166001179055620001753390565b6001600160a01b0316816001600160a01b0316837f2f8788117e7eff1d82e926ec794901d17c78024a50270940304540a733656f0d60405160405180910390a45050565b6000818152600183016020526040812054620002025750815460018181018455600084815260208082209093018490558454848252828601909352604090209190915562000113565b50600062000113565b611046806200021b6000396000f3fe6080604052600436106100c85760003560e01c80633ccfd60b1161007a5780633ccfd60b146101cc57806354761214146101e15780639010d07c146101f657806391d148541461022e578063a217fddf1461024e578063ca15c87314610263578063d0e30db014610283578063d547741f1461028b57600080fd5b806301ffc9a7146100cd5780630d1859f614610102578063248a9ca3146101245780632f2ff15d14610162578063323a5e0b1461018257806336568abe146101975780633beba2ee146101b7575b600080fd5b3480156100d957600080fd5b506100ed6100e8366004610e0b565b6102ab565b60405190151581526020015b60405180910390f35b34801561010e57600080fd5b5061012261011d366004610e33565b6102d6565b005b34801561013057600080fd5b5061015461013f366004610da3565b60009081526020819052604090206001015490565b6040519081526020016100f9565b34801561016e57600080fd5b5061012261017d366004610dbb565b6103c5565b34801561018e57600080fd5b50600454610154565b3480156101a357600080fd5b506101226101b2366004610dbb565b6103ec565b3480156101c357600080fd5b5061012261040e565b3480156101d857600080fd5b50610122610445565b3480156101ed57600080fd5b506101226104ff565b34801561020257600080fd5b50610216610211366004610dea565b610527565b6040516001600160a01b0390911681526020016100f9565b34801561023a57600080fd5b506100ed610249366004610dbb565b610546565b34801561025a57600080fd5b50610154600081565b34801561026f57600080fd5b5061015461027e366004610da3565b61056f565b610122610586565b34801561029757600080fd5b506101226102a6366004610dbb565b610634565b60006001600160e01b03198216635a05180f60e01b14806102d057506102d082610661565b92915050565b692ba4aa24222920aba2a960b11b6102ee8133610696565b6002805460ff1681141561031d5760405162461bcd60e51b815260040161031490610f25565b60405180910390fd5b805460ff191660021781556040516323b872dd60e01b81526001600160a01b0386811660048301528581166024830152604482018590528716906323b872dd90606401602060405180830381600087803b15801561037a57600080fd5b505af115801561038e573d6000803e3d6000fd5b505050506040513d601f19601f820116820180604052508101906103b29190610d83565b50805460ff191660011790555050505050565b6103cf82826106fa565b60008281526001602052604090206103e7908261064c565b505050565b6103f68282610720565b60008281526001602052604090206103e7908261079a565b60035460ff16801561043057506003546001600160a01b036101009091041633145b61043957600080fd5b61044333476107af565b565b692ba4aa24222920aba2a960b11b61045d8133610696565b6002805460ff168114156104835760405162461bcd60e51b815260040161031490610f25565b805460ff1916600217815560048054600091829055906104a03390565b90506104ac81836107af565b806001600160a01b03167f7084f5476618d8e60b11ef0d7d3f06914655adb8793e28ff7f018d4c76d505d5836040516104e791815260200190565b60405180910390a25050805460ff1916600117905550565b60035460ff1661050e57600080fd5b60038054610100600160a81b0319163361010002179055565b600082815260016020526040812061053f90836107c2565b9392505050565b6000918252602082815260408084206001600160a01b0393909316845291905290205460ff1690565b60008181526001602052604081206102d0906107ce565b682222a827a9a4aa22a960b91b61059d8133610696565b6002805460ff168114156105c35760405162461bcd60e51b815260040161031490610f25565b805460ff1916600217815560006105d73490565b905080600460008282546105eb9190610f4d565b909155505060405181815233907f2da466a7b24304f47e87fa2e1e5a81b9831ce54fec19055ce277ca2f39ba42c49060200160405180910390a250805460ff1916600117905550565b6103f682826107d8565b61064882826107fe565b5050565b600061053f836001600160a01b038416610882565b60006001600160e01b03198216637965db0b60e01b14806102d057506301ffc9a760e01b6001600160e01b03198316146102d0565b6106a08282610546565b610648576106b8816001600160a01b031660146108d1565b6106c38360206108d1565b6040516020016106d4929190610e83565b60408051601f198184030181529082905262461bcd60e51b825261031491600401610ef2565b6000828152602081905260409020600101546107168133610696565b6103e783836107fe565b6001600160a01b03811633146107905760405162461bcd60e51b815260206004820152602f60248201527f416363657373436f6e74726f6c3a2063616e206f6e6c792072656e6f756e636560448201526e103937b632b9903337b91039b2b63360891b6064820152608401610314565b6106488282610ab3565b600061053f836001600160a01b038416610b18565b6106486001600160a01b03831682610c35565b600061053f8383610d4b565b60006102d0825490565b6000828152602081905260409020600101546107f48133610696565b6103e78383610ab3565b6108088282610546565b610648576000828152602081815260408083206001600160a01b03851684529091529020805460ff1916600117905561083e3390565b6001600160a01b0316816001600160a01b0316837f2f8788117e7eff1d82e926ec794901d17c78024a50270940304540a733656f0d60405160405180910390a45050565b60008181526001830160205260408120546108c9575081546001818101845560008481526020808220909301849055845484825282860190935260409020919091556102d0565b5060006102d0565b606060006108e0836002610f65565b6108eb906002610f4d565b67ffffffffffffffff81111561091157634e487b7160e01b600052604160045260246000fd5b6040519080825280601f01601f19166020018201604052801561093b576020820181803683370190505b509050600360fc1b8160008151811061096457634e487b7160e01b600052603260045260246000fd5b60200101906001600160f81b031916908160001a905350600f60fb1b816001815181106109a157634e487b7160e01b600052603260045260246000fd5b60200101906001600160f81b031916908160001a90535060006109c5846002610f65565b6109d0906001610f4d565b90505b6001811115610a64576f181899199a1a9b1b9c1cb0b131b232b360811b85600f1660108110610a1257634e487b7160e01b600052603260045260246000fd5b1a60f81b828281518110610a3657634e487b7160e01b600052603260045260246000fd5b60200101906001600160f81b031916908160001a90535060049490941c93610a5d81610fcb565b90506109d3565b50831561053f5760405162461bcd60e51b815260206004820181905260248201527f537472696e67733a20686578206c656e67746820696e73756666696369656e746044820152606401610314565b610abd8282610546565b15610648576000828152602081815260408083206001600160a01b0385168085529252808320805460ff1916905551339285917ff6391f5c32d9c69d2a47ea670b442974b53935d1edc7fd64eb21e047a839171b9190a45050565b60008181526001830160205260408120548015610c2b576000610b3c600183610f84565b8554909150600090610b5090600190610f84565b9050818114610bd1576000866000018281548110610b7e57634e487b7160e01b600052603260045260246000fd5b9060005260206000200154905080876000018481548110610baf57634e487b7160e01b600052603260045260246000fd5b6000918252602080832090910192909255918252600188019052604090208390555b8554869080610bf057634e487b7160e01b600052603160045260246000fd5b6001900381819060005260206000200160009055905585600101600086815260200190815260200160002060009055600193505050506102d0565b60009150506102d0565b80471015610c855760405162461bcd60e51b815260206004820152601d60248201527f416464726573733a20696e73756666696369656e742062616c616e63650000006044820152606401610314565b6000826001600160a01b03168260405160006040518083038185875af1925050503d8060008114610cd2576040519150601f19603f3d011682016040523d82523d6000602084013e610cd7565b606091505b50509050806103e75760405162461bcd60e51b815260206004820152603a60248201527f416464726573733a20756e61626c6520746f2073656e642076616c75652c20726044820152791958da5c1a595b9d081b585e481a185d99481c995d995c9d195960321b6064820152608401610314565b6000826000018281548110610d7057634e487b7160e01b600052603260045260246000fd5b9060005260206000200154905092915050565b600060208284031215610d94578081fd5b8151801515811461053f578182fd5b600060208284031215610db4578081fd5b5035919050565b60008060408385031215610dcd578081fd5b823591506020830135610ddf81610ff8565b809150509250929050565b60008060408385031215610dfc578182fd5b50508035926020909101359150565b600060208284031215610e1c578081fd5b81356001600160e01b03198116811461053f578182fd5b60008060008060808587031215610e48578182fd5b8435610e5381610ff8565b93506020850135610e6381610ff8565b92506040850135610e7381610ff8565b9396929550929360600135925050565b76020b1b1b2b9b9a1b7b73a3937b61d1030b1b1b7bab73a1604d1b815260008351610eb5816017850160208801610f9b565b7001034b99036b4b9b9b4b733903937b6329607d1b6017918401918201528351610ee6816028840160208801610f9b565b01602801949350505050565b6020815260008251806020840152610f11816040850160208701610f9b565b601f01601f19169190910160400192915050565b6020808252600e908201526d04d555445583a4c4f434b45443a360941b604082015260600190565b60008219821115610f6057610f60610fe2565b500190565b6000816000190483118215151615610f7f57610f7f610fe2565b500290565b600082821015610f9657610f96610fe2565b500390565b60005b83811015610fb6578181015183820152602001610f9e565b83811115610fc5576000848401525b50505050565b600081610fda57610fda610fe2565b506000190190565b634e487b7160e01b600052601160045260246000fd5b6001600160a01b038116811461100d57600080fd5b5056fea2646970667358221220944a175e092220cb0968c7d5a61859a9e671696d0b9d18a89b58327692b972e364736f6c63430008040033",
  "devdoc": {
    "author": "Nugg Labs - @danny7even & @dub6ix",
    "kind": "dev",
    "methods": {
      "allowance(address,address)": {
        "details": "See {IERC20-allowance}."
      },
      "approve(address,uint256)": {
        "details": "See {IERC20-approve}. Requirements: - `spender` cannot be the zero address."
      },
      "decimals()": {
        "details": "Returns the number of decimals used to get its user representation. For example, if `decimals` equals `2`, a balance of `505` tokens should be displayed to a user as `5.05` (`505 / 10 ** 2`). Tokens usually opt for a value of 18, imitating the relationship between Ether and Wei. This is the value {ERC20} uses, unless this function is overridden; NOTE: This information is only used for _display_ purposes: it in no way affects any of the arithmetic of the contract, including {IERC20-balanceOf} and {IERC20-transfer}."
      },
      "decreaseAllowance(address,uint256)": {
        "details": "Atomically decreases the allowance granted to `spender` by the caller. This is an alternative to {approve} that can be used as a mitigation for problems described in {IERC20-approve}. Emits an {Approval} event indicating the updated allowance. Requirements: - `spender` cannot be the zero address. - `spender` must have allowance for the caller of at least `subtractedValue`."
      },
      "deployer()": {
        "details": "#TODO"
      },
      "increaseAllowance(address,uint256)": {
        "details": "Atomically increases the allowance granted to `spender` by the caller. This is an alternative to {approve} that can be used as a mitigation for problems described in {IERC20-approve}. Emits an {Approval} event indicating the updated allowance. Requirements: - `spender` cannot be the zero address."
      },
      "launched()": {
        "details": "#TODO"
      },
      "name()": {
        "details": "Returns the name of the token."
      },
      "ownershipOfX128(address)": {
        "details": "external wrapper for _shares - to save on gas"
      },
      "sharesOf(address)": {
        "details": "external wrapper for _shares - to save on gas"
      },
      "supplyOf(address)": {
        "details": "in regards to this contract, this could just be earningsOf + sharesOf"
      },
      "symbol()": {
        "details": "Returns the symbol of the token, usually a shorter version of the name."
      },
      "totalShares()": {
        "details": "external wrapper for _shares - to save on gas"
      },
      "transfer(address,uint256)": {
        "details": "See {IERC20-transfer}. Requirements: - `recipient` cannot be the zero address. - the caller must have a balance of at least `amount`."
      },
      "transferFrom(address,address,uint256)": {
        "details": "See {IERC20-transferFrom}. Emits an {Approval} event indicating the updated allowance. This is not required by the EIP. See the note at the beginning of {ERC20}. Requirements: - `sender` and `recipient` cannot be the zero address. - `sender` must have a balance of at least `amount`. - the caller must have allowance for ``sender``'s tokens of at least `amount`."
      },
      "tummy()": {
        "details": "returns user's current reward balance",
        "returns": {
          "_0": "balance"
        }
      }
    },
    "title": "NuggETH",
    "version": 1
  },
  "userdoc": {
    "kind": "user",
    "methods": {
      "deposit()": {
        "notice": "Deposit ether to get wrapped ether"
      }
    },
    "notice": "leggo",
    "version": 1
  },
  "storageLayout": {
    "storage": [
      {
        "astId": 4767,
        "contract": "contracts/weth/NuggETH.sol:NuggETH",
        "label": "global",
        "offset": 0,
        "slot": "0",
        "type": "t_struct(Mutex)4758_storage"
      },
      {
        "astId": 5341,
        "contract": "contracts/weth/NuggETH.sol:NuggETH",
        "label": "inTesting",
        "offset": 0,
        "slot": "1",
        "type": "t_bool"
      },
      {
        "astId": 5356,
        "contract": "contracts/weth/NuggETH.sol:NuggETH",
        "label": "pw",
        "offset": 1,
        "slot": "1",
        "type": "t_address"
      },
      {
        "astId": 11619,
        "contract": "contracts/weth/NuggETH.sol:NuggETH",
        "label": "_balances",
        "offset": 0,
        "slot": "2",
        "type": "t_mapping(t_address,t_uint256)"
      },
      {
        "astId": 11625,
        "contract": "contracts/weth/NuggETH.sol:NuggETH",
        "label": "_allowances",
        "offset": 0,
        "slot": "3",
        "type": "t_mapping(t_address,t_mapping(t_address,t_uint256))"
      },
      {
        "astId": 11627,
        "contract": "contracts/weth/NuggETH.sol:NuggETH",
        "label": "_totalSupply",
        "offset": 0,
        "slot": "4",
        "type": "t_uint256"
      },
      {
        "astId": 11629,
        "contract": "contracts/weth/NuggETH.sol:NuggETH",
        "label": "_name",
        "offset": 0,
        "slot": "5",
        "type": "t_string_storage"
      },
      {
        "astId": 11631,
        "contract": "contracts/weth/NuggETH.sol:NuggETH",
        "label": "_symbol",
        "offset": 0,
        "slot": "6",
        "type": "t_string_storage"
      },
      {
        "astId": 4664,
        "contract": "contracts/weth/NuggETH.sol:NuggETH",
        "label": "_deployer",
        "offset": 0,
        "slot": "7",
        "type": "t_address"
      },
      {
        "astId": 4666,
        "contract": "contracts/weth/NuggETH.sol:NuggETH",
        "label": "_deployerContract",
        "offset": 0,
        "slot": "8",
        "type": "t_address"
      },
      {
        "astId": 4669,
        "contract": "contracts/weth/NuggETH.sol:NuggETH",
        "label": "_launched",
        "offset": 20,
        "slot": "8",
        "type": "t_bool"
      },
      {
        "astId": 4949,
        "contract": "contracts/weth/NuggETH.sol:NuggETH",
        "label": "_supply",
        "offset": 0,
        "slot": "9",
        "type": "t_uint256"
      },
      {
        "astId": 4951,
        "contract": "contracts/weth/NuggETH.sol:NuggETH",
        "label": "_shares",
        "offset": 0,
        "slot": "10",
        "type": "t_uint256"
      },
      {
        "astId": 4955,
        "contract": "contracts/weth/NuggETH.sol:NuggETH",
        "label": "_shares_owned",
        "offset": 0,
        "slot": "11",
        "type": "t_mapping(t_address,t_uint256)"
      },
      {
        "astId": 16466,
        "contract": "contracts/weth/NuggETH.sol:NuggETH",
        "label": "_RELAY",
        "offset": 0,
        "slot": "12",
        "type": "t_contract(INuggETHRelay)17413"
      },
      {
        "astId": 16469,
        "contract": "contracts/weth/NuggETH.sol:NuggETH",
        "label": "_WETH",
        "offset": 0,
        "slot": "13",
        "type": "t_contract(IWETH9)14068"
      },
      {
        "astId": 16472,
        "contract": "contracts/weth/NuggETH.sol:NuggETH",
        "label": "local",
        "offset": 0,
        "slot": "14",
        "type": "t_struct(Mutex)4758_storage"
      }
    ],
    "types": {
      "t_address": {
        "encoding": "inplace",
        "label": "address",
        "numberOfBytes": "20"
      },
      "t_bool": {
        "encoding": "inplace",
        "label": "bool",
        "numberOfBytes": "1"
      },
      "t_contract(INuggETHRelay)17413": {
        "encoding": "inplace",
        "label": "contract INuggETHRelay",
        "numberOfBytes": "20"
      },
      "t_contract(IWETH9)14068": {
        "encoding": "inplace",
        "label": "contract IWETH9",
        "numberOfBytes": "20"
      },
      "t_mapping(t_address,t_mapping(t_address,t_uint256))": {
        "encoding": "mapping",
        "key": "t_address",
        "label": "mapping(address => mapping(address => uint256))",
        "numberOfBytes": "32",
        "value": "t_mapping(t_address,t_uint256)"
      },
      "t_mapping(t_address,t_uint256)": {
        "encoding": "mapping",
        "key": "t_address",
        "label": "mapping(address => uint256)",
        "numberOfBytes": "32",
        "value": "t_uint256"
      },
      "t_string_storage": {
        "encoding": "bytes",
        "label": "string",
        "numberOfBytes": "32"
      },
      "t_struct(Mutex)4758_storage": {
        "encoding": "inplace",
        "label": "struct Mutexable.Mutex",
        "members": [
          {
            "astId": 4757,
            "contract": "contracts/weth/NuggETH.sol:NuggETH",
            "label": "status",
            "offset": 0,
            "slot": "0",
            "type": "t_uint8"
          }
        ],
        "numberOfBytes": "32"
      },
      "t_uint256": {
        "encoding": "inplace",
        "label": "uint256",
        "numberOfBytes": "32"
      },
      "t_uint8": {
        "encoding": "inplace",
        "label": "uint8",
        "numberOfBytes": "1"
      }
    }
  }
}