{
  "address": "0x42069D5125Fe66A8a1fE5317985206BC101255e1",
  "abi": [
    {
      "inputs": [],
      "stateMutability": "nonpayable",
      "type": "constructor"
    },
    {
      "anonymous": false,
      "inputs": [
        {
          "indexed": true,
          "internalType": "uint256",
          "name": "epoch",
          "type": "uint256"
        },
        {
          "indexed": false,
          "internalType": "uint256",
          "name": "amount",
          "type": "uint256"
        }
      ],
      "name": "AuctionInit",
      "type": "event"
    },
    {
      "anonymous": false,
      "inputs": [
        {
          "indexed": true,
          "internalType": "uint256",
          "name": "epoch",
          "type": "uint256"
        },
        {
          "indexed": true,
          "internalType": "address",
          "name": "user",
          "type": "address"
        },
        {
          "indexed": false,
          "internalType": "uint256",
          "name": "amount",
          "type": "uint256"
        },
        {
          "indexed": false,
          "internalType": "enum IExchangeable.Currency",
          "name": "currency",
          "type": "uint8"
        }
      ],
      "name": "BidPlaced",
      "type": "event"
    },
    {
      "anonymous": false,
      "inputs": [
        {
          "indexed": true,
          "internalType": "address",
          "name": "deployer",
          "type": "address"
        }
      ],
      "name": "Launched",
      "type": "event"
    },
    {
      "anonymous": false,
      "inputs": [
        {
          "indexed": true,
          "internalType": "uint256",
          "name": "epoch",
          "type": "uint256"
        },
        {
          "indexed": true,
          "internalType": "address",
          "name": "user",
          "type": "address"
        },
        {
          "indexed": false,
          "internalType": "uint256",
          "name": "amount",
          "type": "uint256"
        },
        {
          "indexed": false,
          "internalType": "enum IExchangeable.Currency",
          "name": "currency",
          "type": "uint8"
        }
      ],
      "name": "NormalClaim",
      "type": "event"
    },
    {
      "anonymous": false,
      "inputs": [
        {
          "indexed": true,
          "internalType": "uint256",
          "name": "epoch",
          "type": "uint256"
        },
        {
          "indexed": true,
          "internalType": "address",
          "name": "user",
          "type": "address"
        },
        {
          "indexed": false,
          "internalType": "uint256",
          "name": "amount",
          "type": "uint256"
        }
      ],
      "name": "WinningClaim",
      "type": "event"
    },
    {
      "stateMutability": "payable",
      "type": "fallback"
    },
    {
      "inputs": [],
      "name": "calculateCurrentSeed",
      "outputs": [
        {
          "internalType": "bytes32",
          "name": "res",
          "type": "bytes32"
        }
      ],
      "stateMutability": "view",
      "type": "function"
    },
    {
      "inputs": [
        {
          "internalType": "uint256",
          "name": "auctionId",
          "type": "uint256"
        },
        {
          "internalType": "enum IExchangeable.Currency",
          "name": "currency",
          "type": "uint8"
        }
      ],
      "name": "claim",
      "outputs": [],
      "stateMutability": "nonpayable",
      "type": "function"
    },
    {
      "inputs": [],
      "name": "currentAuction",
      "outputs": [
        {
          "components": [
            {
              "internalType": "uint256",
              "name": "auctionId",
              "type": "uint256"
            },
            {
              "internalType": "bool",
              "name": "init",
              "type": "bool"
            },
            {
              "components": [
                {
                  "internalType": "bytes32",
                  "name": "id",
                  "type": "bytes32"
                },
                {
                  "internalType": "uint256",
                  "name": "auctionId",
                  "type": "uint256"
                },
                {
                  "internalType": "address",
                  "name": "account",
                  "type": "address"
                },
                {
                  "internalType": "uint256",
                  "name": "amount",
                  "type": "uint256"
                },
                {
                  "internalType": "bool",
                  "name": "claimed",
                  "type": "bool"
                },
                {
                  "internalType": "enum IExchangeable.Currency",
                  "name": "currency",
                  "type": "uint8"
                },
                {
                  "internalType": "uint256",
                  "name": "bidnum",
                  "type": "uint256"
                },
                {
                  "internalType": "bool",
                  "name": "first",
                  "type": "bool"
                }
              ],
              "internalType": "struct IAuctionable.Bid",
              "name": "top",
              "type": "tuple"
            },
            {
              "components": [
                {
                  "internalType": "bytes32",
                  "name": "id",
                  "type": "bytes32"
                },
                {
                  "internalType": "uint256",
                  "name": "auctionId",
                  "type": "uint256"
                },
                {
                  "internalType": "address",
                  "name": "account",
                  "type": "address"
                },
                {
                  "internalType": "uint256",
                  "name": "amount",
                  "type": "uint256"
                },
                {
                  "internalType": "bool",
                  "name": "claimed",
                  "type": "bool"
                },
                {
                  "internalType": "enum IExchangeable.Currency",
                  "name": "currency",
                  "type": "uint8"
                },
                {
                  "internalType": "uint256",
                  "name": "bidnum",
                  "type": "uint256"
                },
                {
                  "internalType": "bool",
                  "name": "first",
                  "type": "bool"
                }
              ],
              "internalType": "struct IAuctionable.Bid",
              "name": "last",
              "type": "tuple"
            }
          ],
          "internalType": "struct IAuctionable.Auction",
          "name": "res",
          "type": "tuple"
        }
      ],
      "stateMutability": "view",
      "type": "function"
    },
    {
      "inputs": [],
      "name": "currentEpoch",
      "outputs": [
        {
          "components": [
            {
              "internalType": "uint256",
              "name": "id",
              "type": "uint256"
            },
            {
              "internalType": "uint256",
              "name": "startblock",
              "type": "uint256"
            },
            {
              "internalType": "uint256",
              "name": "endblock",
              "type": "uint256"
            },
            {
              "internalType": "enum EpochMath.Status",
              "name": "status",
              "type": "uint8"
            }
          ],
          "internalType": "struct EpochMath.Epoch",
          "name": "res",
          "type": "tuple"
        }
      ],
      "stateMutability": "view",
      "type": "function"
    },
    {
      "inputs": [],
      "name": "currentEpochId",
      "outputs": [
        {
          "internalType": "uint256",
          "name": "res",
          "type": "uint256"
        }
      ],
      "stateMutability": "view",
      "type": "function"
    },
    {
      "inputs": [],
      "name": "deployer",
      "outputs": [
        {
          "internalType": "address",
          "name": "",
          "type": "address"
        }
      ],
      "stateMutability": "view",
      "type": "function"
    },
    {
      "inputs": [
        {
          "internalType": "uint256",
          "name": "blocknum",
          "type": "uint256"
        }
      ],
      "name": "epochFromBlocknum",
      "outputs": [
        {
          "components": [
            {
              "internalType": "uint256",
              "name": "id",
              "type": "uint256"
            },
            {
              "internalType": "uint256",
              "name": "startblock",
              "type": "uint256"
            },
            {
              "internalType": "uint256",
              "name": "endblock",
              "type": "uint256"
            },
            {
              "internalType": "enum EpochMath.Status",
              "name": "status",
              "type": "uint8"
            }
          ],
          "internalType": "struct EpochMath.Epoch",
          "name": "res",
          "type": "tuple"
        }
      ],
      "stateMutability": "view",
      "type": "function"
    },
    {
      "inputs": [
        {
          "internalType": "uint256",
          "name": "id",
          "type": "uint256"
        }
      ],
      "name": "epochStatus",
      "outputs": [
        {
          "internalType": "enum EpochMath.Status",
          "name": "res",
          "type": "uint8"
        }
      ],
      "stateMutability": "view",
      "type": "function"
    },
    {
      "inputs": [],
      "name": "genesisBlock",
      "outputs": [
        {
          "internalType": "uint256",
          "name": "",
          "type": "uint256"
        }
      ],
      "stateMutability": "view",
      "type": "function"
    },
    {
      "inputs": [
        {
          "internalType": "uint256",
          "name": "auctionId",
          "type": "uint256"
        }
      ],
      "name": "getAuction",
      "outputs": [
        {
          "components": [
            {
              "internalType": "uint256",
              "name": "auctionId",
              "type": "uint256"
            },
            {
              "internalType": "bool",
              "name": "init",
              "type": "bool"
            },
            {
              "components": [
                {
                  "internalType": "bytes32",
                  "name": "id",
                  "type": "bytes32"
                },
                {
                  "internalType": "uint256",
                  "name": "auctionId",
                  "type": "uint256"
                },
                {
                  "internalType": "address",
                  "name": "account",
                  "type": "address"
                },
                {
                  "internalType": "uint256",
                  "name": "amount",
                  "type": "uint256"
                },
                {
                  "internalType": "bool",
                  "name": "claimed",
                  "type": "bool"
                },
                {
                  "internalType": "enum IExchangeable.Currency",
                  "name": "currency",
                  "type": "uint8"
                },
                {
                  "internalType": "uint256",
                  "name": "bidnum",
                  "type": "uint256"
                },
                {
                  "internalType": "bool",
                  "name": "first",
                  "type": "bool"
                }
              ],
              "internalType": "struct IAuctionable.Bid",
              "name": "top",
              "type": "tuple"
            },
            {
              "components": [
                {
                  "internalType": "bytes32",
                  "name": "id",
                  "type": "bytes32"
                },
                {
                  "internalType": "uint256",
                  "name": "auctionId",
                  "type": "uint256"
                },
                {
                  "internalType": "address",
                  "name": "account",
                  "type": "address"
                },
                {
                  "internalType": "uint256",
                  "name": "amount",
                  "type": "uint256"
                },
                {
                  "internalType": "bool",
                  "name": "claimed",
                  "type": "bool"
                },
                {
                  "internalType": "enum IExchangeable.Currency",
                  "name": "currency",
                  "type": "uint8"
                },
                {
                  "internalType": "uint256",
                  "name": "bidnum",
                  "type": "uint256"
                },
                {
                  "internalType": "bool",
                  "name": "first",
                  "type": "bool"
                }
              ],
              "internalType": "struct IAuctionable.Bid",
              "name": "last",
              "type": "tuple"
            }
          ],
          "internalType": "struct IAuctionable.Auction",
          "name": "res",
          "type": "tuple"
        }
      ],
      "stateMutability": "view",
      "type": "function"
    },
    {
      "inputs": [
        {
          "internalType": "uint256",
          "name": "auctionId",
          "type": "uint256"
        },
        {
          "internalType": "address",
          "name": "account",
          "type": "address"
        }
      ],
      "name": "getBid",
      "outputs": [
        {
          "components": [
            {
              "internalType": "bytes32",
              "name": "id",
              "type": "bytes32"
            },
            {
              "internalType": "uint256",
              "name": "auctionId",
              "type": "uint256"
            },
            {
              "internalType": "address",
              "name": "account",
              "type": "address"
            },
            {
              "internalType": "uint256",
              "name": "amount",
              "type": "uint256"
            },
            {
              "internalType": "bool",
              "name": "claimed",
              "type": "bool"
            },
            {
              "internalType": "enum IExchangeable.Currency",
              "name": "currency",
              "type": "uint8"
            },
            {
              "internalType": "uint256",
              "name": "bidnum",
              "type": "uint256"
            },
            {
              "internalType": "bool",
              "name": "first",
              "type": "bool"
            }
          ],
          "internalType": "struct IAuctionable.Bid",
          "name": "res",
          "type": "tuple"
        }
      ],
      "stateMutability": "view",
      "type": "function"
    },
    {
      "inputs": [
        {
          "internalType": "uint256",
          "name": "id",
          "type": "uint256"
        }
      ],
      "name": "getSeed",
      "outputs": [
        {
          "internalType": "bytes32",
          "name": "res",
          "type": "bytes32"
        }
      ],
      "stateMutability": "view",
      "type": "function"
    },
    {
      "inputs": [],
      "name": "interval",
      "outputs": [
        {
          "internalType": "uint256",
          "name": "",
          "type": "uint256"
        }
      ],
      "stateMutability": "view",
      "type": "function"
    },
    {
      "inputs": [
        {
          "internalType": "bytes",
          "name": "data",
          "type": "bytes"
        }
      ],
      "name": "launch",
      "outputs": [],
      "stateMutability": "nonpayable",
      "type": "function"
    },
    {
      "inputs": [],
      "name": "launched",
      "outputs": [
        {
          "internalType": "bool",
          "name": "",
          "type": "bool"
        }
      ],
      "stateMutability": "view",
      "type": "function"
    },
    {
      "inputs": [],
      "name": "nuggGet",
      "outputs": [],
      "stateMutability": "nonpayable",
      "type": "function"
    },
    {
      "inputs": [],
      "name": "nuggSet",
      "outputs": [],
      "stateMutability": "nonpayable",
      "type": "function"
    },
    {
      "inputs": [
        {
          "internalType": "uint256",
          "name": "auctionId",
          "type": "uint256"
        },
        {
          "internalType": "uint256",
          "name": "amount",
          "type": "uint256"
        },
        {
          "internalType": "enum IExchangeable.Currency",
          "name": "currency",
          "type": "uint8"
        }
      ],
      "name": "placeBid",
      "outputs": [],
      "stateMutability": "payable",
      "type": "function"
    },
    {
      "inputs": [
        {
          "internalType": "uint256",
          "name": "id",
          "type": "uint256"
        }
      ],
      "name": "seedExists",
      "outputs": [
        {
          "internalType": "bool",
          "name": "res",
          "type": "bool"
        }
      ],
      "stateMutability": "view",
      "type": "function"
    },
    {
      "inputs": [
        {
          "internalType": "uint256",
          "name": "id",
          "type": "uint256"
        }
      ],
      "name": "seeds",
      "outputs": [
        {
          "internalType": "bytes32",
          "name": "res",
          "type": "bytes32"
        }
      ],
      "stateMutability": "view",
      "type": "function"
    },
    {
      "stateMutability": "payable",
      "type": "receive"
    }
  ],
  "transactionHash": "0x407442ae72d17da7c59d6522f1a41f7e9bf2eaeead4f21bd0ce8ca3d027d9dd5",
  "args": [],
  "solcInputHash": "2cc9f6dd74b0da3bccbbe01aeef4a61d",
  "bytecode": "0x60806040526000805460ff191690556008805460ff60a01b1916905534801561002757600080fd5b50601946600114610040576000805460ff191660011790555b436001556100666040805160208082018352600090915281519081019091526001815290565b516002805460ff191660ff90921691909117905561009c6040805160208082018352600090915281519081019091526001815290565b516003805460ff92831660ff19909116179055600780546001600160a01b03199081163217909155600880549091163317905561ffff8216111561013f5760405162461bcd60e51b815260206004820152603060248201527f696e74657276616c20746f6f206c6f6e6720746f20616c776179732066696e6460448201526f040ecc2d8d2c840c4d8dec6d6d0c2e6d60831b606482015260840160405180910390fd5b604080518082019091524380825260ff9092166020909101819052600991909155600a805460ff19169091179055611ccb8061017c6000396000f3fe6080604052600436106101035760003560e01c8063947a36fb11610090578063947a36fb14610277578063c415f7591461028f578063c7608b22146102af578063d5f39488146102c4578063e0d4ea37146102ec578063e1fcc9411461030c578063eacdc5ff1461031f578063eba1b60b14610334578063f0503e8014610361578063f9aa6e0f1461038e5761011f565b80632faf3ea6146101275780633beba2ee14610147578063428a03191461015c578063496a698d146101a05780634cdc9c63146101c257806354761214146101e157806376671808146101f657806378bd7935146102185780637ad920b3146102385780638091f3bf146102585761011f565b3661011f576101106103bb565b1561011d5761011d610400565b005b6101106103bb565b34801561013357600080fd5b5061011d6101423660046119c7565b61043c565b34801561015357600080fd5b5061011d61044b565b34801561016857600080fd5b5061018b610177366004611968565b6000908152600b6020526040902054151590565b60405190151581526020015b60405180910390f35b3480156101ac57600080fd5b506101b5610480565b6040516101979190611b35565b3480156101ce57600080fd5b506009545b604051908152602001610197565b3480156101ed57600080fd5b5061011d6104a3565b34801561020257600080fd5b5061020b6104cb565b6040516101979190611b8a565b34801561022457600080fd5b506101b5610233366004611968565b6104e3565b34801561024457600080fd5b5061020b610253366004611968565b610528565b34801561026457600080fd5b50600854600160a01b900460ff1661018b565b34801561028357600080fd5b50600a5460ff166101d3565b34801561029b57600080fd5b5061011d6102aa3660046118be565b61055e565b3480156102bb57600080fd5b506101d36105cb565b3480156102d057600080fd5b506007546040516001600160a01b039091168152602001610197565b3480156102f857600080fd5b506101d3610307366004611968565b610657565b61011d61031a3660046119f2565b6106b2565b34801561032b57600080fd5b506101d36106c3565b34801561034057600080fd5b5061035461034f366004611998565b6106ea565b6040516101979190611b7b565b34801561036d57600080fd5b506101d361037c366004611968565b6000908152600b602052604090205490565b34801561039a57600080fd5b506103ae6103a9366004611968565b61074b565b6040516101979190611add565b60006103cf600e546001600160a01b031690565b6001600160a01b0316336001600160a01b0316141580156103fb5750600d546001600160a01b03163314155b905090565b60405162461bcd60e51b815260206004820152600a60248201526904155433a455448463a360b41b60448201526064015b60405180910390fd5b565b610447823383610773565b5050565b60005460ff16801561046d57506000546001600160a01b036101009091041633145b61047657600080fd5b61043a3347610834565b610488611787565b6000610492610847565b905061049d816104e3565b91505090565b60005460ff166104b257600080fd5b60008054610100600160a81b0319163361010002179055565b6104d36117b8565b6103fb6104de6106c3565b610851565b6104eb611787565b8181526000828152600460205260409020546105119083906001600160a01b03166106ea565b604082018190526060015115156020820152919050565b6105306117b8565b604080518082019091526009548152600a5460ff166020820152610558906104de908461087e565b92915050565b610567816108a7565b6000806000838060200190518101906105809190611852565b600c80546001600160a01b038086166001600160a01b031992831617909255600e8054838516908316179055600d805492851692909116919091179055919450925090505b50505050565b60008060016105e06105db6106c3565b610996565b6105ea9190611c27565b905080409150816106275760405162461bcd60e51b8152602060048201526007602482015266115410ce94d09360ca1b6044820152606401610431565b60408051602081018490529081018290526060016040516020818303038152906040528051906020012091505090565b6000818152600b602052604081205461069f5760405162461bcd60e51b815260206004820152600a6024820152690534545443a4745543a360b41b6044820152606401610431565b506000908152600b602052604090205490565b6106be338385846109bd565b505050565b604080518082019091526009548152600a5460ff1660208201526000906103fb904361087e565b6106f26117f9565b60008381526005602090815260408083206001600160a01b03909516808452948252808320546060850152838101859052858352600682528083209483529381529290205460ff16151560808201529081019190915290565b604080518082019091526009548152600a5460ff166020820152600090610558908343610adf565b6002805460ff168114156107995760405162461bcd60e51b815260040161043190611aeb565b805460ff191660021781556107ac611787565b84815260006107bd86868387610b1d565b90506107c98282610bbf565b60008681526006602090815260408083206001600160a01b03808a16808652918452828520805460ff191660011790558a855260049093529220541614156108195761081481610c7b565b610822565b61082281610ce9565b5050805460ff19166001179055505050565b6104476001600160a01b03831682610d57565b60006103fb6106c3565b6108596117b8565b604080518082019091526009548152600a5460ff166020820152610558908343610e6d565b6020820151825160009160ff16906108969084611c27565b6108a09190611be8565b9392505050565b6007546001600160a01b03163314806108ca57506008546001600160a01b031633145b6109025760405162461bcd60e51b815260206004820152600960248201526804c41553a4c41553a360bc1b6044820152606401610431565b600854600160a01b900460ff16156109485760405162461bcd60e51b81526020600482015260096024820152684c41553a4c41553a3160b81b6044820152606401610431565b6008805460ff60a01b1916600160a01b1790556007546040516001600160a01b03909116907fb900795bb40f8a7bc484866009ca19ebf7b277001a839428e1b8e1a21d8e216c90600090a250565b604080518082019091526009548152600a5460ff1660208201526000906105589083610ed8565b6002805460ff168114156109e35760405162461bcd60e51b815260040161043190611aeb565b805460ff1916600217815583610a285760405162461bcd60e51b815260206004820152600a60248201526904155433a4d5347303a360b41b6044820152606401610431565b610a33858584610efa565b6000610a4184878786610b1d565b90506000610a4e82610fe6565b9050610a5981611038565b610a6281611121565b606082015160008681526005602090815260408083206001600160a01b03808d168086529184528285209590955589845260049092529091205490911614610acc57600085815260046020526040902080546001600160a01b0319166001600160a01b0389161790555b5050805460ff1916600117905550505050565b600082610aec858461087e565b1415610afa575060016108a0565b81610b0585856111d4565b1015610b13575060006108a0565b5060029392505050565b610b256117f9565b60008581526005602090815260408083206001600160a01b0388168452909152902054610b528482611bd0565b60608301526001600160a01b03851660408301526020820186905260a08201836003811115610b9157634e487b7160e01b600052602160045260246000fd5b90816003811115610bb257634e487b7160e01b600052602160045260246000fd5b8152505050949350505050565b610bc8826111f5565b610bff5760405162461bcd60e51b815260206004820152600860248201526704155433a43433a360c41b6044820152606401610431565b608081015115610c3c5760405162461bcd60e51b81526020600482015260086024820152674155433a43433a3160c01b6044820152606401610431565b60008160600151116104475760405162461bcd60e51b815260206004820152600860248201526720aaa19d21a19d1960c11b6044820152606401610431565b610c848161122a565b600c54604051634ebb9ca360e11b81526001600160a01b0390911690639d77394690610cb4908490600401611b7b565b600060405180830381600087803b158015610cce57600080fd5b505af1158015610ce2573d6000803e3d6000fd5b5050505050565b610d00816040015182606001518360a00151611272565b80604001516001600160a01b031681602001517f52eee732299f5bc11bd9fce7920cdeb1449eb75c699ef14e8b967ac48e3820da83606001518460a00151604051610d4c929190611bbc565b60405180910390a350565b80471015610da75760405162461bcd60e51b815260206004820152601d60248201527f416464726573733a20696e73756666696369656e742062616c616e63650000006044820152606401610431565b6000826001600160a01b03168260405160006040518083038185875af1925050503d8060008114610df4576040519150601f19603f3d011682016040523d82523d6000602084013e610df9565b606091505b50509050806106be5760405162461bcd60e51b815260206004820152603a60248201527f416464726573733a20756e61626c6520746f2073656e642076616c75652c20726044820152791958da5c1a595b9d081b585e481a185d99481c995d995c9d195960321b6064820152608401610431565b610e756117b8565b6040518060800160405280848152602001610e908686610ed8565b8152602001610e9f86866111d4565b8152602001610eaf868686610adf565b6002811115610ece57634e487b7160e01b600052602160045260246000fd5b9052949350505050565b8151602083015160009190610ef09060ff1684611c08565b6108a09190611bd0565b6000816003811115610f1c57634e487b7160e01b600052602160045260246000fd5b1415610f2c576106be8383611357565b6001816003811115610f4e57634e487b7160e01b600052602160045260246000fd5b1415610f70576106be610f69600e546001600160a01b031690565b84846113a4565b6002816003811115610f9257634e487b7160e01b600052602160045260246000fd5b1415610fb4576106be610fad600d546001600160a01b031690565b848461152b565b60405162461bcd60e51b815260206004820152600760248201526645583a54433a3160c81b6044820152606401610431565b610fee611787565b602080830180518352805160009081526005835260408082209251825260048452808220546001600160a01b03168252919092529081902054606080840151015281019190915290565b611041816115f7565b6110785760405162461bcd60e51b815260206004820152600860248201526704155433a42433a360c41b6044820152606401610431565b806040015160600151816060015160600151106110c35760405162461bcd60e51b815260206004820152600960248201526804155433a5256413a360bc1b6044820152606401610431565b8060400151604001516001600160a01b03166462697463686001600160a01b0316141561111e5760405162461bcd60e51b815260206004820152600960248201526804155433a5755543a360bc1b6044820152606401610431565b50565b61112a81611600565b80516000908152600b60205260409020546111525780516111529061114d6105cb565b611658565b600d546060808301518101516040840151909101516001600160a01b0390921691633febada79161118291611c27565b6040516001600160e01b031960e084901b1681523060048201526024016000604051808303818588803b1580156111b857600080fd5b505af11580156111cc573d6000803e3d6000fd5b505050505050565b600060016111eb846111e68584611bd0565b610ed8565b6108a09190611c27565b6000805b82516112049061074b565b600281111561122357634e487b7160e01b600052602160045260246000fd5b1492915050565b80604001516001600160a01b031681602001517f113c62160471f10f7d5abc32b3ab9a54d62c819d18796e533a2a1b320a74da708360600151604051610d4c91815260200190565b600081600381111561129457634e487b7160e01b600052602160045260246000fd5b14156112a4576106be8383610834565b60018160038111156112c657634e487b7160e01b600052602160045260246000fd5b14156112e8576106be6112e1600e546001600160a01b031690565b84846116b3565b600281600381111561130a57634e487b7160e01b600052602160045260246000fd5b1415611325576106be6112e1600d546001600160a01b031690565b60405162461bcd60e51b8152602060048201526007602482015266045583a47433a360cc1b6044820152606401610431565b803414801561136e5750336001600160a01b038316145b6104475760405162461bcd60e51b8152602060048201526007602482015266045583a54453a360cc1b6044820152606401610431565b604051636eb1769f60e11b815281906001600160a01b0385169063dd62ed3e906113d49086903090600401611aaa565b60206040518083038186803b1580156113ec57600080fd5b505afa158015611400573d6000803e3d6000fd5b505050506040513d601f19601f820116820180604052508101906114249190611980565b10156114425760405162461bcd60e51b815260040161043190611b13565b6040516323b872dd60e01b81526001600160a01b038381166004830152306024830152604482018390528416906323b872dd90606401602060405180830381600087803b15801561149257600080fd5b505af11580156114a6573d6000803e3d6000fd5b505050506040513d601f19601f820116820180604052508101906114ca919061189e565b50604051632e1a7d4d60e01b8152600481018290526001600160a01b03841690632e1a7d4d906024015b600060405180830381600087803b15801561150e57600080fd5b505af1158015611522573d6000803e3d6000fd5b50505050505050565b604051636eb1769f60e11b815281906001600160a01b0385169063dd62ed3e9061155b9086903090600401611aaa565b60206040518083038186803b15801561157357600080fd5b505afa158015611587573d6000803e3d6000fd5b505050506040513d601f19601f820116820180604052508101906115ab9190611980565b10156115c95760405162461bcd60e51b815260040161043190611b13565b604051639470b0bd60e01b81526001600160a01b03841690639470b0bd906114f49085908590600401611ac4565b600060016111f9565b8060400151604001516001600160a01b031681600001517ff2adf7b58bf6f84c47a0d36351eb2f4ea4368a86f22908824e22f4446ea92258836040015160600151846040015160a00151604051610d4c929190611bbc565b6000828152600b6020526040902054156116a15760405162461bcd60e51b815260206004820152600a6024820152690534545443a5345543a360b41b6044820152606401610431565b6000918252600b602052604090912055565b826001600160a01b031663d0e30db0826040518263ffffffff1660e01b81526004016000604051808303818588803b1580156116ee57600080fd5b505af1158015611702573d6000803e3d6000fd5b505060405163a9059cbb60e01b81526001600160a01b038716935063a9059cbb9250611735915085908590600401611ac4565b602060405180830381600087803b15801561174f57600080fd5b505af1158015611763573d6000803e3d6000fd5b505050506040513d601f19601f820116820180604052508101906105c5919061189e565b60408051608081018252600080825260208201529081016117a66117f9565b81526020016117b36117f9565b905290565b6040518060800160405280600081526020016000815260200160008152602001600060028111156117b357634e487b7160e01b600052602160045260246000fd5b604080516101008101825260008082526020820181905291810182905260608101829052608081018290529060a0820190815260006020820181905260409091015290565b80356004811061184d57600080fd5b919050565b600080600060608486031215611866578283fd5b835161187181611c80565b602085015190935061188281611c80565b604085015190925061189381611c80565b809150509250925092565b6000602082840312156118af578081fd5b815180151581146108a0578182fd5b6000602082840312156118cf578081fd5b813567ffffffffffffffff808211156118e6578283fd5b818401915084601f8301126118f9578283fd5b81358181111561190b5761190b611c6a565b604051601f8201601f19908116603f0116810190838211818310171561193357611933611c6a565b8160405282815287602084870101111561194b578586fd5b826020860160208301379182016020019490945295945050505050565b600060208284031215611979578081fd5b5035919050565b600060208284031215611991578081fd5b5051919050565b600080604083850312156119aa578182fd5b8235915060208301356119bc81611c80565b809150509250929050565b600080604083850312156119d9578182fd5b823591506119e96020840161183e565b90509250929050565b600080600060608486031215611a06578283fd5b8335925060208401359150611a1d6040850161183e565b90509250925092565b60048110611a3657611a36611c54565b9052565b60038110611a3657611a36611c54565b805182526020810151602083015260018060a01b0360408201511660408301526060810151606083015260808101511515608083015260a0810151611a9260a0840182611a26565b5060c0818101519083015260e0908101511515910152565b6001600160a01b0392831681529116602082015260400190565b6001600160a01b03929092168252602082015260400190565b602081016105588284611a3a565b6020808252600e908201526d04d555445583a4c4f434b45443a360941b604082015260600190565b60208082526008908201526704558433a54573a360c41b604082015260600190565b600061024082019050825182526020830151151560208301526040830151611b606040840182611a4a565b506060830151611b74610140840182611a4a565b5092915050565b61010081016105588284611a4a565b60006080820190508251825260208301516020830152604083015160408301526060830151611b746060840182611a3a565b828152604081016108a06020830184611a26565b60008219821115611be357611be3611c3e565b500190565b600082611c0357634e487b7160e01b81526012600452602481fd5b500490565b6000816000190483118215151615611c2257611c22611c3e565b500290565b600082821015611c3957611c39611c3e565b500390565b634e487b7160e01b600052601160045260246000fd5b634e487b7160e01b600052602160045260246000fd5b634e487b7160e01b600052604160045260246000fd5b6001600160a01b038116811461111e57600080fdfea2646970667358221220cd7002ce6e4e792d1d0c83c85eab3bf24910e12472827614500eb1cd5e0472c164736f6c63430008040033",
  "devdoc": {
    "kind": "dev",
    "methods": {
      "claim(uint256,uint8)": {
        "details": "#TODO"
      },
      "currentEpoch()": {
        "details": "public wrapper for internal blocknumFirstFromEpoch() - to save on gas"
      },
      "currentEpochId()": {
        "details": "public wrapper for internal _currentEpoch() - to save on gas"
      },
      "deployer()": {
        "details": "#TODO"
      },
      "epochFromBlocknum(uint256)": {
        "details": "public wrapper for internal blocknumFirstFromEpoch() - to save on gas"
      },
      "epochStatus(uint256)": {
        "details": "public wrapper for internal blocknumFirstFromEpoch() - to save on gas"
      },
      "genesisBlock()": {
        "details": "public wrapper for internal _genesisBlock - to save on gas"
      },
      "getSeed(uint256)": {
        "details": "@return"
      },
      "interval()": {
        "details": "public wrapper for internal _interval - to save on gas"
      },
      "launch(bytes)": {
        "details": "#TODO"
      },
      "launched()": {
        "details": "#TODO"
      },
      "placeBid(uint256,uint256,uint8)": {
        "details": "#TODO"
      },
      "seeds(uint256)": {
        "details": "external wrapper for internal _seeds"
      }
    },
    "version": 1
  },
  "userdoc": {
    "kind": "user",
    "methods": {
      "calculateCurrentSeed()": {
        "notice": "gets unique base based on given epoch and converts encoded bytes to object that can be merged Note: by using the block hash no one knows what a nugg will look like before it's epoch. We considered making this harder to manipulate, but we decided that if someone were able to pull it off and make their own custom nugg, that would be really fucking cool."
      },
      "launch(bytes)": {
        "notice": "inializes contract outside of constructor"
      }
    },
    "version": 1
  },
  "storageLayout": {
    "storage": [
      {
        "astId": 4818,
        "contract": "contracts/auction/NuggAuction.sol:NuggAuction",
        "label": "inTesting",
        "offset": 0,
        "slot": "0",
        "type": "t_bool"
      },
      {
        "astId": 4833,
        "contract": "contracts/auction/NuggAuction.sol:NuggAuction",
        "label": "pw",
        "offset": 1,
        "slot": "0",
        "type": "t_address"
      },
      {
        "astId": 4235,
        "contract": "contracts/auction/NuggAuction.sol:NuggAuction",
        "label": "_lockblock",
        "offset": 0,
        "slot": "1",
        "type": "t_uint256"
      },
      {
        "astId": 4238,
        "contract": "contracts/auction/NuggAuction.sol:NuggAuction",
        "label": "global",
        "offset": 0,
        "slot": "2",
        "type": "t_struct(Mutex)4227_storage"
      },
      {
        "astId": 2785,
        "contract": "contracts/auction/NuggAuction.sol:NuggAuction",
        "label": "local",
        "offset": 0,
        "slot": "3",
        "type": "t_struct(Mutex)4227_storage"
      },
      {
        "astId": 2789,
        "contract": "contracts/auction/NuggAuction.sol:NuggAuction",
        "label": "_topAddr",
        "offset": 0,
        "slot": "4",
        "type": "t_mapping(t_uint256,t_address)"
      },
      {
        "astId": 2795,
        "contract": "contracts/auction/NuggAuction.sol:NuggAuction",
        "label": "_bidsAmt",
        "offset": 0,
        "slot": "5",
        "type": "t_mapping(t_uint256,t_mapping(t_address,t_uint256))"
      },
      {
        "astId": 2801,
        "contract": "contracts/auction/NuggAuction.sol:NuggAuction",
        "label": "_bidsBool",
        "offset": 0,
        "slot": "6",
        "type": "t_mapping(t_uint256,t_mapping(t_address,t_bool))"
      },
      {
        "astId": 4133,
        "contract": "contracts/auction/NuggAuction.sol:NuggAuction",
        "label": "_deployer",
        "offset": 0,
        "slot": "7",
        "type": "t_address"
      },
      {
        "astId": 4135,
        "contract": "contracts/auction/NuggAuction.sol:NuggAuction",
        "label": "_deployerContract",
        "offset": 0,
        "slot": "8",
        "type": "t_address"
      },
      {
        "astId": 4138,
        "contract": "contracts/auction/NuggAuction.sol:NuggAuction",
        "label": "_launched",
        "offset": 20,
        "slot": "8",
        "type": "t_bool"
      },
      {
        "astId": 3587,
        "contract": "contracts/auction/NuggAuction.sol:NuggAuction",
        "label": "_state",
        "offset": 0,
        "slot": "9",
        "type": "t_struct(State)14011_storage"
      },
      {
        "astId": 4308,
        "contract": "contracts/auction/NuggAuction.sol:NuggAuction",
        "label": "_seeds",
        "offset": 0,
        "slot": "11",
        "type": "t_mapping(t_uint256,t_bytes32)"
      },
      {
        "astId": 2499,
        "contract": "contracts/auction/NuggAuction.sol:NuggAuction",
        "label": "_NUGGFT",
        "offset": 0,
        "slot": "12",
        "type": "t_contract(IAuctionableImplementer)3569"
      },
      {
        "astId": 2502,
        "contract": "contracts/auction/NuggAuction.sol:NuggAuction",
        "label": "_NUGGETH",
        "offset": 0,
        "slot": "13",
        "type": "t_contract(INuggETH)17188"
      },
      {
        "astId": 2505,
        "contract": "contracts/auction/NuggAuction.sol:NuggAuction",
        "label": "_WETH",
        "offset": 0,
        "slot": "14",
        "type": "t_contract(IWETH9)13828"
      }
    ],
    "types": {
      "t_address": {
        "encoding": "inplace",
        "label": "address",
        "numberOfBytes": "20"
      },
      "t_bool": {
        "encoding": "inplace",
        "label": "bool",
        "numberOfBytes": "1"
      },
      "t_bytes32": {
        "encoding": "inplace",
        "label": "bytes32",
        "numberOfBytes": "32"
      },
      "t_contract(IAuctionableImplementer)3569": {
        "encoding": "inplace",
        "label": "contract IAuctionableImplementer",
        "numberOfBytes": "20"
      },
      "t_contract(INuggETH)17188": {
        "encoding": "inplace",
        "label": "contract INuggETH",
        "numberOfBytes": "20"
      },
      "t_contract(IWETH9)13828": {
        "encoding": "inplace",
        "label": "contract IWETH9",
        "numberOfBytes": "20"
      },
      "t_mapping(t_address,t_bool)": {
        "encoding": "mapping",
        "key": "t_address",
        "label": "mapping(address => bool)",
        "numberOfBytes": "32",
        "value": "t_bool"
      },
      "t_mapping(t_address,t_uint256)": {
        "encoding": "mapping",
        "key": "t_address",
        "label": "mapping(address => uint256)",
        "numberOfBytes": "32",
        "value": "t_uint256"
      },
      "t_mapping(t_uint256,t_address)": {
        "encoding": "mapping",
        "key": "t_uint256",
        "label": "mapping(uint256 => address)",
        "numberOfBytes": "32",
        "value": "t_address"
      },
      "t_mapping(t_uint256,t_bytes32)": {
        "encoding": "mapping",
        "key": "t_uint256",
        "label": "mapping(uint256 => bytes32)",
        "numberOfBytes": "32",
        "value": "t_bytes32"
      },
      "t_mapping(t_uint256,t_mapping(t_address,t_bool))": {
        "encoding": "mapping",
        "key": "t_uint256",
        "label": "mapping(uint256 => mapping(address => bool))",
        "numberOfBytes": "32",
        "value": "t_mapping(t_address,t_bool)"
      },
      "t_mapping(t_uint256,t_mapping(t_address,t_uint256))": {
        "encoding": "mapping",
        "key": "t_uint256",
        "label": "mapping(uint256 => mapping(address => uint256))",
        "numberOfBytes": "32",
        "value": "t_mapping(t_address,t_uint256)"
      },
      "t_struct(Mutex)4227_storage": {
        "encoding": "inplace",
        "label": "struct Mutexable.Mutex",
        "members": [
          {
            "astId": 4226,
            "contract": "contracts/auction/NuggAuction.sol:NuggAuction",
            "label": "status",
            "offset": 0,
            "slot": "0",
            "type": "t_uint8"
          }
        ],
        "numberOfBytes": "32"
      },
      "t_struct(State)14011_storage": {
        "encoding": "inplace",
        "label": "struct EpochMath.State",
        "members": [
          {
            "astId": 14008,
            "contract": "contracts/auction/NuggAuction.sol:NuggAuction",
            "label": "genesisBlock",
            "offset": 0,
            "slot": "0",
            "type": "t_uint256"
          },
          {
            "astId": 14010,
            "contract": "contracts/auction/NuggAuction.sol:NuggAuction",
            "label": "interval",
            "offset": 0,
            "slot": "1",
            "type": "t_uint8"
          }
        ],
        "numberOfBytes": "64"
      },
      "t_uint256": {
        "encoding": "inplace",
        "label": "uint256",
        "numberOfBytes": "32"
      },
      "t_uint8": {
        "encoding": "inplace",
        "label": "uint8",
        "numberOfBytes": "1"
      }
    }
  }
}