{
  "address": "0x77F5f22bAd8fE6e01f6f60309a434de0DF336521",
  "abi": [
    {
      "inputs": [
        {
          "internalType": "address",
          "name": "_xnugg",
          "type": "address"
        },
        {
          "internalType": "address",
          "name": "_nuggswap",
          "type": "address"
        },
        {
          "internalType": "address",
          "name": "_dotnugg",
          "type": "address"
        },
        {
          "internalType": "address",
          "name": "_nuggin",
          "type": "address"
        }
      ],
      "stateMutability": "nonpayable",
      "type": "constructor"
    },
    {
      "anonymous": false,
      "inputs": [
        {
          "indexed": true,
          "internalType": "address",
          "name": "owner",
          "type": "address"
        },
        {
          "indexed": true,
          "internalType": "address",
          "name": "approved",
          "type": "address"
        },
        {
          "indexed": true,
          "internalType": "uint256",
          "name": "tokenId",
          "type": "uint256"
        }
      ],
      "name": "Approval",
      "type": "event"
    },
    {
      "anonymous": false,
      "inputs": [
        {
          "indexed": true,
          "internalType": "address",
          "name": "owner",
          "type": "address"
        },
        {
          "indexed": true,
          "internalType": "address",
          "name": "operator",
          "type": "address"
        },
        {
          "indexed": false,
          "internalType": "bool",
          "name": "approved",
          "type": "bool"
        }
      ],
      "name": "ApprovalForAll",
      "type": "event"
    },
    {
      "anonymous": false,
      "inputs": [
        {
          "indexed": true,
          "internalType": "address",
          "name": "from",
          "type": "address"
        },
        {
          "indexed": true,
          "internalType": "address",
          "name": "to",
          "type": "address"
        },
        {
          "indexed": true,
          "internalType": "uint256",
          "name": "tokenId",
          "type": "uint256"
        }
      ],
      "name": "Transfer",
      "type": "event"
    },
    {
      "inputs": [
        {
          "internalType": "address",
          "name": "to",
          "type": "address"
        },
        {
          "internalType": "uint256",
          "name": "tokenId",
          "type": "uint256"
        }
      ],
      "name": "approve",
      "outputs": [],
      "stateMutability": "nonpayable",
      "type": "function"
    },
    {
      "inputs": [
        {
          "internalType": "address",
          "name": "owner",
          "type": "address"
        }
      ],
      "name": "balanceOf",
      "outputs": [
        {
          "internalType": "uint256",
          "name": "",
          "type": "uint256"
        }
      ],
      "stateMutability": "view",
      "type": "function"
    },
    {
      "inputs": [],
      "name": "currentTokenId",
      "outputs": [
        {
          "internalType": "uint256",
          "name": "tokenId",
          "type": "uint256"
        }
      ],
      "stateMutability": "view",
      "type": "function"
    },
    {
      "inputs": [],
      "name": "epochOffset",
      "outputs": [
        {
          "internalType": "uint256",
          "name": "",
          "type": "uint256"
        }
      ],
      "stateMutability": "view",
      "type": "function"
    },
    {
      "inputs": [
        {
          "internalType": "uint256",
          "name": "epoch",
          "type": "uint256"
        }
      ],
      "name": "epochToTokenId",
      "outputs": [
        {
          "internalType": "uint256",
          "name": "tokenId",
          "type": "uint256"
        }
      ],
      "stateMutability": "view",
      "type": "function"
    },
    {
      "inputs": [
        {
          "internalType": "uint256",
          "name": "tokenId",
          "type": "uint256"
        }
      ],
      "name": "getApproved",
      "outputs": [
        {
          "internalType": "address",
          "name": "",
          "type": "address"
        }
      ],
      "stateMutability": "view",
      "type": "function"
    },
    {
      "inputs": [
        {
          "internalType": "address",
          "name": "owner",
          "type": "address"
        },
        {
          "internalType": "address",
          "name": "operator",
          "type": "address"
        }
      ],
      "name": "isApprovedForAll",
      "outputs": [
        {
          "internalType": "bool",
          "name": "",
          "type": "bool"
        }
      ],
      "stateMutability": "view",
      "type": "function"
    },
    {
      "inputs": [],
      "name": "name",
      "outputs": [
        {
          "internalType": "string",
          "name": "",
          "type": "string"
        }
      ],
      "stateMutability": "view",
      "type": "function"
    },
    {
      "inputs": [],
      "name": "nuggGet",
      "outputs": [],
      "stateMutability": "nonpayable",
      "type": "function"
    },
    {
      "inputs": [],
      "name": "nuggSet",
      "outputs": [],
      "stateMutability": "nonpayable",
      "type": "function"
    },
    {
      "inputs": [
        {
          "internalType": "uint256",
          "name": "currentEpochId",
          "type": "uint256"
        }
      ],
      "name": "nuggSwapMint",
      "outputs": [
        {
          "internalType": "uint256",
          "name": "tokenId",
          "type": "uint256"
        }
      ],
      "stateMutability": "nonpayable",
      "type": "function"
    },
    {
      "inputs": [
        {
          "internalType": "uint256",
          "name": "tokenId",
          "type": "uint256"
        }
      ],
      "name": "ownerOf",
      "outputs": [
        {
          "internalType": "address",
          "name": "",
          "type": "address"
        }
      ],
      "stateMutability": "view",
      "type": "function"
    },
    {
      "inputs": [
        {
          "internalType": "uint256",
          "name": "",
          "type": "uint256"
        },
        {
          "internalType": "uint256",
          "name": "value",
          "type": "uint256"
        }
      ],
      "name": "royaltyInfo",
      "outputs": [
        {
          "internalType": "address",
          "name": "",
          "type": "address"
        },
        {
          "internalType": "uint256",
          "name": "",
          "type": "uint256"
        }
      ],
      "stateMutability": "view",
      "type": "function"
    },
    {
      "inputs": [
        {
          "internalType": "address",
          "name": "from",
          "type": "address"
        },
        {
          "internalType": "address",
          "name": "to",
          "type": "address"
        },
        {
          "internalType": "uint256",
          "name": "tokenId",
          "type": "uint256"
        }
      ],
      "name": "safeTransferFrom",
      "outputs": [],
      "stateMutability": "nonpayable",
      "type": "function"
    },
    {
      "inputs": [
        {
          "internalType": "address",
          "name": "from",
          "type": "address"
        },
        {
          "internalType": "address",
          "name": "to",
          "type": "address"
        },
        {
          "internalType": "uint256",
          "name": "tokenId",
          "type": "uint256"
        },
        {
          "internalType": "bytes",
          "name": "_data",
          "type": "bytes"
        }
      ],
      "name": "safeTransferFrom",
      "outputs": [],
      "stateMutability": "nonpayable",
      "type": "function"
    },
    {
      "inputs": [
        {
          "internalType": "address",
          "name": "operator",
          "type": "address"
        },
        {
          "internalType": "bool",
          "name": "approved",
          "type": "bool"
        }
      ],
      "name": "setApprovalForAll",
      "outputs": [],
      "stateMutability": "nonpayable",
      "type": "function"
    },
    {
      "inputs": [
        {
          "internalType": "bytes4",
          "name": "interfaceId",
          "type": "bytes4"
        }
      ],
      "name": "supportsInterface",
      "outputs": [
        {
          "internalType": "bool",
          "name": "",
          "type": "bool"
        }
      ],
      "stateMutability": "view",
      "type": "function"
    },
    {
      "inputs": [],
      "name": "symbol",
      "outputs": [
        {
          "internalType": "string",
          "name": "",
          "type": "string"
        }
      ],
      "stateMutability": "view",
      "type": "function"
    },
    {
      "inputs": [
        {
          "internalType": "uint256",
          "name": "tokenId",
          "type": "uint256"
        },
        {
          "internalType": "address",
          "name": "resolver",
          "type": "address"
        }
      ],
      "name": "tokenURI",
      "outputs": [
        {
          "internalType": "string",
          "name": "res",
          "type": "string"
        }
      ],
      "stateMutability": "view",
      "type": "function"
    },
    {
      "inputs": [
        {
          "internalType": "uint256",
          "name": "tokenId",
          "type": "uint256"
        }
      ],
      "name": "tokenURI",
      "outputs": [
        {
          "internalType": "string",
          "name": "res",
          "type": "string"
        }
      ],
      "stateMutability": "view",
      "type": "function"
    },
    {
      "inputs": [
        {
          "internalType": "address",
          "name": "from",
          "type": "address"
        },
        {
          "internalType": "address",
          "name": "to",
          "type": "address"
        },
        {
          "internalType": "uint256",
          "name": "tokenId",
          "type": "uint256"
        }
      ],
      "name": "transferFrom",
      "outputs": [],
      "stateMutability": "nonpayable",
      "type": "function"
    }
  ],
  "transactionHash": "0x51633a3070b7300d78ddb8a62a2ab4c0816625ea6842cd208cf88b43aee15c8b",
  "args": [
    "0xEa71B205D6B29224d945a905Af7A25f9E9EF4f3A",
    "0x8E696927f4581680698C124cbE8B5143e0Cf9Dbf",
    "0xeBdE9e7F12449e043502227b9D7EBDe55A809925",
    "0x2D9b450E87253EA02072531A1422dec3cEBB0f6c"
  ],
  "solcInputHash": "d82c3783137ad293fbbcc4a9c2fc4523",
  "bytecode": "0x6000805460ff191690556101a060405260f26080818152906200253e60a0398051620000349160099160209091019062000429565b506040518060800160405280605a815260200162002726605a913980516200006591600a9160209091019062000429565b506040518060800160405280605c815260200162002630605c913980516200009691600b9160209091019062000429565b506040518060a00160405280607a81526020016200268c607a91398051620000c791600c9160209091019062000429565b506040518060a00160405280607e8152602001620024c0607e91398051620000f891600d9160209091019062000429565b503480156200010657600080fd5b5060405162002780380380620027808339810160408190526200012991620004ec565b6040518060400160405280601381526020017f4e7567672046756e6761626c6520546f6b656e0000000000000000000000000081525060405180604001604052806006815260200165139d59d9d19560d21b8152506200018e6200042560201b60201c565b600114620001a4576000805460ff191660011790555b8151620001b990600190602085019062000429565b508051620001cf90600290602084019062000429565b5050506040518060a00160405280607e8152602001620024c0607e91398051620002029160079160209091019062000429565b5060088054600181018255600091825260408051610120810190915260f28082526000805160206200270683398151915290920192916200253e602083013980516200025693925060209091019062000429565b506008805460018101825560009182526040805160808101909152605a8082526000805160206200270683398151915290920192916200272660208301398051620002a993925060209091019062000429565b506008805460018101825560009182526040805160808101909152605c8082526000805160206200270683398151915290920192916200263060208301398051620002fc93925060209091019062000429565b506008805460018101825560009182526040805160a08101909152607a8082526000805160206200270683398151915290920192916200268c602083013980516200034f93925060209091019062000429565b50600e80546001600160a01b038085166001600160a01b031992831617909255601080548684169083168117909155600f805488851690841617905560118054938516939092169290921790556040805163eacdc5ff60e01b8152905163eacdc5ff91600480820192602092909190829003018186803b158015620003d357600080fd5b505afa158015620003e8573d6000803e3d6000fd5b505050506040513d601f19601f820116820180604052508101906200040e919062000548565b6001600160401b031660125550620005b592505050565b4690565b828054620004379062000578565b90600052602060002090601f0160209004810192826200045b5760008555620004a6565b82601f106200047657805160ff1916838001178555620004a6565b82800160010185558215620004a6579182015b82811115620004a657825182559160200191906001019062000489565b50620004b4929150620004b8565b5090565b5b80821115620004b45760008155600101620004b9565b80516001600160a01b0381168114620004e757600080fd5b919050565b6000806000806080858703121562000502578384fd5b6200050d85620004cf565b93506200051d60208601620004cf565b92506200052d60408601620004cf565b91506200053d60608601620004cf565b905092959194509250565b6000602082840312156200055a578081fd5b81516001600160401b038116811462000571578182fd5b9392505050565b600181811c908216806200058d57607f821691505b60208210811415620005af57634e487b7160e01b600052602260045260246000fd5b50919050565b611efb80620005c56000396000f3fe608060405234801561001057600080fd5b50600436106101765760003560e01c80636352211e116100d8578063aa5644f11161008c578063d52e044a11610066578063d52e044a14610303578063e985e9c514610316578063f866dd821461035257600080fd5b8063aa5644f1146102ca578063b88d4fde146102dd578063c87b56dd146102f057600080fd5b80638c4c1b2f116100bd5780638c4c1b2f1461029c57806395d89b41146102af578063a22cb465146102b757600080fd5b80636352211e1461027657806370a082311461028957600080fd5b806323b872dd1161012f5780633beba2ee116101145780633beba2ee1461025357806342842e0e1461025b578063547612141461026e57600080fd5b806323b872dd1461020e5780632a55205a1461022157600080fd5b806306fdde031161016057806306fdde03146101b9578063081812fc146101ce578063095ea7b3146101f957600080fd5b80629a9b7b1461017b57806301ffc9a714610196575b600080fd5b61018361035b565b6040519081526020015b60405180910390f35b6101a96101a4366004611a06565b6103fa565b604051901515815260200161018d565b6101c1610451565b60405161018d9190611d07565b6101e16101dc366004611ab1565b6104e3565b6040516001600160a01b03909116815260200161018d565b61020c6102073660046119c5565b61057d565b005b61020c61021c3660046118ad565b6106af565b61023461022f366004611aeb565b610736565b604080516001600160a01b03909316835260208301919091520161018d565b61020c61076b565b61020c6102693660046118ad565b6107a2565b61020c6107bd565b6101e1610284366004611ab1565b6107fc565b610183610297366004611861565b610887565b6101c16102aa366004611ac9565b610921565b6101c1610998565b61020c6102c536600461198b565b6109a7565b6101836102d8366004611ab1565b610a6c565b61020c6102eb3660046118e8565b610ae6565b6101c16102fe366004611ab1565b610b74565b610183610311366004611ab1565b610bf1565b6101a961032436600461187b565b6001600160a01b03918216600090815260066020908152604080832093909416825291909152205460ff1690565b61018360125481565b60006103f5601060009054906101000a90046001600160a01b03166001600160a01b031663eacdc5ff6040518163ffffffff1660e01b815260040160206040518083038186803b1580156103ae57600080fd5b505afa1580156103c2573d6000803e3d6000fd5b505050506040513d601f19601f820116820180604052508101906103e69190611b0c565b67ffffffffffffffff16610bf1565b905090565b60006001600160e01b031982167faa5644f100000000000000000000000000000000000000000000000000000000148061043c57506001600160e01b03198216155b8061044b575061044b82610c01565b92915050565b60606001805461046090611e01565b80601f016020809104026020016040519081016040528092919081815260200182805461048c90611e01565b80156104d95780601f106104ae576101008083540402835291602001916104d9565b820191906000526020600020905b8154815290600101906020018083116104bc57829003601f168201915b5050505050905090565b6000818152600360205260408120546001600160a01b03166105615760405162461bcd60e51b815260206004820152602c60248201527f4552433732313a20617070726f76656420717565727920666f72206e6f6e657860448201526b34b9ba32b73a103a37b5b2b760a11b60648201526084015b60405180910390fd5b506000908152600560205260409020546001600160a01b031690565b6000610588826107fc565b9050806001600160a01b0316836001600160a01b031614156106125760405162461bcd60e51b815260206004820152602160248201527f4552433732313a20617070726f76616c20746f2063757272656e74206f776e6560448201527f72000000000000000000000000000000000000000000000000000000000000006064820152608401610558565b336001600160a01b038216148061062e575061062e8133610324565b6106a05760405162461bcd60e51b815260206004820152603860248201527f4552433732313a20617070726f76652063616c6c6572206973206e6f74206f7760448201527f6e6572206e6f7220617070726f76656420666f7220616c6c00000000000000006064820152608401610558565b6106aa8383610c9c565b505050565b6106b93382610d17565b61072b5760405162461bcd60e51b815260206004820152603160248201527f4552433732313a207472616e736665722063616c6c6572206973206e6f74206f60448201527f776e6572206e6f7220617070726f7665640000000000000000000000000000006064820152608401610558565b6106aa838383610e0e565b600f5460009081906001600160a01b0316612710610756856103e8611d9f565b6107609190611d8b565b915091509250929050565b60005460ff16801561078d57506000546001600160a01b036101009091041633145b61079657600080fd5b6107a03347610ff3565b565b6106aa83838360405180602001604052806000815250610ae6565b60005460ff166107cc57600080fd5b600080547fffffffffffffffffffffff0000000000000000000000000000000000000000ff163361010002179055565b6000818152600360205260408120546001600160a01b03168061044b5760405162461bcd60e51b815260206004820152602960248201527f4552433732313a206f776e657220717565727920666f72206e6f6e657869737460448201527f656e7420746f6b656e00000000000000000000000000000000000000000000006064820152608401610558565b60006001600160a01b0382166109055760405162461bcd60e51b815260206004820152602a60248201527f4552433732313a2062616c616e636520717565727920666f7220746865207a6560448201527f726f2061646472657373000000000000000000000000000000000000000000006064820152608401610558565b506001600160a01b031660009081526004602052604090205490565b6000828152600360205260409020546060906001600160a01b031615158061094f575061094c61035b565b83145b6109875760405162461bcd60e51b815260206004820152600960248201526804e46543a4e534d3a360bc1b6044820152606401610558565b610991838361100a565b9392505050565b60606002805461046090611e01565b6001600160a01b038216331415610a005760405162461bcd60e51b815260206004820152601960248201527f4552433732313a20617070726f766520746f2063616c6c6572000000000000006044820152606401610558565b3360008181526006602090815260408083206001600160a01b03871680855290835292819020805460ff191686151590811790915590519081529192917f17307eab39ab6107e8899845ad3d59bd9653f200f220920489ca2b5937696c31910160405180910390a35050565b6000610a7782610bf1565b6000818152600360205260409020549091506001600160a01b031615610acb5760405162461bcd60e51b815260206004820152600960248201526804e46543a4e534d3a360bc1b6044820152606401610558565b601054610ae1906001600160a01b0316826111bd565b919050565b610af03383610d17565b610b625760405162461bcd60e51b815260206004820152603160248201527f4552433732313a207472616e736665722063616c6c6572206973206e6f74206f60448201527f776e6572206e6f7220617070726f7665640000000000000000000000000000006064820152608401610558565b610b6e848484846111d7565b50505050565b6000818152600360205260409020546060906001600160a01b0316151580610ba25750610b9f61035b565b82145b610bda5760405162461bcd60e51b815260206004820152600960248201526804e46543a4e534d3a360bc1b6044820152606401610558565b60115461044b9083906001600160a01b031661100a565b60006012548261044b9190611dbe565b60006001600160e01b031982167f80ac58cd000000000000000000000000000000000000000000000000000000001480610c6457506001600160e01b031982167f5b5e139f00000000000000000000000000000000000000000000000000000000145b8061044b57507f01ffc9a7000000000000000000000000000000000000000000000000000000006001600160e01b031983161461044b565b6000818152600560205260409020805473ffffffffffffffffffffffffffffffffffffffff19166001600160a01b0384169081179091558190610cde826107fc565b6001600160a01b03167f8c5be1e5ebec7d5bd14f71427d1e84f3dd0314c0f7b2291e5b200ac8c7c3b92560405160405180910390a45050565b6000818152600360205260408120546001600160a01b0316610d905760405162461bcd60e51b815260206004820152602c60248201527f4552433732313a206f70657261746f7220717565727920666f72206e6f6e657860448201526b34b9ba32b73a103a37b5b2b760a11b6064820152608401610558565b6000610d9b836107fc565b9050806001600160a01b0316846001600160a01b03161480610dd65750836001600160a01b0316610dcb846104e3565b6001600160a01b0316145b80610e0657506001600160a01b0380821660009081526006602090815260408083209388168352929052205460ff165b949350505050565b826001600160a01b0316610e21826107fc565b6001600160a01b031614610e9d5760405162461bcd60e51b815260206004820152602960248201527f4552433732313a207472616e73666572206f6620746f6b656e2074686174206960448201527f73206e6f74206f776e00000000000000000000000000000000000000000000006064820152608401610558565b6001600160a01b038216610f185760405162461bcd60e51b8152602060048201526024808201527f4552433732313a207472616e7366657220746f20746865207a65726f2061646460448201527f72657373000000000000000000000000000000000000000000000000000000006064820152608401610558565b610f23838383611255565b610f2e600082610c9c565b6001600160a01b0383166000908152600460205260408120805460019290610f57908490611dbe565b90915550506001600160a01b0382166000908152600460205260408120805460019290610f85908490611d73565b9091555050600081815260036020526040808220805473ffffffffffffffffffffffffffffffffffffffff19166001600160a01b0386811691821790925591518493918716917fddf252ad1be2c89b69c2b068fc378daa952ba7f163c4a11628f55a4df523b3ef91a4505050565b6110066001600160a01b038316826112b8565b5050565b6010546012546040517fe39eff800000000000000000000000000000000000000000000000000000000081526004810185905260248101919091526060916000916001600160a01b039091169063e39eff809060440160206040518083038186803b15801561107857600080fd5b505afa15801561108c573d6000803e3d6000fd5b505050506040513d601f19601f820116820180604052508101906110b091906119ee565b604080518082018252600a81527f4e7567674654207b237d000000000000000000000000000000000000000000006020808301919091528251808401909352600f83527f746865206465736372697074696f6e000000000000000000000000000000000090830152600e54929350916001600160a01b0316639f6556b26007611138866113d1565b8886868c8a6040518863ffffffff1660e01b815260040161115f9796959493929190611be3565b60006040518083038186803b15801561117757600080fd5b505afa15801561118b573d6000803e3d6000fd5b505050506040513d6000823e601f3d908101601f191682016040526111b39190810190611a3e565b9695505050505050565b611006828260405180602001604052806000815250611519565b6111e2848484610e0e565b6111ee84848484611597565b610b6e5760405162461bcd60e51b815260206004820152603260248201527f4552433732313a207472616e7366657220746f206e6f6e20455243373231526560448201527131b2b4bb32b91034b6b83632b6b2b73a32b960711b6064820152608401610558565b6010546001600160a01b0316336001600160a01b0316146106aa5760405162461bcd60e51b815260206004820152600960248201527f4e46543a4254543a3000000000000000000000000000000000000000000000006044820152606401610558565b804710156113085760405162461bcd60e51b815260206004820152601d60248201527f416464726573733a20696e73756666696369656e742062616c616e63650000006044820152606401610558565b6000826001600160a01b03168260405160006040518083038185875af1925050503d8060008114611355576040519150601f19603f3d011682016040523d82523d6000602084013e61135a565b606091505b50509050806106aa5760405162461bcd60e51b815260206004820152603a60248201527f416464726573733a20756e61626c6520746f2073656e642076616c75652c207260448201527f6563697069656e74206d617920686176652072657665727465640000000000006064820152608401610558565b6040805160028082526060828101909352816020015b60608152602001906001900390816113e757905050905060005b81518160ff16101561151357600880546114219060ff841686901c611e56565b8154811061143f57634e487b7160e01b600052603260045260246000fd5b90600052602060002001805461145490611e01565b80601f016020809104026020016040519081016040528092919081815260200182805461148090611e01565b80156114cd5780601f106114a2576101008083540402835291602001916114cd565b820191906000526020600020905b8154815290600101906020018083116114b057829003601f168201915b5050505050828260ff16815181106114f557634e487b7160e01b600052603260045260246000fd5b6020026020010181905250808061150b90611e36565b915050611401565b50919050565b61152383836116ef565b6115306000848484611597565b6106aa5760405162461bcd60e51b815260206004820152603260248201527f4552433732313a207472616e7366657220746f206e6f6e20455243373231526560448201527131b2b4bb32b91034b6b83632b6b2b73a32b960711b6064820152608401610558565b60006001600160a01b0384163b156116e457604051630a85bd0160e11b81526001600160a01b0385169063150b7a02906115db903390899088908890600401611bb1565b602060405180830381600087803b1580156115f557600080fd5b505af1925050508015611625575060408051601f3d908101601f1916820190925261162291810190611a22565b60015b6116ca573d808015611653576040519150601f19603f3d011682016040523d82523d6000602084013e611658565b606091505b5080516116c25760405162461bcd60e51b815260206004820152603260248201527f4552433732313a207472616e7366657220746f206e6f6e20455243373231526560448201527131b2b4bb32b91034b6b83632b6b2b73a32b960711b6064820152608401610558565b805181602001fd5b6001600160e01b031916630a85bd0160e11b149050610e06565b506001949350505050565b6001600160a01b0382166117455760405162461bcd60e51b815260206004820181905260248201527f4552433732313a206d696e7420746f20746865207a65726f20616464726573736044820152606401610558565b6000818152600360205260409020546001600160a01b0316156117aa5760405162461bcd60e51b815260206004820152601c60248201527f4552433732313a20746f6b656e20616c7265616479206d696e746564000000006044820152606401610558565b6117b660008383611255565b6001600160a01b03821660009081526004602052604081208054600192906117df908490611d73565b9091555050600081815260036020526040808220805473ffffffffffffffffffffffffffffffffffffffff19166001600160a01b03861690811790915590518392907fddf252ad1be2c89b69c2b068fc378daa952ba7f163c4a11628f55a4df523b3ef908290a45050565b80356001600160a01b0381168114610ae157600080fd5b600060208284031215611872578081fd5b6109918261184a565b6000806040838503121561188d578081fd5b6118968361184a565b91506118a46020840161184a565b90509250929050565b6000806000606084860312156118c1578081fd5b6118ca8461184a565b92506118d86020850161184a565b9150604084013590509250925092565b600080600080608085870312156118fd578081fd5b6119068561184a565b93506119146020860161184a565b925060408501359150606085013567ffffffffffffffff811115611936578182fd5b8501601f81018713611946578182fd5b803561195961195482611d4b565b611d1a565b81815288602083850101111561196d578384fd5b81602084016020830137908101602001929092525092959194509250565b6000806040838503121561199d578182fd5b6119a68361184a565b9150602083013580151581146119ba578182fd5b809150509250929050565b600080604083850312156119d7578182fd5b6119e08361184a565b946020939093013593505050565b6000602082840312156119ff578081fd5b5051919050565b600060208284031215611a17578081fd5b813561099181611eac565b600060208284031215611a33578081fd5b815161099181611eac565b600060208284031215611a4f578081fd5b815167ffffffffffffffff811115611a65578182fd5b8201601f81018413611a75578182fd5b8051611a8361195482611d4b565b818152856020838501011115611a97578384fd5b611aa8826020830160208601611dd5565b95945050505050565b600060208284031215611ac2578081fd5b5035919050565b60008060408385031215611adb578182fd5b823591506118a46020840161184a565b60008060408385031215611afd578182fd5b50508035926020909101359150565b600060208284031215611b1d578081fd5b815167ffffffffffffffff81168114610991578182fd5b6000815180845260208085019450848260051b8601828601855b85811015611b78578383038952611b66838351611b85565b98850198925090840190600101611b4e565b5090979650505050505050565b60008151808452611b9d816020860160208601611dd5565b601f01601f19169290920160200192915050565b60006001600160a01b038087168352808616602084015250836040830152608060608301526111b36080830184611b85565b6000610100808352818a54838160011c90506001821680611c0557607f821691505b60208210811415611c2457634e487b7160e01b86526022600452602486fd5b93860181815260200193808015611c425760018114611c5457611c81565b60ff1984168652602086019450611c81565b60008f815260209020875b84811015611c7b57815488820152600190910190602001611c5f565b87019550505b505050508381036020850152611c97818b611b34565b915050611caf60408401896001600160a01b03169052565b8281036060840152611cc18188611b85565b90508281036080840152611cd58187611b85565b90508460a08401528360c084015282810360e0840152611cf9816000815260200190565b9a9950505050505050505050565b6020815260006109916020830184611b85565b604051601f8201601f1916810167ffffffffffffffff81118282101715611d4357611d43611e96565b604052919050565b600067ffffffffffffffff821115611d6557611d65611e96565b50601f01601f191660200190565b60008219821115611d8657611d86611e6a565b500190565b600082611d9a57611d9a611e80565b500490565b6000816000190483118215151615611db957611db9611e6a565b500290565b600082821015611dd057611dd0611e6a565b500390565b60005b83811015611df0578181015183820152602001611dd8565b83811115610b6e5750506000910152565b600181811c90821680611e1557607f821691505b6020821081141561151357634e487b7160e01b600052602260045260246000fd5b600060ff821660ff811415611e4d57611e4d611e6a565b60010192915050565b600082611e6557611e65611e80565b500690565b634e487b7160e01b600052601160045260246000fd5b634e487b7160e01b600052601260045260246000fd5b634e487b7160e01b600052604160045260246000fd5b6001600160e01b031981168114611ec257600080fd5b5056fea2646970667358221220959b408a2af7a4fa76a02d8ed666f7f381dbc8ead33e86b5337a0bb949760c2c64736f6c63430008040033444f544e5547472109000d004d444f544e55474753d9020010001a002601000000ff01ffffffff0702030000000711021302110b030500010606000001090900000f2204231020042010230422444f544e554747dc75060010001a0022010000009901ffffffff0301010000000712050302010000071500200010001200444f544e554747c7cc00000e002c00f19325e500eb8a12e500f9b042e500c96619e500a84b1ee500f49f35e52121101000001720fe20ff20fd32fa11fc40f912fb00f80f0f0f0f0f0f0f0f0f0f0e5d0f005130633322520f5030653224500f5031663222500f5031673222500d5131661035500d50336536500d50346535500d50346535500d503111306634500d5034661033500d5035651132500d50346733500d50346a30500d50356a500d50356a500e5032116a500e50341068510e5034116224500f504033601027500f50402032632341500f50412031632341500f522031612341510f025b0f0f0f0f0f0f0f0f0e444f544e5547475295030010001a0038020000009902e100e19909040401010505000001050500000f1300142112211121100010211400130d050601010707000001090900000f140215221002102211221422112210021022150214444f544e5547478ca8030010001f004802f85c0f9902fb1a069902ffdb3c990a040401010406000001030300000f01100310021020021020011020302100203021001020021020010f050601010509000001050500000f0110061004102010041020100210203023001020302300102010041020100410061003f3f7a9fe364faab93b216da50a3214154f22a0a2b415b23a84c8169e8b636ee3444f544e554747c072050010001a003903000000990300eae19911050803010c06010001040404000f05140a112211041102122012021f1f1313060905010e06020001040405000f05160a1809122212041101142014011f1f17",
  "devdoc": {
    "author": "Nugg Labs - @danny7even & @dub6ix - 2021",
    "details": "this is art Note: epochs correlate directly to tokenIDs Note: no images are stored in their final form - they are generated by view/pure functions at query time completly onchain Note: the block hash corresponding to the start of an epoch is used as the \"random\" seed Note: epochs are 256 blocks long as block hashes only exist for 256 blocks",
    "kind": "dev",
    "methods": {
      "approve(address,uint256)": {
        "details": "See {IERC721-approve}."
      },
      "balanceOf(address)": {
        "details": "See {IERC721-balanceOf}."
      },
      "getApproved(uint256)": {
        "details": "See {IERC721-getApproved}."
      },
      "isApprovedForAll(address,address)": {
        "details": "See {IERC721-isApprovedForAll}."
      },
      "name()": {
        "details": "See {IERC721Metadata-name}."
      },
      "ownerOf(uint256)": {
        "details": "See {IERC721-ownerOf}."
      },
      "safeTransferFrom(address,address,uint256)": {
        "details": "See {IERC721-safeTransferFrom}."
      },
      "safeTransferFrom(address,address,uint256,bytes)": {
        "details": "See {IERC721-safeTransferFrom}."
      },
      "setApprovalForAll(address,bool)": {
        "details": "See {IERC721-setApprovalForAll}."
      },
      "supportsInterface(bytes4)": {
        "details": "See {IERC165-supportsInterface}."
      },
      "symbol()": {
        "details": "See {IERC721Metadata-symbol}."
      },
      "tokenURI(uint256)": {
        "details": "See {IERC721Metadata-tokenURI}. MODIFICATION 0"
      },
      "transferFrom(address,address,uint256)": {
        "details": "See {IERC721-transferFrom}."
      }
    },
    "title": "Nugg Labs NFT Collection 0 - \"NuggFT\"",
    "version": 1
  },
  "userdoc": {
    "kind": "user",
    "methods": {},
    "notice": "entrily onchain generative NFT",
    "version": 1
  },
  "storageLayout": {
    "storage": [
      {
        "astId": 1468,
        "contract": "contracts/NuggFT.sol:NuggFT",
        "label": "inTesting",
        "offset": 0,
        "slot": "0",
        "type": "t_bool"
      },
      {
        "astId": 1483,
        "contract": "contracts/NuggFT.sol:NuggFT",
        "label": "pw",
        "offset": 1,
        "slot": "0",
        "type": "t_address"
      },
      {
        "astId": 3180,
        "contract": "contracts/NuggFT.sol:NuggFT",
        "label": "_name",
        "offset": 0,
        "slot": "1",
        "type": "t_string_storage"
      },
      {
        "astId": 3182,
        "contract": "contracts/NuggFT.sol:NuggFT",
        "label": "_symbol",
        "offset": 0,
        "slot": "2",
        "type": "t_string_storage"
      },
      {
        "astId": 3186,
        "contract": "contracts/NuggFT.sol:NuggFT",
        "label": "_owners",
        "offset": 0,
        "slot": "3",
        "type": "t_mapping(t_uint256,t_address)"
      },
      {
        "astId": 3190,
        "contract": "contracts/NuggFT.sol:NuggFT",
        "label": "_balances",
        "offset": 0,
        "slot": "4",
        "type": "t_mapping(t_address,t_uint256)"
      },
      {
        "astId": 3194,
        "contract": "contracts/NuggFT.sol:NuggFT",
        "label": "_tokenApprovals",
        "offset": 0,
        "slot": "5",
        "type": "t_mapping(t_uint256,t_address)"
      },
      {
        "astId": 3200,
        "contract": "contracts/NuggFT.sol:NuggFT",
        "label": "_operatorApprovals",
        "offset": 0,
        "slot": "6",
        "type": "t_mapping(t_address,t_mapping(t_address,t_bool))"
      },
      {
        "astId": 6539,
        "contract": "contracts/NuggFT.sol:NuggFT",
        "label": "collection_",
        "offset": 0,
        "slot": "7",
        "type": "t_bytes_storage"
      },
      {
        "astId": 6542,
        "contract": "contracts/NuggFT.sol:NuggFT",
        "label": "items_",
        "offset": 0,
        "slot": "8",
        "type": "t_array(t_bytes_storage)dyn_storage"
      },
      {
        "astId": 6545,
        "contract": "contracts/NuggFT.sol:NuggFT",
        "label": "sample1",
        "offset": 0,
        "slot": "9",
        "type": "t_bytes_storage"
      },
      {
        "astId": 6548,
        "contract": "contracts/NuggFT.sol:NuggFT",
        "label": "sample2",
        "offset": 0,
        "slot": "10",
        "type": "t_bytes_storage"
      },
      {
        "astId": 6551,
        "contract": "contracts/NuggFT.sol:NuggFT",
        "label": "sample3",
        "offset": 0,
        "slot": "11",
        "type": "t_bytes_storage"
      },
      {
        "astId": 6554,
        "contract": "contracts/NuggFT.sol:NuggFT",
        "label": "sample4",
        "offset": 0,
        "slot": "12",
        "type": "t_bytes_storage"
      },
      {
        "astId": 6557,
        "contract": "contracts/NuggFT.sol:NuggFT",
        "label": "sampleCollection",
        "offset": 0,
        "slot": "13",
        "type": "t_bytes_storage"
      },
      {
        "astId": 20,
        "contract": "contracts/NuggFT.sol:NuggFT",
        "label": "dotnugg",
        "offset": 0,
        "slot": "14",
        "type": "t_contract(IDotNugg)4177"
      },
      {
        "astId": 23,
        "contract": "contracts/NuggFT.sol:NuggFT",
        "label": "xnugg",
        "offset": 0,
        "slot": "15",
        "type": "t_contract(IxNUGG)4594"
      },
      {
        "astId": 26,
        "contract": "contracts/NuggFT.sol:NuggFT",
        "label": "nuggswap",
        "offset": 0,
        "slot": "16",
        "type": "t_contract(NuggSwap)1175"
      },
      {
        "astId": 29,
        "contract": "contracts/NuggFT.sol:NuggFT",
        "label": "nuggin",
        "offset": 0,
        "slot": "17",
        "type": "t_contract(IDotNuggFileResolver)4188"
      },
      {
        "astId": 31,
        "contract": "contracts/NuggFT.sol:NuggFT",
        "label": "epochOffset",
        "offset": 0,
        "slot": "18",
        "type": "t_uint256"
      }
    ],
    "types": {
      "t_address": {
        "encoding": "inplace",
        "label": "address",
        "numberOfBytes": "20"
      },
      "t_array(t_bytes_storage)dyn_storage": {
        "base": "t_bytes_storage",
        "encoding": "dynamic_array",
        "label": "bytes[]",
        "numberOfBytes": "32"
      },
      "t_bool": {
        "encoding": "inplace",
        "label": "bool",
        "numberOfBytes": "1"
      },
      "t_bytes_storage": {
        "encoding": "bytes",
        "label": "bytes",
        "numberOfBytes": "32"
      },
      "t_contract(IDotNugg)4177": {
        "encoding": "inplace",
        "label": "contract IDotNugg",
        "numberOfBytes": "20"
      },
      "t_contract(IDotNuggFileResolver)4188": {
        "encoding": "inplace",
        "label": "contract IDotNuggFileResolver",
        "numberOfBytes": "20"
      },
      "t_contract(IxNUGG)4594": {
        "encoding": "inplace",
        "label": "contract IxNUGG",
        "numberOfBytes": "20"
      },
      "t_contract(NuggSwap)1175": {
        "encoding": "inplace",
        "label": "contract NuggSwap",
        "numberOfBytes": "20"
      },
      "t_mapping(t_address,t_bool)": {
        "encoding": "mapping",
        "key": "t_address",
        "label": "mapping(address => bool)",
        "numberOfBytes": "32",
        "value": "t_bool"
      },
      "t_mapping(t_address,t_mapping(t_address,t_bool))": {
        "encoding": "mapping",
        "key": "t_address",
        "label": "mapping(address => mapping(address => bool))",
        "numberOfBytes": "32",
        "value": "t_mapping(t_address,t_bool)"
      },
      "t_mapping(t_address,t_uint256)": {
        "encoding": "mapping",
        "key": "t_address",
        "label": "mapping(address => uint256)",
        "numberOfBytes": "32",
        "value": "t_uint256"
      },
      "t_mapping(t_uint256,t_address)": {
        "encoding": "mapping",
        "key": "t_uint256",
        "label": "mapping(uint256 => address)",
        "numberOfBytes": "32",
        "value": "t_address"
      },
      "t_string_storage": {
        "encoding": "bytes",
        "label": "string",
        "numberOfBytes": "32"
      },
      "t_uint256": {
        "encoding": "inplace",
        "label": "uint256",
        "numberOfBytes": "32"
      }
    }
  }
}