{
  "address": "0x726d53FD72Fc16DcF4C62CE098e4A94705f1EC5F",
  "abi": [
    {
      "inputs": [
        {
          "internalType": "address",
          "name": "_defaultResolver",
          "type": "address"
        }
      ],
      "stateMutability": "nonpayable",
      "type": "constructor"
    },
    {
      "anonymous": false,
      "inputs": [
        {
          "indexed": true,
          "internalType": "address",
          "name": "owner",
          "type": "address"
        },
        {
          "indexed": true,
          "internalType": "address",
          "name": "approved",
          "type": "address"
        },
        {
          "indexed": true,
          "internalType": "uint256",
          "name": "tokenId",
          "type": "uint256"
        }
      ],
      "name": "Approval",
      "type": "event"
    },
    {
      "anonymous": false,
      "inputs": [
        {
          "indexed": true,
          "internalType": "address",
          "name": "owner",
          "type": "address"
        },
        {
          "indexed": true,
          "internalType": "address",
          "name": "operator",
          "type": "address"
        },
        {
          "indexed": false,
          "internalType": "bool",
          "name": "approved",
          "type": "bool"
        }
      ],
      "name": "ApprovalForAll",
      "type": "event"
    },
    {
      "anonymous": false,
      "inputs": [
        {
          "indexed": false,
          "internalType": "uint256",
          "name": "tokenid",
          "type": "uint256"
        },
        {
          "indexed": false,
          "internalType": "uint256",
          "name": "endingEpoch",
          "type": "uint256"
        },
        {
          "indexed": false,
          "internalType": "address",
          "name": "account",
          "type": "address"
        }
      ],
      "name": "Claim",
      "type": "event"
    },
    {
      "anonymous": false,
      "inputs": [
        {
          "indexed": false,
          "internalType": "uint256",
          "name": "sellingTokenId",
          "type": "uint256"
        },
        {
          "indexed": false,
          "internalType": "uint256",
          "name": "itemId",
          "type": "uint256"
        },
        {
          "indexed": false,
          "internalType": "uint256",
          "name": "buyingTokenId",
          "type": "uint256"
        },
        {
          "indexed": false,
          "internalType": "uint256",
          "name": "endingEpoch",
          "type": "uint256"
        }
      ],
      "name": "ClaimItem",
      "type": "event"
    },
    {
      "anonymous": false,
      "inputs": [
        {
          "indexed": false,
          "internalType": "uint256",
          "name": "tokenid",
          "type": "uint256"
        },
        {
          "indexed": false,
          "internalType": "address",
          "name": "account",
          "type": "address"
        },
        {
          "indexed": false,
          "internalType": "uint256",
          "name": "eth",
          "type": "uint256"
        }
      ],
      "name": "Commit",
      "type": "event"
    },
    {
      "anonymous": false,
      "inputs": [
        {
          "indexed": false,
          "internalType": "uint256",
          "name": "sellingTokenId",
          "type": "uint256"
        },
        {
          "indexed": false,
          "internalType": "uint256",
          "name": "itemId",
          "type": "uint256"
        },
        {
          "indexed": false,
          "internalType": "uint256",
          "name": "buyingTokenId",
          "type": "uint256"
        },
        {
          "indexed": false,
          "internalType": "uint256",
          "name": "eth",
          "type": "uint256"
        }
      ],
      "name": "CommitItem",
      "type": "event"
    },
    {
      "anonymous": false,
      "inputs": [],
      "name": "Genesis",
      "type": "event"
    },
    {
      "anonymous": false,
      "inputs": [
        {
          "indexed": false,
          "internalType": "uint256",
          "name": "epoch",
          "type": "uint256"
        },
        {
          "indexed": false,
          "internalType": "address",
          "name": "account",
          "type": "address"
        },
        {
          "indexed": false,
          "internalType": "uint256",
          "name": "eth",
          "type": "uint256"
        }
      ],
      "name": "Mint",
      "type": "event"
    },
    {
      "anonymous": false,
      "inputs": [
        {
          "indexed": false,
          "internalType": "uint256",
          "name": "tokenid",
          "type": "uint256"
        },
        {
          "indexed": false,
          "internalType": "address",
          "name": "account",
          "type": "address"
        },
        {
          "indexed": false,
          "internalType": "uint256",
          "name": "eth",
          "type": "uint256"
        }
      ],
      "name": "Offer",
      "type": "event"
    },
    {
      "anonymous": false,
      "inputs": [
        {
          "indexed": false,
          "internalType": "uint256",
          "name": "sellingTokenId",
          "type": "uint256"
        },
        {
          "indexed": false,
          "internalType": "uint256",
          "name": "itemId",
          "type": "uint256"
        },
        {
          "indexed": false,
          "internalType": "uint256",
          "name": "buyingTokenId",
          "type": "uint256"
        },
        {
          "indexed": false,
          "internalType": "uint256",
          "name": "eth",
          "type": "uint256"
        }
      ],
      "name": "OfferItem",
      "type": "event"
    },
    {
      "anonymous": false,
      "inputs": [
        {
          "indexed": false,
          "internalType": "uint256",
          "name": "tokenId",
          "type": "uint256"
        }
      ],
      "name": "OpenSlot",
      "type": "event"
    },
    {
      "anonymous": false,
      "inputs": [
        {
          "indexed": false,
          "internalType": "uint256",
          "name": "tokenId",
          "type": "uint256"
        },
        {
          "indexed": false,
          "internalType": "uint256",
          "name": "itemId",
          "type": "uint256"
        }
      ],
      "name": "PopItem",
      "type": "event"
    },
    {
      "anonymous": false,
      "inputs": [
        {
          "indexed": false,
          "internalType": "uint256",
          "name": "tokenId",
          "type": "uint256"
        },
        {
          "indexed": false,
          "internalType": "uint256[]",
          "name": "items",
          "type": "uint256[]"
        }
      ],
      "name": "PreMint",
      "type": "event"
    },
    {
      "anonymous": false,
      "inputs": [
        {
          "indexed": false,
          "internalType": "uint256",
          "name": "tokenId",
          "type": "uint256"
        },
        {
          "indexed": false,
          "internalType": "uint256",
          "name": "itemId",
          "type": "uint256"
        }
      ],
      "name": "PushItem",
      "type": "event"
    },
    {
      "anonymous": false,
      "inputs": [
        {
          "indexed": false,
          "internalType": "uint256",
          "name": "amount",
          "type": "uint256"
        }
      ],
      "name": "StakeEth",
      "type": "event"
    },
    {
      "anonymous": false,
      "inputs": [
        {
          "indexed": false,
          "internalType": "uint256",
          "name": "tokenid",
          "type": "uint256"
        },
        {
          "indexed": false,
          "internalType": "address",
          "name": "account",
          "type": "address"
        },
        {
          "indexed": false,
          "internalType": "uint256",
          "name": "eth",
          "type": "uint256"
        }
      ],
      "name": "Swap",
      "type": "event"
    },
    {
      "anonymous": false,
      "inputs": [
        {
          "indexed": false,
          "internalType": "uint256",
          "name": "sellingTokenId",
          "type": "uint256"
        },
        {
          "indexed": false,
          "internalType": "uint256",
          "name": "itemId",
          "type": "uint256"
        },
        {
          "indexed": false,
          "internalType": "uint256",
          "name": "eth",
          "type": "uint256"
        }
      ],
      "name": "SwapItem",
      "type": "event"
    },
    {
      "anonymous": false,
      "inputs": [
        {
          "indexed": true,
          "internalType": "address",
          "name": "from",
          "type": "address"
        },
        {
          "indexed": true,
          "internalType": "address",
          "name": "to",
          "type": "address"
        },
        {
          "indexed": true,
          "internalType": "uint256",
          "name": "tokenId",
          "type": "uint256"
        }
      ],
      "name": "Transfer",
      "type": "event"
    },
    {
      "anonymous": false,
      "inputs": [
        {
          "indexed": false,
          "internalType": "uint256",
          "name": "amount",
          "type": "uint256"
        }
      ],
      "name": "UnStakeEth",
      "type": "event"
    },
    {
      "inputs": [],
      "name": "activeEthPerShare",
      "outputs": [
        {
          "internalType": "uint256",
          "name": "res",
          "type": "uint256"
        }
      ],
      "stateMutability": "view",
      "type": "function"
    },
    {
      "inputs": [
        {
          "internalType": "uint256[][]",
          "name": "data",
          "type": "uint256[][]"
        }
      ],
      "name": "addToVault",
      "outputs": [],
      "stateMutability": "nonpayable",
      "type": "function"
    },
    {
      "inputs": [
        {
          "internalType": "address",
          "name": "to",
          "type": "address"
        },
        {
          "internalType": "uint256",
          "name": "tokenId",
          "type": "uint256"
        }
      ],
      "name": "approve",
      "outputs": [],
      "stateMutability": "nonpayable",
      "type": "function"
    },
    {
      "inputs": [
        {
          "internalType": "address",
          "name": "owner",
          "type": "address"
        }
      ],
      "name": "balanceOf",
      "outputs": [
        {
          "internalType": "uint256",
          "name": "",
          "type": "uint256"
        }
      ],
      "stateMutability": "view",
      "type": "function"
    },
    {
      "inputs": [
        {
          "internalType": "uint256",
          "name": "tokenId",
          "type": "uint256"
        }
      ],
      "name": "burn",
      "outputs": [],
      "stateMutability": "nonpayable",
      "type": "function"
    },
    {
      "inputs": [
        {
          "internalType": "uint256",
          "name": "tokenid",
          "type": "uint256"
        },
        {
          "internalType": "uint256",
          "name": "endingEpoch",
          "type": "uint256"
        }
      ],
      "name": "claim",
      "outputs": [],
      "stateMutability": "nonpayable",
      "type": "function"
    },
    {
      "inputs": [
        {
          "internalType": "uint256",
          "name": "sellingTokenId",
          "type": "uint256"
        },
        {
          "internalType": "uint256",
          "name": "itemid",
          "type": "uint256"
        },
        {
          "internalType": "uint256",
          "name": "buyingTokenId",
          "type": "uint256"
        },
        {
          "internalType": "uint256",
          "name": "endingEpoch",
          "type": "uint256"
        }
      ],
      "name": "claimItem",
      "outputs": [],
      "stateMutability": "nonpayable",
      "type": "function"
    },
    {
      "inputs": [
        {
          "internalType": "uint256",
          "name": "tokenid",
          "type": "uint256"
        }
      ],
      "name": "commit",
      "outputs": [],
      "stateMutability": "payable",
      "type": "function"
    },
    {
      "inputs": [
        {
          "internalType": "uint256",
          "name": "sellingTokenId",
          "type": "uint256"
        },
        {
          "internalType": "uint256",
          "name": "itemid",
          "type": "uint256"
        },
        {
          "internalType": "uint256",
          "name": "buyingTokenId",
          "type": "uint256"
        }
      ],
      "name": "commitItem",
      "outputs": [],
      "stateMutability": "payable",
      "type": "function"
    },
    {
      "inputs": [],
      "name": "defaultResolver",
      "outputs": [
        {
          "internalType": "address",
          "name": "",
          "type": "address"
        }
      ],
      "stateMutability": "view",
      "type": "function"
    },
    {
      "inputs": [
        {
          "internalType": "uint256",
          "name": "tokenid",
          "type": "uint256"
        }
      ],
      "name": "delegate",
      "outputs": [],
      "stateMutability": "payable",
      "type": "function"
    },
    {
      "inputs": [
        {
          "internalType": "uint256",
          "name": "sellingTokenId",
          "type": "uint256"
        },
        {
          "internalType": "uint256",
          "name": "itemid",
          "type": "uint256"
        },
        {
          "internalType": "uint256",
          "name": "buyingTokenId",
          "type": "uint256"
        }
      ],
      "name": "delegateItem",
      "outputs": [],
      "stateMutability": "payable",
      "type": "function"
    },
    {
      "inputs": [],
      "name": "epoch",
      "outputs": [
        {
          "internalType": "uint256",
          "name": "res",
          "type": "uint256"
        }
      ],
      "stateMutability": "view",
      "type": "function"
    },
    {
      "inputs": [],
      "name": "genesis",
      "outputs": [
        {
          "internalType": "uint256",
          "name": "",
          "type": "uint256"
        }
      ],
      "stateMutability": "view",
      "type": "function"
    },
    {
      "inputs": [
        {
          "internalType": "uint256",
          "name": "tokenid",
          "type": "uint256"
        }
      ],
      "name": "getActiveSwap",
      "outputs": [
        {
          "internalType": "address",
          "name": "leader",
          "type": "address"
        },
        {
          "internalType": "uint256",
          "name": "amount",
          "type": "uint256"
        },
        {
          "internalType": "uint256",
          "name": "_epoch",
          "type": "uint256"
        },
        {
          "internalType": "bool",
          "name": "isOwner",
          "type": "bool"
        }
      ],
      "stateMutability": "view",
      "type": "function"
    },
    {
      "inputs": [
        {
          "internalType": "uint256",
          "name": "tokenId",
          "type": "uint256"
        }
      ],
      "name": "getApproved",
      "outputs": [
        {
          "internalType": "address",
          "name": "",
          "type": "address"
        }
      ],
      "stateMutability": "view",
      "type": "function"
    },
    {
      "inputs": [
        {
          "internalType": "uint256",
          "name": "tokenid",
          "type": "uint256"
        },
        {
          "internalType": "uint256",
          "name": "index",
          "type": "uint256"
        },
        {
          "internalType": "address",
          "name": "account",
          "type": "address"
        }
      ],
      "name": "getOfferByAccount",
      "outputs": [
        {
          "internalType": "uint256",
          "name": "amount",
          "type": "uint256"
        }
      ],
      "stateMutability": "view",
      "type": "function"
    },
    {
      "inputs": [
        {
          "internalType": "address",
          "name": "owner",
          "type": "address"
        },
        {
          "internalType": "address",
          "name": "operator",
          "type": "address"
        }
      ],
      "name": "isApprovedForAll",
      "outputs": [
        {
          "internalType": "bool",
          "name": "",
          "type": "bool"
        }
      ],
      "stateMutability": "view",
      "type": "function"
    },
    {
      "inputs": [
        {
          "internalType": "uint256",
          "name": "tokenid",
          "type": "uint256"
        }
      ],
      "name": "mint",
      "outputs": [],
      "stateMutability": "payable",
      "type": "function"
    },
    {
      "inputs": [],
      "name": "name",
      "outputs": [
        {
          "internalType": "string",
          "name": "",
          "type": "string"
        }
      ],
      "stateMutability": "view",
      "type": "function"
    },
    {
      "inputs": [
        {
          "internalType": "uint256",
          "name": "tokenid",
          "type": "uint256"
        }
      ],
      "name": "offer",
      "outputs": [],
      "stateMutability": "payable",
      "type": "function"
    },
    {
      "inputs": [
        {
          "internalType": "uint256",
          "name": "sellingTokenId",
          "type": "uint256"
        },
        {
          "internalType": "uint256",
          "name": "itemid",
          "type": "uint256"
        },
        {
          "internalType": "uint256",
          "name": "buyingTokenId",
          "type": "uint256"
        }
      ],
      "name": "offerItem",
      "outputs": [],
      "stateMutability": "payable",
      "type": "function"
    },
    {
      "inputs": [
        {
          "internalType": "uint256",
          "name": "tokenId",
          "type": "uint256"
        }
      ],
      "name": "ownerOf",
      "outputs": [
        {
          "internalType": "address",
          "name": "",
          "type": "address"
        }
      ],
      "stateMutability": "view",
      "type": "function"
    },
    {
      "inputs": [
        {
          "internalType": "uint256",
          "name": "tokenId",
          "type": "uint256"
        }
      ],
      "name": "parsedProofOf",
      "outputs": [
        {
          "internalType": "uint256",
          "name": "proof",
          "type": "uint256"
        },
        {
          "internalType": "uint256[]",
          "name": "defaultIds",
          "type": "uint256[]"
        },
        {
          "internalType": "uint256[]",
          "name": "extraIds",
          "type": "uint256[]"
        },
        {
          "internalType": "uint256[]",
          "name": "overrides",
          "type": "uint256[]"
        }
      ],
      "stateMutability": "view",
      "type": "function"
    },
    {
      "inputs": [
        {
          "internalType": "uint256",
          "name": "tokenId",
          "type": "uint256"
        }
      ],
      "name": "proofOf",
      "outputs": [
        {
          "internalType": "uint256",
          "name": "",
          "type": "uint256"
        }
      ],
      "stateMutability": "view",
      "type": "function"
    },
    {
      "inputs": [
        {
          "internalType": "uint256",
          "name": "tokenId",
          "type": "uint256"
        }
      ],
      "name": "rawProcessURI",
      "outputs": [
        {
          "internalType": "uint256[]",
          "name": "res",
          "type": "uint256[]"
        }
      ],
      "stateMutability": "view",
      "type": "function"
    },
    {
      "inputs": [
        {
          "internalType": "uint256",
          "name": "tokenId",
          "type": "uint256"
        }
      ],
      "name": "resolverOf",
      "outputs": [
        {
          "internalType": "address",
          "name": "",
          "type": "address"
        }
      ],
      "stateMutability": "view",
      "type": "function"
    },
    {
      "inputs": [
        {
          "internalType": "address",
          "name": "from",
          "type": "address"
        },
        {
          "internalType": "address",
          "name": "to",
          "type": "address"
        },
        {
          "internalType": "uint256",
          "name": "tokenId",
          "type": "uint256"
        }
      ],
      "name": "safeTransferFrom",
      "outputs": [],
      "stateMutability": "nonpayable",
      "type": "function"
    },
    {
      "inputs": [
        {
          "internalType": "address",
          "name": "from",
          "type": "address"
        },
        {
          "internalType": "address",
          "name": "to",
          "type": "address"
        },
        {
          "internalType": "uint256",
          "name": "tokenId",
          "type": "uint256"
        },
        {
          "internalType": "bytes",
          "name": "_data",
          "type": "bytes"
        }
      ],
      "name": "safeTransferFrom",
      "outputs": [],
      "stateMutability": "nonpayable",
      "type": "function"
    },
    {
      "inputs": [
        {
          "internalType": "address",
          "name": "operator",
          "type": "address"
        },
        {
          "internalType": "bool",
          "name": "approved",
          "type": "bool"
        }
      ],
      "name": "setApprovalForAll",
      "outputs": [],
      "stateMutability": "nonpayable",
      "type": "function"
    },
    {
      "inputs": [
        {
          "internalType": "bytes4",
          "name": "interfaceId",
          "type": "bytes4"
        }
      ],
      "name": "supportsInterface",
      "outputs": [
        {
          "internalType": "bool",
          "name": "",
          "type": "bool"
        }
      ],
      "stateMutability": "view",
      "type": "function"
    },
    {
      "inputs": [
        {
          "internalType": "uint256",
          "name": "tokenid",
          "type": "uint256"
        },
        {
          "internalType": "uint256",
          "name": "floor",
          "type": "uint256"
        }
      ],
      "name": "swap",
      "outputs": [],
      "stateMutability": "nonpayable",
      "type": "function"
    },
    {
      "inputs": [
        {
          "internalType": "uint256",
          "name": "sellingTokenId",
          "type": "uint256"
        },
        {
          "internalType": "uint256",
          "name": "itemid",
          "type": "uint256"
        },
        {
          "internalType": "uint256",
          "name": "floor",
          "type": "uint256"
        }
      ],
      "name": "swapItem",
      "outputs": [],
      "stateMutability": "nonpayable",
      "type": "function"
    },
    {
      "inputs": [],
      "name": "symbol",
      "outputs": [
        {
          "internalType": "string",
          "name": "",
          "type": "string"
        }
      ],
      "stateMutability": "view",
      "type": "function"
    },
    {
      "inputs": [
        {
          "internalType": "uint256",
          "name": "tokenId",
          "type": "uint256"
        },
        {
          "internalType": "address",
          "name": "resolver",
          "type": "address"
        }
      ],
      "name": "tokenURI",
      "outputs": [
        {
          "internalType": "bytes",
          "name": "res",
          "type": "bytes"
        }
      ],
      "stateMutability": "view",
      "type": "function"
    },
    {
      "inputs": [
        {
          "internalType": "uint256",
          "name": "tokenId",
          "type": "uint256"
        }
      ],
      "name": "tokenURI",
      "outputs": [
        {
          "internalType": "string",
          "name": "res",
          "type": "string"
        }
      ],
      "stateMutability": "view",
      "type": "function"
    },
    {
      "inputs": [],
      "name": "totalStakedEth",
      "outputs": [
        {
          "internalType": "uint256",
          "name": "res",
          "type": "uint256"
        }
      ],
      "stateMutability": "view",
      "type": "function"
    },
    {
      "inputs": [],
      "name": "totalStakedShares",
      "outputs": [
        {
          "internalType": "uint256",
          "name": "res",
          "type": "uint256"
        }
      ],
      "stateMutability": "view",
      "type": "function"
    },
    {
      "inputs": [],
      "name": "totalSupply",
      "outputs": [
        {
          "internalType": "uint256",
          "name": "res",
          "type": "uint256"
        }
      ],
      "stateMutability": "view",
      "type": "function"
    },
    {
      "inputs": [
        {
          "internalType": "address",
          "name": "from",
          "type": "address"
        },
        {
          "internalType": "address",
          "name": "to",
          "type": "address"
        },
        {
          "internalType": "uint256",
          "name": "tokenId",
          "type": "uint256"
        }
      ],
      "name": "transferFrom",
      "outputs": [],
      "stateMutability": "nonpayable",
      "type": "function"
    }
  ],
  "transactionHash": "0x2d6bffd036b9f4f01a71bc3d70296f8bedacc01e7736c6db53ae1a9ab6c18905",
  "args": [
    "0x47cE00De0bd8Ed8FAbd335FE1EA8283284FfeC68"
  ],
  "solcInputHash": "e2075a753da4c3d17dd19a1cde4926f4",
  "bytecode": "0x60c06040523480156200001157600080fd5b50604051620055e3380380620055e38339810160408190526200003491620001b5565b60405180604001604052806006815260200165139551d1d19560d21b8152506040518060400160405280601381526020017f4e7567672046756e6769626c6520546f6b656e00000000000000000000000000815250816200009a6200010a60201b60201c565b8151620000ab92602001906200010f565b508051620000c19060019060208401906200010f565b5050506001600160601b0319606082901b166080524360a0526040517f6bf6eaff5e9af8fbccb949f4c38cc016936f8775363ccf4224db160365785d5290600090a15062000222565b600090565b8280546200011d90620001e5565b90600052602060002090601f0160209004810192826200014157600085556200018c565b82601f106200015c57805160ff19168380011785556200018c565b828001600101855582156200018c579182015b828111156200018c5782518255916020019190600101906200016f565b506200019a9291506200019e565b5090565b5b808211156200019a57600081556001016200019f565b600060208284031215620001c7578081fd5b81516001600160a01b0381168114620001de578182fd5b9392505050565b600181811c90821680620001fa57607f821691505b602082108114156200021c57634e487b7160e01b600052602260045260246000fd5b50919050565b60805160601c60a05161531a620002c96000396000818161068301528181610a5c01528181610a8f01528181610ad001528181610bf601528181610c4801528181610d1401528181610d9801528181610fe4015281816110210152818161104f0152818161107b015281816110c80152818161114c01528181611367015281816114090152611476015260008181610562015281816111ef01526113d3015261531a6000f3fe6080604052600436106102bb5760003560e01c8063884c66ae1161016e578063b3f9e4cb116100cb578063c87b56dd1161007f578063d96073cf11610064578063d96073cf14610780578063e985e9c5146107a0578063f4f98ad5146107c057600080fd5b8063c87b56dd1461074d578063d636feae1461076d57600080fd5b8063be2cfdff116100b0578063be2cfdff146106e8578063c3490263146106fd578063c35768811461071d57600080fd5b8063b3f9e4cb146106a7578063b88d4fde146106c757600080fd5b80639fa6dd3511610122578063a1a696a311610107578063a1a696a314610627578063a22cb46514610654578063a7f0b3de1461067457600080fd5b80639fa6dd3514610601578063a0712d681461061457600080fd5b8063900cf0cf11610153578063900cf0cf146105c457806395d89b41146105d957806396cfd827146105ee57600080fd5b8063884c66ae146105845780638c4c1b2f146105a457600080fd5b806323b872dd1161021c578063504cdacf116101d057806370a08231116101b557806370a082311461051d578063761610fc1461053d578063828eab0e1461055057600080fd5b8063504cdacf146104e85780636352211e146104fd57600080fd5b806342966c681161020157806342966c681461048857806349b44f98146104a85780634dd1496b146104c857600080fd5b806323b872dd1461044857806342842e0e1461046857600080fd5b80630cc611b11161027357806318160ddd1161025857806318160ddd146103c757806318b6e28a146103dc5780631cd4ad3a146103fc57600080fd5b80630cc611b1146103945780630cf27c2a146103b457600080fd5b806306fdde03116102a457806306fdde0314610318578063081812fc1461033a578063095ea7b31461037257600080fd5b806301ffc9a7146102c057806303bfe17e146102f5575b600080fd5b3480156102cc57600080fd5b506102e06102db366004614c03565b6107d3565b60405190151581526020015b60405180910390f35b34801561030157600080fd5b5061030a610870565b6040519081526020016102ec565b34801561032457600080fd5b5061032d610880565b6040516102ec9190614f18565b34801561034657600080fd5b5061035a610355366004614ca5565b610912565b6040516001600160a01b0390911681526020016102ec565b34801561037e57600080fd5b5061039261038d366004614ad7565b61091e565b005b3480156103a057600080fd5b5061030a6103af366004614ca5565b610a55565b6103926103c2366004614d34565b610ac9565b3480156103d357600080fd5b5061030a610af7565b3480156103e857600080fd5b506103926103f7366004614b00565b610b01565b34801561040857600080fd5b5061041c610417366004614ca5565b610b1a565b604080516001600160a01b039095168552602085019390935291830152151560608201526080016102ec565b34801561045457600080fd5b506103926104633660046149bf565b505050565b34801561047457600080fd5b506103926104833660046149bf565b610bc0565b34801561049457600080fd5b506103926104a3366004614ca5565b610bd4565b3480156104b457600080fd5b506103926104c3366004614d34565b610be2565b3480156104d457600080fd5b506103926104e3366004614d5f565b610bef565b3480156104f457600080fd5b5061030a610c1e565b34801561050957600080fd5b5061035a610518366004614ca5565b610c29565b34801561052957600080fd5b5061030a61053836600461497c565b610c35565b61039261054b366004614ca5565b610c41565b34801561055c57600080fd5b5061035a7f000000000000000000000000000000000000000000000000000000000000000081565b34801561059057600080fd5b5061030a61059f366004614d00565b610c6d565b3480156105b057600080fd5b5061032d6105bf366004614cbd565b610cec565b3480156105d057600080fd5b5061030a610fdd565b3480156105e557600080fd5b5061032d611008565b6103926105fc366004614d34565b61101a565b61039261060f366004614ca5565b611048565b610392610622366004614ca5565b611074565b34801561063357600080fd5b50610647610642366004614ca5565b6110a0565b6040516102ec9190614ef2565b34801561066057600080fd5b5061039261066f366004614a9d565b611284565b34801561068057600080fd5b507f000000000000000000000000000000000000000000000000000000000000000061030a565b3480156106b357600080fd5b5061035a6106c2366004614ca5565b611349565b3480156106d357600080fd5b506103926106e23660046149fa565b50505050565b3480156106f457600080fd5b5061030a611355565b34801561070957600080fd5b50610392610718366004614cdf565b611360565b34801561072957600080fd5b5061073d610738366004614ca5565b61138d565b6040516102ec9493929190614f8a565b34801561075957600080fd5b5061032d610768366004614ca5565b6113ac565b61039261077b366004614d34565b611402565b34801561078c57600080fd5b5061039261079b366004614cdf565b611430565b3480156107ac57600080fd5b506102e06107bb366004614996565b61143c565b6103926107ce366004614ca5565b61146f565b60006001600160e01b031982167f80ac58cd00000000000000000000000000000000000000000000000000000000148061083657506001600160e01b031982167f5b5e139f00000000000000000000000000000000000000000000000000000000145b8061086a57507f01ffc9a7000000000000000000000000000000000000000000000000000000006001600160e01b03198316145b92915050565b600061087b8161149b565b905090565b60606000805461088f90615202565b80601f01602080910402602001604051908101604052809291908181526020018280546108bb90615202565b80156109085780601f106108dd57610100808354040283529160200191610908565b820191906000526020600020905b8154815290600101906020018083116108eb57829003601f168201915b5050505050905090565b600061086a81836114c2565b600061092c82825b9061155d565b9050806001600160a01b0316836001600160a01b031614156109bb5760405162461bcd60e51b815260206004820152602160248201527f4552433732313a20617070726f76616c20746f2063757272656e74206f776e6560448201527f720000000000000000000000000000000000000000000000000000000000000060648201526084015b60405180910390fd5b336001600160a01b03821614806109d757506109d7813361143c565b610a495760405162461bcd60e51b815260206004820152603860248201527f4552433732313a20617070726f76652063616c6c6572206973206e6f74206f7760448201527f6e6572206e6f7220617070726f76656420666f7220616c6c000000000000000060648201526084016109b2565b610463600084846115ea565b6000610a807f000000000000000000000000000000000000000000000000000000000000000061165c565b821415610abe576000610ab3817f0000000000000000000000000000000000000000000000000000000000000000611668565b509195945050505050565b61086a6000836116aa565b61046360007f0000000000000000000000000000000000000000000000000000000000000000858585611741565b600061087b611355565b610b16610b0e82846150d8565b600390611856565b5050565b60008181526009602052604081208190819081908190610b3a908261199f565b50905080610b745760405162461bcd60e51b815260206004820152600760248201526604e533a47533a360cc1b60448201526064016109b2565b80945060a881901c65ffffffffffff1660a082901c60ff166004021b64e8d4a51000029350610baa8160d81c640fffffffff1690565b9250610bb68160ff1c90565b9150509193509193565b604080516020810190915260009052505050565b610bdf6000826119b7565b50565b6104636000838386611b92565b6106e260007f000000000000000000000000000000000000000000000000000000000000000086868587611d4b565b600061087b81611ef1565b600061086a8282610926565b600061086a8183611f00565b610bdf60007f000000000000000000000000000000000000000000000000000000000000000083611f9e565b60008381526009602052604081208190610c88908486612003565b91505080610cc25760405162461bcd60e51b815260206004820152600760248201526604e533a47533a360cc1b60448201526064016109b2565b60a881901c65ffffffffffff1660a082901c60ff166004021b64e8d4a51000025b95945050505050565b6000828152600660205260409020546060906001600160a01b0316151580610d3b5750610d387f000000000000000000000000000000000000000000000000000000000000000061165c565b83145b610d735760405162461bcd60e51b815260206004820152600960248201526804e46543a4e544d3a360bc1b60448201526064016109b2565b60008381526006602052604081205481906001600160a01b0316610dc157610dbc60007f0000000000000000000000000000000000000000000000000000000000000000611668565b610dca565b610dca8561138d565b91945090925060009150610de1905060038461201d565b9050600086848430604051602001610dfc9493929190614f44565b60408051601f19818403018152908290527f4a0ef70300000000000000000000000000000000000000000000000000000000825291506000906001600160a01b03881690634a0ef70390610e54908590600401614f18565b60006040518083038186803b158015610e6c57600080fd5b505afa158015610e80573d6000803e3d6000fd5b505050506040513d6000823e601f3d908101601f19168201604052610ea89190810190614c3b565b90506000876001600160a01b031663c142c4968585856040518463ffffffff1660e01b8152600401610edc93929190614e7c565b60006040518083038186803b158015610ef457600080fd5b505afa158015610f08573d6000803e3d6000fd5b505050506040513d6000823e601f3d908101601f19168201604052610f309190810190614b70565b6040517f8a61d3040000000000000000000000000000000000000000000000000000000081529091506001600160a01b03891690638a61d30490610f7c90849087908790600401614f05565b60006040518083038186803b158015610f9457600080fd5b505afa158015610fa8573d6000803e3d6000fd5b505050506040513d6000823e601f3d908101601f19168201604052610fd09190810190614c3b565b9998505050505050505050565b600061087b7f000000000000000000000000000000000000000000000000000000000000000061165c565b60606000600101805461088f90615202565b61046360007f0000000000000000000000000000000000000000000000000000000000000000858585612132565b610bdf60007f000000000000000000000000000000000000000000000000000000000000000083612304565b610b1660007f000000000000000000000000000000000000000000000000000000000000000083612391565b6000818152600660205260409020546060906001600160a01b03161515806110ef57506110ec7f000000000000000000000000000000000000000000000000000000000000000061165c565b82145b6111275760405162461bcd60e51b815260206004820152600960248201526804e46543a4e544d3a360bc1b60448201526064016109b2565b60008281526006602052604081205481906001600160a01b03166111755761117060007f0000000000000000000000000000000000000000000000000000000000000000611668565b61117e565b61117e8461138d565b93505092505060008483833060405160200161119d9493929190614f44565b60408051601f19818403018152919052905060006111bc60038561201d565b6040517fc142c4960000000000000000000000000000000000000000000000000000000081529091506001600160a01b037f0000000000000000000000000000000000000000000000000000000000000000169063c142c496906112269084908690600401614eb5565b60006040518083038186803b15801561123e57600080fd5b505afa158015611252573d6000803e3d6000fd5b505050506040513d6000823e601f3d908101601f1916820160405261127a9190810190614b70565b9695505050505050565b6001600160a01b0382163314156112dd5760405162461bcd60e51b815260206004820152601960248201527f4552433732313a20617070726f766520746f2063616c6c65720000000000000060448201526064016109b2565b336000818152600c602090815260408083206001600160a01b03871680855290835292819020805460ff191686151590811790915590519081529192917f17307eab39ab6107e8899845ad3d59bd9653f200f220920489ca2b5937696c31910160405180910390a35050565b600061086a8183612501565b600061087b8161257d565b610b1660007f0000000000000000000000000000000000000000000000000000000000000000848461258d565b60006060808061139d8486612694565b93509350935093509193509193565b60008181526008602052604090205460609061086a9083906001600160a01b03166113f7577f0000000000000000000000000000000000000000000000000000000000000000610cec565b6105bf600085612501565b61046360007f00000000000000000000000000000000000000000000000000000000000000008585856126bf565b610b16600083836127de565b6001600160a01b038083166000908152600c6020908152604080832093851683529290529081205460ff165b9392505050565b610bdf60007f0000000000000000000000000000000000000000000000000000000000000000836128a8565b600281015460009061146860016114b183612903565b6114bb8460c01c90565b6000612916565b60008181526006830160205260408120546001600160a01b031661153d5760405162461bcd60e51b815260206004820152602c60248201527f4552433732313a20617070726f76656420717565727920666f72206e6f6e657860448201526b34b9ba32b73a103a37b5b2b760a11b60648201526084016109b2565b506000908152600b9190910160205260409020546001600160a01b031690565b60008181526006830160205260409020546001600160a01b03168061086a5760405162461bcd60e51b815260206004820152602960248201527f4552433732313a206f776e657220717565727920666f72206e6f6e657869737460448201527f656e7420746f6b656e000000000000000000000000000000000000000000000060648201526084016109b2565b6000818152600b84016020526040902080546001600160a01b0319166001600160a01b0384169081179091558190611622858361155d565b6001600160a01b03167f8c5be1e5ebec7d5bd14f71427d1e84f3dd0314c0f7b2291e5b200ac8c7c3b92560405160405180910390a4505050565b600061086a8243612938565b60006060806060600061167a86612950565b50600488015490915061168d8183612a19565b915061169882612c51565b929b919a509850909650945050505050565b6000818152600783016020908152604091829020548251808401909352600483527f646174610000000000000000000000000000000000000000000000000000000092909101919091528061086a5760405162461bcd60e51b815260206004820152600a60248201527f544f4b454e3a504f3a300000000000000000000000000000000000000000000060448201526064016109b2565b61ffff821061177c5760405162461bcd60e51b815260206004820152600760248201526604d4c3a43493a360cc1b60448201526064016109b2565b33611790866001600160a01b03841661155d565b6001600160a01b0316146117d15760405162461bcd60e51b81526020600482015260086024820152674155433a54543a3360c01b60448201526064016109b2565b6000838152600986016020908152604080832085845260020190915290206117fb86828785612d60565b60408051858152602081018590526001600160a01b038416918101919091523460608201527ff562263f29883bf3519f3733bb30b47c831bfe9809884430857d8cf29571d554906080015b60405180910390a1505050505050565b600182015460005b825181101561199257600061189984838151811061188c57634e487b7160e01b600052603260045260246000fd5b6020026020010151612fb4565b905060006118a78483612ff9565b909450905060005b8584815181106118cf57634e487b7160e01b600052603260045260246000fd5b60200260200101515181101561197c578584815181106118ff57634e487b7160e01b600052603260045260246000fd5b6020026020010151818151811061192657634e487b7160e01b600052603260045260246000fd5b60209081029190910181015160008581529189905260408220909161194c6001866150c1565b815260208082019290925260409081016000908120858252909252902055806119748161523d565b9150506118af565b505050808061198a9061523d565b91505061185e565b5060019092019190915550565b6000806119ac848461304f565b915091509250929050565b306119c283836114c2565b6001600160a01b031614611a185760405162461bcd60e51b815260206004820152600860248201527f544c3a4246533a3000000000000000000000000000000000000000000000000060448201526064016109b2565b6000611a24838361155d565b90506001600160a01b0381163314611a7e5760405162461bcd60e51b815260206004820152600860248201527f544c3a4246533a3100000000000000000000000000000000000000000000000060448201526064016109b2565b6000828152600b8401602052604080822080546001600160a01b0319169055518391906001600160a01b038416907f8c5be1e5ebec7d5bd14f71427d1e84f3dd0314c0f7b2291e5b200ac8c7c3b925908390a46001600160a01b0381166000908152600a840160205260408120805460019290611afc9084906150c1565b9091555050600082815260068401602052604080822080546001600160a01b0319169055518391906001600160a01b038416907fddf252ad1be2c89b69c2b068fc378daa952ba7f163c4a11628f55a4df523b3ef908390a46000611b5f8461149b565b9050611b6b84826130ce565b611b7684600161318f565b6106e2611b828561149b565b6001600160a01b0384169061320d565b33611ba6856001600160a01b03841661155d565b6001600160a01b031614611be75760405162461bcd60e51b81526020600482015260086024820152674155433a54543a3360c01b60448201526064016109b2565b61ffff8310611c385760405162461bcd60e51b815260206004820152600760248201527f4d4c3a53493a300000000000000000000000000000000000000000000000000060448201526064016109b2565b6001600160a01b03811660009081526009850160209081526040808320868452600201909152812090611c6b828461304f565b5090508015611ca65760405162461bcd60e51b815260206004820152600760248201526604e533a53533a360cc1b60448201526064016109b2565b611cea84611ce460016001600160a01b0319851687175b90507f80000000000000000000000000000000000000000000000000000000000000001790565b90613326565b508083559050611d04866001600160a01b038516876133a7565b604080516001600160a01b0385168152602081018790529081018590527fc8032e5c721106f3e30ad0f1a45e919c8d034cf788842ff336b0150f0fbcc60e90606001611846565b33611d5f876001600160a01b03841661155d565b6001600160a01b031614611da05760405162461bcd60e51b81526020600482015260086024820152674155433a54543a3360c01b60448201526064016109b2565b61ffff8310611ddb5760405162461bcd60e51b815260206004820152600760248201526604d4c3a43493a360cc1b60448201526064016109b2565b60008481526009870160209081526040808320868452600201909152812090611e038761165c565b9050600080611e1384868861347a565b600088815260018701602090815260408083206001600160a01b038b1684529091528120559092509050611e49858383866134fa565b15611e6b5760008455611e668a6001600160a01b0387168961359a565b611e96565b611e9660a882901c65ffffffffffff1660a083901c60ff166004021b64e8d4a51000025b339061320d565b60408051898152602081018990526001600160a01b038716818301526060810188905290517f38195a074a64067740045e77ca5873f34a0df243a8ac9ecc39452c47e7061e479181900360800190a150505050505050505050565b600061086a8260020154612903565b60006001600160a01b038216611f7e5760405162461bcd60e51b815260206004820152602a60248201527f4552433732313a2062616c616e636520717565727920666f7220746865207a6560448201527f726f20616464726573730000000000000000000000000000000000000000000060648201526084016109b2565b506001600160a01b03166000908152600a91909101602052604090205490565b60008181526009840160205260409020611fba84828533613680565b6040805183815233602082015234918101919091527f2d57124cfa4e385afd5cc9d6f24874bdd21303ac9131d7cb674be2a5855c7002906060015b60405180910390a150505050565b60008061201185858561347a565b91509150935093915050565b6060815167ffffffffffffffff81111561204757634e487b7160e01b600052604160045260246000fd5b60405190808252806020026020018201604052801561207a57816020015b60608152602001906001900390816120655790505b50905060005b825181101561212b576120ed84600c8584815181106120af57634e487b7160e01b600052603260045260246000fd5b6020908102919091010151901c610fff8685815181106120df57634e487b7160e01b600052603260045260246000fd5b602002602001015116613986565b82828151811061210d57634e487b7160e01b600052603260045260246000fd5b602002602001018190525080806121239061523d565b915050612080565b5092915050565b33612146866001600160a01b03841661155d565b6001600160a01b0316146121875760405162461bcd60e51b81526020600482015260086024820152674155433a54543a3360c01b60448201526064016109b2565b60008381526009860160209081526040808320858452600201909152812090806121b1838561304f565b604080518082018252600e8082527f73656c6c696e67546f6b656e49640000000000000000000000000000000000006020928301528251808401845260068152651a5d195b525960d21b90830152825180840184529081527f73656e64696e67546f6b656e49640000000000000000000000000000000000009082015281518083018352600881527f73776170446174610000000000000000000000000000000000000000000000009082015281518083018352600981527f6f66666572446174610000000000000000000000000000000000000000000000908201528151808301909252600782527f67656e65736973000000000000000000000000000000000000000000000000009101529092509050801580156122d657506122d68260ff1c90565b156122ed576122e88888888888611741565b6122fa565b6122fa88888888886126bf565b5050505050505050565b600061230f8361165c565b6000838152600986016020526040812091925090819061232f903361199f565b915091508383148015612340575081155b1561235657612350868686612391565b50612389565b8015801561236957506123698260ff1c90565b1561237e576123798686866128a8565b612389565b612389868686611f9e565b505050505050565b60008181526009840160205260408120816123ab8561165c565b90506000806123ba843361199f565b9150915085831461240d5760405162461bcd60e51b815260206004820152600660248201527f4e533a4d3a30000000000000000000000000000000000000000000000000000060448201526064016109b2565b811561245b5760405162461bcd60e51b815260206004820152600660248201527f4e533a4d3a44000000000000000000000000000000000000000000000000000060448201526064016109b2565b61247c34611ce43361246e600088613b10565b6001600160a01b0319161790565b50808555945061248d888789613b62565b61249988600134613ce5565b6040805184815233602082015264e8d4a5100065ffffffffffff60a889901c16600460ff60a08b901c16021b028183015290517f4e3883c75cc9c752bb1db2e406a822e4a75067ae77ad9a0a4d179f2709b9e1f69181900360600190a1505050509392505050565b60008181526008830160205260409020546001600160a01b03168061086a5760405162461bcd60e51b815260206004820152602c60248201527f4552433732313a207265736f6c76657220717565727920666f72206e6f6e657860448201526b34b9ba32b73a103a37b5b2b760a11b60648201526084016109b2565b600061086a826002015460c01c90565b60008281526009850160205260408120906125a78561165c565b90506000806125b7843387612003565b6000878152600187016020908152604080832033808552925282209190915591935091506125e7908383866134fa565b1561262357600084556126018260d81c640fffffffff1690565b85141561261857612613883388613dda565b61264b565b612613883388613ee7565b61264b60a882901c65ffffffffffff1660a083901c60ff166004021b64e8d4a5100002611e8f565b6040805187815260208101879052338183015290517fd79254e5daba749baa8ba954e77bbbb18efef113a8070d00df9a188d819324269181900360600190a15050505050505050565b6000606080806126a486866116aa565b93506126af84612c51565b9299919850965090945092505050565b61010082106127105760405162461bcd60e51b815260206004820152600760248201527f4d4c3a4f493a300000000000000000000000000000000000000000000000000060448201526064016109b2565b33612724866001600160a01b03841661155d565b6001600160a01b0316146127655760405162461bcd60e51b81526020600482015260086024820152674155433a54543a3360c01b60448201526064016109b2565b60008381526009860160209081526040808320858452600201909152902061278f86828785613680565b60408051858152602081018590526001600160a01b038416918101919091523460608201527fe237f23f900f35d5f1a406ba97ccfdffe082ffcda87098765811817c2c14ac8790608001611846565b60008281526009840160205260408120906127f9823361199f565b50905080156128345760405162461bcd60e51b815260206004820152600760248201526604e533a53533a360cc1b60448201526064016109b2565b61284f83611ce460016001600160a01b031985163317611cbd565b50808355905061286085338661401b565b604080518581523360208201529081018490527faffe6cd835bee10ff23fa9c38e9100afe3849748fd59bc6b4920867cf7f190e6906060015b60405180910390a15050505050565b600081815260098401602052604090206128c484828533612d60565b6040805183815233602082015234918101919091527f094925310677b39991f64178494fad708beb62f73f36bb0baa493476ecf5870990606001611ff5565b60006001600160c01b035b909116919050565b60008161292d576129288585856141c7565b610ce3565b610ce3858585614285565b6000601961294684846150c1565b611468919061508e565b60008061295d8343612938565b9050600061296b84836142d3565b9050600061297a6001836150c1565b409050806129ca5760405162461bcd60e51b815260206004820152600760248201527f4550433a53424c0000000000000000000000000000000000000000000000000060448201526064016109b2565b604080516020810183905290810184905230606090811b6bffffffffffffffffffffffff1916908201526074016040516020818303038152906040528051906020012060001c93505050915091565b600081612a6a5760405162461bcd60e51b81526004016109b29060208082526004908201527f7365656400000000000000000000000000000000000000000000000000000000604082015260600190565b6000612a7684826142eb565b610fff612a85601060006150a2565b612a90906004615051565b85901c16612a9e9190615278565b90506000612aad8560016142eb565b610fff612abc601060016150a2565b612ac7906004615051565b86901c16612ad59190615278565b90506000612ae48660026142eb565b610fff612af3601060026150a2565b612afe906004615051565b87901c16612b0c9190615278565b90506000612b20610100604588901c615278565b90506000610fff612b33601060036150a2565b612b3e906004615051565b88901c1690506060821015612b6d57612b588860036142eb565b612b629082615278565b613000179150612bdb565b60c0821015612b9657612b818860046142eb565b612b8b9082615278565b614000179150612bdb565b60fa821015612bbf57612baa8860056142eb565b612bb49082615278565b615000179150612bdb565b612bca8860066142eb565b612bd49082615278565b6160001791505b61100093909317926120009290921791600485901b612bfc601060016150a2565b612c07906004615051565b85901b612c16601060026150a2565b612c21906004615051565b85901b612c30601060036150a2565b612c3b906004615051565b85901b1717176004179550505050505092915050565b8060608080600f851667ffffffffffffffff811115612c8057634e487b7160e01b600052604160045260246000fd5b604051908082528060200260200182016040528015612ca9578160200160208202803683370190505b50925060005b8351811015612d125761ffff612cc68260106150a2565b612cd1906004615051565b87901c16848281518110612cf557634e487b7160e01b600052603260045260246000fd5b602090810291909101015280612d0a8161523d565b915050612caf565b50604080516008808252610120820190925290602082016101008036833750506040805160088082526101208201909252929450905060208201610100803683370190505090509193509193565b6000612d6b8361165c565b9050600080612d7a868561304f565b9150915060003411612dce5760405162461bcd60e51b815260206004820152600860248201527f534c3a434f4d3a3200000000000000000000000000000000000000000000000060448201526064016109b2565b80158015612ddb57508115155b612e125760405162461bcd60e51b81526020600482015260086024820152670534c3a48534f3a360c41b60448201526064016109b2565b612e1c8260ff1c90565b612e685760405162461bcd60e51b815260206004820152600860248201527f534c3a48534f3a3100000000000000000000000000000000000000000000000060448201526064016109b2565b6000612e75846001615051565b9050600080612e8c34611ce48961246e8588613b10565b909250905060a882901c65ffffffffffff1660a083901c60ff166004021b64e8d4a5100002612ee1606461271060a889901c65ffffffffffff1660a08a901c60ff166004021b64e8d4a51000025b91906141c7565b10612f195760405162461bcd60e51b815260206004820152600860248201526714d30e93d0940e8d60c21b60448201526064016109b2565b600083815260018a01602052604081208691826001600160a01b03168152602081019190915260400160002055818955612fa88160a887901c65ffffffffffff1660a088901c60ff166004021b64e8d4a510000260a885901c65ffffffffffff1660a086901c60ff166004021b64e8d4a5100002612f9791906150c1565b612fa19190615051565b8b90614307565b50505050505050505050565b600060208260018451612fc791906150c1565b81518110612fe557634e487b7160e01b600052603260045260246000fd5b6020026020010151901c6007169050919050565b60008061300684846142eb565b613011906001615051565b9050613032600c61302285826150a2565b60029190910a60001901901b1990565b8416915061304183600c6150a2565b81901b821791509250929050565b815460008115806130715750816001600160a01b0316836001600160a01b0316145b6130c35783600101600061308c8460d81c640fffffffff1690565b81526020019081526020016000206000846001600160a01b03166001600160a01b03168152602001908152602001600020546130c5565b815b90509250929050565b60006130dd8360020154612903565b9050818110156131195760405162461bcd60e51b81526020600482015260076024820152660534c3a53533a360cc1b60448201526064016109b2565b61315161312683836150c1565b60028501547fffffffffffffffff000000000000000000000000000000000000000000000000161790565b60028401556040518281527fbdcc962e6e9a15a82703d40f3f70edfdf76794d126c16f698732c7d60fdf37d6906020015b60405180910390a1505050565b600061319f836002015460c01c90565b9050818110156131db5760405162461bcd60e51b81526020600482015260076024820152660534c3a53533a360cc1b60448201526064016109b2565b6132006131e883836150c1565b60028501546001600160c01b031660c09190911b1790565b8360020181905550505050565b8047101561325d5760405162461bcd60e51b815260206004820152601d60248201527f416464726573733a20696e73756666696369656e742062616c616e636500000060448201526064016109b2565b6000826001600160a01b03168260405160006040518083038185875af1925050503d80600081146132aa576040519150601f19603f3d011682016040523d82523d6000602084013e6132af565b606091505b50509050806104635760405162461bcd60e51b815260206004820152603a60248201527f416464726573733a20756e61626c6520746f2073656e642076616c75652c207260448201527f6563697069656e74206d6179206861766520726576657274656400000000000060648201526084016109b2565b6000808264e8d4a51000840493505b65ffffffffffff841115613354576001830192508360041c9350613335565b828460081b1793508360081c836004021b64e8d4a5100081028203925050507fffffffffff00000000000000ffffffffffffffffffffffffffffffffffffffff841693508260a01b841791509250929050565b60006133b3848461439a565b9050806134025760405162461bcd60e51b815260206004820152600a60248201527f313135353a5354463a300000000000000000000000000000000000000000000060448201526064016109b2565b61340c81836143f8565b50506000848152600786016020908152604080832084905585835260058801909152812080549293509061343f8361523d565b909155505060408051848152602081018490527f54102016ac0e61f645ca7281e4637e190f3a25b89b05593d55ac3dbe2a54809e9101611ff5565b82546000826134908360d81c640fffffffff1690565b1461349c57600061349e565b815b915081158015906134c05750816001600160a01b0316846001600160a01b0316145b6134ee57600083815260018601602090815260408083206001600160a01b03881684529091529020546134f0565b815b9050935093915050565b6000826135495760405162461bcd60e51b815260206004820152600760248201527f534c3a43433a310000000000000000000000000000000000000000000000000060448201526064016109b2565b600061355c8560d81c640fffffffff1690565b8311905061356a8560ff1c90565b8061358e5750846001600160a01b0316866001600160a01b031614801561358e5750805b9150505b949350505050565b60006135a6848461439a565b60008381526005860160205260409020549091506136065760405162461bcd60e51b815260206004820152600b60248201527f313135353a534254463a3100000000000000000000000000000000000000000060448201526064016109b2565b60008281526005850160205260408120805491613622836151ce565b909155506136329050818361460a565b50600084815260078601602090815260409182902083905581518681529081018590529192507f452c5f777db10bd58f64d8bc58668d14487d008ff527ca431853ea22e195f1769101611ff5565b600061368b8361165c565b905060008061369a868561304f565b91509150600034116136ee5760405162461bcd60e51b815260206004820152600860248201527f534c3a4f42503a3200000000000000000000000000000000000000000000000060448201526064016109b2565b8161373b5760405162461bcd60e51b815260206004820152600660248201527f4e533a303a30000000000000000000000000000000000000000000000000000060448201526064016109b2565b6137458160ff1c90565b1561377d5760405162461bcd60e51b81526020600482015260086024820152670534c3a48534f3a360c41b60448201526064016109b2565b61378e8260d81c640fffffffff1690565b8311156137dd5760405162461bcd60e51b815260206004820152600860248201527f534c3a4f42503a3300000000000000000000000000000000000000000000000060448201526064016109b2565b6001600160a01b038416826001600160a01b031614613840578186600101600061380e8560d81c640fffffffff1690565b815260200190815260200160002060006138258590565b6001600160a01b031681526020810191909152604001600020555b60008061388f61386f3464e8d4a5100065ffffffffffff60a888901c16600460ff60a08a901c16021b02615051565b611ce48861246e6138878960d81c640fffffffff1690565b600090613b10565b909250905060a882901c65ffffffffffff1660a083901c60ff166004021b64e8d4a51000026138e1606461271060a888901c65ffffffffffff1660a089901c60ff166004021b64e8d4a5100002612eda565b106139195760405162461bcd60e51b815260206004820152600860248201526714d30e93d0940e8d60c21b60448201526064016109b2565b81885561397b8160a886901c65ffffffffffff1660a087901c60ff166004021b64e8d4a510000260a885901c65ffffffffffff1660a086901c60ff166004021b64e8d4a510000261396a91906150c1565b6139749190615051565b8a90614307565b505050505050505050565b60008281526020848152604080832084845282528083208380529091528120546060916139b38260fa1c90565b604080518082018252600481527f7a65726f0000000000000000000000000000000000000000000000000000000060209182015281518083018352600681527f6c656e6774680000000000000000000000000000000000000000000000000000908201528151808301909252600282527f696400000000000000000000000000000000000000000000000000000000000091015290508067ffffffffffffffff811115613a7057634e487b7160e01b600052604160045260246000fd5b604051908082528060200260200182016040528015613a99578160200160208202803683370190505b50925060005b81811015613b065760008681526020888152604080832088845282528083208484529091529020548451859083908110613ae957634e487b7160e01b600052603260045260246000fd5b602090810291909101015280613afe8161523d565b915050613a9f565b5050509392505050565b6000640fffffffff821115613b3557634e487b7160e01b600052600160045260246000fd5b5060d81b7ff000000000ffffffffffffffffffffffffffffffffffffffffffffffffffffff919091161790565b600082815260078401602052604090205415613bc05760405162461bcd60e51b815260206004820152600660248201527f494c3a4d3a30000000000000000000000000000000000000000000000000000060448201526064016109b2565b600080613bcc83612950565b915091508160001415613c215760405162461bcd60e51b815260206004820152600a60248201527f3732313a4d494e543a300000000000000000000000000000000000000000000060448201526064016109b2565b838114613c705760405162461bcd60e51b815260206004820152600a60248201527f3732313a4d494e543a310000000000000000000000000000000000000000000060448201526064016109b2565b6004850154613c7f8184612a19565b60008681526007880160205260408120829055909350613c9e84612c51565b50509150507fd87057411cb55112f14c449d8a1d511f40497de1622dfafdae3d500fe0d390f78682604051613cd4929190614f2b565b60405180910390a150505050505050565b67ffffffffffffffff82108015613d0257506001600160c01b0381105b613d385760405162461bcd60e51b81526020600482015260076024820152660534c3a53533a360cc1b60448201526064016109b2565b600080613d4885600201546146f6565b9092509050613da5613d5a8483615051565b613d7f613d678786615051565b60028901546001600160c01b031660c09190911b1790565b7fffffffffffffffff000000000000000000000000000000000000000000000000161790565b60028601556040518381527fff53ef9548303b7a073c53f7791adb262240a1559282d17052a443f091bb495690602001612899565b613df530838360405180602001604052806000815250614715565b613e5b5760405162461bcd60e51b815260206004820152603160248201527f4552433732313a207472616e736665722063616c6c6572206973206e6f74206f6044820152701ddb995c881b9bdc88185c1c1c9bdd9959607a1b60648201526084016109b2565b6001600160a01b0382166000908152600a840160205260408120805460019290613e86908490615051565b9091555050600081815260068401602052604080822080546001600160a01b0319166001600160a01b03861690811790915590518392907fddf252ad1be2c89b69c2b068fc378daa952ba7f163c4a11628f55a4df523b3ef908290a4505050565b613f0230838360405180602001604052806000815250614715565b613f685760405162461bcd60e51b815260206004820152603160248201527f4552433732313a207472616e736665722063616c6c6572206973206e6f74206f6044820152701ddb995c881b9bdc88185c1c1c9bdd9959607a1b60648201526084016109b2565b306000908152600a840160205260408120805460019290613f8a9084906150c1565b90915550506001600160a01b0382166000908152600a840160205260408120805460019290613fba908490615051565b9091555050600081815260068401602052604080822080546001600160a01b0319166001600160a01b0386169081179091559051839230917fddf252ad1be2c89b69c2b068fc378daa952ba7f163c4a11628f55a4df523b3ef9190a4505050565b614025838261155d565b6001600160a01b0316336001600160a01b031614801561404d57506001600160a01b03821633145b801561406a57503061405f84836114c2565b6001600160a01b0316145b6140d05760405162461bcd60e51b815260206004820152603160248201527f4552433732313a207472616e736665722063616c6c6572206973206e6f74206f6044820152701ddb995c881b9bdc88185c1c1c9bdd9959607a1b60648201526084016109b2565b6001600160a01b0382166000908152600a8401602052604081208054600192906140fb9084906150c1565b9091555050306000908152600a840160205260408120805460019290614122908490615051565b9091555050600081815260068401602090815260408083208054306001600160a01b03199182168117909255600b8801909352818420805490931690925551839291907f8c5be1e5ebec7d5bd14f71427d1e84f3dd0314c0f7b2291e5b200ac8c7c3b925908390a4604051819030906001600160a01b038516907fddf252ad1be2c89b69c2b068fc378daa952ba7f163c4a11628f55a4df523b3ef90600090a4505050565b60008080600019858709858702925082811083820303915050806000141561420157600084116141f657600080fd5b508290049050611468565b80841161420d57600080fd5b600084868809808403938111909203919050600061422d86196001615051565b8616958690049560026003880281188089028203028089028203028089028203028089028203028089028203028089029091030260008290038290046001019490940294049390931791909102925050509392505050565b60006142928484846141c7565b9050600082806142b257634e487b7160e01b600052601260045260246000fd5b84860911156114685760001981106142c957600080fd5b80610ce38161523d565b6000826142e16019846150a2565b6114689190615051565b6000610fff6142fb83600c6150a2565b84901c16905092915050565b6001600160c01b0381106143475760405162461bcd60e51b81526020600482015260076024820152660534c3a53533a360cc1b60448201526064016109b2565b60006143568360020154612903565b90506143656131268383615051565b60028401556040518281527fff53ef9548303b7a073c53f7791adb262240a1559282d17052a443f091bb495690602001613182565b60008181526007830160205260409020548061086a5760405162461bcd60e51b815260206004820152600a60248201527f50524f4f463a504f3a300000000000000000000000000000000000000000000060448201526064016109b2565b60008060008061440786614875565b905061445061441587614875565b6040518060400160405280600c81526020017f6974656d7328696e707574290000000000000000000000000000000000000000815250614939565b60005b81518160ff1610156144b9578561ffff16828260ff168151811061448757634e487b7160e01b600052603260045260246000fd5b602002602001015114156144a7576144a0816001615069565b92506144b9565b806144b181615258565b915050614453565b5060408051808201825260058082527f696e7075740000000000000000000000000000000000000000000000000000006020928301528251808401845260068152651a5d195b525960d21b90830152825180840190935282527f696e64657800000000000000000000000000000000000000000000000000000091015260008260ff16116145895760405162461bcd60e51b815260206004820152600860248201527f534c3a50464d3a3000000000000000000000000000000000000000000000000060448201526064016109b2565b81614593816151e5565b61ffff6004601083020181811b198a16975089901c95509093508681169085161490506146025760405162461bcd60e51b815260206004820152600860248201527f534c3a50464d3a3100000000000000000000000000000000000000000000000060448201526064016109b2565b509250925092565b600080600061461885614875565b905060005b81518160ff16101561468057818160ff168151811061464c57634e487b7160e01b600052603260045260246000fd5b60200260200101516000141561466e57614667816001615069565b9250614680565b8061467881615258565b91505061461d565b5060008260ff16116146d45760405162461bcd60e51b815260206004820152600860248201527f534c3a50464d3a4100000000000000000000000000000000000000000000000060448201526064016109b2565b816146de816151e5565b600460108202019590951b9590951795939450505050565b6000806147038360c01c90565b915061470e81612903565b9050915091565b60006001600160a01b0384163b1561486d57604051630a85bd0160e11b81526001600160a01b0385169063150b7a0290614759903390899088908890600401614e4a565b602060405180830381600087803b15801561477357600080fd5b505af19250505080156147a3575060408051601f3d908101601f191682019092526147a091810190614c1f565b60015b614853573d8080156147d1576040519150601f19603f3d011682016040523d82523d6000602084013e6147d6565b606091505b50805161484b5760405162461bcd60e51b815260206004820152603260248201527f4552433732313a207472616e7366657220746f206e6f6e20455243373231526560448201527f63656976657220696d706c656d656e746572000000000000000000000000000060648201526084016109b2565b805181602001fd5b6001600160e01b031916630a85bd0160e11b149050613592565b506001613592565b6060600061488283614957565b90508067ffffffffffffffff8111156148ab57634e487b7160e01b600052604160045260246000fd5b6040519080825280602002602001820160405280156148d4578160200160208202803683370190505b509150600483901c925060005b81811015614932578361ffff1683828151811061490e57634e487b7160e01b600052603260045260246000fd5b602090810291909101015260109390931c928061492a8161523d565b9150506148e1565b5050919050565b60005b8251811015610463578061494f8161523d565b91505061493c565b6000600f61290e565b80356001600160a01b038116811461497757600080fd5b919050565b60006020828403121561498d578081fd5b61146882614960565b600080604083850312156149a8578081fd5b6149b183614960565b91506130c560208401614960565b6000806000606084860312156149d3578081fd5b6149dc84614960565b92506149ea60208501614960565b9150604084013590509250925092565b60008060008060808587031215614a0f578081fd5b614a1885614960565b9350614a2660208601614960565b925060408501359150606085013567ffffffffffffffff811115614a48578182fd5b8501601f81018713614a58578182fd5b8035614a6b614a6682615029565b614fd4565b818152886020838501011115614a7f578384fd5b81602084016020830137908101602001929092525092959194509250565b60008060408385031215614aaf578182fd5b614ab883614960565b915060208301358015158114614acc578182fd5b809150509250929050565b60008060408385031215614ae9578182fd5b614af283614960565b946020939093013593505050565b60008060208385031215614b12578081fd5b823567ffffffffffffffff80821115614b29578283fd5b818501915085601f830112614b3c578283fd5b813581811115614b4a578384fd5b8660208260051b8501011115614b5e578384fd5b60209290920196919550909350505050565b60006020808385031215614b82578182fd5b825167ffffffffffffffff811115614b98578283fd5b8301601f81018513614ba8578283fd5b8051614bb6614a6682615005565b80828252848201915084840188868560051b8701011115614bd5578687fd5b8694505b83851015614bf7578051835260019490940193918501918501614bd9565b50979650505050505050565b600060208284031215614c14578081fd5b8135611468816152ce565b600060208284031215614c30578081fd5b8151611468816152ce565b600060208284031215614c4c578081fd5b815167ffffffffffffffff811115614c62578182fd5b8201601f81018413614c72578182fd5b8051614c80614a6682615029565b818152856020838501011115614c94578384fd5b610ce38260208301602086016151a2565b600060208284031215614cb6578081fd5b5035919050565b60008060408385031215614ccf578182fd5b823591506130c560208401614960565b60008060408385031215614cf1578182fd5b50508035926020909101359150565b600080600060608486031215614d14578081fd5b8335925060208401359150614d2b60408501614960565b90509250925092565b600080600060608486031215614d48578081fd5b505081359360208301359350604090920135919050565b60008060008060808587031215614d74578182fd5b5050823594602084013594506040840135936060013592509050565b600081518084526020808501808196508360051b81019150828601855b85811015614dd7578284038952614dc5848351614de4565b98850198935090840190600101614dad565b5091979650505050505050565b6000815180845260208085019450808401835b83811015614e1357815187529582019590820190600101614df7565b509495945050505050565b60008151808452614e368160208601602086016151a2565b601f01601f19169290920160200192915050565b60006001600160a01b0380871683528086166020840152508360408301526080606083015261127a6080830184614e1e565b606081526000614e8f6060830186614d90565b8281036020840152614ea18186614e1e565b9050828103604084015261358e8185614e1e565b606081526000614ec86060830185614d90565b8281036020840152614eda8185614e1e565b83810360409094019390935250815260200192915050565b6020815260006114686020830184614de4565b606081526000614e8f6060830186614de4565b6020815260006114686020830184614e1e565b8281526040602082015260006135926040830184614de4565b848152608060208201526000614f5d6080830186614de4565b8281036040840152614f6f8186614de4565b9150506001600160a01b038316606083015295945050505050565b848152608060208201526000614fa36080830186614de4565b8281036040840152614fb58186614de4565b90508281036060840152614fc98185614de4565b979650505050505050565b604051601f8201601f1916810167ffffffffffffffff81118282101715614ffd57614ffd6152b8565b604052919050565b600067ffffffffffffffff82111561501f5761501f6152b8565b5060051b60200190565b600067ffffffffffffffff821115615043576150436152b8565b50601f01601f191660200190565b600082198211156150645761506461528c565b500190565b600060ff821660ff84168060ff038211156150865761508661528c565b019392505050565b60008261509d5761509d6152a2565b500490565b60008160001904831182151516156150bc576150bc61528c565b500290565b6000828210156150d3576150d361528c565b500390565b60006150e6614a6684615005565b838152602080820191908460053688821b83011115615103578586fd5b855b8881101561519557823567ffffffffffffffff811115615123578788fd5b880136601f820112615133578788fd5b8035615141614a6682615005565b818152868101908388013684881b86018a01111561515d578b8cfd5b8b94505b8385101561517f578035835260019490940193918801918801615161565b5089525050509483019491830191600101615105565b5092979650505050505050565b60005b838110156151bd5781810151838201526020016151a5565b838111156106e25750506000910152565b6000816151dd576151dd61528c565b506000190190565b600060ff8216806151f8576151f861528c565b6000190192915050565b600181811c9082168061521657607f821691505b6020821081141561523757634e487b7160e01b600052602260045260246000fd5b50919050565b60006000198214156152515761525161528c565b5060010190565b600060ff821660ff81141561526f5761526f61528c565b60010192915050565b600082615287576152876152a2565b500690565b634e487b7160e01b600052601160045260246000fd5b634e487b7160e01b600052601260045260246000fd5b634e487b7160e01b600052604160045260246000fd5b6001600160e01b031981168114610bdf57600080fdfea2646970667358221220d4a6d952577b607753f8a5689aa6ab40da18458d8d3378e0de9a48bdc09d768464736f6c63430008040033",
  "devdoc": {
    "kind": "dev",
    "methods": {
      "approve(address,uint256)": {
        "details": "See {IERC721-approve}."
      },
      "balanceOf(address)": {
        "details": "See {IERC721-_}."
      },
      "burn(uint256)": {
        "details": "Destroys `tokenId`. The approval is cleared when the token is burned. Requirements: - `tokenId` must exist. Emits a {Transfer} event."
      },
      "getApproved(uint256)": {
        "details": "See {IERC721-getApproved}."
      },
      "isApprovedForAll(address,address)": {
        "details": "See {IERC721-isApprovedForAll}."
      },
      "name()": {
        "details": "See {IERC721Metadata-name}."
      },
      "ownerOf(uint256)": {
        "details": "See {IERC721-ownerOf}."
      },
      "parsedProofOf(uint256)": {
        "details": "See {IERC721-_}."
      },
      "proofOf(uint256)": {
        "details": "See {IERC721-_}."
      },
      "resolverOf(uint256)": {
        "details": "See {IERC721-_}."
      },
      "safeTransferFrom(address,address,uint256)": {
        "details": "See {IERC721-safeTransferFrom}."
      },
      "safeTransferFrom(address,address,uint256,bytes)": {
        "details": "See {IERC721-safeTransferFrom}."
      },
      "setApprovalForAll(address,bool)": {
        "details": "See {IERC721-setApprovalForAll}."
      },
      "supportsInterface(bytes4)": {
        "details": "See {IERC165-supportsInterface}."
      },
      "symbol()": {
        "details": "See {IERC721Metadata-symbol}."
      },
      "transferFrom(address,address,uint256)": {
        "details": "See {IERC721-transferFrom}."
      }
    },
    "version": 1
  },
  "userdoc": {
    "kind": "user",
    "methods": {},
    "version": 1
  },
  "storageLayout": {
    "storage": [
      {
        "astId": 814,
        "contract": "contracts/src/NuggFT.sol:NuggFT",
        "label": "_nuggft",
        "offset": 0,
        "slot": "0",
        "type": "t_struct(Storage)5443_storage"
      }
    ],
    "types": {
      "t_address": {
        "encoding": "inplace",
        "label": "address",
        "numberOfBytes": "20"
      },
      "t_bool": {
        "encoding": "inplace",
        "label": "bool",
        "numberOfBytes": "1"
      },
      "t_mapping(t_address,t_bool)": {
        "encoding": "mapping",
        "key": "t_address",
        "label": "mapping(address => bool)",
        "numberOfBytes": "32",
        "value": "t_bool"
      },
      "t_mapping(t_address,t_mapping(t_address,t_bool))": {
        "encoding": "mapping",
        "key": "t_address",
        "label": "mapping(address => mapping(address => bool))",
        "numberOfBytes": "32",
        "value": "t_mapping(t_address,t_bool)"
      },
      "t_mapping(t_address,t_uint256)": {
        "encoding": "mapping",
        "key": "t_address",
        "label": "mapping(address => uint256)",
        "numberOfBytes": "32",
        "value": "t_uint256"
      },
      "t_mapping(t_uint160,t_uint256)": {
        "encoding": "mapping",
        "key": "t_uint160",
        "label": "mapping(uint160 => uint256)",
        "numberOfBytes": "32",
        "value": "t_uint256"
      },
      "t_mapping(t_uint256,t_address)": {
        "encoding": "mapping",
        "key": "t_uint256",
        "label": "mapping(uint256 => address)",
        "numberOfBytes": "32",
        "value": "t_address"
      },
      "t_mapping(t_uint256,t_mapping(t_uint160,t_uint256))": {
        "encoding": "mapping",
        "key": "t_uint256",
        "label": "mapping(uint256 => mapping(uint160 => uint256))",
        "numberOfBytes": "32",
        "value": "t_mapping(t_uint160,t_uint256)"
      },
      "t_mapping(t_uint256,t_mapping(t_uint256,t_mapping(t_uint256,t_uint256)))": {
        "encoding": "mapping",
        "key": "t_uint256",
        "label": "mapping(uint256 => mapping(uint256 => mapping(uint256 => uint256)))",
        "numberOfBytes": "32",
        "value": "t_mapping(t_uint256,t_mapping(t_uint256,t_uint256))"
      },
      "t_mapping(t_uint256,t_mapping(t_uint256,t_uint256))": {
        "encoding": "mapping",
        "key": "t_uint256",
        "label": "mapping(uint256 => mapping(uint256 => uint256))",
        "numberOfBytes": "32",
        "value": "t_mapping(t_uint256,t_uint256)"
      },
      "t_mapping(t_uint256,t_struct(History)3410_storage)": {
        "encoding": "mapping",
        "key": "t_uint256",
        "label": "mapping(uint256 => struct Swap.History)",
        "numberOfBytes": "32",
        "value": "t_struct(History)3410_storage"
      },
      "t_mapping(t_uint256,t_struct(Storage)3419_storage)": {
        "encoding": "mapping",
        "key": "t_uint256",
        "label": "mapping(uint256 => struct Swap.Storage)",
        "numberOfBytes": "32",
        "value": "t_struct(Storage)3419_storage"
      },
      "t_mapping(t_uint256,t_uint256)": {
        "encoding": "mapping",
        "key": "t_uint256",
        "label": "mapping(uint256 => uint256)",
        "numberOfBytes": "32",
        "value": "t_uint256"
      },
      "t_string_storage": {
        "encoding": "bytes",
        "label": "string",
        "numberOfBytes": "32"
      },
      "t_struct(History)3410_storage": {
        "encoding": "inplace",
        "label": "struct Swap.History",
        "members": [
          {
            "astId": 3404,
            "contract": "contracts/src/NuggFT.sol:NuggFT",
            "label": "self",
            "offset": 0,
            "slot": "0",
            "type": "t_struct(Storage)3419_storage"
          },
          {
            "astId": 3409,
            "contract": "contracts/src/NuggFT.sol:NuggFT",
            "label": "items",
            "offset": 0,
            "slot": "2",
            "type": "t_mapping(t_uint256,t_struct(Storage)3419_storage)"
          }
        ],
        "numberOfBytes": "96"
      },
      "t_struct(Storage)3419_storage": {
        "encoding": "inplace",
        "label": "struct Swap.Storage",
        "members": [
          {
            "astId": 3412,
            "contract": "contracts/src/NuggFT.sol:NuggFT",
            "label": "data",
            "offset": 0,
            "slot": "0",
            "type": "t_uint256"
          },
          {
            "astId": 3418,
            "contract": "contracts/src/NuggFT.sol:NuggFT",
            "label": "offers",
            "offset": 0,
            "slot": "1",
            "type": "t_mapping(t_uint256,t_mapping(t_uint160,t_uint256))"
          }
        ],
        "numberOfBytes": "64"
      },
      "t_struct(Storage)5443_storage": {
        "encoding": "inplace",
        "label": "struct Token.Storage",
        "members": [
          {
            "astId": 5400,
            "contract": "contracts/src/NuggFT.sol:NuggFT",
            "label": "_name",
            "offset": 0,
            "slot": "0",
            "type": "t_string_storage"
          },
          {
            "astId": 5402,
            "contract": "contracts/src/NuggFT.sol:NuggFT",
            "label": "_symbol",
            "offset": 0,
            "slot": "1",
            "type": "t_string_storage"
          },
          {
            "astId": 5404,
            "contract": "contracts/src/NuggFT.sol:NuggFT",
            "label": "_stake",
            "offset": 0,
            "slot": "2",
            "type": "t_uint256"
          },
          {
            "astId": 5407,
            "contract": "contracts/src/NuggFT.sol:NuggFT",
            "label": "_vault",
            "offset": 0,
            "slot": "3",
            "type": "t_struct(Storage)6626_storage"
          },
          {
            "astId": 5411,
            "contract": "contracts/src/NuggFT.sol:NuggFT",
            "label": "_ownedItems",
            "offset": 0,
            "slot": "5",
            "type": "t_mapping(t_uint256,t_uint256)"
          },
          {
            "astId": 5415,
            "contract": "contracts/src/NuggFT.sol:NuggFT",
            "label": "_owners",
            "offset": 0,
            "slot": "6",
            "type": "t_mapping(t_uint256,t_address)"
          },
          {
            "astId": 5419,
            "contract": "contracts/src/NuggFT.sol:NuggFT",
            "label": "_proofs",
            "offset": 0,
            "slot": "7",
            "type": "t_mapping(t_uint256,t_uint256)"
          },
          {
            "astId": 5423,
            "contract": "contracts/src/NuggFT.sol:NuggFT",
            "label": "_resolvers",
            "offset": 0,
            "slot": "8",
            "type": "t_mapping(t_uint256,t_address)"
          },
          {
            "astId": 5428,
            "contract": "contracts/src/NuggFT.sol:NuggFT",
            "label": "_swaps",
            "offset": 0,
            "slot": "9",
            "type": "t_mapping(t_uint256,t_struct(History)3410_storage)"
          },
          {
            "astId": 5432,
            "contract": "contracts/src/NuggFT.sol:NuggFT",
            "label": "_balances",
            "offset": 0,
            "slot": "10",
            "type": "t_mapping(t_address,t_uint256)"
          },
          {
            "astId": 5436,
            "contract": "contracts/src/NuggFT.sol:NuggFT",
            "label": "_tokenApprovals",
            "offset": 0,
            "slot": "11",
            "type": "t_mapping(t_uint256,t_address)"
          },
          {
            "astId": 5442,
            "contract": "contracts/src/NuggFT.sol:NuggFT",
            "label": "_operatorApprovals",
            "offset": 0,
            "slot": "12",
            "type": "t_mapping(t_address,t_mapping(t_address,t_bool))"
          }
        ],
        "numberOfBytes": "416"
      },
      "t_struct(Storage)6626_storage": {
        "encoding": "inplace",
        "label": "struct Vault.Storage",
        "members": [
          {
            "astId": 6623,
            "contract": "contracts/src/NuggFT.sol:NuggFT",
            "label": "items",
            "offset": 0,
            "slot": "0",
            "type": "t_mapping(t_uint256,t_mapping(t_uint256,t_mapping(t_uint256,t_uint256)))"
          },
          {
            "astId": 6625,
            "contract": "contracts/src/NuggFT.sol:NuggFT",
            "label": "lengthData",
            "offset": 0,
            "slot": "1",
            "type": "t_uint256"
          }
        ],
        "numberOfBytes": "64"
      },
      "t_uint160": {
        "encoding": "inplace",
        "label": "uint160",
        "numberOfBytes": "20"
      },
      "t_uint256": {
        "encoding": "inplace",
        "label": "uint256",
        "numberOfBytes": "32"
      }
    }
  }
}