{
  "address": "0xEa71B205D6B29224d945a905Af7A25f9E9EF4f3A",
  "abi": [
    {
      "inputs": [],
      "stateMutability": "nonpayable",
      "type": "constructor"
    },
    {
      "anonymous": false,
      "inputs": [
        {
          "indexed": true,
          "internalType": "address",
          "name": "owner",
          "type": "address"
        },
        {
          "indexed": true,
          "internalType": "address",
          "name": "spender",
          "type": "address"
        },
        {
          "indexed": false,
          "internalType": "uint256",
          "name": "value",
          "type": "uint256"
        }
      ],
      "name": "Approval",
      "type": "event"
    },
    {
      "anonymous": false,
      "inputs": [
        {
          "indexed": true,
          "internalType": "address",
          "name": "account",
          "type": "address"
        },
        {
          "indexed": false,
          "internalType": "address",
          "name": "sender",
          "type": "address"
        },
        {
          "indexed": false,
          "internalType": "uint256",
          "name": "amount",
          "type": "uint256"
        }
      ],
      "name": "Realize",
      "type": "event"
    },
    {
      "anonymous": false,
      "inputs": [
        {
          "indexed": true,
          "internalType": "address",
          "name": "sender",
          "type": "address"
        },
        {
          "indexed": false,
          "internalType": "uint256",
          "name": "amount",
          "type": "uint256"
        }
      ],
      "name": "RoyaltyAdd",
      "type": "event"
    },
    {
      "anonymous": false,
      "inputs": [
        {
          "indexed": true,
          "internalType": "address",
          "name": "account",
          "type": "address"
        },
        {
          "indexed": false,
          "internalType": "address",
          "name": "sender",
          "type": "address"
        },
        {
          "indexed": false,
          "internalType": "uint256",
          "name": "amount",
          "type": "uint256"
        }
      ],
      "name": "ShareAdd",
      "type": "event"
    },
    {
      "anonymous": false,
      "inputs": [
        {
          "indexed": true,
          "internalType": "address",
          "name": "account",
          "type": "address"
        },
        {
          "indexed": false,
          "internalType": "address",
          "name": "sender",
          "type": "address"
        },
        {
          "indexed": false,
          "internalType": "uint256",
          "name": "amount",
          "type": "uint256"
        }
      ],
      "name": "ShareSub",
      "type": "event"
    },
    {
      "anonymous": false,
      "inputs": [
        {
          "indexed": true,
          "internalType": "address",
          "name": "from",
          "type": "address"
        },
        {
          "indexed": true,
          "internalType": "address",
          "name": "to",
          "type": "address"
        },
        {
          "indexed": false,
          "internalType": "uint256",
          "name": "value",
          "type": "uint256"
        }
      ],
      "name": "Transfer",
      "type": "event"
    },
    {
      "inputs": [
        {
          "internalType": "address",
          "name": "account",
          "type": "address"
        },
        {
          "internalType": "uint256",
          "name": "amount",
          "type": "uint256"
        }
      ],
      "name": "_supplyOfBefore",
      "outputs": [
        {
          "internalType": "uint256",
          "name": "res",
          "type": "uint256"
        }
      ],
      "stateMutability": "view",
      "type": "function"
    },
    {
      "inputs": [
        {
          "internalType": "address",
          "name": "owner",
          "type": "address"
        },
        {
          "internalType": "address",
          "name": "spender",
          "type": "address"
        }
      ],
      "name": "allowance",
      "outputs": [
        {
          "internalType": "uint256",
          "name": "",
          "type": "uint256"
        }
      ],
      "stateMutability": "view",
      "type": "function"
    },
    {
      "inputs": [
        {
          "internalType": "address",
          "name": "spender",
          "type": "address"
        },
        {
          "internalType": "uint256",
          "name": "amount",
          "type": "uint256"
        }
      ],
      "name": "approve",
      "outputs": [
        {
          "internalType": "bool",
          "name": "",
          "type": "bool"
        }
      ],
      "stateMutability": "nonpayable",
      "type": "function"
    },
    {
      "inputs": [
        {
          "internalType": "address",
          "name": "from",
          "type": "address"
        }
      ],
      "name": "balanceOf",
      "outputs": [
        {
          "internalType": "uint256",
          "name": "res",
          "type": "uint256"
        }
      ],
      "stateMutability": "view",
      "type": "function"
    },
    {
      "inputs": [
        {
          "internalType": "address",
          "name": "from",
          "type": "address"
        }
      ],
      "name": "balanceOfMinted",
      "outputs": [
        {
          "internalType": "uint256",
          "name": "res",
          "type": "uint256"
        }
      ],
      "stateMutability": "view",
      "type": "function"
    },
    {
      "inputs": [],
      "name": "decimals",
      "outputs": [
        {
          "internalType": "uint8",
          "name": "",
          "type": "uint8"
        }
      ],
      "stateMutability": "view",
      "type": "function"
    },
    {
      "inputs": [
        {
          "internalType": "address",
          "name": "spender",
          "type": "address"
        },
        {
          "internalType": "uint256",
          "name": "subtractedValue",
          "type": "uint256"
        }
      ],
      "name": "decreaseAllowance",
      "outputs": [
        {
          "internalType": "bool",
          "name": "",
          "type": "bool"
        }
      ],
      "stateMutability": "nonpayable",
      "type": "function"
    },
    {
      "inputs": [],
      "name": "deposit",
      "outputs": [],
      "stateMutability": "payable",
      "type": "function"
    },
    {
      "inputs": [
        {
          "internalType": "address",
          "name": "spender",
          "type": "address"
        },
        {
          "internalType": "uint256",
          "name": "addedValue",
          "type": "uint256"
        }
      ],
      "name": "increaseAllowance",
      "outputs": [
        {
          "internalType": "bool",
          "name": "",
          "type": "bool"
        }
      ],
      "stateMutability": "nonpayable",
      "type": "function"
    },
    {
      "inputs": [],
      "name": "name",
      "outputs": [
        {
          "internalType": "string",
          "name": "",
          "type": "string"
        }
      ],
      "stateMutability": "view",
      "type": "function"
    },
    {
      "inputs": [],
      "name": "nuggGet",
      "outputs": [],
      "stateMutability": "nonpayable",
      "type": "function"
    },
    {
      "inputs": [],
      "name": "nuggSet",
      "outputs": [],
      "stateMutability": "nonpayable",
      "type": "function"
    },
    {
      "inputs": [
        {
          "internalType": "address",
          "name": "operator",
          "type": "address"
        },
        {
          "internalType": "address",
          "name": "from",
          "type": "address"
        },
        {
          "internalType": "address",
          "name": "token",
          "type": "address"
        },
        {
          "internalType": "uint256",
          "name": "tokenId",
          "type": "uint256"
        },
        {
          "internalType": "address",
          "name": "erc20",
          "type": "address"
        },
        {
          "internalType": "uint256",
          "name": "amount",
          "type": "uint256"
        },
        {
          "internalType": "bytes",
          "name": "data",
          "type": "bytes"
        }
      ],
      "name": "onERC2981Received",
      "outputs": [
        {
          "internalType": "bytes4",
          "name": "",
          "type": "bytes4"
        }
      ],
      "stateMutability": "payable",
      "type": "function"
    },
    {
      "inputs": [
        {
          "internalType": "address",
          "name": "account",
          "type": "address"
        }
      ],
      "name": "ownershipOfX128",
      "outputs": [
        {
          "internalType": "uint256",
          "name": "res",
          "type": "uint256"
        }
      ],
      "stateMutability": "view",
      "type": "function"
    },
    {
      "inputs": [
        {
          "internalType": "address",
          "name": "account",
          "type": "address"
        }
      ],
      "name": "sharesOf",
      "outputs": [
        {
          "internalType": "uint256",
          "name": "res",
          "type": "uint256"
        }
      ],
      "stateMutability": "view",
      "type": "function"
    },
    {
      "inputs": [
        {
          "internalType": "address",
          "name": "account",
          "type": "address"
        }
      ],
      "name": "supplyOf",
      "outputs": [
        {
          "internalType": "uint256",
          "name": "res",
          "type": "uint256"
        }
      ],
      "stateMutability": "view",
      "type": "function"
    },
    {
      "inputs": [],
      "name": "symbol",
      "outputs": [
        {
          "internalType": "string",
          "name": "",
          "type": "string"
        }
      ],
      "stateMutability": "view",
      "type": "function"
    },
    {
      "inputs": [],
      "name": "totalShares",
      "outputs": [
        {
          "internalType": "uint256",
          "name": "res",
          "type": "uint256"
        }
      ],
      "stateMutability": "view",
      "type": "function"
    },
    {
      "inputs": [],
      "name": "totalSupply",
      "outputs": [
        {
          "internalType": "uint256",
          "name": "res",
          "type": "uint256"
        }
      ],
      "stateMutability": "view",
      "type": "function"
    },
    {
      "inputs": [],
      "name": "totalSupplyMinted",
      "outputs": [
        {
          "internalType": "uint256",
          "name": "res",
          "type": "uint256"
        }
      ],
      "stateMutability": "view",
      "type": "function"
    },
    {
      "inputs": [
        {
          "internalType": "address",
          "name": "recipient",
          "type": "address"
        },
        {
          "internalType": "uint256",
          "name": "amount",
          "type": "uint256"
        }
      ],
      "name": "transfer",
      "outputs": [
        {
          "internalType": "bool",
          "name": "",
          "type": "bool"
        }
      ],
      "stateMutability": "nonpayable",
      "type": "function"
    },
    {
      "inputs": [
        {
          "internalType": "address",
          "name": "sender",
          "type": "address"
        },
        {
          "internalType": "address",
          "name": "recipient",
          "type": "address"
        },
        {
          "internalType": "uint256",
          "name": "amount",
          "type": "uint256"
        }
      ],
      "name": "transferFrom",
      "outputs": [
        {
          "internalType": "bool",
          "name": "",
          "type": "bool"
        }
      ],
      "stateMutability": "nonpayable",
      "type": "function"
    },
    {
      "inputs": [],
      "name": "tummy",
      "outputs": [
        {
          "internalType": "address",
          "name": "",
          "type": "address"
        }
      ],
      "stateMutability": "view",
      "type": "function"
    },
    {
      "inputs": [
        {
          "internalType": "uint256",
          "name": "amount",
          "type": "uint256"
        }
      ],
      "name": "withdraw",
      "outputs": [],
      "stateMutability": "nonpayable",
      "type": "function"
    }
  ],
  "transactionHash": "0xa1d6fff8ab7855528d365aebef39a04badbd2a7104b2b33bba3a3e8a0f2f85b0",
  "args": [],
  "solcInputHash": "88c6ca31fdeae79ad2aae7c6b1069606",
  "bytecode": "0x60a06040526001805460ff191690553480156200001b57600080fd5b506040518060400160405280600b81526020016a5374616b6564204e55474760a81b81525060405180604001604052806005815260200164784e55474760d81b8152506200006e6200014660201b60201c565b516000805460ff191660ff9092169190911790556200008a4690565b6001146200009f576001805460ff1916811790555b8151620000b490600590602085019062000165565b508051620000ca90600690602084019062000165565b505050604051620000db90620001f4565b604051809103906000f080158015620000f8573d6000803e3d6000fd5b5060601b6001600160601b0319166080526200012c6040805160208082018352600090915281519081019091526001815290565b51600a805460ff191660ff90921691909117905562000256565b6040805160208082018352600090915281519081019091526001815290565b828054620001739062000219565b90600052602060002090601f016020900481019282620001975760008555620001e2565b82601f10620001b257805160ff1916838001178555620001e2565b82800160010185558215620001e2579182015b82811115620001e2578251825591602001919060010190620001c5565b50620001f092915062000202565b5090565b61085f80620020bc83390190565b5b80821115620001f0576000815560010162000203565b600181811c908216806200022e57607f821691505b602082108114156200025057634e487b7160e01b600052602260045260246000fd5b50919050565b60805160601c611e406200027c60003960008181610493015261082a0152611e406000f3fe60806040526004361061018b5760003560e01c806362400e4c116100d6578063a9059cbb1161007f578063f5eb42dc11610059578063f5eb42dc14610443578063f9a0388114610479578063fd2ec49b146104bd57600080fd5b8063a9059cbb146103d5578063d0e30db0146103f5578063dd62ed3e146103fd57600080fd5b8063933e95b2116100b0578063933e95b21461038b57806395d89b41146103a0578063a457c2d7146103b557600080fd5b806362400e4c1461032b57806370a082311461034b5780638e2b3ff61461036b57600080fd5b8063313ce567116101385780633beba2ee116101125780633beba2ee146102bd57806354761214146102d257806354f8ee36146102e757600080fd5b8063313ce5671461026c57806339509351146102885780633a98ef39146102a857600080fd5b806318160ddd1161016957806318160ddd1461021557806323b872dd1461022a5780632e1a7d4d1461024a57600080fd5b806305e9fe501461019057806306fdde03146101c3578063095ea7b3146101e5575b600080fd5b34801561019c57600080fd5b506101b06101ab366004611b52565b6104dd565b6040519081526020015b60405180910390f35b3480156101cf57600080fd5b506101d8610532565b6040516101ba9190611cdd565b3480156101f157600080fd5b50610205610200366004611c9c565b6105c4565b60405190151581526020016101ba565b34801561022157600080fd5b506101b06105da565b34801561023657600080fd5b50610205610245366004611c61565b6105e9565b34801561025657600080fd5b5061026a610265366004611cc5565b6106af565b005b34801561027857600080fd5b50604051601281526020016101ba565b34801561029457600080fd5b506102056102a3366004611c9c565b6106bc565b3480156102b457600080fd5b506101b06106f8565b3480156102c957600080fd5b5061026a610720565b3480156102de57600080fd5b5061026a610757565b6102fa6102f5366004611b9e565b610796565b6040517fffffffff0000000000000000000000000000000000000000000000000000000090911681526020016101ba565b34801561033757600080fd5b506101b0610346366004611b52565b610906565b34801561035757600080fd5b506101b0610366366004611b52565b610955565b34801561037757600080fd5b506101b0610386366004611b52565b610960565b34801561039757600080fd5b506101b061097e565b3480156103ac57600080fd5b506101d8610989565b3480156103c157600080fd5b506102056103d0366004611c9c565b610998565b3480156103e157600080fd5b506102056103f0366004611c9c565b610a49565b61026a610a56565b34801561040957600080fd5b506101b0610418366004611b6c565b6001600160a01b03918216600090815260036020908152604080832093909416825291909152205490565b34801561044f57600080fd5b506101b061045e366004611b52565b6001600160a01b031660009081526009602052604090205490565b34801561048557600080fd5b506040516001600160a01b037f00000000000000000000000000000000000000000000000000000000000000001681526020016101ba565b3480156104c957600080fd5b506101b06104d8366004611c9c565b610a60565b600061052c6104ff604080518082019091526007548152600854602082015290565b604080516020808201835260008083526001600160a01b0388168152600990915291909120548152610aaf565b92915050565b60606005805461054190611d9e565b80601f016020809104026020016040519081016040528092919081815260200182805461056d90611d9e565b80156105ba5780601f1061058f576101008083540402835291602001916105ba565b820191906000526020600020905b81548152906001019060200180831161059d57829003601f168201915b5050505050905090565b60006105d1338484610ad6565b50600192915050565b60006105e4610c2f565b905090565b60006105f6848484610c54565b6001600160a01b0384166000908152600360209081526040808320338452909152902054828110156106955760405162461bcd60e51b815260206004820152602860248201527f45524332303a207472616e7366657220616d6f756e742065786365656473206160448201527f6c6c6f77616e636500000000000000000000000000000000000000000000000060648201526084015b60405180910390fd5b6106a28533858403610ad6565b60019150505b9392505050565b6106b93382610e6b565b50565b3360008181526003602090815260408083206001600160a01b038716845290915281205490916105d19185906106f3908690611d30565b610ad6565b6000610717604080518082019091526007548152600854602082015290565b60200151905090565b60015460ff16801561074257506001546001600160a01b036101009091041633145b61074b57600080fd5b6107553347610f1f565b565b60015460ff1661076657600080fd5b600180547fffffffffffffffffffffff0000000000000000000000000000000000000000ff163361010002179055565b600a80546000919060ff16600214156107f15760405162461bcd60e51b815260206004820152600e60248201527f4d555445583a4c4f434b45443a30000000000000000000000000000000000000604482015260640161068c565b805460ff1916600217815560006108053490565b11156108cc57600061271061081c346103e8611d68565b6108269190611d48565b90507f00000000000000000000000000000000000000000000000000000000000000006001600160a01b031663d0e30db0826040518263ffffffff1660e01b81526004016000604051808303818588803b15801561088357600080fd5b505af1158015610897573d6000803e3d6000fd5b50505050506108b78a826108a83490565b6108b29190611d87565b610f32565b6108ca306108c58334611d87565b610fb7565b505b7f54f8ee36000000000000000000000000000000000000000000000000000000009150805460ff1916600117905598975050505050505050565b600061052c610928604080518082019091526007548152600854602082015290565b604080516020808201835260008083526001600160a01b03881681526009909152919091205481526110aa565b600061052c82610906565b6001600160a01b03811660009081526002602052604081205461052c565b60006105e460045490565b60606006805461054190611d9e565b3360009081526003602090815260408083206001600160a01b038616845290915281205482811015610a325760405162461bcd60e51b815260206004820152602560248201527f45524332303a2064656372656173656420616c6c6f77616e63652062656c6f7760448201527f207a65726f000000000000000000000000000000000000000000000000000000606482015260840161068c565b610a3f3385858403610ad6565b5060019392505050565b60006105d1338484610c54565b61075533346110c8565b60006106a8610a82604080518082019091526007548152600854602082015290565b604080516020808201835260008083526001600160a01b03891681526009909152919091205481526110aa565b602082015181516000916106a89190700100000000000000000000000000000000906110d2565b6001600160a01b038316610b515760405162461bcd60e51b8152602060048201526024808201527f45524332303a20617070726f76652066726f6d20746865207a65726f2061646460448201527f7265737300000000000000000000000000000000000000000000000000000000606482015260840161068c565b6001600160a01b038216610bcd5760405162461bcd60e51b815260206004820152602260248201527f45524332303a20617070726f766520746f20746865207a65726f20616464726560448201527f7373000000000000000000000000000000000000000000000000000000000000606482015260840161068c565b6001600160a01b0383811660008181526003602090815260408083209487168084529482529182902085905590518481527f8c5be1e5ebec7d5bd14f71427d1e84f3dd0314c0f7b2291e5b200ac8c7c3b92591015b60405180910390a3505050565b6000610c4e604080518082019091526007548152600854602082015290565b51919050565b6001600160a01b038316610cd05760405162461bcd60e51b815260206004820152602560248201527f45524332303a207472616e736665722066726f6d20746865207a65726f20616460448201527f6472657373000000000000000000000000000000000000000000000000000000606482015260840161068c565b6001600160a01b038216610d4c5760405162461bcd60e51b815260206004820152602360248201527f45524332303a207472616e7366657220746f20746865207a65726f206164647260448201527f6573730000000000000000000000000000000000000000000000000000000000606482015260840161068c565b610d57838383611190565b6001600160a01b03831660009081526002602052604090205481811015610dcf5760405162461bcd60e51b815260206004820152602660248201527f45524332303a207472616e7366657220616d6f756e7420657863656564732062604482015265616c616e636560d01b606482015260840161068c565b6001600160a01b03808516600090815260026020526040808220858503905591851681529081208054849290610e06908490611d30565b92505081905550826001600160a01b0316846001600160a01b03167fddf252ad1be2c89b69c2b068fc378daa952ba7f163c4a11628f55a4df523b3ef84604051610e5291815260200190565b60405180910390a3610e658484846111f3565b50505050565b610e758282611333565b610e886001600160a01b038316826114af565b610eaf610ea8604080518082019091526007548152600854602082015290565b51476115c8565b47610ecd604080518082019091526007548152600854602082015290565b5114610f1b5760405162461bcd60e51b815260206004820152600a60248201527f5354414b453a54533a3000000000000000000000000000000000000000000000604482015260640161068c565b5050565b610f1b6001600160a01b038316826114af565b6000610f51604080518082019091526007548152600854602082015290565b9050610f5d818361163d565b610f6f81602081015160085551600755565b826001600160a01b03167f414d0cc57eebc3deed7000ea0f183076c35e81627c0d1b49b0114fb31d37f78c83604051610faa91815260200190565b60405180910390a2505050565b6001600160a01b03821661100d5760405162461bcd60e51b815260206004820152601f60248201527f45524332303a206d696e7420746f20746865207a65726f206164647265737300604482015260640161068c565b61101960008383611190565b806004600082825461102b9190611d30565b90915550506001600160a01b03821660009081526002602052604081208054839290611058908490611d30565b90915550506040518181526001600160a01b038316906000907fddf252ad1be2c89b69c2b068fc378daa952ba7f163c4a11628f55a4df523b3ef9060200160405180910390a3610f1b600083836111f3565b80516000906110ba5760006106a8565b6106a8838360000151611656565b610e888282610fb7565b60008080600019858709858702925082811083820303915050806000141561110c576000841161110157600080fd5b5082900490506106a8565b80841161111857600080fd5b600084868809808403938111909203919050600061113886196001611d30565b8616958690049560026003880281188089028203028089028203028089028203028089028203028089028203028089029091030260008290038290046001019490940294049390931791909102925050509392505050565b6001600160a01b038216158015906111b157506001600160a01b0382163014155b156111bf576111bf8261166c565b6001600160a01b038316158015906111e057506001600160a01b0383163014155b156111ee576111ee8361166c565b505050565b6001600160a01b0382161580159061121457506001600160a01b0382163014155b156112235761122382826116bf565b6001600160a01b0383161580159061124457506001600160a01b0383163014155b15611253576112538382611795565b6001600160a01b03831660009081526002602052604090205461127584610906565b11156112c35760405162461bcd60e51b815260206004820152600a60248201527f4e4554483a4154543a3000000000000000000000000000000000000000000000604482015260640161068c565b6001600160a01b0382166000908152600260205260409020546112e583610906565b11156111ee5760405162461bcd60e51b815260206004820152600a60248201527f4e4554483a4154543a3100000000000000000000000000000000000000000000604482015260640161068c565b6001600160a01b0382166113935760405162461bcd60e51b815260206004820152602160248201527f45524332303a206275726e2066726f6d20746865207a65726f206164647265736044820152607360f81b606482015260840161068c565b61139f82600083611190565b6001600160a01b0382166000908152600260205260409020548181101561142e5760405162461bcd60e51b815260206004820152602260248201527f45524332303a206275726e20616d6f756e7420657863656564732062616c616e60448201527f6365000000000000000000000000000000000000000000000000000000000000606482015260840161068c565b6001600160a01b038316600090815260026020526040812083830390556004805484929061145d908490611d87565b90915550506040518281526000906001600160a01b038516907fddf252ad1be2c89b69c2b068fc378daa952ba7f163c4a11628f55a4df523b3ef9060200160405180910390a36111ee836000846111f3565b804710156114ff5760405162461bcd60e51b815260206004820152601d60248201527f416464726573733a20696e73756666696369656e742062616c616e6365000000604482015260640161068c565b6000826001600160a01b03168260405160006040518083038185875af1925050503d806000811461154c576040519150601f19603f3d011682016040523d82523d6000602084013e611551565b606091505b50509050806111ee5760405162461bcd60e51b815260206004820152603a60248201527f416464726573733a20756e61626c6520746f2073656e642076616c75652c207260448201527f6563697069656e74206d61792068617665207265766572746564000000000000606482015260840161068c565b6040516024810183905260448101829052610f1b9060640160408051601f198184030181529190526020810180517bffffffffffffffffffffffffffffffffffffffffffffffffffffffff167f6c0f698000000000000000000000000000000000000000000000000000000000179052611848565b808260000181815161164f9190611d30565b9052505050565b815160208301516000916106a8918491906110d2565b6001600160a01b0381166000908152600260205260408120549061168f83610906565b9050818111156111ee576116ac836116a78484611d87565b611869565b6111ee836116ba8484611d87565b6119ad565b60006116de604080518082019091526007548152600854602082015290565b604080516020808201835260008083526001600160a01b03881681526009909152918220548152919250506117148282856119f4565b61172682602081015160085551600755565b80516001600160a01b0385166000908152600960205260409020556001600160a01b0384167f5eb4c648204e45e42f8dd5d8a9520315bde65f235d1fffd2f3a7c336edb4108c335b604080516001600160a01b039092168252602082018790520160405180910390a250505050565b60006117b4604080518082019091526007548152600854602082015290565b604080516020808201835260008083526001600160a01b03881681526009909152918220548152919250506117ea828285611a6d565b6117fc82602081015160085551600755565b80516001600160a01b0385166000908152600960205260409020556001600160a01b0384167fcc602e1d24fc565fbbb2eb553e1f0a43640125dbb26dcba9e9655b2164dfbaf13361176e565b80516a636f6e736f6c652e6c6f67602083016000808483855afa5050505050565b6001600160a01b0382166118c95760405162461bcd60e51b815260206004820152602160248201527f45524332303a2061737369676e20746f20746865207a65726f206164647265736044820152607360f81b606482015260840161068c565b30600090815260026020526040902054818110156119385760405162461bcd60e51b815260206004820152602660248201527f45524332303a207472616e7366657220616d6f756e7420657863656564732062604482015265616c616e636560d01b606482015260840161068c565b3060009081526002602052604080822084840390556001600160a01b03851682528120805484929061196b908490611d30565b90915550506040518281526001600160a01b0384169030907fddf252ad1be2c89b69c2b068fc378daa952ba7f163c4a11628f55a4df523b3ef90602001610c22565b604080513381526020810183905281516001600160a01b038516927f167af344059ee0c11538488fa287a50560c8b0c8bd164a98a0a97a25352c33eb928290030190a25050565b6020830151158015611a0557508251155b15611a195790819052602082018190529052565b6000611a258483611ab8565b90508083600001818151611a399190611d30565b905250602084018051829190611a50908390611d30565b905250835182908590611a64908390611d30565b90525050505050565b6000611a798483611ace565b90508083600001818151611a8d9190611d87565b905250602084018051829190611aa4908390611d87565b905250835182908590611a64908390611d87565b602082015182516000916106a8918491906110d2565b602082015182516000916106a8918491906000611aec8484846110d2565b905060008280611b0c57634e487b7160e01b600052601260045260246000fd5b84860911156106a8576000198110611b2357600080fd5b80611b2d81611dd9565b95945050505050565b80356001600160a01b0381168114611b4d57600080fd5b919050565b600060208284031215611b63578081fd5b6106a882611b36565b60008060408385031215611b7e578081fd5b611b8783611b36565b9150611b9560208401611b36565b90509250929050565b60008060008060008060008060e0898b031215611bb9578384fd5b611bc289611b36565b9750611bd060208a01611b36565b9650611bde60408a01611b36565b955060608901359450611bf360808a01611b36565b935060a0890135925060c089013567ffffffffffffffff80821115611c16578384fd5b818b0191508b601f830112611c29578384fd5b813581811115611c37578485fd5b8c6020828501011115611c48578485fd5b6020830194508093505050509295985092959890939650565b600080600060608486031215611c75578283fd5b611c7e84611b36565b9250611c8c60208501611b36565b9150604084013590509250925092565b60008060408385031215611cae578182fd5b611cb783611b36565b946020939093013593505050565b600060208284031215611cd6578081fd5b5035919050565b6000602080835283518082850152825b81811015611d0957858101830151858201604001528201611ced565b81811115611d1a5783604083870101525b50601f01601f1916929092016040019392505050565b60008219821115611d4357611d43611df4565b500190565b600082611d6357634e487b7160e01b81526012600452602481fd5b500490565b6000816000190483118215151615611d8257611d82611df4565b500290565b600082821015611d9957611d99611df4565b500390565b600181811c90821680611db257607f821691505b60208210811415611dd357634e487b7160e01b600052602260045260246000fd5b50919050565b6000600019821415611ded57611ded611df4565b5060010190565b634e487b7160e01b600052601160045260246000fdfea26469706673582212207f8c2628c634cb19bd9ae49d8adc1700220794fa0861e602c15418c24414d68164736f6c6343000804003360a06040526001805460ff1916905534801561001a57600080fd5b5060408051602080820183526000918290528251908101909252600191829052805460ff1916821790554614610057576001805460ff1916811790555b600380546001600160a01b031916321790556100703390565b60601b6001600160601b03191660805260805160601c6107bb6100a460003960008181609201526104d901526107bb6000f3fe60806040526004361061007b5760003560e01c8063547612141161004e578063547612141461011b5780638cd4426d14610130578063cdc1842414610150578063d0e30db01461017057600080fd5b80632c1ba83914610080578063323a5e0b146100d15780633beba2ee146100ef5780633ccfd60b14610106575b600080fd5b34801561008c57600080fd5b506100b47f000000000000000000000000000000000000000000000000000000000000000081565b6040516001600160a01b0390911681526020015b60405180910390f35b3480156100dd57600080fd5b506002546040519081526020016100c8565b3480156100fb57600080fd5b50610104610178565b005b34801561011257600080fd5b506101046101af565b34801561012757600080fd5b506101046102d6565b34801561013c57600080fd5b5061010461014b366004610712565b610315565b34801561015c57600080fd5b506003546100b4906001600160a01b031681565b610104610484565b60015460ff16801561019a57506001546001600160a01b036101009091041633145b6101a357600080fd5b6101ad33476105b6565b565b6000805460ff16600214156101fc5760405162461bcd60e51b815260206004820152600e60248201526d04d555445583a4c4f434b45443a360941b60448201526064015b60405180910390fd5b805460ff191660021781556003546001600160a01b03168061021b3390565b6001600160a01b0316146102715760405162461bcd60e51b815260206004820152600760248201527f4553433a573a300000000000000000000000000000000000000000000000000060448201526064016101f3565b60028054600090915561028482826105b6565b816001600160a01b03167f7084f5476618d8e60b11ef0d7d3f06914655adb8793e28ff7f018d4c76d505d5826040516102bf91815260200190565b60405180910390a25050805460ff19166001179055565b60015460ff166102e557600080fd5b600180547fffffffffffffffffffffff0000000000000000000000000000000000000000ff163361010002179055565b6000805460ff166002141561035d5760405162461bcd60e51b815260206004820152600e60248201526d04d555445583a4c4f434b45443a360941b60448201526064016101f3565b805460ff191660021781556003546001600160a01b03168061037c3390565b6001600160a01b0316146103d25760405162461bcd60e51b815260206004820152600860248201527f4553433a52453a3000000000000000000000000000000000000000000000000060448201526064016101f3565b6040517f23b872dd0000000000000000000000000000000000000000000000000000000081523060048201526001600160a01b038281166024830152604482018590528516906323b872dd90606401602060405180830381600087803b15801561043b57600080fd5b505af115801561044f573d6000803e3d6000fd5b505050506040513d601f19601f8201168201806040525081019061047391906106eb565b5050805460ff191660011790555050565b6000805460ff16600214156104cc5760405162461bcd60e51b815260206004820152600e60248201526d04d555445583a4c4f434b45443a360941b60448201526064016101f3565b805460ff191660021781557f00000000000000000000000000000000000000000000000000000000000000006001600160a01b0381166105093390565b6001600160a01b03161461055f5760405162461bcd60e51b815260206004820152600760248201527f4553433a443a300000000000000000000000000000000000000000000000000060448201526064016101f3565b600034905080600260008282546105769190610748565b90915550506040518181526001600160a01b038316907f2da466a7b24304f47e87fa2e1e5a81b9831ce54fec19055ce277ca2f39ba42c4906020016102bf565b6105c96001600160a01b038316826105cd565b5050565b8047101561061d5760405162461bcd60e51b815260206004820152601d60248201527f416464726573733a20696e73756666696369656e742062616c616e636500000060448201526064016101f3565b6000826001600160a01b03168260405160006040518083038185875af1925050503d806000811461066a576040519150601f19603f3d011682016040523d82523d6000602084013e61066f565b606091505b50509050806106e65760405162461bcd60e51b815260206004820152603a60248201527f416464726573733a20756e61626c6520746f2073656e642076616c75652c207260448201527f6563697069656e74206d6179206861766520726576657274656400000000000060648201526084016101f3565b505050565b6000602082840312156106fc578081fd5b8151801515811461070b578182fd5b9392505050565b60008060408385031215610724578081fd5b82356001600160a01b038116811461073a578182fd5b946020939093013593505050565b60008219821115610780577f4e487b710000000000000000000000000000000000000000000000000000000081526011600452602481fd5b50019056fea26469706673582212206bf37e39921b38d4fb306d3c6f46f61c887a510e887db28ca3383a82c48ca4b264736f6c63430008040033",
  "devdoc": {
    "author": "Nugg Labs - @danny7even & @dub6ix",
    "kind": "dev",
    "methods": {
      "allowance(address,address)": {
        "details": "See {IERC20-allowance}."
      },
      "approve(address,uint256)": {
        "details": "See {IERC20-approve}. Requirements: - `spender` cannot be the zero address."
      },
      "decimals()": {
        "details": "Returns the number of decimals used to get its user representation. For example, if `decimals` equals `2`, a balance of `505` tokens should be displayed to a user as `5.05` (`505 / 10 ** 2`). Tokens usually opt for a value of 18, imitating the relationship between Ether and Wei. This is the value {ERC20} uses, unless this function is overridden; NOTE: This information is only used for _display_ purposes: it in no way affects any of the arithmetic of the contract, including {IERC20-balanceOf} and {IERC20-transfer}."
      },
      "decreaseAllowance(address,uint256)": {
        "details": "Atomically decreases the allowance granted to `spender` by the caller. This is an alternative to {approve} that can be used as a mitigation for problems described in {IERC20-approve}. Emits an {Approval} event indicating the updated allowance. Requirements: - `spender` cannot be the zero address. - `spender` must have allowance for the caller of at least `subtractedValue`."
      },
      "increaseAllowance(address,uint256)": {
        "details": "Atomically increases the allowance granted to `spender` by the caller. This is an alternative to {approve} that can be used as a mitigation for problems described in {IERC20-approve}. Emits an {Approval} event indicating the updated allowance. Requirements: - `spender` cannot be the zero address."
      },
      "name()": {
        "details": "Returns the name of the token."
      },
      "ownershipOfX128(address)": {
        "details": "external wrapper for _shares - to save on gas"
      },
      "sharesOf(address)": {
        "details": "external wrapper for _shares - to save on gas"
      },
      "supplyOf(address)": {
        "details": "in regards to this contract, this could just be earningsOf + sharesOf"
      },
      "symbol()": {
        "details": "Returns the symbol of the token, usually a shorter version of the name."
      },
      "totalShares()": {
        "details": "external wrapper for _shares - to save on gas"
      },
      "transfer(address,uint256)": {
        "details": "See {IERC20-transfer}. Requirements: - `recipient` cannot be the zero address. - the caller must have a balance of at least `amount`."
      },
      "transferFrom(address,address,uint256)": {
        "details": "See {IERC20-transferFrom}. Emits an {Approval} event indicating the updated allowance. This is not required by the EIP. See the note at the beginning of {ERC20}. Requirements: - `sender` and `recipient` cannot be the zero address. - `sender` must have a balance of at least `amount`. - the caller must have allowance for ``sender``'s tokens of at least `amount`."
      },
      "tummy()": {
        "details": "returns user's current reward balance",
        "returns": {
          "_0": "balance"
        }
      }
    },
    "title": "xNUGG",
    "version": 1
  },
  "userdoc": {
    "kind": "user",
    "methods": {},
    "notice": "leggo",
    "version": 1
  },
  "storageLayout": {
    "storage": [
      {
        "astId": 1402,
        "contract": "contracts/xNUGG.sol:xNUGG",
        "label": "global",
        "offset": 0,
        "slot": "0",
        "type": "t_struct(Mutex)1393_storage"
      },
      {
        "astId": 1479,
        "contract": "contracts/xNUGG.sol:xNUGG",
        "label": "inTesting",
        "offset": 0,
        "slot": "1",
        "type": "t_bool"
      },
      {
        "astId": 1494,
        "contract": "contracts/xNUGG.sol:xNUGG",
        "label": "pw",
        "offset": 1,
        "slot": "1",
        "type": "t_address"
      },
      {
        "astId": 2386,
        "contract": "contracts/xNUGG.sol:xNUGG",
        "label": "_balances",
        "offset": 0,
        "slot": "2",
        "type": "t_mapping(t_address,t_uint256)"
      },
      {
        "astId": 2392,
        "contract": "contracts/xNUGG.sol:xNUGG",
        "label": "_allowances",
        "offset": 0,
        "slot": "3",
        "type": "t_mapping(t_address,t_mapping(t_address,t_uint256))"
      },
      {
        "astId": 2394,
        "contract": "contracts/xNUGG.sol:xNUGG",
        "label": "_totalSupply",
        "offset": 0,
        "slot": "4",
        "type": "t_uint256"
      },
      {
        "astId": 2396,
        "contract": "contracts/xNUGG.sol:xNUGG",
        "label": "_name",
        "offset": 0,
        "slot": "5",
        "type": "t_string_storage"
      },
      {
        "astId": 2398,
        "contract": "contracts/xNUGG.sol:xNUGG",
        "label": "_symbol",
        "offset": 0,
        "slot": "6",
        "type": "t_string_storage"
      },
      {
        "astId": 1946,
        "contract": "contracts/xNUGG.sol:xNUGG",
        "label": "_supply",
        "offset": 0,
        "slot": "7",
        "type": "t_uint256"
      },
      {
        "astId": 1948,
        "contract": "contracts/xNUGG.sol:xNUGG",
        "label": "_shares",
        "offset": 0,
        "slot": "8",
        "type": "t_uint256"
      },
      {
        "astId": 1952,
        "contract": "contracts/xNUGG.sol:xNUGG",
        "label": "_shares_owned",
        "offset": 0,
        "slot": "9",
        "type": "t_mapping(t_address,t_uint256)"
      },
      {
        "astId": 7492,
        "contract": "contracts/xNUGG.sol:xNUGG",
        "label": "local",
        "offset": 0,
        "slot": "10",
        "type": "t_struct(Mutex)1393_storage"
      }
    ],
    "types": {
      "t_address": {
        "encoding": "inplace",
        "label": "address",
        "numberOfBytes": "20"
      },
      "t_bool": {
        "encoding": "inplace",
        "label": "bool",
        "numberOfBytes": "1"
      },
      "t_mapping(t_address,t_mapping(t_address,t_uint256))": {
        "encoding": "mapping",
        "key": "t_address",
        "label": "mapping(address => mapping(address => uint256))",
        "numberOfBytes": "32",
        "value": "t_mapping(t_address,t_uint256)"
      },
      "t_mapping(t_address,t_uint256)": {
        "encoding": "mapping",
        "key": "t_address",
        "label": "mapping(address => uint256)",
        "numberOfBytes": "32",
        "value": "t_uint256"
      },
      "t_string_storage": {
        "encoding": "bytes",
        "label": "string",
        "numberOfBytes": "32"
      },
      "t_struct(Mutex)1393_storage": {
        "encoding": "inplace",
        "label": "struct Mutexable.Mutex",
        "members": [
          {
            "astId": 1392,
            "contract": "contracts/xNUGG.sol:xNUGG",
            "label": "status",
            "offset": 0,
            "slot": "0",
            "type": "t_uint8"
          }
        ],
        "numberOfBytes": "32"
      },
      "t_uint256": {
        "encoding": "inplace",
        "label": "uint256",
        "numberOfBytes": "32"
      },
      "t_uint8": {
        "encoding": "inplace",
        "label": "uint8",
        "numberOfBytes": "1"
      }
    }
  }
}