{
  "address": "0x84500Cc78ce2fF2A9c17af6cdCa2c92ca49682Ca",
  "abi": [
    {
      "inputs": [],
      "stateMutability": "nonpayable",
      "type": "constructor"
    },
    {
      "anonymous": false,
      "inputs": [
        {
          "indexed": true,
          "internalType": "address",
          "name": "owner",
          "type": "address"
        },
        {
          "indexed": true,
          "internalType": "address",
          "name": "spender",
          "type": "address"
        },
        {
          "indexed": false,
          "internalType": "uint256",
          "name": "value",
          "type": "uint256"
        }
      ],
      "name": "Approval",
      "type": "event"
    },
    {
      "anonymous": false,
      "inputs": [],
      "name": "Genesis",
      "type": "event"
    },
    {
      "anonymous": false,
      "inputs": [
        {
          "indexed": false,
          "internalType": "address",
          "name": "sender",
          "type": "address"
        },
        {
          "indexed": false,
          "internalType": "uint256",
          "name": "eth",
          "type": "uint256"
        }
      ],
      "name": "Receive",
      "type": "event"
    },
    {
      "anonymous": false,
      "inputs": [
        {
          "indexed": false,
          "internalType": "address",
          "name": "receiver",
          "type": "address"
        },
        {
          "indexed": false,
          "internalType": "uint256",
          "name": "eth",
          "type": "uint256"
        }
      ],
      "name": "Send",
      "type": "event"
    },
    {
      "anonymous": false,
      "inputs": [
        {
          "indexed": true,
          "internalType": "address",
          "name": "from",
          "type": "address"
        },
        {
          "indexed": true,
          "internalType": "address",
          "name": "to",
          "type": "address"
        },
        {
          "indexed": false,
          "internalType": "uint256",
          "name": "value",
          "type": "uint256"
        }
      ],
      "name": "Transfer",
      "type": "event"
    },
    {
      "stateMutability": "payable",
      "type": "fallback"
    },
    {
      "inputs": [
        {
          "internalType": "address",
          "name": "owner",
          "type": "address"
        },
        {
          "internalType": "address",
          "name": "spender",
          "type": "address"
        }
      ],
      "name": "allowance",
      "outputs": [
        {
          "internalType": "uint256",
          "name": "",
          "type": "uint256"
        }
      ],
      "stateMutability": "view",
      "type": "function"
    },
    {
      "inputs": [
        {
          "internalType": "address",
          "name": "spender",
          "type": "address"
        },
        {
          "internalType": "uint256",
          "name": "amount",
          "type": "uint256"
        }
      ],
      "name": "approve",
      "outputs": [
        {
          "internalType": "bool",
          "name": "",
          "type": "bool"
        }
      ],
      "stateMutability": "nonpayable",
      "type": "function"
    },
    {
      "inputs": [
        {
          "internalType": "address",
          "name": "account",
          "type": "address"
        }
      ],
      "name": "balanceOf",
      "outputs": [
        {
          "internalType": "uint256",
          "name": "res",
          "type": "uint256"
        }
      ],
      "stateMutability": "view",
      "type": "function"
    },
    {
      "inputs": [
        {
          "internalType": "uint256",
          "name": "shares",
          "type": "uint256"
        }
      ],
      "name": "burn",
      "outputs": [],
      "stateMutability": "nonpayable",
      "type": "function"
    },
    {
      "inputs": [],
      "name": "decimals",
      "outputs": [
        {
          "internalType": "uint8",
          "name": "",
          "type": "uint8"
        }
      ],
      "stateMutability": "view",
      "type": "function"
    },
    {
      "inputs": [
        {
          "internalType": "address",
          "name": "spender",
          "type": "address"
        },
        {
          "internalType": "uint256",
          "name": "subtractedValue",
          "type": "uint256"
        }
      ],
      "name": "decreaseAllowance",
      "outputs": [
        {
          "internalType": "bool",
          "name": "",
          "type": "bool"
        }
      ],
      "stateMutability": "nonpayable",
      "type": "function"
    },
    {
      "inputs": [
        {
          "internalType": "address",
          "name": "account",
          "type": "address"
        }
      ],
      "name": "ethOf",
      "outputs": [
        {
          "internalType": "uint256",
          "name": "res",
          "type": "uint256"
        }
      ],
      "stateMutability": "view",
      "type": "function"
    },
    {
      "inputs": [],
      "name": "genesis",
      "outputs": [
        {
          "internalType": "uint256",
          "name": "",
          "type": "uint256"
        }
      ],
      "stateMutability": "view",
      "type": "function"
    },
    {
      "inputs": [
        {
          "internalType": "address",
          "name": "spender",
          "type": "address"
        },
        {
          "internalType": "uint256",
          "name": "addedValue",
          "type": "uint256"
        }
      ],
      "name": "increaseAllowance",
      "outputs": [
        {
          "internalType": "bool",
          "name": "",
          "type": "bool"
        }
      ],
      "stateMutability": "nonpayable",
      "type": "function"
    },
    {
      "inputs": [],
      "name": "mint",
      "outputs": [],
      "stateMutability": "payable",
      "type": "function"
    },
    {
      "inputs": [],
      "name": "name",
      "outputs": [
        {
          "internalType": "string",
          "name": "",
          "type": "string"
        }
      ],
      "stateMutability": "view",
      "type": "function"
    },
    {
      "inputs": [
        {
          "internalType": "address",
          "name": "account",
          "type": "address"
        }
      ],
      "name": "ownershipOf",
      "outputs": [
        {
          "internalType": "uint256",
          "name": "res",
          "type": "uint256"
        }
      ],
      "stateMutability": "view",
      "type": "function"
    },
    {
      "inputs": [],
      "name": "symbol",
      "outputs": [
        {
          "internalType": "string",
          "name": "",
          "type": "string"
        }
      ],
      "stateMutability": "view",
      "type": "function"
    },
    {
      "inputs": [],
      "name": "totalEth",
      "outputs": [
        {
          "internalType": "uint256",
          "name": "res",
          "type": "uint256"
        }
      ],
      "stateMutability": "view",
      "type": "function"
    },
    {
      "inputs": [],
      "name": "totalSupply",
      "outputs": [
        {
          "internalType": "uint256",
          "name": "res",
          "type": "uint256"
        }
      ],
      "stateMutability": "view",
      "type": "function"
    },
    {
      "inputs": [
        {
          "internalType": "address",
          "name": "recipient",
          "type": "address"
        },
        {
          "internalType": "uint256",
          "name": "amount",
          "type": "uint256"
        }
      ],
      "name": "transfer",
      "outputs": [
        {
          "internalType": "bool",
          "name": "",
          "type": "bool"
        }
      ],
      "stateMutability": "nonpayable",
      "type": "function"
    },
    {
      "inputs": [
        {
          "internalType": "address",
          "name": "sender",
          "type": "address"
        },
        {
          "internalType": "address",
          "name": "recipient",
          "type": "address"
        },
        {
          "internalType": "uint256",
          "name": "amount",
          "type": "uint256"
        }
      ],
      "name": "transferFrom",
      "outputs": [
        {
          "internalType": "bool",
          "name": "",
          "type": "bool"
        }
      ],
      "stateMutability": "nonpayable",
      "type": "function"
    },
    {
      "stateMutability": "payable",
      "type": "receive"
    }
  ],
  "transactionHash": "0x20a391321fd64025f94cb1e457eead8299440e1afb66255a6d85afcb4bd2aee0",
  "args": [],
  "solcInputHash": "7fce83e726ae901840dc1c4edd658001",
  "bytecode": "0x60a06040523480156200001157600080fd5b50604080518082018252600b81526a5374616b6564204e55474760a81b602080830191825283518085019094526005845264784e55474760d81b90840152815191929162000062916003916200015b565b508051620000789060049060208401906200015b565b50506040517f6bf6eaff5e9af8fbccb949f4c38cc016936f8775363ccf4224db160365785d529150600090a16000620000c13360056200010760201b620007a11790919060201c565b60405181815290915033906000907fddf252ad1be2c89b69c2b068fc378daa952ba7f163c4a11628f55a4df523b3ef9060200160405180910390a350436080526200023e565b8154600090479081156200011a57600080fd5b845481146200012857600080fd5b505068056bc75e2d631000008084556001600160a01b039092166000908152600190930160205250604090912081905590565b828054620001699062000201565b90600052602060002090601f0160209004810192826200018d5760008555620001d8565b82601f10620001a857805160ff1916838001178555620001d8565b82800160010185558215620001d8579182015b82811115620001d8578251825591602001919060010190620001bb565b50620001e6929150620001ea565b5090565b5b80821115620001e65760008155600101620001eb565b600181811c908216806200021657607f821691505b602082108114156200023857634e487b7160e01b600052602260045260246000fd5b50919050565b6080516110856200025a600039600061034501526110856000f3fe6080604052600436106101125760003560e01c806342966c68116100a5578063a0ffafd111610074578063a7f0b3de11610059578063a7f0b3de14610333578063a9059cbb14610367578063dd62ed3e1461038757610152565b8063a0ffafd1146102f3578063a457c2d71461031357610152565b806342966c681461027e57806370a082311461029e5780638fb08e2c146102be57806395d89b41146102de57610152565b806323b872dd116100e157806323b872dd1461020f578063313ce5671461022f578063395093511461024b5780633c3c9c231461026b57610152565b806306fdde0314610187578063095ea7b3146101b25780631249c58b146101e257806318160ddd146101ec57610152565b3661015257604080513381523460208201527fd6717f327e0cb88b4a97a7f67a453e9258252c34937ccbdd86de7cb840e7def391015b60405180910390a1005b604080513381523460208201527fd6717f327e0cb88b4a97a7f67a453e9258252c34937ccbdd86de7cb840e7def39101610148565b34801561019357600080fd5b5061019c6103cd565b6040516101a99190610f61565b60405180910390f35b3480156101be57600080fd5b506101d26101cd366004610f20565b61045f565b60405190151581526020016101a9565b6101ea610475565b005b3480156101f857600080fd5b506102016104f9565b6040519081526020016101a9565b34801561021b57600080fd5b506101d261022a366004610ee5565b610509565b34801561023b57600080fd5b50604051601281526020016101a9565b34801561025757600080fd5b506101d2610266366004610f20565b6105cf565b34801561027757600080fd5b5047610201565b34801561028a57600080fd5b506101ea610299366004610f49565b61060b565b3480156102aa57600080fd5b506102016102b9366004610e99565b61069a565b3480156102ca57600080fd5b506102016102d9366004610e99565b6106ba565b3480156102ea57600080fd5b5061019c6106c7565b3480156102ff57600080fd5b5061020161030e366004610e99565b6106d6565b34801561031f57600080fd5b506101d261032e366004610f20565b6106e3565b34801561033f57600080fd5b506102017f000000000000000000000000000000000000000000000000000000000000000081565b34801561037357600080fd5b506101d2610382366004610f20565b610794565b34801561039357600080fd5b506102016103a2366004610eb3565b6001600160a01b03918216600090815260016020908152604080832093909416825291909152205490565b6060600380546103dc90610fe3565b80601f016020809104026020016040519081016040528092919081815260200182805461040890610fe3565b80156104555780601f1061042a57610100808354040283529160200191610455565b820191906000526020600020905b81548152906001019060200180831161043857829003601f168201915b5050505050905090565b600061046c3384846107f3565b50600192915050565b60006104836005333461094c565b60405181815290915033906000907fddf252ad1be2c89b69c2b068fc378daa952ba7f163c4a11628f55a4df523b3ef9060200160405180910390a3604080513381523460208201527fd6717f327e0cb88b4a97a7f67a453e9258252c34937ccbdd86de7cb840e7def3910160405180910390a150565b600061050460055490565b905090565b6000610516848484610a79565b6001600160a01b0384166000908152600160209081526040808320338452909152902054828110156105b55760405162461bcd60e51b815260206004820152602860248201527f45524332303a207472616e7366657220616d6f756e742065786365656473206160448201527f6c6c6f77616e636500000000000000000000000000000000000000000000000060648201526084015b60405180910390fd5b6105c285338584036107f3565b60019150505b9392505050565b3360008181526001602090815260408083206001600160a01b0387168452909152812054909161046c918590610606908690610fb4565b6107f3565b600061061960053384610acb565b90506106253382610b2d565b60405182815260009033907fddf252ad1be2c89b69c2b068fc378daa952ba7f163c4a11628f55a4df523b3ef9060200160405180910390a360408051338152602081018390527f30a3c50752f2552dcc2b93f5b96866280816a986c0c0408cb6778b9fa198288f910160405180910390a15050565b6001600160a01b0381166000908152600660205260408120545b92915050565b60006106b4600583610c4b565b6060600480546103dc90610fe3565b60006106b4600583610c74565b3360009081526001602090815260408083206001600160a01b03861684529091528120548281101561077d5760405162461bcd60e51b815260206004820152602560248201527f45524332303a2064656372656173656420616c6c6f77616e63652062656c6f7760448201527f207a65726f00000000000000000000000000000000000000000000000000000060648201526084016105ac565b61078a33858584036107f3565b5060019392505050565b600061046c338484610a79565b8154600090479081156107b357600080fd5b845481146107c057600080fd5b505068056bc75e2d631000008084556001600160a01b039092166000908152600190930160205250604090912081905590565b6001600160a01b03831661086e5760405162461bcd60e51b8152602060048201526024808201527f45524332303a20617070726f76652066726f6d20746865207a65726f2061646460448201527f726573730000000000000000000000000000000000000000000000000000000060648201526084016105ac565b6001600160a01b0382166108ea5760405162461bcd60e51b815260206004820152602260248201527f45524332303a20617070726f766520746f20746865207a65726f20616464726560448201527f737300000000000000000000000000000000000000000000000000000000000060648201526084016105ac565b6001600160a01b0383811660008181526001602090815260408083209487168084529482529182902085905590518481527f8c5be1e5ebec7d5bd14f71427d1e84f3dd0314c0f7b2291e5b200ac8c7c3b92591015b60405180910390a3505050565b600080821161099d5760405162461bcd60e51b815260206004820152600860248201527f534c3a4144443a3000000000000000000000000000000000000000000000000060448201526064016105ac565b60006109a7610cb0565b855490915080610a0857838214610a005760405162461bcd60e51b815260206004820152600760248201527f534c3a53413a300000000000000000000000000000000000000000000000000060448201526064016105ac565b839250610a27565b6000610a148584610fcc565b9050610a238582846000610cc5565b9350505b82866000016000828254610a3b9190610fb4565b90915550506001600160a01b038516600090815260018701602052604081208054859290610a6a908490610fb4565b90915550929695505050505050565b610a866005848484610cf0565b816001600160a01b0316836001600160a01b03167fddf252ad1be2c89b69c2b068fc378daa952ba7f163c4a11628f55a4df523b3ef8360405161093f91815260200190565b600080610ad6610cb0565b8554909150610ae88483836000610d54565b925083866000016000828254610afe9190610fcc565b90915550506001600160a01b038516600090815260018701602052604081208054869290610a6a908490610fcc565b80471015610b7d5760405162461bcd60e51b815260206004820152601d60248201527f416464726573733a20696e73756666696369656e742062616c616e636500000060448201526064016105ac565b6000826001600160a01b03168260405160006040518083038185875af1925050503d8060008114610bca576040519150601f19603f3d011682016040523d82523d6000602084013e610bcf565b606091505b5050905080610c465760405162461bcd60e51b815260206004820152603a60248201527f416464726573733a20756e61626c6520746f2073656e642076616c75652c207260448201527f6563697069656e74206d6179206861766520726576657274656400000000000060648201526084016105ac565b505050565b6001600160a01b03811660009081526001830160205260408120546105c8904785546000610d54565b81546001600160a01b038216600090815260018401602052604081205490916105c8919070010000000000000000000000000000000090610d71565b60006105044768056bc75e2d63100000610fb4565b600081610cdc57610cd7858486610d71565b610ce7565b610ce7858486610e2f565b95945050505050565b6001600160a01b038316600090815260018501602052604081208054839290610d1a908490610fcc565b90915550506001600160a01b038216600090815260018501602052604081208054839290610d49908490610fb4565b909155505050505050565b600081610d6657610cd7858585610d71565b610ce7858585610e2f565b600080806000198587098587029250828110838203039150508060001415610dab5760008411610da057600080fd5b5082900490506105c8565b808411610db757600080fd5b6000848688098084039381119092039190506000610dd786196001610fb4565b8616958690049560026003880281188089028203028089028203028089028203028089028203028089028203028089029091030260008290038290046001019490940294049390931791909102925050509392505050565b6000610e3c848484610d71565b905060008280610e5c57634e487b7160e01b600052601260045260246000fd5b84860911156105c8576000198110610e7357600080fd5b80610ce78161101e565b80356001600160a01b0381168114610e9457600080fd5b919050565b600060208284031215610eaa578081fd5b6105c882610e7d565b60008060408385031215610ec5578081fd5b610ece83610e7d565b9150610edc60208401610e7d565b90509250929050565b600080600060608486031215610ef9578081fd5b610f0284610e7d565b9250610f1060208501610e7d565b9150604084013590509250925092565b60008060408385031215610f32578182fd5b610f3b83610e7d565b946020939093013593505050565b600060208284031215610f5a578081fd5b5035919050565b6000602080835283518082850152825b81811015610f8d57858101830151858201604001528201610f71565b81811115610f9e5783604083870101525b50601f01601f1916929092016040019392505050565b60008219821115610fc757610fc7611039565b500190565b600082821015610fde57610fde611039565b500390565b600181811c90821680610ff757607f821691505b6020821081141561101857634e487b7160e01b600052602260045260246000fd5b50919050565b600060001982141561103257611032611039565b5060010190565b634e487b7160e01b600052601160045260246000fdfea26469706673582212205d151b450830d7a90f2821cb99a811d65e9c58630c54f8c516fbe54b4738d67364736f6c63430008040033",
  "devdoc": {
    "author": "Nugg Labs - @danny7even & @dub6ix",
    "kind": "dev",
    "methods": {
      "allowance(address,address)": {
        "details": "See {IERC20-allowance}."
      },
      "approve(address,uint256)": {
        "details": "See {IERC20-approve}. Requirements: - `spender` cannot be the zero address."
      },
      "balanceOf(address)": {
        "details": "in regards to this contract, this could just be earningsOf + sharesOf"
      },
      "decimals()": {
        "details": "Returns the number of decimals used to get its user representation. For example, if `decimals` equals `2`, a balance of `505` tokens should be displayed to a user as `5.05` (`505 / 10 ** 2`). Tokens usually opt for a value of 18, imitating the relationship between Ether and Wei. This is the value {ERC20} uses, unless this function is overridden; NOTE: This information is only used for _display_ purposes: it in no way affects any of the arithmetic of the contract, including {IERC20-balanceOf} and {IERC20-transfer}."
      },
      "decreaseAllowance(address,uint256)": {
        "details": "Atomically decreases the allowance granted to `spender` by the caller. This is an alternative to {approve} that can be used as a mitigation for problems described in {IERC20-approve}. Emits an {Approval} event indicating the updated allowance. Requirements: - `spender` cannot be the zero address. - `spender` must have allowance for the caller of at least `subtractedValue`."
      },
      "ethOf(address)": {
        "details": "public wrapper for _shares - to save on gas"
      },
      "increaseAllowance(address,uint256)": {
        "details": "Atomically increases the allowance granted to `spender` by the caller. This is an alternative to {approve} that can be used as a mitigation for problems described in {IERC20-approve}. Emits an {Approval} event indicating the updated allowance. Requirements: - `spender` cannot be the zero address."
      },
      "name()": {
        "details": "Returns the name of the token."
      },
      "symbol()": {
        "details": "Returns the symbol of the token, usually a shorter version of the name."
      },
      "totalEth()": {
        "details": "public wrapper for _shares - to save on gas"
      },
      "totalSupply()": {
        "details": "in regards to this contract, this could just be earningsOf + sharesOf"
      },
      "transfer(address,uint256)": {
        "details": "See {IERC20-transfer}. Requirements: - `recipient` cannot be the zero address. - the caller must have a balance of at least `amount`."
      },
      "transferFrom(address,address,uint256)": {
        "details": "See {IERC20-transferFrom}. Emits an {Approval} event indicating the updated allowance. This is not required by the EIP. See the note at the beginning of {ERC20}. Requirements: - `sender` and `recipient` cannot be the zero address. - `sender` must have a balance of at least `amount`. - the caller must have allowance for ``sender``'s tokens of at least `amount`."
      }
    },
    "title": "xNUGG",
    "version": 1
  },
  "userdoc": {
    "kind": "user",
    "methods": {},
    "notice": "leggo",
    "version": 1
  },
  "storageLayout": {
    "storage": [
      {
        "astId": 193,
        "contract": "contracts/src/xNUGG.sol:xNUGG",
        "label": "_balances",
        "offset": 0,
        "slot": "0",
        "type": "t_mapping(t_address,t_uint256)"
      },
      {
        "astId": 199,
        "contract": "contracts/src/xNUGG.sol:xNUGG",
        "label": "_allowances",
        "offset": 0,
        "slot": "1",
        "type": "t_mapping(t_address,t_mapping(t_address,t_uint256))"
      },
      {
        "astId": 201,
        "contract": "contracts/src/xNUGG.sol:xNUGG",
        "label": "_totalSupply",
        "offset": 0,
        "slot": "2",
        "type": "t_uint256"
      },
      {
        "astId": 203,
        "contract": "contracts/src/xNUGG.sol:xNUGG",
        "label": "_name",
        "offset": 0,
        "slot": "3",
        "type": "t_string_storage"
      },
      {
        "astId": 205,
        "contract": "contracts/src/xNUGG.sol:xNUGG",
        "label": "_symbol",
        "offset": 0,
        "slot": "4",
        "type": "t_string_storage"
      },
      {
        "astId": 9470,
        "contract": "contracts/src/xNUGG.sol:xNUGG",
        "label": "sl_state",
        "offset": 0,
        "slot": "5",
        "type": "t_struct(Storage)8732_storage"
      }
    ],
    "types": {
      "t_address": {
        "encoding": "inplace",
        "label": "address",
        "numberOfBytes": "20"
      },
      "t_mapping(t_address,t_mapping(t_address,t_uint256))": {
        "encoding": "mapping",
        "key": "t_address",
        "label": "mapping(address => mapping(address => uint256))",
        "numberOfBytes": "32",
        "value": "t_mapping(t_address,t_uint256)"
      },
      "t_mapping(t_address,t_uint256)": {
        "encoding": "mapping",
        "key": "t_address",
        "label": "mapping(address => uint256)",
        "numberOfBytes": "32",
        "value": "t_uint256"
      },
      "t_string_storage": {
        "encoding": "bytes",
        "label": "string",
        "numberOfBytes": "32"
      },
      "t_struct(Storage)8732_storage": {
        "encoding": "inplace",
        "label": "struct StakeLib.Storage",
        "members": [
          {
            "astId": 8727,
            "contract": "contracts/src/xNUGG.sol:xNUGG",
            "label": "shares",
            "offset": 0,
            "slot": "0",
            "type": "t_uint256"
          },
          {
            "astId": 8731,
            "contract": "contracts/src/xNUGG.sol:xNUGG",
            "label": "owned",
            "offset": 0,
            "slot": "1",
            "type": "t_mapping(t_address,t_uint256)"
          }
        ],
        "numberOfBytes": "64"
      },
      "t_uint256": {
        "encoding": "inplace",
        "label": "uint256",
        "numberOfBytes": "32"
      }
    }
  }
}