{
  "address": "0x2716a39754B7B9cFc0bDe9df373037e2d5e839D5",
  "abi": [
    {
      "inputs": [],
      "stateMutability": "nonpayable",
      "type": "constructor"
    },
    {
      "inputs": [],
      "name": "byebye",
      "outputs": [],
      "stateMutability": "nonpayable",
      "type": "function"
    },
    {
      "inputs": [
        {
          "internalType": "address",
          "name": "nuggftv1",
          "type": "address"
        },
        {
          "internalType": "uint160",
          "name": "amount",
          "type": "uint160"
        }
      ],
      "name": "claimHelper",
      "outputs": [],
      "stateMutability": "nonpayable",
      "type": "function"
    },
    {
      "inputs": [
        {
          "internalType": "address",
          "name": "nuggftv1",
          "type": "address"
        },
        {
          "internalType": "uint160",
          "name": "amount",
          "type": "uint160"
        }
      ],
      "name": "claimSelf",
      "outputs": [],
      "stateMutability": "nonpayable",
      "type": "function"
    },
    {
      "inputs": [
        {
          "internalType": "address",
          "name": "nuggftv1",
          "type": "address"
        },
        {
          "internalType": "uint160",
          "name": "start",
          "type": "uint160"
        },
        {
          "internalType": "uint160",
          "name": "amount",
          "type": "uint160"
        }
      ],
      "name": "mint",
      "outputs": [],
      "stateMutability": "payable",
      "type": "function"
    },
    {
      "inputs": [
        {
          "internalType": "address",
          "name": "nuggftv1",
          "type": "address"
        },
        {
          "internalType": "address",
          "name": "to",
          "type": "address"
        },
        {
          "internalType": "uint256",
          "name": "start",
          "type": "uint256"
        },
        {
          "internalType": "uint256",
          "name": "amount",
          "type": "uint256"
        }
      ],
      "name": "trustMint",
      "outputs": [],
      "stateMutability": "payable",
      "type": "function"
    }
  ],
  "transactionHash": "0x78995ff5a66a7704ef5e5e8a5918b5a280d9631fa8871871072fe147c00ead16",
  "args": [],
  "solcInputHash": "a7abc84c8da5c104f5fda3ab8fb7b8ec",
  "bytecode": "0x60c060405234801561001057600080fd5b5060405161001d9061004f565b604051809103906000f080158015610039573d6000803e3d6000fd5b506001600160a01b03166080523360a05261005c565b61025180610ece83390190565b60805160a051610e3f61008f60003960006109bd01526000818161042a0152818161053001526108800152610e3f6000f3fe60806040526004361061005a5760003560e01c8063933a1a3a11610043578063933a1a3a14610087578063a01ffdff146100a7578063e1e443c8146100bc57600080fd5b8063407679101461005f5780638b9f9e8614610074575b600080fd5b61007261006d366004610b09565b6100dc565b005b610072610082366004610b54565b6106c7565b34801561009357600080fd5b506100726100a2366004610b9a565b610852565b3480156100b357600080fd5b506100726109a5565b3480156100c857600080fd5b506100726100d7366004610b9a565b6109ea565b815b6100e88284610c02565b73ffffffffffffffffffffffffffffffffffffffff168173ffffffffffffffffffffffffffffffffffffffff161015610694578373ffffffffffffffffffffffffffffffffffffffff1663750656f68573ffffffffffffffffffffffffffffffffffffffff16639531b94d6040518163ffffffff1660e01b815260040160206040518083038186803b15801561017d57600080fd5b505afa158015610191573d6000803e3d6000fd5b505050506040513d601f19601f820116820180604052508101906101b59190610c5b565b6040517fffffffff0000000000000000000000000000000000000000000000000000000060e084901b16815273ffffffffffffffffffffffffffffffffffffffff851660048201526bffffffffffffffffffffffff91909116906024016000604051808303818588803b15801561022b57600080fd5b505af115801561023f573d6000803e3d6000fd5b505050505060008473ffffffffffffffffffffffffffffffffffffffff1663f71d09046040518163ffffffff1660e01b815260040160206040518083038186803b15801561028c57600080fd5b505afa1580156102a0573d6000803e3d6000fd5b505050506040513d601f19601f820116820180604052508101906102c49190610c5b565b6102cf906003610c7d565b6040517f095ea7b300000000000000000000000000000000000000000000000000000000815273ffffffffffffffffffffffffffffffffffffffff87811660048301819052908516602483015291925063095ea7b390604401600060405180830381600087803b15801561034257600080fd5b505af1158015610356573d6000803e3d6000fd5b50506040517fc5c8beeb00000000000000000000000000000000000000000000000000000000815273ffffffffffffffffffffffffffffffffffffffff85811660048301526bffffffffffffffffffffffff851660248301528816925063c5c8beeb9150604401600060405180830381600087803b1580156103d757600080fd5b505af11580156103eb573d6000803e3d6000fd5b50506040517f99081a2600000000000000000000000000000000000000000000000000000000815273ffffffffffffffffffffffffffffffffffffffff7f000000000000000000000000000000000000000000000000000000000000000081166004830152858116602483015260009350881691506399081a269060440160606040518083038186803b15801561048157600080fd5b505afa158015610495573d6000803e3d6000fd5b505050506040513d601f19601f820116820180604052508101906104b99190610cb1565b5091506104c99050600284610cfb565b73ffffffffffffffffffffffffffffffffffffffff1661060f576040517fa59d071900000000000000000000000000000000000000000000000000000000815273ffffffffffffffffffffffffffffffffffffffff878116600483015284811660248301527f0000000000000000000000000000000000000000000000000000000000000000169063a59d0719906bffffffffffffffffffffffff8416906044016000604051808303818588803b15801561058357600080fd5b505af1158015610597573d6000803e3d6000fd5b5050600080546001810182559080527f290decd9548b62a8d60345a988386fc84ba6bc95484008f6362f93160ef3e5630180547fffffffffffffffffffffffff00000000000000000000000000000000000000001673ffffffffffffffffffffffffffffffffffffffff88161790555061067f915050565b6001805480820182556000919091527fb10e2d527612073b26eecdfd717e6a320cf44b4afac2b0732d9fcbe2b7fa0cf60180547fffffffffffffffffffffffff00000000000000000000000000000000000000001673ffffffffffffffffffffffffffffffffffffffff85161790555b5050808061068c90610d55565b9150506100de565b5060405133904780156108fc02916000818181858888f193505050501580156106c1573d6000803e3d6000fd5b50505050565b815b6106d38284610d89565b81101561081e578473ffffffffffffffffffffffffffffffffffffffff1663beace31f8673ffffffffffffffffffffffffffffffffffffffff16639531b94d6040518163ffffffff1660e01b815260040160206040518083038186803b15801561073c57600080fd5b505afa158015610750573d6000803e3d6000fd5b505050506040513d601f19601f820116820180604052508101906107749190610c5b565b6040517fffffffff0000000000000000000000000000000000000000000000000000000060e084901b16815273ffffffffffffffffffffffffffffffffffffffff8086166004830152881660248201526bffffffffffffffffffffffff91909116906044016000604051808303818588803b1580156107f257600080fd5b505af1158015610806573d6000803e3d6000fd5b5050505050808061081690610da1565b9150506106c9565b5060405133904780156108fc02916000818181858888f1935050505015801561084b573d6000803e3d6000fd5b5050505050565b600254805b61087773ffffffffffffffffffffffffffffffffffffffff841682610d89565b821015610974577f000000000000000000000000000000000000000000000000000000000000000073ffffffffffffffffffffffffffffffffffffffff1663d6b2f315856001600254815481106108d0576108d0610dda565b60009182526020909120015460405160e084901b7fffffffff0000000000000000000000000000000000000000000000000000000016815273ffffffffffffffffffffffffffffffffffffffff928316600482015291166024820152604401600060405180830381600087803b15801561094957600080fd5b505af115801561095d573d6000803e3d6000fd5b50505050818061096c90610da1565b925050610857565b600282905560405133904780156108fc02916000818181858888f1935050505015801561084b573d6000803e3d6000fd5b3373ffffffffffffffffffffffffffffffffffffffff7f000000000000000000000000000000000000000000000000000000000000000016146109e757600080fd5b33ff5b600254805b610a0f73ffffffffffffffffffffffffffffffffffffffff841682610d89565b821015610974578373ffffffffffffffffffffffffffffffffffffffff1663665557c8600160025481548110610a4757610a47610dda565b60009182526020909120015460405160e083901b7fffffffff0000000000000000000000000000000000000000000000000000000016815273ffffffffffffffffffffffffffffffffffffffff9091166004820152602401600060405180830381600087803b158015610ab957600080fd5b505af1158015610acd573d6000803e3d6000fd5b505050508180610adc90610da1565b9250506109ef565b73ffffffffffffffffffffffffffffffffffffffff81168114610b0657600080fd5b50565b600080600060608486031215610b1e57600080fd5b8335610b2981610ae4565b92506020840135610b3981610ae4565b91506040840135610b4981610ae4565b809150509250925092565b60008060008060808587031215610b6a57600080fd5b8435610b7581610ae4565b93506020850135610b8581610ae4565b93969395505050506040820135916060013590565b60008060408385031215610bad57600080fd5b8235610bb881610ae4565b91506020830135610bc881610ae4565b809150509250929050565b7f4e487b7100000000000000000000000000000000000000000000000000000000600052601160045260246000fd5b600073ffffffffffffffffffffffffffffffffffffffff808316818516808303821115610c3157610c31610bd3565b01949350505050565b80516bffffffffffffffffffffffff81168114610c5657600080fd5b919050565b600060208284031215610c6d57600080fd5b610c7682610c3a565b9392505050565b60006bffffffffffffffffffffffff80831681851681830481118215151615610ca857610ca8610bd3565b02949350505050565b600080600060608486031215610cc657600080fd5b83518015158114610cd657600080fd5b9250610ce460208501610c3a565b9150610cf260408501610c3a565b90509250925092565b600073ffffffffffffffffffffffffffffffffffffffff80841680610d49577f4e487b7100000000000000000000000000000000000000000000000000000000600052601260045260246000fd5b92169190910692915050565b600073ffffffffffffffffffffffffffffffffffffffff80831681811415610d7f57610d7f610bd3565b6001019392505050565b60008219821115610d9c57610d9c610bd3565b500190565b60007fffffffffffffffffffffffffffffffffffffffffffffffffffffffffffffffff821415610dd357610dd3610bd3565b5060010190565b7f4e487b7100000000000000000000000000000000000000000000000000000000600052603260045260246000fdfea26469706673582212206f1adf0e3e7f6d150115b99da5e97024e633770d1bd8ff36fcf54af39b5ed7f464736f6c63430008090033608060405234801561001057600080fd5b50610231806100206000396000f3fe6080604052600436106100295760003560e01c8063a59d07191461002e578063d6b2f31514610043575b600080fd5b61004161003c3660046101c2565b610063565b005b34801561004f57600080fd5b5061004161005e3660046101c2565b6100ea565b6040517f099afa1700000000000000000000000000000000000000000000000000000000815273ffffffffffffffffffffffffffffffffffffffff828116600483015283169063099afa179034906024016000604051808303818588803b1580156100cd57600080fd5b505af11580156100e1573d6000803e3d6000fd5b50505050505050565b6040517f665557c800000000000000000000000000000000000000000000000000000000815273ffffffffffffffffffffffffffffffffffffffff828116600483015283169063665557c890602401600060405180830381600087803b15801561015357600080fd5b505af1158015610167573d6000803e3d6000fd5b50506040513392504780156108fc029250906000818181858888f19350505050158015610198573d6000803e3d6000fd5b505050565b73ffffffffffffffffffffffffffffffffffffffff811681146101bf57600080fd5b50565b600080604083850312156101d557600080fd5b82356101e08161019d565b915060208301356101f08161019d565b80915050925092905056fea2646970667358221220e427c6d46c686923f737aacaa9b584043582a2f211dce3d5fe8336029a6c99f964736f6c63430008090033",
  "devdoc": {
    "kind": "dev",
    "methods": {},
    "version": 1
  },
  "userdoc": {
    "kind": "user",
    "methods": {},
    "version": 1
  },
  "storageLayout": {
    "storage": [
      {
        "astId": 4041,
        "contract": "src/_test/dev/Minter.sol:NuggftV1Minter",
        "label": "toClaimFromHelper",
        "offset": 0,
        "slot": "0",
        "type": "t_array(t_uint160)dyn_storage"
      },
      {
        "astId": 4044,
        "contract": "src/_test/dev/Minter.sol:NuggftV1Minter",
        "label": "toClaim",
        "offset": 0,
        "slot": "1",
        "type": "t_array(t_uint160)dyn_storage"
      },
      {
        "astId": 4046,
        "contract": "src/_test/dev/Minter.sol:NuggftV1Minter",
        "label": "claimedIndex",
        "offset": 0,
        "slot": "2",
        "type": "t_uint256"
      },
      {
        "astId": 4048,
        "contract": "src/_test/dev/Minter.sol:NuggftV1Minter",
        "label": "claimedFromHelperIndex",
        "offset": 0,
        "slot": "3",
        "type": "t_uint256"
      }
    ],
    "types": {
      "t_array(t_uint160)dyn_storage": {
        "base": "t_uint160",
        "encoding": "dynamic_array",
        "label": "uint160[]",
        "numberOfBytes": "32"
      },
      "t_uint160": {
        "encoding": "inplace",
        "label": "uint160",
        "numberOfBytes": "20"
      },
      "t_uint256": {
        "encoding": "inplace",
        "label": "uint256",
        "numberOfBytes": "32"
      }
    }
  }
}