{
  "address": "0x6ee9848E704CAfd98D8d1c9E630807Ae9fbFC6FC",
  "abi": [
    {
      "inputs": [],
      "stateMutability": "nonpayable",
      "type": "constructor"
    },
    {
      "inputs": [],
      "name": "byebye",
      "outputs": [],
      "stateMutability": "nonpayable",
      "type": "function"
    },
    {
      "inputs": [
        {
          "internalType": "address",
          "name": "nuggftv1",
          "type": "address"
        },
        {
          "internalType": "uint160",
          "name": "start",
          "type": "uint160"
        },
        {
          "internalType": "uint160",
          "name": "amount",
          "type": "uint160"
        }
      ],
      "name": "claim",
      "outputs": [],
      "stateMutability": "nonpayable",
      "type": "function"
    },
    {
      "inputs": [
        {
          "internalType": "address",
          "name": "nuggftv1",
          "type": "address"
        },
        {
          "internalType": "uint160",
          "name": "start",
          "type": "uint160"
        },
        {
          "internalType": "uint160",
          "name": "amount",
          "type": "uint160"
        }
      ],
      "name": "mint",
      "outputs": [],
      "stateMutability": "payable",
      "type": "function"
    },
    {
      "inputs": [
        {
          "internalType": "address",
          "name": "nuggftv1",
          "type": "address"
        },
        {
          "internalType": "address",
          "name": "to",
          "type": "address"
        },
        {
          "internalType": "uint256",
          "name": "start",
          "type": "uint256"
        },
        {
          "internalType": "uint256",
          "name": "amount",
          "type": "uint256"
        }
      ],
      "name": "trustMint",
      "outputs": [],
      "stateMutability": "payable",
      "type": "function"
    }
  ],
  "transactionHash": "0xb9b277825793042c3d066a36f2a0226fa8511fa9754a3ba6622ba2cb2890ff62",
  "args": [],
  "solcInputHash": "9326d11c192b6a9970baa3344857981c",
  "bytecode": "0x60c060405234801561001057600080fd5b5060405161001d9061004f565b604051809103906000f080158015610039573d6000803e3d6000fd5b506001600160a01b03166080523360a05261005c565b61025180610b9d83390190565b60805160a051610b0e61008f60003960006107ee01526000818161012d015281816104f001526105f60152610b0e6000f3fe60806040526004361061003f5760003560e01c806302fb5a9a1461004457806340767910146100665780638b9f9e8614610079578063a01ffdff1461008c575b600080fd5b34801561005057600080fd5b5061006461005f366004610840565b6100a1565b005b610064610074366004610840565b6101a2565b61006461008736600461088b565b610678565b34801561009857600080fd5b506100646107d6565b815b6100ad8284610900565b73ffffffffffffffffffffffffffffffffffffffff168173ffffffffffffffffffffffffffffffffffffffff16101561019c576040517fd6b2f31500000000000000000000000000000000000000000000000000000000815273ffffffffffffffffffffffffffffffffffffffff858116600483015282811660248301527f0000000000000000000000000000000000000000000000000000000000000000169063d6b2f31590604401600060405180830381600087803b15801561017157600080fd5b505af1158015610185573d6000803e3d6000fd5b50505050808061019490610938565b9150506100a3565b50505050565b815b6101ae8284610900565b73ffffffffffffffffffffffffffffffffffffffff168173ffffffffffffffffffffffffffffffffffffffff16101561019c578373ffffffffffffffffffffffffffffffffffffffff1663750656f68573ffffffffffffffffffffffffffffffffffffffff16639531b94d6040518163ffffffff1660e01b815260040160206040518083038186803b15801561024357600080fd5b505afa158015610257573d6000803e3d6000fd5b505050506040513d601f19601f8201168201806040525081019061027b919061098d565b6040517fffffffff0000000000000000000000000000000000000000000000000000000060e084901b16815273ffffffffffffffffffffffffffffffffffffffff851660048201526bffffffffffffffffffffffff91909116906024016000604051808303818588803b1580156102f157600080fd5b505af1158015610305573d6000803e3d6000fd5b505050505060008473ffffffffffffffffffffffffffffffffffffffff1663f71d09046040518163ffffffff1660e01b815260040160206040518083038186803b15801561035257600080fd5b505afa158015610366573d6000803e3d6000fd5b505050506040513d601f19601f8201168201806040525081019061038a919061098d565b6103959060036109af565b6040517f095ea7b300000000000000000000000000000000000000000000000000000000815273ffffffffffffffffffffffffffffffffffffffff87811660048301819052908516602483015291925063095ea7b390604401600060405180830381600087803b15801561040857600080fd5b505af115801561041c573d6000803e3d6000fd5b50506040517fc5c8beeb00000000000000000000000000000000000000000000000000000000815273ffffffffffffffffffffffffffffffffffffffff85811660048301526bffffffffffffffffffffffff851660248301528816925063c5c8beeb9150604401600060405180830381600087803b15801561049d57600080fd5b505af11580156104b1573d6000803e3d6000fd5b50506040517f99081a2600000000000000000000000000000000000000000000000000000000815273ffffffffffffffffffffffffffffffffffffffff7f000000000000000000000000000000000000000000000000000000000000000081166004830152858116602483015260009350881691506399081a269060440160606040518083038186803b15801561054757600080fd5b505afa15801561055b573d6000803e3d6000fd5b505050506040513d601f19601f8201168201806040525081019061057f91906109e3565b50915061058f9050600284610a2d565b73ffffffffffffffffffffffffffffffffffffffff16610663576040517fa59d071900000000000000000000000000000000000000000000000000000000815273ffffffffffffffffffffffffffffffffffffffff878116600483015284811660248301527f0000000000000000000000000000000000000000000000000000000000000000169063a59d0719906bffffffffffffffffffffffff8416906044016000604051808303818588803b15801561064957600080fd5b505af115801561065d573d6000803e3d6000fd5b50505050505b5050808061067090610938565b9150506101a4565b815b6106848284610a87565b8110156107cf578473ffffffffffffffffffffffffffffffffffffffff1663beace31f8673ffffffffffffffffffffffffffffffffffffffff16639531b94d6040518163ffffffff1660e01b815260040160206040518083038186803b1580156106ed57600080fd5b505afa158015610701573d6000803e3d6000fd5b505050506040513d601f19601f82011682018060405250810190610725919061098d565b6040517fffffffff0000000000000000000000000000000000000000000000000000000060e084901b16815273ffffffffffffffffffffffffffffffffffffffff8086166004830152881660248201526bffffffffffffffffffffffff91909116906044016000604051808303818588803b1580156107a357600080fd5b505af11580156107b7573d6000803e3d6000fd5b505050505080806107c790610a9f565b91505061067a565b5050505050565b3373ffffffffffffffffffffffffffffffffffffffff7f0000000000000000000000000000000000000000000000000000000000000000161461081857600080fd5b33ff5b73ffffffffffffffffffffffffffffffffffffffff8116811461083d57600080fd5b50565b60008060006060848603121561085557600080fd5b83356108608161081b565b925060208401356108708161081b565b915060408401356108808161081b565b809150509250925092565b600080600080608085870312156108a157600080fd5b84356108ac8161081b565b935060208501356108bc8161081b565b93969395505050506040820135916060013590565b7f4e487b7100000000000000000000000000000000000000000000000000000000600052601160045260246000fd5b600073ffffffffffffffffffffffffffffffffffffffff80831681851680830382111561092f5761092f6108d1565b01949350505050565b600073ffffffffffffffffffffffffffffffffffffffff80831681811415610962576109626108d1565b6001019392505050565b80516bffffffffffffffffffffffff8116811461098857600080fd5b919050565b60006020828403121561099f57600080fd5b6109a88261096c565b9392505050565b60006bffffffffffffffffffffffff808316818516818304811182151516156109da576109da6108d1565b02949350505050565b6000806000606084860312156109f857600080fd5b83518015158114610a0857600080fd5b9250610a166020850161096c565b9150610a246040850161096c565b90509250925092565b600073ffffffffffffffffffffffffffffffffffffffff80841680610a7b577f4e487b7100000000000000000000000000000000000000000000000000000000600052601260045260246000fd5b92169190910692915050565b60008219821115610a9a57610a9a6108d1565b500190565b60007fffffffffffffffffffffffffffffffffffffffffffffffffffffffffffffffff821415610ad157610ad16108d1565b506001019056fea2646970667358221220e9579f09645edba96a5ba2e531839b51e83c1b18813bb52034175d269e5d497364736f6c63430008090033608060405234801561001057600080fd5b50610231806100206000396000f3fe6080604052600436106100295760003560e01c8063a59d07191461002e578063d6b2f31514610043575b600080fd5b61004161003c3660046101c2565b610063565b005b34801561004f57600080fd5b5061004161005e3660046101c2565b6100ea565b6040517f099afa1700000000000000000000000000000000000000000000000000000000815273ffffffffffffffffffffffffffffffffffffffff828116600483015283169063099afa179034906024016000604051808303818588803b1580156100cd57600080fd5b505af11580156100e1573d6000803e3d6000fd5b50505050505050565b6040517f665557c800000000000000000000000000000000000000000000000000000000815273ffffffffffffffffffffffffffffffffffffffff828116600483015283169063665557c890602401600060405180830381600087803b15801561015357600080fd5b505af1158015610167573d6000803e3d6000fd5b50506040513392504780156108fc029250906000818181858888f19350505050158015610198573d6000803e3d6000fd5b505050565b73ffffffffffffffffffffffffffffffffffffffff811681146101bf57600080fd5b50565b600080604083850312156101d557600080fd5b82356101e08161019d565b915060208301356101f08161019d565b80915050925092905056fea2646970667358221220d5b96b979346c1fd8e50300dd11e13f37d97b84c8883c332086492bdb674f9dc64736f6c63430008090033",
  "devdoc": {
    "kind": "dev",
    "methods": {},
    "version": 1
  },
  "userdoc": {
    "kind": "user",
    "methods": {},
    "version": 1
  },
  "storageLayout": {
    "storage": [],
    "types": null
  }
}