{
  "address": "0x420690c1B1519A32Fa36768DC2CefE128160A9B7",
  "abi": [
    {
      "inputs": [
        {
          "internalType": "address",
          "name": "_defaultResolver",
          "type": "address"
        }
      ],
      "stateMutability": "nonpayable",
      "type": "constructor"
    },
    {
      "anonymous": false,
      "inputs": [
        {
          "indexed": true,
          "internalType": "address",
          "name": "_owner",
          "type": "address"
        },
        {
          "indexed": true,
          "internalType": "address",
          "name": "_approved",
          "type": "address"
        },
        {
          "indexed": true,
          "internalType": "uint256",
          "name": "_tokenId",
          "type": "uint256"
        }
      ],
      "name": "Approval",
      "type": "event"
    },
    {
      "anonymous": false,
      "inputs": [
        {
          "indexed": true,
          "internalType": "address",
          "name": "_owner",
          "type": "address"
        },
        {
          "indexed": true,
          "internalType": "address",
          "name": "_operator",
          "type": "address"
        },
        {
          "indexed": false,
          "internalType": "bool",
          "name": "_approved",
          "type": "bool"
        }
      ],
      "name": "ApprovalForAll",
      "type": "event"
    },
    {
      "anonymous": false,
      "inputs": [
        {
          "indexed": false,
          "internalType": "uint160",
          "name": "tokenId",
          "type": "uint160"
        },
        {
          "indexed": false,
          "internalType": "address",
          "name": "owner",
          "type": "address"
        },
        {
          "indexed": false,
          "internalType": "uint96",
          "name": "ethOwed",
          "type": "uint96"
        }
      ],
      "name": "Burn",
      "type": "event"
    },
    {
      "anonymous": false,
      "inputs": [
        {
          "indexed": true,
          "internalType": "uint160",
          "name": "tokenId",
          "type": "uint160"
        },
        {
          "indexed": false,
          "internalType": "address",
          "name": "user",
          "type": "address"
        }
      ],
      "name": "Claim",
      "type": "event"
    },
    {
      "anonymous": false,
      "inputs": [
        {
          "indexed": true,
          "internalType": "uint176",
          "name": "sellingItemId",
          "type": "uint176"
        },
        {
          "indexed": false,
          "internalType": "uint160",
          "name": "nugg",
          "type": "uint160"
        }
      ],
      "name": "ClaimItem",
      "type": "event"
    },
    {
      "anonymous": false,
      "inputs": [
        {
          "indexed": true,
          "internalType": "uint160",
          "name": "tokenId",
          "type": "uint160"
        },
        {
          "indexed": false,
          "internalType": "address",
          "name": "user",
          "type": "address"
        },
        {
          "indexed": false,
          "internalType": "uint96",
          "name": "lead",
          "type": "uint96"
        }
      ],
      "name": "Delegate",
      "type": "event"
    },
    {
      "anonymous": false,
      "inputs": [
        {
          "indexed": true,
          "internalType": "uint176",
          "name": "sellingItemId",
          "type": "uint176"
        },
        {
          "indexed": false,
          "internalType": "uint160",
          "name": "nugg",
          "type": "uint160"
        },
        {
          "indexed": false,
          "internalType": "uint96",
          "name": "lead",
          "type": "uint96"
        }
      ],
      "name": "DelegateItem",
      "type": "event"
    },
    {
      "anonymous": false,
      "inputs": [
        {
          "indexed": true,
          "internalType": "uint256",
          "name": "artifactId",
          "type": "uint256"
        }
      ],
      "name": "DotnuggV1ConfigUpdated",
      "type": "event"
    },
    {
      "anonymous": false,
      "inputs": [
        {
          "indexed": false,
          "internalType": "uint256",
          "name": "blocknum",
          "type": "uint256"
        },
        {
          "indexed": false,
          "internalType": "uint32",
          "name": "interval",
          "type": "uint32"
        },
        {
          "indexed": false,
          "internalType": "uint24",
          "name": "offset",
          "type": "uint24"
        }
      ],
      "name": "Genesis",
      "type": "event"
    },
    {
      "anonymous": false,
      "inputs": [
        {
          "indexed": true,
          "internalType": "uint160",
          "name": "tokenId",
          "type": "uint160"
        },
        {
          "indexed": false,
          "internalType": "uint96",
          "name": "value",
          "type": "uint96"
        },
        {
          "indexed": false,
          "internalType": "address",
          "name": "user",
          "type": "address"
        }
      ],
      "name": "Liquidate",
      "type": "event"
    },
    {
      "anonymous": false,
      "inputs": [
        {
          "indexed": true,
          "internalType": "uint160",
          "name": "tokenId",
          "type": "uint160"
        },
        {
          "indexed": false,
          "internalType": "uint96",
          "name": "value",
          "type": "uint96"
        }
      ],
      "name": "Loan",
      "type": "event"
    },
    {
      "anonymous": false,
      "inputs": [
        {
          "indexed": false,
          "internalType": "address",
          "name": "v2",
          "type": "address"
        },
        {
          "indexed": false,
          "internalType": "uint160",
          "name": "tokenId",
          "type": "uint160"
        },
        {
          "indexed": false,
          "internalType": "uint256",
          "name": "proof",
          "type": "uint256"
        },
        {
          "indexed": false,
          "internalType": "address",
          "name": "owner",
          "type": "address"
        },
        {
          "indexed": false,
          "internalType": "uint96",
          "name": "eth",
          "type": "uint96"
        }
      ],
      "name": "MigrateV1Sent",
      "type": "event"
    },
    {
      "anonymous": false,
      "inputs": [
        {
          "indexed": false,
          "internalType": "address",
          "name": "migrator",
          "type": "address"
        }
      ],
      "name": "MigratorV1Updated",
      "type": "event"
    },
    {
      "anonymous": false,
      "inputs": [
        {
          "indexed": false,
          "internalType": "uint160",
          "name": "tokenId",
          "type": "uint160"
        },
        {
          "indexed": false,
          "internalType": "uint96",
          "name": "value",
          "type": "uint96"
        }
      ],
      "name": "Mint",
      "type": "event"
    },
    {
      "anonymous": false,
      "inputs": [
        {
          "indexed": false,
          "internalType": "uint96",
          "name": "eth",
          "type": "uint96"
        }
      ],
      "name": "ProtocolEthExtracted",
      "type": "event"
    },
    {
      "anonymous": false,
      "inputs": [
        {
          "indexed": true,
          "internalType": "uint160",
          "name": "tokenId",
          "type": "uint160"
        },
        {
          "indexed": false,
          "internalType": "uint96",
          "name": "value",
          "type": "uint96"
        }
      ],
      "name": "Rebalance",
      "type": "event"
    },
    {
      "anonymous": false,
      "inputs": [
        {
          "indexed": false,
          "internalType": "uint256",
          "name": "stake",
          "type": "uint256"
        }
      ],
      "name": "Stake",
      "type": "event"
    },
    {
      "anonymous": false,
      "inputs": [
        {
          "indexed": true,
          "internalType": "uint160",
          "name": "tokenId",
          "type": "uint160"
        },
        {
          "indexed": false,
          "internalType": "uint96",
          "name": "floor",
          "type": "uint96"
        }
      ],
      "name": "Swap",
      "type": "event"
    },
    {
      "anonymous": false,
      "inputs": [
        {
          "indexed": true,
          "internalType": "uint176",
          "name": "sellingItemId",
          "type": "uint176"
        },
        {
          "indexed": false,
          "internalType": "uint96",
          "name": "floor",
          "type": "uint96"
        }
      ],
      "name": "SwapItem",
      "type": "event"
    },
    {
      "anonymous": false,
      "inputs": [
        {
          "indexed": true,
          "internalType": "address",
          "name": "_from",
          "type": "address"
        },
        {
          "indexed": true,
          "internalType": "address",
          "name": "_to",
          "type": "address"
        },
        {
          "indexed": true,
          "internalType": "uint256",
          "name": "_tokenId",
          "type": "uint256"
        }
      ],
      "name": "Transfer",
      "type": "event"
    },
    {
      "anonymous": false,
      "inputs": [
        {
          "indexed": true,
          "internalType": "address",
          "name": "user",
          "type": "address"
        },
        {
          "indexed": false,
          "internalType": "bool",
          "name": "trust",
          "type": "bool"
        }
      ],
      "name": "TrustUpdated",
      "type": "event"
    },
    {
      "anonymous": false,
      "inputs": [
        {
          "indexed": true,
          "internalType": "address",
          "name": "user",
          "type": "address"
        },
        {
          "indexed": false,
          "internalType": "bool",
          "name": "trusted",
          "type": "bool"
        }
      ],
      "name": "UserTrustUpdated",
      "type": "event"
    },
    {
      "inputs": [],
      "name": "MIN_OFFER",
      "outputs": [
        {
          "internalType": "uint96",
          "name": "",
          "type": "uint96"
        }
      ],
      "stateMutability": "view",
      "type": "function"
    },
    {
      "inputs": [
        {
          "internalType": "address",
          "name": "to",
          "type": "address"
        },
        {
          "internalType": "uint256",
          "name": "tokenId",
          "type": "uint256"
        }
      ],
      "name": "approve",
      "outputs": [],
      "stateMutability": "payable",
      "type": "function"
    },
    {
      "inputs": [
        {
          "internalType": "address",
          "name": "",
          "type": "address"
        }
      ],
      "name": "balanceOf",
      "outputs": [
        {
          "internalType": "uint256",
          "name": "",
          "type": "uint256"
        }
      ],
      "stateMutability": "pure",
      "type": "function"
    },
    {
      "inputs": [
        {
          "internalType": "uint160",
          "name": "tokenId",
          "type": "uint160"
        }
      ],
      "name": "burn",
      "outputs": [],
      "stateMutability": "nonpayable",
      "type": "function"
    },
    {
      "inputs": [
        {
          "internalType": "uint160",
          "name": "tokenId",
          "type": "uint160"
        }
      ],
      "name": "claim",
      "outputs": [],
      "stateMutability": "nonpayable",
      "type": "function"
    },
    {
      "inputs": [
        {
          "internalType": "uint160",
          "name": "buyerTokenId",
          "type": "uint160"
        },
        {
          "internalType": "uint160",
          "name": "sellerTokenId",
          "type": "uint160"
        },
        {
          "internalType": "uint16",
          "name": "itemId",
          "type": "uint16"
        }
      ],
      "name": "claimItem",
      "outputs": [],
      "stateMutability": "nonpayable",
      "type": "function"
    },
    {
      "inputs": [
        {
          "internalType": "uint160",
          "name": "tokenId",
          "type": "uint160"
        }
      ],
      "name": "delegate",
      "outputs": [],
      "stateMutability": "payable",
      "type": "function"
    },
    {
      "inputs": [
        {
          "internalType": "uint160",
          "name": "buyerTokenId",
          "type": "uint160"
        },
        {
          "internalType": "uint160",
          "name": "sellerTokenId",
          "type": "uint160"
        },
        {
          "internalType": "uint16",
          "name": "itemId",
          "type": "uint16"
        }
      ],
      "name": "delegateItem",
      "outputs": [],
      "stateMutability": "payable",
      "type": "function"
    },
    {
      "inputs": [],
      "name": "dotnuggV1",
      "outputs": [
        {
          "internalType": "contract IDotnuggV1",
          "name": "",
          "type": "address"
        }
      ],
      "stateMutability": "view",
      "type": "function"
    },
    {
      "inputs": [
        {
          "internalType": "uint256",
          "name": "tokenId",
          "type": "uint256"
        }
      ],
      "name": "dotnuggV1ImplementerCallback",
      "outputs": [
        {
          "components": [
            {
              "internalType": "uint8[]",
              "name": "ids",
              "type": "uint8[]"
            },
            {
              "internalType": "uint8[]",
              "name": "xovers",
              "type": "uint8[]"
            },
            {
              "internalType": "uint8[]",
              "name": "yovers",
              "type": "uint8[]"
            },
            {
              "internalType": "uint256",
              "name": "version",
              "type": "uint256"
            },
            {
              "internalType": "address",
              "name": "implementer",
              "type": "address"
            },
            {
              "internalType": "uint256",
              "name": "artifactId",
              "type": "uint256"
            },
            {
              "internalType": "string[]",
              "name": "labels",
              "type": "string[]"
            },
            {
              "internalType": "string[]",
              "name": "styles",
              "type": "string[]"
            },
            {
              "internalType": "string",
              "name": "background",
              "type": "string"
            },
            {
              "internalType": "bytes",
              "name": "data",
              "type": "bytes"
            }
          ],
          "internalType": "struct IDotnuggV1Metadata.Memory",
          "name": "data",
          "type": "tuple"
        }
      ],
      "stateMutability": "view",
      "type": "function"
    },
    {
      "inputs": [
        {
          "internalType": "uint256",
          "name": "tokenId",
          "type": "uint256"
        }
      ],
      "name": "dotnuggV1ResolverOf",
      "outputs": [
        {
          "internalType": "address",
          "name": "",
          "type": "address"
        }
      ],
      "stateMutability": "view",
      "type": "function"
    },
    {
      "inputs": [],
      "name": "dotnuggV1StorageProxy",
      "outputs": [
        {
          "internalType": "contract IDotnuggV1StorageProxy",
          "name": "",
          "type": "address"
        }
      ],
      "stateMutability": "view",
      "type": "function"
    },
    {
      "inputs": [
        {
          "internalType": "address",
          "name": "caller",
          "type": "address"
        },
        {
          "internalType": "uint8",
          "name": "feature",
          "type": "uint8"
        },
        {
          "internalType": "uint8",
          "name": "amount",
          "type": "uint8"
        },
        {
          "internalType": "address",
          "name": "",
          "type": "address"
        }
      ],
      "name": "dotnuggV1StoreCallback",
      "outputs": [
        {
          "internalType": "bool",
          "name": "ok",
          "type": "bool"
        }
      ],
      "stateMutability": "nonpayable",
      "type": "function"
    },
    {
      "inputs": [
        {
          "internalType": "uint256[][]",
          "name": "data",
          "type": "uint256[][]"
        },
        {
          "internalType": "uint8",
          "name": "feature",
          "type": "uint8"
        }
      ],
      "name": "dotnuggV1StoreFiles",
      "outputs": [],
      "stateMutability": "nonpayable",
      "type": "function"
    },
    {
      "inputs": [],
      "name": "epoch",
      "outputs": [
        {
          "internalType": "uint24",
          "name": "res",
          "type": "uint24"
        }
      ],
      "stateMutability": "view",
      "type": "function"
    },
    {
      "inputs": [],
      "name": "ethPerShare",
      "outputs": [
        {
          "internalType": "uint96",
          "name": "res",
          "type": "uint96"
        }
      ],
      "stateMutability": "view",
      "type": "function"
    },
    {
      "inputs": [],
      "name": "extractProtocolEth",
      "outputs": [],
      "stateMutability": "nonpayable",
      "type": "function"
    },
    {
      "inputs": [],
      "name": "genesis",
      "outputs": [
        {
          "internalType": "uint256",
          "name": "",
          "type": "uint256"
        }
      ],
      "stateMutability": "view",
      "type": "function"
    },
    {
      "inputs": [
        {
          "internalType": "uint256",
          "name": "tokenId",
          "type": "uint256"
        }
      ],
      "name": "getApproved",
      "outputs": [
        {
          "internalType": "address",
          "name": "",
          "type": "address"
        }
      ],
      "stateMutability": "view",
      "type": "function"
    },
    {
      "inputs": [
        {
          "internalType": "address",
          "name": "owner",
          "type": "address"
        },
        {
          "internalType": "address",
          "name": "operator",
          "type": "address"
        }
      ],
      "name": "isApprovedForAll",
      "outputs": [
        {
          "internalType": "bool",
          "name": "",
          "type": "bool"
        }
      ],
      "stateMutability": "view",
      "type": "function"
    },
    {
      "inputs": [
        {
          "internalType": "address",
          "name": "",
          "type": "address"
        }
      ],
      "name": "isTrusted",
      "outputs": [
        {
          "internalType": "bool",
          "name": "",
          "type": "bool"
        }
      ],
      "stateMutability": "view",
      "type": "function"
    },
    {
      "inputs": [
        {
          "internalType": "uint8",
          "name": "feature",
          "type": "uint8"
        }
      ],
      "name": "lengthOf",
      "outputs": [
        {
          "internalType": "uint8",
          "name": "",
          "type": "uint8"
        }
      ],
      "stateMutability": "view",
      "type": "function"
    },
    {
      "inputs": [
        {
          "internalType": "uint160",
          "name": "tokenId",
          "type": "uint160"
        }
      ],
      "name": "liquidate",
      "outputs": [],
      "stateMutability": "payable",
      "type": "function"
    },
    {
      "inputs": [
        {
          "internalType": "uint160",
          "name": "tokenId",
          "type": "uint160"
        }
      ],
      "name": "loan",
      "outputs": [],
      "stateMutability": "nonpayable",
      "type": "function"
    },
    {
      "inputs": [
        {
          "internalType": "uint160",
          "name": "tokenId",
          "type": "uint160"
        }
      ],
      "name": "loanInfo",
      "outputs": [
        {
          "internalType": "uint96",
          "name": "toLiquidate",
          "type": "uint96"
        },
        {
          "internalType": "uint96",
          "name": "toRebalance",
          "type": "uint96"
        },
        {
          "internalType": "uint96",
          "name": "earned",
          "type": "uint96"
        },
        {
          "internalType": "uint24",
          "name": "epochDue",
          "type": "uint24"
        },
        {
          "internalType": "address",
          "name": "loaner",
          "type": "address"
        }
      ],
      "stateMutability": "view",
      "type": "function"
    },
    {
      "inputs": [
        {
          "internalType": "uint160",
          "name": "tokenId",
          "type": "uint160"
        }
      ],
      "name": "migrate",
      "outputs": [],
      "stateMutability": "nonpayable",
      "type": "function"
    },
    {
      "inputs": [],
      "name": "migrator",
      "outputs": [
        {
          "internalType": "address",
          "name": "",
          "type": "address"
        }
      ],
      "stateMutability": "view",
      "type": "function"
    },
    {
      "inputs": [],
      "name": "minSharePrice",
      "outputs": [
        {
          "internalType": "uint96",
          "name": "res",
          "type": "uint96"
        }
      ],
      "stateMutability": "view",
      "type": "function"
    },
    {
      "inputs": [
        {
          "internalType": "uint160",
          "name": "tokenId",
          "type": "uint160"
        }
      ],
      "name": "mint",
      "outputs": [],
      "stateMutability": "payable",
      "type": "function"
    },
    {
      "inputs": [],
      "name": "name",
      "outputs": [
        {
          "internalType": "string",
          "name": "",
          "type": "string"
        }
      ],
      "stateMutability": "pure",
      "type": "function"
    },
    {
      "inputs": [
        {
          "internalType": "uint256",
          "name": "tokenId",
          "type": "uint256"
        }
      ],
      "name": "ownerOf",
      "outputs": [
        {
          "internalType": "address",
          "name": "",
          "type": "address"
        }
      ],
      "stateMutability": "view",
      "type": "function"
    },
    {
      "inputs": [
        {
          "internalType": "uint160",
          "name": "tokenId",
          "type": "uint160"
        }
      ],
      "name": "proofOf",
      "outputs": [
        {
          "internalType": "uint256",
          "name": "",
          "type": "uint256"
        }
      ],
      "stateMutability": "view",
      "type": "function"
    },
    {
      "inputs": [
        {
          "internalType": "uint160",
          "name": "tokenId",
          "type": "uint160"
        }
      ],
      "name": "proofToDotnuggMetadata",
      "outputs": [
        {
          "internalType": "uint256",
          "name": "proof",
          "type": "uint256"
        },
        {
          "internalType": "uint8[]",
          "name": "defaultIds",
          "type": "uint8[]"
        },
        {
          "internalType": "uint8[]",
          "name": "overxs",
          "type": "uint8[]"
        },
        {
          "internalType": "uint8[]",
          "name": "overys",
          "type": "uint8[]"
        },
        {
          "internalType": "string[]",
          "name": "styles",
          "type": "string[]"
        },
        {
          "internalType": "string",
          "name": "background",
          "type": "string"
        }
      ],
      "stateMutability": "view",
      "type": "function"
    },
    {
      "inputs": [],
      "name": "protocolEth",
      "outputs": [
        {
          "internalType": "uint96",
          "name": "res",
          "type": "uint96"
        }
      ],
      "stateMutability": "view",
      "type": "function"
    },
    {
      "inputs": [
        {
          "internalType": "uint160",
          "name": "tokenId",
          "type": "uint160"
        }
      ],
      "name": "rebalance",
      "outputs": [],
      "stateMutability": "payable",
      "type": "function"
    },
    {
      "inputs": [
        {
          "internalType": "uint160",
          "name": "tokenId",
          "type": "uint160"
        },
        {
          "internalType": "uint8",
          "name": "index0",
          "type": "uint8"
        },
        {
          "internalType": "uint8",
          "name": "index1",
          "type": "uint8"
        }
      ],
      "name": "rotate",
      "outputs": [],
      "stateMutability": "nonpayable",
      "type": "function"
    },
    {
      "inputs": [
        {
          "internalType": "address",
          "name": "",
          "type": "address"
        },
        {
          "internalType": "address",
          "name": "",
          "type": "address"
        },
        {
          "internalType": "uint256",
          "name": "",
          "type": "uint256"
        }
      ],
      "name": "safeTransferFrom",
      "outputs": [],
      "stateMutability": "payable",
      "type": "function"
    },
    {
      "inputs": [
        {
          "internalType": "address",
          "name": "",
          "type": "address"
        },
        {
          "internalType": "address",
          "name": "",
          "type": "address"
        },
        {
          "internalType": "uint256",
          "name": "",
          "type": "uint256"
        },
        {
          "internalType": "bytes",
          "name": "",
          "type": "bytes"
        }
      ],
      "name": "safeTransferFrom",
      "outputs": [],
      "stateMutability": "payable",
      "type": "function"
    },
    {
      "inputs": [
        {
          "internalType": "address",
          "name": "operator",
          "type": "address"
        },
        {
          "internalType": "bool",
          "name": "approved",
          "type": "bool"
        }
      ],
      "name": "setApprovalForAll",
      "outputs": [],
      "stateMutability": "nonpayable",
      "type": "function"
    },
    {
      "inputs": [
        {
          "internalType": "uint160",
          "name": "tokenId",
          "type": "uint160"
        },
        {
          "internalType": "uint16",
          "name": "itemId",
          "type": "uint16"
        },
        {
          "internalType": "uint256",
          "name": "x",
          "type": "uint256"
        },
        {
          "internalType": "uint256",
          "name": "y",
          "type": "uint256"
        }
      ],
      "name": "setDotnuggV1AnchorOverrides",
      "outputs": [],
      "stateMutability": "nonpayable",
      "type": "function"
    },
    {
      "inputs": [
        {
          "internalType": "uint160",
          "name": "tokenId",
          "type": "uint160"
        },
        {
          "internalType": "string",
          "name": "s",
          "type": "string"
        }
      ],
      "name": "setDotnuggV1Background",
      "outputs": [],
      "stateMutability": "nonpayable",
      "type": "function"
    },
    {
      "inputs": [
        {
          "internalType": "uint256",
          "name": "tokenId",
          "type": "uint256"
        },
        {
          "internalType": "address",
          "name": "to",
          "type": "address"
        }
      ],
      "name": "setDotnuggV1Resolver",
      "outputs": [],
      "stateMutability": "nonpayable",
      "type": "function"
    },
    {
      "inputs": [
        {
          "internalType": "uint160",
          "name": "tokenId",
          "type": "uint160"
        },
        {
          "internalType": "uint16",
          "name": "itemId",
          "type": "uint16"
        },
        {
          "internalType": "string",
          "name": "s",
          "type": "string"
        }
      ],
      "name": "setDotnuggV1Style",
      "outputs": [],
      "stateMutability": "nonpayable",
      "type": "function"
    },
    {
      "inputs": [
        {
          "internalType": "address",
          "name": "user",
          "type": "address"
        },
        {
          "internalType": "bool",
          "name": "trusted",
          "type": "bool"
        }
      ],
      "name": "setIsTrusted",
      "outputs": [],
      "stateMutability": "nonpayable",
      "type": "function"
    },
    {
      "inputs": [
        {
          "internalType": "address",
          "name": "_migrator",
          "type": "address"
        }
      ],
      "name": "setMigrator",
      "outputs": [],
      "stateMutability": "nonpayable",
      "type": "function"
    },
    {
      "inputs": [],
      "name": "stakedEth",
      "outputs": [
        {
          "internalType": "uint96",
          "name": "res",
          "type": "uint96"
        }
      ],
      "stateMutability": "view",
      "type": "function"
    },
    {
      "inputs": [],
      "name": "stakedShares",
      "outputs": [
        {
          "internalType": "uint64",
          "name": "res",
          "type": "uint64"
        }
      ],
      "stateMutability": "view",
      "type": "function"
    },
    {
      "inputs": [
        {
          "internalType": "bytes4",
          "name": "interfaceId",
          "type": "bytes4"
        }
      ],
      "name": "supportsInterface",
      "outputs": [
        {
          "internalType": "bool",
          "name": "",
          "type": "bool"
        }
      ],
      "stateMutability": "view",
      "type": "function"
    },
    {
      "inputs": [
        {
          "internalType": "uint160",
          "name": "tokenId",
          "type": "uint160"
        },
        {
          "internalType": "uint96",
          "name": "floor",
          "type": "uint96"
        }
      ],
      "name": "swap",
      "outputs": [],
      "stateMutability": "nonpayable",
      "type": "function"
    },
    {
      "inputs": [
        {
          "internalType": "uint160",
          "name": "tokenId",
          "type": "uint160"
        },
        {
          "internalType": "uint16",
          "name": "itemId",
          "type": "uint16"
        },
        {
          "internalType": "uint96",
          "name": "floor",
          "type": "uint96"
        }
      ],
      "name": "swapItem",
      "outputs": [],
      "stateMutability": "nonpayable",
      "type": "function"
    },
    {
      "inputs": [],
      "name": "symbol",
      "outputs": [
        {
          "internalType": "string",
          "name": "",
          "type": "string"
        }
      ],
      "stateMutability": "pure",
      "type": "function"
    },
    {
      "inputs": [],
      "name": "testnet__exploit",
      "outputs": [],
      "stateMutability": "nonpayable",
      "type": "function"
    },
    {
      "inputs": [
        {
          "internalType": "uint256",
          "name": "tokenId",
          "type": "uint256"
        }
      ],
      "name": "tokenURI",
      "outputs": [
        {
          "internalType": "string",
          "name": "res",
          "type": "string"
        }
      ],
      "stateMutability": "view",
      "type": "function"
    },
    {
      "inputs": [],
      "name": "totalSupply",
      "outputs": [
        {
          "internalType": "uint256",
          "name": "res",
          "type": "uint256"
        }
      ],
      "stateMutability": "view",
      "type": "function"
    },
    {
      "inputs": [
        {
          "internalType": "address",
          "name": "",
          "type": "address"
        },
        {
          "internalType": "address",
          "name": "",
          "type": "address"
        },
        {
          "internalType": "uint256",
          "name": "",
          "type": "uint256"
        }
      ],
      "name": "transferFrom",
      "outputs": [],
      "stateMutability": "payable",
      "type": "function"
    },
    {
      "inputs": [
        {
          "internalType": "uint160",
          "name": "tokenId",
          "type": "uint160"
        },
        {
          "internalType": "address",
          "name": "to",
          "type": "address"
        }
      ],
      "name": "trustedMint",
      "outputs": [],
      "stateMutability": "payable",
      "type": "function"
    },
    {
      "inputs": [
        {
          "internalType": "address",
          "name": "sender",
          "type": "address"
        },
        {
          "internalType": "uint160",
          "name": "tokenId",
          "type": "uint160"
        }
      ],
      "name": "valueForDelegate",
      "outputs": [
        {
          "internalType": "bool",
          "name": "canDelegate",
          "type": "bool"
        },
        {
          "internalType": "uint96",
          "name": "nextSwapAmount",
          "type": "uint96"
        },
        {
          "internalType": "uint96",
          "name": "senderCurrentOffer",
          "type": "uint96"
        }
      ],
      "stateMutability": "view",
      "type": "function"
    },
    {
      "inputs": [
        {
          "internalType": "uint160",
          "name": "tokenId",
          "type": "uint160"
        }
      ],
      "name": "valueForLiquidate",
      "outputs": [
        {
          "internalType": "uint96",
          "name": "res",
          "type": "uint96"
        }
      ],
      "stateMutability": "view",
      "type": "function"
    },
    {
      "inputs": [
        {
          "internalType": "uint160",
          "name": "tokenId",
          "type": "uint160"
        }
      ],
      "name": "valueForRebalance",
      "outputs": [
        {
          "internalType": "uint96",
          "name": "res",
          "type": "uint96"
        }
      ],
      "stateMutability": "view",
      "type": "function"
    }
  ],
  "transactionHash": "0x3d891ed59ca387c408ef4369591ffdf37d03a7df3c894153c2ff34d23019a5e7",
  "args": [
    "0x420690542c8DeDDe5aF93684897CE3CA7422FE57"
  ],
  "solcInputHash": "db148eb2452c101eb51bdf319883f42d",
  "bytecode": "0x60a06040523480156200001157600080fd5b5060405162005d9338038062005d938339810160408190526200003491620001fe565b4360808190526040805191825260456020830152610bb88282015251829133917f88ea8c578fe7aed8ab10316120da68d9a7d194322df00cf43852ead6e4b55eaf9181900360600190a16001600160a01b03811660008181526003602090815260408083208054600160ff1991821681179092553085529382902080549094168117909355519182527fe95aec380cae16330d146d5499ef7db6f3657e477104a733e771bc09e500d986910160405180910390a2506001600160a01b0381166200012a5760405162461bcd60e51b8152602060048201526003602482015262118e8d60ea1b604482015260640160405180910390fd5b600680546001600160a01b0319166001600160a01b03831690811790915560408051630354740160e31b81529051631aa3a008916004808201926020929091908290030181600087803b1580156200018157600080fd5b505af115801562000196573d6000803e3d6000fd5b505050506040513d601f19601f82011682018060405250810190620001bc9190620001fe565b600580546001600160a01b0319166001600160a01b039290921691909117905550620002259050565b6001600160a01b0381168114620001fb57600080fd5b50565b6000602082840312156200021157600080fd5b81516200021e81620001e5565b9392505050565b608051615b21620002726000396000818161074a0152818161095101528181610d530152818161162d015281816129d70152818161484a01528181614ab10152614cb90152615b216000f3fe60806040526004361061038c5760003560e01c8063900cf0cf116101dc578063b91b6cbf11610102578063e985e9c5116100a0578063f71d09041161006f578063f71d090414610b3c578063fb306b0f14610b51578063fb774eb814610b71578063fca840ae14610b9157600080fd5b8063e985e9c514610ad2578063ee0ca98914610af2578063f2589a6314610b07578063f666b9a614610b2757600080fd5b8063c5c8beeb116100dc578063c5c8beeb14610a07578063c87b56dd14610a27578063d7dc681914610a47578063e162375214610ab257600080fd5b8063b91b6cbf146109c1578063beace31f146109e1578063c06c822f146109f457600080fd5b8063998a04911161017a578063a7f0b3de11610149578063a7f0b3de1461093f578063afcde30814610973578063b88d4fde14610993578063b88ea014146109a157600080fd5b8063998a0491146108a05780639b917352146108d2578063a22cb465146108ff578063a4d0b4411461091f57600080fd5b80639531b94d116101b65780639531b94d146107c957806395d89b41146107de57806396d648791461082457806399081a261461085457600080fd5b8063900cf0cf1461073257806390a577ef1461077b578063939f4130146107a957600080fd5b80635558e4e2116102c157806370a082311161025f5780637cd07e471161022e5780637cd07e47146106b257806381dcebcf146106d25780638307fa5b146106f25780638e3b3a6b1461071257600080fd5b806370a082311461062c57806372b1c7581461064d578063750656f61461067f57806376df83141461069257600080fd5b8063608cceb01161029b578063608cceb0146105ac5780636352211e146105cc57806364d350bd146105ec578063665557c81461060c57600080fd5b80635558e4e214610564578063570f67ad1461058457806358ff027f1461059957600080fd5b80631056b9d51161032e57806323b872dd1161030857806323b872dd1461050057806323cf31181461050e5780633853d8a11461052e57806342842e0e1461050057600080fd5b80631056b9d5146104aa5780631393916a146104bd57806318160ddd146104dd57600080fd5b806306fdde031161036a57806306fdde03146103fd578063081812fc1461044c578063095ea7b314610484578063099afa171461049757600080fd5b806301ffc9a7146103915780630251f62c146103c657806306bd17d5146103e8575b600080fd5b34801561039d57600080fd5b506103b16103ac366004614e15565b610bb1565b60405190151581526020015b60405180910390f35b3480156103d257600080fd5b506103e66103e1366004614e6c565b610ce2565b005b3480156103f457600080fd5b506103e6610e2c565b34801561040957600080fd5b5060408051808201909152601681527f4e7567672046756e6769626c6520546f6b656e2056310000000000000000000060208201525b6040516103bd9190614f03565b34801561045857600080fd5b5061046c610467366004614f16565b610e38565b6040516001600160a01b0390911681526020016103bd565b6103e6610492366004614f2f565b610e4b565b6103e66104a5366004614e6c565b610f24565b6103e66104b8366004614f6d565b6111a5565b3480156104c957600080fd5b506103e66104d8366004614fb4565b611409565b3480156104e957600080fd5b506104f261148e565b6040519081526020016103bd565b6103e661038c366004614ff2565b34801561051a57600080fd5b506103e6610529366004614e6c565b6114a7565b34801561053a57600080fd5b506105476402540be40081565b6040516bffffffffffffffffffffffff90911681526020016103bd565b34801561057057600080fd5b5061046c61057f366004614f16565b61151c565b34801561059057600080fd5b506103e661154e565b6103e66105a7366004614e6c565b6115c8565b3480156105b857600080fd5b506105476105c7366004614e6c565b6117d0565b3480156105d857600080fd5b5061046c6105e7366004614f16565b6117e6565b3480156105f857600080fd5b506103b1610607366004615044565b6117f4565b34801561061857600080fd5b506103e6610627366004614e6c565b6118d4565b34801561063857600080fd5b506104f2610647366004614e6c565b50600090565b34801561065957600080fd5b5061066d610668366004614e6c565b61197a565b6040516103bd9695949392919061512f565b6103e661068d366004614e6c565b611d6a565b34801561069e57600080fd5b506103e66106ad3660046151a3565b611e54565b3480156106be57600080fd5b50600a5461046c906001600160a01b031681565b3480156106de57600080fd5b506103e66106ed366004614e6c565b611e99565b3480156106fe57600080fd5b506103e661070d3660046151df565b612014565b34801561071e57600080fd5b5060065461046c906001600160a01b031681565b34801561073e57600080fd5b5060405162ffffff60457f0000000000000000000000000000000000000000000000000000000000000000430304610bb8011681526020016103bd565b34801561078757600080fd5b506107906120e1565b60405167ffffffffffffffff90911681526020016103bd565b3480156107b557600080fd5b506103e66107c4366004614e6c565b6120ef565b3480156107d557600080fd5b50610547612172565b3480156107ea57600080fd5b5060408051808201909152600681527f4e55474746540000000000000000000000000000000000000000000000000000602082015261043f565b34801561083057600080fd5b506103b161083f366004614e6c565b60036020526000908152604090205460ff1681565b34801561086057600080fd5b5061087461086f366004615204565b612188565b6040805193151584526bffffffffffffffffffffffff92831660208501529116908201526060016103bd565b3480156108ac57600080fd5b506108c06108bb366004615232565b6122a2565b60405160ff90911681526020016103bd565b3480156108de57600080fd5b506108f26108ed366004614f16565b6122b0565b6040516103bd919061524d565b34801561090b57600080fd5b506103e661091a366004614fb4565b612643565b34801561092b57600080fd5b506103e661093a366004615498565b6126cd565b34801561094b57600080fd5b506104f27f000000000000000000000000000000000000000000000000000000000000000081565b34801561097f57600080fd5b506103e661098e3660046154f8565b61274a565b6103e661038c366004615548565b3480156109ad57600080fd5b506104f26109bc366004614e6c565b6127bd565b3480156109cd57600080fd5b5060055461046c906001600160a01b031681565b6103e66109ef366004615204565b612839565b6103e6610a02366004614e6c565b612918565b348015610a1357600080fd5b506103e6610a223660046155e4565b612a81565b348015610a3357600080fd5b5061043f610a42366004614f16565b612c17565b348015610a5357600080fd5b50610a67610a62366004614e6c565b612d4f565b604080516bffffffffffffffffffffffff96871681529486166020860152929094169183019190915262ffffff1660608201526001600160a01b03909116608082015260a0016103bd565b348015610abe57600080fd5b506103e6610acd366004615610565b612e54565b348015610ade57600080fd5b506103b1610aed366004615204565b612f17565b348015610afe57600080fd5b50610547612f23565b348015610b1357600080fd5b50610547610b22366004614e6c565b612f2e565b348015610b3357600080fd5b50610547612f44565b348015610b4857600080fd5b50610547612f52565b348015610b5d57600080fd5b506103e6610b6c366004615654565b612f5f565b348015610b7d57600080fd5b506103e6610b8c366004614f6d565b612f6c565b348015610b9d57600080fd5b506103e6610bac3660046156cf565b613130565b60007fffffffff0000000000000000000000000000000000000000000000000000000082167f46594f50000000000000000000000000000000000000000000000000000000001480610c4457507fffffffff0000000000000000000000000000000000000000000000000000000082167f80ac58cd00000000000000000000000000000000000000000000000000000000145b80610c9057507fffffffff0000000000000000000000000000000000000000000000000000000082167f5b5e139f00000000000000000000000000000000000000000000000000000000145b80610cdc57507fffffffff0000000000000000000000000000000000000000000000000000000082167f01ffc9a700000000000000000000000000000000000000000000000000000000145b92915050565b33610cec82613279565b6001600160a01b031614610d475760405162461bcd60e51b815260206004820152600360248201527f4c3a30000000000000000000000000000000000000000000000000000000000060448201526064015b60405180910390fd5b6000610d86610bb860457f00000000000000000000000000000000000000000000000000000000000000004303040133610d7f612f52565b60006132fd565b6001600160a01b0383166000908152600e602052604090208190559050610dac82613349565b633b9aca0060a082901c683fffffffffffffffff1602610dda336bffffffffffffffffffffffff831661341a565b6040516bffffffffffffffffffffffff821681526001600160a01b038416907f329014c0969cfe0727bc4e8b103aa6ee8cbcfa982e51a35292749c83a79c2b9e906020015b60405180910390a2505050565b610e36334761341a565b565b6000610cdc610e4683613475565b61348f565b33610e5d610e5883613475565b613279565b6001600160a01b031614610eb35760405162461bcd60e51b815260206004820152600360248201527f5a3a3100000000000000000000000000000000000000000000000000000000006044820152606401610d3e565b60008181526001602052604080822080547fffffffffffffffffffffffff0000000000000000000000000000000000000000166001600160a01b0386169081179091559051839233917f8c5be1e5ebec7d5bd14f71427d1e84f3dd0314c0f7b2291e5b200ac8c7c3b9259190a45050565b600080610f318333613505565b915091506000836001600160a01b0316826040015162ffffff16148015610f5757508151155b15611009576402540be400341015610fb15760405162461bcd60e51b815260206004820152600360248201527f533a3100000000000000000000000000000000000000000000000000000000006044820152606401610d3e565b602082015115610fc357610fc361570b565b610fcc34613551565b9050610fe3826040015183606001518360006132fd565b8355610fef600061356c565b610ff8846136a6565b61100460003086613794565b61114d565b81516110575760405162461bcd60e51b815260206004820152600360248201527f533a3400000000000000000000000000000000000000000000000000000000006044820152606401610d3e565b60208201511561112557816040015162ffffff1661107883602001516137e3565b62ffffff1610156110cb5760405162461bcd60e51b815260206004820152600360248201527f533a5200000000000000000000000000000000000000000000000000000000006044820152606401610d3e565b602082015160ff1c600114156111255760405162461bcd60e51b8152600401610d3e9060208082526004908201527f4e4f504500000000000000000000000000000000000000000000000000000000604082015260600190565b815160ff1c6001146111405761113b83836137f4565b61114a565b61114a8383613921565b90505b604080513381526bffffffffffffffffffffffff831660208201526001600160a01b038616917f972a7cf16c1aeec2ce89ff255260049c0c525f15b74116b8fe61993cda32f99a91015b60405180910390a250505050565b336111af84613279565b6001600160a01b0316146112055760405162461bcd60e51b815260206004820152600360248201527f533a3600000000000000000000000000000000000000000000000000000000006044820152606401610d3e565b600080611213848487613ad9565b805191935091506112665760405162461bcd60e51b815260206004820152600360248201527f533a5300000000000000000000000000000000000000000000000000000000006044820152606401610d3e565b60208101511561133457806040015162ffffff1661128782602001516137e3565b62ffffff1610156112da5760405162461bcd60e51b815260206004820152600360248201527f533a3700000000000000000000000000000000000000000000000000000000006044820152606401610d3e565b602081015160ff1c600114156113345760405162461bcd60e51b8152600401610d3e9060208082526004908201527f4e4f504500000000000000000000000000000000000000000000000000000000604082015260600190565b60008160200151600014801561134e5750815160ff1c6001145b6113615761135c83836137f4565b61136b565b61136b8383613921565b90506001600160a01b03851660a085901b75ffff00000000000000000000000000000000000000001617604080516001600160a01b03891681526bffffffffffffffffffffffff8416602082015275ffffffffffffffffffffffffffffffffffffffffffff92909216917f33060af8ae34fc0f32be3607dbc145e3272347f98ede9556ccb9374fd0ab43d891015b60405180910390a2505050505050565b611411613b35565b6001600160a01b03821660008181526003602090815260409182902080547fffffffffffffffffffffffffffffffffffffffffffffffffffffffffffffff001685151590811790915591519182527fe95aec380cae16330d146d5499ef7db6f3657e477104a733e771bc09e500d986910160405180910390a25050565b60006114986120e1565b67ffffffffffffffff16905090565b6114af613b35565b600a80547fffffffffffffffffffffffff0000000000000000000000000000000000000000166001600160a01b0383169081179091556040519081527fc97e86a927b4a897832650767255fd568e377e7fbe9586c81d26b77a2c3ffc8b906020015b60405180910390a150565b60006007600061152b84613475565b6001600160a01b0390811682526020820192909252604001600020541692915050565b611556613b35565b600b5461157233825b6bffffffffffffffffffffffff1661341a565b7fffffffffffffffffffffffffffffffffffffffff000000000000000000000000811690507f227a473b70d2f893cc7659219575c030a63b5743024fe1e0c1a680e708b1525a8160405161151191815260200190565b60008060008060006115d986612d4f565b945094509450945094506115ec86613279565b6001600160a01b0316306001600160a01b03161461160c5761160c61570b565b6001600160a01b0386166000908152600e602052604081205533610bb860457f00000000000000000000000000000000000000000000000000000000000000004303040162ffffff168362ffffff16106116b95761166a3383613b94565b6116b65760405162461bcd60e51b815260206004820152600360248201527f4c3a3100000000000000000000000000000000000000000000000000000000006044820152606401610d3e565b50805b60006116c434613551565b9050806bffffffffffffffffffffffff16876bffffffffffffffffffffffff1611156117325760405162461bcd60e51b815260206004820152600360248201527f4c3a3200000000000000000000000000000000000000000000000000000000006044820152606401610d3e565b600061173e8883615769565b905061175261174d8289615796565b613be1565b61176a83876bffffffffffffffffffffffff1661341a565b611774838a613cb1565b604080516bffffffffffffffffffffffff841681523360208201526001600160a01b038b16917fd39832526202186065fc0dcdd28b38f6468549c094305337b697319814fae337910160405180910390a2505050505050505050565b60006117db82612d4f565b509195945050505050565b6000610cdc610e5883613475565b6005546000906001600160a01b031633146118515760405162461bcd60e51b815260206004820152600360248201527f443a3000000000000000000000000000000000000000000000000000000000006044820152606401610d3e565b506001600160a01b03841660009081526003602052604090205460ff168061187b575060006118cc565b60085460008461188b8388613d66565b61189591906157c6565b60ff1690506118c68260086118aa89826157eb565b84811b600190921b6000190160ff919091161b19919091161790565b60085550505b949350505050565b6000806118e18333613505565b336000908152600183016020526040812055909250905061190181613d88565b1561191957600082556119143384613cb1565b61193f565b61193f3361155f8360200151633b9aca0060a09190911c683fffffffffffffffff160290565b6040513381526001600160a01b038416907f938187ad30d2557f8eb68b094a2305a858ec4f65c86a957b4bc26d9c0a496fef90602001610e1f565b6000606080606080606061198d876127bd565b955085611a05576119b66119b16119ac896001600160a01b0316613e74565b613e97565b613ea2565b955085611a055760405162461bcd60e51b815260206004820152600360248201527f503a4c00000000000000000000000000000000000000000000000000000000006044820152606401610d3e565b604080516008808252610120820190925290602082016101008036833750506040805160088082526101208201909252929750905060208201610100803683375050604080516008808252610120820190925292965090506020820161010080368337019050506040805160088082526101208201909252919450816020015b6060815260200190600190039081611a855790505091508560031685600081518110611ab357611ab3615814565b602002602001019060ff16908160ff168152505060005b60078160ff161015611cba576000611ae288836140fd565b905061ffff8116611af35750611ca8565b865160ff600883901c81169190831690899083908110611b1557611b15615814565b602002602001015160ff1660001415611ca4576001600160a01b038b16600090815260046020908152604080832061ffff871684529091529020548751600682901c90899060ff8616908110611b6d57611b6d615814565b60ff90921660209283029190910190910152603f8116898460ff1681518110611b9857611b98615814565b60ff9092166020928302919091018201526001600160a01b038d16600090815260048252604080822061ffff88168352600101909252208054611bda90615843565b80601f0160208091040260200160405190810160405280929190818152602001828054611c0690615843565b8015611c535780601f10611c2857610100808354040283529160200191611c53565b820191906000526020600020905b815481529060010190602001808311611c3657829003601f168201915b5050505050878460ff1681518110611c6d57611c6d615814565b6020026020010181905250818a8460ff1681518110611c8e57611c8e615814565b602002602001019060ff16908160ff1681525050505b5050505b80611cb281615897565b915050611aca565b506001600160a01b03871660009081526004602052604090206002018054611ce190615843565b80601f0160208091040260200160405190810160405280929190818152602001828054611d0d90615843565b8015611d5a5780601f10611d2f57610100808354040283529160200191611d5a565b820191906000526020600020905b815481529060010190602001808311611d3d57829003601f168201915b5050505050905091939550919395565b611d786101f46127106158b7565b63ffffffff16816001600160a01b0316108015611d9f57506101f46001600160a01b038216115b611deb5760405162461bcd60e51b815260206004820152600360248201527f473a3100000000000000000000000000000000000000000000000000000000006044820152606401610d3e565b611df5600061356c565b611dfe8161411a565b611e083382614234565b604080516001600160a01b03831681526bffffffffffffffffffffffff341660208201527f7fa02ea2addb9a3ae24bb783f3817cbebd2aaa24af58c5eee6faf5b776797f959101611511565b611e5e33846142a7565b506000611e6a846127bd565b9050611e7781848461430a565b6001600160a01b03909416600090815260096020526040902093909355505050565b600a546001600160a01b0316611ef15760405162461bcd60e51b815260206004820152600360248201527f543a3400000000000000000000000000000000000000000000000000000000006044820152606401610d3e565b6000611efc826127bd565b90506000611f0983614342565b600a546040517f80011aa70000000000000000000000000000000000000000000000000000000081526001600160a01b038681166004830152602482018690523360448301529293509116906380011aa7906bffffffffffffffffffffffff8416906064016000604051808303818588803b158015611f8757600080fd5b505af1158015611f9b573d6000803e3d6000fd5b5050600a54604080516001600160a01b039283168152918816602083015281018690523360608201526bffffffffffffffffffffffff851660808201527f58ca548c1fd63f641dfb02f79df36d4f29bd995f0733d2ed3595b6cfde7db4e1935060a00191506120079050565b60405180910390a1505050565b6120263361202184613475565b61450b565b6120725760405162461bcd60e51b815260206004820152600360248201527f463a3500000000000000000000000000000000000000000000000000000000006044820152606401610d3e565b60008281526007602052604080822080547fffffffffffffffffffffffff0000000000000000000000000000000000000000166001600160a01b0385161790555183917fb0f631a5014e4a5b1bb62ae2778ae0ce4d19ae55fbdb59b1d39f58f39190fe6091a25050565b905090565b60006120dc600b5460c01c90565b60006120fa82614342565b905061211433826bffffffffffffffffffffffff1661341a565b604080516001600160a01b03841681523360208201526bffffffffffffffffffffffff8316918101919091527f6866bab9e57b1b8d6e867bb41dc78ec6f8fcbdca05d8f065e3353df689741ff2906060015b60405180910390a15050565b600061217f600b5461451f565b50919392505050565b6001600080806121988587613505565b8051909250151590506121e757846001600160a01b0316816040015162ffffff1614156121d6576121cf6121ca612172565b614586565b925061226d565b60008060009350935093505061229b565b602081015160ff1c60011480156122025750805160ff1c6001145b1561220c57600093505b6020810151815160a090811c683fffffffffffffffff908116633b9aca0090810296509290911c1602915061223f612f52565b6bffffffffffffffffffffffff16836bffffffffffffffffffffffff16101561226d5761226a612f52565b92505b6bffffffffffffffffffffffff831661228d576402540be4009250612299565b612296836145c0565b92505b505b9250925092565b6000610cdc60085483613d66565b61230f6040518061014001604052806060815260200160608152602001606081526020016000815260200160006001600160a01b0316815260200160008152602001606081526020016060815260200160608152602001606081525090565b61231b61066883613475565b61010087015260e086015260408501526020840152825250600860405190808252806020026020018201604052801561236857816020015b60608152602001906001900390816123535790505b5060c082019081526001606083015260a0820183905230608083015260408051808201909152600481527f42415345000000000000000000000000000000000000000000000000000000006020820152905180516000906123cb576123cb615814565b60200260200101819052506040518060400160405280600481526020017f45594553000000000000000000000000000000000000000000000000000000008152508160c0015160018151811061242357612423615814565b60200260200101819052506040518060400160405280600581526020017f4d4f5554480000000000000000000000000000000000000000000000000000008152508160c0015160028151811061247b5761247b615814565b60200260200101819052506040518060400160405280600481526020017f48414952000000000000000000000000000000000000000000000000000000008152508160c001516003815181106124d3576124d3615814565b60200260200101819052506040518060400160405280600381526020017f48415400000000000000000000000000000000000000000000000000000000008152508160c0015160048151811061252b5761252b615814565b60200260200101819052506040518060400160405280600481526020017f4241434b000000000000000000000000000000000000000000000000000000008152508160c0015160058151811061258357612583615814565b60200260200101819052506040518060400160405280600481526020017f4e45434b000000000000000000000000000000000000000000000000000000008152508160c001516006815181106125db576125db615814565b60200260200101819052506040518060400160405280600481526020017f484f4c44000000000000000000000000000000000000000000000000000000008152508160c0015160078151811061263357612633615814565b6020026020010181905250919050565b3360008181526002602090815260408083206001600160a01b0387168085529083529281902080547fffffffffffffffffffffffffffffffffffffffffffffffffffffffffffffff001686151590811790915590519081529192917f17307eab39ab6107e8899845ad3d59bd9653f200f220920489ca2b5937696c31910160405180910390a35050565b6126d733846142a7565b506001600160a01b038316600090815260046020908152604080832061ffff861684526001018252909120825161271092840190614d85565b506040516001600160a01b038416907fb0f631a5014e4a5b1bb62ae2778ae0ce4d19ae55fbdb59b1d39f58f39190fe6090600090a2505050565b61275433836142a7565b506001600160a01b0382166000908152600460209081526040909120825161278492600290920191840190614d85565b506040516001600160a01b038316907fb0f631a5014e4a5b1bb62ae2778ae0ce4d19ae55fbdb59b1d39f58f39190fe6090600090a25050565b6001600160a01b038116600090815260096020526040812054156127f757506001600160a01b031660009081526009602052604090205490565b60008060006128046145d9565b925092509250846001600160a01b03168214801561282157508215155b1561282e57949350505050565b506000949350505050565b612841613b35565b6101f46001600160a01b03831610801561286357506001600160a01b03821615155b6128af5760405162461bcd60e51b815260206004820152600360248201527f473a3100000000000000000000000000000000000000000000000000000000006044820152606401610d3e565b6128b9600061356c565b6128c28261411a565b6128cc8183614234565b604080516001600160a01b03841681526bffffffffffffffffffffffff341660208201527f7fa02ea2addb9a3ae24bb783f3817cbebd2aaa24af58c5eee6faf5b776797f959101612166565b600080600061292684612d4f565b945050935093505061293784613279565b6001600160a01b0316306001600160a01b0316146129575761295761570b565b34836bffffffffffffffffffffffff1611156129b55760405162461bcd60e51b815260206004820152600360248201527f4c3a3300000000000000000000000000000000000000000000000000000000006044820152606401610d3e565b60006129c034613551565b90506129cb81613be1565b6000612a03610bb860457f00000000000000000000000000000000000000000000000000000000000000004303040184610d7f612f52565b6001600160a01b0387166000908152600e602052604090208190559050612a38836bffffffffffffffffffffffff861661341a565b6040516bffffffffffffffffffffffff831681526001600160a01b038716907f5062495abf7ea897bb9561849f52ada09e05b75474d32015ee99c964570e7ffa906020016113f9565b33612a8b83613279565b6001600160a01b031614612ae15760405162461bcd60e51b815260206004820152600360248201527f533a4100000000000000000000000000000000000000000000000000000000006044820152606401610d3e565b612ae9612f52565b6bffffffffffffffffffffffff16816bffffffffffffffffffffffff161015612b545760405162461bcd60e51b815260206004820152600360248201527f533a4200000000000000000000000000000000000000000000000000000000006044820152606401610d3e565b612b5d82613349565b600080612b6a8433613505565b8051919350915015612bbe5760405162461bcd60e51b815260206004820152600560248201527f4e4f5045320000000000000000000000000000000000000000000000000000006044820152606401610d3e565b612bcc6000338560016132fd565b82556040516bffffffffffffffffffffffff841681526001600160a01b038516907fbddcaaa7eee060454ed44e36de17b53f71b5de19112296cfce9d61c8a4de878390602001611197565b60606000612c2483613475565b6006549091506001600160a01b039081169063448e347f9030908690612c4b90861661151c565b60408051808201909152600681527f4e55474746540000000000000000000000000000000000000000000000000000602082015260408051808201909152601681527f4e7567672046756e6769626c6520546f6b656e20563100000000000000000000602082015260016040518763ffffffff1660e01b8152600401612cd6969594939291906158d6565b60006040518083038186803b158015612cee57600080fd5b505afa158015612d02573d6000803e3d6000fd5b505050506040513d6000823e601f3d9081017fffffffffffffffffffffffffffffffffffffffffffffffffffffffffffffffe0168201604052612d48919081019061593d565b9392505050565b6001600160a01b0381166000908152600e60205260408120548190819081908190612d7981614600565b91506001600160a01b038216612dd15760405162461bcd60e51b815260206004820152600360248201527f4c3a3400000000000000000000000000000000000000000000000000000000006044820152606401610d3e565b633b9aca0060a082901c683fffffffffffffffff16026000612df1612f52565b612710606484020497509050612e078783615796565b9750806bffffffffffffffffffffffff16886bffffffffffffffffffffffff161015612e3557878103612e38565b60005b95506045612e45846137e3565b01945050505091939590929450565b604082108015612e645750604081105b612eb05760405162461bcd60e51b815260206004820152600b60248201527f554e544545535445443a310000000000000000000000000000000000000000006044820152606401610d3e565b612eba33856142a7565b506001600160a01b038416600081815260046020908152604080832061ffff88168452909152808220600685901b86179055517fb0f631a5014e4a5b1bb62ae2778ae0ce4d19ae55fbdb59b1d39f58f39190fe609190a250505050565b6000612d488284613b94565b60006120dc600b5490565b6000612f3982612d4f565b509295945050505050565b60006120dc600b5460601c90565b60006120dc600b54614611565b612f67613b35565b505050565b33612f7684613279565b6001600160a01b031614612fcc5760405162461bcd60e51b815260206004820152600360248201527f533a3900000000000000000000000000000000000000000000000000000000006044820152606401610d3e565b600080612fda848487613ad9565b6001600160a01b0387166000908152600183016020526040812055909250905061300381613d88565b1561309d57600080835561ffff84168152600c602052604090205461306a5760405162461bcd60e51b815260206004820152600360248201527f503a3300000000000000000000000000000000000000000000000000000000006044820152606401610d3e565b6130748584614654565b61ffff83166000908152600c60205260408120805491613093836159ab565b91905055506130ca565b6130ca6130a986613279565b6020830151683fffffffffffffffff60a09190911c16633b9aca000261155f565b6040516001600160a01b038681168252851660a085901b75ffff00000000000000000000000000000000000000001617907f7a0576b9edc37a53c7e05ae220b6a871cf584ae6724a63f704609baec1e72853906020015b60405180910390a25050505050565b3361313a84613279565b6001600160a01b0316146131905760405162461bcd60e51b815260206004820152600360248201527f533a4300000000000000000000000000000000000000000000000000000000006044820152606401610d3e565b61319a8383614685565b61ffff82166000908152600c602052604081208054916131b9836159c2565b91905055506000806131cc858587613ad9565b80519193509150156132205760405162461bcd60e51b815260206004820152600360248201527f533a4400000000000000000000000000000000000000000000000000000000006044820152606401610d3e565b61322e6000868560016132fd565b82556040516bffffffffffffffffffffffff841681526001600160a01b038616907fbddcaaa7eee060454ed44e36de17b53f71b5de19112296cfce9d61c8a4de878390602001613121565b6000613284826146b6565b6132d05760405162461bcd60e51b815260206004820152600560248201527f543a393a320000000000000000000000000000000000000000000000000000006044820152606401610d3e565b506001600160a01b0380821660009081526020819052604090205416806132f8575030919050565b919050565b600061330981866146c9565b9050613315818561471b565b9050811561332b57613328816001614750565b90505b6133358184614787565b9050613340816147e0565b95945050505050565b613353338261450b565b801561336f5750306133648261348f565b6001600160a01b0316145b6133bb5760405162461bcd60e51b815260206004820152600360248201527f4e3a3100000000000000000000000000000000000000000000000000000000006044820152606401610d3e565b6001600160a01b03811660009081526020818152604080832080547fffffffffffffffffffffffff0000000000000000000000000000000000000000908116909155600190925290912080549091169055613417333083613794565b50565b600080600080600085875af1905080612f675760405162461bcd60e51b815260206004820152600360248201527f5a3a3000000000000000000000000000000000000000000000000000000000006044820152606401610d3e565b60006001600160a01b0382111561348b57600080fd5b5090565b600061349a826146b6565b6134e65760405162461bcd60e51b815260206004820152600560248201527f543a393a310000000000000000000000000000000000000000000000000000006044820152606401610d3e565b506001600160a01b039081166000908152600160205260409020541690565b6040805160808101825260008082526020808301829052828401829052606083018290526001600160a01b0386168252600d90529190912090613548828461482c565b90509250929050565b60006bffffffffffffffffffffffff82111561348b57600080fd5b60008161357834613551565b6135829190615769565b600b549091506000806135948361451f565b509250509150816bffffffffffffffffffffffff16846bffffffffffffffffffffffff1610156136065760405162461bcd60e51b815260206004820152600360248201527f543a3100000000000000000000000000000000000000000000000000000000006044820152606401610d3e565b60006136128386615769565b90506136346127106bffffffffffffffffffffffff83166103e8020483615796565b91506136418460016148e0565b93506136576136508387615769565b8590614940565b935061366384836149a0565b600b8190556040518181529094507f227a473b70d2f893cc7659219575c030a63b5743024fe1e0c1a680e708b1525a9060200160405180910390a1505050505050565b6001600160a01b0381166000908152600960205260409020541561370c5760405162461bcd60e51b815260206004820152600360248201527f503a3600000000000000000000000000000000000000000000000000000000006044820152606401610d3e565b6000806137176145d9565b9250925050826001600160a01b031682146137745760405162461bcd60e51b815260206004820152600360248201527f503a3700000000000000000000000000000000000000000000000000000000006044820152606401610d3e565b6001600160a01b0390921660009081526009602052604090209190915550565b806001600160a01b0316826001600160a01b0316846001600160a01b03167fddf252ad1be2c89b69c2b068fc378daa952ba7f163c4a11628f55a4df523b3ef60405160405180910390a4505050565b600062ffffff60e683901c16610cdc565b600061380382600001516137e3565b62ffffff16826040015162ffffff1611156138605760405162461bcd60e51b815260206004820152600360248201527f533a4600000000000000000000000000000000000000000000000000000000006044820152606401610d3e565b81606001516001600160a01b031661387b8360000151614600565b6001600160a01b0316146138b557815160018401600061389a83614600565b6001600160a01b031681526020810191909152604001600020555b815160009081906138ef906138c9816137e3565b60608701516020880151683fffffffffffffffff60a09190911c16633b9aca00026149e6565b8187559092509050683fffffffffffffffff60a083901c16633b9aca00025b925061391981613be1565b505092915050565b600061392b612f52565b6bffffffffffffffffffffffff163410156139885760405162461bcd60e51b815260206004820152600360248201527f533a3500000000000000000000000000000000000000000000000000000000006044820152606401610d3e565b602082015115801561399a5750815115155b6139e65760405162461bcd60e51b815260206004820152600560248201527f4e4f5045330000000000000000000000000000000000000000000000000000006044820152606401610d3e565b815160ff1c600114613a3a5760405162461bcd60e51b815260206004820152600560248201527f4e4f5045340000000000000000000000000000000000000000000000000000006044820152606401610d3e565b600080613a62846000015185604001516001613a5691906159dd565b866060015160006149e6565b81875560408601519193509150613a9190613a7e9060016159dd565b8551613a8b906000614750565b906146c9565b856001016000613aa48760000151614600565b6001600160a01b03168152602081019190915260400160002055683fffffffffffffffff60a083901c16633b9aca000261390e565b6040805160808101825260008082526020808301829052828401829052606083018290526001600160a01b0387168252600d815283822061ffff8716835260020190529190912090613b2b828461482c565b9050935093915050565b3360009081526003602052604090205460ff16610e365760405162461bcd60e51b815260206004820152600960248201527f554e5452555354454400000000000000000000000000000000000000000000006044820152606401610d3e565b6000826001600160a01b0316826001600160a01b03161480612d485750506001600160a01b0390811660009081526002602090815260408083209490931682529290925290205460ff1690565b806bffffffffffffffffffffffff16341015613c3f5760405162461bcd60e51b815260206004820152600360248201527f543a3200000000000000000000000000000000000000000000000000000000006044820152606401610d3e565b600b546127106bffffffffffffffffffffffff83166103e80204613c6d613c668285615769565b8390614940565b9150613c7982826149a0565b600b8190556040518181529092507f227a473b70d2f893cc7659219575c030a63b5743024fe1e0c1a680e708b1525a90602001612007565b30613cbb82613279565b6001600160a01b031614613d115760405162461bcd60e51b815260206004820152600360248201527f4e3a3000000000000000000000000000000000000000000000000000000000006044820152606401610d3e565b6001600160a01b03818116600090815260208190526040902080547fffffffffffffffffffffffff000000000000000000000000000000000000000016918416919091179055613d62308383613794565b5050565b6000612d48836008613d7885826157eb565b600190911b6000190191901c1690565b6000816020015160001415613ddf5760405162461bcd60e51b815260206004820152600360248201527f533a4500000000000000000000000000000000000000000000000000000000006044820152606401610d3e565b6000613dee83600001516137e3565b62ffffff16836040015162ffffff161190506000613e0f8460000151614600565b6001600160a01b0316613e258560200151614600565b6001600160a01b03161490506000613e478560000151600160ff9190911c1490565b8015613e5a5750602085015160ff1c6001145b905081801561334057508080613340575091949350505050565b6000610fff821115613e8557600080fd5b508062ffffff81111561348b57600080fd5b6000610cdc82614aad565b600081613ef15760405162461bcd60e51b815260206004820152600360248201527f503a3800000000000000000000000000000000000000000000000000000000006044820152606401610d3e565b600854613f0b60ff8416613f06836000613d66565b614bdc565b613f169060016159fb565b821791506003613f27826001613d66565b613f329060ff615a13565b60089490941c93613f4990851660ff1660016159fb565b61010017901b82179150600e613f60826002613d66565b613f6b9060ff615a13565b60089490941c93613f8290851660ff1660016159fb565b60089490941c9361020017901b919091179060ff831660808110613fa7576004613faa565b60035b60ff1690506019613fc9600886901c95508560ff16613f068585613d66565b613fd49060016159fb565b600895861c9583901b17901b929092179160ff8416601e8110614016576037811061400f57604b8110614008576000614019565b6007614019565b6006614019565b60055b60ff169050801561405657602461403e600887901c96508660ff16613f068685613d66565b6140499060016159fb565b600883901b17901b841793505b60089490941c9360ff8516601e81106140bb57603781106140b457604b81106140ad57607381106140a657609b811061409f5760cd81106140985760016140be565b60026140be565b60036140be565b60046140be565b60076140be565b60066140be565b60055b60ff16905060506140dd600888901c97508760ff16613f068785613d66565b6140e89060016159fb565b600883901b17901b8517945050505050919050565b6000612d4883600b61410f85826157eb565b613d789060036157c6565b6001600160a01b038116600090815260096020526040902054156141805760405162461bcd60e51b815260206004820152600360248201527f503a3500000000000000000000000000000000000000000000000000000000006044820152606401610d3e565b60008161418e600143615a5c565b6040517f4206900000000000000000000000000000000000000000000000000000000000602082015260609290921b7fffffffffffffffffffffffffffffffffffffffff0000000000000000000000001660238301524060378201526057016040516020818303038152906040528051906020012060001c9050600061421382613ea2565b6001600160a01b039093166000908152600960205260409020929092555050565b6001600160a01b0381811660008181526020819052604080822080547fffffffffffffffffffffffff0000000000000000000000000000000000000000169487169485179055519192917fddf252ad1be2c89b69c2b068fc378daa952ba7f163c4a11628f55a4df523b3ef908290a45050565b60006142b282613279565b90506142be8382613b94565b610cdc5760405162461bcd60e51b815260206004820152600360248201527f503a4200000000000000000000000000000000000000000000000000000000006044820152606401610d3e565b60008061431785856140fd565b61ffff169050614335858561432c88876140fd565b61ffff16614c4c565b9150613340858483614c4c565b60008061434e83613279565b90503061435a8461348f565b6001600160a01b031614801561437857506001600160a01b03811633145b6143c45760405162461bcd60e51b815260206004820152600360248201527f543a3300000000000000000000000000000000000000000000000000000000006044820152606401610d3e565b600b546001600160a01b03841660009081526020818152604080832080547fffffffffffffffffffffffff000000000000000000000000000000000000000090811690915560018352818420805482169055600d8352818420849055600e835281842084905560098352818420849055600790925282208054909116905561444e90839086613794565b61445781614611565b925060016144658260c01c90565b67ffffffffffffffff16101561447d5761447d61570b565b826bffffffffffffffffffffffff166144968260601c90565b6bffffffffffffffffffffffff1610156144b2576144b261570b565b6144bd816001614c85565b90506144c98184614c9c565b600b8190556040518181529091507f227a473b70d2f893cc7659219575c030a63b5743024fe1e0c1a680e708b1525a9060200160405180910390a15050919050565b6000612d488361451a84613279565b613b94565b60008060008061452e85614611565b92506127106103e86bffffffffffffffffffffffff8516020491506145538560c01c90565b61271067ffffffffffffffff919091168402049050806145738385615796565b61457d9190615796565b93509193509193565b633b9aca0081066bffffffffffffffffffffffff8116156145b257506001633b9aca0091829004010290565b633b9aca0080830402610cdc565b60006145ce826127d8615a73565b612710900492915050565b60008060006145e6614cb3565b90935062ffffff1691506145f983613ea2565b9050909192565b60006001600160a01b038216610cdc565b600061461d8260c01c90565b67ffffffffffffffff1690508061463657506000919050565b6146408260601c90565b6bffffffffffffffffffffffff1604919050565b61465e33836142a7565b50600061466a836127bd565b90506142138161467b836000614cee565b8461ffff16614c4c565b61468f33836142a7565b50600061469b836127bd565b9050614213816146af838561ffff16614cee565b6000614c4c565b60006146c1826127bd565b151592915050565b60007fc000003fffffffffffffffffffffffffffffffffffffffffffffffffffffffff83167f3fffffc00000000000000000000000000000000000000000000000000000000060e684901b1617612d48565b60007fffffffffffffffffffffffff000000000000000000000000000000000000000083166001600160a01b03831617612d48565b6000612d4883600160ff85614766576000614769565b60015b60ff16811b600190921b6000190160ff919091161b19919091161790565b633b9aca00900460007fffffffc00000000000000000ffffffffffffffffffffffffffffffffffffffff83167fffffffffffffffffffffffff000000000000000000000000000000000000000060a084901b1617612d48565b60007fbfffffffffffffffffffffffffffffffffffffffffffffffffffffffffffffff82167f400000000000000000000000000000000000000000000000000000000000000017610cdc565b6040805160808101825260006020820152835480825262ffffff60457f0000000000000000000000000000000000000000000000000000000000000000430304610bb80116928201929092526001600160a01b03831660608201529061489181614600565b6001600160a01b0316836001600160a01b031614156148b657602082018190526148d9565b6001600160a01b0383166000908152600185016020908152604090912054908301525b5092915050565b60006148ec8360c01c90565b6148f69083615aa7565b915077ffffffffffffffffffffffffffffffffffffffffffffffff831660c083901b7fffffffffffffffff0000000000000000000000000000000000000000000000001617612d48565b600061494c8360601c90565b6149569083615796565b91507fffffffffffffffff000000000000000000000000ffffffffffffffffffffffff8316606083901b77ffffffffffffffffffffffff0000000000000000000000001617612d48565b60006149ac8383615796565b91506bffffffffffffffffffffffff82167fffffffffffffffffffffffffffffffffffffffff000000000000000000000000841617612d48565b600080633b9aca0060a087901c683fffffffffffffffff1602614a0834613551565b614a129085615796565b9350836bffffffffffffffffffffffff16614a2c826145c0565b6bffffffffffffffffffffffff161115614a885760405162461bcd60e51b815260206004820152600360248201527f533a4700000000000000000000000000000000000000000000000000000000006044820152606401610d3e565b614a9586868660006132fd565b9250614aa18185615769565b91505094509492505050565b60007f00000000000000000000000000000000000000000000000000000000000000007ffffffffffffffffffffffffffffffffffffffffffffffffffffffffffffff44883016045020181614b0a614b06600284615a5c565b4090565b905080614b595760405162461bcd60e51b815260206004820152600360248201527f453a3000000000000000000000000000000000000000000000000000000000006044820152606401610d3e565b6040805160208082019390935260e89590951b7fffffff000000000000000000000000000000000000000000000000000000000016858201523060601b7fffffffffffffffffffffffffffffffffffffffff0000000000000000000000001660438601528051603781870301815260579095019052835193019290922092915050565b600060ff8216614c2e5760405162461bcd60e51b815260206004820152600360248201527f503a3900000000000000000000000000000000000000000000000000000000006044820152606401610d3e565b81614c3884614d75565b614c429190615a13565b60ff169392505050565b60006118cc84600b614c5e86826157eb565b614c699060036157c6565b85811b600190921b6000190160ff919091161b19919091161790565b600081614c928460c01c90565b6148f69190615aca565b600081614ca98460601c90565b6149569190615769565b600060457f0000000000000000000000000000000000000000000000000000000000000000430304610bb801614ce881614aad565b91509091565b6000600383901c92505b8183600b161415614d0857610cdc565b80614d1281615897565b600b9490941c9391505082614cf8578060ff1660161415610cdc5760405162461bcd60e51b815260206004820152600860248201527f554e5445535445440000000000000000000000000000000000000000000000006044820152606401610d3e565b600060ff82111561348b57600080fd5b828054614d9190615843565b90600052602060002090601f016020900481019282614db35760008555614df9565b82601f10614dcc57805160ff1916838001178555614df9565b82800160010185558215614df9579182015b82811115614df9578251825591602001919060010190614dde565b5061348b9291505b8082111561348b5760008155600101614e01565b600060208284031215614e2757600080fd5b81357fffffffff0000000000000000000000000000000000000000000000000000000081168114612d4857600080fd5b6001600160a01b038116811461341757600080fd5b600060208284031215614e7e57600080fd5b8135612d4881614e57565b60005b83811015614ea4578181015183820152602001614e8c565b83811115614eb3576000848401525b50505050565b60008151808452614ed1816020860160208601614e89565b601f017fffffffffffffffffffffffffffffffffffffffffffffffffffffffffffffffe0169290920160200192915050565b602081526000612d486020830184614eb9565b600060208284031215614f2857600080fd5b5035919050565b60008060408385031215614f4257600080fd5b8235614f4d81614e57565b946020939093013593505050565b803561ffff811681146132f857600080fd5b600080600060608486031215614f8257600080fd5b8335614f8d81614e57565b92506020840135614f9d81614e57565b9150614fab60408501614f5b565b90509250925092565b60008060408385031215614fc757600080fd5b8235614fd281614e57565b915060208301358015158114614fe757600080fd5b809150509250929050565b60008060006060848603121561500757600080fd5b833561501281614e57565b9250602084013561502281614e57565b929592945050506040919091013590565b803560ff811681146132f857600080fd5b6000806000806080858703121561505a57600080fd5b843561506581614e57565b935061507360208601615033565b925061508160408601615033565b9150606085013561509181614e57565b939692955090935050565b600081518084526020808501945080840160005b838110156150cf57815160ff16875295820195908201906001016150b0565b509495945050505050565b600081518084526020808501808196508360051b8101915082860160005b85811015615122578284038952615110848351614eb9565b988501989350908401906001016150f8565b5091979650505050505050565b86815260c06020820152600061514860c083018861509c565b828103604084015261515a818861509c565b9050828103606084015261516e818761509c565b9050828103608084015261518281866150da565b905082810360a08401526151968185614eb9565b9998505050505050505050565b6000806000606084860312156151b857600080fd5b83356151c381614e57565b92506151d160208501615033565b9150614fab60408501615033565b600080604083850312156151f257600080fd5b823591506020830135614fe781614e57565b6000806040838503121561521757600080fd5b823561522281614e57565b91506020830135614fe781614e57565b60006020828403121561524457600080fd5b612d4882615033565b602081526000825161014080602085015261526c61016085018361509c565b915060208501517fffffffffffffffffffffffffffffffffffffffffffffffffffffffffffffffe0808685030160408701526152a8848361509c565b935060408701519150808685030160608701526152c5848361509c565b935060608701516080870152608087015191506152ed60a08701836001600160a01b03169052565b60a087015160c087015260c08701519150808685030160e087015261531284836150da565b935060e0870151915061010081878603018188015261533185846150da565b9450808801519250506101208187860301818801526153508584614eb9565b90880151878203909201848801529350905061536c8382614eb9565b9695505050505050565b7f4e487b7100000000000000000000000000000000000000000000000000000000600052604160045260246000fd5b604051601f82017fffffffffffffffffffffffffffffffffffffffffffffffffffffffffffffffe016810167ffffffffffffffff811182821017156153ec576153ec615376565b604052919050565b600067ffffffffffffffff82111561540e5761540e615376565b50601f017fffffffffffffffffffffffffffffffffffffffffffffffffffffffffffffffe01660200190565b600061544d615448846153f4565b6153a5565b905082815283838301111561546157600080fd5b828260208301376000602084830101529392505050565b600082601f83011261548957600080fd5b612d488383356020850161543a565b6000806000606084860312156154ad57600080fd5b83356154b881614e57565b92506154c660208501614f5b565b9150604084013567ffffffffffffffff8111156154e257600080fd5b6154ee86828701615478565b9150509250925092565b6000806040838503121561550b57600080fd5b823561551681614e57565b9150602083013567ffffffffffffffff81111561553257600080fd5b61553e85828601615478565b9150509250929050565b6000806000806080858703121561555e57600080fd5b843561556981614e57565b9350602085013561557981614e57565b925060408501359150606085013567ffffffffffffffff81111561559c57600080fd5b8501601f810187136155ad57600080fd5b6155bc8782356020840161543a565b91505092959194509250565b80356bffffffffffffffffffffffff811681146132f857600080fd5b600080604083850312156155f757600080fd5b823561560281614e57565b9150613548602084016155c8565b6000806000806080858703121561562657600080fd5b843561563181614e57565b935061563f60208601614f5b565b93969395505050506040820135916060013590565b60008060006040848603121561566957600080fd5b833567ffffffffffffffff8082111561568157600080fd5b818601915086601f83011261569557600080fd5b8135818111156156a457600080fd5b8760208260051b85010111156156b957600080fd5b602092830195509350614fab9186019050615033565b6000806000606084860312156156e457600080fd5b83356156ef81614e57565b92506156fd60208501614f5b565b9150614fab604085016155c8565b7f4e487b7100000000000000000000000000000000000000000000000000000000600052600160045260246000fd5b7f4e487b7100000000000000000000000000000000000000000000000000000000600052601160045260246000fd5b60006bffffffffffffffffffffffff8381169083168181101561578e5761578e61573a565b039392505050565b60006bffffffffffffffffffffffff8083168185168083038211156157bd576157bd61573a565b01949350505050565b600060ff821660ff84168060ff038211156157e3576157e361573a565b019392505050565b600060ff821660ff84168160ff048111821515161561580c5761580c61573a565b029392505050565b7f4e487b7100000000000000000000000000000000000000000000000000000000600052603260045260246000fd5b600181811c9082168061585757607f821691505b60208210811415615891577f4e487b7100000000000000000000000000000000000000000000000000000000600052602260045260246000fd5b50919050565b600060ff821660ff8114156158ae576158ae61573a565b60010192915050565b600063ffffffff8083168185168083038211156157bd576157bd61573a565b60006001600160a01b03808916835287602084015280871660408401525060e0606083015261590860e0830186614eb9565b828103608084015261591a8186614eb9565b93151560a0840152505080820360c0909101526000815260200195945050505050565b60006020828403121561594f57600080fd5b815167ffffffffffffffff81111561596657600080fd5b8201601f8101841361597757600080fd5b8051615985615448826153f4565b81815285602083850101111561599a57600080fd5b613340826020830160208601614e89565b6000816159ba576159ba61573a565b506000190190565b60006000198214156159d6576159d661573a565b5060010190565b600062ffffff8083168185168083038211156157bd576157bd61573a565b60008219821115615a0e57615a0e61573a565b500190565b600060ff831680615a4d577f4e487b7100000000000000000000000000000000000000000000000000000000600052601260045260246000fd5b8060ff84160691505092915050565b600082821015615a6e57615a6e61573a565b500390565b60006bffffffffffffffffffffffff80831681851681830481118215151615615a9e57615a9e61573a565b02949350505050565b600067ffffffffffffffff8083168185168083038211156157bd576157bd61573a565b600067ffffffffffffffff8381169083168181101561578e5761578e61573a56fea264697066735822122062b006b12e39ac8e2d600e71c37a91139bb0cca3cae01788dd3c7c6d876813bc64736f6c63430008090033",
  "devdoc": {
    "kind": "dev",
    "methods": {
      "approve(address,uint256)": {
        "details": "The zero address indicates there is no approved address.  Throws unless `msg.sender` is the current NFT owner, or an authorized  operator of the current owner.",
        "params": {
          "_approved": "The new approved NFT controller",
          "_tokenId": "The NFT to approve"
        }
      },
      "burn(uint160)": {
        "details": "should only be called directly",
        "params": {
          "tokenId": "the id of the nugg being burned"
        }
      },
      "ethPerShare()": {
        "details": "this value not always equivilent to the \"floor\" price which can consist of perceived value. can be looked at as an \"intrinsic floor\"this is the value that users will receive when their either burn or loan out nuggs",
        "returns": {
          "res": "-> [current staked eth] / [current staked shares]"
        }
      },
      "extractProtocolEth()": {
        "details": "caller must be a trusted user"
      },
      "getApproved(uint256)": {
        "details": "Throws if `_tokenId` is not a valid NFT.",
        "params": {
          "_tokenId": "The NFT to find the approved address for"
        },
        "returns": {
          "_0": "The approved address for this NFT, or the zero address if there is none"
        }
      },
      "isApprovedForAll(address,address)": {
        "params": {
          "_operator": "The address that acts on behalf of the owner",
          "_owner": "The address that owns the NFTs"
        },
        "returns": {
          "_0": "True if `_operator` is an approved operator for `_owner`, false otherwise"
        }
      },
      "loanInfo(uint160)": {
        "details": "contract ->frontend -> used to set the amount of eth for user",
        "params": {
          "tokenId": "the token who's current loan to check"
        },
        "returns": {
          "earned": "-> the amount of eth the minSharePrice has increased since loan was last rebalanced",
          "epochDue": "-> the final epoch a user is safe from liquidation (inclusive)",
          "loaner": "-> the user responsable for the loan",
          "toLiquidate": "->  the current amount loaned out, plus the final rebalance fee",
          "toRebalance": "->  the fee a user must pay to rebalance (and extend) the loan on their nugg"
        }
      },
      "minSharePrice()": {
        "details": "premium here is used to push against dillution of supply through ensuring the price always increasesused by the front end",
        "returns": {
          "res": "-> premium + protcolFee + ethPerShare"
        }
      },
      "ownerOf(uint256)": {
        "details": "NFTs assigned to zero address are considered invalid, and queries  about them do throw.",
        "params": {
          "_tokenId": "The identifier for an NFT"
        },
        "returns": {
          "_0": "The address of the owner of the NFT"
        }
      },
      "protocolEth()": {
        "details": "this will be",
        "returns": {
          "res": "-> (PROTOCOL_FEE_BPS * [all eth staked] / 10000) - [all previously extracted eth]"
        }
      },
      "setApprovalForAll(address,bool)": {
        "details": "Emits the ApprovalForAll event. The contract MUST allow  multiple operators per owner.",
        "params": {
          "_approved": "True if the operator is approved, false to revoke approval",
          "_operator": "Address to add to the set of authorized operators"
        }
      },
      "setMigrator(address)": {
        "details": "caller must be a trusted user",
        "params": {
          "migrator": "the address to set as the migrator contract"
        }
      },
      "stakedEth()": {
        "details": "can be used as the market-cap or tvl of all nuggft v1not equivilent to the balance of eth the contract holds, which also hs protocolEth and unclaimed eth from unsuccessful swaps"
      },
      "stakedShares()": {
        "details": "this is equivilent to the amount of nuggs in existance"
      },
      "supportsInterface(bytes4)": {
        "details": "Interface identification is specified in ERC-165. This function  uses less than 30,000 gas.",
        "params": {
          "interfaceID": "The interface identifier, as specified in ERC-165"
        },
        "returns": {
          "_0": "`true` if the contract implements `interfaceID` and  `interfaceID` is not 0xffffffff, `false` otherwise"
        }
      },
      "tokenURI(uint256)": {
        "details": "Throws if `_tokenId` is not a valid NFT. URIs are defined in RFC  3986. The URI may point to a JSON file that conforms to the \"ERC721  Metadata JSON Schema\"."
      },
      "valueForDelegate(address,uint160)": {
        "details": "returns 0 if no delegate can be made for this oken",
        "params": {
          "sender": "-> the address of the user who will be delegating",
          "tokenId": "-> the token to be delegated to"
        },
        "returns": {
          "canDelegate": "-> instead of reverting this function will return false",
          "nextSwapAmount": "-> the minimum value that must be sent with a delegate call",
          "senderCurrentOffer": "->"
        }
      },
      "valueForLiquidate(uint160)": {
        "details": "should be used to tell user how much eth to send for liquidate"
      },
      "valueForRebalance(uint160)": {
        "details": "should be used to tell user how much eth to send for rebalance"
      }
    },
    "version": 1
  },
  "userdoc": {
    "events": {
      "Genesis(uint256,uint32,uint24)": {
        "notice": "Explain to an end user what this does"
      }
    },
    "kind": "user",
    "methods": {
      "approve(address,uint256)": {
        "notice": "Change or reaffirm the approved address for an NFT"
      },
      "burn(uint160)": {
        "notice": "burns a nugg from existance, dealing the eth worth of that share to the user"
      },
      "ethPerShare()": {
        "notice": "returns the total \"ethPerShare\" held by the contract"
      },
      "extractProtocolEth()": {
        "notice": "sends the current protocolEth to the user and resets the value to zero"
      },
      "getApproved(uint256)": {
        "notice": "Get the approved address for a single NFT"
      },
      "isApprovedForAll(address,address)": {
        "notice": "Query if an address is an authorized operator for another address"
      },
      "loanInfo(uint160)": {
        "notice": "for a nugg's active loan: calculates the current min eth a user must send to liquidate or rebalance"
      },
      "minSharePrice()": {
        "notice": "returns the minimum eth that must be added to create a new share"
      },
      "name()": {
        "notice": "A descriptive name for a collection of NFTs in this contract"
      },
      "ownerOf(uint256)": {
        "notice": "Find the owner of an NFT"
      },
      "protocolEth()": {
        "notice": "returns the amount of eth extractable by protocol"
      },
      "setApprovalForAll(address,bool)": {
        "notice": "Enable or disable approval for a third party (\"operator\") to manage  all of `msg.sender`'s assets"
      },
      "setMigrator(address)": {
        "notice": "sets the migrator contract"
      },
      "stakedEth()": {
        "notice": "returns the total amount of staked eth held by the contract"
      },
      "stakedShares()": {
        "notice": "returns the total number of staked shares held by the contract"
      },
      "supportsInterface(bytes4)": {
        "notice": "Query if a contract implements an interface"
      },
      "symbol()": {
        "notice": "An abbreviated name for NFTs in this contract"
      },
      "tokenURI(uint256)": {
        "notice": "A distinct Uniform Resource Identifier (URI) for a given asset."
      },
      "valueForDelegate(address,uint160)": {
        "notice": "calculates the minimum eth that must be sent with a delegate call"
      },
      "valueForLiquidate(uint160)": {
        "notice": "\"toLiquidate\" value from \"loanInfo\""
      },
      "valueForRebalance(uint160)": {
        "notice": "\"toRebalance\" value from \"loanInfo\""
      }
    },
    "notice": "deviations from ERC721 standard: 1. no verificaiton the receiver is a ERC721Reciever - on top of this being a gross waste of gas, the way the swapping logic works makes this only worth calling when a user places an offer - and we did not want to call \"onERC721Recieved\" when no token was being sent. 2.",
    "version": 1
  },
  "storageLayout": {
    "storage": [
      {
        "astId": 20790,
        "contract": "src/NuggftV1.sol:NuggftV1",
        "label": "owners",
        "offset": 0,
        "slot": "0",
        "type": "t_mapping(t_uint256,t_address)"
      },
      {
        "astId": 20794,
        "contract": "src/NuggftV1.sol:NuggftV1",
        "label": "approvals",
        "offset": 0,
        "slot": "1",
        "type": "t_mapping(t_uint256,t_address)"
      },
      {
        "astId": 20800,
        "contract": "src/NuggftV1.sol:NuggftV1",
        "label": "operatorApprovals",
        "offset": 0,
        "slot": "2",
        "type": "t_mapping(t_address,t_mapping(t_address,t_bool))"
      },
      {
        "astId": 21254,
        "contract": "src/NuggftV1.sol:NuggftV1",
        "label": "isTrusted",
        "offset": 0,
        "slot": "3",
        "type": "t_mapping(t_address,t_bool)"
      },
      {
        "astId": 17532,
        "contract": "src/NuggftV1.sol:NuggftV1",
        "label": "settings",
        "offset": 0,
        "slot": "4",
        "type": "t_mapping(t_uint160,t_struct(Settings)17527_storage)"
      },
      {
        "astId": 17537,
        "contract": "src/NuggftV1.sol:NuggftV1",
        "label": "dotnuggV1StorageProxy",
        "offset": 0,
        "slot": "5",
        "type": "t_contract(IDotnuggV1StorageProxy)21817"
      },
      {
        "astId": 17542,
        "contract": "src/NuggftV1.sol:NuggftV1",
        "label": "dotnuggV1",
        "offset": 0,
        "slot": "6",
        "type": "t_contract(IDotnuggV1)21597"
      },
      {
        "astId": 17546,
        "contract": "src/NuggftV1.sol:NuggftV1",
        "label": "resolvers",
        "offset": 0,
        "slot": "7",
        "type": "t_mapping(t_uint256,t_address)"
      },
      {
        "astId": 17548,
        "contract": "src/NuggftV1.sol:NuggftV1",
        "label": "featureLengths",
        "offset": 0,
        "slot": "8",
        "type": "t_uint256"
      },
      {
        "astId": 18458,
        "contract": "src/NuggftV1.sol:NuggftV1",
        "label": "proofs",
        "offset": 0,
        "slot": "9",
        "type": "t_mapping(t_uint160,t_uint256)"
      },
      {
        "astId": 19265,
        "contract": "src/NuggftV1.sol:NuggftV1",
        "label": "migrator",
        "offset": 0,
        "slot": "10",
        "type": "t_address"
      },
      {
        "astId": 19267,
        "contract": "src/NuggftV1.sol:NuggftV1",
        "label": "stake",
        "offset": 0,
        "slot": "11",
        "type": "t_uint256"
      },
      {
        "astId": 19660,
        "contract": "src/NuggftV1.sol:NuggftV1",
        "label": "protocolItems",
        "offset": 0,
        "slot": "12",
        "type": "t_mapping(t_uint16,t_uint256)"
      },
      {
        "astId": 19665,
        "contract": "src/NuggftV1.sol:NuggftV1",
        "label": "swaps",
        "offset": 0,
        "slot": "13",
        "type": "t_mapping(t_uint160,t_struct(Mapping)19640_storage)"
      },
      {
        "astId": 18070,
        "contract": "src/NuggftV1.sol:NuggftV1",
        "label": "loans",
        "offset": 0,
        "slot": "14",
        "type": "t_mapping(t_uint160,t_uint256)"
      }
    ],
    "types": {
      "t_address": {
        "encoding": "inplace",
        "label": "address",
        "numberOfBytes": "20"
      },
      "t_bool": {
        "encoding": "inplace",
        "label": "bool",
        "numberOfBytes": "1"
      },
      "t_contract(IDotnuggV1)21597": {
        "encoding": "inplace",
        "label": "contract IDotnuggV1",
        "numberOfBytes": "20"
      },
      "t_contract(IDotnuggV1StorageProxy)21817": {
        "encoding": "inplace",
        "label": "contract IDotnuggV1StorageProxy",
        "numberOfBytes": "20"
      },
      "t_mapping(t_address,t_bool)": {
        "encoding": "mapping",
        "key": "t_address",
        "label": "mapping(address => bool)",
        "numberOfBytes": "32",
        "value": "t_bool"
      },
      "t_mapping(t_address,t_mapping(t_address,t_bool))": {
        "encoding": "mapping",
        "key": "t_address",
        "label": "mapping(address => mapping(address => bool))",
        "numberOfBytes": "32",
        "value": "t_mapping(t_address,t_bool)"
      },
      "t_mapping(t_address,t_uint256)": {
        "encoding": "mapping",
        "key": "t_address",
        "label": "mapping(address => uint256)",
        "numberOfBytes": "32",
        "value": "t_uint256"
      },
      "t_mapping(t_uint16,t_struct(Storage)19647_storage)": {
        "encoding": "mapping",
        "key": "t_uint16",
        "label": "mapping(uint16 => struct NuggftV1Swap.Storage)",
        "numberOfBytes": "32",
        "value": "t_struct(Storage)19647_storage"
      },
      "t_mapping(t_uint16,t_uint256)": {
        "encoding": "mapping",
        "key": "t_uint16",
        "label": "mapping(uint16 => uint256)",
        "numberOfBytes": "32",
        "value": "t_uint256"
      },
      "t_mapping(t_uint160,t_struct(Mapping)19640_storage)": {
        "encoding": "mapping",
        "key": "t_uint160",
        "label": "mapping(uint160 => struct NuggftV1Swap.Mapping)",
        "numberOfBytes": "32",
        "value": "t_struct(Mapping)19640_storage"
      },
      "t_mapping(t_uint160,t_struct(Settings)17527_storage)": {
        "encoding": "mapping",
        "key": "t_uint160",
        "label": "mapping(uint160 => struct NuggftV1Dotnugg.Settings)",
        "numberOfBytes": "32",
        "value": "t_struct(Settings)17527_storage"
      },
      "t_mapping(t_uint160,t_uint256)": {
        "encoding": "mapping",
        "key": "t_uint160",
        "label": "mapping(uint160 => uint256)",
        "numberOfBytes": "32",
        "value": "t_uint256"
      },
      "t_mapping(t_uint256,t_address)": {
        "encoding": "mapping",
        "key": "t_uint256",
        "label": "mapping(uint256 => address)",
        "numberOfBytes": "32",
        "value": "t_address"
      },
      "t_mapping(t_uint256,t_string_storage)": {
        "encoding": "mapping",
        "key": "t_uint256",
        "label": "mapping(uint256 => string)",
        "numberOfBytes": "32",
        "value": "t_string_storage"
      },
      "t_mapping(t_uint256,t_uint256)": {
        "encoding": "mapping",
        "key": "t_uint256",
        "label": "mapping(uint256 => uint256)",
        "numberOfBytes": "32",
        "value": "t_uint256"
      },
      "t_string_storage": {
        "encoding": "bytes",
        "label": "string",
        "numberOfBytes": "32"
      },
      "t_struct(Mapping)19640_storage": {
        "encoding": "inplace",
        "label": "struct NuggftV1Swap.Mapping",
        "members": [
          {
            "astId": 19634,
            "contract": "src/NuggftV1.sol:NuggftV1",
            "label": "self",
            "offset": 0,
            "slot": "0",
            "type": "t_struct(Storage)19647_storage"
          },
          {
            "astId": 19639,
            "contract": "src/NuggftV1.sol:NuggftV1",
            "label": "items",
            "offset": 0,
            "slot": "2",
            "type": "t_mapping(t_uint16,t_struct(Storage)19647_storage)"
          }
        ],
        "numberOfBytes": "96"
      },
      "t_struct(Settings)17527_storage": {
        "encoding": "inplace",
        "label": "struct NuggftV1Dotnugg.Settings",
        "members": [
          {
            "astId": 17520,
            "contract": "src/NuggftV1.sol:NuggftV1",
            "label": "anchorOverrides",
            "offset": 0,
            "slot": "0",
            "type": "t_mapping(t_uint256,t_uint256)"
          },
          {
            "astId": 17524,
            "contract": "src/NuggftV1.sol:NuggftV1",
            "label": "styles",
            "offset": 0,
            "slot": "1",
            "type": "t_mapping(t_uint256,t_string_storage)"
          },
          {
            "astId": 17526,
            "contract": "src/NuggftV1.sol:NuggftV1",
            "label": "background",
            "offset": 0,
            "slot": "2",
            "type": "t_string_storage"
          }
        ],
        "numberOfBytes": "96"
      },
      "t_struct(Storage)19647_storage": {
        "encoding": "inplace",
        "label": "struct NuggftV1Swap.Storage",
        "members": [
          {
            "astId": 19642,
            "contract": "src/NuggftV1.sol:NuggftV1",
            "label": "data",
            "offset": 0,
            "slot": "0",
            "type": "t_uint256"
          },
          {
            "astId": 19646,
            "contract": "src/NuggftV1.sol:NuggftV1",
            "label": "offers",
            "offset": 0,
            "slot": "1",
            "type": "t_mapping(t_address,t_uint256)"
          }
        ],
        "numberOfBytes": "64"
      },
      "t_uint16": {
        "encoding": "inplace",
        "label": "uint16",
        "numberOfBytes": "2"
      },
      "t_uint160": {
        "encoding": "inplace",
        "label": "uint160",
        "numberOfBytes": "20"
      },
      "t_uint256": {
        "encoding": "inplace",
        "label": "uint256",
        "numberOfBytes": "32"
      }
    }
  }
}