{
  "address": "0xea5A05C66e5Ffc93A3b4266eb04a6630E7D9c0d7",
  "abi": [
    {
      "inputs": [
        {
          "internalType": "bytes32",
          "name": "salt",
          "type": "bytes32"
        },
        {
          "internalType": "address[]",
          "name": "trusted",
          "type": "address[]"
        },
        {
          "internalType": "address",
          "name": "dotnugg",
          "type": "address"
        },
        {
          "internalType": "uint256[][][]",
          "name": "nuggs",
          "type": "uint256[][][]"
        }
      ],
      "stateMutability": "nonpayable",
      "type": "constructor"
    },
    {
      "inputs": [],
      "name": "nuggft",
      "outputs": [
        {
          "internalType": "contract NuggftV1",
          "name": "",
          "type": "address"
        }
      ],
      "stateMutability": "view",
      "type": "function"
    }
  ],
  "transactionHash": "0xa153cbe6abde7203774a5a1d953bbaad9f185d4d8043830ad8e506cd5b903ff7",
  "args": [
    "0x27b6e7032f3800389d963ddba80ceb6f7815a4fc6447889d90fdd500e5000000",
    [
      "0x9B0E2b16F57648C7bAF28EDD7772a815Af266E77",
      "0xea5A05C66e5Ffc93A3b4266eb04a6630E7D9c0d7"
    ],
    "0xCEab72cb5BC8Fc1149AB63FA9986311f18E26573",
    [
      [
        [
          "1580418774366402256233179998310600940563478108710458549963424403618",
          "19266825868490270137335380854803843250838531009675606378927087721065185221004",
          "28970404498555444752519377361976734613156740413638911169694666642044685949109",
          "70125355774112805034044506246551782870201023174533102858258547287180695995944",
          "62659743394714633321030819475112964011239984187735163700234861947426408219842",
          "92392075225364205629108987946873129456642932892096809739262610273120818489865",
          "26839394868599260144795778399393763258005428708995163281923238192951192883201"
        ],
        [
          "552539584737811144307482581035306",
          "43725934071692361911738495593948847696996760846834902442866164485586491222106",
          "75202312980025916413101956410125718685177945620022499862907516654541068794124",
          "65457382480476254109066410776985207619386979440539062858143930391100120919068",
          "74010422728805883900708740016534894600214827623344119584412321784685563283990",
          "46172589144336652019568072219258225545372436426104430578604244193833780678657"
        ]
      ],
      [
        [
          "8906880785841079740106656133632922464178847973514",
          "29635491709662348758511875918982312412556286839666853239971047905763453734913"
        ],
        [
          "721997643940284377196055166765551013562704384",
          "72541703077916572931818885242401439076382217823668185389899469657992413483009"
        ],
        [
          "3323201829652754568748190247245316484",
          "69660596513926890043027357148342095803541652065189441448426728371835319521281"
        ],
        [
          "78145736990552950842098816",
          "32851058441221337311583575332289586099294523454415109033645351589036499046401"
        ],
        [
          "440411920",
          "4301499863533896651244255556019156203968960869949728546074913699698590519297"
        ],
        [
          "170153024076418956722240",
          "30761250969823863544558062221807239896032918807962970206007560418357686996993"
        ],
        [
          "95730589422990353452758512231045223471631368250504",
          "35068860264169874319336162570589283672621891098953782677512506987855741358081"
        ],
        [
          "21303978694154490513480",
          "74420099715660314153204333487682875414225119274932686337700102173908709838849"
        ],
        [
          "50712717384545808979013360718833701921673986821409638701404868457856987959694",
          "2530136051351948242329796089782579438650039174138293186369720694057980039169"
        ],
        [
          "7404931205963565460622880",
          "904846606982691488920724414757630794073803056229579853581582699608475602945"
        ],
        [
          "257666420892272037707668934660215917052446681928981135126597633"
        ],
        [
          "189681377521440108941321370398898368",
          "3623658505323177294485442310685778696456072829088862618765217752799481285656",
          "31002045709691008141690384251634937198522833854295950788020548978118182211585"
        ],
        [
          "1267618866561081",
          "914150221719693561210292317941762187033696013240844415193107292606446342145"
        ],
        [
          "12981257216551778085147177826403856",
          "61529731721983253716699475752540211999357866167920454790433605192353080315905"
        ],
        [
          "2854758137900816354908312177372310307166749312",
          "18319555746014716323778888013355655283872077937099356046962975983078545461249"
        ],
        [
          "28724848787482",
          "14485333645655532913191650045146352747208168041297563407127922381394591256577"
        ],
        [
          "8642061107908076403791894497886101760",
          "11541047831599723487390667597896800826544352310817057773369317709867748069377"
        ],
        [
          "13024879358716077012540834271784206925887588484",
          "4636234527450893739680856807522510632709024111937763267326516575255113666561"
        ],
        [
          "8295844378030004970060841104445930537488",
          "43545837896553399986692365981327026195504113342551989200674650904917040336897"
        ],
        [
          "3174031349279731094518552075942989513475414295240338569810937034913276661761"
        ],
        [
          "146806977",
          "8212402867147362912278738831605552463061111830419597370739960743500508991489"
        ],
        [
          "78583429526055494748422",
          "745730835183395010592193361038718835957072829864193126121510134933587660801"
        ],
        [
          "431132259357735134435252647092827224163654938112059799267950871434",
          "29626937717930550310398940979956966303706619562107417239094143127243507273729"
        ],
        [
          "311329868691150114915",
          "7253149251634289700250005305167034948750392223320114656164197036289474072577"
        ],
        [
          "725510473279259200471107",
          "7412931537035703245450286880496650069132202343315673156924686478607108182017"
        ],
        [
          "7653949171474975360",
          "76572519638412025592258466340864650786162273807849279579426669520656212953154",
          "60911003768317574491114193109041782815238427841346402052413050431026483335169"
        ],
        [
          "14993974616806340080696545243283337965692864797360941721607",
          "7295794716850265368613249004928644809046326749291774672782112713710649118721"
        ],
        [
          "218663330217480357622953164644833118784193",
          "18262212397953377707780196347685968552338191988280870686103330975619171651585"
        ],
        [
          "203557850875913",
          "15421139551935683690545054426608485284644041200849304758727953640344061906945"
        ],
        [
          "8698817136161661764908577955803732525485523584",
          "98830448904256599523110923395662222517913390917655640811317278408298629337089"
        ],
        [
          "487157128120336579565692928285554932102199350682843339836513847288",
          "91720611756514265964559935652884469148193620647619781945334340045697160675905",
          "32837965688788933529431447755382744129921941833741546221496468390704213871993",
          "36660645425768758812986972193425351089187886488275757670672952413588801622017"
        ],
        [
          "30382070679644173926894",
          "68946795882031884542922379258894611458046605282136180467462100613992884476302",
          "398673457012758819471076945435171661865842842197757293572996004739394056867",
          "19534927895336363185863629009069295808801632531703073342622451555753860837472",
          "41492807452265813373084718519678647020037261976764930896044649168157895200769"
        ],
        [
          "136823563579453454",
          "45005832962329448577252135186958399581058567966397603016312456082702411605016",
          "685712658353006205155365578728665594655035990273971718549156184932296855553"
        ],
        [
          "494783392567655130237200843807323631771599062356719280183342731400724481554",
          "61581910464407503865115140052753827690699952298347488100538347114108931043350",
          "50733138847378462586367624356913754391184053656958696225490626868972221796353"
        ],
        [
          "44554382319162894842698178060785945636601861360189110866428277434386865068067",
          "1018176737083685671291324691090486367774261576282340842574911630028537499649"
        ],
        [
          "234162954064278329891180302184739979240067603795969"
        ],
        [
          "929961656376",
          "74195015812103509059050618212664841424131775505546988398466575556936653508609"
        ],
        [
          "502140011756451620207081969275251188501307955710545771201728199917744",
          "28328868410675488620007669047837994239518170783966428615004329225626224857089"
        ],
        [
          "8586505585939942742704512000518442786310071828",
          "43489286830406083415214101678975537257622270879411607400291071975573758054401"
        ],
        [
          "177369754384360708911691981913753640",
          "12000929102516800660959401657918973643044125763046795328928593837785442848769"
        ],
        [
          "16450609899807784045563801566972672618629",
          "5213966139162367589830317030355556943127842094743830143966324231859066817171",
          "75378377278333673155326734867226308413631175029309627905447712506948205580289"
        ],
        [
          "26",
          "61811450415919650182138763087928445185488583710153438546084069693812155910785",
          "19052948927577650668003193576039863570101404155489387757255629654901169491969"
        ],
        [
          "786756967693013362852760676980324379130190916780013555713"
        ],
        [
          "1919499470562702821480",
          "59747821178751408623285381822808854203483344125835875241398687481143648227329"
        ],
        [
          "22291504458743524383674634227340726771818",
          "283427493972234225592082571289897029034455391905805787169070763276352524289"
        ],
        [
          "951397164585075273434583730772967017619673679160720672227100901",
          "4023112512579926562065351954996532333082966358262874062575915408824283336705"
        ],
        [
          "6643401385348600031086102544016141748196296788024400",
          "74447878383057478691214750483157184206464532810911061935011861020601679872388",
          "62549509359597419225298641086636626634989321646255294688583458009986703038985",
          "72412484907028742539257325396437244650879201636103656376202809572547373731841"
        ],
        [
          "518931797328799080868",
          "3790122322026594336677610974383739514091215877923538198093190417457493741569"
        ],
        [
          "22291504458743524383674634227340726771818",
          "283427493972234225592082571289897027004682680801315420621474084734795943937"
        ],
        [
          "254505780574559747530322775778240110908330955260104154576328812189286733825",
          "2721396546673400080200876854210652512741954957862665972311521201969210757121"
        ],
        [
          "6955760046796974791731972867388556133929573569517965373087721330216961"
        ],
        [
          "1405028634569742079612948532195820993250192",
          "4298034974350881762773183453729438667154989196542708930550227674349860982785"
        ],
        [
          "165888236059337829584864706824",
          "10887340092994726943223310078603847423549678472787479129363036944888874045441"
        ],
        [
          "2109410239615745774940974815256578",
          "2077826329327789519955756823176550600105986894067830623427332332921695932417"
        ],
        [
          "2109410239615745774940974815256578",
          "2077826329327789519955756823176550667380199218142383255243106303342056738817"
        ],
        [
          "671492100",
          "10858271713472031638034913420271647674699385012835234847444366891587553628161"
        ],
        [
          "4630615049",
          "65529823838410884159007607725119796276946267454658280134804647053337764990977"
        ],
        [
          "348440402973054449458778640",
          "74280908324937392220698759104819285477708961679342867689826929558891568467969"
        ],
        [
          "1988380428481465690064364015229189885868154136916489967946380495416627201"
        ],
        [
          "28488710091296272302465",
          "11818440889341603953829305241637293491082978507039509806827496063428624551937"
        ],
        [
          "72470110612537417248744262519575193301855035696865632493096376809126185308161"
        ],
        [
          "6826456867149825",
          "59973867774236624510166323186120086963400933142353339441854104500070779359233"
        ],
        [
          "10",
          "2944272060882400093587342589247430544963781128438720889495322981720075414026",
          "76090429918656478395940067057518009537684602598080923383253203536830620143617"
        ],
        [
          "9071207973128",
          "28960391128523627649109864279969190852924783900310090934466579542605151244289"
        ],
        [
          "938289270238961399255253250167257683670209744773132",
          "39809606815446358820545331006581431693089758665273923295737189375440392196097"
        ],
        [
          "164718508249752484877180942",
          "43712696214670461621724404547309143956170765938537624283554855025082571853825"
        ],
        [
          "7677997880185014476932",
          "11890004878951699388745494580676308636367502933041517614261880106784395792385"
        ],
        [
          "10102747887873230345555586270144800624420715541234396110347",
          "13767356037282460956525388976184948453668735721720198715845477748347462769324",
          "58079688929665179400395414806704291760575174257101204976287222216890996133889"
        ],
        [
          "113018755589979198132595893576138581864321806803555844530211230385707174",
          "115757855842448415340423476208120316223308941826649858839552487295178674177"
        ],
        [
          "14545969944",
          "7527831406416605425461146653124938931369214991666682931986686518698839533638",
          "8338637481419811830499341300003128228305469436022591913733722314244121595905"
        ],
        [
          "1967928924295566461010952",
          "28958736409318758456669173370594186445766680067902160088249714076873625341953"
        ],
        [
          "79117522211367106698169631955309671056098",
          "15463681092025074363833216999584075808082667919655486776655722511037536170246",
          "44132130000267978792381668356568393696859337548427859315310617264755921293313"
        ],
        [
          "216593964368532109162744187186112715344748403002874167171140",
          "4532917322792823488234889721078948364870813829443349639832004094020114878465"
        ],
        [
          "87076302479341039754127261987354865279716013947078250234222153",
          "78705261058518753334516661558759729498173470481894899068608205322387963940865"
        ],
        [
          "179880962146286246240",
          "40605910453924948361324631241972451211288698207968505440658135004947304321025"
        ],
        [
          "2892901835475178828403664163402017800226",
          "44157111024695315947526925690577194503062566044760245450043974500485462779992",
          "18191557549120610351913392914682580947803326782056347210985938110407917342721"
        ],
        [
          "805711874",
          "65190058843315078503034350108291367506890205038658425552754487793016954589185"
        ],
        [
          "335175020211841359215075827650818",
          "70592183601063270730020346241822210526117727207331035134782602397440016810600",
          "2081357074082689464974630749692829322529014810139022357472168341813835763713"
        ],
        [
          "408951182",
          "721119261622495478687625504289158867774026150618458122376412046823123950081",
          "59750351315104563002700944097075026960548043404266430282962075851315061624833"
        ],
        [
          "15020680782559625770103225476245302374217742547054146182152341540",
          "61918333336185149712714004113846285506709334067241174254436760626836619428416",
          "2036098053921854844376543430706068692287358786137232733103384321730613252097"
        ],
        [
          "6964004091192716298612865400408086932853926044128236798338",
          "68825101886125470056928852217215766950022085317312219324484473825366399534592",
          "43518105934942543762067561670890883330947635231570597207329063832720293400577"
        ],
        [
          "3176571677397348102689891450888",
          "12753102988166171660761228423873219689899989041317586423083258524878267025184",
          "8148895370121173396665230009011963342244378758091263251012955876650387935233"
        ],
        [
          "476071093970806215742139148385241164355226584958405564694543040",
          "75993422426194855321985961075183956773580487760909958214530904385183275192321"
        ],
        [
          "41076328440654182645572178",
          "509135103248927402255742131112069655696601079992228436441401253727465120801",
          "3660964705353693195514650326724168641018741066514714615203164797888056692737"
        ],
        [
          "36",
          "1017952396192139203744724094389940529874899184337344404696730172978626838670",
          "29068169729556717139350616218295159711698590648837046679004583138179634597889"
        ],
        [
          "202629001772892645294684826259890398672584994",
          "66096977022396816086085858945463728886378957081886854681582582898681570562049"
        ],
        [
          "18830095046914",
          "65163104337527671744264175794167617546604921147125098421665099027639179776009",
          "1162594078372593069329307768168534806013395341907447849994006562944777097217"
        ],
        [
          "16504649734678581662689815873978455256564910230",
          "29011690178968610319556581334255402646179411725304336656980130442076665955456",
          "29068183654764242468523505008113409410428402604100117306841117719745175916545"
        ],
        [
          "11637564310406128243579268",
          "68782721958699871809464496985378059675194133673509542417942427364057248465320",
          "750693713105618895775304481956914264010243586327334097735352435058047094785"
        ],
        [
          "449013489207192",
          "18829470354297473160360039570573040094816224078453112617829524487498741843336",
          "32804182649439700341169237960312374535439895399675931209668054403169438963729",
          "58164699193497282278817350603698148132067168454057744731234144756437392723969"
        ],
        [
          "5457204813981990306378292233",
          "73772998855513353451406927295252395456549307626486783484656019479211791630784",
          "11544603633263861679277152308939136164462084261545291792314426718856545734657"
        ],
        [
          "6347634289265378603219026854784",
          "29182135693152200207041852699777351643310162141609271413490287591663470022657"
        ]
      ],
      [
        [
          "49716776108415750465371139185967686255506419225104934070794402",
          "6333140590725923032082454272171309632743746357730972013754277257755662285974",
          "36702838428161798662162994662001867972764360996732033101432489433239365481049",
          "29101738497679412091699574613195752876937339295122748577194278398789248836031",
          "115792026735913214064659915825262184477767846084766399526472482028444900036609"
        ],
        [
          "42957440907162743824969295830725939136263254031506664384033744715879190529"
        ],
        [
          "171347817288862650271321733596719296",
          "5470177071162354812389345867986181194289257835702191254123672847265416253441"
        ],
        [
          "137546564116080614935226691662033816844933381941343928474",
          "735176615079536603034991120511666860887608995056758011098941154806613839873"
        ],
        [
          "226030905646154577201427175900074725352912375984567263596545"
        ],
        [
          "661994521418800869641596885388896154005647921446806128277210848989185"
        ],
        [
          "81605288953516",
          "5272994869134920256482302401124459585794403865957054671090819982923749550976",
          "55419810566990174815544310691186219289616762790498448888751939185388481676656",
          "21749349615992992456112897192640875357696612675620404164383516463056517275770",
          "54146986446302939335516404456843377623861558503014808740920146643998585819137"
        ],
        [
          "2506944674544254243327306709537",
          "14647163084024528135262564948489824340788050860616127415023285346241358168122",
          "9954515582996274360047464678697200747113991537066250112253485395639370420225"
        ],
        [
          "20956556100294760464656",
          "43666031901243395755165602425797587537033363479896911165938982491355802406913"
        ],
        [
          "3459609492935704584",
          "173192447259842568494966456059826844967038167670017259148773822413557633025"
        ],
        [
          "526736",
          "18159930366803765587828105509203914485252255545236133320642655669567489478657"
        ],
        [
          "4462606",
          "29185223362040869160875614112605026837423556481452174079219740495599502790657"
        ],
        [
          "14870851023283507121313243148368700627603424714251626512551937"
        ],
        [
          "27240902592870834428970994109595653664842476875343209679729102849"
        ],
        [
          "2072044493699340903517344745664161",
          "4552506915157115517199829158644098659473680554359071398758260414892217076229",
          "106078699284085595409658636464722812407531694617949934321192072072467013079041"
        ],
        [
          "1662374218863181568864",
          "69271720376463714005696892790398223226028979632020677002907849157927869356160",
          "1827629720383244345060238126890415130121741778453053628957109901865205010433"
        ],
        [
          "8517768423945891953031098224278527592",
          "21004874480675862064648118601534546016738302405626444769683477452853788993144",
          "10135561110539066990686352918355178067687145895444236176894866894594280415430",
          "54855441892150935638917826516865710177081279154266124902778275473454482463785",
          "64341877175055358824907208615170714135277193363990739846559446303152804348302",
          "22390548026506132584475135108297865996684355026703200302137723131968509874177"
        ],
        [
          "159037194130801740820246149461505453765846956839818124853387652",
          "21827794347814743086371719652831344570587012808781525040438878908544465670145"
        ],
        [
          "175817688708315268437643082203854836213364841443086534203271519037802582017"
        ],
        [
          "11868114277845303502741482525301085214218016911377945477154",
          "1922360674868749036298925935996122198738539377056254852657504903238485708801"
        ],
        [
          "435853641155437955636794592888331262379899275915423106580464701441"
        ],
        [
          "731721639706682890170273630979201",
          "61519240989989955397376298215093819810504575515909950418269150115548199327873",
          "113521652336394331409607138444786467842375266592614851757650974944576600969217"
        ],
        [
          "9182626986555383710116318914787456077997458034191844606876418",
          "12230368204351532856263459809592740175811620775242968677056887100502425510657",
          "22027314069232632307485043086686707260937375947579983704405905574747973133236",
          "73745878010391020573520154952341099410314716333876899592085177093655949651998",
          "86932301524900633426170798925526015406742359374861479241904034365221116481537"
        ],
        [
          "4085267264202886",
          "47085432271888262600306416690643161620764697048252948723623638637747600230176",
          "738608564957552128314202867178990310140176531939741200262193524321363290113",
          "105390499034025843866781791304013718813139821528819178924060529168581038346241"
        ],
        [
          "86261369120",
          "8169137323745011653230466322136621073413722249785371662587378574918632759616",
          "25896411713762919706810975668505833579928480723827871726653867601913409081345"
        ],
        [
          "196420052296288108291602282175055425311264",
          "15396336439434259421579040501436740175488993078593688438308604777678388722305",
          "18113041503303688625287390041284926314255140387785850388643294140717915869185"
        ],
        [
          "7326214067787083340495257634718338057057808891890644340148309011923898369"
        ],
        [
          "14816270172396134852702391129105398573415265382964917790566682625"
        ],
        [
          "1294666752293779205656681652728408001715249312",
          "50489438278581206376332808099334982573188841492116544872396588254323441831937"
        ],
        [
          "47694714942907507595258509944469573270409217"
        ],
        [
          "47186567664442389324424878107881078572396080930060891910191993753601"
        ],
        [
          "45686054968301887684162629890899930797164184231211198798676023711564334272513"
        ],
        [
          "900114523976004778427608851134540172882253747567659300153626625"
        ],
        [
          "16124318300782739737316278329612987094295862387131285990969345"
        ],
        [
          "36406366710879258329626743111597541412530033312",
          "55464951095673436364482558117791637467956083250950208223235389928030935093249"
        ],
        [
          "214800945997406740610210860062754495046015456345447740116993"
        ],
        [
          "272",
          "43579521504011134653608635170293952646489434851764201928529698235100237828097"
        ],
        [
          "732724437805682918544559815187423200145100410881"
        ],
        [
          "2195117131116063761424256960518144602850561296151737301412",
          "632644268877693817999727614815496574089427080444702734196725373596065699393",
          "60630415693593184906484899648586897431031951145898733603108757754913332039681"
        ],
        [
          "280704663376212347129805716466590301936970350628865"
        ],
        [
          "28014522859031307529408860977102500505929817309168285251462941282305"
        ],
        [
          "46",
          "29638670369760326196498168125562922142678759525016515229719350764602541619268",
          "25393293767736604836030143617981845908722265692119252152206879901102509559809"
        ],
        [
          "5181560891535836748039",
          "8155077642691722886975566915656320689727419899894654455141892041196513269856",
          "26047301331387229145691572773399438253473735394132450429673621523385274161600",
          "11805368149343334973805627481103904346489010629345504350859991298364840251393"
        ],
        [
          "4981066023048374449156597331341439798409536",
          "66040387419391492468785584678854441541799564349793890603701978708044182622209"
        ],
        [
          "18346998963893258502719402465493949546827813355713666891464751013838352123366",
          "15427460550478757133014802822441661757373981365748351967263119452663324250113"
        ],
        [
          "130734253444",
          "46624279593060156930996883216843662891340153661945488272361301842397750626052",
          "16057812483564758237857236197189137931346882640828206240494275502303300980737"
        ],
        [
          "368",
          "90660483784868922074062356441036946237919717637375745456431967127714607929092",
          "60638871251432703803639605362958686795400845640923072295990739398189508466828",
          "19266873859998646717335500122018376285065050599765304531522659548106646949572",
          "75142259526675312429034552260007362124617784114861627985766864080683466772096",
          "105026697313761650398661423356346055297610275826194042331736872952405458260109",
          "9518296442925914774659160593597089687704376189678978941939123999585031589889"
        ],
        [
          "29259896735549298711935099935384798048",
          "10179503020782853580312409186732860047976635819424675783707417184383910871083",
          "31436028579082382764048128860136554747779522584768480528209523153554512061862",
          "575178419213445864749281850198461730692000936070232454010413741280656238960",
          "24566942394102761938340896219407716952673930920084751201577797691264656380953",
          "44136014312305184045976863202228057720349995010547711118968078442362052322566",
          "40407271940576800678921822006003389572577386353795914044147262130338459358803",
          "47754952549184467387232590718775922350156636812688211141706668722357270809176",
          "74895487740255926736427513839698842484835503960873789571523747955638308790932",
          "11427368522168036186648072739780738730520858566079162060063644143844462956869",
          "60751307978503195939186211395382965866791395690041167453792595914814850991350",
          "36364434267738539847258788753047301705176246426576442179296662827342965067156",
          "69379819101865430790756887936073041203390561572494478679420465449226130378981",
          "58625905410834941384839074980010332985046617729397925257875961189886373205510",
          "53516728099629364664404749934551679260562669434300005347672203136331864179035",
          "16972345663635853922660435237647787818105641596644231687114790490395388635255",
          "45722516331878699332781263819302327939177635981926283988274641069900918061965",
          "30165333042725008540526529267280304800830925469975024586956872306679358066689"
        ],
        [
          "37336705957644319228293",
          "102212407239465178004750260358851886101643740811124733945814597413355598619842",
          "5488045476738566178824766732843955950550679032082486779719677149631375049888",
          "19224031165076142078959722218338037569924654704903622400173936992731604887594",
          "10986653045048501651591021989045549612587255415717360488147230652915312011358",
          "14325730799541502098711450021165700922953548400967445884715594853845733642241"
        ],
        [
          "8056288470957666620869015588450723378211",
          "6408400122604212467890341014066457835786713171357683062066303380159292014243",
          "16105321781938630974007098634467520743904686304372944604763246768334086234180",
          "856203072402553150059236049585292429501644647066323899606373217642358080145",
          "59973867243515401519021279964512162158511729794886077029091131907879604034913",
          "25033794907856550862136667849912444346405089575219688484512078189053572714497"
        ],
        [
          "14977",
          "18095440759820719124609768093357849039937112783955063974408153488125161641633",
          "59920437911632572854534564193019393758659109797116605359852030249713955146368",
          "61633977427779448848552023503744352275749237360332902017648720405414820620400",
          "62041630450514690377160566746036682928048585899321017187523171944214582969496",
          "72834084839462805635247515853987515270523850784156687773034459593362455036593",
          "4795458725778794537181883430642180632095036802217527608548224857797977708670",
          "72380875341643392357623760943558709261047515484561904592171504127209573355521"
        ],
        [
          "255191949523494",
          "14480432420865734126268610059986844140862227406088289406220068846423528051238",
          "14644567758479117743373454694316703063410710946283984657016943751356136030849",
          "64454625785363811787212680275997366552873041668832366390843295141398195900417"
        ],
        [
          "48633886",
          "45012863755433973611664536019504332481962430521598390378023715309983541238275",
          "70592173503809200708775730843654959057931176815428006266844840586628120875009"
        ],
        [
          "4871320823519375067312513657629023345323824355493637934033503013270",
          "464192654001127981359728743442209613797138824480836082515946443521174944046",
          "47493021812676631186162728436171106973869687094941722170506566201764263399425"
        ],
        [
          "157232903710213282097983429831820864",
          "67960041537317745234795358308389223132616063103868033063448184398345230782465"
        ],
        [
          "2185431806980438915279006655553518004147571905298446712868",
          "1018201483931147281476164411772623802718497628584749099959289501569660653569"
        ],
        [
          "3653039384768917677207069352774369676646677276576802142421717810407109201921"
        ],
        [
          "85144584359679364940156442036110909968",
          "509907977679615405716923963987951196723981165250855154260386117421619384321"
        ],
        [
          "157208",
          "28228076348786017916284167794552233018868412520236932264853457835855504972363",
          "58302813436807377889355608967636571952530295154070540639019276229406857007105"
        ],
        [
          "942764751466177846916743842019036676414089552781841863838718047347345",
          "44360026109146261012870776087345245236571046761161036680384354371820360994817"
        ],
        [
          "410",
          "75121974703110207605455170868829297926956706316983127908446962621487573150410",
          "63611208494389200204064122182674879451936983549161356520730448834356199215629",
          "18434680249101135152658250129795965971903129411193260095689047343691859542440",
          "87770171391047194297316335790954365901406826949329746447318670321869469166888",
          "89403860271878059123741618425250000491467709401448243174015726351850450128544",
          "35568721767504143049935965980940601704084120013536701282150502527461630175024",
          "48259498657972483584257703577538675494129541323230595622165895572793797512232",
          "87319630521143037027432925366900524042947532356980779302036528218993699599011",
          "1810829809409497733217846031000708044132523276038429280042200054838546449036",
          "18106112607840079213778062103540840096080931670647722614175203432930880793696",
          "44632195374020625889644424821882323497940231439781761167891855532648869302273"
        ],
        [
          "4751189527379457775034874",
          "64501726939389222001505847131559013522700820861194816200556653556511294757550",
          "26485333697972879300008392363577066248221515015519717928860385803592633843739",
          "91470856482122978517950785935661393931423559721998437155931971583745733864162",
          "78781740356373918377248627558116792578151815238585694829208857974916033559435",
          "25502069625572000312424734263138770454132873055718136595093123099111467329042",
          "43941877358981360218969621825748843806206239338318987238898699086101874829984",
          "49853676688070540799671966070696102733566242717266709645955830966854252763160",
          "90337080143713640579399766645563220890516948670492331666180074671385916903425"
        ],
        [
          "147832974148902968172730964672386445861757194",
          "2092873078380569666723501752866507490505820617335539457322897051548112919139",
          "53027589052357728518119285052374140621106960665791246855878790251261326692353"
        ],
        [
          "215164969665576434326",
          "223806579645454030908447095542129840526986343577308922066483233373314523536",
          "75798905745482171601688720009089177856408700477393789191435676343607711406346",
          "7561336959212222095564206079117166085588264389527738513532810778599103220480",
          "73077958352560969845813390617643348957663519437750105859036241242783257560234",
          "3000207526022768453147216796687519955667905812236836515671478085251374768632",
          "57047690627484202783558664596095082535304398723944209842401462939046363172865"
        ],
        [
          "280045817422797973329147091105",
          "3734288359945477399529705525478335914845919723197215865696079012841374385288",
          "29001256504384501228092591552174673430658464904192743778346563127100079247361"
        ],
        [
          "2812678963639943202830876577793"
        ],
        [
          "826334122096868532348606298102846637785502399752212481"
        ],
        [
          "11428231520978482052036455238368743430694683141122090",
          "76215425665011180316621018465730775738436624907922192422509560713350955032846",
          "7958331381695123140615005361507904272388078034101304375698311358446593019905"
        ],
        [
          "1302235421791338567961112649074101909812328708486",
          "7587565982066959876481485338109287688190780878586071616293196970297617129690",
          "19458122215611866771137202335005232429854981866709154422009069188369082650625"
        ],
        [
          "12605630336942997342406206682389805784272548040705"
        ],
        [
          "10664796301589610372616450496138549172417628332727153060200111622321859527193",
          "439959396680470055312134254633486796674048906064563951342667489426687983760",
          "16089141069143358119753549857744637403988778938225852128031279956040855261280",
          "40266690049760011834135185534885749128418385918765950988870148642799585854352",
          "706777217250611015290614789021754230650764256123465630042242835088765521921"
        ],
        [
          "3076285583516529593484135234251595163620351442204135425"
        ],
        [
          "80",
          "13627912934253060402725559020597681391033791805987031733931173704969490960385"
        ],
        [
          "269832427555892415112569876589496977904061836070913"
        ],
        [
          "811455229150343350000743648497665"
        ],
        [
          "15747210648961383914087936299611461449560190747478075259276790884",
          "4636455521859250373965894249006801656251154573385211884383890260152038100993"
        ],
        [
          "632697063555308290230485980061837227286944415099797687060325792350741043272",
          "31693484205484273795018212137735387470531554390626032645404922526605070733313"
        ],
        [
          "5713374235968907561179024604389831576438661060801050802238",
          "57921664117083028700807009164391114654930316964955472306788588221195631366145"
        ],
        [
          "74324760377922515273180254267088489356601986605616826800971336",
          "78830740859311736373132683213779252964583119284043253076653922342346080817153"
        ],
        [
          "173535817308851848",
          "76222500382792604555823688607145507822366361518040580845150714643147731441674",
          "72879571013447264131666756990004111553136679404495760374824158811014243454977"
        ]
      ],
      [
        [
          "6270",
          "14513099412516811606123820124804158227488804434890835550408267928234420639232",
          "58278567331776863698456338964601315949231042233294507704944013709960714489568",
          "63330085445934235030149288855260053186390273227040432864385980792755144003585"
        ],
        [
          "27791749467982696800792",
          "2505510198128797562470227500642000322946093935011113498472814462227229196708",
          "68793254243043166411408301484201312653697137224989386104057881426946225609188",
          "11761949232579783717506404394887003507302137940523964816791377781598512586464",
          "55108040085625145494517454214951705926795237553066231049816623363168485675009"
        ],
        [
          "27588267194979880",
          "15606353128087775104616040670566193774630709756783569047866328621793472319489"
        ],
        [
          "6175897738400720276256997773007273913741786403078412",
          "8841082072000385916946741266653824684466796519992566443643974147741434613600",
          "11139156569997758775943330504917266000021411370546541196018562367248723775489"
        ],
        [
          "130019234440784",
          "13682728095144130279085348104899176896209069444269616457093532760876555470927",
          "61627668988398244128936733840326086751007759671878953004131268433778116562945"
        ],
        [
          "1188461572534068803",
          "58923510302568744882086544098202047475492876773385861722455085681012082219126",
          "30538739995509162175924180248395023442581270037805570839337206302143211921785",
          "2723707802787529183146712867075119014246593151030621283850327507171295170069",
          "65528997077761643557835861119339585378404901566915898918830302241017959976961"
        ],
        [
          "376032441738545684153597952122301187820925802262545682212276152608",
          "11369698067661396369144642797498145602151759269536811546696703601173624022136",
          "87452789026880218151819837866552057467786975994875041904239505354408641357848",
          "33065494490806818833739808506982440755072209043363119144997597365542824459929",
          "60341748535051509548161861410403552142111658278709067866143962953007256473601"
        ],
        [
          "129154786192684640391",
          "960339222706872748362474967274447654313300401134478648976715981433745195513",
          "74412749146837370714653918966340458905565708010690671210591941445739025407898",
          "29129014093182539898037514563754459925252439553079558305359329375379555549542",
          "58066145069246714057004067398561747192181199331873925991190818641880335615497",
          "57942435595757173672267667516891773775777080955330233660202366652561423241217"
        ],
        [
          "880491764331736289783256356548942269320032",
          "61910491914195200974666218604670907234122773047003785874431518124089385848833"
        ],
        [
          "87655943104728541106567520910616971809377",
          "11424435284209086529643340087113814672372622953615351592722537135944765674529",
          "482142233582620100417369702599520470525075805587656855590152728243167727617"
        ],
        [
          "3180246238333403418",
          "75144896709599651214994273973973798420963009559229924502554263239218573262728",
          "83084078204280306523275305172861142818828399714242275220488463823187736677656",
          "75847881574927286277168218391501265080147708940598142142533845801971935800464",
          "44596840223077172166261210299563209111588940502891564126636483497972539494401"
        ],
        [
          "10",
          "3897771841242309769442185242985813465763677402531558321394135535697191804938",
          "43861095212363805719841156680063680084437685707916820371497456416527539377544",
          "236760963509418459424438719642195592246005161378786001997587835389733641096",
          "43439726306499723780116099681044684535552644939147300397088258065402167845048",
          "73148393411255357721594490785532476502259367793962464320669417576947274223712",
          "11366247100734086177019346255926439940209170053221782108468878326116515201029",
          "83250797094165113203707461323437927791017352988465669299942990082016507363813",
          "1922578130019690779428336040607154482817355091121595284320464890066620551169"
        ],
        [
          "376628970554662870514640912529738839155894483078",
          "3869529881718065914818602202650020549351347227182372531823866584658029744129"
        ],
        [
          "281360333056",
          "3620504467460296207474921252945515154968874664662195181521301716714198759680",
          "3732492682169668116689002736911878664620313013344663865901193250583874503076",
          "57954361588728634292058458090583955836278523971120197253342251567956973719584",
          "42604137742133182766730236719367111848782179253065842286297785642437803770178",
          "12667883023008384259424397901799031063106872810663911872202220135202290819078",
          "7636423968923420208186395475252556159191492839343444888659098527366142900228",
          "3642478648401382644209183920978717645902489836060724456079198419992675094916",
          "10857320077890555640533697737220651305809062508530702602447508841089599562130",
          "43874456890526087055597118837857801114463112544715444775697205665332099783393",
          "7416451618527350632778845515095110528146125648644948533881543640449865388033"
        ],
        [
          "17951",
          "61543704495090876232978168232790988858840890114846336300147490544123948695810",
          "39842660561970231990776567737099763574934483061498008856419957267108724806664",
          "60639297942153647982543679131267665429502446355893529476896650949562936496129"
        ],
        [
          "146666653753063566824656150447878961555294532935228079552315134997",
          "67000614987898401246165230753152058696911568821491922089651696404793980487193",
          "10010196519809794397448329365556900442266995440117931147364273944364806574631",
          "14588126802886858093184850823219008653875820570911597603407058953438338530883",
          "60341530145583155829027145254633708400122527768265321621671871494521002624744",
          "69897064285677961616806968274893435101212450363927897405695118354853183000577"
        ],
        [
          "163935191252014682938987999058701324612496213216593229361602566",
          "14290739378502725842864387668691242495802477109686306433900327009659353391193",
          "13641980617789688962644430583955220263989564798796127483044332789719327905859",
          "68754234097903877349482273437673918502356721890280589380898680924856900931654",
          "43941499616229077283816819323073767181440319455676103622286782663013467328513"
        ],
        [
          "41296931574818208046552139816783847911026739392381440",
          "58529241888935576523226817605357550110854976004791950302341386312739084306448",
          "1025822236785748084782098136007031869591964996242786335215155891865853101184",
          "32576960698291222395144112401938585169789020225810419219602246802699394125825"
        ],
        [
          "47667114025165266643466",
          "79900360714652895747465372808361693428659178353502814478292738032845107337255",
          "68754220334403530160762132989716737725246699073718961032681987196652765067656",
          "11996901238610447858081012354666102369391911125486400248828349449588401334816",
          "105848950722183964589843611853770434120085770594342236841733750390581541109882",
          "87230344646524355348006275005075506859409260327767341210216251209042681565185"
        ],
        [
          "238874152538208",
          "31776123421301604360720621168536904425706549959358433724390441747401765045896",
          "4077720902720929428723159319323306595036944777875504120672560458139301220353"
        ],
        [
          "85331222400268058803160015437078386915895739785333738497556",
          "28751240752185348807459822267183940480284359670158364137020143826297940123809",
          "2998629784603670552839533386339154375277866154029730585168157573352886780548",
          "77024874170383477836449657221387050459124879124496250943266795397278775544217",
          "42687099121134310383600157017912218521083717622385679290977657157241232050819",
          "44316983270534785383924971179093865723992316495932883886680698794088625246209"
        ],
        [
          "48760003013544702366684705109342071068438738711878146332821562103383062914",
          "11535799000042857132501992119772492585763239037454770192202337772498073958526",
          "43658793612078145727703813985901217622094209054132472634028980546622932288102",
          "61542018951666000659676595654167273295318161633222190258857362260252577661256",
          "68821538691056024694450684172461813263523246957825004138780779378630443246145",
          "72486020738613396996738903945172464459360975205543862967522700127521153746920",
          "9287003526409637839931773555437459079224794233079193431912463839884653006849"
        ],
        [
          "167989096084355264172568995032528721950",
          "47503838584686152817256450966804292118614212275896563766966928336010285679097",
          "60658675905983146326741369674043425519462219169913485235799060649528583950337"
        ],
        [
          "724092907754582860017153664808365632248912635837395476592",
          "15368084281391784094705868188744936480525450767859177992158205243223608558024",
          "68783365560714566241975694918269571786120909866388731009261324464606456219910",
          "65201139767300848336275733070570314955173014352940323866825756086088201838691",
          "72387974271158378119522607036239816707738848171926853948397423607578351925646",
          "61709835810435425426049243350082383533515074193779260699057705926770647535617"
        ],
        [
          "537351823736327627819176260097591534248070382378",
          "68826105058159290046404038011478660720450695209014160966853233268816763060666",
          "60797432885297352763402943400585713937159796406598721616686022017636140318891",
          "4535361834570513907718302969628526826431692009631497435456891224334851472012",
          "77002194835583529154091309190980725176543152619771201643996213604092046248429",
          "2901512729359223453892671324543426688114768748858859311188012551093805933083",
          "4768190793459403497005202179835031442792543005063984961079932392837454965275",
          "14517290567730017661786044851223571738496155195837299150435757276709600652802",
          "12788024186250671510097268732761311510952731733442858175792388089554605084673"
        ],
        [
          "4533755369598",
          "47560016087208899661940172390318976724778996197450005257277249145327755092868",
          "102606153632673187868055229520377502561957683333895723377701572196778049615457",
          "59879505105548478053517719554779734988236510510902005459571367395026159408223",
          "68775573263072863403904208954701566472421005102310270625438499482210701770873",
          "72415139530666769896032748038695129128572329320636393889032383572310507406232",
          "1627933719234064854025622481968210561971312181063221015019593803298101289022",
          "14294300065323067244579295232668197154607552089229526730170960894705155870721"
        ],
        [
          "212517116702154634859768413834721710031758197249235794476501673548265",
          "3649601438475735095733090611487952588359122785943801863215138981348758497314",
          "384334196776759380483196775915953201735905296896326765825666121520259040684",
          "8894976594820581899493589023819056757218653729458196831521726962304857575425"
        ],
        [
          "5093330595453555157684932649083334450431380115108826739920794002361836026",
          "31933996234609116639321465134569859642909409786475086857756762559801786475013",
          "61461721615393867054315526073576955432389334112208094882901349247771192360577",
          "71705987035367574910438312870943780013498530388010010188732205903266446741960",
          "183968866230953431680510116341127255233121568393050260230243371884462184996",
          "11771867345406366455077401817987226011826212943574185696130035291306366302726",
          "7071379211258173037072741669407513065605999313820980445978721112220773131807",
          "73464838696708189433003906902913421712746870774823177997906074369569883152890",
          "31764604948579050203925713671945239839335285535823787603461583732792908746753"
        ],
        [
          "705063552",
          "47957365315939859384984088032481660997383420827943157946856226985959508764202",
          "753136034214652915510255026578192167805287928822745522169527250149257292294",
          "18349663640527428585470541873972978431235904906003881177333041083275985201734",
          "18349660082196201525017807046883116311038313255542502641982361458209096043008",
          "72894095938125503460942177173190265002656445022831204763078914119096898824321",
          "69051962927382734725916605348756946860913292162828959371560411950687986281096",
          "69034515567839195113783369682178167364176282946106656019747700449211104005648",
          "3888893250949560934537984705533947519236867846783230915446166570192697987073"
        ],
        [
          "5864052992",
          "28099107241695524979221697072679483897605734472449882265518348965914911823389",
          "44164092956703395718683605459240660912901659550570728712682551683545380098165",
          "60998682265436158879620235686742607765817533214501508083915478951082677618241",
          "44148882848120481908552930081303395775927038689684406032437428888336349367925",
          "67868284572045215896713076634707006585612222951763223300254478752027953561964",
          "6957559083251190972574675799437709081091237257022495323028429789458795479396",
          "24587549969263001209002445801439805583057414152717317572589160231934470755841",
          "45303307718809043021293344102060826487727242323032194061697036573096144016963",
          "44139604041634746127565610681023467573450444628970930122357088954104742472464",
          "85742164736240726425637794621393116440518173139097947646726960688325456703875",
          "77914354621990074681454083981985929996103110941901824542324168813445765963176",
          "87077575447724487163615321397343729973145024893385501372113267451766751517201",
          "97928836651605372272490312123902623020715388557605013093518054508751664259426",
          "24888630059999391460236105256442657735612043996079678648656521465254850014789",
          "46815939558118686547857099358416569381454884623733361978969850898922153009512",
          "57047777720270610743218492398872475454098106392237123408247061223270346471951",
          "115614322680775172762849345127989175706697626305434194813004240590019358003201"
        ],
        [
          "16289280",
          "75086682362385109239978309349440839856435696139122637777555107666470956863489"
        ],
        [
          "127139284961",
          "112876885511785387637176346414442916542969858797055840057721106700204652333030",
          "25962834229231717481483900301566619793642151462487013758975820997941605695993",
          "68008772406236859349694063910695292451213198924597136450584176271598149331238",
          "112177076744174249716193032888015576249491119325834483150037079018192616168160",
          "83957270717183429428930279120178665762255736541850023958685062199661070835929",
          "78762121757741889442541517659323336062924056403247381872468614165353769998385",
          "114890486710027632543996752900669614251146838004270673123362490518181807260065",
          "40026854159267227431356496235983203637730725196864296637953542505216950017944",
          "18908807852395324922218127251927258206539574543101723972045175200160734019103",
          "68925101441121000198235707792879909545456409050420314775338308545729027018753"
        ],
        [
          "69177440",
          "68974513916448940666777941316832620264625383727948023163461740442838237315975",
          "102266879067639115146936023491192643004526629690331459982423791408165997284936",
          "30772082062468656396127439309911438147263094022729930195334599386635921524112",
          "27845741381567260214439558671464936333839847112536099999904450580574303695104",
          "7323592110236550111765448414066110369764256672248589692916259430311261540353"
        ],
        [
          "625303461145450413957499953856144067654388442865114049050",
          "59027815456579733609788747114069935270562600411157413059982117621360532819969"
        ],
        [
          "385842135565318711411103271952475",
          "947592578247631522158745812252796797318041156218770038041975251501811402947",
          "59141037494299476258135031272113655073938256736421003137366568507808213288323",
          "106605175545736009653780416681756041697829895937311034223215389319119895957505"
        ],
        [
          "690565065213492129531899219175619161417236546041928",
          "20862448748952890891917634792194353367043138343070920450992669915756377968154",
          "64256774989009150232497893639740872789646544367865297350399857345476106534950",
          "16068027681880279647046730828414297550247724868079204724171366096161009206958",
          "50235061979999134472265100858082444672786992458689365615335996031140777953176",
          "102018066306012491588847524198590821852813183538238718764221178647150827649952",
          "83929103238092509331757975687281003498894513414013024169209633520807491613723",
          "5104376099231190878304798542975565143605611345482285227676865774394521587713"
        ],
        [
          "1745045564942580505225129817585329329177715848",
          "32733054749136692825543630078541630213331299738348525539489618700656318153240",
          "1813227831461795782326029173288790159167522793147852862854581687649919471617"
        ],
        [
          "4565471237",
          "65181776621257089288589843089837075592253847081927864315314593200809347059737",
          "61918356733611573394542581038992785862925140524570814303369262109759506895086",
          "29001475426590765813871584147623694694275044711069329822653044571256136306689"
        ],
        [
          "3096415517626131764370242803447860628808031611636762046016",
          "64356772983576511097243113310686740799308109626275374959329206018088681488638",
          "29001475857104123296273009139650138546456578164419351413886599279609926553601"
        ],
        [
          "7741319",
          "109603044997573996884401599765482141949816640653587596870447423014928521632068",
          "60732065392299354862950434817648041167935423720833564011889906042830560472601",
          "33277242056788399922498115819220159609577176658959713827221317885627982179492",
          "625412074790419090184494698883486900580175716633637918821603228843210045566",
          "88971525388490739504451173220265471752947612479658784068418143637374912035980",
          "18680009602511339029883346162787425317976914334340960799194364218866840652809",
          "91827735631594975046081253010502185667098908746995417540133443395690850961472",
          "35336356454367407416225720461753606880492022247501838935190658850651124143296",
          "11663037021616142152250534071654857118049339857218760770754979620148518032408",
          "29043651430819605184550638670180061907773076666888956069718281215290186275138",
          "65274511793236966327308143430658102869812052697470706291772088661421512536089",
          "15410447216632196032251382246088155398491198256807596341514796219414469936257",
          "56341458269645392912307990016739233353212854116039325288223194440716270441923",
          "30846189770266063078131431672886378657574524160195057114066535684230374231578",
          "74407178656121651744050381172820726077648933920026223677608216391185247265810",
          "1982382141320658568637223816146737859057254551436884764324053922017157751809",
          "37259397361475123191308029720238094740303922643636014419828513127306615328281",
          "30994481554846931769820942477332430962395039439868071694553740661196574537855",
          "38005385958928620947982471080597422317407047031997891989378461832031381498692",
          "3053916456773229223310000501919654926925886904224633575148350647736652865848",
          "57562225730278691609057080070932082229556152147512833609549395045493729671333",
          "5548785313162826795031329266931315538137553441766579678929361237607199563295",
          "95333894876686836397990956147409912591296260400065603063966907386243860439503",
          "12961384642805211705034494722296194024853898109613239990573593041561889181697"
        ]
      ],
      [
        [
          "6090483816243476721576881796034542733540",
          "59429725039929942559387077178607620558232312448597707425772447829867125706753"
        ],
        [
          "544907279971882457238",
          "8836672304876572711972027683192981215429356196513328416117049235455531716609"
        ],
        [
          "12834299924772966898840717336",
          "60639140364543700584204693612217452560923368062416949579995444633622787821646",
          "43875398832100589589315869335997004640740919235627855007876975791258108071937"
        ],
        [
          "10488927738920861886134342622894729312",
          "18504479497036517272209147477817091195562564732905676778607460002780204931086",
          "73406384548756669322147528839894570926052670581059031391713313066199671941122",
          "61815812194853811711218695596125069249721922214594334275361295108402045161473"
        ],
        [
          "1531400959029765338333898084773967764856994495976557425142753304",
          "45274251791053148519295292389376666429993793986235091402856160501543154718864",
          "42591201954906364258843117586146584548092832108255771352509562674544434909185"
        ],
        [
          "6914598086497894855800390278808504004",
          "71474091029584124882656251052884671419831202611069614448411571097576655693844",
          "64683512739621206255236110691279824926366225832089432001467701554092212766794",
          "95242050499941137338681634750836716890440137517674545077293945046658993000449"
        ],
        [
          "393704090731677",
          "101580423820829684261860437875757271496215564252260747821314753638234965697923",
          "104513224431653350256165779072488274546395313117607552744031815708630546026497"
        ],
        [
          "871905197285400",
          "100430333210429903778654423679699916007777371968633994403766827704292355772417"
        ],
        [
          "2364146462036619688583650924026207998114700910621643890024696",
          "67867314199562449927451597419426536511443131160531342786971657214257179037697"
        ],
        [
          "27055730181067177778546208",
          "29627112918028010598595189143578531660083024083306203612231295172267724806177",
          "3647449737375882487297377410280011697900796109507192514908873568223857213800",
          "26022171244525182494821538975856575526293577093329710466668719832800640274433"
        ],
        [
          "398786877754421638623753704456532044364647304",
          "32355193716116911827401737268146285096420455445792513126017922430048594726913"
        ],
        [
          "135633513052831337717671338097142006663",
          "102494594650074399054370795235262362641523963157556750823761978916408169564672",
          "57064784750386750152879735801532456286582291504860007947633375004118345123640",
          "893390405731034364249789175394979484520914649644454357954485505077151174657"
        ],
        [
          "13955985099903192549267693679721747616943653530452127197724877337959634961",
          "78818331113084080580668861368714420927679660877158374947011339104710714988996",
          "68925099289745648489206139363596236041112766172377417968313482650767725576576",
          "40577861797233734615178768049073292632467382426519207318245657670889396146177"
        ],
        [
          "82564495496827143361057433131051102628327856029710",
          "14264426035878399529922355936434141527229435066515590899051746902795755344264",
          "20132349906452851331764847381641810958312935059017978240527256471476724183330",
          "11376088981817824726419957170511252251822643957806859001769622970143743157791",
          "75991652311960846873147871757199851370621025900995352793537492838397986115585"
        ],
        [
          "1293562182646511699847",
          "103185894356797277188124540157018367231433471148570307426814930319509393784628",
          "20032551924736908406504736545209280974176567702304883527382612285426146403456",
          "114290795547537129143547713421344656340473074068292955001631441395110802809264",
          "11101225663876779678151391426408271933147596627014393909218059787777109434748",
          "79283619878258555772846722598873874147056737529165792059130711116546264430929",
          "11364734917208187907763088957555435251489515952989743256415360366184629702657"
        ],
        [
          "193520056",
          "60709759583091208154191342336660591501473045157389863768931089151120324984351",
          "61475686545450357406553507898477461984875039707959150022056138156731567080979",
          "76158419208510306344398969889652150254650359540810867760401999646778282381313"
        ],
        [
          "153",
          "64280721645351769659089682205124184822133066769687406276988113730015682697291",
          "64859364911520106288345726454101581120332826986138257443196533685255297535844",
          "112852223508321665111072166094886906176149421738088903293787922459073184621849",
          "58054210883017528216787962136361788463818859867896161756852245753711625339097",
          "60146113147727395042361507914017398711109045444469535407216560994550605154278",
          "7405905558599510022780065763768354617911673321126425136846771665255873257370",
          "31481857207754776947983384317856256648311464466268178285695676408123013632001"
        ],
        [
          "176034300541531098120564520122439289264071987557330934595826254715912281",
          "60172413927293719701119879012044187820286038038825554611800961381062191645752",
          "59973895381224967750579495723220500314967689546394475423598469477030357703237",
          "68895775981970705050119465194149946045611682493826014187822524202819227059777",
          "72416447697409375488115412898730395643050748864563499087019108545390491111425"
        ],
        [
          "29140952551208988567642034284554619146842456731910730291690629973110700708",
          "15548299900930372785986686304986075549594696516809061687312194183292393621938",
          "48486933078992789458622009219783009068628233845757660683185022295973603488522",
          "22653993143142754934371999984493497519617687412141466944539802007015822324080",
          "46865144011100636821222138982454810728558985308487114625872258251914708684801"
        ],
        [
          "2967653868945976329759",
          "72430226549397178714085436503745867962086686760163724141574311183573791073573",
          "48400829920607466806783991586462163987137136178720000108427149380025848007712",
          "87537845075097921363710529260001397414812374824032862881089693332221152587312",
          "45518370895367821765929336358209476396077236315126227672360305221867103752193"
        ],
        [
          "22884712219122011578716020608064",
          "10006649791998377480937190737642375010973279444156829876435556242299296778816",
          "20934860236572868957317947045903122814749986225283635152392793010082601502820",
          "625415605166900857436067925065121477156384210881022018500326049133740195400",
          "74182633621311008584332239244174652022146010070302761589310439472699795738625"
        ],
        [
          "426632807207234882204380499040",
          "25899935268558526903001739249438198103544084938197345038509714407522239383016",
          "76005514469915812439519908995294796412159182257118818485951013798755072118785"
        ],
        [
          "3663613979229667052158779309725455830731686923907144041886515145508417",
          "58073120090132920329949586005220484568886632214867788189714997736171796445600",
          "112636784403228263208226712232546674888566595732798594931543947500244651380737"
        ],
        [
          "100328",
          "61243366743162055553290012351709342637716038314095855983949486297972587126822",
          "43712031730344702982964083719771144317985141238119567256692410365407543724110",
          "61981191735409260692843800141636264145869205148722734895252717342633615853592",
          "105167873341690020563888288569814147583272250441560880967919684681450543517575",
          "106127584393918962104050776995317652055618992076352526360636619717517683101697"
        ],
        [
          "107517907120181032016986215189873710455311292773695397283855980986262537",
          "45273842984086119317737017280044206885510246425682494338274437870181394321409"
        ],
        [
          "28",
          "46071024738246919567927155873589292617659155451932994375135300493897327078028",
          "58313313087087071305534634338808497326243945679312647184455373993845874647718",
          "21772871480537415282317453051240759949376030228777141824975381842623182907584",
          "53716872279082422569186894301034250049610377728258106361707318149473440923335",
          "60811013759376295786915667977410238704876953606210551227169020746568976207873"
        ],
        [
          "31449681058448940792988666",
          "87368009651567683773616530980155702827951678928982959275232460583910707431200",
          "46436948458877825313991220703187190248672267681133193872275911120486101739560",
          "4820127133390836687372097296273986134129766120612681545338451279896325562373",
          "76231973491203514290025326980395922056728440099020028274266269154399550440991",
          "77832810480922112216036674341120109049906613380182627377514660365249368461313"
        ],
        [
          "491401266542662779956394",
          "26956464741457083860033363519434713669442625207910805058475287240579024603654",
          "73110215289513392749190433822015325040526188184448506962544116500756762334787",
          "72500958689018333571701773052770302763859073405573420317642493542203765563500",
          "68772221181389013034883676833865392312723341066738418522247987297086611911248",
          "46642357383497532345572875899465841962410500022177274861394179953987150057473"
        ],
        [
          "16839452696664997756776156368303695608499212141688861684672515699817610949",
          "83583435020884178840361121896993950142963513128873697908923987206486791572360",
          "25557540302992880432170217983743577754082321319950991110419841617905395022402",
          "3251706914830782513622896015860217136635598832262909739299785588544060930248",
          "896965459969908594299686562165757356651613469205815655343350853574706441473",
          "48133174287469480553500574970674174314397570407774080291273618154831043006465"
        ],
        [
          "228390861441413031833694535745",
          "113430425264516121076022524484491777944039402060779247893354621415626419445856",
          "74229663997554696065303690624620598450580520055238543854625052170056234459458",
          "69882711292001333931798900928631656870821943775799104099997995566559380275226",
          "60642067496268733896697761165756139611293913029897973845842049221603203614376",
          "4360636627601423664464359399032372985565407123537301309384316105620543572512",
          "965751016016750943945171323382870760753518749295380136517921778367591819392",
          "38954729820990769577903195480927475975484610664182605074163133273290026946561"
        ],
        [
          "74117175808210551989080239989748707451952154952675606393813025",
          "112481485510273423891602875879464127818930871044524180906974799372560273764284",
          "17612697413655446351721548334244178581174501131985637626530466165971032769137",
          "26717399124425163170336499916170351113765184403952795242322185047838731735936",
          "31153261441427180922329978424704498702617436238112265966985623031831184175360",
          "50984206004885630305262965964672544896256508207301979225790645936785327255108",
          "88653950268947863991852177560977419629475794059527591217185484656433906591263",
          "83697643614534101668309434373178320590352389727448644788905243841861182404753",
          "8386762485797127452990517202804739206921260172309512781397189648028143095809"
        ],
        [
          "1692672717971402947331594816377752567343074701948103306",
          "86858050799762515835345065918962486955441555558514813635518491267320739028642",
          "31256419498475156746059568696817671339311081264260485245873622501442661784650",
          "61561649090670858665549896081232580889078603995610363549364744916883022155873",
          "76228242477152878227895513262174740808118909885184522065764696826193958052388",
          "11551880176032325100645074059882405169971371175664047268462142090174563754097",
          "19057060707816892630598365080233323651113783916412297824521239112295752772130",
          "47954728698179470720560949423627837734984943037667401042499290849248743696569",
          "4584307563903161472747892571375250450930147435494272105920837946406991276037",
          "61476794262176357356923197111903944454773267894260375314531231795705460337174",
          "72508088397131541554930271431116512703422333536000829611552122566456039680530",
          "72809104314745898144012877492700187771095233869908556916520481112520718192641"
        ],
        [
          "180018591798715611523773473625080522743780366592",
          "25843797353312131495836105304972925443540027080056269444876779869903687716865",
          "2772193208807055754935690750310548976654231544358564287824584398850412315152",
          "4325469401800531434713189260080330058728063182574313161369497626960164458497"
        ],
        [
          "9287511156570925378896840351459915582782677501745127548707199884036320",
          "40054461157436836090921171763918916564421323069863441379469387307696689418241"
        ]
      ],
      [
        [
          "85897466972129",
          "112519916930401328107396817880409985198101961651164575071415526855869871940121",
          "779194033240049548705455849802888066607264924621780067143650787352461574535",
          "103142154533032136890476135491547034723351563792555743813518090733325584963136",
          "60723318253572588521036913427886801139499650052999245601162532620023971909681",
          "269432116597220301857606817510185668698211339277211917336978428403099141128",
          "29237814581017689853498943854484012378824294334763294334110410362688989728769"
        ],
        [
          "24422430808243691295901743407943111306781215368148806368532468080346245",
          "102251135746352089899171023337604219086478685543141799935211075365028220518529",
          "54789968135229463709173299407262082906757745390503366008708145496623878901761",
          "66094478158699337875267109448316900930210071902939260419955115612610226458625"
        ],
        [
          "606289005680646150435135758725853850724461697",
          "107300419386269897104751395952209749833147148202553718895058124765405940775830",
          "90542467017783891244605610583915162727415307515903974134071734117938996102072",
          "45223861909456353008410415657072936661620110343656653580344086683916336948832",
          "60893968117700624384842596884725201232749248617086129615013258954233597698442",
          "25675037406053131629006760787722565789930902859312562868188824709627744723977",
          "104951886629058132571569179302371635887514810331138437635734105816638608519914",
          "90553412976984301058751345195619118585131171088849508972975999470429482304265",
          "15002809489515745726454801460086055050652615924825884142804285251856919597057"
        ],
        [
          "3664246603696949061887292671808556271197092672391540804115812262217232",
          "9785243304487735276856867477591716952040251239760066157253935056972328380510",
          "73277291233137058294073873484350753433079459116994055305816585590929991033387",
          "1865267737198400239963148085722906206267852626503819372699067342258033823745"
        ],
        [
          "362",
          "11767491854755140934287947261286847185022517328765068473646758381278144238508",
          "58020830134187647417136756231041346931605463895693963429907144342562999927425",
          "40992002813139216843095450116444536350118812739347731214940181129948828176385"
        ],
        [
          "180497872518136352923497114225126302677014694678048119342171451951684616931",
          "974439530934898637021213895417552161655682710523399686925291693088138760193"
        ],
        [
          "815698367558957363043980943469108589877050623792909989530812750825536",
          "17274506052570490429532431866172673313478498079717907457505178316371194552578",
          "7293863983550039444243172839620414149050256276639371555476886183260018836453",
          "3732066293757317687640239364330148117702530674500736571953775893672014286849"
        ],
        [
          "2551243696326401187424724372403117986402095111862482032061019955406878",
          "51792433636804466026197536574695910207275904297732611153922071857910453502817",
          "112410620389973716066982514240486751209418803943651985653768432281126370435712",
          "68974462407195009518749646190967636025651306605551944194778445034092943907272",
          "3347568083572905801461384462735853182383502650829056403968019697556202230432",
          "50040201945508027989700599801190826915569851160927224619202107870095544952351",
          "77804716923527191573565147378371306661776503160330590813241320509351255248897"
        ],
        [
          "61240242570713478041775906645811786",
          "10758141888652894981563801858410640888622704138037920396409305881536706151596",
          "46173239999072634325086637994873581876750427720396931688208551935047014871681",
          "102216590463694454217494608895000624782213612274006789322324816550703030700018",
          "19534469057481470373272418774684454514636921918217904921667894827773444958252",
          "103353540743785256991937074920004997741270152477370477652236273045554937405473",
          "114237546873865384465176676045158352070123163806284974764292814996242648136881",
          "32586898682840826919497038031963983576632890768915647313231111196120871680707",
          "11150365097308925911982589254256922380238390383510549684028176611795041423361"
        ],
        [
          "2377388292134",
          "19688658176090811185708853371240952020496292967683785314744831938178326822952",
          "46191624041222970773241499453931983712523951176034404119945044539834403529089",
          "102265205584100264220735279626196863024258784106790851458107189276139409805313"
        ],
        [
          "1264352577934952545",
          "40171091876479482712772722001679660080979941291711025535273069289647956201643",
          "65592099227805110905944742813984808197910299912241427447863423840290584891579",
          "67823629896079678195713124496160366456365518478625072088180636067034097088",
          "3436088313437822130124202360691439898175452208479928206223652969522189271163",
          "6382115613478706218421363885982739345129997061457710493332050092973506697965",
          "87039496787128848883774576241567263014660806683463205075627080140079186961977",
          "4309186559850776986913854532418768977948679093923047963218349089192837128370",
          "1917030110146459163319156677867143869221914933897193920024561206456525843456",
          "99141508941857298673552850097242294894350117242752836838186420373208515091350",
          "48678405160229510896112946551094886127849973876043792175324566126350408462603",
          "61076466817576422340807663923513572491126887991409884901828284099448799482152",
          "15373687036486876613542196714294447261261372728834270263127663130365803940365",
          "43282698183099800643871424496908481079399729759578322460486796396845179843",
          "46420104113675540763110799024991401350279851700487761608826223245203767463937"
        ]
      ],
      [
        [
          "431239486007833229659992843562558970458059002930200",
          "29641190313681837591764052880391013918962135259062215749173620776047852521568",
          "10092937027898100114509522059097128122187973055837661186231730935295291398657",
          "58165477581331841728800576194840964435521247537310265028655195487625948860417"
        ],
        [
          "376507570425614447246705564970666920702707428",
          "61656766559253096935920339004679491308310491305284767692935771084653176428948",
          "14985687704839159974843338423367458525627165785222490836853355746172134822400",
          "57119503699447513559796389964375641038108040127189195907478840902237842477057"
        ],
        [
          "14383015238729720354697029968602296283196007984591214735632010825",
          "62649596352587607667834455931170271365762412443920635736707391446576382838762",
          "26234755986999566798713104843189933646078697726410728229259882338756509836831",
          "75991552237280206776633817742022332512392239215696280980800059071478377123841"
        ],
        [
          "1278666358567140002113800835171",
          "58081578038632501836535828792516578226096112853746212322735496570589627715585"
        ],
        [
          "120296300649536311766362660121145385000",
          "44553054778113874577422425054543551066327905711734671946255810782114848180736",
          "73349073022534440651772313777847029232517257980975737828866411292825376964634",
          "76742136960046818743689896557680219649718298233784240510226289166975582763562",
          "97838607634968618997844066571955489607356833665338394920448497078335550761501",
          "77804616845837950550032008133643466751321018807046863557691341993251478867969"
        ],
        [
          "111145034130483690841750948430001116622466831652642456193",
          "46168438542485430414573232727506553594865368089670456900953103914970785620112",
          "104040610645493896749864039261063957345599672021344310232829684551710994239489"
        ],
        [
          "1845120",
          "45917542862545447365752591229716687441813259672282477875717183132054938117780",
          "15212508475323039806885225260398049938934734793708354133821834309393180497984",
          "29841385016805190143713165724894273332319343892945366311749798053166146233344",
          "14293799683595437551908562511357742999893369660460124693889975037636339208193"
        ],
        [
          "2896751851729810592997129427780175820201070616829819618196",
          "3909217420671505052299971918338095505292128986663033236477786325417302855681"
        ],
        [
          "869170588207190",
          "90280160352246348554391794388153646857073452597848329822645555304408624954946",
          "2771745107487233670306645243393998285088853316652793277861695199741644513184",
          "73802419330990014823503172772300752508577844237598190931003418578690771423233"
        ],
        [
          "3081636151143748888996184965088166052",
          "4637338807709084297610474144850091293291897233348627552893130222087145164801"
        ],
        [
          "6917504394111780357951091306682433862013834975216381362568",
          "59761188996992322943665812191446938132927540686212184453163597131556466458721",
          "113085514638133283829367172197094308841337578532221213929069429067279141169152",
          "57949268300066809947636828652279505517608788210794198751621179689880468754433"
        ],
        [
          "120184880464851371769",
          "2742916196153320898528705289205182222710753467012978950548845982710881488897"
        ]
      ],
      [
        [
          "1576749198901985",
          "112909868156843832023991537639259797779933314416525353009775923495229827170586",
          "8031379451540538157206079772312114727342152446272206973428975865290968660356",
          "40482937886684486239192048753607203965648057171759028673222179985691433367940",
          "10872347953389480768872009619449520078747266670037304346244495020237863161857"
        ],
        [
          "1464299328474933673005521930083604995",
          "61469498899449051717021975728487395830696364308186256607768711155698003736992",
          "25552860413212352374233433172159444961896011031874793475739623632050734581255",
          "104050076359340126713470322369696602447343422482550602662048916519406254182784",
          "61468666363497348004269488454271632761994631219837020958174599086702384812033"
        ],
        [
          "5488268545236247367379795599832940065",
          "240084580672987985511321029195567663329903452043055296892093422362444687388",
          "12481929698258554472068280660875716379791916182575658551649520198008528279569",
          "58390910833224636515205635912676705124284368713216306721157456328734708965898",
          "509015008465889742044434210287113047869336933221046827733265896650698035201"
        ],
        [
          "27268197201044015608643033900837549879214081",
          "112406885439790096284176845501259740851011849654790806785780191580490842017344",
          "67974955640999834794139459551602185821165665718921879466404553137620542587935",
          "66266759315996949306848817610099106891524140202957889580564681431638421280160",
          "48014306718176329868960852445187864374550680682267038104870023888301901620896",
          "961996424086370598874119291266136824250452297819910734511189730244937814017"
        ],
        [
          "754131620762037367083508201642621143176857692388943282944",
          "3908307648596813013917592607817426245209661355378760991772324572351075223268",
          "79838549661336701861522291214781485386696588839686984871716396253799134657684",
          "25901232614766998551633498524754509075770151258372651397280566103646618747088",
          "101528774980490526380829875398284247013596868600030022512944003023238124822344",
          "6790248648873350049178442926337610747170799991904828948850361659106613035080",
          "101462972536289314765568722791958712347534660737536600243564389193729429823487",
          "115773537343112957867635721376460113597533951408268842610811549366539879092225"
        ],
        [
          "61467099611770041805020251779848721413298955301273993201402498",
          "44313504744358835953246618171264703726178711878252058910525729625353889506568",
          "30552764130013782556397980438203984447204389525278179268286410296401332306952",
          "45245920119441262302858834861339287968714766152305511533641621575155879021632",
          "10093583398772184680171587631307039180158656425928093464889759886252848997377",
          "103142154651454093499312521367484073310151421382604529938859813437442594474085",
          "629082122204854758459911935553719592771001668591540144625964026077126410375",
          "103143044763734108559946012749437313238241500105915490776734734481630807101441"
        ],
        [
          "10559168",
          "39182484147790082827406345834400827729681598022617300750101251637098171465824",
          "5436436795635701537688491311925864402822851873599940632014636227112885944352",
          "904846877086514122516714443379855449715077347320429781335316622722409234746",
          "58800891333506906357451900167415135720810450110406377805426270093866981949464",
          "454483501742392607674708259830681182362578441044250047985852607759252455936",
          "14481410410612796175497269139130524776384006137321744284276140367749912225440",
          "57938469700054977450686741295919028955961949378173909988098324777186174706336",
          "47271957974436847685056752585537426212054157185915011324532677908087079079937"
        ],
        [
          "26063949761411362234836653769965797702406",
          "80814088359314507976213960259725295915682906446872252232821928357049319235803",
          "2973227646851589892367471433820740116563134193673041513735339238455876062362",
          "87011486153143839546860983355493064475110527749650861843341671284907607885804",
          "58856671314713741043718423379293789378389481149095952595285506484606032938988",
          "60590157899295385942031161249908236588937623074821147119178632621634726825985"
        ],
        [
          "127306595984",
          "29840556258057358095231533842930119663791647267636360668643083694322735212570",
          "105850759257225532253803827917091068061760265960864663993196280355180421584288",
          "48694454373845675791941187050360318194809528891112859393431893618867904614401"
        ],
        [
          "337812427582745305434545521369",
          "609581891291591085449733750701425559723811459369087676680166400605886192002",
          "69206913017545365068182195718245775325257347399092193273097601563436658462239",
          "69662417173134843231458286253559366307475378139900454243357256302684387442280",
          "2769645817728523989226260151551615963778677522779523416368975137683418812417"
        ],
        [
          "2938353301342670178096251995239528867863416093589244408",
          "13854790998381928593569487168662247576287801335896320445798750186034539636872",
          "61616217693858321929469411568122238966230555839089482698862559878055028761090",
          "14662405979551422545099095979837151543517399766018278834663193821695831435938",
          "76041782568102820484371351676282433078728236630055401005610193045605203742721"
        ],
        [
          "30022436500466454460544460922216919564037663",
          "61630292334859686014359617917445487293080090249489553921536861513269104443399",
          "102703949788947568840121591899335033047784738122093460814160299446886816154306",
          "72454874997792224915549876197639335868655484099247588361925104195209075236786",
          "59310574755051975140948251589544429118167038660142876100409946047361559069324",
          "58973787040600911508068669112068021255655291707956300844094067182932998259425",
          "113548538863238683141803742455621901831591368984474439210790836801286260784048",
          "46025123908348544453693397582670893963953599564831744885025634151016260079617"
        ],
        [
          "1874491292233498688",
          "1815242116903715760350657549566826639513993602905807195284441194016326387203",
          "61469495396814629122728776818217192066681587992427809878149118055170819219960",
          "57047129008413844079648066116713583624053713237324388103558343841470692626433"
        ],
        [
          "648466612835601536405607840",
          "101927684542560641016739711456547850544415014800473948275454368969784935452774",
          "2215848843527242738799015954827892193218102072218003662941317948870337069337",
          "2721886312047933674885356893508155076006587554864731962223351675614285697025"
        ]
      ]
    ]
  ],
  "solcInputHash": "78876c8dba90dfe1c0be966c67f92f80",
  "bytecode": "0x60806040523480156200001157600080fd5b506040516200676b3803806200676b8339810160408190526200003491620004c7565b83838360405162000045906200029e565b62000052929190620005b7565b8190604051809103906000f590508015801562000073573d6000803e3d6000fd5b50600080546001600160a01b0319166001600160a01b039290921691821790556040805163b91b6cbf60e01b8152905163b91b6cbf91600480820192602092909190829003018186803b158015620000ca57600080fd5b505afa158015620000df573d6000803e3d6000fd5b505050506040513d601f19601f8201168201806040525081019062000105919062000616565b6001600160a01b03166387ae7031826040518263ffffffff1660e01b81526004016200013291906200063d565b600060405180830381600087803b1580156200014d57600080fd5b505af115801562000162573d6000803e3d6000fd5b506001925050505b60c8816001600160a01b031610156200022d576000805485516001600160a01b039091169163beace31f9184918891620001a857620001a86200070d565b60200260200101516040518363ffffffff1660e01b8152600401620001e39291906001600160a01b0392831681529116602082015260400190565b600060405180830381600087803b158015620001fe57600080fd5b505af115801562000213573d6000803e3d6000fd5b505050508080620002249062000723565b9150506200016a565b50600080546040516309c9c8b560e11b815230600482015260248101929092526001600160a01b031690631393916a90604401600060405180830381600087803b1580156200027b57600080fd5b505af115801562000290573d6000803e3d6000fd5b505050505050505062000759565b615f58806200081383390190565b634e487b7160e01b600052604160045260246000fd5b604051601f8201601f191681016001600160401b0381118282101715620002ed57620002ed620002ac565b604052919050565b60006001600160401b03821115620003115762000311620002ac565b5060051b60200190565b6001600160a01b03811681146200033157600080fd5b50565b805162000341816200031b565b919050565b600082601f8301126200035857600080fd5b81516200036f6200036982620002f5565b620002c2565b8082825260208201915060208360051b8601019250858311156200039257600080fd5b602085015b83811015620004bd5780516001600160401b03811115620003b757600080fd5b8601603f81018813620003c957600080fd5b6020810151620003dd6200036982620002f5565b81815260059190911b82016040019060208101908a831115620003ff57600080fd5b604084015b83811015620004a65780516001600160401b038111156200042457600080fd5b8501605f81018d136200043657600080fd5b60408101516200044a6200036982620002f5565b81815260059190911b82016060019060208101908f8311156200046c57600080fd5b6060840193505b828410156200049057835182526020938401939091019062000473565b8652505060209384019391909101905062000404565b508652505060209384019391909101905062000397565b5095945050505050565b60008060008060808587031215620004de57600080fd5b8451602080870151919550906001600160401b03808211156200050057600080fd5b818801915088601f8301126200051557600080fd5b8151620005266200036982620002f5565b81815260059190911b8301840190848101908b8311156200054657600080fd5b938501935b828510156200057157845162000561816200031b565b825293850193908501906200054b565b9750620005849150506040890162000334565b945060608801519250808311156200059b57600080fd5b5050620005ab8782880162000346565b91505092959194509250565b604080825283519082018190526000906020906060840190828701845b82811015620005fb5781516001600160a01b031684529284019290840190600101620005d4565b5050506001600160a01b039490941692019190915250919050565b6000602082840312156200062957600080fd5b815162000636816200031b565b9392505050565b6000602080830181845280855180835260408601915060059250604081841b87010184880160005b83811015620006ff57888303603f1901855281518051808552908801908885019080891b86018a0160005b82811015620006e857878203601f1901845284518051808452908d01908d84019060005b81811015620006d25783518352928f0192918f0191600101620006b4565b5050958d0195948d019492505060010162000690565b50978a019795505050918701915060010162000665565b509098975050505050505050565b634e487b7160e01b600052603260045260246000fd5b60006001600160a01b03828116808214156200074f57634e487b7160e01b600052601160045260246000fd5b6001019392505050565b60ab80620007686000396000f3fe6080604052348015600f57600080fd5b506004361060285760003560e01c8063f55a30ee14602d575b600080fd5b600054604c9073ffffffffffffffffffffffffffffffffffffffff1681565b60405173ffffffffffffffffffffffffffffffffffffffff909116815260200160405180910390f3fea2646970667358221220e4ff0be974f190f1743caa5228bbed6c4db4c832a3e36f450bbb33f4370f7b3d64736f6c6343000809003360a06040523480156200001157600080fd5b5060405162005f5838038062005f5883398101604081905262000034916200029d565b4360808190526040805191825260456020830152610bb88282015251829184917f88ea8c578fe7aed8ab10316120da68d9a7d194322df00cf43852ead6e4b55eaf9181900360600190a160005b81518110156200015d57600160036000848481518110620000a657620000a662000383565b60200260200101516001600160a01b03166001600160a01b0316815260200190815260200160002060006101000a81548160ff021916908315150217905550818181518110620000fa57620000fa62000383565b60200260200101516001600160a01b03167fe95aec380cae16330d146d5499ef7db6f3657e477104a733e771bc09e500d986600160405162000140911515815260200190565b60405180910390a280620001548162000399565b91505062000081565b50506001600160a01b038116620001a05760405162461bcd60e51b8152602060048201526003602482015262118e8d60ea1b604482015260640160405180910390fd5b600680546001600160a01b0319166001600160a01b03831690811790915560408051630354740160e31b81529051631aa3a008916004808201926020929091908290030181600087803b158015620001f757600080fd5b505af11580156200020c573d6000803e3d6000fd5b505050506040513d601f19601f82011682018060405250810190620002329190620003c3565b600580546001600160a01b0319166001600160a01b039290921691909117905550620003ea915050565b634e487b7160e01b600052604160045260246000fd5b6001600160a01b03811681146200028857600080fd5b50565b8051620002988162000272565b919050565b60008060408385031215620002b157600080fd5b82516001600160401b0380821115620002c957600080fd5b818501915085601f830112620002de57600080fd5b8151602082821115620002f557620002f56200025c565b8160051b604051601f19603f830116810181811086821117156200031d576200031d6200025c565b6040529283528183019350848101820192898411156200033c57600080fd5b948201945b83861015620003655762000355866200028b565b8552948201949382019362000341565b96506200037690508782016200028b565b9450505050509250929050565b634e487b7160e01b600052603260045260246000fd5b6000600019821415620003bc57634e487b7160e01b600052601160045260246000fd5b5060010190565b600060208284031215620003d657600080fd5b8151620003e38162000272565b9392505050565b608051615b21620004376000396000818161074a0152818161095101528181610d530152818161162d015281816129d70152818161484a01528181614ab10152614cb90152615b216000f3fe60806040526004361061038c5760003560e01c8063900cf0cf116101dc578063b91b6cbf11610102578063e985e9c5116100a0578063f71d09041161006f578063f71d090414610b3c578063fb306b0f14610b51578063fb774eb814610b71578063fca840ae14610b9157600080fd5b8063e985e9c514610ad2578063ee0ca98914610af2578063f2589a6314610b07578063f666b9a614610b2757600080fd5b8063c5c8beeb116100dc578063c5c8beeb14610a07578063c87b56dd14610a27578063d7dc681914610a47578063e162375214610ab257600080fd5b8063b91b6cbf146109c1578063beace31f146109e1578063c06c822f146109f457600080fd5b8063998a04911161017a578063a7f0b3de11610149578063a7f0b3de1461093f578063afcde30814610973578063b88d4fde14610993578063b88ea014146109a157600080fd5b8063998a0491146108a05780639b917352146108d2578063a22cb465146108ff578063a4d0b4411461091f57600080fd5b80639531b94d116101b65780639531b94d146107c957806395d89b41146107de57806396d648791461082457806399081a261461085457600080fd5b8063900cf0cf1461073257806390a577ef1461077b578063939f4130146107a957600080fd5b80635558e4e2116102c157806370a082311161025f5780637cd07e471161022e5780637cd07e47146106b257806381dcebcf146106d25780638307fa5b146106f25780638e3b3a6b1461071257600080fd5b806370a082311461062c57806372b1c7581461064d578063750656f61461067f57806376df83141461069257600080fd5b8063608cceb01161029b578063608cceb0146105ac5780636352211e146105cc57806364d350bd146105ec578063665557c81461060c57600080fd5b80635558e4e214610564578063570f67ad1461058457806358ff027f1461059957600080fd5b80631056b9d51161032e57806323b872dd1161030857806323b872dd1461050057806323cf31181461050e5780633853d8a11461052e57806342842e0e1461050057600080fd5b80631056b9d5146104aa5780631393916a146104bd57806318160ddd146104dd57600080fd5b806306fdde031161036a57806306fdde03146103fd578063081812fc1461044c578063095ea7b314610484578063099afa171461049757600080fd5b806301ffc9a7146103915780630251f62c146103c657806306bd17d5146103e8575b600080fd5b34801561039d57600080fd5b506103b16103ac366004614e15565b610bb1565b60405190151581526020015b60405180910390f35b3480156103d257600080fd5b506103e66103e1366004614e6c565b610ce2565b005b3480156103f457600080fd5b506103e6610e2c565b34801561040957600080fd5b5060408051808201909152601681527f4e7567672046756e6769626c6520546f6b656e2056310000000000000000000060208201525b6040516103bd9190614f03565b34801561045857600080fd5b5061046c610467366004614f16565b610e38565b6040516001600160a01b0390911681526020016103bd565b6103e6610492366004614f2f565b610e4b565b6103e66104a5366004614e6c565b610f24565b6103e66104b8366004614f6d565b6111a5565b3480156104c957600080fd5b506103e66104d8366004614fb4565b611409565b3480156104e957600080fd5b506104f261148e565b6040519081526020016103bd565b6103e661038c366004614ff2565b34801561051a57600080fd5b506103e6610529366004614e6c565b6114a7565b34801561053a57600080fd5b506105476402540be40081565b6040516bffffffffffffffffffffffff90911681526020016103bd565b34801561057057600080fd5b5061046c61057f366004614f16565b61151c565b34801561059057600080fd5b506103e661154e565b6103e66105a7366004614e6c565b6115c8565b3480156105b857600080fd5b506105476105c7366004614e6c565b6117d0565b3480156105d857600080fd5b5061046c6105e7366004614f16565b6117e6565b3480156105f857600080fd5b506103b1610607366004615044565b6117f4565b34801561061857600080fd5b506103e6610627366004614e6c565b6118d4565b34801561063857600080fd5b506104f2610647366004614e6c565b50600090565b34801561065957600080fd5b5061066d610668366004614e6c565b61197a565b6040516103bd9695949392919061512f565b6103e661068d366004614e6c565b611d6a565b34801561069e57600080fd5b506103e66106ad3660046151a3565b611e54565b3480156106be57600080fd5b50600a5461046c906001600160a01b031681565b3480156106de57600080fd5b506103e66106ed366004614e6c565b611e99565b3480156106fe57600080fd5b506103e661070d3660046151df565b612014565b34801561071e57600080fd5b5060065461046c906001600160a01b031681565b34801561073e57600080fd5b5060405162ffffff60457f0000000000000000000000000000000000000000000000000000000000000000430304610bb8011681526020016103bd565b34801561078757600080fd5b506107906120e1565b60405167ffffffffffffffff90911681526020016103bd565b3480156107b557600080fd5b506103e66107c4366004614e6c565b6120ef565b3480156107d557600080fd5b50610547612172565b3480156107ea57600080fd5b5060408051808201909152600681527f4e55474746540000000000000000000000000000000000000000000000000000602082015261043f565b34801561083057600080fd5b506103b161083f366004614e6c565b60036020526000908152604090205460ff1681565b34801561086057600080fd5b5061087461086f366004615204565b612188565b6040805193151584526bffffffffffffffffffffffff92831660208501529116908201526060016103bd565b3480156108ac57600080fd5b506108c06108bb366004615232565b6122a2565b60405160ff90911681526020016103bd565b3480156108de57600080fd5b506108f26108ed366004614f16565b6122b0565b6040516103bd919061524d565b34801561090b57600080fd5b506103e661091a366004614fb4565b612643565b34801561092b57600080fd5b506103e661093a366004615498565b6126cd565b34801561094b57600080fd5b506104f27f000000000000000000000000000000000000000000000000000000000000000081565b34801561097f57600080fd5b506103e661098e3660046154f8565b61274a565b6103e661038c366004615548565b3480156109ad57600080fd5b506104f26109bc366004614e6c565b6127bd565b3480156109cd57600080fd5b5060055461046c906001600160a01b031681565b6103e66109ef366004615204565b612839565b6103e6610a02366004614e6c565b612918565b348015610a1357600080fd5b506103e6610a223660046155e4565b612a81565b348015610a3357600080fd5b5061043f610a42366004614f16565b612c17565b348015610a5357600080fd5b50610a67610a62366004614e6c565b612d4f565b604080516bffffffffffffffffffffffff96871681529486166020860152929094169183019190915262ffffff1660608201526001600160a01b03909116608082015260a0016103bd565b348015610abe57600080fd5b506103e6610acd366004615610565b612e54565b348015610ade57600080fd5b506103b1610aed366004615204565b612f17565b348015610afe57600080fd5b50610547612f23565b348015610b1357600080fd5b50610547610b22366004614e6c565b612f2e565b348015610b3357600080fd5b50610547612f44565b348015610b4857600080fd5b50610547612f52565b348015610b5d57600080fd5b506103e6610b6c366004615654565b612f5f565b348015610b7d57600080fd5b506103e6610b8c366004614f6d565b612f6c565b348015610b9d57600080fd5b506103e6610bac3660046156cf565b613130565b60007fffffffff0000000000000000000000000000000000000000000000000000000082167f46594f50000000000000000000000000000000000000000000000000000000001480610c4457507fffffffff0000000000000000000000000000000000000000000000000000000082167f80ac58cd00000000000000000000000000000000000000000000000000000000145b80610c9057507fffffffff0000000000000000000000000000000000000000000000000000000082167f5b5e139f00000000000000000000000000000000000000000000000000000000145b80610cdc57507fffffffff0000000000000000000000000000000000000000000000000000000082167f01ffc9a700000000000000000000000000000000000000000000000000000000145b92915050565b33610cec82613279565b6001600160a01b031614610d475760405162461bcd60e51b815260206004820152600360248201527f4c3a30000000000000000000000000000000000000000000000000000000000060448201526064015b60405180910390fd5b6000610d86610bb860457f00000000000000000000000000000000000000000000000000000000000000004303040133610d7f612f52565b60006132fd565b6001600160a01b0383166000908152600e602052604090208190559050610dac82613349565b633b9aca0060a082901c683fffffffffffffffff1602610dda336bffffffffffffffffffffffff831661341a565b6040516bffffffffffffffffffffffff821681526001600160a01b038416907f329014c0969cfe0727bc4e8b103aa6ee8cbcfa982e51a35292749c83a79c2b9e906020015b60405180910390a2505050565b610e36334761341a565b565b6000610cdc610e4683613475565b61348f565b33610e5d610e5883613475565b613279565b6001600160a01b031614610eb35760405162461bcd60e51b815260206004820152600360248201527f5a3a3100000000000000000000000000000000000000000000000000000000006044820152606401610d3e565b60008181526001602052604080822080547fffffffffffffffffffffffff0000000000000000000000000000000000000000166001600160a01b0386169081179091559051839233917f8c5be1e5ebec7d5bd14f71427d1e84f3dd0314c0f7b2291e5b200ac8c7c3b9259190a45050565b600080610f318333613505565b915091506000836001600160a01b0316826040015162ffffff16148015610f5757508151155b15611009576402540be400341015610fb15760405162461bcd60e51b815260206004820152600360248201527f533a3100000000000000000000000000000000000000000000000000000000006044820152606401610d3e565b602082015115610fc357610fc361570b565b610fcc34613551565b9050610fe3826040015183606001518360006132fd565b8355610fef600061356c565b610ff8846136a6565b61100460003086613794565b61114d565b81516110575760405162461bcd60e51b815260206004820152600360248201527f533a3400000000000000000000000000000000000000000000000000000000006044820152606401610d3e565b60208201511561112557816040015162ffffff1661107883602001516137e3565b62ffffff1610156110cb5760405162461bcd60e51b815260206004820152600360248201527f533a5200000000000000000000000000000000000000000000000000000000006044820152606401610d3e565b602082015160ff1c600114156111255760405162461bcd60e51b8152600401610d3e9060208082526004908201527f4e4f504500000000000000000000000000000000000000000000000000000000604082015260600190565b815160ff1c6001146111405761113b83836137f4565b61114a565b61114a8383613921565b90505b604080513381526bffffffffffffffffffffffff831660208201526001600160a01b038616917f972a7cf16c1aeec2ce89ff255260049c0c525f15b74116b8fe61993cda32f99a91015b60405180910390a250505050565b336111af84613279565b6001600160a01b0316146112055760405162461bcd60e51b815260206004820152600360248201527f533a3600000000000000000000000000000000000000000000000000000000006044820152606401610d3e565b600080611213848487613ad9565b805191935091506112665760405162461bcd60e51b815260206004820152600360248201527f533a5300000000000000000000000000000000000000000000000000000000006044820152606401610d3e565b60208101511561133457806040015162ffffff1661128782602001516137e3565b62ffffff1610156112da5760405162461bcd60e51b815260206004820152600360248201527f533a3700000000000000000000000000000000000000000000000000000000006044820152606401610d3e565b602081015160ff1c600114156113345760405162461bcd60e51b8152600401610d3e9060208082526004908201527f4e4f504500000000000000000000000000000000000000000000000000000000604082015260600190565b60008160200151600014801561134e5750815160ff1c6001145b6113615761135c83836137f4565b61136b565b61136b8383613921565b90506001600160a01b03851660a085901b75ffff00000000000000000000000000000000000000001617604080516001600160a01b03891681526bffffffffffffffffffffffff8416602082015275ffffffffffffffffffffffffffffffffffffffffffff92909216917f33060af8ae34fc0f32be3607dbc145e3272347f98ede9556ccb9374fd0ab43d891015b60405180910390a2505050505050565b611411613b35565b6001600160a01b03821660008181526003602090815260409182902080547fffffffffffffffffffffffffffffffffffffffffffffffffffffffffffffff001685151590811790915591519182527fe95aec380cae16330d146d5499ef7db6f3657e477104a733e771bc09e500d986910160405180910390a25050565b60006114986120e1565b67ffffffffffffffff16905090565b6114af613b35565b600a80547fffffffffffffffffffffffff0000000000000000000000000000000000000000166001600160a01b0383169081179091556040519081527fc97e86a927b4a897832650767255fd568e377e7fbe9586c81d26b77a2c3ffc8b906020015b60405180910390a150565b60006007600061152b84613475565b6001600160a01b0390811682526020820192909252604001600020541692915050565b611556613b35565b600b5461157233825b6bffffffffffffffffffffffff1661341a565b7fffffffffffffffffffffffffffffffffffffffff000000000000000000000000811690507f227a473b70d2f893cc7659219575c030a63b5743024fe1e0c1a680e708b1525a8160405161151191815260200190565b60008060008060006115d986612d4f565b945094509450945094506115ec86613279565b6001600160a01b0316306001600160a01b03161461160c5761160c61570b565b6001600160a01b0386166000908152600e602052604081205533610bb860457f00000000000000000000000000000000000000000000000000000000000000004303040162ffffff168362ffffff16106116b95761166a3383613b94565b6116b65760405162461bcd60e51b815260206004820152600360248201527f4c3a3100000000000000000000000000000000000000000000000000000000006044820152606401610d3e565b50805b60006116c434613551565b9050806bffffffffffffffffffffffff16876bffffffffffffffffffffffff1611156117325760405162461bcd60e51b815260206004820152600360248201527f4c3a3200000000000000000000000000000000000000000000000000000000006044820152606401610d3e565b600061173e8883615769565b905061175261174d8289615796565b613be1565b61176a83876bffffffffffffffffffffffff1661341a565b611774838a613cb1565b604080516bffffffffffffffffffffffff841681523360208201526001600160a01b038b16917fd39832526202186065fc0dcdd28b38f6468549c094305337b697319814fae337910160405180910390a2505050505050505050565b60006117db82612d4f565b509195945050505050565b6000610cdc610e5883613475565b6005546000906001600160a01b031633146118515760405162461bcd60e51b815260206004820152600360248201527f443a3000000000000000000000000000000000000000000000000000000000006044820152606401610d3e565b506001600160a01b03841660009081526003602052604090205460ff168061187b575060006118cc565b60085460008461188b8388613d66565b61189591906157c6565b60ff1690506118c68260086118aa89826157eb565b84811b600190921b6000190160ff919091161b19919091161790565b60085550505b949350505050565b6000806118e18333613505565b336000908152600183016020526040812055909250905061190181613d88565b1561191957600082556119143384613cb1565b61193f565b61193f3361155f8360200151633b9aca0060a09190911c683fffffffffffffffff160290565b6040513381526001600160a01b038416907f938187ad30d2557f8eb68b094a2305a858ec4f65c86a957b4bc26d9c0a496fef90602001610e1f565b6000606080606080606061198d876127bd565b955085611a05576119b66119b16119ac896001600160a01b0316613e74565b613e97565b613ea2565b955085611a055760405162461bcd60e51b815260206004820152600360248201527f503a4c00000000000000000000000000000000000000000000000000000000006044820152606401610d3e565b604080516008808252610120820190925290602082016101008036833750506040805160088082526101208201909252929750905060208201610100803683375050604080516008808252610120820190925292965090506020820161010080368337019050506040805160088082526101208201909252919450816020015b6060815260200190600190039081611a855790505091508560031685600081518110611ab357611ab3615814565b602002602001019060ff16908160ff168152505060005b60078160ff161015611cba576000611ae288836140fd565b905061ffff8116611af35750611ca8565b865160ff600883901c81169190831690899083908110611b1557611b15615814565b602002602001015160ff1660001415611ca4576001600160a01b038b16600090815260046020908152604080832061ffff871684529091529020548751600682901c90899060ff8616908110611b6d57611b6d615814565b60ff90921660209283029190910190910152603f8116898460ff1681518110611b9857611b98615814565b60ff9092166020928302919091018201526001600160a01b038d16600090815260048252604080822061ffff88168352600101909252208054611bda90615843565b80601f0160208091040260200160405190810160405280929190818152602001828054611c0690615843565b8015611c535780601f10611c2857610100808354040283529160200191611c53565b820191906000526020600020905b815481529060010190602001808311611c3657829003601f168201915b5050505050878460ff1681518110611c6d57611c6d615814565b6020026020010181905250818a8460ff1681518110611c8e57611c8e615814565b602002602001019060ff16908160ff1681525050505b5050505b80611cb281615897565b915050611aca565b506001600160a01b03871660009081526004602052604090206002018054611ce190615843565b80601f0160208091040260200160405190810160405280929190818152602001828054611d0d90615843565b8015611d5a5780601f10611d2f57610100808354040283529160200191611d5a565b820191906000526020600020905b815481529060010190602001808311611d3d57829003601f168201915b5050505050905091939550919395565b611d786101f46127106158b7565b63ffffffff16816001600160a01b0316108015611d9f57506101f46001600160a01b038216115b611deb5760405162461bcd60e51b815260206004820152600360248201527f473a3100000000000000000000000000000000000000000000000000000000006044820152606401610d3e565b611df5600061356c565b611dfe8161411a565b611e083382614234565b604080516001600160a01b03831681526bffffffffffffffffffffffff341660208201527f7fa02ea2addb9a3ae24bb783f3817cbebd2aaa24af58c5eee6faf5b776797f959101611511565b611e5e33846142a7565b506000611e6a846127bd565b9050611e7781848461430a565b6001600160a01b03909416600090815260096020526040902093909355505050565b600a546001600160a01b0316611ef15760405162461bcd60e51b815260206004820152600360248201527f543a3400000000000000000000000000000000000000000000000000000000006044820152606401610d3e565b6000611efc826127bd565b90506000611f0983614342565b600a546040517f80011aa70000000000000000000000000000000000000000000000000000000081526001600160a01b038681166004830152602482018690523360448301529293509116906380011aa7906bffffffffffffffffffffffff8416906064016000604051808303818588803b158015611f8757600080fd5b505af1158015611f9b573d6000803e3d6000fd5b5050600a54604080516001600160a01b039283168152918816602083015281018690523360608201526bffffffffffffffffffffffff851660808201527f58ca548c1fd63f641dfb02f79df36d4f29bd995f0733d2ed3595b6cfde7db4e1935060a00191506120079050565b60405180910390a1505050565b6120263361202184613475565b61450b565b6120725760405162461bcd60e51b815260206004820152600360248201527f463a3500000000000000000000000000000000000000000000000000000000006044820152606401610d3e565b60008281526007602052604080822080547fffffffffffffffffffffffff0000000000000000000000000000000000000000166001600160a01b0385161790555183917fb0f631a5014e4a5b1bb62ae2778ae0ce4d19ae55fbdb59b1d39f58f39190fe6091a25050565b905090565b60006120dc600b5460c01c90565b60006120fa82614342565b905061211433826bffffffffffffffffffffffff1661341a565b604080516001600160a01b03841681523360208201526bffffffffffffffffffffffff8316918101919091527f6866bab9e57b1b8d6e867bb41dc78ec6f8fcbdca05d8f065e3353df689741ff2906060015b60405180910390a15050565b600061217f600b5461451f565b50919392505050565b6001600080806121988587613505565b8051909250151590506121e757846001600160a01b0316816040015162ffffff1614156121d6576121cf6121ca612172565b614586565b925061226d565b60008060009350935093505061229b565b602081015160ff1c60011480156122025750805160ff1c6001145b1561220c57600093505b6020810151815160a090811c683fffffffffffffffff908116633b9aca0090810296509290911c1602915061223f612f52565b6bffffffffffffffffffffffff16836bffffffffffffffffffffffff16101561226d5761226a612f52565b92505b6bffffffffffffffffffffffff831661228d576402540be4009250612299565b612296836145c0565b92505b505b9250925092565b6000610cdc60085483613d66565b61230f6040518061014001604052806060815260200160608152602001606081526020016000815260200160006001600160a01b0316815260200160008152602001606081526020016060815260200160608152602001606081525090565b61231b61066883613475565b61010087015260e086015260408501526020840152825250600860405190808252806020026020018201604052801561236857816020015b60608152602001906001900390816123535790505b5060c082019081526001606083015260a0820183905230608083015260408051808201909152600481527f42415345000000000000000000000000000000000000000000000000000000006020820152905180516000906123cb576123cb615814565b60200260200101819052506040518060400160405280600481526020017f45594553000000000000000000000000000000000000000000000000000000008152508160c0015160018151811061242357612423615814565b60200260200101819052506040518060400160405280600581526020017f4d4f5554480000000000000000000000000000000000000000000000000000008152508160c0015160028151811061247b5761247b615814565b60200260200101819052506040518060400160405280600481526020017f48414952000000000000000000000000000000000000000000000000000000008152508160c001516003815181106124d3576124d3615814565b60200260200101819052506040518060400160405280600381526020017f48415400000000000000000000000000000000000000000000000000000000008152508160c0015160048151811061252b5761252b615814565b60200260200101819052506040518060400160405280600481526020017f4241434b000000000000000000000000000000000000000000000000000000008152508160c0015160058151811061258357612583615814565b60200260200101819052506040518060400160405280600481526020017f4e45434b000000000000000000000000000000000000000000000000000000008152508160c001516006815181106125db576125db615814565b60200260200101819052506040518060400160405280600481526020017f484f4c44000000000000000000000000000000000000000000000000000000008152508160c0015160078151811061263357612633615814565b6020026020010181905250919050565b3360008181526002602090815260408083206001600160a01b0387168085529083529281902080547fffffffffffffffffffffffffffffffffffffffffffffffffffffffffffffff001686151590811790915590519081529192917f17307eab39ab6107e8899845ad3d59bd9653f200f220920489ca2b5937696c31910160405180910390a35050565b6126d733846142a7565b506001600160a01b038316600090815260046020908152604080832061ffff861684526001018252909120825161271092840190614d85565b506040516001600160a01b038416907fb0f631a5014e4a5b1bb62ae2778ae0ce4d19ae55fbdb59b1d39f58f39190fe6090600090a2505050565b61275433836142a7565b506001600160a01b0382166000908152600460209081526040909120825161278492600290920191840190614d85565b506040516001600160a01b038316907fb0f631a5014e4a5b1bb62ae2778ae0ce4d19ae55fbdb59b1d39f58f39190fe6090600090a25050565b6001600160a01b038116600090815260096020526040812054156127f757506001600160a01b031660009081526009602052604090205490565b60008060006128046145d9565b925092509250846001600160a01b03168214801561282157508215155b1561282e57949350505050565b506000949350505050565b612841613b35565b6101f46001600160a01b03831610801561286357506001600160a01b03821615155b6128af5760405162461bcd60e51b815260206004820152600360248201527f473a3100000000000000000000000000000000000000000000000000000000006044820152606401610d3e565b6128b9600061356c565b6128c28261411a565b6128cc8183614234565b604080516001600160a01b03841681526bffffffffffffffffffffffff341660208201527f7fa02ea2addb9a3ae24bb783f3817cbebd2aaa24af58c5eee6faf5b776797f959101612166565b600080600061292684612d4f565b945050935093505061293784613279565b6001600160a01b0316306001600160a01b0316146129575761295761570b565b34836bffffffffffffffffffffffff1611156129b55760405162461bcd60e51b815260206004820152600360248201527f4c3a3300000000000000000000000000000000000000000000000000000000006044820152606401610d3e565b60006129c034613551565b90506129cb81613be1565b6000612a03610bb860457f00000000000000000000000000000000000000000000000000000000000000004303040184610d7f612f52565b6001600160a01b0387166000908152600e602052604090208190559050612a38836bffffffffffffffffffffffff861661341a565b6040516bffffffffffffffffffffffff831681526001600160a01b038716907f5062495abf7ea897bb9561849f52ada09e05b75474d32015ee99c964570e7ffa906020016113f9565b33612a8b83613279565b6001600160a01b031614612ae15760405162461bcd60e51b815260206004820152600360248201527f533a4100000000000000000000000000000000000000000000000000000000006044820152606401610d3e565b612ae9612f52565b6bffffffffffffffffffffffff16816bffffffffffffffffffffffff161015612b545760405162461bcd60e51b815260206004820152600360248201527f533a4200000000000000000000000000000000000000000000000000000000006044820152606401610d3e565b612b5d82613349565b600080612b6a8433613505565b8051919350915015612bbe5760405162461bcd60e51b815260206004820152600560248201527f4e4f5045320000000000000000000000000000000000000000000000000000006044820152606401610d3e565b612bcc6000338560016132fd565b82556040516bffffffffffffffffffffffff841681526001600160a01b038516907fbddcaaa7eee060454ed44e36de17b53f71b5de19112296cfce9d61c8a4de878390602001611197565b60606000612c2483613475565b6006549091506001600160a01b039081169063448e347f9030908690612c4b90861661151c565b60408051808201909152600681527f4e55474746540000000000000000000000000000000000000000000000000000602082015260408051808201909152601681527f4e7567672046756e6769626c6520546f6b656e20563100000000000000000000602082015260016040518763ffffffff1660e01b8152600401612cd6969594939291906158d6565b60006040518083038186803b158015612cee57600080fd5b505afa158015612d02573d6000803e3d6000fd5b505050506040513d6000823e601f3d9081017fffffffffffffffffffffffffffffffffffffffffffffffffffffffffffffffe0168201604052612d48919081019061593d565b9392505050565b6001600160a01b0381166000908152600e60205260408120548190819081908190612d7981614600565b91506001600160a01b038216612dd15760405162461bcd60e51b815260206004820152600360248201527f4c3a3400000000000000000000000000000000000000000000000000000000006044820152606401610d3e565b633b9aca0060a082901c683fffffffffffffffff16026000612df1612f52565b612710606484020497509050612e078783615796565b9750806bffffffffffffffffffffffff16886bffffffffffffffffffffffff161015612e3557878103612e38565b60005b95506002612e45846137e3565b01945050505091939590929450565b604082108015612e645750604081105b612eb05760405162461bcd60e51b815260206004820152600b60248201527f554e544545535445443a310000000000000000000000000000000000000000006044820152606401610d3e565b612eba33856142a7565b506001600160a01b038416600081815260046020908152604080832061ffff88168452909152808220600685901b86179055517fb0f631a5014e4a5b1bb62ae2778ae0ce4d19ae55fbdb59b1d39f58f39190fe609190a250505050565b6000612d488284613b94565b60006120dc600b5490565b6000612f3982612d4f565b509295945050505050565b60006120dc600b5460601c90565b60006120dc600b54614611565b612f67613b35565b505050565b33612f7684613279565b6001600160a01b031614612fcc5760405162461bcd60e51b815260206004820152600360248201527f533a3900000000000000000000000000000000000000000000000000000000006044820152606401610d3e565b600080612fda848487613ad9565b6001600160a01b0387166000908152600183016020526040812055909250905061300381613d88565b1561309d57600080835561ffff84168152600c602052604090205461306a5760405162461bcd60e51b815260206004820152600360248201527f503a3300000000000000000000000000000000000000000000000000000000006044820152606401610d3e565b6130748584614654565b61ffff83166000908152600c60205260408120805491613093836159ab565b91905055506130ca565b6130ca6130a986613279565b6020830151683fffffffffffffffff60a09190911c16633b9aca000261155f565b6040516001600160a01b038681168252851660a085901b75ffff00000000000000000000000000000000000000001617907f7a0576b9edc37a53c7e05ae220b6a871cf584ae6724a63f704609baec1e72853906020015b60405180910390a25050505050565b3361313a84613279565b6001600160a01b0316146131905760405162461bcd60e51b815260206004820152600360248201527f533a4300000000000000000000000000000000000000000000000000000000006044820152606401610d3e565b61319a8383614685565b61ffff82166000908152600c602052604081208054916131b9836159c2565b91905055506000806131cc858587613ad9565b80519193509150156132205760405162461bcd60e51b815260206004820152600360248201527f533a4400000000000000000000000000000000000000000000000000000000006044820152606401610d3e565b61322e6000868560016132fd565b82556040516bffffffffffffffffffffffff841681526001600160a01b038616907fbddcaaa7eee060454ed44e36de17b53f71b5de19112296cfce9d61c8a4de878390602001613121565b6000613284826146b6565b6132d05760405162461bcd60e51b815260206004820152600560248201527f543a393a320000000000000000000000000000000000000000000000000000006044820152606401610d3e565b506001600160a01b0380821660009081526020819052604090205416806132f8575030919050565b919050565b600061330981866146c9565b9050613315818561471b565b9050811561332b57613328816001614750565b90505b6133358184614787565b9050613340816147e0565b95945050505050565b613353338261450b565b801561336f5750306133648261348f565b6001600160a01b0316145b6133bb5760405162461bcd60e51b815260206004820152600360248201527f4e3a3100000000000000000000000000000000000000000000000000000000006044820152606401610d3e565b6001600160a01b03811660009081526020818152604080832080547fffffffffffffffffffffffff0000000000000000000000000000000000000000908116909155600190925290912080549091169055613417333083613794565b50565b600080600080600085875af1905080612f675760405162461bcd60e51b815260206004820152600360248201527f5a3a3000000000000000000000000000000000000000000000000000000000006044820152606401610d3e565b60006001600160a01b0382111561348b57600080fd5b5090565b600061349a826146b6565b6134e65760405162461bcd60e51b815260206004820152600560248201527f543a393a310000000000000000000000000000000000000000000000000000006044820152606401610d3e565b506001600160a01b039081166000908152600160205260409020541690565b6040805160808101825260008082526020808301829052828401829052606083018290526001600160a01b0386168252600d90529190912090613548828461482c565b90509250929050565b60006bffffffffffffffffffffffff82111561348b57600080fd5b60008161357834613551565b6135829190615769565b600b549091506000806135948361451f565b509250509150816bffffffffffffffffffffffff16846bffffffffffffffffffffffff1610156136065760405162461bcd60e51b815260206004820152600360248201527f543a3100000000000000000000000000000000000000000000000000000000006044820152606401610d3e565b60006136128386615769565b90506136346127106bffffffffffffffffffffffff83166103e8020483615796565b91506136418460016148e0565b93506136576136508387615769565b8590614940565b935061366384836149a0565b600b8190556040518181529094507f227a473b70d2f893cc7659219575c030a63b5743024fe1e0c1a680e708b1525a9060200160405180910390a1505050505050565b6001600160a01b0381166000908152600960205260409020541561370c5760405162461bcd60e51b815260206004820152600360248201527f503a3600000000000000000000000000000000000000000000000000000000006044820152606401610d3e565b6000806137176145d9565b9250925050826001600160a01b031682146137745760405162461bcd60e51b815260206004820152600360248201527f503a3700000000000000000000000000000000000000000000000000000000006044820152606401610d3e565b6001600160a01b0390921660009081526009602052604090209190915550565b806001600160a01b0316826001600160a01b0316846001600160a01b03167fddf252ad1be2c89b69c2b068fc378daa952ba7f163c4a11628f55a4df523b3ef60405160405180910390a4505050565b600062ffffff60e683901c16610cdc565b600061380382600001516137e3565b62ffffff16826040015162ffffff1611156138605760405162461bcd60e51b815260206004820152600360248201527f533a4600000000000000000000000000000000000000000000000000000000006044820152606401610d3e565b81606001516001600160a01b031661387b8360000151614600565b6001600160a01b0316146138b557815160018401600061389a83614600565b6001600160a01b031681526020810191909152604001600020555b815160009081906138ef906138c9816137e3565b60608701516020880151683fffffffffffffffff60a09190911c16633b9aca00026149e6565b8187559092509050683fffffffffffffffff60a083901c16633b9aca00025b925061391981613be1565b505092915050565b600061392b612f52565b6bffffffffffffffffffffffff163410156139885760405162461bcd60e51b815260206004820152600360248201527f533a3500000000000000000000000000000000000000000000000000000000006044820152606401610d3e565b602082015115801561399a5750815115155b6139e65760405162461bcd60e51b815260206004820152600560248201527f4e4f5045330000000000000000000000000000000000000000000000000000006044820152606401610d3e565b815160ff1c600114613a3a5760405162461bcd60e51b815260206004820152600560248201527f4e4f5045340000000000000000000000000000000000000000000000000000006044820152606401610d3e565b600080613a62846000015185604001516001613a5691906159dd565b866060015160006149e6565b81875560408601519193509150613a9190613a7e9060016159dd565b8551613a8b906000614750565b906146c9565b856001016000613aa48760000151614600565b6001600160a01b03168152602081019190915260400160002055683fffffffffffffffff60a083901c16633b9aca000261390e565b6040805160808101825260008082526020808301829052828401829052606083018290526001600160a01b0387168252600d815283822061ffff8716835260020190529190912090613b2b828461482c565b9050935093915050565b3360009081526003602052604090205460ff16610e365760405162461bcd60e51b815260206004820152600960248201527f554e5452555354454400000000000000000000000000000000000000000000006044820152606401610d3e565b6000826001600160a01b0316826001600160a01b03161480612d485750506001600160a01b0390811660009081526002602090815260408083209490931682529290925290205460ff1690565b806bffffffffffffffffffffffff16341015613c3f5760405162461bcd60e51b815260206004820152600360248201527f543a3200000000000000000000000000000000000000000000000000000000006044820152606401610d3e565b600b546127106bffffffffffffffffffffffff83166103e80204613c6d613c668285615769565b8390614940565b9150613c7982826149a0565b600b8190556040518181529092507f227a473b70d2f893cc7659219575c030a63b5743024fe1e0c1a680e708b1525a90602001612007565b30613cbb82613279565b6001600160a01b031614613d115760405162461bcd60e51b815260206004820152600360248201527f4e3a3000000000000000000000000000000000000000000000000000000000006044820152606401610d3e565b6001600160a01b03818116600090815260208190526040902080547fffffffffffffffffffffffff000000000000000000000000000000000000000016918416919091179055613d62308383613794565b5050565b6000612d48836008613d7885826157eb565b600190911b6000190191901c1690565b6000816020015160001415613ddf5760405162461bcd60e51b815260206004820152600360248201527f533a4500000000000000000000000000000000000000000000000000000000006044820152606401610d3e565b6000613dee83600001516137e3565b62ffffff16836040015162ffffff161190506000613e0f8460000151614600565b6001600160a01b0316613e258560200151614600565b6001600160a01b03161490506000613e478560000151600160ff9190911c1490565b8015613e5a5750602085015160ff1c6001145b905081801561334057508080613340575091949350505050565b6000610fff821115613e8557600080fd5b508062ffffff81111561348b57600080fd5b6000610cdc82614aad565b600081613ef15760405162461bcd60e51b815260206004820152600360248201527f503a3800000000000000000000000000000000000000000000000000000000006044820152606401610d3e565b600854613f0b60ff8416613f06836000613d66565b614bdc565b613f169060016159fb565b821791506003613f27826001613d66565b613f329060ff615a13565b60089490941c93613f4990851660ff1660016159fb565b61010017901b82179150600e613f60826002613d66565b613f6b9060ff615a13565b60089490941c93613f8290851660ff1660016159fb565b60089490941c9361020017901b919091179060ff831660808110613fa7576004613faa565b60035b60ff1690506019613fc9600886901c95508560ff16613f068585613d66565b613fd49060016159fb565b600895861c9583901b17901b929092179160ff8416601e8110614016576037811061400f57604b8110614008576000614019565b6007614019565b6006614019565b60055b60ff169050801561405657602461403e600887901c96508660ff16613f068685613d66565b6140499060016159fb565b600883901b17901b841793505b60089490941c9360ff8516601e81106140bb57603781106140b457604b81106140ad57607381106140a657609b811061409f5760cd81106140985760016140be565b60026140be565b60036140be565b60046140be565b60076140be565b60066140be565b60055b60ff16905060506140dd600888901c97508760ff16613f068785613d66565b6140e89060016159fb565b600883901b17901b8517945050505050919050565b6000612d4883600b61410f85826157eb565b613d789060036157c6565b6001600160a01b038116600090815260096020526040902054156141805760405162461bcd60e51b815260206004820152600360248201527f503a3500000000000000000000000000000000000000000000000000000000006044820152606401610d3e565b60008161418e600143615a5c565b6040517f4206900000000000000000000000000000000000000000000000000000000000602082015260609290921b7fffffffffffffffffffffffffffffffffffffffff0000000000000000000000001660238301524060378201526057016040516020818303038152906040528051906020012060001c9050600061421382613ea2565b6001600160a01b039093166000908152600960205260409020929092555050565b6001600160a01b0381811660008181526020819052604080822080547fffffffffffffffffffffffff0000000000000000000000000000000000000000169487169485179055519192917fddf252ad1be2c89b69c2b068fc378daa952ba7f163c4a11628f55a4df523b3ef908290a45050565b60006142b282613279565b90506142be8382613b94565b610cdc5760405162461bcd60e51b815260206004820152600360248201527f503a4200000000000000000000000000000000000000000000000000000000006044820152606401610d3e565b60008061431785856140fd565b61ffff169050614335858561432c88876140fd565b61ffff16614c4c565b9150613340858483614c4c565b60008061434e83613279565b90503061435a8461348f565b6001600160a01b031614801561437857506001600160a01b03811633145b6143c45760405162461bcd60e51b815260206004820152600360248201527f543a3300000000000000000000000000000000000000000000000000000000006044820152606401610d3e565b600b546001600160a01b03841660009081526020818152604080832080547fffffffffffffffffffffffff000000000000000000000000000000000000000090811690915560018352818420805482169055600d8352818420849055600e835281842084905560098352818420849055600790925282208054909116905561444e90839086613794565b61445781614611565b925060016144658260c01c90565b67ffffffffffffffff16101561447d5761447d61570b565b826bffffffffffffffffffffffff166144968260601c90565b6bffffffffffffffffffffffff1610156144b2576144b261570b565b6144bd816001614c85565b90506144c98184614c9c565b600b8190556040518181529091507f227a473b70d2f893cc7659219575c030a63b5743024fe1e0c1a680e708b1525a9060200160405180910390a15050919050565b6000612d488361451a84613279565b613b94565b60008060008061452e85614611565b92506127106103e86bffffffffffffffffffffffff8516020491506145538560c01c90565b61271067ffffffffffffffff919091168402049050806145738385615796565b61457d9190615796565b93509193509193565b633b9aca0081066bffffffffffffffffffffffff8116156145b257506001633b9aca0091829004010290565b633b9aca0080830402610cdc565b60006145ce826127d8615a73565b612710900492915050565b60008060006145e6614cb3565b90935062ffffff1691506145f983613ea2565b9050909192565b60006001600160a01b038216610cdc565b600061461d8260c01c90565b67ffffffffffffffff1690508061463657506000919050565b6146408260601c90565b6bffffffffffffffffffffffff1604919050565b61465e33836142a7565b50600061466a836127bd565b90506142138161467b836000614cee565b8461ffff16614c4c565b61468f33836142a7565b50600061469b836127bd565b9050614213816146af838561ffff16614cee565b6000614c4c565b60006146c1826127bd565b151592915050565b60007fc000003fffffffffffffffffffffffffffffffffffffffffffffffffffffffff83167f3fffffc00000000000000000000000000000000000000000000000000000000060e684901b1617612d48565b60007fffffffffffffffffffffffff000000000000000000000000000000000000000083166001600160a01b03831617612d48565b6000612d4883600160ff85614766576000614769565b60015b60ff16811b600190921b6000190160ff919091161b19919091161790565b633b9aca00900460007fffffffc00000000000000000ffffffffffffffffffffffffffffffffffffffff83167fffffffffffffffffffffffff000000000000000000000000000000000000000060a084901b1617612d48565b60007fbfffffffffffffffffffffffffffffffffffffffffffffffffffffffffffffff82167f400000000000000000000000000000000000000000000000000000000000000017610cdc565b6040805160808101825260006020820152835480825262ffffff60457f0000000000000000000000000000000000000000000000000000000000000000430304610bb80116928201929092526001600160a01b03831660608201529061489181614600565b6001600160a01b0316836001600160a01b031614156148b657602082018190526148d9565b6001600160a01b0383166000908152600185016020908152604090912054908301525b5092915050565b60006148ec8360c01c90565b6148f69083615aa7565b915077ffffffffffffffffffffffffffffffffffffffffffffffff831660c083901b7fffffffffffffffff0000000000000000000000000000000000000000000000001617612d48565b600061494c8360601c90565b6149569083615796565b91507fffffffffffffffff000000000000000000000000ffffffffffffffffffffffff8316606083901b77ffffffffffffffffffffffff0000000000000000000000001617612d48565b60006149ac8383615796565b91506bffffffffffffffffffffffff82167fffffffffffffffffffffffffffffffffffffffff000000000000000000000000841617612d48565b600080633b9aca0060a087901c683fffffffffffffffff1602614a0834613551565b614a129085615796565b9350836bffffffffffffffffffffffff16614a2c826145c0565b6bffffffffffffffffffffffff161115614a885760405162461bcd60e51b815260206004820152600360248201527f533a4700000000000000000000000000000000000000000000000000000000006044820152606401610d3e565b614a9586868660006132fd565b9250614aa18185615769565b91505094509492505050565b60007f00000000000000000000000000000000000000000000000000000000000000007ffffffffffffffffffffffffffffffffffffffffffffffffffffffffffffff44883016045020181614b0a614b06600284615a5c565b4090565b905080614b595760405162461bcd60e51b815260206004820152600360248201527f453a3000000000000000000000000000000000000000000000000000000000006044820152606401610d3e565b6040805160208082019390935260e89590951b7fffffff000000000000000000000000000000000000000000000000000000000016858201523060601b7fffffffffffffffffffffffffffffffffffffffff0000000000000000000000001660438601528051603781870301815260579095019052835193019290922092915050565b600060ff8216614c2e5760405162461bcd60e51b815260206004820152600360248201527f503a3900000000000000000000000000000000000000000000000000000000006044820152606401610d3e565b81614c3884614d75565b614c429190615a13565b60ff169392505050565b60006118cc84600b614c5e86826157eb565b614c699060036157c6565b85811b600190921b6000190160ff919091161b19919091161790565b600081614c928460c01c90565b6148f69190615aca565b600081614ca98460601c90565b6149569190615769565b600060457f0000000000000000000000000000000000000000000000000000000000000000430304610bb801614ce881614aad565b91509091565b6000600383901c92505b8183600b161415614d0857610cdc565b80614d1281615897565b600b9490941c9391505082614cf8578060ff1660161415610cdc5760405162461bcd60e51b815260206004820152600860248201527f554e5445535445440000000000000000000000000000000000000000000000006044820152606401610d3e565b600060ff82111561348b57600080fd5b828054614d9190615843565b90600052602060002090601f016020900481019282614db35760008555614df9565b82601f10614dcc57805160ff1916838001178555614df9565b82800160010185558215614df9579182015b82811115614df9578251825591602001919060010190614dde565b5061348b9291505b8082111561348b5760008155600101614e01565b600060208284031215614e2757600080fd5b81357fffffffff0000000000000000000000000000000000000000000000000000000081168114612d4857600080fd5b6001600160a01b038116811461341757600080fd5b600060208284031215614e7e57600080fd5b8135612d4881614e57565b60005b83811015614ea4578181015183820152602001614e8c565b83811115614eb3576000848401525b50505050565b60008151808452614ed1816020860160208601614e89565b601f017fffffffffffffffffffffffffffffffffffffffffffffffffffffffffffffffe0169290920160200192915050565b602081526000612d486020830184614eb9565b600060208284031215614f2857600080fd5b5035919050565b60008060408385031215614f4257600080fd5b8235614f4d81614e57565b946020939093013593505050565b803561ffff811681146132f857600080fd5b600080600060608486031215614f8257600080fd5b8335614f8d81614e57565b92506020840135614f9d81614e57565b9150614fab60408501614f5b565b90509250925092565b60008060408385031215614fc757600080fd5b8235614fd281614e57565b915060208301358015158114614fe757600080fd5b809150509250929050565b60008060006060848603121561500757600080fd5b833561501281614e57565b9250602084013561502281614e57565b929592945050506040919091013590565b803560ff811681146132f857600080fd5b6000806000806080858703121561505a57600080fd5b843561506581614e57565b935061507360208601615033565b925061508160408601615033565b9150606085013561509181614e57565b939692955090935050565b600081518084526020808501945080840160005b838110156150cf57815160ff16875295820195908201906001016150b0565b509495945050505050565b600081518084526020808501808196508360051b8101915082860160005b85811015615122578284038952615110848351614eb9565b988501989350908401906001016150f8565b5091979650505050505050565b86815260c06020820152600061514860c083018861509c565b828103604084015261515a818861509c565b9050828103606084015261516e818761509c565b9050828103608084015261518281866150da565b905082810360a08401526151968185614eb9565b9998505050505050505050565b6000806000606084860312156151b857600080fd5b83356151c381614e57565b92506151d160208501615033565b9150614fab60408501615033565b600080604083850312156151f257600080fd5b823591506020830135614fe781614e57565b6000806040838503121561521757600080fd5b823561522281614e57565b91506020830135614fe781614e57565b60006020828403121561524457600080fd5b612d4882615033565b602081526000825161014080602085015261526c61016085018361509c565b915060208501517fffffffffffffffffffffffffffffffffffffffffffffffffffffffffffffffe0808685030160408701526152a8848361509c565b935060408701519150808685030160608701526152c5848361509c565b935060608701516080870152608087015191506152ed60a08701836001600160a01b03169052565b60a087015160c087015260c08701519150808685030160e087015261531284836150da565b935060e0870151915061010081878603018188015261533185846150da565b9450808801519250506101208187860301818801526153508584614eb9565b90880151878203909201848801529350905061536c8382614eb9565b9695505050505050565b7f4e487b7100000000000000000000000000000000000000000000000000000000600052604160045260246000fd5b604051601f82017fffffffffffffffffffffffffffffffffffffffffffffffffffffffffffffffe016810167ffffffffffffffff811182821017156153ec576153ec615376565b604052919050565b600067ffffffffffffffff82111561540e5761540e615376565b50601f017fffffffffffffffffffffffffffffffffffffffffffffffffffffffffffffffe01660200190565b600061544d615448846153f4565b6153a5565b905082815283838301111561546157600080fd5b828260208301376000602084830101529392505050565b600082601f83011261548957600080fd5b612d488383356020850161543a565b6000806000606084860312156154ad57600080fd5b83356154b881614e57565b92506154c660208501614f5b565b9150604084013567ffffffffffffffff8111156154e257600080fd5b6154ee86828701615478565b9150509250925092565b6000806040838503121561550b57600080fd5b823561551681614e57565b9150602083013567ffffffffffffffff81111561553257600080fd5b61553e85828601615478565b9150509250929050565b6000806000806080858703121561555e57600080fd5b843561556981614e57565b9350602085013561557981614e57565b925060408501359150606085013567ffffffffffffffff81111561559c57600080fd5b8501601f810187136155ad57600080fd5b6155bc8782356020840161543a565b91505092959194509250565b80356bffffffffffffffffffffffff811681146132f857600080fd5b600080604083850312156155f757600080fd5b823561560281614e57565b9150613548602084016155c8565b6000806000806080858703121561562657600080fd5b843561563181614e57565b935061563f60208601614f5b565b93969395505050506040820135916060013590565b60008060006040848603121561566957600080fd5b833567ffffffffffffffff8082111561568157600080fd5b818601915086601f83011261569557600080fd5b8135818111156156a457600080fd5b8760208260051b85010111156156b957600080fd5b602092830195509350614fab9186019050615033565b6000806000606084860312156156e457600080fd5b83356156ef81614e57565b92506156fd60208501614f5b565b9150614fab604085016155c8565b7f4e487b7100000000000000000000000000000000000000000000000000000000600052600160045260246000fd5b7f4e487b7100000000000000000000000000000000000000000000000000000000600052601160045260246000fd5b60006bffffffffffffffffffffffff8381169083168181101561578e5761578e61573a565b039392505050565b60006bffffffffffffffffffffffff8083168185168083038211156157bd576157bd61573a565b01949350505050565b600060ff821660ff84168060ff038211156157e3576157e361573a565b019392505050565b600060ff821660ff84168160ff048111821515161561580c5761580c61573a565b029392505050565b7f4e487b7100000000000000000000000000000000000000000000000000000000600052603260045260246000fd5b600181811c9082168061585757607f821691505b60208210811415615891577f4e487b7100000000000000000000000000000000000000000000000000000000600052602260045260246000fd5b50919050565b600060ff821660ff8114156158ae576158ae61573a565b60010192915050565b600063ffffffff8083168185168083038211156157bd576157bd61573a565b60006001600160a01b03808916835287602084015280871660408401525060e0606083015261590860e0830186614eb9565b828103608084015261591a8186614eb9565b93151560a0840152505080820360c0909101526000815260200195945050505050565b60006020828403121561594f57600080fd5b815167ffffffffffffffff81111561596657600080fd5b8201601f8101841361597757600080fd5b8051615985615448826153f4565b81815285602083850101111561599a57600080fd5b613340826020830160208601614e89565b6000816159ba576159ba61573a565b506000190190565b60006000198214156159d6576159d661573a565b5060010190565b600062ffffff8083168185168083038211156157bd576157bd61573a565b60008219821115615a0e57615a0e61573a565b500190565b600060ff831680615a4d577f4e487b7100000000000000000000000000000000000000000000000000000000600052601260045260246000fd5b8060ff84160691505092915050565b600082821015615a6e57615a6e61573a565b500390565b60006bffffffffffffffffffffffff80831681851681830481118215151615615a9e57615a9e61573a565b02949350505050565b600067ffffffffffffffff8083168185168083038211156157bd576157bd61573a565b600067ffffffffffffffff8381169083168181101561578e5761578e61573a56fea2646970667358221220e7ef3c9448afd64c6a85c5a362a57af47a374b63fc13d9a667c55ce8b9b5f83464736f6c63430008090033",
  "devdoc": {
    "kind": "dev",
    "methods": {},
    "version": 1
  },
  "userdoc": {
    "kind": "user",
    "methods": {},
    "version": 1
  },
  "storageLayout": {
    "storage": [
      {
        "astId": 2270,
        "contract": "src/_deployment/NuggftV1Deployer.sol:NuggftV1Deployer",
        "label": "nuggft",
        "offset": 0,
        "slot": "0",
        "type": "t_contract(NuggftV1)2263"
      }
    ],
    "types": {
      "t_contract(NuggftV1)2263": {
        "encoding": "inplace",
        "label": "contract NuggftV1",
        "numberOfBytes": "20"
      }
    }
  }
}