{
  "address": "0x53de977e6A3bF8D972d9Dbd84533274A10450c7b",
  "abi": [
    {
      "inputs": [
        {
          "internalType": "address",
          "name": "_defaultResolver",
          "type": "address"
        }
      ],
      "stateMutability": "nonpayable",
      "type": "constructor"
    },
    {
      "anonymous": false,
      "inputs": [
        {
          "indexed": true,
          "internalType": "address",
          "name": "_owner",
          "type": "address"
        },
        {
          "indexed": true,
          "internalType": "address",
          "name": "_approved",
          "type": "address"
        },
        {
          "indexed": true,
          "internalType": "uint256",
          "name": "_tokenId",
          "type": "uint256"
        }
      ],
      "name": "Approval",
      "type": "event"
    },
    {
      "anonymous": false,
      "inputs": [
        {
          "indexed": true,
          "internalType": "address",
          "name": "_owner",
          "type": "address"
        },
        {
          "indexed": true,
          "internalType": "address",
          "name": "_operator",
          "type": "address"
        },
        {
          "indexed": false,
          "internalType": "bool",
          "name": "_approved",
          "type": "bool"
        }
      ],
      "name": "ApprovalForAll",
      "type": "event"
    },
    {
      "anonymous": false,
      "inputs": [
        {
          "indexed": false,
          "internalType": "uint160",
          "name": "tokenId",
          "type": "uint160"
        },
        {
          "indexed": false,
          "internalType": "address",
          "name": "owner",
          "type": "address"
        },
        {
          "indexed": false,
          "internalType": "uint96",
          "name": "ethOwed",
          "type": "uint96"
        }
      ],
      "name": "Burn",
      "type": "event"
    },
    {
      "anonymous": false,
      "inputs": [
        {
          "indexed": true,
          "internalType": "uint160",
          "name": "tokenId",
          "type": "uint160"
        },
        {
          "indexed": false,
          "internalType": "address",
          "name": "user",
          "type": "address"
        }
      ],
      "name": "Claim",
      "type": "event"
    },
    {
      "anonymous": false,
      "inputs": [
        {
          "indexed": true,
          "internalType": "uint176",
          "name": "sellingItemId",
          "type": "uint176"
        },
        {
          "indexed": false,
          "internalType": "uint160",
          "name": "nugg",
          "type": "uint160"
        }
      ],
      "name": "ClaimItem",
      "type": "event"
    },
    {
      "anonymous": false,
      "inputs": [
        {
          "indexed": true,
          "internalType": "uint160",
          "name": "tokenId",
          "type": "uint160"
        },
        {
          "indexed": false,
          "internalType": "address",
          "name": "user",
          "type": "address"
        },
        {
          "indexed": false,
          "internalType": "uint96",
          "name": "lead",
          "type": "uint96"
        }
      ],
      "name": "Delegate",
      "type": "event"
    },
    {
      "anonymous": false,
      "inputs": [
        {
          "indexed": true,
          "internalType": "uint176",
          "name": "sellingItemId",
          "type": "uint176"
        },
        {
          "indexed": false,
          "internalType": "uint160",
          "name": "nugg",
          "type": "uint160"
        },
        {
          "indexed": false,
          "internalType": "uint96",
          "name": "lead",
          "type": "uint96"
        }
      ],
      "name": "DelegateItem",
      "type": "event"
    },
    {
      "anonymous": false,
      "inputs": [
        {
          "indexed": true,
          "internalType": "uint256",
          "name": "artifactId",
          "type": "uint256"
        }
      ],
      "name": "DotnuggV1ConfigUpdated",
      "type": "event"
    },
    {
      "anonymous": false,
      "inputs": [
        {
          "indexed": false,
          "internalType": "uint256",
          "name": "blocknum",
          "type": "uint256"
        },
        {
          "indexed": false,
          "internalType": "uint32",
          "name": "interval",
          "type": "uint32"
        },
        {
          "indexed": false,
          "internalType": "uint24",
          "name": "offset",
          "type": "uint24"
        }
      ],
      "name": "Genesis",
      "type": "event"
    },
    {
      "anonymous": false,
      "inputs": [
        {
          "indexed": true,
          "internalType": "uint160",
          "name": "tokenId",
          "type": "uint160"
        },
        {
          "indexed": false,
          "internalType": "uint96",
          "name": "value",
          "type": "uint96"
        },
        {
          "indexed": false,
          "internalType": "address",
          "name": "user",
          "type": "address"
        }
      ],
      "name": "Liquidate",
      "type": "event"
    },
    {
      "anonymous": false,
      "inputs": [
        {
          "indexed": true,
          "internalType": "uint160",
          "name": "tokenId",
          "type": "uint160"
        },
        {
          "indexed": false,
          "internalType": "uint96",
          "name": "value",
          "type": "uint96"
        }
      ],
      "name": "Loan",
      "type": "event"
    },
    {
      "anonymous": false,
      "inputs": [
        {
          "indexed": false,
          "internalType": "address",
          "name": "v2",
          "type": "address"
        },
        {
          "indexed": false,
          "internalType": "uint160",
          "name": "tokenId",
          "type": "uint160"
        },
        {
          "indexed": false,
          "internalType": "uint256",
          "name": "proof",
          "type": "uint256"
        },
        {
          "indexed": false,
          "internalType": "address",
          "name": "owner",
          "type": "address"
        },
        {
          "indexed": false,
          "internalType": "uint96",
          "name": "eth",
          "type": "uint96"
        }
      ],
      "name": "MigrateV1Sent",
      "type": "event"
    },
    {
      "anonymous": false,
      "inputs": [
        {
          "indexed": false,
          "internalType": "address",
          "name": "migrator",
          "type": "address"
        }
      ],
      "name": "MigratorV1Updated",
      "type": "event"
    },
    {
      "anonymous": false,
      "inputs": [
        {
          "indexed": false,
          "internalType": "uint160",
          "name": "tokenId",
          "type": "uint160"
        },
        {
          "indexed": false,
          "internalType": "uint96",
          "name": "value",
          "type": "uint96"
        }
      ],
      "name": "Mint",
      "type": "event"
    },
    {
      "anonymous": false,
      "inputs": [
        {
          "indexed": false,
          "internalType": "uint96",
          "name": "eth",
          "type": "uint96"
        }
      ],
      "name": "ProtocolEthExtracted",
      "type": "event"
    },
    {
      "anonymous": false,
      "inputs": [
        {
          "indexed": true,
          "internalType": "uint160",
          "name": "tokenId",
          "type": "uint160"
        },
        {
          "indexed": false,
          "internalType": "uint96",
          "name": "value",
          "type": "uint96"
        }
      ],
      "name": "Rebalance",
      "type": "event"
    },
    {
      "anonymous": false,
      "inputs": [
        {
          "indexed": false,
          "internalType": "uint256",
          "name": "stake",
          "type": "uint256"
        }
      ],
      "name": "Stake",
      "type": "event"
    },
    {
      "anonymous": false,
      "inputs": [
        {
          "indexed": true,
          "internalType": "uint160",
          "name": "tokenId",
          "type": "uint160"
        },
        {
          "indexed": false,
          "internalType": "uint96",
          "name": "floor",
          "type": "uint96"
        }
      ],
      "name": "Swap",
      "type": "event"
    },
    {
      "anonymous": false,
      "inputs": [
        {
          "indexed": true,
          "internalType": "uint176",
          "name": "sellingItemId",
          "type": "uint176"
        },
        {
          "indexed": false,
          "internalType": "uint96",
          "name": "floor",
          "type": "uint96"
        }
      ],
      "name": "SwapItem",
      "type": "event"
    },
    {
      "anonymous": false,
      "inputs": [
        {
          "indexed": true,
          "internalType": "address",
          "name": "_from",
          "type": "address"
        },
        {
          "indexed": true,
          "internalType": "address",
          "name": "_to",
          "type": "address"
        },
        {
          "indexed": true,
          "internalType": "uint256",
          "name": "_tokenId",
          "type": "uint256"
        }
      ],
      "name": "Transfer",
      "type": "event"
    },
    {
      "anonymous": false,
      "inputs": [
        {
          "indexed": true,
          "internalType": "address",
          "name": "user",
          "type": "address"
        },
        {
          "indexed": false,
          "internalType": "bool",
          "name": "trust",
          "type": "bool"
        }
      ],
      "name": "TrustUpdated",
      "type": "event"
    },
    {
      "anonymous": false,
      "inputs": [
        {
          "indexed": true,
          "internalType": "address",
          "name": "user",
          "type": "address"
        },
        {
          "indexed": false,
          "internalType": "bool",
          "name": "trusted",
          "type": "bool"
        }
      ],
      "name": "UserTrustUpdated",
      "type": "event"
    },
    {
      "inputs": [],
      "name": "MIN_OFFER",
      "outputs": [
        {
          "internalType": "uint96",
          "name": "",
          "type": "uint96"
        }
      ],
      "stateMutability": "view",
      "type": "function"
    },
    {
      "inputs": [
        {
          "internalType": "address",
          "name": "to",
          "type": "address"
        },
        {
          "internalType": "uint256",
          "name": "tokenId",
          "type": "uint256"
        }
      ],
      "name": "approve",
      "outputs": [],
      "stateMutability": "payable",
      "type": "function"
    },
    {
      "inputs": [
        {
          "internalType": "address",
          "name": "",
          "type": "address"
        }
      ],
      "name": "balanceOf",
      "outputs": [
        {
          "internalType": "uint256",
          "name": "",
          "type": "uint256"
        }
      ],
      "stateMutability": "pure",
      "type": "function"
    },
    {
      "inputs": [
        {
          "internalType": "uint160",
          "name": "tokenId",
          "type": "uint160"
        }
      ],
      "name": "burn",
      "outputs": [],
      "stateMutability": "nonpayable",
      "type": "function"
    },
    {
      "inputs": [
        {
          "internalType": "uint160",
          "name": "tokenId",
          "type": "uint160"
        }
      ],
      "name": "claim",
      "outputs": [],
      "stateMutability": "nonpayable",
      "type": "function"
    },
    {
      "inputs": [
        {
          "internalType": "uint160",
          "name": "buyerTokenId",
          "type": "uint160"
        },
        {
          "internalType": "uint160",
          "name": "sellerTokenId",
          "type": "uint160"
        },
        {
          "internalType": "uint16",
          "name": "itemId",
          "type": "uint16"
        }
      ],
      "name": "claimItem",
      "outputs": [],
      "stateMutability": "nonpayable",
      "type": "function"
    },
    {
      "inputs": [
        {
          "internalType": "uint160",
          "name": "tokenId",
          "type": "uint160"
        }
      ],
      "name": "delegate",
      "outputs": [],
      "stateMutability": "payable",
      "type": "function"
    },
    {
      "inputs": [
        {
          "internalType": "uint160",
          "name": "buyerTokenId",
          "type": "uint160"
        },
        {
          "internalType": "uint160",
          "name": "sellerTokenId",
          "type": "uint160"
        },
        {
          "internalType": "uint16",
          "name": "itemId",
          "type": "uint16"
        }
      ],
      "name": "delegateItem",
      "outputs": [],
      "stateMutability": "payable",
      "type": "function"
    },
    {
      "inputs": [],
      "name": "dotnuggV1",
      "outputs": [
        {
          "internalType": "contract IDotnuggV1",
          "name": "",
          "type": "address"
        }
      ],
      "stateMutability": "view",
      "type": "function"
    },
    {
      "inputs": [
        {
          "internalType": "uint256",
          "name": "tokenId",
          "type": "uint256"
        }
      ],
      "name": "dotnuggV1ImplementerCallback",
      "outputs": [
        {
          "components": [
            {
              "internalType": "uint8[]",
              "name": "ids",
              "type": "uint8[]"
            },
            {
              "internalType": "uint8[]",
              "name": "xovers",
              "type": "uint8[]"
            },
            {
              "internalType": "uint8[]",
              "name": "yovers",
              "type": "uint8[]"
            },
            {
              "internalType": "uint256",
              "name": "version",
              "type": "uint256"
            },
            {
              "internalType": "address",
              "name": "implementer",
              "type": "address"
            },
            {
              "internalType": "uint256",
              "name": "artifactId",
              "type": "uint256"
            },
            {
              "internalType": "string[]",
              "name": "labels",
              "type": "string[]"
            },
            {
              "internalType": "string[]",
              "name": "styles",
              "type": "string[]"
            },
            {
              "internalType": "string",
              "name": "background",
              "type": "string"
            },
            {
              "internalType": "bytes",
              "name": "data",
              "type": "bytes"
            }
          ],
          "internalType": "struct IDotnuggV1Metadata.Memory",
          "name": "data",
          "type": "tuple"
        }
      ],
      "stateMutability": "view",
      "type": "function"
    },
    {
      "inputs": [
        {
          "internalType": "uint256",
          "name": "tokenId",
          "type": "uint256"
        }
      ],
      "name": "dotnuggV1ResolverOf",
      "outputs": [
        {
          "internalType": "address",
          "name": "",
          "type": "address"
        }
      ],
      "stateMutability": "view",
      "type": "function"
    },
    {
      "inputs": [],
      "name": "dotnuggV1StorageProxy",
      "outputs": [
        {
          "internalType": "contract IDotnuggV1StorageProxy",
          "name": "",
          "type": "address"
        }
      ],
      "stateMutability": "view",
      "type": "function"
    },
    {
      "inputs": [
        {
          "internalType": "uint256[][]",
          "name": "data",
          "type": "uint256[][]"
        },
        {
          "internalType": "uint8",
          "name": "feature",
          "type": "uint8"
        }
      ],
      "name": "dotnuggV1StoreFiles",
      "outputs": [],
      "stateMutability": "nonpayable",
      "type": "function"
    },
    {
      "inputs": [
        {
          "internalType": "address",
          "name": "caller",
          "type": "address"
        }
      ],
      "name": "dotnuggV1TrustCallback",
      "outputs": [
        {
          "internalType": "bool",
          "name": "res",
          "type": "bool"
        }
      ],
      "stateMutability": "view",
      "type": "function"
    },
    {
      "inputs": [],
      "name": "epoch",
      "outputs": [
        {
          "internalType": "uint24",
          "name": "res",
          "type": "uint24"
        }
      ],
      "stateMutability": "view",
      "type": "function"
    },
    {
      "inputs": [],
      "name": "ethPerShare",
      "outputs": [
        {
          "internalType": "uint96",
          "name": "res",
          "type": "uint96"
        }
      ],
      "stateMutability": "view",
      "type": "function"
    },
    {
      "inputs": [],
      "name": "extractProtocolEth",
      "outputs": [],
      "stateMutability": "nonpayable",
      "type": "function"
    },
    {
      "inputs": [],
      "name": "genesis",
      "outputs": [
        {
          "internalType": "uint256",
          "name": "",
          "type": "uint256"
        }
      ],
      "stateMutability": "view",
      "type": "function"
    },
    {
      "inputs": [
        {
          "internalType": "uint256",
          "name": "tokenId",
          "type": "uint256"
        }
      ],
      "name": "getApproved",
      "outputs": [
        {
          "internalType": "address",
          "name": "",
          "type": "address"
        }
      ],
      "stateMutability": "view",
      "type": "function"
    },
    {
      "inputs": [
        {
          "internalType": "address",
          "name": "owner",
          "type": "address"
        },
        {
          "internalType": "address",
          "name": "operator",
          "type": "address"
        }
      ],
      "name": "isApprovedForAll",
      "outputs": [
        {
          "internalType": "bool",
          "name": "",
          "type": "bool"
        }
      ],
      "stateMutability": "view",
      "type": "function"
    },
    {
      "inputs": [
        {
          "internalType": "address",
          "name": "",
          "type": "address"
        }
      ],
      "name": "isTrusted",
      "outputs": [
        {
          "internalType": "bool",
          "name": "",
          "type": "bool"
        }
      ],
      "stateMutability": "view",
      "type": "function"
    },
    {
      "inputs": [
        {
          "internalType": "uint8",
          "name": "feature",
          "type": "uint8"
        }
      ],
      "name": "lengthOf",
      "outputs": [
        {
          "internalType": "uint8",
          "name": "",
          "type": "uint8"
        }
      ],
      "stateMutability": "view",
      "type": "function"
    },
    {
      "inputs": [
        {
          "internalType": "uint160",
          "name": "tokenId",
          "type": "uint160"
        }
      ],
      "name": "liquidate",
      "outputs": [],
      "stateMutability": "payable",
      "type": "function"
    },
    {
      "inputs": [
        {
          "internalType": "uint160",
          "name": "tokenId",
          "type": "uint160"
        }
      ],
      "name": "loan",
      "outputs": [],
      "stateMutability": "nonpayable",
      "type": "function"
    },
    {
      "inputs": [
        {
          "internalType": "uint160",
          "name": "tokenId",
          "type": "uint160"
        }
      ],
      "name": "loanInfo",
      "outputs": [
        {
          "internalType": "uint96",
          "name": "toLiquidate",
          "type": "uint96"
        },
        {
          "internalType": "uint96",
          "name": "toRebalance",
          "type": "uint96"
        },
        {
          "internalType": "uint96",
          "name": "earned",
          "type": "uint96"
        },
        {
          "internalType": "uint24",
          "name": "epochDue",
          "type": "uint24"
        },
        {
          "internalType": "address",
          "name": "loaner",
          "type": "address"
        }
      ],
      "stateMutability": "view",
      "type": "function"
    },
    {
      "inputs": [
        {
          "internalType": "uint160",
          "name": "tokenId",
          "type": "uint160"
        }
      ],
      "name": "migrate",
      "outputs": [],
      "stateMutability": "nonpayable",
      "type": "function"
    },
    {
      "inputs": [],
      "name": "migrator",
      "outputs": [
        {
          "internalType": "address",
          "name": "",
          "type": "address"
        }
      ],
      "stateMutability": "view",
      "type": "function"
    },
    {
      "inputs": [],
      "name": "minSharePrice",
      "outputs": [
        {
          "internalType": "uint96",
          "name": "res",
          "type": "uint96"
        }
      ],
      "stateMutability": "view",
      "type": "function"
    },
    {
      "inputs": [
        {
          "internalType": "uint160",
          "name": "tokenId",
          "type": "uint160"
        }
      ],
      "name": "mint",
      "outputs": [],
      "stateMutability": "payable",
      "type": "function"
    },
    {
      "inputs": [],
      "name": "name",
      "outputs": [
        {
          "internalType": "string",
          "name": "",
          "type": "string"
        }
      ],
      "stateMutability": "pure",
      "type": "function"
    },
    {
      "inputs": [
        {
          "internalType": "uint256",
          "name": "tokenId",
          "type": "uint256"
        }
      ],
      "name": "ownerOf",
      "outputs": [
        {
          "internalType": "address",
          "name": "",
          "type": "address"
        }
      ],
      "stateMutability": "view",
      "type": "function"
    },
    {
      "inputs": [
        {
          "internalType": "uint160",
          "name": "tokenId",
          "type": "uint160"
        }
      ],
      "name": "proofOf",
      "outputs": [
        {
          "internalType": "uint256",
          "name": "",
          "type": "uint256"
        }
      ],
      "stateMutability": "view",
      "type": "function"
    },
    {
      "inputs": [
        {
          "internalType": "uint160",
          "name": "tokenId",
          "type": "uint160"
        }
      ],
      "name": "proofToDotnuggMetadata",
      "outputs": [
        {
          "internalType": "uint256",
          "name": "proof",
          "type": "uint256"
        },
        {
          "internalType": "uint8[]",
          "name": "defaultIds",
          "type": "uint8[]"
        },
        {
          "internalType": "uint8[]",
          "name": "overxs",
          "type": "uint8[]"
        },
        {
          "internalType": "uint8[]",
          "name": "overys",
          "type": "uint8[]"
        },
        {
          "internalType": "string[]",
          "name": "styles",
          "type": "string[]"
        },
        {
          "internalType": "string",
          "name": "background",
          "type": "string"
        }
      ],
      "stateMutability": "view",
      "type": "function"
    },
    {
      "inputs": [],
      "name": "protocolEth",
      "outputs": [
        {
          "internalType": "uint96",
          "name": "res",
          "type": "uint96"
        }
      ],
      "stateMutability": "view",
      "type": "function"
    },
    {
      "inputs": [
        {
          "internalType": "uint160",
          "name": "tokenId",
          "type": "uint160"
        }
      ],
      "name": "rebalance",
      "outputs": [],
      "stateMutability": "payable",
      "type": "function"
    },
    {
      "inputs": [
        {
          "internalType": "uint160",
          "name": "tokenId",
          "type": "uint160"
        },
        {
          "internalType": "uint8",
          "name": "index0",
          "type": "uint8"
        },
        {
          "internalType": "uint8",
          "name": "index1",
          "type": "uint8"
        }
      ],
      "name": "rotate",
      "outputs": [],
      "stateMutability": "nonpayable",
      "type": "function"
    },
    {
      "inputs": [
        {
          "internalType": "address",
          "name": "",
          "type": "address"
        },
        {
          "internalType": "address",
          "name": "",
          "type": "address"
        },
        {
          "internalType": "uint256",
          "name": "",
          "type": "uint256"
        }
      ],
      "name": "safeTransferFrom",
      "outputs": [],
      "stateMutability": "payable",
      "type": "function"
    },
    {
      "inputs": [
        {
          "internalType": "address",
          "name": "",
          "type": "address"
        },
        {
          "internalType": "address",
          "name": "",
          "type": "address"
        },
        {
          "internalType": "uint256",
          "name": "",
          "type": "uint256"
        },
        {
          "internalType": "bytes",
          "name": "",
          "type": "bytes"
        }
      ],
      "name": "safeTransferFrom",
      "outputs": [],
      "stateMutability": "payable",
      "type": "function"
    },
    {
      "inputs": [
        {
          "internalType": "address",
          "name": "operator",
          "type": "address"
        },
        {
          "internalType": "bool",
          "name": "approved",
          "type": "bool"
        }
      ],
      "name": "setApprovalForAll",
      "outputs": [],
      "stateMutability": "nonpayable",
      "type": "function"
    },
    {
      "inputs": [
        {
          "internalType": "uint160",
          "name": "tokenId",
          "type": "uint160"
        },
        {
          "internalType": "uint16",
          "name": "itemId",
          "type": "uint16"
        },
        {
          "internalType": "uint256",
          "name": "x",
          "type": "uint256"
        },
        {
          "internalType": "uint256",
          "name": "y",
          "type": "uint256"
        }
      ],
      "name": "setDotnuggV1AnchorOverrides",
      "outputs": [],
      "stateMutability": "nonpayable",
      "type": "function"
    },
    {
      "inputs": [
        {
          "internalType": "uint160",
          "name": "tokenId",
          "type": "uint160"
        },
        {
          "internalType": "string",
          "name": "s",
          "type": "string"
        }
      ],
      "name": "setDotnuggV1Background",
      "outputs": [],
      "stateMutability": "nonpayable",
      "type": "function"
    },
    {
      "inputs": [
        {
          "internalType": "uint256",
          "name": "tokenId",
          "type": "uint256"
        },
        {
          "internalType": "address",
          "name": "to",
          "type": "address"
        }
      ],
      "name": "setDotnuggV1Resolver",
      "outputs": [],
      "stateMutability": "nonpayable",
      "type": "function"
    },
    {
      "inputs": [
        {
          "internalType": "uint160",
          "name": "tokenId",
          "type": "uint160"
        },
        {
          "internalType": "uint16",
          "name": "itemId",
          "type": "uint16"
        },
        {
          "internalType": "string",
          "name": "s",
          "type": "string"
        }
      ],
      "name": "setDotnuggV1Style",
      "outputs": [],
      "stateMutability": "nonpayable",
      "type": "function"
    },
    {
      "inputs": [
        {
          "internalType": "address",
          "name": "user",
          "type": "address"
        },
        {
          "internalType": "bool",
          "name": "trusted",
          "type": "bool"
        }
      ],
      "name": "setIsTrusted",
      "outputs": [],
      "stateMutability": "nonpayable",
      "type": "function"
    },
    {
      "inputs": [
        {
          "internalType": "address",
          "name": "_migrator",
          "type": "address"
        }
      ],
      "name": "setMigrator",
      "outputs": [],
      "stateMutability": "nonpayable",
      "type": "function"
    },
    {
      "inputs": [],
      "name": "stakedEth",
      "outputs": [
        {
          "internalType": "uint96",
          "name": "res",
          "type": "uint96"
        }
      ],
      "stateMutability": "view",
      "type": "function"
    },
    {
      "inputs": [],
      "name": "stakedShares",
      "outputs": [
        {
          "internalType": "uint64",
          "name": "res",
          "type": "uint64"
        }
      ],
      "stateMutability": "view",
      "type": "function"
    },
    {
      "inputs": [
        {
          "internalType": "bytes4",
          "name": "interfaceId",
          "type": "bytes4"
        }
      ],
      "name": "supportsInterface",
      "outputs": [
        {
          "internalType": "bool",
          "name": "",
          "type": "bool"
        }
      ],
      "stateMutability": "view",
      "type": "function"
    },
    {
      "inputs": [
        {
          "internalType": "uint160",
          "name": "tokenId",
          "type": "uint160"
        },
        {
          "internalType": "uint96",
          "name": "floor",
          "type": "uint96"
        }
      ],
      "name": "swap",
      "outputs": [],
      "stateMutability": "nonpayable",
      "type": "function"
    },
    {
      "inputs": [
        {
          "internalType": "uint160",
          "name": "tokenId",
          "type": "uint160"
        },
        {
          "internalType": "uint16",
          "name": "itemId",
          "type": "uint16"
        },
        {
          "internalType": "uint96",
          "name": "floor",
          "type": "uint96"
        }
      ],
      "name": "swapItem",
      "outputs": [],
      "stateMutability": "nonpayable",
      "type": "function"
    },
    {
      "inputs": [],
      "name": "symbol",
      "outputs": [
        {
          "internalType": "string",
          "name": "",
          "type": "string"
        }
      ],
      "stateMutability": "pure",
      "type": "function"
    },
    {
      "inputs": [],
      "name": "testnet__exploit",
      "outputs": [],
      "stateMutability": "nonpayable",
      "type": "function"
    },
    {
      "inputs": [
        {
          "internalType": "uint256",
          "name": "tokenId",
          "type": "uint256"
        }
      ],
      "name": "tokenURI",
      "outputs": [
        {
          "internalType": "string",
          "name": "res",
          "type": "string"
        }
      ],
      "stateMutability": "view",
      "type": "function"
    },
    {
      "inputs": [],
      "name": "totalSupply",
      "outputs": [
        {
          "internalType": "uint256",
          "name": "res",
          "type": "uint256"
        }
      ],
      "stateMutability": "view",
      "type": "function"
    },
    {
      "inputs": [
        {
          "internalType": "address",
          "name": "",
          "type": "address"
        },
        {
          "internalType": "address",
          "name": "",
          "type": "address"
        },
        {
          "internalType": "uint256",
          "name": "",
          "type": "uint256"
        }
      ],
      "name": "transferFrom",
      "outputs": [],
      "stateMutability": "payable",
      "type": "function"
    },
    {
      "inputs": [
        {
          "internalType": "uint160",
          "name": "tokenId",
          "type": "uint160"
        },
        {
          "internalType": "address",
          "name": "to",
          "type": "address"
        }
      ],
      "name": "trustedMint",
      "outputs": [],
      "stateMutability": "payable",
      "type": "function"
    },
    {
      "inputs": [
        {
          "internalType": "address",
          "name": "sender",
          "type": "address"
        },
        {
          "internalType": "uint160",
          "name": "tokenId",
          "type": "uint160"
        }
      ],
      "name": "valueForDelegate",
      "outputs": [
        {
          "internalType": "bool",
          "name": "canDelegate",
          "type": "bool"
        },
        {
          "internalType": "uint96",
          "name": "nextSwapAmount",
          "type": "uint96"
        },
        {
          "internalType": "uint96",
          "name": "senderCurrentOffer",
          "type": "uint96"
        }
      ],
      "stateMutability": "view",
      "type": "function"
    },
    {
      "inputs": [
        {
          "internalType": "uint160",
          "name": "tokenId",
          "type": "uint160"
        }
      ],
      "name": "valueForLiquidate",
      "outputs": [
        {
          "internalType": "uint96",
          "name": "res",
          "type": "uint96"
        }
      ],
      "stateMutability": "view",
      "type": "function"
    },
    {
      "inputs": [
        {
          "internalType": "uint160",
          "name": "tokenId",
          "type": "uint160"
        }
      ],
      "name": "valueForRebalance",
      "outputs": [
        {
          "internalType": "uint96",
          "name": "res",
          "type": "uint96"
        }
      ],
      "stateMutability": "view",
      "type": "function"
    }
  ],
  "transactionHash": "0x27143bd2807e29da7862471a2d9028b631f13cff1548ac9f2f46ce043398a080",
  "args": [
    "0x6adffE28e703be151A7157D425B680E74166bC15"
  ],
  "solcInputHash": "2fd4956284a8497a87328c5e2bc62211",
  "bytecode": "0x60a06040523480156200001157600080fd5b5060405162005ed938038062005ed98339810160408190526200003491620001fe565b4360808190526040805191825260456020830152610bb88282015251829133917f88ea8c578fe7aed8ab10316120da68d9a7d194322df00cf43852ead6e4b55eaf9181900360600190a16001600160a01b03811660008181526003602090815260408083208054600160ff1991821681179092553085529382902080549094168117909355519182527fe95aec380cae16330d146d5499ef7db6f3657e477104a733e771bc09e500d986910160405180910390a2506001600160a01b0381166200012a5760405162461bcd60e51b8152602060048201526003602482015262118e8d60ea1b604482015260640160405180910390fd5b600680546001600160a01b0319166001600160a01b03831690811790915560408051630354740160e31b81529051631aa3a008916004808201926020929091908290030181600087803b1580156200018157600080fd5b505af115801562000196573d6000803e3d6000fd5b505050506040513d601f19601f82011682018060405250810190620001bc9190620001fe565b600580546001600160a01b0319166001600160a01b039290921691909117905550620002259050565b6001600160a01b0381168114620001fb57600080fd5b50565b6000602082840312156200021157600080fd5b81516200021e81620001e5565b9392505050565b608051615c67620002726000396000818161072a0152818161093101528181610d6c01528181611646015281816129100152818161487c01528181614ae30152614cf30152615c676000f3fe60806040526004361061038c5760003560e01c806390a577ef116101dc578063beace31f11610102578063e985e9c5116100a0578063f71d09041161006f578063f71d090414610b55578063fb306b0f14610b6a578063fb774eb814610b8a578063fca840ae14610baa57600080fd5b8063e985e9c514610aeb578063ee0ca98914610b0b578063f2589a6314610b20578063f666b9a614610b4057600080fd5b8063c87b56dd116100dc578063c87b56dd14610a07578063cfd856c714610a27578063d7dc681914610a60578063e162375214610acb57600080fd5b8063beace31f146109c1578063c06c822f146109d4578063c5c8beeb146109e757600080fd5b80639b9173521161017a578063afcde30811610149578063afcde30814610953578063b88d4fde14610973578063b88ea01414610981578063b91b6cbf146109a157600080fd5b80639b917352146108b2578063a22cb465146108df578063a4d0b441146108ff578063a7f0b3de1461091f57600080fd5b806395d89b41116101b657806395d89b41146107be57806396d648791461080457806399081a2614610834578063998a04911461088057600080fd5b806390a577ef1461075b578063939f4130146107895780639531b94d146107a957600080fd5b80635558e4e2116102c157806372b1c7581161025f57806381dcebcf1161022e57806381dcebcf146106b25780638307fa5b146106d25780638e3b3a6b146106f2578063900cf0cf1461071257600080fd5b806372b1c7581461062d578063750656f61461065f57806376df8314146106725780637cd07e471461069257600080fd5b8063608cceb01161029b578063608cceb0146105ac5780636352211e146105cc578063665557c8146105ec57806370a082311461060c57600080fd5b80635558e4e214610564578063570f67ad1461058457806358ff027f1461059957600080fd5b80631056b9d51161032e57806323b872dd1161030857806323b872dd1461050057806323cf31181461050e5780633853d8a11461052e57806342842e0e1461050057600080fd5b80631056b9d5146104aa5780631393916a146104bd57806318160ddd146104dd57600080fd5b806306fdde031161036a57806306fdde03146103fd578063081812fc1461044c578063095ea7b314610484578063099afa171461049757600080fd5b806301ffc9a7146103915780630251f62c146103c657806306bd17d5146103e8575b600080fd5b34801561039d57600080fd5b506103b16103ac366004614e4f565b610bca565b60405190151581526020015b60405180910390f35b3480156103d257600080fd5b506103e66103e1366004614ea6565b610cfb565b005b3480156103f457600080fd5b506103e6610e45565b34801561040957600080fd5b5060408051808201909152601681527f4e7567672046756e6769626c6520546f6b656e2056310000000000000000000060208201525b6040516103bd9190614f3d565b34801561045857600080fd5b5061046c610467366004614f50565b610e51565b6040516001600160a01b0390911681526020016103bd565b6103e6610492366004614f69565b610e64565b6103e66104a5366004614ea6565b610f3d565b6103e66104b8366004614fa7565b6111be565b3480156104c957600080fd5b506103e66104d8366004614fee565b611422565b3480156104e957600080fd5b506104f26114a7565b6040519081526020016103bd565b6103e661038c36600461502c565b34801561051a57600080fd5b506103e6610529366004614ea6565b6114c0565b34801561053a57600080fd5b506105476402540be40081565b6040516bffffffffffffffffffffffff90911681526020016103bd565b34801561057057600080fd5b5061046c61057f366004614f50565b611535565b34801561059057600080fd5b506103e6611567565b6103e66105a7366004614ea6565b6115e1565b3480156105b857600080fd5b506105476105c7366004614ea6565b6117e9565b3480156105d857600080fd5b5061046c6105e7366004614f50565b6117ff565b3480156105f857600080fd5b506103e6610607366004614ea6565b61180d565b34801561061857600080fd5b506104f2610627366004614ea6565b50600090565b34801561063957600080fd5b5061064d610648366004614ea6565b6118b3565b6040516103bd96959493929190615100565b6103e661066d366004614ea6565b611ca3565b34801561067e57600080fd5b506103e661068d366004615183565b611d8d565b34801561069e57600080fd5b50600a5461046c906001600160a01b031681565b3480156106be57600080fd5b506103e66106cd366004614ea6565b611dd2565b3480156106de57600080fd5b506103e66106ed3660046151ce565b611f4d565b3480156106fe57600080fd5b5060065461046c906001600160a01b031681565b34801561071e57600080fd5b5060405162ffffff60457f0000000000000000000000000000000000000000000000000000000000000000430304610bb8011681526020016103bd565b34801561076757600080fd5b5061077061201a565b60405167ffffffffffffffff90911681526020016103bd565b34801561079557600080fd5b506103e66107a4366004614ea6565b612028565b3480156107b557600080fd5b506105476120ab565b3480156107ca57600080fd5b5060408051808201909152600681527f4e55474746540000000000000000000000000000000000000000000000000000602082015261043f565b34801561081057600080fd5b506103b161081f366004614ea6565b60036020526000908152604090205460ff1681565b34801561084057600080fd5b5061085461084f3660046151f3565b6120c1565b6040805193151584526bffffffffffffffffffffffff92831660208501529116908201526060016103bd565b34801561088c57600080fd5b506108a061089b366004615221565b6121db565b60405160ff90911681526020016103bd565b3480156108be57600080fd5b506108d26108cd366004614f50565b6121e9565b6040516103bd919061523e565b3480156108eb57600080fd5b506103e66108fa366004614fee565b61257c565b34801561090b57600080fd5b506103e661091a366004615489565b612606565b34801561092b57600080fd5b506104f27f000000000000000000000000000000000000000000000000000000000000000081565b34801561095f57600080fd5b506103e661096e3660046154e9565b612683565b6103e661038c366004615539565b34801561098d57600080fd5b506104f261099c366004614ea6565b6126f6565b3480156109ad57600080fd5b5060055461046c906001600160a01b031681565b6103e66109cf3660046151f3565b612772565b6103e66109e2366004614ea6565b612851565b3480156109f357600080fd5b506103e6610a023660046155d5565b6129ba565b348015610a1357600080fd5b5061043f610a22366004614f50565b612b50565b348015610a3357600080fd5b506103b1610a42366004614ea6565b6001600160a01b031660009081526003602052604090205460ff1690565b348015610a6c57600080fd5b50610a80610a7b366004614ea6565b612c88565b604080516bffffffffffffffffffffffff96871681529486166020860152929094169183019190915262ffffff1660608201526001600160a01b03909116608082015260a0016103bd565b348015610ad757600080fd5b506103e6610ae6366004615601565b612d8d565b348015610af757600080fd5b506103b1610b063660046151f3565b612e50565b348015610b1757600080fd5b50610547612e5c565b348015610b2c57600080fd5b50610547610b3b366004614ea6565b612e67565b348015610b4c57600080fd5b50610547612e7d565b348015610b6157600080fd5b50610547612e8b565b348015610b7657600080fd5b506103e6610b85366004615645565b612e98565b348015610b9657600080fd5b506103e6610ba5366004614fa7565b612f99565b348015610bb657600080fd5b506103e6610bc53660046156c0565b61315d565b60007fffffffff0000000000000000000000000000000000000000000000000000000082167fed52492a000000000000000000000000000000000000000000000000000000001480610c5d57507fffffffff0000000000000000000000000000000000000000000000000000000082167f80ac58cd00000000000000000000000000000000000000000000000000000000145b80610ca957507fffffffff0000000000000000000000000000000000000000000000000000000082167f5b5e139f00000000000000000000000000000000000000000000000000000000145b80610cf557507fffffffff0000000000000000000000000000000000000000000000000000000082167f01ffc9a700000000000000000000000000000000000000000000000000000000145b92915050565b33610d05826132a6565b6001600160a01b031614610d605760405162461bcd60e51b815260206004820152600360248201527f4c3a30000000000000000000000000000000000000000000000000000000000060448201526064015b60405180910390fd5b6000610d9f610bb860457f00000000000000000000000000000000000000000000000000000000000000004303040133610d98612e8b565b600061332a565b6001600160a01b0383166000908152600e602052604090208190559050610dc582613376565b633b9aca0060a082901c683fffffffffffffffff1602610df3336bffffffffffffffffffffffff8316613447565b6040516bffffffffffffffffffffffff821681526001600160a01b038416907f329014c0969cfe0727bc4e8b103aa6ee8cbcfa982e51a35292749c83a79c2b9e906020015b60405180910390a2505050565b610e4f3347613447565b565b6000610cf5610e5f836134a7565b6134c1565b33610e76610e71836134a7565b6132a6565b6001600160a01b031614610ecc5760405162461bcd60e51b815260206004820152600360248201527f5a3a3100000000000000000000000000000000000000000000000000000000006044820152606401610d57565b60008181526001602052604080822080547fffffffffffffffffffffffff0000000000000000000000000000000000000000166001600160a01b0386169081179091559051839233917f8c5be1e5ebec7d5bd14f71427d1e84f3dd0314c0f7b2291e5b200ac8c7c3b9259190a45050565b600080610f4a8333613537565b915091506000836001600160a01b0316826040015162ffffff16148015610f7057508151155b15611022576402540be400341015610fca5760405162461bcd60e51b815260206004820152600360248201527f533a3100000000000000000000000000000000000000000000000000000000006044820152606401610d57565b602082015115610fdc57610fdc6156fc565b610fe534613583565b9050610ffc8260400151836060015183600061332a565b8355611008600061359e565b611011846136d8565b61101d600030866137c6565b611166565b81516110705760405162461bcd60e51b815260206004820152600360248201527f533a3400000000000000000000000000000000000000000000000000000000006044820152606401610d57565b60208201511561113e57816040015162ffffff166110918360200151613815565b62ffffff1610156110e45760405162461bcd60e51b815260206004820152600360248201527f533a5200000000000000000000000000000000000000000000000000000000006044820152606401610d57565b602082015160ff1c6001141561113e5760405162461bcd60e51b8152600401610d579060208082526004908201527f4e4f504500000000000000000000000000000000000000000000000000000000604082015260600190565b815160ff1c600114611159576111548383613826565b611163565b6111638383613953565b90505b604080513381526bffffffffffffffffffffffff831660208201526001600160a01b038616917f972a7cf16c1aeec2ce89ff255260049c0c525f15b74116b8fe61993cda32f99a91015b60405180910390a250505050565b336111c8846132a6565b6001600160a01b03161461121e5760405162461bcd60e51b815260206004820152600360248201527f533a3600000000000000000000000000000000000000000000000000000000006044820152606401610d57565b60008061122c848487613b0b565b8051919350915061127f5760405162461bcd60e51b815260206004820152600360248201527f533a5300000000000000000000000000000000000000000000000000000000006044820152606401610d57565b60208101511561134d57806040015162ffffff166112a08260200151613815565b62ffffff1610156112f35760405162461bcd60e51b815260206004820152600360248201527f533a3700000000000000000000000000000000000000000000000000000000006044820152606401610d57565b602081015160ff1c6001141561134d5760405162461bcd60e51b8152600401610d579060208082526004908201527f4e4f504500000000000000000000000000000000000000000000000000000000604082015260600190565b6000816020015160001480156113675750815160ff1c6001145b61137a576113758383613826565b611384565b6113848383613953565b90506001600160a01b03851660a085901b75ffff00000000000000000000000000000000000000001617604080516001600160a01b03891681526bffffffffffffffffffffffff8416602082015275ffffffffffffffffffffffffffffffffffffffffffff92909216917f33060af8ae34fc0f32be3607dbc145e3272347f98ede9556ccb9374fd0ab43d891015b60405180910390a2505050505050565b61142a613b67565b6001600160a01b03821660008181526003602090815260409182902080547fffffffffffffffffffffffffffffffffffffffffffffffffffffffffffffff001685151590811790915591519182527fe95aec380cae16330d146d5499ef7db6f3657e477104a733e771bc09e500d986910160405180910390a25050565b60006114b161201a565b67ffffffffffffffff16905090565b6114c8613b67565b600a80547fffffffffffffffffffffffff0000000000000000000000000000000000000000166001600160a01b0383169081179091556040519081527fc97e86a927b4a897832650767255fd568e377e7fbe9586c81d26b77a2c3ffc8b906020015b60405180910390a150565b600060076000611544846134a7565b6001600160a01b0390811682526020820192909252604001600020541692915050565b61156f613b67565b600b5461158b33825b6bffffffffffffffffffffffff16613447565b7fffffffffffffffffffffffffffffffffffffffff000000000000000000000000811690507f227a473b70d2f893cc7659219575c030a63b5743024fe1e0c1a680e708b1525a8160405161152a91815260200190565b60008060008060006115f286612c88565b94509450945094509450611605866132a6565b6001600160a01b0316306001600160a01b031614611625576116256156fc565b6001600160a01b0386166000908152600e602052604081205533610bb860457f00000000000000000000000000000000000000000000000000000000000000004303040162ffffff168362ffffff16106116d2576116833383613bc6565b6116cf5760405162461bcd60e51b815260206004820152600360248201527f4c3a3100000000000000000000000000000000000000000000000000000000006044820152606401610d57565b50805b60006116dd34613583565b9050806bffffffffffffffffffffffff16876bffffffffffffffffffffffff16111561174b5760405162461bcd60e51b815260206004820152600360248201527f4c3a3200000000000000000000000000000000000000000000000000000000006044820152606401610d57565b6000611757888361575a565b905061176b6117668289615787565b613c13565b61178383876bffffffffffffffffffffffff16613447565b61178d838a613ce3565b604080516bffffffffffffffffffffffff841681523360208201526001600160a01b038b16917fd39832526202186065fc0dcdd28b38f6468549c094305337b697319814fae337910160405180910390a2505050505050505050565b60006117f482612c88565b509195945050505050565b6000610cf5610e71836134a7565b60008061181a8333613537565b336000908152600183016020526040812055909250905061183a81613d98565b15611852576000825561184d3384613ce3565b611878565b611878336115788360200151633b9aca0060a09190911c683fffffffffffffffff160290565b6040513381526001600160a01b038416907f938187ad30d2557f8eb68b094a2305a858ec4f65c86a957b4bc26d9c0a496fef90602001610e38565b600060608060608060606118c6876126f6565b95508561193e576118ef6118ea6118e5896001600160a01b0316613e84565b613ea7565b613eb2565b95508561193e5760405162461bcd60e51b815260206004820152600360248201527f503a4c00000000000000000000000000000000000000000000000000000000006044820152606401610d57565b604080516008808252610120820190925290602082016101008036833750506040805160088082526101208201909252929750905060208201610100803683375050604080516008808252610120820190925292965090506020820161010080368337019050506040805160088082526101208201909252919450816020015b60608152602001906001900390816119be57905050915085600316856000815181106119ec576119ec6157b7565b602002602001019060ff16908160ff168152505060005b60078160ff161015611bf3576000611a1b888361410d565b905061ffff8116611a2c5750611be1565b865160ff600883901c81169190831690899083908110611a4e57611a4e6157b7565b602002602001015160ff1660001415611bdd576001600160a01b038b16600090815260046020908152604080832061ffff871684529091529020548751600682901c90899060ff8616908110611aa657611aa66157b7565b60ff90921660209283029190910190910152603f8116898460ff1681518110611ad157611ad16157b7565b60ff9092166020928302919091018201526001600160a01b038d16600090815260048252604080822061ffff88168352600101909252208054611b13906157e6565b80601f0160208091040260200160405190810160405280929190818152602001828054611b3f906157e6565b8015611b8c5780601f10611b6157610100808354040283529160200191611b8c565b820191906000526020600020905b815481529060010190602001808311611b6f57829003601f168201915b5050505050878460ff1681518110611ba657611ba66157b7565b6020026020010181905250818a8460ff1681518110611bc757611bc76157b7565b602002602001019060ff16908160ff1681525050505b5050505b80611beb8161583a565b915050611a03565b506001600160a01b03871660009081526004602052604090206002018054611c1a906157e6565b80601f0160208091040260200160405190810160405280929190818152602001828054611c46906157e6565b8015611c935780601f10611c6857610100808354040283529160200191611c93565b820191906000526020600020905b815481529060010190602001808311611c7657829003601f168201915b5050505050905091939550919395565b611cb16101f461271061585a565b63ffffffff16816001600160a01b0316108015611cd857506101f46001600160a01b038216115b611d245760405162461bcd60e51b815260206004820152600360248201527f473a3100000000000000000000000000000000000000000000000000000000006044820152606401610d57565b611d2e600061359e565b611d378161413a565b611d413382614254565b604080516001600160a01b03831681526bffffffffffffffffffffffff341660208201527f7fa02ea2addb9a3ae24bb783f3817cbebd2aaa24af58c5eee6faf5b776797f95910161152a565b611d9733846142c7565b506000611da3846126f6565b9050611db081848461432a565b6001600160a01b03909416600090815260096020526040902093909355505050565b600a546001600160a01b0316611e2a5760405162461bcd60e51b815260206004820152600360248201527f543a3400000000000000000000000000000000000000000000000000000000006044820152606401610d57565b6000611e35826126f6565b90506000611e4283614362565b600a546040517f80011aa70000000000000000000000000000000000000000000000000000000081526001600160a01b038681166004830152602482018690523360448301529293509116906380011aa7906bffffffffffffffffffffffff8416906064016000604051808303818588803b158015611ec057600080fd5b505af1158015611ed4573d6000803e3d6000fd5b5050600a54604080516001600160a01b039283168152918816602083015281018690523360608201526bffffffffffffffffffffffff851660808201527f58ca548c1fd63f641dfb02f79df36d4f29bd995f0733d2ed3595b6cfde7db4e1935060a0019150611f409050565b60405180910390a1505050565b611f5f33611f5a846134a7565b61452b565b611fab5760405162461bcd60e51b815260206004820152600360248201527f463a3500000000000000000000000000000000000000000000000000000000006044820152606401610d57565b60008281526007602052604080822080547fffffffffffffffffffffffff0000000000000000000000000000000000000000166001600160a01b0385161790555183917fb0f631a5014e4a5b1bb62ae2778ae0ce4d19ae55fbdb59b1d39f58f39190fe6091a25050565b905090565b6000612015600b5460c01c90565b600061203382614362565b905061204d33826bffffffffffffffffffffffff16613447565b604080516001600160a01b03841681523360208201526bffffffffffffffffffffffff8316918101919091527f6866bab9e57b1b8d6e867bb41dc78ec6f8fcbdca05d8f065e3353df689741ff2906060015b60405180910390a15050565b60006120b8600b5461453f565b50919392505050565b6001600080806120d18587613537565b80519092501515905061212057846001600160a01b0316816040015162ffffff16141561210f576121086121036120ab565b6145a6565b92506121a6565b6000806000935093509350506121d4565b602081015160ff1c600114801561213b5750805160ff1c6001145b1561214557600093505b6020810151815160a090811c683fffffffffffffffff908116633b9aca0090810296509290911c16029150612178612e8b565b6bffffffffffffffffffffffff16836bffffffffffffffffffffffff1610156121a6576121a3612e8b565b92505b6bffffffffffffffffffffffff83166121c6576402540be40092506121d2565b6121cf836145e0565b92505b505b9250925092565b6000610cf5600854836145f9565b6122486040518061014001604052806060815260200160608152602001606081526020016000815260200160006001600160a01b0316815260200160008152602001606081526020016060815260200160608152602001606081525090565b612254610648836134a7565b61010087015260e08601526040850152602084015282525060086040519080825280602002602001820160405280156122a157816020015b606081526020019060019003908161228c5790505b5060c082019081526001606083015260a0820183905230608083015260408051808201909152600481527f4241534500000000000000000000000000000000000000000000000000000000602082015290518051600090612304576123046157b7565b60200260200101819052506040518060400160405280600481526020017f45594553000000000000000000000000000000000000000000000000000000008152508160c0015160018151811061235c5761235c6157b7565b60200260200101819052506040518060400160405280600581526020017f4d4f5554480000000000000000000000000000000000000000000000000000008152508160c001516002815181106123b4576123b46157b7565b60200260200101819052506040518060400160405280600481526020017f48414952000000000000000000000000000000000000000000000000000000008152508160c0015160038151811061240c5761240c6157b7565b60200260200101819052506040518060400160405280600381526020017f48415400000000000000000000000000000000000000000000000000000000008152508160c00151600481518110612464576124646157b7565b60200260200101819052506040518060400160405280600481526020017f4241434b000000000000000000000000000000000000000000000000000000008152508160c001516005815181106124bc576124bc6157b7565b60200260200101819052506040518060400160405280600481526020017f4e45434b000000000000000000000000000000000000000000000000000000008152508160c00151600681518110612514576125146157b7565b60200260200101819052506040518060400160405280600481526020017f484f4c44000000000000000000000000000000000000000000000000000000008152508160c0015160078151811061256c5761256c6157b7565b6020026020010181905250919050565b3360008181526002602090815260408083206001600160a01b0387168085529083529281902080547fffffffffffffffffffffffffffffffffffffffffffffffffffffffffffffff001686151590811790915590519081529192917f17307eab39ab6107e8899845ad3d59bd9653f200f220920489ca2b5937696c31910160405180910390a35050565b61261033846142c7565b506001600160a01b038316600090815260046020908152604080832061ffff861684526001018252909120825161264992840190614dbf565b506040516001600160a01b038416907fb0f631a5014e4a5b1bb62ae2778ae0ce4d19ae55fbdb59b1d39f58f39190fe6090600090a2505050565b61268d33836142c7565b506001600160a01b038216600090815260046020908152604090912082516126bd92600290920191840190614dbf565b506040516001600160a01b038316907fb0f631a5014e4a5b1bb62ae2778ae0ce4d19ae55fbdb59b1d39f58f39190fe6090600090a25050565b6001600160a01b0381166000908152600960205260408120541561273057506001600160a01b031660009081526009602052604090205490565b600080600061273d61460b565b925092509250846001600160a01b03168214801561275a57508215155b1561276757949350505050565b506000949350505050565b61277a613b67565b6101f46001600160a01b03831610801561279c57506001600160a01b03821615155b6127e85760405162461bcd60e51b815260206004820152600360248201527f473a3100000000000000000000000000000000000000000000000000000000006044820152606401610d57565b6127f2600061359e565b6127fb8261413a565b6128058183614254565b604080516001600160a01b03841681526bffffffffffffffffffffffff341660208201527f7fa02ea2addb9a3ae24bb783f3817cbebd2aaa24af58c5eee6faf5b776797f95910161209f565b600080600061285f84612c88565b9450509350935050612870846132a6565b6001600160a01b0316306001600160a01b031614612890576128906156fc565b34836bffffffffffffffffffffffff1611156128ee5760405162461bcd60e51b815260206004820152600360248201527f4c3a3300000000000000000000000000000000000000000000000000000000006044820152606401610d57565b60006128f934613583565b905061290481613c13565b600061293c610bb860457f00000000000000000000000000000000000000000000000000000000000000004303040184610d98612e8b565b6001600160a01b0387166000908152600e602052604090208190559050612971836bffffffffffffffffffffffff8616613447565b6040516bffffffffffffffffffffffff831681526001600160a01b038716907f5062495abf7ea897bb9561849f52ada09e05b75474d32015ee99c964570e7ffa90602001611412565b336129c4836132a6565b6001600160a01b031614612a1a5760405162461bcd60e51b815260206004820152600360248201527f533a4100000000000000000000000000000000000000000000000000000000006044820152606401610d57565b612a22612e8b565b6bffffffffffffffffffffffff16816bffffffffffffffffffffffff161015612a8d5760405162461bcd60e51b815260206004820152600360248201527f533a4200000000000000000000000000000000000000000000000000000000006044820152606401610d57565b612a9682613376565b600080612aa38433613537565b8051919350915015612af75760405162461bcd60e51b815260206004820152600560248201527f4e4f5045320000000000000000000000000000000000000000000000000000006044820152606401610d57565b612b0560003385600161332a565b82556040516bffffffffffffffffffffffff841681526001600160a01b038516907fbddcaaa7eee060454ed44e36de17b53f71b5de19112296cfce9d61c8a4de8783906020016111b0565b60606000612b5d836134a7565b6006549091506001600160a01b039081169063448e347f9030908690612b84908616611535565b60408051808201909152600681527f4e55474746540000000000000000000000000000000000000000000000000000602082015260408051808201909152601681527f4e7567672046756e6769626c6520546f6b656e20563100000000000000000000602082015260016040518763ffffffff1660e01b8152600401612c0f96959493929190615879565b60006040518083038186803b158015612c2757600080fd5b505afa158015612c3b573d6000803e3d6000fd5b505050506040513d6000823e601f3d9081017fffffffffffffffffffffffffffffffffffffffffffffffffffffffffffffffe0168201604052612c8191908101906158e0565b9392505050565b6001600160a01b0381166000908152600e60205260408120548190819081908190612cb281614632565b91506001600160a01b038216612d0a5760405162461bcd60e51b815260206004820152600360248201527f4c3a3400000000000000000000000000000000000000000000000000000000006044820152606401610d57565b633b9aca0060a082901c683fffffffffffffffff16026000612d2a612e8b565b612710606484020497509050612d408783615787565b9750806bffffffffffffffffffffffff16886bffffffffffffffffffffffff161015612d6e57878103612d71565b60005b95506045612d7e84613815565b01945050505091939590929450565b604082108015612d9d5750604081105b612de95760405162461bcd60e51b815260206004820152600b60248201527f554e544545535445443a310000000000000000000000000000000000000000006044820152606401610d57565b612df333856142c7565b506001600160a01b038416600081815260046020908152604080832061ffff88168452909152808220600685901b86179055517fb0f631a5014e4a5b1bb62ae2778ae0ce4d19ae55fbdb59b1d39f58f39190fe609190a250505050565b6000612c818284613bc6565b6000612015600b5490565b6000612e7282612c88565b509295945050505050565b6000612015600b5460601c90565b6000612015600b54614643565b612ea0613b67565b6005546040517f11c16aa30000000000000000000000000000000000000000000000000000000081526000916001600160a01b0316906311c16aa390612eee9085908890889060040161599d565b602060405180830381600087803b158015612f0857600080fd5b505af1158015612f1c573d6000803e3d6000fd5b505050506040513d601f19601f82011682018060405250810190612f409190615a86565b600854909150600082612f5383866145f9565b612f5d9190615aa3565b60ff169050612f8e826008612f728782615ac8565b84811b600190921b6000190160ff919091161b19919091161790565b600855505050505050565b33612fa3846132a6565b6001600160a01b031614612ff95760405162461bcd60e51b815260206004820152600360248201527f533a3900000000000000000000000000000000000000000000000000000000006044820152606401610d57565b600080613007848487613b0b565b6001600160a01b0387166000908152600183016020526040812055909250905061303081613d98565b156130ca57600080835561ffff84168152600c60205260409020546130975760405162461bcd60e51b815260206004820152600360248201527f503a3300000000000000000000000000000000000000000000000000000000006044820152606401610d57565b6130a18584614686565b61ffff83166000908152600c602052604081208054916130c083615af1565b91905055506130f7565b6130f76130d6866132a6565b6020830151683fffffffffffffffff60a09190911c16633b9aca0002611578565b6040516001600160a01b038681168252851660a085901b75ffff00000000000000000000000000000000000000001617907f7a0576b9edc37a53c7e05ae220b6a871cf584ae6724a63f704609baec1e72853906020015b60405180910390a25050505050565b33613167846132a6565b6001600160a01b0316146131bd5760405162461bcd60e51b815260206004820152600360248201527f533a4300000000000000000000000000000000000000000000000000000000006044820152606401610d57565b6131c783836146b7565b61ffff82166000908152600c602052604081208054916131e683615b08565b91905055506000806131f9858587613b0b565b805191935091501561324d5760405162461bcd60e51b815260206004820152600360248201527f533a4400000000000000000000000000000000000000000000000000000000006044820152606401610d57565b61325b60008685600161332a565b82556040516bffffffffffffffffffffffff841681526001600160a01b038616907fbddcaaa7eee060454ed44e36de17b53f71b5de19112296cfce9d61c8a4de87839060200161314e565b60006132b1826146e8565b6132fd5760405162461bcd60e51b815260206004820152600560248201527f543a393a320000000000000000000000000000000000000000000000000000006044820152606401610d57565b506001600160a01b038082166000908152602081905260409020541680613325575030919050565b919050565b600061333681866146fb565b9050613342818561474d565b9050811561335857613355816001614782565b90505b61336281846147b9565b905061336d81614812565b95945050505050565b613380338261452b565b801561339c575030613391826134c1565b6001600160a01b0316145b6133e85760405162461bcd60e51b815260206004820152600360248201527f4e3a3100000000000000000000000000000000000000000000000000000000006044820152606401610d57565b6001600160a01b03811660009081526020818152604080832080547fffffffffffffffffffffffff00000000000000000000000000000000000000009081169091556001909252909120805490911690556134443330836137c6565b50565b600080600080600085875af19050806134a25760405162461bcd60e51b815260206004820152600360248201527f5a3a3000000000000000000000000000000000000000000000000000000000006044820152606401610d57565b505050565b60006001600160a01b038211156134bd57600080fd5b5090565b60006134cc826146e8565b6135185760405162461bcd60e51b815260206004820152600560248201527f543a393a310000000000000000000000000000000000000000000000000000006044820152606401610d57565b506001600160a01b039081166000908152600160205260409020541690565b6040805160808101825260008082526020808301829052828401829052606083018290526001600160a01b0386168252600d9052919091209061357a828461485e565b90509250929050565b60006bffffffffffffffffffffffff8211156134bd57600080fd5b6000816135aa34613583565b6135b4919061575a565b600b549091506000806135c68361453f565b509250509150816bffffffffffffffffffffffff16846bffffffffffffffffffffffff1610156136385760405162461bcd60e51b815260206004820152600360248201527f543a3100000000000000000000000000000000000000000000000000000000006044820152606401610d57565b6000613644838661575a565b90506136666127106bffffffffffffffffffffffff83166103e8020483615787565b9150613673846001614912565b9350613689613682838761575a565b8590614972565b935061369584836149d2565b600b8190556040518181529094507f227a473b70d2f893cc7659219575c030a63b5743024fe1e0c1a680e708b1525a9060200160405180910390a1505050505050565b6001600160a01b0381166000908152600960205260409020541561373e5760405162461bcd60e51b815260206004820152600360248201527f503a3600000000000000000000000000000000000000000000000000000000006044820152606401610d57565b60008061374961460b565b9250925050826001600160a01b031682146137a65760405162461bcd60e51b815260206004820152600360248201527f503a3700000000000000000000000000000000000000000000000000000000006044820152606401610d57565b6001600160a01b0390921660009081526009602052604090209190915550565b806001600160a01b0316826001600160a01b0316846001600160a01b03167fddf252ad1be2c89b69c2b068fc378daa952ba7f163c4a11628f55a4df523b3ef60405160405180910390a4505050565b600062ffffff60e683901c16610cf5565b60006138358260000151613815565b62ffffff16826040015162ffffff1611156138925760405162461bcd60e51b815260206004820152600360248201527f533a4600000000000000000000000000000000000000000000000000000000006044820152606401610d57565b81606001516001600160a01b03166138ad8360000151614632565b6001600160a01b0316146138e75781516001840160006138cc83614632565b6001600160a01b031681526020810191909152604001600020555b81516000908190613921906138fb81613815565b60608701516020880151683fffffffffffffffff60a09190911c16633b9aca0002614a18565b8187559092509050683fffffffffffffffff60a083901c16633b9aca00025b925061394b81613c13565b505092915050565b600061395d612e8b565b6bffffffffffffffffffffffff163410156139ba5760405162461bcd60e51b815260206004820152600360248201527f533a3500000000000000000000000000000000000000000000000000000000006044820152606401610d57565b60208201511580156139cc5750815115155b613a185760405162461bcd60e51b815260206004820152600560248201527f4e4f5045330000000000000000000000000000000000000000000000000000006044820152606401610d57565b815160ff1c600114613a6c5760405162461bcd60e51b815260206004820152600560248201527f4e4f5045340000000000000000000000000000000000000000000000000000006044820152606401610d57565b600080613a94846000015185604001516001613a889190615b23565b86606001516000614a18565b81875560408601519193509150613ac390613ab0906001615b23565b8551613abd906000614782565b906146fb565b856001016000613ad68760000151614632565b6001600160a01b03168152602081019190915260400160002055683fffffffffffffffff60a083901c16633b9aca0002613940565b6040805160808101825260008082526020808301829052828401829052606083018290526001600160a01b0387168252600d815283822061ffff8716835260020190529190912090613b5d828461485e565b9050935093915050565b3360009081526003602052604090205460ff16610e4f5760405162461bcd60e51b815260206004820152600960248201527f554e5452555354454400000000000000000000000000000000000000000000006044820152606401610d57565b6000826001600160a01b0316826001600160a01b03161480612c815750506001600160a01b0390811660009081526002602090815260408083209490931682529290925290205460ff1690565b806bffffffffffffffffffffffff16341015613c715760405162461bcd60e51b815260206004820152600360248201527f543a3200000000000000000000000000000000000000000000000000000000006044820152606401610d57565b600b546127106bffffffffffffffffffffffff83166103e80204613c9f613c98828561575a565b8390614972565b9150613cab82826149d2565b600b8190556040518181529092507f227a473b70d2f893cc7659219575c030a63b5743024fe1e0c1a680e708b1525a90602001611f40565b30613ced826132a6565b6001600160a01b031614613d435760405162461bcd60e51b815260206004820152600360248201527f4e3a3000000000000000000000000000000000000000000000000000000000006044820152606401610d57565b6001600160a01b03818116600090815260208190526040902080547fffffffffffffffffffffffff000000000000000000000000000000000000000016918416919091179055613d943083836137c6565b5050565b6000816020015160001415613def5760405162461bcd60e51b815260206004820152600360248201527f533a4500000000000000000000000000000000000000000000000000000000006044820152606401610d57565b6000613dfe8360000151613815565b62ffffff16836040015162ffffff161190506000613e1f8460000151614632565b6001600160a01b0316613e358560200151614632565b6001600160a01b03161490506000613e578560000151600160ff9190911c1490565b8015613e6a5750602085015160ff1c6001145b905081801561336d5750808061336d575091949350505050565b6000610fff821115613e9557600080fd5b508062ffffff8111156134bd57600080fd5b6000610cf582614adf565b600081613f015760405162461bcd60e51b815260206004820152600360248201527f503a3800000000000000000000000000000000000000000000000000000000006044820152606401610d57565b600854613f1b60ff8416613f168360006145f9565b614c0e565b613f26906001615b41565b821791506003613f378260016145f9565b613f429060ff615b59565b60089490941c93613f5990851660ff166001615b41565b61010017901b82179150600e613f708260026145f9565b613f7b9060ff615b59565b60089490941c93613f9290851660ff166001615b41565b60089490941c9361020017901b919091179060ff831660808110613fb7576004613fba565b60035b60ff1690506019613fd9600886901c95508560ff16613f1685856145f9565b613fe4906001615b41565b600895861c9583901b17901b929092179160ff8416601e8110614026576037811061401f57604b8110614018576000614029565b6007614029565b6006614029565b60055b60ff169050801561406657602461404e600887901c96508660ff16613f1686856145f9565b614059906001615b41565b600883901b17901b841793505b60089490941c9360ff8516601e81106140cb57603781106140c457604b81106140bd57607381106140b657609b81106140af5760cd81106140a85760016140ce565b60026140ce565b60036140ce565b60046140ce565b60076140ce565b60066140ce565b60055b60ff16905060506140ed600888901c97508760ff16613f1687856145f9565b6140f8906001615b41565b600883901b17901b8517945050505050919050565b6000612c8183600b61411f8582615ac8565b61412a906003615aa3565b600190911b6000190191901c1690565b6001600160a01b038116600090815260096020526040902054156141a05760405162461bcd60e51b815260206004820152600360248201527f503a3500000000000000000000000000000000000000000000000000000000006044820152606401610d57565b6000816141ae600143615ba2565b6040517f4206900000000000000000000000000000000000000000000000000000000000602082015260609290921b7fffffffffffffffffffffffffffffffffffffffff0000000000000000000000001660238301524060378201526057016040516020818303038152906040528051906020012060001c9050600061423382613eb2565b6001600160a01b039093166000908152600960205260409020929092555050565b6001600160a01b0381811660008181526020819052604080822080547fffffffffffffffffffffffff0000000000000000000000000000000000000000169487169485179055519192917fddf252ad1be2c89b69c2b068fc378daa952ba7f163c4a11628f55a4df523b3ef908290a45050565b60006142d2826132a6565b90506142de8382613bc6565b610cf55760405162461bcd60e51b815260206004820152600360248201527f503a4200000000000000000000000000000000000000000000000000000000006044820152606401610d57565b600080614337858561410d565b61ffff169050614355858561434c888761410d565b61ffff16614c7e565b915061336d858483614c7e565b60008061436e836132a6565b90503061437a846134c1565b6001600160a01b031614801561439857506001600160a01b03811633145b6143e45760405162461bcd60e51b815260206004820152600360248201527f543a3300000000000000000000000000000000000000000000000000000000006044820152606401610d57565b600b546001600160a01b03841660009081526020818152604080832080547fffffffffffffffffffffffff000000000000000000000000000000000000000090811690915560018352818420805482169055600d8352818420849055600e835281842084905560098352818420849055600790925282208054909116905561446e908390866137c6565b61447781614643565b925060016144858260c01c90565b67ffffffffffffffff16101561449d5761449d6156fc565b826bffffffffffffffffffffffff166144b68260601c90565b6bffffffffffffffffffffffff1610156144d2576144d26156fc565b6144dd816001614cbf565b90506144e98184614cd6565b600b8190556040518181529091507f227a473b70d2f893cc7659219575c030a63b5743024fe1e0c1a680e708b1525a9060200160405180910390a15050919050565b6000612c818361453a846132a6565b613bc6565b60008060008061454e85614643565b92506127106103e86bffffffffffffffffffffffff8516020491506145738560c01c90565b61271067ffffffffffffffff919091168402049050806145938385615787565b61459d9190615787565b93509193509193565b633b9aca0081066bffffffffffffffffffffffff8116156145d257506001633b9aca0091829004010290565b633b9aca0080830402610cf5565b60006145ee826127d8615bb9565b612710900492915050565b6000612c8183600861412a8582615ac8565b6000806000614618614ced565b90935062ffffff16915061462b83613eb2565b9050909192565b60006001600160a01b038216610cf5565b600061464f8260c01c90565b67ffffffffffffffff1690508061466857506000919050565b6146728260601c90565b6bffffffffffffffffffffffff1604919050565b61469033836142c7565b50600061469c836126f6565b9050614233816146ad836000614d28565b8461ffff16614c7e565b6146c133836142c7565b5060006146cd836126f6565b9050614233816146e1838561ffff16614d28565b6000614c7e565b60006146f3826126f6565b151592915050565b60007fc000003fffffffffffffffffffffffffffffffffffffffffffffffffffffffff83167f3fffffc00000000000000000000000000000000000000000000000000000000060e684901b1617612c81565b60007fffffffffffffffffffffffff000000000000000000000000000000000000000083166001600160a01b03831617612c81565b6000612c8183600160ff8561479857600061479b565b60015b60ff16811b600190921b6000190160ff919091161b19919091161790565b633b9aca00900460007fffffffc00000000000000000ffffffffffffffffffffffffffffffffffffffff83167fffffffffffffffffffffffff000000000000000000000000000000000000000060a084901b1617612c81565b60007fbfffffffffffffffffffffffffffffffffffffffffffffffffffffffffffffff82167f400000000000000000000000000000000000000000000000000000000000000017610cf5565b6040805160808101825260006020820152835480825262ffffff60457f0000000000000000000000000000000000000000000000000000000000000000430304610bb80116928201929092526001600160a01b0383166060820152906148c381614632565b6001600160a01b0316836001600160a01b031614156148e8576020820181905261490b565b6001600160a01b0383166000908152600185016020908152604090912054908301525b5092915050565b600061491e8360c01c90565b6149289083615bed565b915077ffffffffffffffffffffffffffffffffffffffffffffffff831660c083901b7fffffffffffffffff0000000000000000000000000000000000000000000000001617612c81565b600061497e8360601c90565b6149889083615787565b91507fffffffffffffffff000000000000000000000000ffffffffffffffffffffffff8316606083901b77ffffffffffffffffffffffff0000000000000000000000001617612c81565b60006149de8383615787565b91506bffffffffffffffffffffffff82167fffffffffffffffffffffffffffffffffffffffff000000000000000000000000841617612c81565b600080633b9aca0060a087901c683fffffffffffffffff1602614a3a34613583565b614a449085615787565b9350836bffffffffffffffffffffffff16614a5e826145e0565b6bffffffffffffffffffffffff161115614aba5760405162461bcd60e51b815260206004820152600360248201527f533a4700000000000000000000000000000000000000000000000000000000006044820152606401610d57565b614ac7868686600061332a565b9250614ad3818561575a565b91505094509492505050565b60007f00000000000000000000000000000000000000000000000000000000000000007ffffffffffffffffffffffffffffffffffffffffffffffffffffffffffffff44883016045020181614b3c614b38600284615ba2565b4090565b905080614b8b5760405162461bcd60e51b815260206004820152600360248201527f453a3000000000000000000000000000000000000000000000000000000000006044820152606401610d57565b6040805160208082019390935260e89590951b7fffffff000000000000000000000000000000000000000000000000000000000016858201523060601b7fffffffffffffffffffffffffffffffffffffffff0000000000000000000000001660438601528051603781870301815260579095019052835193019290922092915050565b600060ff8216614c605760405162461bcd60e51b815260206004820152600360248201527f503a3900000000000000000000000000000000000000000000000000000000006044820152606401610d57565b81614c6a84614daf565b614c749190615b59565b60ff169392505050565b6000614cb784600b614c908682615ac8565b614c9b906003615aa3565b85811b600190921b6000190160ff919091161b19919091161790565b949350505050565b600081614ccc8460c01c90565b6149289190615c10565b600081614ce38460601c90565b614988919061575a565b600060457f0000000000000000000000000000000000000000000000000000000000000000430304610bb801614d2281614adf565b91509091565b6000600383901c92505b8183600b161415614d4257610cf5565b80614d4c8161583a565b600b9490941c9391505082614d32578060ff1660161415610cf55760405162461bcd60e51b815260206004820152600860248201527f554e5445535445440000000000000000000000000000000000000000000000006044820152606401610d57565b600060ff8211156134bd57600080fd5b828054614dcb906157e6565b90600052602060002090601f016020900481019282614ded5760008555614e33565b82601f10614e0657805160ff1916838001178555614e33565b82800160010185558215614e33579182015b82811115614e33578251825591602001919060010190614e18565b506134bd9291505b808211156134bd5760008155600101614e3b565b600060208284031215614e6157600080fd5b81357fffffffff0000000000000000000000000000000000000000000000000000000081168114612c8157600080fd5b6001600160a01b038116811461344457600080fd5b600060208284031215614eb857600080fd5b8135612c8181614e91565b60005b83811015614ede578181015183820152602001614ec6565b83811115614eed576000848401525b50505050565b60008151808452614f0b816020860160208601614ec3565b601f017fffffffffffffffffffffffffffffffffffffffffffffffffffffffffffffffe0169290920160200192915050565b602081526000612c816020830184614ef3565b600060208284031215614f6257600080fd5b5035919050565b60008060408385031215614f7c57600080fd5b8235614f8781614e91565b946020939093013593505050565b803561ffff8116811461332557600080fd5b600080600060608486031215614fbc57600080fd5b8335614fc781614e91565b92506020840135614fd781614e91565b9150614fe560408501614f95565b90509250925092565b6000806040838503121561500157600080fd5b823561500c81614e91565b91506020830135801515811461502157600080fd5b809150509250929050565b60008060006060848603121561504157600080fd5b833561504c81614e91565b9250602084013561505c81614e91565b929592945050506040919091013590565b600081518084526020808501945080840160005b838110156150a057815160ff1687529582019590820190600101615081565b509495945050505050565b600081518084526020808501808196508360051b8101915082860160005b858110156150f35782840389526150e1848351614ef3565b988501989350908401906001016150c9565b5091979650505050505050565b86815260c06020820152600061511960c083018861506d565b828103604084015261512b818861506d565b9050828103606084015261513f818761506d565b9050828103608084015261515381866150ab565b905082810360a08401526151678185614ef3565b9998505050505050505050565b60ff8116811461344457600080fd5b60008060006060848603121561519857600080fd5b83356151a381614e91565b925060208401356151b381615174565b915060408401356151c381615174565b809150509250925092565b600080604083850312156151e157600080fd5b82359150602083013561502181614e91565b6000806040838503121561520657600080fd5b823561521181614e91565b9150602083013561502181614e91565b60006020828403121561523357600080fd5b8135612c8181615174565b602081526000825161014080602085015261525d61016085018361506d565b915060208501517fffffffffffffffffffffffffffffffffffffffffffffffffffffffffffffffe080868503016040870152615299848361506d565b935060408701519150808685030160608701526152b6848361506d565b935060608701516080870152608087015191506152de60a08701836001600160a01b03169052565b60a087015160c087015260c08701519150808685030160e087015261530384836150ab565b935060e0870151915061010081878603018188015261532285846150ab565b9450808801519250506101208187860301818801526153418584614ef3565b90880151878203909201848801529350905061535d8382614ef3565b9695505050505050565b7f4e487b7100000000000000000000000000000000000000000000000000000000600052604160045260246000fd5b604051601f82017fffffffffffffffffffffffffffffffffffffffffffffffffffffffffffffffe016810167ffffffffffffffff811182821017156153dd576153dd615367565b604052919050565b600067ffffffffffffffff8211156153ff576153ff615367565b50601f017fffffffffffffffffffffffffffffffffffffffffffffffffffffffffffffffe01660200190565b600061543e615439846153e5565b615396565b905082815283838301111561545257600080fd5b828260208301376000602084830101529392505050565b600082601f83011261547a57600080fd5b612c818383356020850161542b565b60008060006060848603121561549e57600080fd5b83356154a981614e91565b92506154b760208501614f95565b9150604084013567ffffffffffffffff8111156154d357600080fd5b6154df86828701615469565b9150509250925092565b600080604083850312156154fc57600080fd5b823561550781614e91565b9150602083013567ffffffffffffffff81111561552357600080fd5b61552f85828601615469565b9150509250929050565b6000806000806080858703121561554f57600080fd5b843561555a81614e91565b9350602085013561556a81614e91565b925060408501359150606085013567ffffffffffffffff81111561558d57600080fd5b8501601f8101871361559e57600080fd5b6155ad8782356020840161542b565b91505092959194509250565b80356bffffffffffffffffffffffff8116811461332557600080fd5b600080604083850312156155e857600080fd5b82356155f381614e91565b915061357a602084016155b9565b6000806000806080858703121561561757600080fd5b843561562281614e91565b935061563060208601614f95565b93969395505050506040820135916060013590565b60008060006040848603121561565a57600080fd5b833567ffffffffffffffff8082111561567257600080fd5b818601915086601f83011261568657600080fd5b81358181111561569557600080fd5b8760208260051b85010111156156aa57600080fd5b602092830195509350508401356151c381615174565b6000806000606084860312156156d557600080fd5b83356156e081614e91565b92506156ee60208501614f95565b9150614fe5604085016155b9565b7f4e487b7100000000000000000000000000000000000000000000000000000000600052600160045260246000fd5b7f4e487b7100000000000000000000000000000000000000000000000000000000600052601160045260246000fd5b60006bffffffffffffffffffffffff8381169083168181101561577f5761577f61572b565b039392505050565b60006bffffffffffffffffffffffff8083168185168083038211156157ae576157ae61572b565b01949350505050565b7f4e487b7100000000000000000000000000000000000000000000000000000000600052603260045260246000fd5b600181811c908216806157fa57607f821691505b60208210811415615834577f4e487b7100000000000000000000000000000000000000000000000000000000600052602260045260246000fd5b50919050565b600060ff821660ff8114156158515761585161572b565b60010192915050565b600063ffffffff8083168185168083038211156157ae576157ae61572b565b60006001600160a01b03808916835287602084015280871660408401525060e060608301526158ab60e0830186614ef3565b82810360808401526158bd8186614ef3565b93151560a0840152505080820360c0909101526000815260200195945050505050565b6000602082840312156158f257600080fd5b815167ffffffffffffffff81111561590957600080fd5b8201601f8101841361591a57600080fd5b8051615928615439826153e5565b81815285602083850101111561593d57600080fd5b61336d826020830160208601614ec3565b81835260007f07ffffffffffffffffffffffffffffffffffffffffffffffffffffffffffffff83111561598057600080fd5b8260051b8083602087013760009401602001938452509192915050565b60006040820160ff8616835260206040818501528185835260608501905060059250606086841b8601018760005b88811015615a77577fffffffffffffffffffffffffffffffffffffffffffffffffffffffffffffffa088840301845281357fffffffffffffffffffffffffffffffffffffffffffffffffffffffffffffffe18b3603018112615a2c57600080fd5b8a01803567ffffffffffffffff811115615a4557600080fd5b80881b36038c1315615a5657600080fd5b615a63858289850161594e565b9587019594505050908401906001016159cb565b50909998505050505050505050565b600060208284031215615a9857600080fd5b8151612c8181615174565b600060ff821660ff84168060ff03821115615ac057615ac061572b565b019392505050565b600060ff821660ff84168160ff0481118215151615615ae957615ae961572b565b029392505050565b600081615b0057615b0061572b565b506000190190565b6000600019821415615b1c57615b1c61572b565b5060010190565b600062ffffff8083168185168083038211156157ae576157ae61572b565b60008219821115615b5457615b5461572b565b500190565b600060ff831680615b93577f4e487b7100000000000000000000000000000000000000000000000000000000600052601260045260246000fd5b8060ff84160691505092915050565b600082821015615bb457615bb461572b565b500390565b60006bffffffffffffffffffffffff80831681851681830481118215151615615be457615be461572b565b02949350505050565b600067ffffffffffffffff8083168185168083038211156157ae576157ae61572b565b600067ffffffffffffffff8381169083168181101561577f5761577f61572b56fea26469706673582212200143c218634ca63b9448dedfcf37b03c418d59111302fba50e69234d837990dc64736f6c63430008090033",
  "devdoc": {
    "kind": "dev",
    "methods": {
      "approve(address,uint256)": {
        "details": "The zero address indicates there is no approved address.  Throws unless `msg.sender` is the current NFT owner, or an authorized  operator of the current owner.",
        "params": {
          "_approved": "The new approved NFT controller",
          "_tokenId": "The NFT to approve"
        }
      },
      "burn(uint160)": {
        "details": "should only be called directly",
        "params": {
          "tokenId": "the id of the nugg being burned"
        }
      },
      "ethPerShare()": {
        "details": "this value not always equivilent to the \"floor\" price which can consist of perceived value. can be looked at as an \"intrinsic floor\"this is the value that users will receive when their either burn or loan out nuggs",
        "returns": {
          "res": "-> [current staked eth] / [current staked shares]"
        }
      },
      "extractProtocolEth()": {
        "details": "caller must be a trusted user"
      },
      "getApproved(uint256)": {
        "details": "Throws if `_tokenId` is not a valid NFT.",
        "params": {
          "_tokenId": "The NFT to find the approved address for"
        },
        "returns": {
          "_0": "The approved address for this NFT, or the zero address if there is none"
        }
      },
      "isApprovedForAll(address,address)": {
        "params": {
          "_operator": "The address that acts on behalf of the owner",
          "_owner": "The address that owns the NFTs"
        },
        "returns": {
          "_0": "True if `_operator` is an approved operator for `_owner`, false otherwise"
        }
      },
      "loanInfo(uint160)": {
        "details": "contract ->frontend -> used to set the amount of eth for user",
        "params": {
          "tokenId": "the token who's current loan to check"
        },
        "returns": {
          "earned": "-> the amount of eth the minSharePrice has increased since loan was last rebalanced",
          "epochDue": "-> the final epoch a user is safe from liquidation (inclusive)",
          "loaner": "-> the user responsable for the loan",
          "toLiquidate": "->  the current amount loaned out, plus the final rebalance fee",
          "toRebalance": "->  the fee a user must pay to rebalance (and extend) the loan on their nugg"
        }
      },
      "minSharePrice()": {
        "details": "premium here is used to push against dillution of supply through ensuring the price always increasesused by the front end",
        "returns": {
          "res": "-> premium + protcolFee + ethPerShare"
        }
      },
      "ownerOf(uint256)": {
        "details": "NFTs assigned to zero address are considered invalid, and queries  about them do throw.",
        "params": {
          "_tokenId": "The identifier for an NFT"
        },
        "returns": {
          "_0": "The address of the owner of the NFT"
        }
      },
      "protocolEth()": {
        "details": "this will be",
        "returns": {
          "res": "-> (PROTOCOL_FEE_BPS * [all eth staked] / 10000) - [all previously extracted eth]"
        }
      },
      "setApprovalForAll(address,bool)": {
        "details": "Emits the ApprovalForAll event. The contract MUST allow  multiple operators per owner.",
        "params": {
          "_approved": "True if the operator is approved, false to revoke approval",
          "_operator": "Address to add to the set of authorized operators"
        }
      },
      "setMigrator(address)": {
        "details": "caller must be a trusted user",
        "params": {
          "migrator": "the address to set as the migrator contract"
        }
      },
      "stakedEth()": {
        "details": "can be used as the market-cap or tvl of all nuggft v1not equivilent to the balance of eth the contract holds, which also hs protocolEth and unclaimed eth from unsuccessful swaps"
      },
      "stakedShares()": {
        "details": "this is equivilent to the amount of nuggs in existance"
      },
      "supportsInterface(bytes4)": {
        "details": "Interface identification is specified in ERC-165. This function  uses less than 30,000 gas.",
        "params": {
          "interfaceID": "The interface identifier, as specified in ERC-165"
        },
        "returns": {
          "_0": "`true` if the contract implements `interfaceID` and  `interfaceID` is not 0xffffffff, `false` otherwise"
        }
      },
      "tokenURI(uint256)": {
        "details": "Throws if `_tokenId` is not a valid NFT. URIs are defined in RFC  3986. The URI may point to a JSON file that conforms to the \"ERC721  Metadata JSON Schema\"."
      },
      "valueForDelegate(address,uint160)": {
        "details": "returns 0 if no delegate can be made for this oken",
        "params": {
          "sender": "-> the address of the user who will be delegating",
          "tokenId": "-> the token to be delegated to"
        },
        "returns": {
          "canDelegate": "-> instead of reverting this function will return false",
          "nextSwapAmount": "-> the minimum value that must be sent with a delegate call",
          "senderCurrentOffer": "->"
        }
      },
      "valueForLiquidate(uint160)": {
        "details": "should be used to tell user how much eth to send for liquidate"
      },
      "valueForRebalance(uint160)": {
        "details": "should be used to tell user how much eth to send for rebalance"
      }
    },
    "version": 1
  },
  "userdoc": {
    "events": {
      "Genesis(uint256,uint32,uint24)": {
        "notice": "Explain to an end user what this does"
      }
    },
    "kind": "user",
    "methods": {
      "approve(address,uint256)": {
        "notice": "Change or reaffirm the approved address for an NFT"
      },
      "burn(uint160)": {
        "notice": "burns a nugg from existance, dealing the eth worth of that share to the user"
      },
      "ethPerShare()": {
        "notice": "returns the total \"ethPerShare\" held by the contract"
      },
      "extractProtocolEth()": {
        "notice": "sends the current protocolEth to the user and resets the value to zero"
      },
      "getApproved(uint256)": {
        "notice": "Get the approved address for a single NFT"
      },
      "isApprovedForAll(address,address)": {
        "notice": "Query if an address is an authorized operator for another address"
      },
      "loanInfo(uint160)": {
        "notice": "for a nugg's active loan: calculates the current min eth a user must send to liquidate or rebalance"
      },
      "minSharePrice()": {
        "notice": "returns the minimum eth that must be added to create a new share"
      },
      "name()": {
        "notice": "A descriptive name for a collection of NFTs in this contract"
      },
      "ownerOf(uint256)": {
        "notice": "Find the owner of an NFT"
      },
      "protocolEth()": {
        "notice": "returns the amount of eth extractable by protocol"
      },
      "setApprovalForAll(address,bool)": {
        "notice": "Enable or disable approval for a third party (\"operator\") to manage  all of `msg.sender`'s assets"
      },
      "setMigrator(address)": {
        "notice": "sets the migrator contract"
      },
      "stakedEth()": {
        "notice": "returns the total amount of staked eth held by the contract"
      },
      "stakedShares()": {
        "notice": "returns the total number of staked shares held by the contract"
      },
      "supportsInterface(bytes4)": {
        "notice": "Query if a contract implements an interface"
      },
      "symbol()": {
        "notice": "An abbreviated name for NFTs in this contract"
      },
      "tokenURI(uint256)": {
        "notice": "A distinct Uniform Resource Identifier (URI) for a given asset."
      },
      "valueForDelegate(address,uint160)": {
        "notice": "calculates the minimum eth that must be sent with a delegate call"
      },
      "valueForLiquidate(uint160)": {
        "notice": "\"toLiquidate\" value from \"loanInfo\""
      },
      "valueForRebalance(uint160)": {
        "notice": "\"toRebalance\" value from \"loanInfo\""
      }
    },
    "notice": "deviations from ERC721 standard: 1. no verificaiton the receiver is a ERC721Reciever - on top of this being a gross waste of gas, the way the swapping logic works makes this only worth calling when a user places an offer - and we did not want to call \"onERC721Recieved\" when no token was being sent. 2.",
    "version": 1
  },
  "storageLayout": {
    "storage": [
      {
        "astId": 20336,
        "contract": "src/NuggftV1.sol:NuggftV1",
        "label": "owners",
        "offset": 0,
        "slot": "0",
        "type": "t_mapping(t_uint256,t_address)"
      },
      {
        "astId": 20340,
        "contract": "src/NuggftV1.sol:NuggftV1",
        "label": "approvals",
        "offset": 0,
        "slot": "1",
        "type": "t_mapping(t_uint256,t_address)"
      },
      {
        "astId": 20346,
        "contract": "src/NuggftV1.sol:NuggftV1",
        "label": "operatorApprovals",
        "offset": 0,
        "slot": "2",
        "type": "t_mapping(t_address,t_mapping(t_address,t_bool))"
      },
      {
        "astId": 20800,
        "contract": "src/NuggftV1.sol:NuggftV1",
        "label": "isTrusted",
        "offset": 0,
        "slot": "3",
        "type": "t_mapping(t_address,t_bool)"
      },
      {
        "astId": 17094,
        "contract": "src/NuggftV1.sol:NuggftV1",
        "label": "settings",
        "offset": 0,
        "slot": "4",
        "type": "t_mapping(t_uint160,t_struct(Settings)17089_storage)"
      },
      {
        "astId": 17099,
        "contract": "src/NuggftV1.sol:NuggftV1",
        "label": "dotnuggV1StorageProxy",
        "offset": 0,
        "slot": "5",
        "type": "t_contract(IDotnuggV1StorageProxy)21357"
      },
      {
        "astId": 17104,
        "contract": "src/NuggftV1.sol:NuggftV1",
        "label": "dotnuggV1",
        "offset": 0,
        "slot": "6",
        "type": "t_contract(IDotnuggV1)21143"
      },
      {
        "astId": 17108,
        "contract": "src/NuggftV1.sol:NuggftV1",
        "label": "resolvers",
        "offset": 0,
        "slot": "7",
        "type": "t_mapping(t_uint256,t_address)"
      },
      {
        "astId": 17110,
        "contract": "src/NuggftV1.sol:NuggftV1",
        "label": "featureLengths",
        "offset": 0,
        "slot": "8",
        "type": "t_uint256"
      },
      {
        "astId": 18004,
        "contract": "src/NuggftV1.sol:NuggftV1",
        "label": "proofs",
        "offset": 0,
        "slot": "9",
        "type": "t_mapping(t_uint160,t_uint256)"
      },
      {
        "astId": 18811,
        "contract": "src/NuggftV1.sol:NuggftV1",
        "label": "migrator",
        "offset": 0,
        "slot": "10",
        "type": "t_address"
      },
      {
        "astId": 18813,
        "contract": "src/NuggftV1.sol:NuggftV1",
        "label": "stake",
        "offset": 0,
        "slot": "11",
        "type": "t_uint256"
      },
      {
        "astId": 19206,
        "contract": "src/NuggftV1.sol:NuggftV1",
        "label": "protocolItems",
        "offset": 0,
        "slot": "12",
        "type": "t_mapping(t_uint16,t_uint256)"
      },
      {
        "astId": 19211,
        "contract": "src/NuggftV1.sol:NuggftV1",
        "label": "swaps",
        "offset": 0,
        "slot": "13",
        "type": "t_mapping(t_uint160,t_struct(Mapping)19186_storage)"
      },
      {
        "astId": 17616,
        "contract": "src/NuggftV1.sol:NuggftV1",
        "label": "loans",
        "offset": 0,
        "slot": "14",
        "type": "t_mapping(t_uint160,t_uint256)"
      }
    ],
    "types": {
      "t_address": {
        "encoding": "inplace",
        "label": "address",
        "numberOfBytes": "20"
      },
      "t_bool": {
        "encoding": "inplace",
        "label": "bool",
        "numberOfBytes": "1"
      },
      "t_contract(IDotnuggV1)21143": {
        "encoding": "inplace",
        "label": "contract IDotnuggV1",
        "numberOfBytes": "20"
      },
      "t_contract(IDotnuggV1StorageProxy)21357": {
        "encoding": "inplace",
        "label": "contract IDotnuggV1StorageProxy",
        "numberOfBytes": "20"
      },
      "t_mapping(t_address,t_bool)": {
        "encoding": "mapping",
        "key": "t_address",
        "label": "mapping(address => bool)",
        "numberOfBytes": "32",
        "value": "t_bool"
      },
      "t_mapping(t_address,t_mapping(t_address,t_bool))": {
        "encoding": "mapping",
        "key": "t_address",
        "label": "mapping(address => mapping(address => bool))",
        "numberOfBytes": "32",
        "value": "t_mapping(t_address,t_bool)"
      },
      "t_mapping(t_address,t_uint256)": {
        "encoding": "mapping",
        "key": "t_address",
        "label": "mapping(address => uint256)",
        "numberOfBytes": "32",
        "value": "t_uint256"
      },
      "t_mapping(t_uint16,t_struct(Storage)19193_storage)": {
        "encoding": "mapping",
        "key": "t_uint16",
        "label": "mapping(uint16 => struct NuggftV1Swap.Storage)",
        "numberOfBytes": "32",
        "value": "t_struct(Storage)19193_storage"
      },
      "t_mapping(t_uint16,t_uint256)": {
        "encoding": "mapping",
        "key": "t_uint16",
        "label": "mapping(uint16 => uint256)",
        "numberOfBytes": "32",
        "value": "t_uint256"
      },
      "t_mapping(t_uint160,t_struct(Mapping)19186_storage)": {
        "encoding": "mapping",
        "key": "t_uint160",
        "label": "mapping(uint160 => struct NuggftV1Swap.Mapping)",
        "numberOfBytes": "32",
        "value": "t_struct(Mapping)19186_storage"
      },
      "t_mapping(t_uint160,t_struct(Settings)17089_storage)": {
        "encoding": "mapping",
        "key": "t_uint160",
        "label": "mapping(uint160 => struct NuggftV1Dotnugg.Settings)",
        "numberOfBytes": "32",
        "value": "t_struct(Settings)17089_storage"
      },
      "t_mapping(t_uint160,t_uint256)": {
        "encoding": "mapping",
        "key": "t_uint160",
        "label": "mapping(uint160 => uint256)",
        "numberOfBytes": "32",
        "value": "t_uint256"
      },
      "t_mapping(t_uint256,t_address)": {
        "encoding": "mapping",
        "key": "t_uint256",
        "label": "mapping(uint256 => address)",
        "numberOfBytes": "32",
        "value": "t_address"
      },
      "t_mapping(t_uint256,t_string_storage)": {
        "encoding": "mapping",
        "key": "t_uint256",
        "label": "mapping(uint256 => string)",
        "numberOfBytes": "32",
        "value": "t_string_storage"
      },
      "t_mapping(t_uint256,t_uint256)": {
        "encoding": "mapping",
        "key": "t_uint256",
        "label": "mapping(uint256 => uint256)",
        "numberOfBytes": "32",
        "value": "t_uint256"
      },
      "t_string_storage": {
        "encoding": "bytes",
        "label": "string",
        "numberOfBytes": "32"
      },
      "t_struct(Mapping)19186_storage": {
        "encoding": "inplace",
        "label": "struct NuggftV1Swap.Mapping",
        "members": [
          {
            "astId": 19180,
            "contract": "src/NuggftV1.sol:NuggftV1",
            "label": "self",
            "offset": 0,
            "slot": "0",
            "type": "t_struct(Storage)19193_storage"
          },
          {
            "astId": 19185,
            "contract": "src/NuggftV1.sol:NuggftV1",
            "label": "items",
            "offset": 0,
            "slot": "2",
            "type": "t_mapping(t_uint16,t_struct(Storage)19193_storage)"
          }
        ],
        "numberOfBytes": "96"
      },
      "t_struct(Settings)17089_storage": {
        "encoding": "inplace",
        "label": "struct NuggftV1Dotnugg.Settings",
        "members": [
          {
            "astId": 17082,
            "contract": "src/NuggftV1.sol:NuggftV1",
            "label": "anchorOverrides",
            "offset": 0,
            "slot": "0",
            "type": "t_mapping(t_uint256,t_uint256)"
          },
          {
            "astId": 17086,
            "contract": "src/NuggftV1.sol:NuggftV1",
            "label": "styles",
            "offset": 0,
            "slot": "1",
            "type": "t_mapping(t_uint256,t_string_storage)"
          },
          {
            "astId": 17088,
            "contract": "src/NuggftV1.sol:NuggftV1",
            "label": "background",
            "offset": 0,
            "slot": "2",
            "type": "t_string_storage"
          }
        ],
        "numberOfBytes": "96"
      },
      "t_struct(Storage)19193_storage": {
        "encoding": "inplace",
        "label": "struct NuggftV1Swap.Storage",
        "members": [
          {
            "astId": 19188,
            "contract": "src/NuggftV1.sol:NuggftV1",
            "label": "data",
            "offset": 0,
            "slot": "0",
            "type": "t_uint256"
          },
          {
            "astId": 19192,
            "contract": "src/NuggftV1.sol:NuggftV1",
            "label": "offers",
            "offset": 0,
            "slot": "1",
            "type": "t_mapping(t_address,t_uint256)"
          }
        ],
        "numberOfBytes": "64"
      },
      "t_uint16": {
        "encoding": "inplace",
        "label": "uint16",
        "numberOfBytes": "2"
      },
      "t_uint160": {
        "encoding": "inplace",
        "label": "uint160",
        "numberOfBytes": "20"
      },
      "t_uint256": {
        "encoding": "inplace",
        "label": "uint256",
        "numberOfBytes": "32"
      }
    }
  }
}